{
	"CMONProject.sol": {
		"LaunchSystem": {
			"abi": [
				{
					"inputs": [],
					"stateMutability": "nonpayable",
					"type": "constructor"
				},
				{
					"inputs": [
						{
							"internalType": "string",
							"name": "login",
							"type": "string"
						},
						{
							"internalType": "string",
							"name": "password",
							"type": "string"
						}
					],
					"name": "registration",
					"outputs": [],
					"stateMutability": "nonpayable",
					"type": "function"
				}
			],
			"devdoc": {
				"kind": "dev",
				"methods": {},
				"version": 1
			},
			"evm": {
				"assembly": "    /* \"CMONProject.sol\":150:1365  contract LaunchSystem {... */\n  mstore(0x40, 0x80)\n    /* \"CMONProject.sol\":433:452  new CryptoMonster() */\n  mload(0x40)\n  tag_1\n  swap1\n  tag_2\n  jump\t// in\ntag_1:\n  mload(0x40)\n  dup1\n  swap2\n  sub\n  swap1\n  0x00\n  create\n  dup1\n  iszero\n  dup1\n  iszero\n  tag_3\n  jumpi\n  returndatasize\n  0x00\n  dup1\n  returndatacopy\n  revert(0x00, returndatasize)\ntag_3:\n  pop\n    /* \"CMONProject.sol\":412:452  CryptoMonster CMON = new CryptoMonster() */\n  0x00\n  dup1\n  sload\n  not(sub(shl(0xa0, 0x01), 0x01))\n  and\n  sub(shl(0xa0, 0x01), 0x01)\n  swap3\n  swap1\n  swap3\n  and\n  swap2\n  swap1\n  swap2\n  or\n  swap1\n  sstore\n    /* \"CMONProject.sol\":629:1081  constructor() {... */\n  callvalue\n  dup1\n  iszero\n  tag_4\n  jumpi\n  0x00\n  dup1\n  revert\ntag_4:\n  pop\n    /* \"CMONProject.sol\":716:784  User(\"Investor1\", keccak256(abi.encode(\"p@55W0RD\")), Roles.Investor) */\n  0x40\n  dup1\n  mload\n  0xa0\n  dup2\n  add\n  dup3\n  mstore\n  0x09\n  0x60\n  dup3\n  add\n  swap1\n  dup2\n  mstore\n  shl(0xb8, 0x496e766573746f7231)\n  0x80\n  dup4\n  add\n  mstore\n  dup2\n  mstore\n    /* \"CMONProject.sol\":744:766  abi.encode(\"p@55W0RD\") */\n  swap1\n  mload\n    /* \"CMONProject.sol\":716:784  User(\"Investor1\", keccak256(abi.encode(\"p@55W0RD\")), Roles.Investor) */\n  0x20\n  dup1\n  dup4\n  add\n  swap2\n    /* \"CMONProject.sol\":744:766  abi.encode(\"p@55W0RD\") */\n  tag_7\n  swap2\n  add\n    /* \"#utility.yul\":216:218   */\n  0x20\n    /* \"#utility.yul\":198:219   */\n  dup1\n  dup3\n  mstore\n    /* \"#utility.yul\":255:256   */\n  0x08\n    /* \"#utility.yul\":235:253   */\n  swap1\n  dup3\n  add\n    /* \"#utility.yul\":228:257   */\n  mstore\n  shl(0xc2, 0x1c100d4d55cc1491)\n    /* \"#utility.yul\":288:290   */\n  0x40\n    /* \"#utility.yul\":273:291   */\n  dup3\n  add\n    /* \"#utility.yul\":266:304   */\n  mstore\n    /* \"#utility.yul\":336:338   */\n  0x60\n    /* \"#utility.yul\":321:339   */\n  add\n  swap1\n    /* \"#utility.yul\":14:345   */\n  jump\n    /* \"CMONProject.sol\":744:766  abi.encode(\"p@55W0RD\") */\ntag_7:\n  0x40\n  dup1\n  mload\n  not(0x1f)\n  dup2\n  dup5\n  sub\n  add\n  dup2\n  mstore\n  swap2\n  swap1\n  mstore\n    /* \"CMONProject.sol\":734:767  keccak256(abi.encode(\"p@55W0RD\")) */\n  dup1\n  mload\n    /* \"CMONProject.sol\":744:766  abi.encode(\"p@55W0RD\") */\n  0x20\n    /* \"CMONProject.sol\":734:767  keccak256(abi.encode(\"p@55W0RD\")) */\n  swap2\n  dup3\n  add\n  keccak256\n    /* \"CMONProject.sol\":716:784  User(\"Investor1\", keccak256(abi.encode(\"p@55W0RD\")), Roles.Investor) */\n  dup3\n  mstore\n  add\n    /* \"CMONProject.sol\":769:783  Roles.Investor */\n  0x02\n    /* \"CMONProject.sol\":716:784  User(\"Investor1\", keccak256(abi.encode(\"p@55W0RD\")), Roles.Investor) */\n  swap1\n  mstore\n    /* \"CMONProject.sol\":670:712  0xdD870fA1b7C4700F2BD7f44238821C26f7392148 */\n  0xdd870fa1b7c4700f2bd7f44238821c26f7392148\n    /* \"CMONProject.sol\":654:713  registeredUsers[0xdD870fA1b7C4700F2BD7f44238821C26f7392148] */\n  0x00\n  mstore\n    /* \"CMONProject.sol\":654:669  registeredUsers */\n  0x01\n    /* \"CMONProject.sol\":654:713  registeredUsers[0xdD870fA1b7C4700F2BD7f44238821C26f7392148] */\n  0x20\n  mstore\n    /* \"CMONProject.sol\":654:784  registeredUsers[0xdD870fA1b7C4700F2BD7f44238821C26f7392148] = User(\"Investor1\", keccak256(abi.encode(\"p@55W0RD\")), Roles.Investor) */\n  dup1\n  mload\n    /* \"CMONProject.sol\":654:713  registeredUsers[0xdD870fA1b7C4700F2BD7f44238821C26f7392148] */\n  0xf7f18749bcf7740ee9163a287ba21159885df3a4fcd012cace9f3e8cc3839396\n  swap1\n  dup2\n  swap1\n    /* \"CMONProject.sol\":654:784  registeredUsers[0xdD870fA1b7C4700F2BD7f44238821C26f7392148] = User(\"Investor1\", keccak256(abi.encode(\"p@55W0RD\")), Roles.Investor) */\n  tag_12\n  swap1\n    /* \"CMONProject.sol\":654:713  registeredUsers[0xdD870fA1b7C4700F2BD7f44238821C26f7392148] */\n  dup3\n    /* \"CMONProject.sol\":654:784  registeredUsers[0xdD870fA1b7C4700F2BD7f44238821C26f7392148] = User(\"Investor1\", keccak256(abi.encode(\"p@55W0RD\")), Roles.Investor) */\n  tag_13\n  jump\t// in\ntag_12:\n  pop\n  0x20\n  dup3\n  add\n  mload\n  dup2\n  0x01\n  add\n  sstore\n  0x40\n  dup3\n  add\n  mload\n  dup2\n  0x02\n  add\n  exp(0x0100, 0x00)\n  dup2\n  sload\n  dup2\n  0xff\n  mul\n  not\n  and\n  swap1\n  dup4\n  0x04\n  dup2\n  gt\n  iszero\n  tag_15\n  jumpi\n  tag_15\n  tag_11\n  jump\t// in\ntag_15:\n  mul\n  or\n  swap1\n  sstore\n  pop\n  pop\n    /* \"CMONProject.sol\":857:930  User(\"Investor2\", keccak256(abi.encode(\"844systemUser\")), Roles.Investor) */\n  0x40\n  dup1\n  mload\n  0xa0\n  dup2\n  add\n  dup3\n  mstore\n  0x09\n  0x60\n  dup3\n  add\n  swap1\n  dup2\n  mstore\n  shl(0xb9, 0x24b73b32b9ba37b919)\n  0x80\n  dup4\n  add\n  mstore\n  dup2\n  mstore\n    /* \"CMONProject.sol\":885:912  abi.encode(\"844systemUser\") */\n  swap1\n  mload\n    /* \"CMONProject.sol\":857:930  User(\"Investor2\", keccak256(abi.encode(\"844systemUser\")), Roles.Investor) */\n  swap1\n  swap2\n  pop\n  0x20\n  dup1\n  dup4\n  add\n  swap2\n    /* \"CMONProject.sol\":885:912  abi.encode(\"844systemUser\") */\n  tag_16\n  swap2\n  add\n    /* \"#utility.yul\":3405:3407   */\n  0x20\n    /* \"#utility.yul\":3387:3408   */\n  dup1\n  dup3\n  mstore\n    /* \"#utility.yul\":3444:3446   */\n  0x0d\n    /* \"#utility.yul\":3424:3442   */\n  swap1\n  dup3\n  add\n    /* \"#utility.yul\":3417:3447   */\n  mstore\n  shl(0x99, 0x1c1a1a39bcb9ba32b6aab9b2b9)\n    /* \"#utility.yul\":3478:3480   */\n  0x40\n    /* \"#utility.yul\":3463:3481   */\n  dup3\n  add\n    /* \"#utility.yul\":3456:3499   */\n  mstore\n    /* \"#utility.yul\":3531:3533   */\n  0x60\n    /* \"#utility.yul\":3516:3534   */\n  add\n  swap1\n    /* \"#utility.yul\":3203:3540   */\n  jump\n    /* \"CMONProject.sol\":885:912  abi.encode(\"844systemUser\") */\ntag_16:\n  0x40\n  dup1\n  mload\n  not(0x1f)\n  dup2\n  dup5\n  sub\n  add\n  dup2\n  mstore\n  swap2\n  swap1\n  mstore\n    /* \"CMONProject.sol\":875:913  keccak256(abi.encode(\"844systemUser\")) */\n  dup1\n  mload\n    /* \"CMONProject.sol\":885:912  abi.encode(\"844systemUser\") */\n  0x20\n    /* \"CMONProject.sol\":875:913  keccak256(abi.encode(\"844systemUser\")) */\n  swap2\n  dup3\n  add\n  keccak256\n    /* \"CMONProject.sol\":857:930  User(\"Investor2\", keccak256(abi.encode(\"844systemUser\")), Roles.Investor) */\n  dup3\n  mstore\n  add\n    /* \"CMONProject.sol\":915:929  Roles.Investor */\n  0x02\n    /* \"CMONProject.sol\":857:930  User(\"Investor2\", keccak256(abi.encode(\"844systemUser\")), Roles.Investor) */\n  swap1\n  mstore\n    /* \"CMONProject.sol\":811:853  0x583031D1113aD414F02576BD6afaBfb302140225 */\n  0x583031d1113ad414f02576bd6afabfb302140225\n    /* \"CMONProject.sol\":795:854  registeredUsers[0x583031D1113aD414F02576BD6afaBfb302140225] */\n  0x00\n  mstore\n    /* \"CMONProject.sol\":795:810  registeredUsers */\n  0x01\n    /* \"CMONProject.sol\":795:854  registeredUsers[0x583031D1113aD414F02576BD6afaBfb302140225] */\n  0x20\n  mstore\n    /* \"CMONProject.sol\":795:930  registeredUsers[0x583031D1113aD414F02576BD6afaBfb302140225] = User(\"Investor2\", keccak256(abi.encode(\"844systemUser\")), Roles.Investor) */\n  dup1\n  mload\n    /* \"CMONProject.sol\":795:854  registeredUsers[0x583031D1113aD414F02576BD6afaBfb302140225] */\n  0xdc0b8a166480193399091c72e567dfb66590a22c66dc3ed69bece6c250570fe1\n  swap1\n  dup2\n  swap1\n    /* \"CMONProject.sol\":795:930  registeredUsers[0x583031D1113aD414F02576BD6afaBfb302140225] = User(\"Investor2\", keccak256(abi.encode(\"844systemUser\")), Roles.Investor) */\n  tag_20\n  swap1\n    /* \"CMONProject.sol\":795:854  registeredUsers[0x583031D1113aD414F02576BD6afaBfb302140225] */\n  dup3\n    /* \"CMONProject.sol\":795:930  registeredUsers[0x583031D1113aD414F02576BD6afaBfb302140225] = User(\"Investor2\", keccak256(abi.encode(\"844systemUser\")), Roles.Investor) */\n  tag_13\n  jump\t// in\ntag_20:\n  pop\n  0x20\n  dup3\n  add\n  mload\n  dup2\n  0x01\n  add\n  sstore\n  0x40\n  dup3\n  add\n  mload\n  dup2\n  0x02\n  add\n  exp(0x0100, 0x00)\n  dup2\n  sload\n  dup2\n  0xff\n  mul\n  not\n  and\n  swap1\n  dup4\n  0x04\n  dup2\n  gt\n  iszero\n  tag_22\n  jumpi\n  tag_22\n  tag_11\n  jump\t// in\ntag_22:\n  mul\n  or\n  swap1\n  sstore\n  pop\n  pop\n    /* \"CMONProject.sol\":1003:1073  User(\"Best friend\", keccak256(abi.encode(\"pa55WORD\")), Roles.Investor) */\n  0x40\n  dup1\n  mload\n  0xa0\n  dup2\n  add\n  dup3\n  mstore\n  0x0b\n  0x60\n  dup3\n  add\n  swap1\n  dup2\n  mstore\n  shl(0xaa, 0x10995cdd08199c9a595b99)\n  0x80\n  dup4\n  add\n  mstore\n  dup2\n  mstore\n    /* \"CMONProject.sol\":1033:1055  abi.encode(\"pa55WORD\") */\n  swap1\n  mload\n    /* \"CMONProject.sol\":1003:1073  User(\"Best friend\", keccak256(abi.encode(\"pa55WORD\")), Roles.Investor) */\n  swap1\n  swap2\n  pop\n  0x20\n  dup1\n  dup4\n  add\n  swap2\n    /* \"CMONProject.sol\":1033:1055  abi.encode(\"pa55WORD\") */\n  tag_23\n  swap2\n  add\n    /* \"#utility.yul\":3747:3749   */\n  0x20\n    /* \"#utility.yul\":3729:3750   */\n  dup1\n  dup3\n  mstore\n    /* \"#utility.yul\":3786:3787   */\n  0x08\n    /* \"#utility.yul\":3766:3784   */\n  swap1\n  dup3\n  add\n    /* \"#utility.yul\":3759:3788   */\n  mstore\n  shl(0xc2, 0x1c184d4d55d3d491)\n    /* \"#utility.yul\":3819:3821   */\n  0x40\n    /* \"#utility.yul\":3804:3822   */\n  dup3\n  add\n    /* \"#utility.yul\":3797:3835   */\n  mstore\n    /* \"#utility.yul\":3867:3869   */\n  0x60\n    /* \"#utility.yul\":3852:3870   */\n  add\n  swap1\n    /* \"#utility.yul\":3545:3876   */\n  jump\n    /* \"CMONProject.sol\":1033:1055  abi.encode(\"pa55WORD\") */\ntag_23:\n  0x40\n  dup1\n  mload\n  not(0x1f)\n  dup2\n  dup5\n  sub\n  add\n  dup2\n  mstore\n  swap2\n  swap1\n  mstore\n    /* \"CMONProject.sol\":1023:1056  keccak256(abi.encode(\"pa55WORD\")) */\n  dup1\n  mload\n    /* \"CMONProject.sol\":1033:1055  abi.encode(\"pa55WORD\") */\n  0x20\n    /* \"CMONProject.sol\":1023:1056  keccak256(abi.encode(\"pa55WORD\")) */\n  swap2\n  dup3\n  add\n  keccak256\n    /* \"CMONProject.sol\":1003:1073  User(\"Best friend\", keccak256(abi.encode(\"pa55WORD\")), Roles.Investor) */\n  dup3\n  mstore\n  add\n    /* \"CMONProject.sol\":1058:1072  Roles.Investor */\n  0x02\n    /* \"CMONProject.sol\":1003:1073  User(\"Best friend\", keccak256(abi.encode(\"pa55WORD\")), Roles.Investor) */\n  swap1\n  mstore\n    /* \"CMONProject.sol\":957:999  0x4B0897b0513fdC7C541B6d9D7E929C4e5364D2dB */\n  0x4b0897b0513fdc7c541b6d9d7e929c4e5364d2db\n    /* \"CMONProject.sol\":941:1000  registeredUsers[0x4B0897b0513fdC7C541B6d9D7E929C4e5364D2dB] */\n  0x00\n  mstore\n    /* \"CMONProject.sol\":941:956  registeredUsers */\n  0x01\n    /* \"CMONProject.sol\":941:1000  registeredUsers[0x4B0897b0513fdC7C541B6d9D7E929C4e5364D2dB] */\n  0x20\n  mstore\n    /* \"CMONProject.sol\":941:1073  registeredUsers[0x4B0897b0513fdC7C541B6d9D7E929C4e5364D2dB] = User(\"Best friend\", keccak256(abi.encode(\"pa55WORD\")), Roles.Investor) */\n  dup1\n  mload\n    /* \"CMONProject.sol\":941:1000  registeredUsers[0x4B0897b0513fdC7C541B6d9D7E929C4e5364D2dB] */\n  0x10a20f96a687af27f4f9f18585ae5f3d7119f863442ba4a404b9f0c48bbfbdfb\n  swap1\n  dup2\n  swap1\n    /* \"CMONProject.sol\":941:1073  registeredUsers[0x4B0897b0513fdC7C541B6d9D7E929C4e5364D2dB] = User(\"Best friend\", keccak256(abi.encode(\"pa55WORD\")), Roles.Investor) */\n  tag_27\n  swap1\n    /* \"CMONProject.sol\":941:1000  registeredUsers[0x4B0897b0513fdC7C541B6d9D7E929C4e5364D2dB] */\n  dup3\n    /* \"CMONProject.sol\":941:1073  registeredUsers[0x4B0897b0513fdC7C541B6d9D7E929C4e5364D2dB] = User(\"Best friend\", keccak256(abi.encode(\"pa55WORD\")), Roles.Investor) */\n  tag_13\n  jump\t// in\ntag_27:\n  pop\n  0x20\n  dup3\n  add\n  mload\n  dup2\n  0x01\n  add\n  sstore\n  0x40\n  dup3\n  add\n  mload\n  dup2\n  0x02\n  add\n  exp(0x0100, 0x00)\n  dup2\n  sload\n  dup2\n  0xff\n  mul\n  not\n  and\n  swap1\n  dup4\n  0x04\n  dup2\n  gt\n  iszero\n  tag_29\n  jumpi\n  tag_29\n  tag_11\n  jump\t// in\ntag_29:\n  mul\n  or\n  swap1\n  sstore\n  pop\n  swap1\n  pop\n  pop\n    /* \"CMONProject.sol\":150:1365  contract LaunchSystem {... */\n  jump(tag_36)\ntag_2:\n  dataSize(sub_1)\n  dup1\n  dataOffset(sub_1)\n  dup4\n  codecopy\n  add\n  swap1\n  jump\t// out\n    /* \"#utility.yul\":350:477   */\ntag_11:\n    /* \"#utility.yul\":411:421   */\n  0x4e487b71\n    /* \"#utility.yul\":406:409   */\n  0xe0\n    /* \"#utility.yul\":402:422   */\n  shl\n    /* \"#utility.yul\":399:400   */\n  0x00\n    /* \"#utility.yul\":392:423   */\n  mstore\n    /* \"#utility.yul\":442:446   */\n  0x21\n    /* \"#utility.yul\":439:440   */\n  0x04\n    /* \"#utility.yul\":432:447   */\n  mstore\n    /* \"#utility.yul\":466:470   */\n  0x24\n    /* \"#utility.yul\":463:464   */\n  0x00\n    /* \"#utility.yul\":456:471   */\n  revert\n    /* \"#utility.yul\":482:609   */\ntag_31:\n    /* \"#utility.yul\":543:553   */\n  0x4e487b71\n    /* \"#utility.yul\":538:541   */\n  0xe0\n    /* \"#utility.yul\":534:554   */\n  shl\n    /* \"#utility.yul\":531:532   */\n  0x00\n    /* \"#utility.yul\":524:555   */\n  mstore\n    /* \"#utility.yul\":574:578   */\n  0x41\n    /* \"#utility.yul\":571:572   */\n  0x04\n    /* \"#utility.yul\":564:579   */\n  mstore\n    /* \"#utility.yul\":598:602   */\n  0x24\n    /* \"#utility.yul\":595:596   */\n  0x00\n    /* \"#utility.yul\":588:603   */\n  revert\n    /* \"#utility.yul\":614:994   */\ntag_32:\n    /* \"#utility.yul\":693:694   */\n  0x01\n    /* \"#utility.yul\":689:701   */\n  dup2\n  dup2\n  shr\n  swap1\n    /* \"#utility.yul\":736:748   */\n  dup3\n  and\n  dup1\n    /* \"#utility.yul\":757:818   */\n  tag_41\n  jumpi\n    /* \"#utility.yul\":811:815   */\n  0x7f\n    /* \"#utility.yul\":803:809   */\n  dup3\n    /* \"#utility.yul\":799:816   */\n  and\n    /* \"#utility.yul\":789:816   */\n  swap2\n  pop\n    /* \"#utility.yul\":757:818   */\ntag_41:\n    /* \"#utility.yul\":864:866   */\n  0x20\n    /* \"#utility.yul\":856:862   */\n  dup3\n    /* \"#utility.yul\":853:867   */\n  lt\n    /* \"#utility.yul\":833:851   */\n  dup2\n    /* \"#utility.yul\":830:868   */\n  sub\n    /* \"#utility.yul\":827:988   */\n  tag_42\n  jumpi\n    /* \"#utility.yul\":910:920   */\n  0x4e487b71\n    /* \"#utility.yul\":905:908   */\n  0xe0\n    /* \"#utility.yul\":901:921   */\n  shl\n    /* \"#utility.yul\":898:899   */\n  0x00\n    /* \"#utility.yul\":891:922   */\n  mstore\n    /* \"#utility.yul\":945:949   */\n  0x22\n    /* \"#utility.yul\":942:943   */\n  0x04\n    /* \"#utility.yul\":935:950   */\n  mstore\n    /* \"#utility.yul\":973:977   */\n  0x24\n    /* \"#utility.yul\":970:971   */\n  0x00\n    /* \"#utility.yul\":963:978   */\n  revert\n    /* \"#utility.yul\":827:988   */\ntag_42:\n  pop\n    /* \"#utility.yul\":614:994   */\n  swap2\n  swap1\n  pop\n  jump\t// out\n    /* \"#utility.yul\":1125:1670   */\ntag_34:\n    /* \"#utility.yul\":1227:1229   */\n  0x1f\n    /* \"#utility.yul\":1222:1225   */\n  dup3\n    /* \"#utility.yul\":1219:1230   */\n  gt\n    /* \"#utility.yul\":1216:1664   */\n  iszero\n  tag_45\n  jumpi\n    /* \"#utility.yul\":1263:1264   */\n  0x00\n    /* \"#utility.yul\":1288:1293   */\n  dup2\n    /* \"#utility.yul\":1284:1286   */\n  dup2\n    /* \"#utility.yul\":1277:1294   */\n  mstore\n    /* \"#utility.yul\":1333:1337   */\n  0x20\n    /* \"#utility.yul\":1329:1331   */\n  dup2\n    /* \"#utility.yul\":1319:1338   */\n  keccak256\n    /* \"#utility.yul\":1403:1405   */\n  0x1f\n    /* \"#utility.yul\":1391:1401   */\n  dup6\n    /* \"#utility.yul\":1387:1406   */\n  add\n    /* \"#utility.yul\":1384:1385   */\n  0x05\n    /* \"#utility.yul\":1380:1407   */\n  shr\n    /* \"#utility.yul\":1374:1378   */\n  dup2\n    /* \"#utility.yul\":1370:1408   */\n  add\n    /* \"#utility.yul\":1439:1443   */\n  0x20\n    /* \"#utility.yul\":1427:1437   */\n  dup7\n    /* \"#utility.yul\":1424:1444   */\n  lt\n    /* \"#utility.yul\":1421:1468   */\n  iszero\n  tag_46\n  jumpi\n  pop\n    /* \"#utility.yul\":1462:1466   */\n  dup1\n    /* \"#utility.yul\":1421:1468   */\ntag_46:\n    /* \"#utility.yul\":1517:1519   */\n  0x1f\n    /* \"#utility.yul\":1512:1515   */\n  dup6\n    /* \"#utility.yul\":1508:1520   */\n  add\n    /* \"#utility.yul\":1505:1506   */\n  0x05\n    /* \"#utility.yul\":1501:1521   */\n  shr\n    /* \"#utility.yul\":1495:1499   */\n  dup3\n    /* \"#utility.yul\":1491:1522   */\n  add\n    /* \"#utility.yul\":1481:1522   */\n  swap2\n  pop\n    /* \"#utility.yul\":1572:1654   */\ntag_47:\n    /* \"#utility.yul\":1590:1592   */\n  dup2\n    /* \"#utility.yul\":1583:1588   */\n  dup2\n    /* \"#utility.yul\":1580:1593   */\n  lt\n    /* \"#utility.yul\":1572:1654   */\n  iszero\n  tag_49\n  jumpi\n    /* \"#utility.yul\":1635:1652   */\n  dup3\n  dup2\n  sstore\n    /* \"#utility.yul\":1616:1617   */\n  0x01\n    /* \"#utility.yul\":1605:1618   */\n  add\n    /* \"#utility.yul\":1572:1654   */\n  jump(tag_47)\ntag_49:\n    /* \"#utility.yul\":1576:1579   */\n  pop\n  pop\n  pop\n    /* \"#utility.yul\":1216:1664   */\ntag_45:\n    /* \"#utility.yul\":1125:1670   */\n  pop\n  pop\n  pop\n  jump\t// out\n    /* \"#utility.yul\":1846:3198   */\ntag_13:\n    /* \"#utility.yul\":1966:1976   */\n  dup2\n  mload\n  sub(shl(0x40, 0x01), 0x01)\n    /* \"#utility.yul\":1988:2018   */\n  dup2\n  gt\n    /* \"#utility.yul\":1985:2041   */\n  iszero\n  tag_53\n  jumpi\n    /* \"#utility.yul\":2021:2039   */\n  tag_53\n  tag_31\n  jump\t// in\ntag_53:\n    /* \"#utility.yul\":2050:2147   */\n  tag_54\n    /* \"#utility.yul\":2140:2146   */\n  dup2\n    /* \"#utility.yul\":2100:2138   */\n  tag_55\n    /* \"#utility.yul\":2132:2136   */\n  dup5\n    /* \"#utility.yul\":2126:2137   */\n  sload\n    /* \"#utility.yul\":2100:2138   */\n  tag_32\n  jump\t// in\ntag_55:\n    /* \"#utility.yul\":2094:2098   */\n  dup5\n    /* \"#utility.yul\":2050:2147   */\n  tag_34\n  jump\t// in\ntag_54:\n    /* \"#utility.yul\":2202:2206   */\n  0x20\n  dup1\n    /* \"#utility.yul\":2266:2268   */\n  0x1f\n    /* \"#utility.yul\":2255:2269   */\n  dup4\n  gt\n    /* \"#utility.yul\":2283:2284   */\n  0x01\n    /* \"#utility.yul\":2278:2941   */\n  dup2\n  eq\n  tag_57\n  jumpi\n    /* \"#utility.yul\":2985:2986   */\n  0x00\n    /* \"#utility.yul\":3002:3008   */\n  dup5\n    /* \"#utility.yul\":2999:3088   */\n  iszero\n  tag_58\n  jumpi\n  pop\n    /* \"#utility.yul\":3054:3073   */\n  dup6\n  dup4\n  add\n    /* \"#utility.yul\":3048:3074   */\n  mload\n    /* \"#utility.yul\":2999:3088   */\ntag_58:\n  not(0x00)\n    /* \"#utility.yul\":1803:1804   */\n  0x03\n    /* \"#utility.yul\":1799:1810   */\n  dup7\n  swap1\n  shl\n    /* \"#utility.yul\":1795:1819   */\n  shr\n    /* \"#utility.yul\":1791:1820   */\n  not\n    /* \"#utility.yul\":1781:1821   */\n  and\n    /* \"#utility.yul\":1827:1828   */\n  0x01\n    /* \"#utility.yul\":1823:1834   */\n  dup6\n  swap1\n  shl\n    /* \"#utility.yul\":1778:1835   */\n  or\n    /* \"#utility.yul\":3101:3182   */\n  dup6\n  sstore\n    /* \"#utility.yul\":2248:3192   */\n  jump(tag_49)\n    /* \"#utility.yul\":2278:2941   */\ntag_57:\n    /* \"#utility.yul\":1072:1073   */\n  0x00\n    /* \"#utility.yul\":1065:1079   */\n  dup6\n  dup2\n  mstore\n    /* \"#utility.yul\":1109:1113   */\n  0x20\n    /* \"#utility.yul\":1096:1114   */\n  dup2\n  keccak256\n  not(0x1f)\n    /* \"#utility.yul\":2314:2334   */\n  dup7\n  and\n  swap2\n    /* \"#utility.yul\":2432:2668   */\ntag_61:\n    /* \"#utility.yul\":2446:2453   */\n  dup3\n    /* \"#utility.yul\":2443:2444   */\n  dup2\n    /* \"#utility.yul\":2440:2454   */\n  lt\n    /* \"#utility.yul\":2432:2668   */\n  iszero\n  tag_63\n  jumpi\n    /* \"#utility.yul\":2535:2554   */\n  dup9\n  dup7\n  add\n    /* \"#utility.yul\":2529:2555   */\n  mload\n    /* \"#utility.yul\":2514:2556   */\n  dup3\n  sstore\n    /* \"#utility.yul\":2627:2654   */\n  swap5\n  dup5\n  add\n  swap5\n    /* \"#utility.yul\":2595:2596   */\n  0x01\n    /* \"#utility.yul\":2583:2597   */\n  swap1\n  swap2\n  add\n  swap1\n    /* \"#utility.yul\":2462:2481   */\n  dup5\n  add\n    /* \"#utility.yul\":2432:2668   */\n  jump(tag_61)\ntag_63:\n    /* \"#utility.yul\":2436:2439   */\n  pop\n    /* \"#utility.yul\":2696:2702   */\n  dup6\n    /* \"#utility.yul\":2687:2694   */\n  dup3\n    /* \"#utility.yul\":2684:2703   */\n  lt\n    /* \"#utility.yul\":2681:2882   */\n  iszero\n  tag_64\n  jumpi\n    /* \"#utility.yul\":2757:2776   */\n  dup8\n  dup6\n  add\n    /* \"#utility.yul\":2751:2777   */\n  mload\n  not(0x00)\n    /* \"#utility.yul\":2840:2841   */\n  0x03\n    /* \"#utility.yul\":2836:2850   */\n  dup9\n  swap1\n  shl\n    /* \"#utility.yul\":2852:2855   */\n  0xf8\n    /* \"#utility.yul\":2832:2856   */\n  and\n    /* \"#utility.yul\":2828:2865   */\n  shr\n    /* \"#utility.yul\":2824:2866   */\n  not\n    /* \"#utility.yul\":2809:2867   */\n  and\n    /* \"#utility.yul\":2794:2868   */\n  dup2\n  sstore\n    /* \"#utility.yul\":2681:2882   */\ntag_64:\n  pop\n  pop\n  pop\n  pop\n  pop\n    /* \"#utility.yul\":2928:2929   */\n  0x01\n    /* \"#utility.yul\":2912:2926   */\n  swap1\n  dup2\n  shl\n    /* \"#utility.yul\":2908:2930   */\n  add\n    /* \"#utility.yul\":2895:2931   */\n  swap1\n  sstore\n  pop\n    /* \"#utility.yul\":1846:3198   */\n  jump\t// out\n    /* \"#utility.yul\":3545:3876   */\ntag_36:\n    /* \"CMONProject.sol\":150:1365  contract LaunchSystem {... */\n  dataSize(sub_0)\n  dup1\n  dataOffset(sub_0)\n  0x00\n  codecopy\n  0x00\n  return\nstop\n\nsub_0: assembly {\n        /* \"CMONProject.sol\":150:1365  contract LaunchSystem {... */\n      mstore(0x40, 0x80)\n      callvalue\n      dup1\n      iszero\n      tag_1\n      jumpi\n      0x00\n      dup1\n      revert\n    tag_1:\n      pop\n      jumpi(tag_2, lt(calldatasize, 0x04))\n      shr(0xe0, calldataload(0x00))\n      dup1\n      0x48419dc8\n      eq\n      tag_3\n      jumpi\n    tag_2:\n      0x00\n      dup1\n      revert\n        /* \"CMONProject.sol\":1089:1360  function registration(string memory login, string memory password) public {... */\n    tag_3:\n      tag_4\n      tag_5\n      calldatasize\n      0x04\n      tag_6\n      jump\t// in\n    tag_5:\n      tag_7\n      jump\t// in\n    tag_4:\n      stop\n    tag_7:\n        /* \"CMONProject.sol\":1198:1208  msg.sender */\n      caller\n        /* \"CMONProject.sol\":1218:1229  Roles.Guest */\n      0x00\n        /* \"CMONProject.sol\":1182:1209  registeredUsers[msg.sender] */\n      swap1\n      dup2\n      mstore\n        /* \"CMONProject.sol\":1182:1197  registeredUsers */\n      0x01\n        /* \"CMONProject.sol\":1182:1209  registeredUsers[msg.sender] */\n      0x20\n      mstore\n      0x40\n      dup2\n      keccak256\n        /* \"CMONProject.sol\":1182:1214  registeredUsers[msg.sender].role */\n      0x02\n      add\n      sload\n      0xff\n      and\n        /* \"CMONProject.sol\":1182:1229  registeredUsers[msg.sender].role == Roles.Guest */\n      0x04\n      dup2\n      gt\n      iszero\n      tag_13\n      jumpi\n      tag_13\n      tag_11\n      jump\t// in\n    tag_13:\n      eq\n        /* \"CMONProject.sol\":1174:1253  require(registeredUsers[msg.sender].role == Roles.Guest, \"You registered yet!\") */\n      tag_14\n      jumpi\n      mload(0x40)\n      shl(0xe5, 0x461bcd)\n      dup2\n      mstore\n        /* \"#utility.yul\":1752:1754   */\n      0x20\n        /* \"CMONProject.sol\":1174:1253  require(registeredUsers[msg.sender].role == Roles.Guest, \"You registered yet!\") */\n      0x04\n      dup3\n      add\n        /* \"#utility.yul\":1734:1755   */\n      mstore\n        /* \"#utility.yul\":1791:1793   */\n      0x13\n        /* \"#utility.yul\":1771:1789   */\n      0x24\n      dup3\n      add\n        /* \"#utility.yul\":1764:1794   */\n      mstore\n      shl(0x68, 0x596f7520726567697374657265642079657421)\n        /* \"#utility.yul\":1810:1828   */\n      0x44\n      dup3\n      add\n        /* \"#utility.yul\":1803:1852   */\n      mstore\n        /* \"#utility.yul\":1869:1887   */\n      0x64\n      add\n        /* \"CMONProject.sol\":1174:1253  require(registeredUsers[msg.sender].role == Roles.Guest, \"You registered yet!\") */\n      mload(0x40)\n      dup1\n      swap2\n      sub\n      swap1\n      revert\n    tag_14:\n        /* \"CMONProject.sol\":1294:1352  User(login, keccak256(abi.encode(password)), Roles.Client) */\n      mload(0x40)\n      dup1\n      0x60\n      add\n      0x40\n      mstore\n      dup1\n        /* \"CMONProject.sol\":1299:1304  login */\n      dup4\n        /* \"CMONProject.sol\":1294:1352  User(login, keccak256(abi.encode(password)), Roles.Client) */\n      dup2\n      mstore\n      0x20\n      add\n        /* \"CMONProject.sol\":1327:1335  password */\n      dup3\n        /* \"CMONProject.sol\":1316:1336  abi.encode(password) */\n      add(0x20, mload(0x40))\n      tag_17\n      swap2\n      swap1\n      tag_18\n      jump\t// in\n    tag_17:\n      0x40\n      dup1\n      mload\n      not(0x1f)\n      dup2\n      dup5\n      sub\n      add\n      dup2\n      mstore\n      swap2\n      swap1\n      mstore\n        /* \"CMONProject.sol\":1306:1337  keccak256(abi.encode(password)) */\n      dup1\n      mload\n        /* \"CMONProject.sol\":1316:1336  abi.encode(password) */\n      0x20\n        /* \"CMONProject.sol\":1306:1337  keccak256(abi.encode(password)) */\n      swap2\n      dup3\n      add\n      keccak256\n        /* \"CMONProject.sol\":1294:1352  User(login, keccak256(abi.encode(password)), Roles.Client) */\n      dup3\n      mstore\n      add\n        /* \"CMONProject.sol\":1339:1351  Roles.Client */\n      0x01\n        /* \"CMONProject.sol\":1294:1352  User(login, keccak256(abi.encode(password)), Roles.Client) */\n      swap1\n      mstore\n        /* \"CMONProject.sol\":1280:1290  msg.sender */\n      caller\n        /* \"CMONProject.sol\":1264:1291  registeredUsers[msg.sender] */\n      0x00\n      swap1\n      dup2\n      mstore\n        /* \"CMONProject.sol\":1264:1279  registeredUsers */\n      0x01\n        /* \"CMONProject.sol\":1264:1291  registeredUsers[msg.sender] */\n      0x20\n      mstore\n      0x40\n      swap1\n      keccak256\n        /* \"CMONProject.sol\":1264:1352  registeredUsers[msg.sender] = User(login, keccak256(abi.encode(password)), Roles.Client) */\n      dup2\n      mload\n        /* \"CMONProject.sol\":1264:1291  registeredUsers[msg.sender] */\n      dup2\n      swap1\n        /* \"CMONProject.sol\":1264:1352  registeredUsers[msg.sender] = User(login, keccak256(abi.encode(password)), Roles.Client) */\n      tag_21\n      swap1\n        /* \"CMONProject.sol\":1264:1291  registeredUsers[msg.sender] */\n      dup3\n        /* \"CMONProject.sol\":1264:1352  registeredUsers[msg.sender] = User(login, keccak256(abi.encode(password)), Roles.Client) */\n      tag_22\n      jump\t// in\n    tag_21:\n      pop\n      0x20\n      dup3\n      add\n      mload\n      dup2\n      0x01\n      add\n      sstore\n      0x40\n      dup3\n      add\n      mload\n      dup2\n      0x02\n      add\n      exp(0x0100, 0x00)\n      dup2\n      sload\n      dup2\n      0xff\n      mul\n      not\n      and\n      swap1\n      dup4\n      0x04\n      dup2\n      gt\n      iszero\n      tag_24\n      jumpi\n      tag_24\n      tag_11\n      jump\t// in\n    tag_24:\n      mul\n      or\n      swap1\n      sstore\n      pop\n      pop\n      pop\n      pop\n      pop\n        /* \"CMONProject.sol\":1089:1360  function registration(string memory login, string memory password) public {... */\n      jump\t// out\n        /* \"#utility.yul\":14:141   */\n    tag_25:\n        /* \"#utility.yul\":75:85   */\n      0x4e487b71\n        /* \"#utility.yul\":70:73   */\n      0xe0\n        /* \"#utility.yul\":66:86   */\n      shl\n        /* \"#utility.yul\":63:64   */\n      0x00\n        /* \"#utility.yul\":56:87   */\n      mstore\n        /* \"#utility.yul\":106:110   */\n      0x41\n        /* \"#utility.yul\":103:104   */\n      0x04\n        /* \"#utility.yul\":96:111   */\n      mstore\n        /* \"#utility.yul\":130:134   */\n      0x24\n        /* \"#utility.yul\":127:128   */\n      0x00\n        /* \"#utility.yul\":120:135   */\n      revert\n        /* \"#utility.yul\":146:865   */\n    tag_26:\n        /* \"#utility.yul\":189:194   */\n      0x00\n        /* \"#utility.yul\":242:245   */\n      dup3\n        /* \"#utility.yul\":235:239   */\n      0x1f\n        /* \"#utility.yul\":227:233   */\n      dup4\n        /* \"#utility.yul\":223:240   */\n      add\n        /* \"#utility.yul\":219:246   */\n      slt\n        /* \"#utility.yul\":209:264   */\n      tag_34\n      jumpi\n        /* \"#utility.yul\":260:261   */\n      0x00\n        /* \"#utility.yul\":257:258   */\n      dup1\n        /* \"#utility.yul\":250:262   */\n      revert\n        /* \"#utility.yul\":209:264   */\n    tag_34:\n        /* \"#utility.yul\":296:302   */\n      dup2\n        /* \"#utility.yul\":283:303   */\n      calldataload\n        /* \"#utility.yul\":322:340   */\n      0xffffffffffffffff\n        /* \"#utility.yul\":359:361   */\n      dup1\n        /* \"#utility.yul\":355:357   */\n      dup3\n        /* \"#utility.yul\":352:362   */\n      gt\n        /* \"#utility.yul\":349:385   */\n      iszero\n      tag_36\n      jumpi\n        /* \"#utility.yul\":365:383   */\n      tag_36\n      tag_25\n      jump\t// in\n    tag_36:\n        /* \"#utility.yul\":440:442   */\n      0x40\n        /* \"#utility.yul\":434:443   */\n      mload\n        /* \"#utility.yul\":408:410   */\n      0x1f\n        /* \"#utility.yul\":494:507   */\n      dup4\n      add\n      not(0x1f)\n        /* \"#utility.yul\":490:512   */\n      swap1\n      dup2\n      and\n        /* \"#utility.yul\":514:516   */\n      0x3f\n        /* \"#utility.yul\":486:517   */\n      add\n        /* \"#utility.yul\":482:522   */\n      and\n        /* \"#utility.yul\":470:523   */\n      dup2\n      add\n      swap1\n        /* \"#utility.yul\":538:556   */\n      dup3\n      dup3\n      gt\n        /* \"#utility.yul\":558:580   */\n      dup2\n      dup4\n      lt\n        /* \"#utility.yul\":535:581   */\n      or\n        /* \"#utility.yul\":532:604   */\n      iszero\n      tag_38\n      jumpi\n        /* \"#utility.yul\":584:602   */\n      tag_38\n      tag_25\n      jump\t// in\n    tag_38:\n        /* \"#utility.yul\":624:634   */\n      dup2\n        /* \"#utility.yul\":620:622   */\n      0x40\n        /* \"#utility.yul\":613:635   */\n      mstore\n        /* \"#utility.yul\":659:661   */\n      dup4\n        /* \"#utility.yul\":651:657   */\n      dup2\n        /* \"#utility.yul\":644:662   */\n      mstore\n        /* \"#utility.yul\":705:708   */\n      dup7\n        /* \"#utility.yul\":698:702   */\n      0x20\n        /* \"#utility.yul\":693:695   */\n      dup6\n        /* \"#utility.yul\":685:691   */\n      dup9\n        /* \"#utility.yul\":681:696   */\n      add\n        /* \"#utility.yul\":677:703   */\n      add\n        /* \"#utility.yul\":674:709   */\n      gt\n        /* \"#utility.yul\":671:726   */\n      iszero\n      tag_39\n      jumpi\n        /* \"#utility.yul\":722:723   */\n      0x00\n        /* \"#utility.yul\":719:720   */\n      dup1\n        /* \"#utility.yul\":712:724   */\n      revert\n        /* \"#utility.yul\":671:726   */\n    tag_39:\n        /* \"#utility.yul\":786:788   */\n      dup4\n        /* \"#utility.yul\":779:783   */\n      0x20\n        /* \"#utility.yul\":771:777   */\n      dup8\n        /* \"#utility.yul\":767:784   */\n      add\n        /* \"#utility.yul\":760:764   */\n      0x20\n        /* \"#utility.yul\":752:758   */\n      dup4\n        /* \"#utility.yul\":748:765   */\n      add\n        /* \"#utility.yul\":735:789   */\n      calldatacopy\n        /* \"#utility.yul\":833:834   */\n      0x00\n        /* \"#utility.yul\":826:830   */\n      0x20\n        /* \"#utility.yul\":821:823   */\n      dup6\n        /* \"#utility.yul\":813:819   */\n      dup4\n        /* \"#utility.yul\":809:824   */\n      add\n        /* \"#utility.yul\":805:831   */\n      add\n        /* \"#utility.yul\":798:835   */\n      mstore\n        /* \"#utility.yul\":853:859   */\n      dup1\n        /* \"#utility.yul\":844:859   */\n      swap5\n      pop\n      pop\n      pop\n      pop\n      pop\n        /* \"#utility.yul\":146:865   */\n      swap3\n      swap2\n      pop\n      pop\n      jump\t// out\n        /* \"#utility.yul\":870:1413   */\n    tag_6:\n        /* \"#utility.yul\":958:964   */\n      0x00\n        /* \"#utility.yul\":966:972   */\n      dup1\n        /* \"#utility.yul\":1019:1021   */\n      0x40\n        /* \"#utility.yul\":1007:1016   */\n      dup4\n        /* \"#utility.yul\":998:1005   */\n      dup6\n        /* \"#utility.yul\":994:1017   */\n      sub\n        /* \"#utility.yul\":990:1022   */\n      slt\n        /* \"#utility.yul\":987:1039   */\n      iszero\n      tag_41\n      jumpi\n        /* \"#utility.yul\":1035:1036   */\n      0x00\n        /* \"#utility.yul\":1032:1033   */\n      dup1\n        /* \"#utility.yul\":1025:1037   */\n      revert\n        /* \"#utility.yul\":987:1039   */\n    tag_41:\n        /* \"#utility.yul\":1075:1084   */\n      dup3\n        /* \"#utility.yul\":1062:1085   */\n      calldataload\n        /* \"#utility.yul\":1104:1122   */\n      0xffffffffffffffff\n        /* \"#utility.yul\":1145:1147   */\n      dup1\n        /* \"#utility.yul\":1137:1143   */\n      dup3\n        /* \"#utility.yul\":1134:1148   */\n      gt\n        /* \"#utility.yul\":1131:1165   */\n      iszero\n      tag_42\n      jumpi\n        /* \"#utility.yul\":1161:1162   */\n      0x00\n        /* \"#utility.yul\":1158:1159   */\n      dup1\n        /* \"#utility.yul\":1151:1163   */\n      revert\n        /* \"#utility.yul\":1131:1165   */\n    tag_42:\n        /* \"#utility.yul\":1184:1234   */\n      tag_43\n        /* \"#utility.yul\":1226:1233   */\n      dup7\n        /* \"#utility.yul\":1217:1223   */\n      dup4\n        /* \"#utility.yul\":1206:1215   */\n      dup8\n        /* \"#utility.yul\":1202:1224   */\n      add\n        /* \"#utility.yul\":1184:1234   */\n      tag_26\n      jump\t// in\n    tag_43:\n        /* \"#utility.yul\":1174:1234   */\n      swap4\n      pop\n        /* \"#utility.yul\":1287:1289   */\n      0x20\n        /* \"#utility.yul\":1276:1285   */\n      dup6\n        /* \"#utility.yul\":1272:1290   */\n      add\n        /* \"#utility.yul\":1259:1291   */\n      calldataload\n        /* \"#utility.yul\":1243:1291   */\n      swap2\n      pop\n        /* \"#utility.yul\":1316:1318   */\n      dup1\n        /* \"#utility.yul\":1306:1314   */\n      dup3\n        /* \"#utility.yul\":1303:1319   */\n      gt\n        /* \"#utility.yul\":1300:1336   */\n      iszero\n      tag_44\n      jumpi\n        /* \"#utility.yul\":1332:1333   */\n      0x00\n        /* \"#utility.yul\":1329:1330   */\n      dup1\n        /* \"#utility.yul\":1322:1334   */\n      revert\n        /* \"#utility.yul\":1300:1336   */\n    tag_44:\n      pop\n        /* \"#utility.yul\":1355:1407   */\n      tag_45\n        /* \"#utility.yul\":1399:1406   */\n      dup6\n        /* \"#utility.yul\":1388:1396   */\n      dup3\n        /* \"#utility.yul\":1377:1386   */\n      dup7\n        /* \"#utility.yul\":1373:1397   */\n      add\n        /* \"#utility.yul\":1355:1407   */\n      tag_26\n      jump\t// in\n    tag_45:\n        /* \"#utility.yul\":1345:1407   */\n      swap2\n      pop\n      pop\n        /* \"#utility.yul\":870:1413   */\n      swap3\n      pop\n      swap3\n      swap1\n      pop\n      jump\t// out\n        /* \"#utility.yul\":1418:1545   */\n    tag_11:\n        /* \"#utility.yul\":1479:1489   */\n      0x4e487b71\n        /* \"#utility.yul\":1474:1477   */\n      0xe0\n        /* \"#utility.yul\":1470:1490   */\n      shl\n        /* \"#utility.yul\":1467:1468   */\n      0x00\n        /* \"#utility.yul\":1460:1491   */\n      mstore\n        /* \"#utility.yul\":1510:1514   */\n      0x21\n        /* \"#utility.yul\":1507:1508   */\n      0x04\n        /* \"#utility.yul\":1500:1515   */\n      mstore\n        /* \"#utility.yul\":1534:1538   */\n      0x24\n        /* \"#utility.yul\":1531:1532   */\n      0x00\n        /* \"#utility.yul\":1524:1539   */\n      revert\n        /* \"#utility.yul\":1898:2446   */\n    tag_18:\n        /* \"#utility.yul\":2010:2014   */\n      0x00\n        /* \"#utility.yul\":2039:2041   */\n      0x20\n        /* \"#utility.yul\":2068:2070   */\n      dup1\n        /* \"#utility.yul\":2057:2066   */\n      dup4\n        /* \"#utility.yul\":2050:2071   */\n      mstore\n        /* \"#utility.yul\":2100:2106   */\n      dup4\n        /* \"#utility.yul\":2094:2107   */\n      mload\n        /* \"#utility.yul\":2143:2149   */\n      dup1\n        /* \"#utility.yul\":2138:2140   */\n      dup3\n        /* \"#utility.yul\":2127:2136   */\n      dup6\n        /* \"#utility.yul\":2123:2141   */\n      add\n        /* \"#utility.yul\":2116:2150   */\n      mstore\n        /* \"#utility.yul\":2168:2169   */\n      0x00\n        /* \"#utility.yul\":2178:2318   */\n    tag_49:\n        /* \"#utility.yul\":2192:2198   */\n      dup2\n        /* \"#utility.yul\":2189:2190   */\n      dup2\n        /* \"#utility.yul\":2186:2199   */\n      lt\n        /* \"#utility.yul\":2178:2318   */\n      iszero\n      tag_51\n      jumpi\n        /* \"#utility.yul\":2287:2301   */\n      dup6\n      dup2\n      add\n        /* \"#utility.yul\":2283:2306   */\n      dup4\n      add\n        /* \"#utility.yul\":2277:2307   */\n      mload\n        /* \"#utility.yul\":2253:2270   */\n      dup6\n      dup3\n      add\n        /* \"#utility.yul\":2272:2274   */\n      0x40\n        /* \"#utility.yul\":2249:2275   */\n      add\n        /* \"#utility.yul\":2242:2308   */\n      mstore\n        /* \"#utility.yul\":2207:2217   */\n      dup3\n      add\n        /* \"#utility.yul\":2178:2318   */\n      jump(tag_49)\n    tag_51:\n        /* \"#utility.yul\":2182:2185   */\n      pop\n        /* \"#utility.yul\":2367:2368   */\n      0x00\n        /* \"#utility.yul\":2362:2364   */\n      0x40\n        /* \"#utility.yul\":2353:2359   */\n      dup3\n        /* \"#utility.yul\":2342:2351   */\n      dup7\n        /* \"#utility.yul\":2338:2360   */\n      add\n        /* \"#utility.yul\":2334:2365   */\n      add\n        /* \"#utility.yul\":2327:2369   */\n      mstore\n        /* \"#utility.yul\":2437:2439   */\n      0x40\n        /* \"#utility.yul\":2430:2432   */\n      0x1f\n        /* \"#utility.yul\":2426:2433   */\n      not\n        /* \"#utility.yul\":2421:2423   */\n      0x1f\n        /* \"#utility.yul\":2413:2419   */\n      dup4\n        /* \"#utility.yul\":2409:2424   */\n      add\n        /* \"#utility.yul\":2405:2434   */\n      and\n        /* \"#utility.yul\":2394:2403   */\n      dup6\n        /* \"#utility.yul\":2390:2435   */\n      add\n        /* \"#utility.yul\":2386:2440   */\n      add\n        /* \"#utility.yul\":2378:2440   */\n      swap3\n      pop\n      pop\n      pop\n        /* \"#utility.yul\":1898:2446   */\n      swap3\n      swap2\n      pop\n      pop\n      jump\t// out\n        /* \"#utility.yul\":2451:2831   */\n    tag_27:\n        /* \"#utility.yul\":2530:2531   */\n      0x01\n        /* \"#utility.yul\":2526:2538   */\n      dup2\n      dup2\n      shr\n      swap1\n        /* \"#utility.yul\":2573:2585   */\n      dup3\n      and\n      dup1\n        /* \"#utility.yul\":2594:2655   */\n      tag_53\n      jumpi\n        /* \"#utility.yul\":2648:2652   */\n      0x7f\n        /* \"#utility.yul\":2640:2646   */\n      dup3\n        /* \"#utility.yul\":2636:2653   */\n      and\n        /* \"#utility.yul\":2626:2653   */\n      swap2\n      pop\n        /* \"#utility.yul\":2594:2655   */\n    tag_53:\n        /* \"#utility.yul\":2701:2703   */\n      0x20\n        /* \"#utility.yul\":2693:2699   */\n      dup3\n        /* \"#utility.yul\":2690:2704   */\n      lt\n        /* \"#utility.yul\":2670:2688   */\n      dup2\n        /* \"#utility.yul\":2667:2705   */\n      sub\n        /* \"#utility.yul\":2664:2825   */\n      tag_54\n      jumpi\n        /* \"#utility.yul\":2747:2757   */\n      0x4e487b71\n        /* \"#utility.yul\":2742:2745   */\n      0xe0\n        /* \"#utility.yul\":2738:2758   */\n      shl\n        /* \"#utility.yul\":2735:2736   */\n      0x00\n        /* \"#utility.yul\":2728:2759   */\n      mstore\n        /* \"#utility.yul\":2782:2786   */\n      0x22\n        /* \"#utility.yul\":2779:2780   */\n      0x04\n        /* \"#utility.yul\":2772:2787   */\n      mstore\n        /* \"#utility.yul\":2810:2814   */\n      0x24\n        /* \"#utility.yul\":2807:2808   */\n      0x00\n        /* \"#utility.yul\":2800:2815   */\n      revert\n        /* \"#utility.yul\":2664:2825   */\n    tag_54:\n      pop\n        /* \"#utility.yul\":2451:2831   */\n      swap2\n      swap1\n      pop\n      jump\t// out\n        /* \"#utility.yul\":2962:3507   */\n    tag_29:\n        /* \"#utility.yul\":3064:3066   */\n      0x1f\n        /* \"#utility.yul\":3059:3062   */\n      dup3\n        /* \"#utility.yul\":3056:3067   */\n      gt\n        /* \"#utility.yul\":3053:3501   */\n      iszero\n      tag_57\n      jumpi\n        /* \"#utility.yul\":3100:3101   */\n      0x00\n        /* \"#utility.yul\":3125:3130   */\n      dup2\n        /* \"#utility.yul\":3121:3123   */\n      dup2\n        /* \"#utility.yul\":3114:3131   */\n      mstore\n        /* \"#utility.yul\":3170:3174   */\n      0x20\n        /* \"#utility.yul\":3166:3168   */\n      dup2\n        /* \"#utility.yul\":3156:3175   */\n      keccak256\n        /* \"#utility.yul\":3240:3242   */\n      0x1f\n        /* \"#utility.yul\":3228:3238   */\n      dup6\n        /* \"#utility.yul\":3224:3243   */\n      add\n        /* \"#utility.yul\":3221:3222   */\n      0x05\n        /* \"#utility.yul\":3217:3244   */\n      shr\n        /* \"#utility.yul\":3211:3215   */\n      dup2\n        /* \"#utility.yul\":3207:3245   */\n      add\n        /* \"#utility.yul\":3276:3280   */\n      0x20\n        /* \"#utility.yul\":3264:3274   */\n      dup7\n        /* \"#utility.yul\":3261:3281   */\n      lt\n        /* \"#utility.yul\":3258:3305   */\n      iszero\n      tag_58\n      jumpi\n      pop\n        /* \"#utility.yul\":3299:3303   */\n      dup1\n        /* \"#utility.yul\":3258:3305   */\n    tag_58:\n        /* \"#utility.yul\":3354:3356   */\n      0x1f\n        /* \"#utility.yul\":3349:3352   */\n      dup6\n        /* \"#utility.yul\":3345:3357   */\n      add\n        /* \"#utility.yul\":3342:3343   */\n      0x05\n        /* \"#utility.yul\":3338:3358   */\n      shr\n        /* \"#utility.yul\":3332:3336   */\n      dup3\n        /* \"#utility.yul\":3328:3359   */\n      add\n        /* \"#utility.yul\":3318:3359   */\n      swap2\n      pop\n        /* \"#utility.yul\":3409:3491   */\n    tag_59:\n        /* \"#utility.yul\":3427:3429   */\n      dup2\n        /* \"#utility.yul\":3420:3425   */\n      dup2\n        /* \"#utility.yul\":3417:3430   */\n      lt\n        /* \"#utility.yul\":3409:3491   */\n      iszero\n      tag_61\n      jumpi\n        /* \"#utility.yul\":3472:3489   */\n      dup3\n      dup2\n      sstore\n        /* \"#utility.yul\":3453:3454   */\n      0x01\n        /* \"#utility.yul\":3442:3455   */\n      add\n        /* \"#utility.yul\":3409:3491   */\n      jump(tag_59)\n    tag_61:\n        /* \"#utility.yul\":3413:3416   */\n      pop\n      pop\n      pop\n        /* \"#utility.yul\":3053:3501   */\n    tag_57:\n        /* \"#utility.yul\":2962:3507   */\n      pop\n      pop\n      pop\n      jump\t// out\n        /* \"#utility.yul\":3683:5035   */\n    tag_22:\n        /* \"#utility.yul\":3809:3812   */\n      dup2\n        /* \"#utility.yul\":3803:3813   */\n      mload\n        /* \"#utility.yul\":3836:3854   */\n      0xffffffffffffffff\n        /* \"#utility.yul\":3828:3834   */\n      dup2\n        /* \"#utility.yul\":3825:3855   */\n      gt\n        /* \"#utility.yul\":3822:3878   */\n      iszero\n      tag_65\n      jumpi\n        /* \"#utility.yul\":3858:3876   */\n      tag_65\n      tag_25\n      jump\t// in\n    tag_65:\n        /* \"#utility.yul\":3887:3984   */\n      tag_66\n        /* \"#utility.yul\":3977:3983   */\n      dup2\n        /* \"#utility.yul\":3937:3975   */\n      tag_67\n        /* \"#utility.yul\":3969:3973   */\n      dup5\n        /* \"#utility.yul\":3963:3974   */\n      sload\n        /* \"#utility.yul\":3937:3975   */\n      tag_27\n      jump\t// in\n    tag_67:\n        /* \"#utility.yul\":3931:3935   */\n      dup5\n        /* \"#utility.yul\":3887:3984   */\n      tag_29\n      jump\t// in\n    tag_66:\n        /* \"#utility.yul\":4039:4043   */\n      0x20\n      dup1\n        /* \"#utility.yul\":4103:4105   */\n      0x1f\n        /* \"#utility.yul\":4092:4106   */\n      dup4\n      gt\n        /* \"#utility.yul\":4120:4121   */\n      0x01\n        /* \"#utility.yul\":4115:4778   */\n      dup2\n      eq\n      tag_69\n      jumpi\n        /* \"#utility.yul\":4822:4823   */\n      0x00\n        /* \"#utility.yul\":4839:4845   */\n      dup5\n        /* \"#utility.yul\":4836:4925   */\n      iszero\n      tag_70\n      jumpi\n      pop\n        /* \"#utility.yul\":4891:4910   */\n      dup6\n      dup4\n      add\n        /* \"#utility.yul\":4885:4911   */\n      mload\n        /* \"#utility.yul\":4836:4925   */\n    tag_70:\n      not(0x00)\n        /* \"#utility.yul\":3640:3641   */\n      0x03\n        /* \"#utility.yul\":3636:3647   */\n      dup7\n      swap1\n      shl\n        /* \"#utility.yul\":3632:3656   */\n      shr\n        /* \"#utility.yul\":3628:3657   */\n      not\n        /* \"#utility.yul\":3618:3658   */\n      and\n        /* \"#utility.yul\":3664:3665   */\n      0x01\n        /* \"#utility.yul\":3660:3671   */\n      dup6\n      swap1\n      shl\n        /* \"#utility.yul\":3615:3672   */\n      or\n        /* \"#utility.yul\":4938:5019   */\n      dup6\n      sstore\n        /* \"#utility.yul\":4085:5029   */\n      jump(tag_61)\n        /* \"#utility.yul\":4115:4778   */\n    tag_69:\n        /* \"#utility.yul\":2909:2910   */\n      0x00\n        /* \"#utility.yul\":2902:2916   */\n      dup6\n      dup2\n      mstore\n        /* \"#utility.yul\":2946:2950   */\n      0x20\n        /* \"#utility.yul\":2933:2951   */\n      dup2\n      keccak256\n      not(0x1f)\n        /* \"#utility.yul\":4151:4171   */\n      dup7\n      and\n      swap2\n        /* \"#utility.yul\":4269:4505   */\n    tag_73:\n        /* \"#utility.yul\":4283:4290   */\n      dup3\n        /* \"#utility.yul\":4280:4281   */\n      dup2\n        /* \"#utility.yul\":4277:4291   */\n      lt\n        /* \"#utility.yul\":4269:4505   */\n      iszero\n      tag_75\n      jumpi\n        /* \"#utility.yul\":4372:4391   */\n      dup9\n      dup7\n      add\n        /* \"#utility.yul\":4366:4392   */\n      mload\n        /* \"#utility.yul\":4351:4393   */\n      dup3\n      sstore\n        /* \"#utility.yul\":4464:4491   */\n      swap5\n      dup5\n      add\n      swap5\n        /* \"#utility.yul\":4432:4433   */\n      0x01\n        /* \"#utility.yul\":4420:4434   */\n      swap1\n      swap2\n      add\n      swap1\n        /* \"#utility.yul\":4299:4318   */\n      dup5\n      add\n        /* \"#utility.yul\":4269:4505   */\n      jump(tag_73)\n    tag_75:\n        /* \"#utility.yul\":4273:4276   */\n      pop\n        /* \"#utility.yul\":4533:4539   */\n      dup6\n        /* \"#utility.yul\":4524:4531   */\n      dup3\n        /* \"#utility.yul\":4521:4540   */\n      lt\n        /* \"#utility.yul\":4518:4719   */\n      iszero\n      tag_76\n      jumpi\n        /* \"#utility.yul\":4594:4613   */\n      dup8\n      dup6\n      add\n        /* \"#utility.yul\":4588:4614   */\n      mload\n      not(0x00)\n        /* \"#utility.yul\":4677:4678   */\n      0x03\n        /* \"#utility.yul\":4673:4687   */\n      dup9\n      swap1\n      shl\n        /* \"#utility.yul\":4689:4692   */\n      0xf8\n        /* \"#utility.yul\":4669:4693   */\n      and\n        /* \"#utility.yul\":4665:4702   */\n      shr\n        /* \"#utility.yul\":4661:4703   */\n      not\n        /* \"#utility.yul\":4646:4704   */\n      and\n        /* \"#utility.yul\":4631:4705   */\n      dup2\n      sstore\n        /* \"#utility.yul\":4518:4719   */\n    tag_76:\n      pop\n      pop\n      pop\n      pop\n      pop\n        /* \"#utility.yul\":4765:4766   */\n      0x01\n        /* \"#utility.yul\":4749:4763   */\n      swap1\n      dup2\n      shl\n        /* \"#utility.yul\":4745:4767   */\n      add\n        /* \"#utility.yul\":4732:4768   */\n      swap1\n      sstore\n      pop\n        /* \"#utility.yul\":3683:5035   */\n      jump\t// out\n\n    auxdata: 0xa2646970667358221220364dec66ba2945205907d839310a2f3ef53041e2d40f5236d534b17064ec9cb464736f6c63430008150033\n}\n\nsub_1: assembly {\n        /* \"CryptoMonster.sol\":121:579  contract CryptoMonster is ERC20(\"CryptoMonster\", \"CMON\") {... */\n      mstore(0x40, 0x80)\n        /* \"CryptoMonster.sol\":246:262  0.00075 * 10**18 */\n      0x02aa1efb94e000\n        /* \"CryptoMonster.sol\":214:262  uint public privatePhasePrice = 0.00075 * 10**18 */\n      0x06\n      sstore\n        /* \"CryptoMonster.sol\":295:383  constructor() {... */\n      callvalue\n      dup1\n      iszero\n      tag_1\n      jumpi\n      0x00\n      dup1\n      revert\n    tag_1:\n      pop\n        /* \"@openzeppelin/contracts/token/ERC20/ERC20.sol\":1980:2093  constructor(string memory name_, string memory symbol_) {... */\n      mload(0x40)\n      dup1\n      0x40\n      add\n      0x40\n      mstore\n      dup1\n      0x0d\n      dup2\n      mstore\n      0x20\n      add\n      shl(0x99, 0x21b93cb83a37a6b7b739ba32b9)\n      dup2\n      mstore\n      pop\n      mload(0x40)\n      dup1\n      0x40\n      add\n      0x40\n      mstore\n      dup1\n      0x04\n      dup2\n      mstore\n      0x20\n      add\n      shl(0xe1, 0x21a6a7a7)\n      dup2\n      mstore\n      pop\n        /* \"@openzeppelin/contracts/token/ERC20/ERC20.sol\":2054:2059  name_ */\n      dup2\n        /* \"@openzeppelin/contracts/token/ERC20/ERC20.sol\":2046:2051  _name */\n      0x03\n        /* \"@openzeppelin/contracts/token/ERC20/ERC20.sol\":2046:2059  _name = name_ */\n      swap1\n      dup2\n      tag_5\n      swap2\n      swap1\n      tag_6\n      jump\t// in\n    tag_5:\n      pop\n        /* \"@openzeppelin/contracts/token/ERC20/ERC20.sol\":2069:2076  _symbol */\n      0x04\n        /* \"@openzeppelin/contracts/token/ERC20/ERC20.sol\":2069:2086  _symbol = symbol_ */\n      tag_7\n        /* \"@openzeppelin/contracts/token/ERC20/ERC20.sol\":2079:2086  symbol_ */\n      dup3\n        /* \"@openzeppelin/contracts/token/ERC20/ERC20.sol\":2069:2076  _symbol */\n      dup3\n        /* \"@openzeppelin/contracts/token/ERC20/ERC20.sol\":2069:2086  _symbol = symbol_ */\n      tag_6\n      jump\t// in\n    tag_7:\n      pop\n      pop\n        /* \"CryptoMonster.sol\":321:326  owner */\n      0x05\n        /* \"CryptoMonster.sol\":321:339  owner = msg.sender */\n      dup1\n      sload\n      not(sub(shl(0xa0, 0x01), 0x01))\n      and\n        /* \"CryptoMonster.sol\":329:339  msg.sender */\n      caller\n        /* \"CryptoMonster.sol\":321:339  owner = msg.sender */\n      swap1\n      dup2\n      or\n      swap1\n      swap2\n      sstore\n        /* \"CryptoMonster.sol\":353:375  _mint(owner, 10000000) */\n      tag_9\n      swap2\n      pop\n        /* \"CryptoMonster.sol\":366:374  10000000 */\n      0x989680\n        /* \"CryptoMonster.sol\":353:358  _mint */\n      tag_10\n        /* \"CryptoMonster.sol\":353:375  _mint(owner, 10000000) */\n      jump\t// in\n    tag_9:\n        /* \"CryptoMonster.sol\":121:579  contract CryptoMonster is ERC20(\"CryptoMonster\", \"CMON\") {... */\n      jump(tag_31)\n        /* \"@openzeppelin/contracts/token/ERC20/ERC20.sol\":8520:9055  function _mint(address account, uint256 amount) internal virtual {... */\n    tag_10:\n      sub(shl(0xa0, 0x01), 0x01)\n        /* \"@openzeppelin/contracts/token/ERC20/ERC20.sol\":8603:8624  account != address(0) */\n      dup3\n      and\n        /* \"@openzeppelin/contracts/token/ERC20/ERC20.sol\":8595:8660  require(account != address(0), \"ERC20: mint to the zero address\") */\n      tag_13\n      jumpi\n      mload(0x40)\n      shl(0xe5, 0x461bcd)\n      dup2\n      mstore\n        /* \"#utility.yul\":2937:2939   */\n      0x20\n        /* \"@openzeppelin/contracts/token/ERC20/ERC20.sol\":8595:8660  require(account != address(0), \"ERC20: mint to the zero address\") */\n      0x04\n      dup3\n      add\n        /* \"#utility.yul\":2919:2940   */\n      mstore\n        /* \"#utility.yul\":2976:2978   */\n      0x1f\n        /* \"#utility.yul\":2956:2974   */\n      0x24\n      dup3\n      add\n        /* \"#utility.yul\":2949:2979   */\n      mstore\n        /* \"#utility.yul\":3015:3048   */\n      0x45524332303a206d696e7420746f20746865207a65726f206164647265737300\n        /* \"#utility.yul\":2995:3013   */\n      0x44\n      dup3\n      add\n        /* \"#utility.yul\":2988:3049   */\n      mstore\n        /* \"#utility.yul\":3066:3084   */\n      0x64\n      add\n        /* \"@openzeppelin/contracts/token/ERC20/ERC20.sol\":8595:8660  require(account != address(0), \"ERC20: mint to the zero address\") */\n      mload(0x40)\n      dup1\n      swap2\n      sub\n      swap1\n      revert\n    tag_13:\n        /* \"@openzeppelin/contracts/token/ERC20/ERC20.sol\":8747:8753  amount */\n      dup1\n        /* \"@openzeppelin/contracts/token/ERC20/ERC20.sol\":8731:8743  _totalSupply */\n      0x02\n      0x00\n        /* \"@openzeppelin/contracts/token/ERC20/ERC20.sol\":8731:8753  _totalSupply += amount */\n      dup3\n      dup3\n      sload\n      tag_18\n      swap2\n      swap1\n      tag_19\n      jump\t// in\n    tag_18:\n      swap1\n      swap2\n      sstore\n      pop\n      pop\n      sub(shl(0xa0, 0x01), 0x01)\n        /* \"@openzeppelin/contracts/token/ERC20/ERC20.sol\":8899:8917  _balances[account] */\n      dup3\n      and\n        /* \"@openzeppelin/contracts/token/ERC20/ERC20.sol\":8899:8908  _balances */\n      0x00\n        /* \"@openzeppelin/contracts/token/ERC20/ERC20.sol\":8899:8917  _balances[account] */\n      dup2\n      dup2\n      mstore\n      0x20\n      dup2\n      dup2\n      mstore\n      0x40\n      dup1\n      dup4\n      keccak256\n        /* \"@openzeppelin/contracts/token/ERC20/ERC20.sol\":8899:8927  _balances[account] += amount */\n      dup1\n      sload\n      dup7\n      add\n      swap1\n      sstore\n        /* \"@openzeppelin/contracts/token/ERC20/ERC20.sol\":8952:8989  Transfer(address(0), account, amount) */\n      mload\n        /* \"#utility.yul\":3468:3493   */\n      dup5\n      dup2\n      mstore\n        /* \"@openzeppelin/contracts/token/ERC20/ERC20.sol\":8952:8989  Transfer(address(0), account, amount) */\n      0xddf252ad1be2c89b69c2b068fc378daa952ba7f163c4a11628f55a4df523b3ef\n      swap2\n        /* \"#utility.yul\":3441:3459   */\n      add\n        /* \"@openzeppelin/contracts/token/ERC20/ERC20.sol\":8952:8989  Transfer(address(0), account, amount) */\n      mload(0x40)\n      dup1\n      swap2\n      sub\n      swap1\n      log3\n        /* \"@openzeppelin/contracts/token/ERC20/ERC20.sol\":8520:9055  function _mint(address account, uint256 amount) internal virtual {... */\n      pop\n      pop\n      jump\t// out\n        /* \"@openzeppelin/contracts/token/ERC20/ERC20.sol\":12073:12164  function _beforeTokenTransfer(address from, address to, uint256 amount) internal virtual {} */\n    tag_17:\n      pop\n      pop\n      pop\n      jump\t// out\n        /* \"#utility.yul\":14:141   */\n    tag_26:\n        /* \"#utility.yul\":75:85   */\n      0x4e487b71\n        /* \"#utility.yul\":70:73   */\n      0xe0\n        /* \"#utility.yul\":66:86   */\n      shl\n        /* \"#utility.yul\":63:64   */\n      0x00\n        /* \"#utility.yul\":56:87   */\n      mstore\n        /* \"#utility.yul\":106:110   */\n      0x41\n        /* \"#utility.yul\":103:104   */\n      0x04\n        /* \"#utility.yul\":96:111   */\n      mstore\n        /* \"#utility.yul\":130:134   */\n      0x24\n        /* \"#utility.yul\":127:128   */\n      0x00\n        /* \"#utility.yul\":120:135   */\n      revert\n        /* \"#utility.yul\":146:526   */\n    tag_27:\n        /* \"#utility.yul\":225:226   */\n      0x01\n        /* \"#utility.yul\":221:233   */\n      dup2\n      dup2\n      shr\n      swap1\n        /* \"#utility.yul\":268:280   */\n      dup3\n      and\n      dup1\n        /* \"#utility.yul\":289:350   */\n      tag_34\n      jumpi\n        /* \"#utility.yul\":343:347   */\n      0x7f\n        /* \"#utility.yul\":335:341   */\n      dup3\n        /* \"#utility.yul\":331:348   */\n      and\n        /* \"#utility.yul\":321:348   */\n      swap2\n      pop\n        /* \"#utility.yul\":289:350   */\n    tag_34:\n        /* \"#utility.yul\":396:398   */\n      0x20\n        /* \"#utility.yul\":388:394   */\n      dup3\n        /* \"#utility.yul\":385:399   */\n      lt\n        /* \"#utility.yul\":365:383   */\n      dup2\n        /* \"#utility.yul\":362:400   */\n      sub\n        /* \"#utility.yul\":359:520   */\n      tag_35\n      jumpi\n        /* \"#utility.yul\":442:452   */\n      0x4e487b71\n        /* \"#utility.yul\":437:440   */\n      0xe0\n        /* \"#utility.yul\":433:453   */\n      shl\n        /* \"#utility.yul\":430:431   */\n      0x00\n        /* \"#utility.yul\":423:454   */\n      mstore\n        /* \"#utility.yul\":477:481   */\n      0x22\n        /* \"#utility.yul\":474:475   */\n      0x04\n        /* \"#utility.yul\":467:482   */\n      mstore\n        /* \"#utility.yul\":505:509   */\n      0x24\n        /* \"#utility.yul\":502:503   */\n      0x00\n        /* \"#utility.yul\":495:510   */\n      revert\n        /* \"#utility.yul\":359:520   */\n    tag_35:\n      pop\n        /* \"#utility.yul\":146:526   */\n      swap2\n      swap1\n      pop\n      jump\t// out\n        /* \"#utility.yul\":657:1202   */\n    tag_29:\n        /* \"#utility.yul\":759:761   */\n      0x1f\n        /* \"#utility.yul\":754:757   */\n      dup3\n        /* \"#utility.yul\":751:762   */\n      gt\n        /* \"#utility.yul\":748:1196   */\n      iszero\n      tag_17\n      jumpi\n        /* \"#utility.yul\":795:796   */\n      0x00\n        /* \"#utility.yul\":820:825   */\n      dup2\n        /* \"#utility.yul\":816:818   */\n      dup2\n        /* \"#utility.yul\":809:826   */\n      mstore\n        /* \"#utility.yul\":865:869   */\n      0x20\n        /* \"#utility.yul\":861:863   */\n      dup2\n        /* \"#utility.yul\":851:870   */\n      keccak256\n        /* \"#utility.yul\":935:937   */\n      0x1f\n        /* \"#utility.yul\":923:933   */\n      dup6\n        /* \"#utility.yul\":919:938   */\n      add\n        /* \"#utility.yul\":916:917   */\n      0x05\n        /* \"#utility.yul\":912:939   */\n      shr\n        /* \"#utility.yul\":906:910   */\n      dup2\n        /* \"#utility.yul\":902:940   */\n      add\n        /* \"#utility.yul\":971:975   */\n      0x20\n        /* \"#utility.yul\":959:969   */\n      dup7\n        /* \"#utility.yul\":956:976   */\n      lt\n        /* \"#utility.yul\":953:1000   */\n      iszero\n      tag_39\n      jumpi\n      pop\n        /* \"#utility.yul\":994:998   */\n      dup1\n        /* \"#utility.yul\":953:1000   */\n    tag_39:\n        /* \"#utility.yul\":1049:1051   */\n      0x1f\n        /* \"#utility.yul\":1044:1047   */\n      dup6\n        /* \"#utility.yul\":1040:1052   */\n      add\n        /* \"#utility.yul\":1037:1038   */\n      0x05\n        /* \"#utility.yul\":1033:1053   */\n      shr\n        /* \"#utility.yul\":1027:1031   */\n      dup3\n        /* \"#utility.yul\":1023:1054   */\n      add\n        /* \"#utility.yul\":1013:1054   */\n      swap2\n      pop\n        /* \"#utility.yul\":1104:1186   */\n    tag_40:\n        /* \"#utility.yul\":1122:1124   */\n      dup2\n        /* \"#utility.yul\":1115:1120   */\n      dup2\n        /* \"#utility.yul\":1112:1125   */\n      lt\n        /* \"#utility.yul\":1104:1186   */\n      iszero\n      tag_42\n      jumpi\n        /* \"#utility.yul\":1167:1184   */\n      dup3\n      dup2\n      sstore\n        /* \"#utility.yul\":1148:1149   */\n      0x01\n        /* \"#utility.yul\":1137:1150   */\n      add\n        /* \"#utility.yul\":1104:1186   */\n      jump(tag_40)\n    tag_42:\n        /* \"#utility.yul\":1108:1111   */\n      pop\n      pop\n      pop\n        /* \"#utility.yul\":657:1202   */\n      pop\n      pop\n      pop\n      jump\t// out\n        /* \"#utility.yul\":1378:2730   */\n    tag_6:\n        /* \"#utility.yul\":1498:1508   */\n      dup2\n      mload\n      sub(shl(0x40, 0x01), 0x01)\n        /* \"#utility.yul\":1520:1550   */\n      dup2\n      gt\n        /* \"#utility.yul\":1517:1573   */\n      iszero\n      tag_46\n      jumpi\n        /* \"#utility.yul\":1553:1571   */\n      tag_46\n      tag_26\n      jump\t// in\n    tag_46:\n        /* \"#utility.yul\":1582:1679   */\n      tag_47\n        /* \"#utility.yul\":1672:1678   */\n      dup2\n        /* \"#utility.yul\":1632:1670   */\n      tag_48\n        /* \"#utility.yul\":1664:1668   */\n      dup5\n        /* \"#utility.yul\":1658:1669   */\n      sload\n        /* \"#utility.yul\":1632:1670   */\n      tag_27\n      jump\t// in\n    tag_48:\n        /* \"#utility.yul\":1626:1630   */\n      dup5\n        /* \"#utility.yul\":1582:1679   */\n      tag_29\n      jump\t// in\n    tag_47:\n        /* \"#utility.yul\":1734:1738   */\n      0x20\n      dup1\n        /* \"#utility.yul\":1798:1800   */\n      0x1f\n        /* \"#utility.yul\":1787:1801   */\n      dup4\n      gt\n        /* \"#utility.yul\":1815:1816   */\n      0x01\n        /* \"#utility.yul\":1810:2473   */\n      dup2\n      eq\n      tag_50\n      jumpi\n        /* \"#utility.yul\":2517:2518   */\n      0x00\n        /* \"#utility.yul\":2534:2540   */\n      dup5\n        /* \"#utility.yul\":2531:2620   */\n      iszero\n      tag_51\n      jumpi\n      pop\n        /* \"#utility.yul\":2586:2605   */\n      dup6\n      dup4\n      add\n        /* \"#utility.yul\":2580:2606   */\n      mload\n        /* \"#utility.yul\":2531:2620   */\n    tag_51:\n      not(0x00)\n        /* \"#utility.yul\":1335:1336   */\n      0x03\n        /* \"#utility.yul\":1331:1342   */\n      dup7\n      swap1\n      shl\n        /* \"#utility.yul\":1327:1351   */\n      shr\n        /* \"#utility.yul\":1323:1352   */\n      not\n        /* \"#utility.yul\":1313:1353   */\n      and\n        /* \"#utility.yul\":1359:1360   */\n      0x01\n        /* \"#utility.yul\":1355:1366   */\n      dup6\n      swap1\n      shl\n        /* \"#utility.yul\":1310:1367   */\n      or\n        /* \"#utility.yul\":2633:2714   */\n      dup6\n      sstore\n        /* \"#utility.yul\":1780:2724   */\n      jump(tag_42)\n        /* \"#utility.yul\":1810:2473   */\n    tag_50:\n        /* \"#utility.yul\":604:605   */\n      0x00\n        /* \"#utility.yul\":597:611   */\n      dup6\n      dup2\n      mstore\n        /* \"#utility.yul\":641:645   */\n      0x20\n        /* \"#utility.yul\":628:646   */\n      dup2\n      keccak256\n      not(0x1f)\n        /* \"#utility.yul\":1846:1866   */\n      dup7\n      and\n      swap2\n        /* \"#utility.yul\":1964:2200   */\n    tag_54:\n        /* \"#utility.yul\":1978:1985   */\n      dup3\n        /* \"#utility.yul\":1975:1976   */\n      dup2\n        /* \"#utility.yul\":1972:1986   */\n      lt\n        /* \"#utility.yul\":1964:2200   */\n      iszero\n      tag_56\n      jumpi\n        /* \"#utility.yul\":2067:2086   */\n      dup9\n      dup7\n      add\n        /* \"#utility.yul\":2061:2087   */\n      mload\n        /* \"#utility.yul\":2046:2088   */\n      dup3\n      sstore\n        /* \"#utility.yul\":2159:2186   */\n      swap5\n      dup5\n      add\n      swap5\n        /* \"#utility.yul\":2127:2128   */\n      0x01\n        /* \"#utility.yul\":2115:2129   */\n      swap1\n      swap2\n      add\n      swap1\n        /* \"#utility.yul\":1994:2013   */\n      dup5\n      add\n        /* \"#utility.yul\":1964:2200   */\n      jump(tag_54)\n    tag_56:\n        /* \"#utility.yul\":1968:1971   */\n      pop\n        /* \"#utility.yul\":2228:2234   */\n      dup6\n        /* \"#utility.yul\":2219:2226   */\n      dup3\n        /* \"#utility.yul\":2216:2235   */\n      lt\n        /* \"#utility.yul\":2213:2414   */\n      iszero\n      tag_57\n      jumpi\n        /* \"#utility.yul\":2289:2308   */\n      dup8\n      dup6\n      add\n        /* \"#utility.yul\":2283:2309   */\n      mload\n      not(0x00)\n        /* \"#utility.yul\":2372:2373   */\n      0x03\n        /* \"#utility.yul\":2368:2382   */\n      dup9\n      swap1\n      shl\n        /* \"#utility.yul\":2384:2387   */\n      0xf8\n        /* \"#utility.yul\":2364:2388   */\n      and\n        /* \"#utility.yul\":2360:2397   */\n      shr\n        /* \"#utility.yul\":2356:2398   */\n      not\n        /* \"#utility.yul\":2341:2399   */\n      and\n        /* \"#utility.yul\":2326:2400   */\n      dup2\n      sstore\n        /* \"#utility.yul\":2213:2414   */\n    tag_57:\n      pop\n      pop\n      pop\n      pop\n      pop\n        /* \"#utility.yul\":2460:2461   */\n      0x01\n        /* \"#utility.yul\":2444:2458   */\n      swap1\n      dup2\n      shl\n        /* \"#utility.yul\":2440:2462   */\n      add\n        /* \"#utility.yul\":2427:2463   */\n      swap1\n      sstore\n      pop\n        /* \"#utility.yul\":1378:2730   */\n      jump\t// out\n        /* \"#utility.yul\":3095:3317   */\n    tag_19:\n        /* \"#utility.yul\":3160:3169   */\n      dup1\n      dup3\n      add\n        /* \"#utility.yul\":3181:3191   */\n      dup1\n      dup3\n      gt\n        /* \"#utility.yul\":3178:3311   */\n      iszero\n      tag_60\n      jumpi\n        /* \"#utility.yul\":3233:3243   */\n      0x4e487b71\n        /* \"#utility.yul\":3228:3231   */\n      0xe0\n        /* \"#utility.yul\":3224:3244   */\n      shl\n        /* \"#utility.yul\":3221:3222   */\n      0x00\n        /* \"#utility.yul\":3214:3245   */\n      mstore\n        /* \"#utility.yul\":3268:3272   */\n      0x11\n        /* \"#utility.yul\":3265:3266   */\n      0x04\n        /* \"#utility.yul\":3258:3273   */\n      mstore\n        /* \"#utility.yul\":3296:3300   */\n      0x24\n        /* \"#utility.yul\":3293:3294   */\n      0x00\n        /* \"#utility.yul\":3286:3301   */\n      revert\n        /* \"#utility.yul\":3178:3311   */\n    tag_60:\n        /* \"#utility.yul\":3095:3317   */\n      swap3\n      swap2\n      pop\n      pop\n      jump\t// out\n        /* \"#utility.yul\":3322:3499   */\n    tag_31:\n        /* \"CryptoMonster.sol\":121:579  contract CryptoMonster is ERC20(\"CryptoMonster\", \"CMON\") {... */\n      dataSize(sub_0)\n      dup1\n      dataOffset(sub_0)\n      0x00\n      codecopy\n      0x00\n      return\n    stop\n\n    sub_0: assembly {\n            /* \"CryptoMonster.sol\":121:579  contract CryptoMonster is ERC20(\"CryptoMonster\", \"CMON\") {... */\n          mstore(0x40, 0x80)\n          callvalue\n          dup1\n          iszero\n          tag_1\n          jumpi\n          0x00\n          dup1\n          revert\n        tag_1:\n          pop\n          jumpi(tag_2, lt(calldatasize, 0x04))\n          shr(0xe0, calldataload(0x00))\n          dup1\n          0x8da5cb5b\n          gt\n          tag_17\n          jumpi\n          dup1\n          0xa457c2d7\n          gt\n          tag_18\n          jumpi\n          dup1\n          0xa457c2d7\n          eq\n          tag_13\n          jumpi\n          dup1\n          0xa9059cbb\n          eq\n          tag_14\n          jumpi\n          dup1\n          0xdd62ed3e\n          eq\n          tag_15\n          jumpi\n          dup1\n          0xff13b049\n          eq\n          tag_16\n          jumpi\n          0x00\n          dup1\n          revert\n        tag_18:\n          dup1\n          0x8da5cb5b\n          eq\n          tag_10\n          jumpi\n          dup1\n          0x94a927fe\n          eq\n          tag_11\n          jumpi\n          dup1\n          0x95d89b41\n          eq\n          tag_12\n          jumpi\n          0x00\n          dup1\n          revert\n        tag_17:\n          dup1\n          0x23b872dd\n          gt\n          tag_19\n          jumpi\n          dup1\n          0x23b872dd\n          eq\n          tag_6\n          jumpi\n          dup1\n          0x313ce567\n          eq\n          tag_7\n          jumpi\n          dup1\n          0x39509351\n          eq\n          tag_8\n          jumpi\n          dup1\n          0x70a08231\n          eq\n          tag_9\n          jumpi\n          0x00\n          dup1\n          revert\n        tag_19:\n          dup1\n          0x06fdde03\n          eq\n          tag_3\n          jumpi\n          dup1\n          0x095ea7b3\n          eq\n          tag_4\n          jumpi\n          dup1\n          0x18160ddd\n          eq\n          tag_5\n          jumpi\n        tag_2:\n          0x00\n          dup1\n          revert\n            /* \"@openzeppelin/contracts/token/ERC20/ERC20.sol\":2158:2256  function name() public view virtual override returns (string memory) {... */\n        tag_3:\n          tag_20\n          tag_21\n          jump\t// in\n        tag_20:\n          mload(0x40)\n          tag_22\n          swap2\n          swap1\n          tag_23\n          jump\t// in\n        tag_22:\n          mload(0x40)\n          dup1\n          swap2\n          sub\n          swap1\n          return\n            /* \"@openzeppelin/contracts/token/ERC20/ERC20.sol\":4444:4641  function approve(address spender, uint256 amount) public virtual override returns (bool) {... */\n        tag_4:\n          tag_24\n          tag_25\n          calldatasize\n          0x04\n          tag_26\n          jump\t// in\n        tag_25:\n          tag_27\n          jump\t// in\n        tag_24:\n          mload(0x40)\n            /* \"#utility.yul\":1169:1183   */\n          swap1\n          iszero\n            /* \"#utility.yul\":1162:1184   */\n          iszero\n            /* \"#utility.yul\":1144:1185   */\n          dup2\n          mstore\n            /* \"#utility.yul\":1132:1134   */\n          0x20\n            /* \"#utility.yul\":1117:1135   */\n          add\n            /* \"@openzeppelin/contracts/token/ERC20/ERC20.sol\":4444:4641  function approve(address spender, uint256 amount) public virtual override returns (bool) {... */\n          tag_22\n            /* \"#utility.yul\":1004:1191   */\n          jump\n            /* \"@openzeppelin/contracts/token/ERC20/ERC20.sol\":3255:3361  function totalSupply() public view virtual override returns (uint256) {... */\n        tag_5:\n            /* \"@openzeppelin/contracts/token/ERC20/ERC20.sol\":3342:3354  _totalSupply */\n          sload(0x02)\n            /* \"@openzeppelin/contracts/token/ERC20/ERC20.sol\":3255:3361  function totalSupply() public view virtual override returns (uint256) {... */\n        tag_30:\n          mload(0x40)\n            /* \"#utility.yul\":1342:1367   */\n          swap1\n          dup2\n          mstore\n            /* \"#utility.yul\":1330:1332   */\n          0x20\n            /* \"#utility.yul\":1315:1333   */\n          add\n            /* \"@openzeppelin/contracts/token/ERC20/ERC20.sol\":3255:3361  function totalSupply() public view virtual override returns (uint256) {... */\n          tag_22\n            /* \"#utility.yul\":1196:1373   */\n          jump\n            /* \"@openzeppelin/contracts/token/ERC20/ERC20.sol\":5203:5459  function transferFrom(address from, address to, uint256 amount) public virtual override returns (bool) {... */\n        tag_6:\n          tag_24\n          tag_35\n          calldatasize\n          0x04\n          tag_36\n          jump\t// in\n        tag_35:\n          tag_37\n          jump\t// in\n            /* \"CryptoMonster.sol\":391:484  function decimals() public view virtual override returns (uint8) {... */\n        tag_7:\n          mload(0x40)\n            /* \"CryptoMonster.sol\":474:476  12 */\n          0x0c\n            /* \"#utility.yul\":1853:1889   */\n          dup2\n          mstore\n            /* \"#utility.yul\":1841:1843   */\n          0x20\n            /* \"#utility.yul\":1826:1844   */\n          add\n            /* \"CryptoMonster.sol\":391:484  function decimals() public view virtual override returns (uint8) {... */\n          tag_22\n            /* \"#utility.yul\":1711:1895   */\n          jump\n            /* \"@openzeppelin/contracts/token/ERC20/ERC20.sol\":5854:6088  function increaseAllowance(address spender, uint256 addedValue) public virtual returns (bool) {... */\n        tag_8:\n          tag_24\n          tag_44\n          calldatasize\n          0x04\n          tag_26\n          jump\t// in\n        tag_44:\n          tag_45\n          jump\t// in\n            /* \"@openzeppelin/contracts/token/ERC20/ERC20.sol\":3419:3544  function balanceOf(address account) public view virtual override returns (uint256) {... */\n        tag_9:\n          tag_30\n          tag_48\n          calldatasize\n          0x04\n          tag_49\n          jump\t// in\n        tag_48:\n          sub(shl(0xa0, 0x01), 0x01)\n            /* \"@openzeppelin/contracts/token/ERC20/ERC20.sol\":3519:3537  _balances[account] */\n          and\n            /* \"@openzeppelin/contracts/token/ERC20/ERC20.sol\":3493:3500  uint256 */\n          0x00\n            /* \"@openzeppelin/contracts/token/ERC20/ERC20.sol\":3519:3537  _balances[account] */\n          swap1\n          dup2\n          mstore\n          0x20\n          dup2\n          swap1\n          mstore\n          0x40\n          swap1\n          keccak256\n          sload\n          swap1\n            /* \"@openzeppelin/contracts/token/ERC20/ERC20.sol\":3419:3544  function balanceOf(address account) public view virtual override returns (uint256) {... */\n          jump\n            /* \"CryptoMonster.sol\":187:207  address public owner */\n        tag_10:\n          sload(0x05)\n          tag_52\n          swap1\n          sub(shl(0xa0, 0x01), 0x01)\n          and\n          dup2\n          jump\n        tag_52:\n          mload(0x40)\n          sub(shl(0xa0, 0x01), 0x01)\n            /* \"#utility.yul\":2255:2287   */\n          swap1\n          swap2\n          and\n            /* \"#utility.yul\":2237:2288   */\n          dup2\n          mstore\n            /* \"#utility.yul\":2225:2227   */\n          0x20\n            /* \"#utility.yul\":2210:2228   */\n          add\n            /* \"CryptoMonster.sol\":187:207  address public owner */\n          tag_22\n            /* \"#utility.yul\":2091:2294   */\n          jump\n            /* \"CryptoMonster.sol\":492:576  function returnOwner() public view returns (address) {... */\n        tag_11:\n            /* \"CryptoMonster.sol\":563:568  owner */\n          and(sub(shl(0xa0, 0x01), 0x01), sload(0x05))\n            /* \"CryptoMonster.sol\":492:576  function returnOwner() public view returns (address) {... */\n          jump(tag_52)\n            /* \"@openzeppelin/contracts/token/ERC20/ERC20.sol\":2369:2471  function symbol() public view virtual override returns (string memory) {... */\n        tag_12:\n          tag_20\n          tag_60\n          jump\t// in\n            /* \"@openzeppelin/contracts/token/ERC20/ERC20.sol\":6575:7002  function decreaseAllowance(address spender, uint256 subtractedValue) public virtual returns (bool) {... */\n        tag_13:\n          tag_24\n          tag_63\n          calldatasize\n          0x04\n          tag_26\n          jump\t// in\n        tag_63:\n          tag_64\n          jump\t// in\n            /* \"@openzeppelin/contracts/token/ERC20/ERC20.sol\":3740:3929  function transfer(address to, uint256 amount) public virtual override returns (bool) {... */\n        tag_14:\n          tag_24\n          tag_67\n          calldatasize\n          0x04\n          tag_26\n          jump\t// in\n        tag_67:\n          tag_68\n          jump\t// in\n            /* \"@openzeppelin/contracts/token/ERC20/ERC20.sol\":3987:4136  function allowance(address owner, address spender) public view virtual override returns (uint256) {... */\n        tag_15:\n          tag_30\n          tag_71\n          calldatasize\n          0x04\n          tag_72\n          jump\t// in\n        tag_71:\n          tag_73\n          jump\t// in\n            /* \"CryptoMonster.sol\":214:262  uint public privatePhasePrice = 0.00075 * 10**18 */\n        tag_16:\n          tag_30\n          sload(0x06)\n          dup2\n          jump\n            /* \"@openzeppelin/contracts/token/ERC20/ERC20.sol\":2158:2256  function name() public view virtual override returns (string memory) {... */\n        tag_21:\n            /* \"@openzeppelin/contracts/token/ERC20/ERC20.sol\":2212:2225  string memory */\n          0x60\n            /* \"@openzeppelin/contracts/token/ERC20/ERC20.sol\":2244:2249  _name */\n          0x03\n            /* \"@openzeppelin/contracts/token/ERC20/ERC20.sol\":2237:2249  return _name */\n          dup1\n          sload\n          tag_79\n          swap1\n          tag_80\n          jump\t// in\n        tag_79:\n          dup1\n          0x1f\n          add\n          0x20\n          dup1\n          swap2\n          div\n          mul\n          0x20\n          add\n          mload(0x40)\n          swap1\n          dup2\n          add\n          0x40\n          mstore\n          dup1\n          swap3\n          swap2\n          swap1\n          dup2\n          dup2\n          mstore\n          0x20\n          add\n          dup3\n          dup1\n          sload\n          tag_81\n          swap1\n          tag_80\n          jump\t// in\n        tag_81:\n          dup1\n          iszero\n          tag_82\n          jumpi\n          dup1\n          0x1f\n          lt\n          tag_83\n          jumpi\n          0x0100\n          dup1\n          dup4\n          sload\n          div\n          mul\n          dup4\n          mstore\n          swap2\n          0x20\n          add\n          swap2\n          jump(tag_82)\n        tag_83:\n          dup3\n          add\n          swap2\n          swap1\n          0x00\n          mstore\n          keccak256(0x00, 0x20)\n          swap1\n        tag_84:\n          dup2\n          sload\n          dup2\n          mstore\n          swap1\n          0x01\n          add\n          swap1\n          0x20\n          add\n          dup1\n          dup4\n          gt\n          tag_84\n          jumpi\n          dup3\n          swap1\n          sub\n          0x1f\n          and\n          dup3\n          add\n          swap2\n        tag_82:\n          pop\n          pop\n          pop\n          pop\n          pop\n          swap1\n          pop\n            /* \"@openzeppelin/contracts/token/ERC20/ERC20.sol\":2158:2256  function name() public view virtual override returns (string memory) {... */\n          swap1\n          jump\t// out\n            /* \"@openzeppelin/contracts/token/ERC20/ERC20.sol\":4444:4641  function approve(address spender, uint256 amount) public virtual override returns (bool) {... */\n        tag_27:\n            /* \"@openzeppelin/contracts/token/ERC20/ERC20.sol\":4527:4531  bool */\n          0x00\n            /* \"@openzeppelin/contracts/utils/Context.sol\":719:729  msg.sender */\n          caller\n            /* \"@openzeppelin/contracts/token/ERC20/ERC20.sol\":4581:4613  _approve(owner, spender, amount) */\n          tag_88\n            /* \"@openzeppelin/contracts/utils/Context.sol\":719:729  msg.sender */\n          dup2\n            /* \"@openzeppelin/contracts/token/ERC20/ERC20.sol\":4597:4604  spender */\n          dup6\n            /* \"@openzeppelin/contracts/token/ERC20/ERC20.sol\":4606:4612  amount */\n          dup6\n            /* \"@openzeppelin/contracts/token/ERC20/ERC20.sol\":4581:4589  _approve */\n          tag_89\n            /* \"@openzeppelin/contracts/token/ERC20/ERC20.sol\":4581:4613  _approve(owner, spender, amount) */\n          jump\t// in\n        tag_88:\n            /* \"@openzeppelin/contracts/token/ERC20/ERC20.sol\":4630:4634  true */\n          0x01\n            /* \"@openzeppelin/contracts/token/ERC20/ERC20.sol\":4623:4634  return true */\n          swap2\n          pop\n          pop\n            /* \"@openzeppelin/contracts/token/ERC20/ERC20.sol\":4444:4641  function approve(address spender, uint256 amount) public virtual override returns (bool) {... */\n        tag_85:\n          swap3\n          swap2\n          pop\n          pop\n          jump\t// out\n            /* \"@openzeppelin/contracts/token/ERC20/ERC20.sol\":5203:5459  function transferFrom(address from, address to, uint256 amount) public virtual override returns (bool) {... */\n        tag_37:\n            /* \"@openzeppelin/contracts/token/ERC20/ERC20.sol\":5300:5304  bool */\n          0x00\n            /* \"@openzeppelin/contracts/utils/Context.sol\":719:729  msg.sender */\n          caller\n            /* \"@openzeppelin/contracts/token/ERC20/ERC20.sol\":5356:5394  _spendAllowance(from, spender, amount) */\n          tag_93\n            /* \"@openzeppelin/contracts/token/ERC20/ERC20.sol\":5372:5376  from */\n          dup6\n            /* \"@openzeppelin/contracts/utils/Context.sol\":719:729  msg.sender */\n          dup3\n            /* \"@openzeppelin/contracts/token/ERC20/ERC20.sol\":5387:5393  amount */\n          dup6\n            /* \"@openzeppelin/contracts/token/ERC20/ERC20.sol\":5356:5371  _spendAllowance */\n          tag_94\n            /* \"@openzeppelin/contracts/token/ERC20/ERC20.sol\":5356:5394  _spendAllowance(from, spender, amount) */\n          jump\t// in\n        tag_93:\n            /* \"@openzeppelin/contracts/token/ERC20/ERC20.sol\":5404:5431  _transfer(from, to, amount) */\n          tag_95\n            /* \"@openzeppelin/contracts/token/ERC20/ERC20.sol\":5414:5418  from */\n          dup6\n            /* \"@openzeppelin/contracts/token/ERC20/ERC20.sol\":5420:5422  to */\n          dup6\n            /* \"@openzeppelin/contracts/token/ERC20/ERC20.sol\":5424:5430  amount */\n          dup6\n            /* \"@openzeppelin/contracts/token/ERC20/ERC20.sol\":5404:5413  _transfer */\n          tag_96\n            /* \"@openzeppelin/contracts/token/ERC20/ERC20.sol\":5404:5431  _transfer(from, to, amount) */\n          jump\t// in\n        tag_95:\n          pop\n            /* \"@openzeppelin/contracts/token/ERC20/ERC20.sol\":5448:5452  true */\n          0x01\n          swap5\n            /* \"@openzeppelin/contracts/token/ERC20/ERC20.sol\":5203:5459  function transferFrom(address from, address to, uint256 amount) public virtual override returns (bool) {... */\n          swap4\n          pop\n          pop\n          pop\n          pop\n          jump\t// out\n            /* \"@openzeppelin/contracts/token/ERC20/ERC20.sol\":5854:6088  function increaseAllowance(address spender, uint256 addedValue) public virtual returns (bool) {... */\n        tag_45:\n            /* \"@openzeppelin/contracts/token/ERC20/ERC20.sol\":5942:5946  bool */\n          0x00\n            /* \"@openzeppelin/contracts/utils/Context.sol\":719:729  msg.sender */\n          caller\n            /* \"@openzeppelin/contracts/token/ERC20/ERC20.sol\":5996:6060  _approve(owner, spender, allowance(owner, spender) + addedValue) */\n          tag_88\n            /* \"@openzeppelin/contracts/utils/Context.sol\":719:729  msg.sender */\n          dup2\n            /* \"@openzeppelin/contracts/token/ERC20/ERC20.sol\":6012:6019  spender */\n          dup6\n            /* \"@openzeppelin/contracts/token/ERC20/ERC20.sol\":6049:6059  addedValue */\n          dup6\n            /* \"@openzeppelin/contracts/token/ERC20/ERC20.sol\":6021:6046  allowance(owner, spender) */\n          tag_101\n            /* \"@openzeppelin/contracts/utils/Context.sol\":719:729  msg.sender */\n          dup4\n            /* \"@openzeppelin/contracts/token/ERC20/ERC20.sol\":6012:6019  spender */\n          dup4\n            /* \"@openzeppelin/contracts/token/ERC20/ERC20.sol\":6021:6030  allowance */\n          tag_73\n            /* \"@openzeppelin/contracts/token/ERC20/ERC20.sol\":6021:6046  allowance(owner, spender) */\n          jump\t// in\n        tag_101:\n            /* \"@openzeppelin/contracts/token/ERC20/ERC20.sol\":6021:6059  allowance(owner, spender) + addedValue */\n          tag_102\n          swap2\n          swap1\n          tag_103\n          jump\t// in\n        tag_102:\n            /* \"@openzeppelin/contracts/token/ERC20/ERC20.sol\":5996:6004  _approve */\n          tag_89\n            /* \"@openzeppelin/contracts/token/ERC20/ERC20.sol\":5996:6060  _approve(owner, spender, allowance(owner, spender) + addedValue) */\n          jump\t// in\n            /* \"@openzeppelin/contracts/token/ERC20/ERC20.sol\":2369:2471  function symbol() public view virtual override returns (string memory) {... */\n        tag_60:\n            /* \"@openzeppelin/contracts/token/ERC20/ERC20.sol\":2425:2438  string memory */\n          0x60\n            /* \"@openzeppelin/contracts/token/ERC20/ERC20.sol\":2457:2464  _symbol */\n          0x04\n            /* \"@openzeppelin/contracts/token/ERC20/ERC20.sol\":2450:2464  return _symbol */\n          dup1\n          sload\n          tag_79\n          swap1\n          tag_80\n          jump\t// in\n            /* \"@openzeppelin/contracts/token/ERC20/ERC20.sol\":6575:7002  function decreaseAllowance(address spender, uint256 subtractedValue) public virtual returns (bool) {... */\n        tag_64:\n            /* \"@openzeppelin/contracts/token/ERC20/ERC20.sol\":6668:6672  bool */\n          0x00\n            /* \"@openzeppelin/contracts/utils/Context.sol\":719:729  msg.sender */\n          caller\n            /* \"@openzeppelin/contracts/token/ERC20/ERC20.sol\":6668:6672  bool */\n          dup2\n            /* \"@openzeppelin/contracts/token/ERC20/ERC20.sol\":6749:6774  allowance(owner, spender) */\n          tag_114\n            /* \"@openzeppelin/contracts/utils/Context.sol\":719:729  msg.sender */\n          dup3\n            /* \"@openzeppelin/contracts/token/ERC20/ERC20.sol\":6766:6773  spender */\n          dup7\n            /* \"@openzeppelin/contracts/token/ERC20/ERC20.sol\":6749:6758  allowance */\n          tag_73\n            /* \"@openzeppelin/contracts/token/ERC20/ERC20.sol\":6749:6774  allowance(owner, spender) */\n          jump\t// in\n        tag_114:\n            /* \"@openzeppelin/contracts/token/ERC20/ERC20.sol\":6722:6774  uint256 currentAllowance = allowance(owner, spender) */\n          swap1\n          pop\n            /* \"@openzeppelin/contracts/token/ERC20/ERC20.sol\":6812:6827  subtractedValue */\n          dup4\n            /* \"@openzeppelin/contracts/token/ERC20/ERC20.sol\":6792:6808  currentAllowance */\n          dup2\n            /* \"@openzeppelin/contracts/token/ERC20/ERC20.sol\":6792:6827  currentAllowance >= subtractedValue */\n          lt\n          iszero\n            /* \"@openzeppelin/contracts/token/ERC20/ERC20.sol\":6784:6869  require(currentAllowance >= subtractedValue, \"ERC20: decreased allowance below zero\") */\n          tag_115\n          jumpi\n          mload(0x40)\n          shl(0xe5, 0x461bcd)\n          dup2\n          mstore\n            /* \"#utility.yul\":3378:3380   */\n          0x20\n            /* \"@openzeppelin/contracts/token/ERC20/ERC20.sol\":6784:6869  require(currentAllowance >= subtractedValue, \"ERC20: decreased allowance below zero\") */\n          0x04\n          dup3\n          add\n            /* \"#utility.yul\":3360:3381   */\n          mstore\n            /* \"#utility.yul\":3417:3419   */\n          0x25\n            /* \"#utility.yul\":3397:3415   */\n          0x24\n          dup3\n          add\n            /* \"#utility.yul\":3390:3420   */\n          mstore\n            /* \"#utility.yul\":3456:3490   */\n          0x45524332303a2064656372656173656420616c6c6f77616e63652062656c6f77\n            /* \"#utility.yul\":3436:3454   */\n          0x44\n          dup3\n          add\n            /* \"#utility.yul\":3429:3491   */\n          mstore\n          shl(0xd8, 0x207a65726f)\n            /* \"#utility.yul\":3507:3525   */\n          0x64\n          dup3\n          add\n            /* \"#utility.yul\":3500:3535   */\n          mstore\n            /* \"#utility.yul\":3552:3571   */\n          0x84\n          add\n            /* \"@openzeppelin/contracts/token/ERC20/ERC20.sol\":6784:6869  require(currentAllowance >= subtractedValue, \"ERC20: decreased allowance below zero\") */\n        tag_116:\n          mload(0x40)\n          dup1\n          swap2\n          sub\n          swap1\n          revert\n        tag_115:\n            /* \"@openzeppelin/contracts/token/ERC20/ERC20.sol\":6903:6963  _approve(owner, spender, currentAllowance - subtractedValue) */\n          tag_95\n            /* \"@openzeppelin/contracts/token/ERC20/ERC20.sol\":6912:6917  owner */\n          dup3\n            /* \"@openzeppelin/contracts/token/ERC20/ERC20.sol\":6919:6926  spender */\n          dup7\n            /* \"@openzeppelin/contracts/token/ERC20/ERC20.sol\":6947:6962  subtractedValue */\n          dup7\n            /* \"@openzeppelin/contracts/token/ERC20/ERC20.sol\":6928:6944  currentAllowance */\n          dup5\n            /* \"@openzeppelin/contracts/token/ERC20/ERC20.sol\":6928:6962  currentAllowance - subtractedValue */\n          sub\n            /* \"@openzeppelin/contracts/token/ERC20/ERC20.sol\":6903:6911  _approve */\n          tag_89\n            /* \"@openzeppelin/contracts/token/ERC20/ERC20.sol\":6903:6963  _approve(owner, spender, currentAllowance - subtractedValue) */\n          jump\t// in\n            /* \"@openzeppelin/contracts/token/ERC20/ERC20.sol\":3740:3929  function transfer(address to, uint256 amount) public virtual override returns (bool) {... */\n        tag_68:\n            /* \"@openzeppelin/contracts/token/ERC20/ERC20.sol\":3819:3823  bool */\n          0x00\n            /* \"@openzeppelin/contracts/utils/Context.sol\":719:729  msg.sender */\n          caller\n            /* \"@openzeppelin/contracts/token/ERC20/ERC20.sol\":3873:3901  _transfer(owner, to, amount) */\n          tag_88\n            /* \"@openzeppelin/contracts/utils/Context.sol\":719:729  msg.sender */\n          dup2\n            /* \"@openzeppelin/contracts/token/ERC20/ERC20.sol\":3890:3892  to */\n          dup6\n            /* \"@openzeppelin/contracts/token/ERC20/ERC20.sol\":3894:3900  amount */\n          dup6\n            /* \"@openzeppelin/contracts/token/ERC20/ERC20.sol\":3873:3882  _transfer */\n          tag_96\n            /* \"@openzeppelin/contracts/token/ERC20/ERC20.sol\":3873:3901  _transfer(owner, to, amount) */\n          jump\t// in\n            /* \"@openzeppelin/contracts/token/ERC20/ERC20.sol\":3987:4136  function allowance(address owner, address spender) public view virtual override returns (uint256) {... */\n        tag_73:\n          sub(shl(0xa0, 0x01), 0x01)\n            /* \"@openzeppelin/contracts/token/ERC20/ERC20.sol\":4102:4120  _allowances[owner] */\n          swap2\n          dup3\n          and\n            /* \"@openzeppelin/contracts/token/ERC20/ERC20.sol\":4076:4083  uint256 */\n          0x00\n            /* \"@openzeppelin/contracts/token/ERC20/ERC20.sol\":4102:4120  _allowances[owner] */\n          swap1\n          dup2\n          mstore\n            /* \"@openzeppelin/contracts/token/ERC20/ERC20.sol\":4102:4113  _allowances */\n          0x01\n            /* \"@openzeppelin/contracts/token/ERC20/ERC20.sol\":4102:4120  _allowances[owner] */\n          0x20\n          swap1\n          dup2\n          mstore\n          0x40\n          dup1\n          dup4\n          keccak256\n            /* \"@openzeppelin/contracts/token/ERC20/ERC20.sol\":4102:4129  _allowances[owner][spender] */\n          swap4\n          swap1\n          swap5\n          and\n          dup3\n          mstore\n          swap2\n          swap1\n          swap2\n          mstore\n          keccak256\n          sload\n          swap1\n            /* \"@openzeppelin/contracts/token/ERC20/ERC20.sol\":3987:4136  function allowance(address owner, address spender) public view virtual override returns (uint256) {... */\n          jump\t// out\n            /* \"@openzeppelin/contracts/token/ERC20/ERC20.sol\":10457:10797  function _approve(address owner, address spender, uint256 amount) internal virtual {... */\n        tag_89:\n          sub(shl(0xa0, 0x01), 0x01)\n            /* \"@openzeppelin/contracts/token/ERC20/ERC20.sol\":10558:10577  owner != address(0) */\n          dup4\n          and\n            /* \"@openzeppelin/contracts/token/ERC20/ERC20.sol\":10550:10618  require(owner != address(0), \"ERC20: approve from the zero address\") */\n          tag_125\n          jumpi\n          mload(0x40)\n          shl(0xe5, 0x461bcd)\n          dup2\n          mstore\n            /* \"#utility.yul\":3784:3786   */\n          0x20\n            /* \"@openzeppelin/contracts/token/ERC20/ERC20.sol\":10550:10618  require(owner != address(0), \"ERC20: approve from the zero address\") */\n          0x04\n          dup3\n          add\n            /* \"#utility.yul\":3766:3787   */\n          mstore\n            /* \"#utility.yul\":3823:3825   */\n          0x24\n            /* \"#utility.yul\":3803:3821   */\n          dup1\n          dup3\n          add\n            /* \"#utility.yul\":3796:3826   */\n          mstore\n            /* \"#utility.yul\":3862:3896   */\n          0x45524332303a20617070726f76652066726f6d20746865207a65726f20616464\n            /* \"#utility.yul\":3842:3860   */\n          0x44\n          dup3\n          add\n            /* \"#utility.yul\":3835:3897   */\n          mstore\n          shl(0xe0, 0x72657373)\n            /* \"#utility.yul\":3913:3931   */\n          0x64\n          dup3\n          add\n            /* \"#utility.yul\":3906:3940   */\n          mstore\n            /* \"#utility.yul\":3957:3976   */\n          0x84\n          add\n            /* \"@openzeppelin/contracts/token/ERC20/ERC20.sol\":10550:10618  require(owner != address(0), \"ERC20: approve from the zero address\") */\n          tag_116\n            /* \"#utility.yul\":3582:3982   */\n          jump\n            /* \"@openzeppelin/contracts/token/ERC20/ERC20.sol\":10550:10618  require(owner != address(0), \"ERC20: approve from the zero address\") */\n        tag_125:\n          sub(shl(0xa0, 0x01), 0x01)\n            /* \"@openzeppelin/contracts/token/ERC20/ERC20.sol\":10636:10657  spender != address(0) */\n          dup3\n          and\n            /* \"@openzeppelin/contracts/token/ERC20/ERC20.sol\":10628:10696  require(spender != address(0), \"ERC20: approve to the zero address\") */\n          tag_128\n          jumpi\n          mload(0x40)\n          shl(0xe5, 0x461bcd)\n          dup2\n          mstore\n            /* \"#utility.yul\":4189:4191   */\n          0x20\n            /* \"@openzeppelin/contracts/token/ERC20/ERC20.sol\":10628:10696  require(spender != address(0), \"ERC20: approve to the zero address\") */\n          0x04\n          dup3\n          add\n            /* \"#utility.yul\":4171:4192   */\n          mstore\n            /* \"#utility.yul\":4228:4230   */\n          0x22\n            /* \"#utility.yul\":4208:4226   */\n          0x24\n          dup3\n          add\n            /* \"#utility.yul\":4201:4231   */\n          mstore\n            /* \"#utility.yul\":4267:4301   */\n          0x45524332303a20617070726f766520746f20746865207a65726f206164647265\n            /* \"#utility.yul\":4247:4265   */\n          0x44\n          dup3\n          add\n            /* \"#utility.yul\":4240:4302   */\n          mstore\n          shl(0xf0, 0x7373)\n            /* \"#utility.yul\":4318:4336   */\n          0x64\n          dup3\n          add\n            /* \"#utility.yul\":4311:4343   */\n          mstore\n            /* \"#utility.yul\":4360:4379   */\n          0x84\n          add\n            /* \"@openzeppelin/contracts/token/ERC20/ERC20.sol\":10628:10696  require(spender != address(0), \"ERC20: approve to the zero address\") */\n          tag_116\n            /* \"#utility.yul\":3987:4385   */\n          jump\n            /* \"@openzeppelin/contracts/token/ERC20/ERC20.sol\":10628:10696  require(spender != address(0), \"ERC20: approve to the zero address\") */\n        tag_128:\n          sub(shl(0xa0, 0x01), 0x01)\n            /* \"@openzeppelin/contracts/token/ERC20/ERC20.sol\":10707:10725  _allowances[owner] */\n          dup4\n          dup2\n          and\n          0x00\n          dup2\n          dup2\n          mstore\n            /* \"@openzeppelin/contracts/token/ERC20/ERC20.sol\":10707:10718  _allowances */\n          0x01\n            /* \"@openzeppelin/contracts/token/ERC20/ERC20.sol\":10707:10725  _allowances[owner] */\n          0x20\n          swap1\n          dup2\n          mstore\n          0x40\n          dup1\n          dup4\n          keccak256\n            /* \"@openzeppelin/contracts/token/ERC20/ERC20.sol\":10707:10734  _allowances[owner][spender] */\n          swap5\n          dup8\n          and\n          dup1\n          dup5\n          mstore\n          swap5\n          dup3\n          mstore\n          swap2\n          dup3\n          swap1\n          keccak256\n            /* \"@openzeppelin/contracts/token/ERC20/ERC20.sol\":10707:10743  _allowances[owner][spender] = amount */\n          dup6\n          swap1\n          sstore\n            /* \"@openzeppelin/contracts/token/ERC20/ERC20.sol\":10758:10790  Approval(owner, spender, amount) */\n          swap1\n          mload\n            /* \"#utility.yul\":1342:1367   */\n          dup5\n          dup2\n          mstore\n            /* \"@openzeppelin/contracts/token/ERC20/ERC20.sol\":10758:10790  Approval(owner, spender, amount) */\n          0x8c5be1e5ebec7d5bd14f71427d1e84f3dd0314c0f7b2291e5b200ac8c7c3b925\n          swap2\n            /* \"#utility.yul\":1315:1333   */\n          add\n            /* \"@openzeppelin/contracts/token/ERC20/ERC20.sol\":10758:10790  Approval(owner, spender, amount) */\n          mload(0x40)\n          dup1\n          swap2\n          sub\n          swap1\n          log3\n            /* \"@openzeppelin/contracts/token/ERC20/ERC20.sol\":10457:10797  function _approve(address owner, address spender, uint256 amount) internal virtual {... */\n          pop\n          pop\n          pop\n          jump\t// out\n            /* \"@openzeppelin/contracts/token/ERC20/ERC20.sol\":11078:11489  function _spendAllowance(address owner, address spender, uint256 amount) internal virtual {... */\n        tag_94:\n            /* \"@openzeppelin/contracts/token/ERC20/ERC20.sol\":11178:11202  uint256 currentAllowance */\n          0x00\n            /* \"@openzeppelin/contracts/token/ERC20/ERC20.sol\":11205:11230  allowance(owner, spender) */\n          tag_133\n            /* \"@openzeppelin/contracts/token/ERC20/ERC20.sol\":11215:11220  owner */\n          dup5\n            /* \"@openzeppelin/contracts/token/ERC20/ERC20.sol\":11222:11229  spender */\n          dup5\n            /* \"@openzeppelin/contracts/token/ERC20/ERC20.sol\":11205:11214  allowance */\n          tag_73\n            /* \"@openzeppelin/contracts/token/ERC20/ERC20.sol\":11205:11230  allowance(owner, spender) */\n          jump\t// in\n        tag_133:\n            /* \"@openzeppelin/contracts/token/ERC20/ERC20.sol\":11178:11230  uint256 currentAllowance = allowance(owner, spender) */\n          swap1\n          pop\n          not(0x00)\n            /* \"@openzeppelin/contracts/token/ERC20/ERC20.sol\":11244:11260  currentAllowance */\n          dup2\n            /* \"@openzeppelin/contracts/token/ERC20/ERC20.sol\":11244:11281  currentAllowance != type(uint256).max */\n          eq\n            /* \"@openzeppelin/contracts/token/ERC20/ERC20.sol\":11240:11483  if (currentAllowance != type(uint256).max) {... */\n          tag_138\n          jumpi\n            /* \"@openzeppelin/contracts/token/ERC20/ERC20.sol\":11325:11331  amount */\n          dup2\n            /* \"@openzeppelin/contracts/token/ERC20/ERC20.sol\":11305:11321  currentAllowance */\n          dup2\n            /* \"@openzeppelin/contracts/token/ERC20/ERC20.sol\":11305:11331  currentAllowance >= amount */\n          lt\n          iszero\n            /* \"@openzeppelin/contracts/token/ERC20/ERC20.sol\":11297:11365  require(currentAllowance >= amount, \"ERC20: insufficient allowance\") */\n          tag_135\n          jumpi\n          mload(0x40)\n          shl(0xe5, 0x461bcd)\n          dup2\n          mstore\n            /* \"#utility.yul\":4592:4594   */\n          0x20\n            /* \"@openzeppelin/contracts/token/ERC20/ERC20.sol\":11297:11365  require(currentAllowance >= amount, \"ERC20: insufficient allowance\") */\n          0x04\n          dup3\n          add\n            /* \"#utility.yul\":4574:4595   */\n          mstore\n            /* \"#utility.yul\":4631:4633   */\n          0x1d\n            /* \"#utility.yul\":4611:4629   */\n          0x24\n          dup3\n          add\n            /* \"#utility.yul\":4604:4634   */\n          mstore\n            /* \"#utility.yul\":4670:4701   */\n          0x45524332303a20696e73756666696369656e7420616c6c6f77616e6365000000\n            /* \"#utility.yul\":4650:4668   */\n          0x44\n          dup3\n          add\n            /* \"#utility.yul\":4643:4702   */\n          mstore\n            /* \"#utility.yul\":4719:4737   */\n          0x64\n          add\n            /* \"@openzeppelin/contracts/token/ERC20/ERC20.sol\":11297:11365  require(currentAllowance >= amount, \"ERC20: insufficient allowance\") */\n          tag_116\n            /* \"#utility.yul\":4390:4743   */\n          jump\n            /* \"@openzeppelin/contracts/token/ERC20/ERC20.sol\":11297:11365  require(currentAllowance >= amount, \"ERC20: insufficient allowance\") */\n        tag_135:\n            /* \"@openzeppelin/contracts/token/ERC20/ERC20.sol\":11407:11458  _approve(owner, spender, currentAllowance - amount) */\n          tag_138\n            /* \"@openzeppelin/contracts/token/ERC20/ERC20.sol\":11416:11421  owner */\n          dup5\n            /* \"@openzeppelin/contracts/token/ERC20/ERC20.sol\":11423:11430  spender */\n          dup5\n            /* \"@openzeppelin/contracts/token/ERC20/ERC20.sol\":11451:11457  amount */\n          dup5\n            /* \"@openzeppelin/contracts/token/ERC20/ERC20.sol\":11432:11448  currentAllowance */\n          dup5\n            /* \"@openzeppelin/contracts/token/ERC20/ERC20.sol\":11432:11457  currentAllowance - amount */\n          sub\n            /* \"@openzeppelin/contracts/token/ERC20/ERC20.sol\":11407:11415  _approve */\n          tag_89\n            /* \"@openzeppelin/contracts/token/ERC20/ERC20.sol\":11407:11458  _approve(owner, spender, currentAllowance - amount) */\n          jump\t// in\n        tag_138:\n            /* \"@openzeppelin/contracts/token/ERC20/ERC20.sol\":11168:11489  {... */\n          pop\n            /* \"@openzeppelin/contracts/token/ERC20/ERC20.sol\":11078:11489  function _spendAllowance(address owner, address spender, uint256 amount) internal virtual {... */\n          pop\n          pop\n          pop\n          jump\t// out\n            /* \"@openzeppelin/contracts/token/ERC20/ERC20.sol\":7456:8244  function _transfer(address from, address to, uint256 amount) internal virtual {... */\n        tag_96:\n          sub(shl(0xa0, 0x01), 0x01)\n            /* \"@openzeppelin/contracts/token/ERC20/ERC20.sol\":7552:7570  from != address(0) */\n          dup4\n          and\n            /* \"@openzeppelin/contracts/token/ERC20/ERC20.sol\":7544:7612  require(from != address(0), \"ERC20: transfer from the zero address\") */\n          tag_140\n          jumpi\n          mload(0x40)\n          shl(0xe5, 0x461bcd)\n          dup2\n          mstore\n            /* \"#utility.yul\":4950:4952   */\n          0x20\n            /* \"@openzeppelin/contracts/token/ERC20/ERC20.sol\":7544:7612  require(from != address(0), \"ERC20: transfer from the zero address\") */\n          0x04\n          dup3\n          add\n            /* \"#utility.yul\":4932:4953   */\n          mstore\n            /* \"#utility.yul\":4989:4991   */\n          0x25\n            /* \"#utility.yul\":4969:4987   */\n          0x24\n          dup3\n          add\n            /* \"#utility.yul\":4962:4992   */\n          mstore\n            /* \"#utility.yul\":5028:5062   */\n          0x45524332303a207472616e736665722066726f6d20746865207a65726f206164\n            /* \"#utility.yul\":5008:5026   */\n          0x44\n          dup3\n          add\n            /* \"#utility.yul\":5001:5063   */\n          mstore\n          shl(0xd8, 0x6472657373)\n            /* \"#utility.yul\":5079:5097   */\n          0x64\n          dup3\n          add\n            /* \"#utility.yul\":5072:5107   */\n          mstore\n            /* \"#utility.yul\":5124:5143   */\n          0x84\n          add\n            /* \"@openzeppelin/contracts/token/ERC20/ERC20.sol\":7544:7612  require(from != address(0), \"ERC20: transfer from the zero address\") */\n          tag_116\n            /* \"#utility.yul\":4748:5149   */\n          jump\n            /* \"@openzeppelin/contracts/token/ERC20/ERC20.sol\":7544:7612  require(from != address(0), \"ERC20: transfer from the zero address\") */\n        tag_140:\n          sub(shl(0xa0, 0x01), 0x01)\n            /* \"@openzeppelin/contracts/token/ERC20/ERC20.sol\":7630:7646  to != address(0) */\n          dup3\n          and\n            /* \"@openzeppelin/contracts/token/ERC20/ERC20.sol\":7622:7686  require(to != address(0), \"ERC20: transfer to the zero address\") */\n          tag_143\n          jumpi\n          mload(0x40)\n          shl(0xe5, 0x461bcd)\n          dup2\n          mstore\n            /* \"#utility.yul\":5356:5358   */\n          0x20\n            /* \"@openzeppelin/contracts/token/ERC20/ERC20.sol\":7622:7686  require(to != address(0), \"ERC20: transfer to the zero address\") */\n          0x04\n          dup3\n          add\n            /* \"#utility.yul\":5338:5359   */\n          mstore\n            /* \"#utility.yul\":5395:5397   */\n          0x23\n            /* \"#utility.yul\":5375:5393   */\n          0x24\n          dup3\n          add\n            /* \"#utility.yul\":5368:5398   */\n          mstore\n            /* \"#utility.yul\":5434:5468   */\n          0x45524332303a207472616e7366657220746f20746865207a65726f2061646472\n            /* \"#utility.yul\":5414:5432   */\n          0x44\n          dup3\n          add\n            /* \"#utility.yul\":5407:5469   */\n          mstore\n          shl(0xe8, 0x657373)\n            /* \"#utility.yul\":5485:5503   */\n          0x64\n          dup3\n          add\n            /* \"#utility.yul\":5478:5511   */\n          mstore\n            /* \"#utility.yul\":5528:5547   */\n          0x84\n          add\n            /* \"@openzeppelin/contracts/token/ERC20/ERC20.sol\":7622:7686  require(to != address(0), \"ERC20: transfer to the zero address\") */\n          tag_116\n            /* \"#utility.yul\":5154:5553   */\n          jump\n            /* \"@openzeppelin/contracts/token/ERC20/ERC20.sol\":7622:7686  require(to != address(0), \"ERC20: transfer to the zero address\") */\n        tag_143:\n          sub(shl(0xa0, 0x01), 0x01)\n            /* \"@openzeppelin/contracts/token/ERC20/ERC20.sol\":7768:7783  _balances[from] */\n          dup4\n          and\n            /* \"@openzeppelin/contracts/token/ERC20/ERC20.sol\":7746:7765  uint256 fromBalance */\n          0x00\n            /* \"@openzeppelin/contracts/token/ERC20/ERC20.sol\":7768:7783  _balances[from] */\n          swap1\n          dup2\n          mstore\n          0x20\n          dup2\n          swap1\n          mstore\n          0x40\n          swap1\n          keccak256\n          sload\n            /* \"@openzeppelin/contracts/token/ERC20/ERC20.sol\":7801:7822  fromBalance >= amount */\n          dup2\n          dup2\n          lt\n          iszero\n            /* \"@openzeppelin/contracts/token/ERC20/ERC20.sol\":7793:7865  require(fromBalance >= amount, \"ERC20: transfer amount exceeds balance\") */\n          tag_148\n          jumpi\n          mload(0x40)\n          shl(0xe5, 0x461bcd)\n          dup2\n          mstore\n            /* \"#utility.yul\":5760:5762   */\n          0x20\n            /* \"@openzeppelin/contracts/token/ERC20/ERC20.sol\":7793:7865  require(fromBalance >= amount, \"ERC20: transfer amount exceeds balance\") */\n          0x04\n          dup3\n          add\n            /* \"#utility.yul\":5742:5763   */\n          mstore\n            /* \"#utility.yul\":5799:5801   */\n          0x26\n            /* \"#utility.yul\":5779:5797   */\n          0x24\n          dup3\n          add\n            /* \"#utility.yul\":5772:5802   */\n          mstore\n            /* \"#utility.yul\":5838:5872   */\n          0x45524332303a207472616e7366657220616d6f756e7420657863656564732062\n            /* \"#utility.yul\":5818:5836   */\n          0x44\n          dup3\n          add\n            /* \"#utility.yul\":5811:5873   */\n          mstore\n          shl(0xd0, 0x616c616e6365)\n            /* \"#utility.yul\":5889:5907   */\n          0x64\n          dup3\n          add\n            /* \"#utility.yul\":5882:5918   */\n          mstore\n            /* \"#utility.yul\":5935:5954   */\n          0x84\n          add\n            /* \"@openzeppelin/contracts/token/ERC20/ERC20.sol\":7793:7865  require(fromBalance >= amount, \"ERC20: transfer amount exceeds balance\") */\n          tag_116\n            /* \"#utility.yul\":5558:5960   */\n          jump\n            /* \"@openzeppelin/contracts/token/ERC20/ERC20.sol\":7793:7865  require(fromBalance >= amount, \"ERC20: transfer amount exceeds balance\") */\n        tag_148:\n          sub(shl(0xa0, 0x01), 0x01)\n            /* \"@openzeppelin/contracts/token/ERC20/ERC20.sol\":7899:7914  _balances[from] */\n          dup5\n          dup2\n          and\n            /* \"@openzeppelin/contracts/token/ERC20/ERC20.sol\":7899:7908  _balances */\n          0x00\n            /* \"@openzeppelin/contracts/token/ERC20/ERC20.sol\":7899:7914  _balances[from] */\n          dup2\n          dup2\n          mstore\n          0x20\n          dup2\n          dup2\n          mstore\n          0x40\n          dup1\n          dup4\n          keccak256\n            /* \"@openzeppelin/contracts/token/ERC20/ERC20.sol\":7917:7937  fromBalance - amount */\n          dup8\n          dup8\n          sub\n            /* \"@openzeppelin/contracts/token/ERC20/ERC20.sol\":7899:7937  _balances[from] = fromBalance - amount */\n          swap1\n          sstore\n            /* \"@openzeppelin/contracts/token/ERC20/ERC20.sol\":8114:8127  _balances[to] */\n          swap4\n          dup8\n          and\n          dup1\n          dup4\n          mstore\n          swap2\n          dup5\n          swap1\n          keccak256\n            /* \"@openzeppelin/contracts/token/ERC20/ERC20.sol\":8114:8137  _balances[to] += amount */\n          dup1\n          sload\n          dup8\n          add\n          swap1\n          sstore\n            /* \"@openzeppelin/contracts/token/ERC20/ERC20.sol\":8163:8189  Transfer(from, to, amount) */\n          swap3\n          mload\n            /* \"#utility.yul\":1342:1367   */\n          dup6\n          dup2\n          mstore\n            /* \"@openzeppelin/contracts/token/ERC20/ERC20.sol\":8114:8127  _balances[to] */\n          swap1\n          swap3\n            /* \"@openzeppelin/contracts/token/ERC20/ERC20.sol\":8163:8189  Transfer(from, to, amount) */\n          0xddf252ad1be2c89b69c2b068fc378daa952ba7f163c4a11628f55a4df523b3ef\n          swap2\n            /* \"#utility.yul\":1315:1333   */\n          add\n            /* \"@openzeppelin/contracts/token/ERC20/ERC20.sol\":8163:8189  Transfer(from, to, amount) */\n          mload(0x40)\n          dup1\n          swap2\n          sub\n          swap1\n          log3\n            /* \"@openzeppelin/contracts/token/ERC20/ERC20.sol\":8200:8237  _afterTokenTransfer(from, to, amount) */\n          tag_138\n            /* \"@openzeppelin/contracts/token/ERC20/ERC20.sol\":12073:12164  function _beforeTokenTransfer(address from, address to, uint256 amount) internal virtual {} */\n          jump\n            /* \"#utility.yul\":14:562   */\n        tag_23:\n            /* \"#utility.yul\":126:130   */\n          0x00\n            /* \"#utility.yul\":155:157   */\n          0x20\n            /* \"#utility.yul\":184:186   */\n          dup1\n            /* \"#utility.yul\":173:182   */\n          dup4\n            /* \"#utility.yul\":166:187   */\n          mstore\n            /* \"#utility.yul\":216:222   */\n          dup4\n            /* \"#utility.yul\":210:223   */\n          mload\n            /* \"#utility.yul\":259:265   */\n          dup1\n            /* \"#utility.yul\":254:256   */\n          dup3\n            /* \"#utility.yul\":243:252   */\n          dup6\n            /* \"#utility.yul\":239:257   */\n          add\n            /* \"#utility.yul\":232:266   */\n          mstore\n            /* \"#utility.yul\":284:285   */\n          0x00\n            /* \"#utility.yul\":294:434   */\n        tag_159:\n            /* \"#utility.yul\":308:314   */\n          dup2\n            /* \"#utility.yul\":305:306   */\n          dup2\n            /* \"#utility.yul\":302:315   */\n          lt\n            /* \"#utility.yul\":294:434   */\n          iszero\n          tag_161\n          jumpi\n            /* \"#utility.yul\":403:417   */\n          dup6\n          dup2\n          add\n            /* \"#utility.yul\":399:422   */\n          dup4\n          add\n            /* \"#utility.yul\":393:423   */\n          mload\n            /* \"#utility.yul\":369:386   */\n          dup6\n          dup3\n          add\n            /* \"#utility.yul\":388:390   */\n          0x40\n            /* \"#utility.yul\":365:391   */\n          add\n            /* \"#utility.yul\":358:424   */\n          mstore\n            /* \"#utility.yul\":323:333   */\n          dup3\n          add\n            /* \"#utility.yul\":294:434   */\n          jump(tag_159)\n        tag_161:\n            /* \"#utility.yul\":298:301   */\n          pop\n            /* \"#utility.yul\":483:484   */\n          0x00\n            /* \"#utility.yul\":478:480   */\n          0x40\n            /* \"#utility.yul\":469:475   */\n          dup3\n            /* \"#utility.yul\":458:467   */\n          dup7\n            /* \"#utility.yul\":454:476   */\n          add\n            /* \"#utility.yul\":450:481   */\n          add\n            /* \"#utility.yul\":443:485   */\n          mstore\n            /* \"#utility.yul\":553:555   */\n          0x40\n            /* \"#utility.yul\":546:548   */\n          0x1f\n            /* \"#utility.yul\":542:549   */\n          not\n            /* \"#utility.yul\":537:539   */\n          0x1f\n            /* \"#utility.yul\":529:535   */\n          dup4\n            /* \"#utility.yul\":525:540   */\n          add\n            /* \"#utility.yul\":521:550   */\n          and\n            /* \"#utility.yul\":510:519   */\n          dup6\n            /* \"#utility.yul\":506:551   */\n          add\n            /* \"#utility.yul\":502:556   */\n          add\n            /* \"#utility.yul\":494:556   */\n          swap3\n          pop\n          pop\n          pop\n            /* \"#utility.yul\":14:562   */\n          swap3\n          swap2\n          pop\n          pop\n          jump\t// out\n            /* \"#utility.yul\":567:740   */\n        tag_156:\n            /* \"#utility.yul\":635:655   */\n          dup1\n          calldataload\n          sub(shl(0xa0, 0x01), 0x01)\n            /* \"#utility.yul\":684:715   */\n          dup2\n          and\n            /* \"#utility.yul\":674:716   */\n          dup2\n          eq\n            /* \"#utility.yul\":664:734   */\n          tag_163\n          jumpi\n            /* \"#utility.yul\":730:731   */\n          0x00\n            /* \"#utility.yul\":727:728   */\n          dup1\n            /* \"#utility.yul\":720:732   */\n          revert\n            /* \"#utility.yul\":664:734   */\n        tag_163:\n            /* \"#utility.yul\":567:740   */\n          swap2\n          swap1\n          pop\n          jump\t// out\n            /* \"#utility.yul\":745:999   */\n        tag_26:\n            /* \"#utility.yul\":813:819   */\n          0x00\n            /* \"#utility.yul\":821:827   */\n          dup1\n            /* \"#utility.yul\":874:876   */\n          0x40\n            /* \"#utility.yul\":862:871   */\n          dup4\n            /* \"#utility.yul\":853:860   */\n          dup6\n            /* \"#utility.yul\":849:872   */\n          sub\n            /* \"#utility.yul\":845:877   */\n          slt\n            /* \"#utility.yul\":842:894   */\n          iszero\n          tag_165\n          jumpi\n            /* \"#utility.yul\":890:891   */\n          0x00\n            /* \"#utility.yul\":887:888   */\n          dup1\n            /* \"#utility.yul\":880:892   */\n          revert\n            /* \"#utility.yul\":842:894   */\n        tag_165:\n            /* \"#utility.yul\":913:942   */\n          tag_166\n            /* \"#utility.yul\":932:941   */\n          dup4\n            /* \"#utility.yul\":913:942   */\n          tag_156\n          jump\t// in\n        tag_166:\n            /* \"#utility.yul\":903:942   */\n          swap5\n            /* \"#utility.yul\":989:991   */\n          0x20\n            /* \"#utility.yul\":974:992   */\n          swap4\n          swap1\n          swap4\n          add\n            /* \"#utility.yul\":961:993   */\n          calldataload\n          swap4\n          pop\n          pop\n          pop\n            /* \"#utility.yul\":745:999   */\n          jump\t// out\n            /* \"#utility.yul\":1378:1706   */\n        tag_36:\n            /* \"#utility.yul\":1455:1461   */\n          0x00\n            /* \"#utility.yul\":1463:1469   */\n          dup1\n            /* \"#utility.yul\":1471:1477   */\n          0x00\n            /* \"#utility.yul\":1524:1526   */\n          0x60\n            /* \"#utility.yul\":1512:1521   */\n          dup5\n            /* \"#utility.yul\":1503:1510   */\n          dup7\n            /* \"#utility.yul\":1499:1522   */\n          sub\n            /* \"#utility.yul\":1495:1527   */\n          slt\n            /* \"#utility.yul\":1492:1544   */\n          iszero\n          tag_170\n          jumpi\n            /* \"#utility.yul\":1540:1541   */\n          0x00\n            /* \"#utility.yul\":1537:1538   */\n          dup1\n            /* \"#utility.yul\":1530:1542   */\n          revert\n            /* \"#utility.yul\":1492:1544   */\n        tag_170:\n            /* \"#utility.yul\":1563:1592   */\n          tag_171\n            /* \"#utility.yul\":1582:1591   */\n          dup5\n            /* \"#utility.yul\":1563:1592   */\n          tag_156\n          jump\t// in\n        tag_171:\n            /* \"#utility.yul\":1553:1592   */\n          swap3\n          pop\n            /* \"#utility.yul\":1611:1649   */\n          tag_172\n            /* \"#utility.yul\":1645:1647   */\n          0x20\n            /* \"#utility.yul\":1634:1643   */\n          dup6\n            /* \"#utility.yul\":1630:1648   */\n          add\n            /* \"#utility.yul\":1611:1649   */\n          tag_156\n          jump\t// in\n        tag_172:\n            /* \"#utility.yul\":1601:1649   */\n          swap2\n          pop\n            /* \"#utility.yul\":1696:1698   */\n          0x40\n            /* \"#utility.yul\":1685:1694   */\n          dup5\n            /* \"#utility.yul\":1681:1699   */\n          add\n            /* \"#utility.yul\":1668:1700   */\n          calldataload\n            /* \"#utility.yul\":1658:1700   */\n          swap1\n          pop\n            /* \"#utility.yul\":1378:1706   */\n          swap3\n          pop\n          swap3\n          pop\n          swap3\n          jump\t// out\n            /* \"#utility.yul\":1900:2086   */\n        tag_49:\n            /* \"#utility.yul\":1959:1965   */\n          0x00\n            /* \"#utility.yul\":2012:2014   */\n          0x20\n            /* \"#utility.yul\":2000:2009   */\n          dup3\n            /* \"#utility.yul\":1991:1998   */\n          dup5\n            /* \"#utility.yul\":1987:2010   */\n          sub\n            /* \"#utility.yul\":1983:2015   */\n          slt\n            /* \"#utility.yul\":1980:2032   */\n          iszero\n          tag_175\n          jumpi\n            /* \"#utility.yul\":2028:2029   */\n          0x00\n            /* \"#utility.yul\":2025:2026   */\n          dup1\n            /* \"#utility.yul\":2018:2030   */\n          revert\n            /* \"#utility.yul\":1980:2032   */\n        tag_175:\n            /* \"#utility.yul\":2051:2080   */\n          tag_176\n            /* \"#utility.yul\":2070:2079   */\n          dup3\n            /* \"#utility.yul\":2051:2080   */\n          tag_156\n          jump\t// in\n        tag_176:\n            /* \"#utility.yul\":2041:2080   */\n          swap4\n            /* \"#utility.yul\":1900:2086   */\n          swap3\n          pop\n          pop\n          pop\n          jump\t// out\n            /* \"#utility.yul\":2299:2559   */\n        tag_72:\n            /* \"#utility.yul\":2367:2373   */\n          0x00\n            /* \"#utility.yul\":2375:2381   */\n          dup1\n            /* \"#utility.yul\":2428:2430   */\n          0x40\n            /* \"#utility.yul\":2416:2425   */\n          dup4\n            /* \"#utility.yul\":2407:2414   */\n          dup6\n            /* \"#utility.yul\":2403:2426   */\n          sub\n            /* \"#utility.yul\":2399:2431   */\n          slt\n            /* \"#utility.yul\":2396:2448   */\n          iszero\n          tag_179\n          jumpi\n            /* \"#utility.yul\":2444:2445   */\n          0x00\n            /* \"#utility.yul\":2441:2442   */\n          dup1\n            /* \"#utility.yul\":2434:2446   */\n          revert\n            /* \"#utility.yul\":2396:2448   */\n        tag_179:\n            /* \"#utility.yul\":2467:2496   */\n          tag_180\n            /* \"#utility.yul\":2486:2495   */\n          dup4\n            /* \"#utility.yul\":2467:2496   */\n          tag_156\n          jump\t// in\n        tag_180:\n            /* \"#utility.yul\":2457:2496   */\n          swap2\n          pop\n            /* \"#utility.yul\":2515:2553   */\n          tag_181\n            /* \"#utility.yul\":2549:2551   */\n          0x20\n            /* \"#utility.yul\":2538:2547   */\n          dup5\n            /* \"#utility.yul\":2534:2552   */\n          add\n            /* \"#utility.yul\":2515:2553   */\n          tag_156\n          jump\t// in\n        tag_181:\n            /* \"#utility.yul\":2505:2553   */\n          swap1\n          pop\n            /* \"#utility.yul\":2299:2559   */\n          swap3\n          pop\n          swap3\n          swap1\n          pop\n          jump\t// out\n            /* \"#utility.yul\":2564:2944   */\n        tag_80:\n            /* \"#utility.yul\":2643:2644   */\n          0x01\n            /* \"#utility.yul\":2639:2651   */\n          dup2\n          dup2\n          shr\n          swap1\n            /* \"#utility.yul\":2686:2698   */\n          dup3\n          and\n          dup1\n            /* \"#utility.yul\":2707:2768   */\n          tag_183\n          jumpi\n            /* \"#utility.yul\":2761:2765   */\n          0x7f\n            /* \"#utility.yul\":2753:2759   */\n          dup3\n            /* \"#utility.yul\":2749:2766   */\n          and\n            /* \"#utility.yul\":2739:2766   */\n          swap2\n          pop\n            /* \"#utility.yul\":2707:2768   */\n        tag_183:\n            /* \"#utility.yul\":2814:2816   */\n          0x20\n            /* \"#utility.yul\":2806:2812   */\n          dup3\n            /* \"#utility.yul\":2803:2817   */\n          lt\n            /* \"#utility.yul\":2783:2801   */\n          dup2\n            /* \"#utility.yul\":2780:2818   */\n          sub\n            /* \"#utility.yul\":2777:2938   */\n          tag_184\n          jumpi\n            /* \"#utility.yul\":2860:2870   */\n          0x4e487b71\n            /* \"#utility.yul\":2855:2858   */\n          0xe0\n            /* \"#utility.yul\":2851:2871   */\n          shl\n            /* \"#utility.yul\":2848:2849   */\n          0x00\n            /* \"#utility.yul\":2841:2872   */\n          mstore\n            /* \"#utility.yul\":2895:2899   */\n          0x22\n            /* \"#utility.yul\":2892:2893   */\n          0x04\n            /* \"#utility.yul\":2885:2900   */\n          mstore\n            /* \"#utility.yul\":2923:2927   */\n          0x24\n            /* \"#utility.yul\":2920:2921   */\n          0x00\n            /* \"#utility.yul\":2913:2928   */\n          revert\n            /* \"#utility.yul\":2777:2938   */\n        tag_184:\n          pop\n            /* \"#utility.yul\":2564:2944   */\n          swap2\n          swap1\n          pop\n          jump\t// out\n            /* \"#utility.yul\":2949:3171   */\n        tag_103:\n            /* \"#utility.yul\":3014:3023   */\n          dup1\n          dup3\n          add\n            /* \"#utility.yul\":3035:3045   */\n          dup1\n          dup3\n          gt\n            /* \"#utility.yul\":3032:3165   */\n          iszero\n          tag_85\n          jumpi\n            /* \"#utility.yul\":3087:3097   */\n          0x4e487b71\n            /* \"#utility.yul\":3082:3085   */\n          0xe0\n            /* \"#utility.yul\":3078:3098   */\n          shl\n            /* \"#utility.yul\":3075:3076   */\n          0x00\n            /* \"#utility.yul\":3068:3099   */\n          mstore\n            /* \"#utility.yul\":3122:3126   */\n          0x11\n            /* \"#utility.yul\":3119:3120   */\n          0x04\n            /* \"#utility.yul\":3112:3127   */\n          mstore\n            /* \"#utility.yul\":3150:3154   */\n          0x24\n            /* \"#utility.yul\":3147:3148   */\n          0x00\n            /* \"#utility.yul\":3140:3155   */\n          revert\n\n        auxdata: 0xa2646970667358221220cc7e4f818469422be638d3f0b47416e0d072ef4f8609c3da915bf0cae3599db564736f6c63430008150033\n    }\n}\n",
				"bytecode": {
					"linkReferences": {},
					"object": "608060405260405161001090610365565b604051809103906000f08015801561002c573d6000803e3d6000fd5b50600080546001600160a01b0319166001600160a01b039290921691909117905534801561005957600080fd5b506040805160a08101825260096060820190815268496e766573746f723160b81b6080830152815290516020808301916100b091016020808252600890820152671c100d4d55cc149160c21b604082015260600190565b60408051601f1981840301815291905280516020918201208252016002905273dd870fa1b7c4700f2bd7f44238821c26f7392148600052600160205280517ff7f18749bcf7740ee9163a287ba21159885df3a4fcd012cace9f3e8cc383939690819061011c9082610427565b506020820151816001015560408201518160020160006101000a81548160ff0219169083600481111561015157610151610372565b0217905550506040805160a0810182526009606082019081526824b73b32b9ba37b91960b91b6080830152815290519091506020808301916101b591016020808252600d908201526c1c1a1a39bcb9ba32b6aab9b2b960991b604082015260600190565b60408051601f1981840301815291905280516020918201208252016002905273583031d1113ad414f02576bd6afabfb302140225600052600160205280517fdc0b8a166480193399091c72e567dfb66590a22c66dc3ed69bece6c250570fe19081906102219082610427565b506020820151816001015560408201518160020160006101000a81548160ff0219169083600481111561025657610256610372565b0217905550506040805160a081018252600b606082019081526a10995cdd08199c9a595b9960aa1b6080830152815290519091506020808301916102b791016020808252600890820152671c184d4d55d3d49160c21b604082015260600190565b60408051601f19818403018152919052805160209182012082520160029052734b0897b0513fdc7c541b6d9d7e929c4e5364d2db600052600160205280517f10a20f96a687af27f4f9f18585ae5f3d7119f863442ba4a404b9f0c48bbfbdfb9081906103239082610427565b506020820151816001015560408201518160020160006101000a81548160ff0219169083600481111561035857610358610372565b02179055509050506104e6565b610bf88061093083390190565b634e487b7160e01b600052602160045260246000fd5b634e487b7160e01b600052604160045260246000fd5b600181811c908216806103b257607f821691505b6020821081036103d257634e487b7160e01b600052602260045260246000fd5b50919050565b601f82111561042257600081815260208120601f850160051c810160208610156103ff5750805b601f850160051c820191505b8181101561041e5782815560010161040b565b5050505b505050565b81516001600160401b0381111561044057610440610388565b6104548161044e845461039e565b846103d8565b602080601f83116001811461048957600084156104715750858301515b600019600386901b1c1916600185901b17855561041e565b600085815260208120601f198616915b828110156104b857888601518255948401946001909101908401610499565b50858210156104d65787850151600019600388901b60f8161c191681555b5050505050600190811b01905550565b61043b806104f56000396000f3fe608060405234801561001057600080fd5b506004361061002b5760003560e01c806348419dc814610030575b600080fd5b61004361003e3660046101f4565b610045565b005b3360009081526001602052604081206002015460ff16600481111561006c5761006c610258565b146100b35760405162461bcd60e51b8152602060048201526013602482015272596f752072656769737465726564207965742160681b604482015260640160405180910390fd5b6040518060600160405280838152602001826040516020016100d5919061026e565b60408051601f19818403018152919052805160209182012082520160019052336000908152600160205260409020815181906101119082610345565b506020820151816001015560408201518160020160006101000a81548160ff0219169083600481111561014657610146610258565b021790555050505050565b634e487b7160e01b600052604160045260246000fd5b600082601f83011261017857600080fd5b813567ffffffffffffffff8082111561019357610193610151565b604051601f8301601f19908116603f011681019082821181831017156101bb576101bb610151565b816040528381528660208588010111156101d457600080fd5b836020870160208301376000602085830101528094505050505092915050565b6000806040838503121561020757600080fd5b823567ffffffffffffffff8082111561021f57600080fd5b61022b86838701610167565b9350602085013591508082111561024157600080fd5b5061024e85828601610167565b9150509250929050565b634e487b7160e01b600052602160045260246000fd5b600060208083528351808285015260005b8181101561029b5785810183015185820160400152820161027f565b506000604082860101526040601f19601f8301168501019250505092915050565b600181811c908216806102d057607f821691505b6020821081036102f057634e487b7160e01b600052602260045260246000fd5b50919050565b601f82111561034057600081815260208120601f850160051c8101602086101561031d5750805b601f850160051c820191505b8181101561033c57828155600101610329565b5050505b505050565b815167ffffffffffffffff81111561035f5761035f610151565b6103738161036d84546102bc565b846102f6565b602080601f8311600181146103a857600084156103905750858301515b600019600386901b1c1916600185901b17855561033c565b600085815260208120601f198616915b828110156103d7578886015182559484019460019091019084016103b8565b50858210156103f55787850151600019600388901b60f8161c191681555b5050505050600190811b0190555056fea2646970667358221220364dec66ba2945205907d839310a2f3ef53041e2d40f5236d534b17064ec9cb464736f6c6343000815003360806040526602aa1efb94e0006006553480156200001c57600080fd5b506040518060400160405280600d81526020016c21b93cb83a37a6b7b739ba32b960991b8152506040518060400160405280600481526020016321a6a7a760e11b81525081600390816200007191906200021c565b5060046200008082826200021c565b5050600580546001600160a01b03191633908117909155620000a7915062989680620000ad565b62000310565b6001600160a01b038216620001085760405162461bcd60e51b815260206004820152601f60248201527f45524332303a206d696e7420746f20746865207a65726f206164647265737300604482015260640160405180910390fd5b80600260008282546200011c9190620002e8565b90915550506001600160a01b038216600081815260208181526040808320805486019055518481527fddf252ad1be2c89b69c2b068fc378daa952ba7f163c4a11628f55a4df523b3ef910160405180910390a35050565b505050565b634e487b7160e01b600052604160045260246000fd5b600181811c90821680620001a357607f821691505b602082108103620001c457634e487b7160e01b600052602260045260246000fd5b50919050565b601f8211156200017357600081815260208120601f850160051c81016020861015620001f35750805b601f850160051c820191505b818110156200021457828155600101620001ff565b505050505050565b81516001600160401b0381111562000238576200023862000178565b62000250816200024984546200018e565b84620001ca565b602080601f8311600181146200028857600084156200026f5750858301515b600019600386901b1c1916600185901b17855562000214565b600085815260208120601f198616915b82811015620002b95788860151825594840194600190910190840162000298565b5085821015620002d85787850151600019600388901b60f8161c191681555b5050505050600190811b01905550565b808201808211156200030a57634e487b7160e01b600052601160045260246000fd5b92915050565b6108d880620003206000396000f3fe608060405234801561001057600080fd5b50600436106100ea5760003560e01c80638da5cb5b1161008c578063a457c2d711610066578063a457c2d7146101e4578063a9059cbb146101f7578063dd62ed3e1461020a578063ff13b0491461021d57600080fd5b80638da5cb5b146101a057806394a927fe146101cb57806395d89b41146101dc57600080fd5b806323b872dd116100c857806323b872dd14610142578063313ce56714610155578063395093511461016457806370a082311461017757600080fd5b806306fdde03146100ef578063095ea7b31461010d57806318160ddd14610130575b600080fd5b6100f7610226565b6040516101049190610722565b60405180910390f35b61012061011b36600461078c565b6102b8565b6040519015158152602001610104565b6002545b604051908152602001610104565b6101206101503660046107b6565b6102d2565b604051600c8152602001610104565b61012061017236600461078c565b6102f6565b6101346101853660046107f2565b6001600160a01b031660009081526020819052604090205490565b6005546101b3906001600160a01b031681565b6040516001600160a01b039091168152602001610104565b6005546001600160a01b03166101b3565b6100f7610318565b6101206101f236600461078c565b610327565b61012061020536600461078c565b6103a7565b610134610218366004610814565b6103b5565b61013460065481565b60606003805461023590610847565b80601f016020809104026020016040519081016040528092919081815260200182805461026190610847565b80156102ae5780601f10610283576101008083540402835291602001916102ae565b820191906000526020600020905b81548152906001019060200180831161029157829003601f168201915b5050505050905090565b6000336102c68185856103e0565b60019150505b92915050565b6000336102e0858285610504565b6102eb85858561057e565b506001949350505050565b6000336102c681858561030983836103b5565b6103139190610881565b6103e0565b60606004805461023590610847565b6000338161033582866103b5565b90508381101561039a5760405162461bcd60e51b815260206004820152602560248201527f45524332303a2064656372656173656420616c6c6f77616e63652062656c6f77604482015264207a65726f60d81b60648201526084015b60405180910390fd5b6102eb82868684036103e0565b6000336102c681858561057e565b6001600160a01b03918216600090815260016020908152604080832093909416825291909152205490565b6001600160a01b0383166104425760405162461bcd60e51b8152602060048201526024808201527f45524332303a20617070726f76652066726f6d20746865207a65726f206164646044820152637265737360e01b6064820152608401610391565b6001600160a01b0382166104a35760405162461bcd60e51b815260206004820152602260248201527f45524332303a20617070726f766520746f20746865207a65726f206164647265604482015261737360f01b6064820152608401610391565b6001600160a01b0383811660008181526001602090815260408083209487168084529482529182902085905590518481527f8c5be1e5ebec7d5bd14f71427d1e84f3dd0314c0f7b2291e5b200ac8c7c3b925910160405180910390a3505050565b600061051084846103b5565b90506000198114610578578181101561056b5760405162461bcd60e51b815260206004820152601d60248201527f45524332303a20696e73756666696369656e7420616c6c6f77616e63650000006044820152606401610391565b61057884848484036103e0565b50505050565b6001600160a01b0383166105e25760405162461bcd60e51b815260206004820152602560248201527f45524332303a207472616e736665722066726f6d20746865207a65726f206164604482015264647265737360d81b6064820152608401610391565b6001600160a01b0382166106445760405162461bcd60e51b815260206004820152602360248201527f45524332303a207472616e7366657220746f20746865207a65726f206164647260448201526265737360e81b6064820152608401610391565b6001600160a01b038316600090815260208190526040902054818110156106bc5760405162461bcd60e51b815260206004820152602660248201527f45524332303a207472616e7366657220616d6f756e7420657863656564732062604482015265616c616e636560d01b6064820152608401610391565b6001600160a01b03848116600081815260208181526040808320878703905593871680835291849020805487019055925185815290927fddf252ad1be2c89b69c2b068fc378daa952ba7f163c4a11628f55a4df523b3ef910160405180910390a3610578565b600060208083528351808285015260005b8181101561074f57858101830151858201604001528201610733565b506000604082860101526040601f19601f8301168501019250505092915050565b80356001600160a01b038116811461078757600080fd5b919050565b6000806040838503121561079f57600080fd5b6107a883610770565b946020939093013593505050565b6000806000606084860312156107cb57600080fd5b6107d484610770565b92506107e260208501610770565b9150604084013590509250925092565b60006020828403121561080457600080fd5b61080d82610770565b9392505050565b6000806040838503121561082757600080fd5b61083083610770565b915061083e60208401610770565b90509250929050565b600181811c9082168061085b57607f821691505b60208210810361087b57634e487b7160e01b600052602260045260246000fd5b50919050565b808201808211156102cc57634e487b7160e01b600052601160045260246000fdfea2646970667358221220cc7e4f818469422be638d3f0b47416e0d072ef4f8609c3da915bf0cae3599db564736f6c63430008150033",
					"opcodes": "PUSH1 0x80 PUSH1 0x40 MSTORE PUSH1 0x40 MLOAD PUSH2 0x10 SWAP1 PUSH2 0x365 JUMP JUMPDEST PUSH1 0x40 MLOAD DUP1 SWAP2 SUB SWAP1 PUSH1 0x0 CREATE DUP1 ISZERO DUP1 ISZERO PUSH2 0x2C JUMPI RETURNDATASIZE PUSH1 0x0 DUP1 RETURNDATACOPY RETURNDATASIZE PUSH1 0x0 REVERT JUMPDEST POP PUSH1 0x0 DUP1 SLOAD PUSH1 0x1 PUSH1 0x1 PUSH1 0xA0 SHL SUB NOT AND PUSH1 0x1 PUSH1 0x1 PUSH1 0xA0 SHL SUB SWAP3 SWAP1 SWAP3 AND SWAP2 SWAP1 SWAP2 OR SWAP1 SSTORE CALLVALUE DUP1 ISZERO PUSH2 0x59 JUMPI PUSH1 0x0 DUP1 REVERT JUMPDEST POP PUSH1 0x40 DUP1 MLOAD PUSH1 0xA0 DUP2 ADD DUP3 MSTORE PUSH1 0x9 PUSH1 0x60 DUP3 ADD SWAP1 DUP2 MSTORE PUSH9 0x496E766573746F7231 PUSH1 0xB8 SHL PUSH1 0x80 DUP4 ADD MSTORE DUP2 MSTORE SWAP1 MLOAD PUSH1 0x20 DUP1 DUP4 ADD SWAP2 PUSH2 0xB0 SWAP2 ADD PUSH1 0x20 DUP1 DUP3 MSTORE PUSH1 0x8 SWAP1 DUP3 ADD MSTORE PUSH8 0x1C100D4D55CC1491 PUSH1 0xC2 SHL PUSH1 0x40 DUP3 ADD MSTORE PUSH1 0x60 ADD SWAP1 JUMP JUMPDEST PUSH1 0x40 DUP1 MLOAD PUSH1 0x1F NOT DUP2 DUP5 SUB ADD DUP2 MSTORE SWAP2 SWAP1 MSTORE DUP1 MLOAD PUSH1 0x20 SWAP2 DUP3 ADD KECCAK256 DUP3 MSTORE ADD PUSH1 0x2 SWAP1 MSTORE PUSH20 0xDD870FA1B7C4700F2BD7F44238821C26F7392148 PUSH1 0x0 MSTORE PUSH1 0x1 PUSH1 0x20 MSTORE DUP1 MLOAD PUSH32 0xF7F18749BCF7740EE9163A287BA21159885DF3A4FCD012CACE9F3E8CC3839396 SWAP1 DUP2 SWAP1 PUSH2 0x11C SWAP1 DUP3 PUSH2 0x427 JUMP JUMPDEST POP PUSH1 0x20 DUP3 ADD MLOAD DUP2 PUSH1 0x1 ADD SSTORE PUSH1 0x40 DUP3 ADD MLOAD DUP2 PUSH1 0x2 ADD PUSH1 0x0 PUSH2 0x100 EXP DUP2 SLOAD DUP2 PUSH1 0xFF MUL NOT AND SWAP1 DUP4 PUSH1 0x4 DUP2 GT ISZERO PUSH2 0x151 JUMPI PUSH2 0x151 PUSH2 0x372 JUMP JUMPDEST MUL OR SWAP1 SSTORE POP POP PUSH1 0x40 DUP1 MLOAD PUSH1 0xA0 DUP2 ADD DUP3 MSTORE PUSH1 0x9 PUSH1 0x60 DUP3 ADD SWAP1 DUP2 MSTORE PUSH9 0x24B73B32B9BA37B919 PUSH1 0xB9 SHL PUSH1 0x80 DUP4 ADD MSTORE DUP2 MSTORE SWAP1 MLOAD SWAP1 SWAP2 POP PUSH1 0x20 DUP1 DUP4 ADD SWAP2 PUSH2 0x1B5 SWAP2 ADD PUSH1 0x20 DUP1 DUP3 MSTORE PUSH1 0xD SWAP1 DUP3 ADD MSTORE PUSH13 0x1C1A1A39BCB9BA32B6AAB9B2B9 PUSH1 0x99 SHL PUSH1 0x40 DUP3 ADD MSTORE PUSH1 0x60 ADD SWAP1 JUMP JUMPDEST PUSH1 0x40 DUP1 MLOAD PUSH1 0x1F NOT DUP2 DUP5 SUB ADD DUP2 MSTORE SWAP2 SWAP1 MSTORE DUP1 MLOAD PUSH1 0x20 SWAP2 DUP3 ADD KECCAK256 DUP3 MSTORE ADD PUSH1 0x2 SWAP1 MSTORE PUSH20 0x583031D1113AD414F02576BD6AFABFB302140225 PUSH1 0x0 MSTORE PUSH1 0x1 PUSH1 0x20 MSTORE DUP1 MLOAD PUSH32 0xDC0B8A166480193399091C72E567DFB66590A22C66DC3ED69BECE6C250570FE1 SWAP1 DUP2 SWAP1 PUSH2 0x221 SWAP1 DUP3 PUSH2 0x427 JUMP JUMPDEST POP PUSH1 0x20 DUP3 ADD MLOAD DUP2 PUSH1 0x1 ADD SSTORE PUSH1 0x40 DUP3 ADD MLOAD DUP2 PUSH1 0x2 ADD PUSH1 0x0 PUSH2 0x100 EXP DUP2 SLOAD DUP2 PUSH1 0xFF MUL NOT AND SWAP1 DUP4 PUSH1 0x4 DUP2 GT ISZERO PUSH2 0x256 JUMPI PUSH2 0x256 PUSH2 0x372 JUMP JUMPDEST MUL OR SWAP1 SSTORE POP POP PUSH1 0x40 DUP1 MLOAD PUSH1 0xA0 DUP2 ADD DUP3 MSTORE PUSH1 0xB PUSH1 0x60 DUP3 ADD SWAP1 DUP2 MSTORE PUSH11 0x10995CDD08199C9A595B99 PUSH1 0xAA SHL PUSH1 0x80 DUP4 ADD MSTORE DUP2 MSTORE SWAP1 MLOAD SWAP1 SWAP2 POP PUSH1 0x20 DUP1 DUP4 ADD SWAP2 PUSH2 0x2B7 SWAP2 ADD PUSH1 0x20 DUP1 DUP3 MSTORE PUSH1 0x8 SWAP1 DUP3 ADD MSTORE PUSH8 0x1C184D4D55D3D491 PUSH1 0xC2 SHL PUSH1 0x40 DUP3 ADD MSTORE PUSH1 0x60 ADD SWAP1 JUMP JUMPDEST PUSH1 0x40 DUP1 MLOAD PUSH1 0x1F NOT DUP2 DUP5 SUB ADD DUP2 MSTORE SWAP2 SWAP1 MSTORE DUP1 MLOAD PUSH1 0x20 SWAP2 DUP3 ADD KECCAK256 DUP3 MSTORE ADD PUSH1 0x2 SWAP1 MSTORE PUSH20 0x4B0897B0513FDC7C541B6D9D7E929C4E5364D2DB PUSH1 0x0 MSTORE PUSH1 0x1 PUSH1 0x20 MSTORE DUP1 MLOAD PUSH32 0x10A20F96A687AF27F4F9F18585AE5F3D7119F863442BA4A404B9F0C48BBFBDFB SWAP1 DUP2 SWAP1 PUSH2 0x323 SWAP1 DUP3 PUSH2 0x427 JUMP JUMPDEST POP PUSH1 0x20 DUP3 ADD MLOAD DUP2 PUSH1 0x1 ADD SSTORE PUSH1 0x40 DUP3 ADD MLOAD DUP2 PUSH1 0x2 ADD PUSH1 0x0 PUSH2 0x100 EXP DUP2 SLOAD DUP2 PUSH1 0xFF MUL NOT AND SWAP1 DUP4 PUSH1 0x4 DUP2 GT ISZERO PUSH2 0x358 JUMPI PUSH2 0x358 PUSH2 0x372 JUMP JUMPDEST MUL OR SWAP1 SSTORE POP SWAP1 POP POP PUSH2 0x4E6 JUMP JUMPDEST PUSH2 0xBF8 DUP1 PUSH2 0x930 DUP4 CODECOPY ADD SWAP1 JUMP JUMPDEST PUSH4 0x4E487B71 PUSH1 0xE0 SHL PUSH1 0x0 MSTORE PUSH1 0x21 PUSH1 0x4 MSTORE PUSH1 0x24 PUSH1 0x0 REVERT JUMPDEST PUSH4 0x4E487B71 PUSH1 0xE0 SHL PUSH1 0x0 MSTORE PUSH1 0x41 PUSH1 0x4 MSTORE PUSH1 0x24 PUSH1 0x0 REVERT JUMPDEST PUSH1 0x1 DUP2 DUP2 SHR SWAP1 DUP3 AND DUP1 PUSH2 0x3B2 JUMPI PUSH1 0x7F DUP3 AND SWAP2 POP JUMPDEST PUSH1 0x20 DUP3 LT DUP2 SUB PUSH2 0x3D2 JUMPI PUSH4 0x4E487B71 PUSH1 0xE0 SHL PUSH1 0x0 MSTORE PUSH1 0x22 PUSH1 0x4 MSTORE PUSH1 0x24 PUSH1 0x0 REVERT JUMPDEST POP SWAP2 SWAP1 POP JUMP JUMPDEST PUSH1 0x1F DUP3 GT ISZERO PUSH2 0x422 JUMPI PUSH1 0x0 DUP2 DUP2 MSTORE PUSH1 0x20 DUP2 KECCAK256 PUSH1 0x1F DUP6 ADD PUSH1 0x5 SHR DUP2 ADD PUSH1 0x20 DUP7 LT ISZERO PUSH2 0x3FF JUMPI POP DUP1 JUMPDEST PUSH1 0x1F DUP6 ADD PUSH1 0x5 SHR DUP3 ADD SWAP2 POP JUMPDEST DUP2 DUP2 LT ISZERO PUSH2 0x41E JUMPI DUP3 DUP2 SSTORE PUSH1 0x1 ADD PUSH2 0x40B JUMP JUMPDEST POP POP POP JUMPDEST POP POP POP JUMP JUMPDEST DUP2 MLOAD PUSH1 0x1 PUSH1 0x1 PUSH1 0x40 SHL SUB DUP2 GT ISZERO PUSH2 0x440 JUMPI PUSH2 0x440 PUSH2 0x388 JUMP JUMPDEST PUSH2 0x454 DUP2 PUSH2 0x44E DUP5 SLOAD PUSH2 0x39E JUMP JUMPDEST DUP5 PUSH2 0x3D8 JUMP JUMPDEST PUSH1 0x20 DUP1 PUSH1 0x1F DUP4 GT PUSH1 0x1 DUP2 EQ PUSH2 0x489 JUMPI PUSH1 0x0 DUP5 ISZERO PUSH2 0x471 JUMPI POP DUP6 DUP4 ADD MLOAD JUMPDEST PUSH1 0x0 NOT PUSH1 0x3 DUP7 SWAP1 SHL SHR NOT AND PUSH1 0x1 DUP6 SWAP1 SHL OR DUP6 SSTORE PUSH2 0x41E JUMP JUMPDEST PUSH1 0x0 DUP6 DUP2 MSTORE PUSH1 0x20 DUP2 KECCAK256 PUSH1 0x1F NOT DUP7 AND SWAP2 JUMPDEST DUP3 DUP2 LT ISZERO PUSH2 0x4B8 JUMPI DUP9 DUP7 ADD MLOAD DUP3 SSTORE SWAP5 DUP5 ADD SWAP5 PUSH1 0x1 SWAP1 SWAP2 ADD SWAP1 DUP5 ADD PUSH2 0x499 JUMP JUMPDEST POP DUP6 DUP3 LT ISZERO PUSH2 0x4D6 JUMPI DUP8 DUP6 ADD MLOAD PUSH1 0x0 NOT PUSH1 0x3 DUP9 SWAP1 SHL PUSH1 0xF8 AND SHR NOT AND DUP2 SSTORE JUMPDEST POP POP POP POP POP PUSH1 0x1 SWAP1 DUP2 SHL ADD SWAP1 SSTORE POP JUMP JUMPDEST PUSH2 0x43B DUP1 PUSH2 0x4F5 PUSH1 0x0 CODECOPY PUSH1 0x0 RETURN INVALID PUSH1 0x80 PUSH1 0x40 MSTORE CALLVALUE DUP1 ISZERO PUSH2 0x10 JUMPI PUSH1 0x0 DUP1 REVERT JUMPDEST POP PUSH1 0x4 CALLDATASIZE LT PUSH2 0x2B JUMPI PUSH1 0x0 CALLDATALOAD PUSH1 0xE0 SHR DUP1 PUSH4 0x48419DC8 EQ PUSH2 0x30 JUMPI JUMPDEST PUSH1 0x0 DUP1 REVERT JUMPDEST PUSH2 0x43 PUSH2 0x3E CALLDATASIZE PUSH1 0x4 PUSH2 0x1F4 JUMP JUMPDEST PUSH2 0x45 JUMP JUMPDEST STOP JUMPDEST CALLER PUSH1 0x0 SWAP1 DUP2 MSTORE PUSH1 0x1 PUSH1 0x20 MSTORE PUSH1 0x40 DUP2 KECCAK256 PUSH1 0x2 ADD SLOAD PUSH1 0xFF AND PUSH1 0x4 DUP2 GT ISZERO PUSH2 0x6C JUMPI PUSH2 0x6C PUSH2 0x258 JUMP JUMPDEST EQ PUSH2 0xB3 JUMPI PUSH1 0x40 MLOAD PUSH3 0x461BCD PUSH1 0xE5 SHL DUP2 MSTORE PUSH1 0x20 PUSH1 0x4 DUP3 ADD MSTORE PUSH1 0x13 PUSH1 0x24 DUP3 ADD MSTORE PUSH19 0x596F7520726567697374657265642079657421 PUSH1 0x68 SHL PUSH1 0x44 DUP3 ADD MSTORE PUSH1 0x64 ADD PUSH1 0x40 MLOAD DUP1 SWAP2 SUB SWAP1 REVERT JUMPDEST PUSH1 0x40 MLOAD DUP1 PUSH1 0x60 ADD PUSH1 0x40 MSTORE DUP1 DUP4 DUP2 MSTORE PUSH1 0x20 ADD DUP3 PUSH1 0x40 MLOAD PUSH1 0x20 ADD PUSH2 0xD5 SWAP2 SWAP1 PUSH2 0x26E JUMP JUMPDEST PUSH1 0x40 DUP1 MLOAD PUSH1 0x1F NOT DUP2 DUP5 SUB ADD DUP2 MSTORE SWAP2 SWAP1 MSTORE DUP1 MLOAD PUSH1 0x20 SWAP2 DUP3 ADD KECCAK256 DUP3 MSTORE ADD PUSH1 0x1 SWAP1 MSTORE CALLER PUSH1 0x0 SWAP1 DUP2 MSTORE PUSH1 0x1 PUSH1 0x20 MSTORE PUSH1 0x40 SWAP1 KECCAK256 DUP2 MLOAD DUP2 SWAP1 PUSH2 0x111 SWAP1 DUP3 PUSH2 0x345 JUMP JUMPDEST POP PUSH1 0x20 DUP3 ADD MLOAD DUP2 PUSH1 0x1 ADD SSTORE PUSH1 0x40 DUP3 ADD MLOAD DUP2 PUSH1 0x2 ADD PUSH1 0x0 PUSH2 0x100 EXP DUP2 SLOAD DUP2 PUSH1 0xFF MUL NOT AND SWAP1 DUP4 PUSH1 0x4 DUP2 GT ISZERO PUSH2 0x146 JUMPI PUSH2 0x146 PUSH2 0x258 JUMP JUMPDEST MUL OR SWAP1 SSTORE POP POP POP POP POP JUMP JUMPDEST PUSH4 0x4E487B71 PUSH1 0xE0 SHL PUSH1 0x0 MSTORE PUSH1 0x41 PUSH1 0x4 MSTORE PUSH1 0x24 PUSH1 0x0 REVERT JUMPDEST PUSH1 0x0 DUP3 PUSH1 0x1F DUP4 ADD SLT PUSH2 0x178 JUMPI PUSH1 0x0 DUP1 REVERT JUMPDEST DUP2 CALLDATALOAD PUSH8 0xFFFFFFFFFFFFFFFF DUP1 DUP3 GT ISZERO PUSH2 0x193 JUMPI PUSH2 0x193 PUSH2 0x151 JUMP JUMPDEST PUSH1 0x40 MLOAD PUSH1 0x1F DUP4 ADD PUSH1 0x1F NOT SWAP1 DUP2 AND PUSH1 0x3F ADD AND DUP2 ADD SWAP1 DUP3 DUP3 GT DUP2 DUP4 LT OR ISZERO PUSH2 0x1BB JUMPI PUSH2 0x1BB PUSH2 0x151 JUMP JUMPDEST DUP2 PUSH1 0x40 MSTORE DUP4 DUP2 MSTORE DUP7 PUSH1 0x20 DUP6 DUP9 ADD ADD GT ISZERO PUSH2 0x1D4 JUMPI PUSH1 0x0 DUP1 REVERT JUMPDEST DUP4 PUSH1 0x20 DUP8 ADD PUSH1 0x20 DUP4 ADD CALLDATACOPY PUSH1 0x0 PUSH1 0x20 DUP6 DUP4 ADD ADD MSTORE DUP1 SWAP5 POP POP POP POP POP SWAP3 SWAP2 POP POP JUMP JUMPDEST PUSH1 0x0 DUP1 PUSH1 0x40 DUP4 DUP6 SUB SLT ISZERO PUSH2 0x207 JUMPI PUSH1 0x0 DUP1 REVERT JUMPDEST DUP3 CALLDATALOAD PUSH8 0xFFFFFFFFFFFFFFFF DUP1 DUP3 GT ISZERO PUSH2 0x21F JUMPI PUSH1 0x0 DUP1 REVERT JUMPDEST PUSH2 0x22B DUP7 DUP4 DUP8 ADD PUSH2 0x167 JUMP JUMPDEST SWAP4 POP PUSH1 0x20 DUP6 ADD CALLDATALOAD SWAP2 POP DUP1 DUP3 GT ISZERO PUSH2 0x241 JUMPI PUSH1 0x0 DUP1 REVERT JUMPDEST POP PUSH2 0x24E DUP6 DUP3 DUP7 ADD PUSH2 0x167 JUMP JUMPDEST SWAP2 POP POP SWAP3 POP SWAP3 SWAP1 POP JUMP JUMPDEST PUSH4 0x4E487B71 PUSH1 0xE0 SHL PUSH1 0x0 MSTORE PUSH1 0x21 PUSH1 0x4 MSTORE PUSH1 0x24 PUSH1 0x0 REVERT JUMPDEST PUSH1 0x0 PUSH1 0x20 DUP1 DUP4 MSTORE DUP4 MLOAD DUP1 DUP3 DUP6 ADD MSTORE PUSH1 0x0 JUMPDEST DUP2 DUP2 LT ISZERO PUSH2 0x29B JUMPI DUP6 DUP2 ADD DUP4 ADD MLOAD DUP6 DUP3 ADD PUSH1 0x40 ADD MSTORE DUP3 ADD PUSH2 0x27F JUMP JUMPDEST POP PUSH1 0x0 PUSH1 0x40 DUP3 DUP7 ADD ADD MSTORE PUSH1 0x40 PUSH1 0x1F NOT PUSH1 0x1F DUP4 ADD AND DUP6 ADD ADD SWAP3 POP POP POP SWAP3 SWAP2 POP POP JUMP JUMPDEST PUSH1 0x1 DUP2 DUP2 SHR SWAP1 DUP3 AND DUP1 PUSH2 0x2D0 JUMPI PUSH1 0x7F DUP3 AND SWAP2 POP JUMPDEST PUSH1 0x20 DUP3 LT DUP2 SUB PUSH2 0x2F0 JUMPI PUSH4 0x4E487B71 PUSH1 0xE0 SHL PUSH1 0x0 MSTORE PUSH1 0x22 PUSH1 0x4 MSTORE PUSH1 0x24 PUSH1 0x0 REVERT JUMPDEST POP SWAP2 SWAP1 POP JUMP JUMPDEST PUSH1 0x1F DUP3 GT ISZERO PUSH2 0x340 JUMPI PUSH1 0x0 DUP2 DUP2 MSTORE PUSH1 0x20 DUP2 KECCAK256 PUSH1 0x1F DUP6 ADD PUSH1 0x5 SHR DUP2 ADD PUSH1 0x20 DUP7 LT ISZERO PUSH2 0x31D JUMPI POP DUP1 JUMPDEST PUSH1 0x1F DUP6 ADD PUSH1 0x5 SHR DUP3 ADD SWAP2 POP JUMPDEST DUP2 DUP2 LT ISZERO PUSH2 0x33C JUMPI DUP3 DUP2 SSTORE PUSH1 0x1 ADD PUSH2 0x329 JUMP JUMPDEST POP POP POP JUMPDEST POP POP POP JUMP JUMPDEST DUP2 MLOAD PUSH8 0xFFFFFFFFFFFFFFFF DUP2 GT ISZERO PUSH2 0x35F JUMPI PUSH2 0x35F PUSH2 0x151 JUMP JUMPDEST PUSH2 0x373 DUP2 PUSH2 0x36D DUP5 SLOAD PUSH2 0x2BC JUMP JUMPDEST DUP5 PUSH2 0x2F6 JUMP JUMPDEST PUSH1 0x20 DUP1 PUSH1 0x1F DUP4 GT PUSH1 0x1 DUP2 EQ PUSH2 0x3A8 JUMPI PUSH1 0x0 DUP5 ISZERO PUSH2 0x390 JUMPI POP DUP6 DUP4 ADD MLOAD JUMPDEST PUSH1 0x0 NOT PUSH1 0x3 DUP7 SWAP1 SHL SHR NOT AND PUSH1 0x1 DUP6 SWAP1 SHL OR DUP6 SSTORE PUSH2 0x33C JUMP JUMPDEST PUSH1 0x0 DUP6 DUP2 MSTORE PUSH1 0x20 DUP2 KECCAK256 PUSH1 0x1F NOT DUP7 AND SWAP2 JUMPDEST DUP3 DUP2 LT ISZERO PUSH2 0x3D7 JUMPI DUP9 DUP7 ADD MLOAD DUP3 SSTORE SWAP5 DUP5 ADD SWAP5 PUSH1 0x1 SWAP1 SWAP2 ADD SWAP1 DUP5 ADD PUSH2 0x3B8 JUMP JUMPDEST POP DUP6 DUP3 LT ISZERO PUSH2 0x3F5 JUMPI DUP8 DUP6 ADD MLOAD PUSH1 0x0 NOT PUSH1 0x3 DUP9 SWAP1 SHL PUSH1 0xF8 AND SHR NOT AND DUP2 SSTORE JUMPDEST POP POP POP POP POP PUSH1 0x1 SWAP1 DUP2 SHL ADD SWAP1 SSTORE POP JUMP INVALID LOG2 PUSH5 0x6970667358 0x22 SLT KECCAK256 CALLDATASIZE 0x4D 0xEC PUSH7 0xBA2945205907D8 CODECOPY BALANCE EXP 0x2F RETURNDATACOPY CREATE2 ADDRESS COINBASE 0xE2 0xD4 0xF MSTORE CALLDATASIZE 0xD5 CALLVALUE 0xB1 PUSH17 0x64EC9CB464736F6C634300081500336080 PUSH1 0x40 MSTORE PUSH7 0x2AA1EFB94E000 PUSH1 0x6 SSTORE CALLVALUE DUP1 ISZERO PUSH3 0x1C JUMPI PUSH1 0x0 DUP1 REVERT JUMPDEST POP PUSH1 0x40 MLOAD DUP1 PUSH1 0x40 ADD PUSH1 0x40 MSTORE DUP1 PUSH1 0xD DUP2 MSTORE PUSH1 0x20 ADD PUSH13 0x21B93CB83A37A6B7B739BA32B9 PUSH1 0x99 SHL DUP2 MSTORE POP PUSH1 0x40 MLOAD DUP1 PUSH1 0x40 ADD PUSH1 0x40 MSTORE DUP1 PUSH1 0x4 DUP2 MSTORE PUSH1 0x20 ADD PUSH4 0x21A6A7A7 PUSH1 0xE1 SHL DUP2 MSTORE POP DUP2 PUSH1 0x3 SWAP1 DUP2 PUSH3 0x71 SWAP2 SWAP1 PUSH3 0x21C JUMP JUMPDEST POP PUSH1 0x4 PUSH3 0x80 DUP3 DUP3 PUSH3 0x21C JUMP JUMPDEST POP POP PUSH1 0x5 DUP1 SLOAD PUSH1 0x1 PUSH1 0x1 PUSH1 0xA0 SHL SUB NOT AND CALLER SWAP1 DUP2 OR SWAP1 SWAP2 SSTORE PUSH3 0xA7 SWAP2 POP PUSH3 0x989680 PUSH3 0xAD JUMP JUMPDEST PUSH3 0x310 JUMP JUMPDEST PUSH1 0x1 PUSH1 0x1 PUSH1 0xA0 SHL SUB DUP3 AND PUSH3 0x108 JUMPI PUSH1 0x40 MLOAD PUSH3 0x461BCD PUSH1 0xE5 SHL DUP2 MSTORE PUSH1 0x20 PUSH1 0x4 DUP3 ADD MSTORE PUSH1 0x1F PUSH1 0x24 DUP3 ADD MSTORE PUSH32 0x45524332303A206D696E7420746F20746865207A65726F206164647265737300 PUSH1 0x44 DUP3 ADD MSTORE PUSH1 0x64 ADD PUSH1 0x40 MLOAD DUP1 SWAP2 SUB SWAP1 REVERT JUMPDEST DUP1 PUSH1 0x2 PUSH1 0x0 DUP3 DUP3 SLOAD PUSH3 0x11C SWAP2 SWAP1 PUSH3 0x2E8 JUMP JUMPDEST SWAP1 SWAP2 SSTORE POP POP PUSH1 0x1 PUSH1 0x1 PUSH1 0xA0 SHL SUB DUP3 AND PUSH1 0x0 DUP2 DUP2 MSTORE PUSH1 0x20 DUP2 DUP2 MSTORE PUSH1 0x40 DUP1 DUP4 KECCAK256 DUP1 SLOAD DUP7 ADD SWAP1 SSTORE MLOAD DUP5 DUP2 MSTORE PUSH32 0xDDF252AD1BE2C89B69C2B068FC378DAA952BA7F163C4A11628F55A4DF523B3EF SWAP2 ADD PUSH1 0x40 MLOAD DUP1 SWAP2 SUB SWAP1 LOG3 POP POP JUMP JUMPDEST POP POP POP JUMP JUMPDEST PUSH4 0x4E487B71 PUSH1 0xE0 SHL PUSH1 0x0 MSTORE PUSH1 0x41 PUSH1 0x4 MSTORE PUSH1 0x24 PUSH1 0x0 REVERT JUMPDEST PUSH1 0x1 DUP2 DUP2 SHR SWAP1 DUP3 AND DUP1 PUSH3 0x1A3 JUMPI PUSH1 0x7F DUP3 AND SWAP2 POP JUMPDEST PUSH1 0x20 DUP3 LT DUP2 SUB PUSH3 0x1C4 JUMPI PUSH4 0x4E487B71 PUSH1 0xE0 SHL PUSH1 0x0 MSTORE PUSH1 0x22 PUSH1 0x4 MSTORE PUSH1 0x24 PUSH1 0x0 REVERT JUMPDEST POP SWAP2 SWAP1 POP JUMP JUMPDEST PUSH1 0x1F DUP3 GT ISZERO PUSH3 0x173 JUMPI PUSH1 0x0 DUP2 DUP2 MSTORE PUSH1 0x20 DUP2 KECCAK256 PUSH1 0x1F DUP6 ADD PUSH1 0x5 SHR DUP2 ADD PUSH1 0x20 DUP7 LT ISZERO PUSH3 0x1F3 JUMPI POP DUP1 JUMPDEST PUSH1 0x1F DUP6 ADD PUSH1 0x5 SHR DUP3 ADD SWAP2 POP JUMPDEST DUP2 DUP2 LT ISZERO PUSH3 0x214 JUMPI DUP3 DUP2 SSTORE PUSH1 0x1 ADD PUSH3 0x1FF JUMP JUMPDEST POP POP POP POP POP POP JUMP JUMPDEST DUP2 MLOAD PUSH1 0x1 PUSH1 0x1 PUSH1 0x40 SHL SUB DUP2 GT ISZERO PUSH3 0x238 JUMPI PUSH3 0x238 PUSH3 0x178 JUMP JUMPDEST PUSH3 0x250 DUP2 PUSH3 0x249 DUP5 SLOAD PUSH3 0x18E JUMP JUMPDEST DUP5 PUSH3 0x1CA JUMP JUMPDEST PUSH1 0x20 DUP1 PUSH1 0x1F DUP4 GT PUSH1 0x1 DUP2 EQ PUSH3 0x288 JUMPI PUSH1 0x0 DUP5 ISZERO PUSH3 0x26F JUMPI POP DUP6 DUP4 ADD MLOAD JUMPDEST PUSH1 0x0 NOT PUSH1 0x3 DUP7 SWAP1 SHL SHR NOT AND PUSH1 0x1 DUP6 SWAP1 SHL OR DUP6 SSTORE PUSH3 0x214 JUMP JUMPDEST PUSH1 0x0 DUP6 DUP2 MSTORE PUSH1 0x20 DUP2 KECCAK256 PUSH1 0x1F NOT DUP7 AND SWAP2 JUMPDEST DUP3 DUP2 LT ISZERO PUSH3 0x2B9 JUMPI DUP9 DUP7 ADD MLOAD DUP3 SSTORE SWAP5 DUP5 ADD SWAP5 PUSH1 0x1 SWAP1 SWAP2 ADD SWAP1 DUP5 ADD PUSH3 0x298 JUMP JUMPDEST POP DUP6 DUP3 LT ISZERO PUSH3 0x2D8 JUMPI DUP8 DUP6 ADD MLOAD PUSH1 0x0 NOT PUSH1 0x3 DUP9 SWAP1 SHL PUSH1 0xF8 AND SHR NOT AND DUP2 SSTORE JUMPDEST POP POP POP POP POP PUSH1 0x1 SWAP1 DUP2 SHL ADD SWAP1 SSTORE POP JUMP JUMPDEST DUP1 DUP3 ADD DUP1 DUP3 GT ISZERO PUSH3 0x30A JUMPI PUSH4 0x4E487B71 PUSH1 0xE0 SHL PUSH1 0x0 MSTORE PUSH1 0x11 PUSH1 0x4 MSTORE PUSH1 0x24 PUSH1 0x0 REVERT JUMPDEST SWAP3 SWAP2 POP POP JUMP JUMPDEST PUSH2 0x8D8 DUP1 PUSH3 0x320 PUSH1 0x0 CODECOPY PUSH1 0x0 RETURN INVALID PUSH1 0x80 PUSH1 0x40 MSTORE CALLVALUE DUP1 ISZERO PUSH2 0x10 JUMPI PUSH1 0x0 DUP1 REVERT JUMPDEST POP PUSH1 0x4 CALLDATASIZE LT PUSH2 0xEA JUMPI PUSH1 0x0 CALLDATALOAD PUSH1 0xE0 SHR DUP1 PUSH4 0x8DA5CB5B GT PUSH2 0x8C JUMPI DUP1 PUSH4 0xA457C2D7 GT PUSH2 0x66 JUMPI DUP1 PUSH4 0xA457C2D7 EQ PUSH2 0x1E4 JUMPI DUP1 PUSH4 0xA9059CBB EQ PUSH2 0x1F7 JUMPI DUP1 PUSH4 0xDD62ED3E EQ PUSH2 0x20A JUMPI DUP1 PUSH4 0xFF13B049 EQ PUSH2 0x21D JUMPI PUSH1 0x0 DUP1 REVERT JUMPDEST DUP1 PUSH4 0x8DA5CB5B EQ PUSH2 0x1A0 JUMPI DUP1 PUSH4 0x94A927FE EQ PUSH2 0x1CB JUMPI DUP1 PUSH4 0x95D89B41 EQ PUSH2 0x1DC JUMPI PUSH1 0x0 DUP1 REVERT JUMPDEST DUP1 PUSH4 0x23B872DD GT PUSH2 0xC8 JUMPI DUP1 PUSH4 0x23B872DD EQ PUSH2 0x142 JUMPI DUP1 PUSH4 0x313CE567 EQ PUSH2 0x155 JUMPI DUP1 PUSH4 0x39509351 EQ PUSH2 0x164 JUMPI DUP1 PUSH4 0x70A08231 EQ PUSH2 0x177 JUMPI PUSH1 0x0 DUP1 REVERT JUMPDEST DUP1 PUSH4 0x6FDDE03 EQ PUSH2 0xEF JUMPI DUP1 PUSH4 0x95EA7B3 EQ PUSH2 0x10D JUMPI DUP1 PUSH4 0x18160DDD EQ PUSH2 0x130 JUMPI JUMPDEST PUSH1 0x0 DUP1 REVERT JUMPDEST PUSH2 0xF7 PUSH2 0x226 JUMP JUMPDEST PUSH1 0x40 MLOAD PUSH2 0x104 SWAP2 SWAP1 PUSH2 0x722 JUMP JUMPDEST PUSH1 0x40 MLOAD DUP1 SWAP2 SUB SWAP1 RETURN JUMPDEST PUSH2 0x120 PUSH2 0x11B CALLDATASIZE PUSH1 0x4 PUSH2 0x78C JUMP JUMPDEST PUSH2 0x2B8 JUMP JUMPDEST PUSH1 0x40 MLOAD SWAP1 ISZERO ISZERO DUP2 MSTORE PUSH1 0x20 ADD PUSH2 0x104 JUMP JUMPDEST PUSH1 0x2 SLOAD JUMPDEST PUSH1 0x40 MLOAD SWAP1 DUP2 MSTORE PUSH1 0x20 ADD PUSH2 0x104 JUMP JUMPDEST PUSH2 0x120 PUSH2 0x150 CALLDATASIZE PUSH1 0x4 PUSH2 0x7B6 JUMP JUMPDEST PUSH2 0x2D2 JUMP JUMPDEST PUSH1 0x40 MLOAD PUSH1 0xC DUP2 MSTORE PUSH1 0x20 ADD PUSH2 0x104 JUMP JUMPDEST PUSH2 0x120 PUSH2 0x172 CALLDATASIZE PUSH1 0x4 PUSH2 0x78C JUMP JUMPDEST PUSH2 0x2F6 JUMP JUMPDEST PUSH2 0x134 PUSH2 0x185 CALLDATASIZE PUSH1 0x4 PUSH2 0x7F2 JUMP JUMPDEST PUSH1 0x1 PUSH1 0x1 PUSH1 0xA0 SHL SUB AND PUSH1 0x0 SWAP1 DUP2 MSTORE PUSH1 0x20 DUP2 SWAP1 MSTORE PUSH1 0x40 SWAP1 KECCAK256 SLOAD SWAP1 JUMP JUMPDEST PUSH1 0x5 SLOAD PUSH2 0x1B3 SWAP1 PUSH1 0x1 PUSH1 0x1 PUSH1 0xA0 SHL SUB AND DUP2 JUMP JUMPDEST PUSH1 0x40 MLOAD PUSH1 0x1 PUSH1 0x1 PUSH1 0xA0 SHL SUB SWAP1 SWAP2 AND DUP2 MSTORE PUSH1 0x20 ADD PUSH2 0x104 JUMP JUMPDEST PUSH1 0x5 SLOAD PUSH1 0x1 PUSH1 0x1 PUSH1 0xA0 SHL SUB AND PUSH2 0x1B3 JUMP JUMPDEST PUSH2 0xF7 PUSH2 0x318 JUMP JUMPDEST PUSH2 0x120 PUSH2 0x1F2 CALLDATASIZE PUSH1 0x4 PUSH2 0x78C JUMP JUMPDEST PUSH2 0x327 JUMP JUMPDEST PUSH2 0x120 PUSH2 0x205 CALLDATASIZE PUSH1 0x4 PUSH2 0x78C JUMP JUMPDEST PUSH2 0x3A7 JUMP JUMPDEST PUSH2 0x134 PUSH2 0x218 CALLDATASIZE PUSH1 0x4 PUSH2 0x814 JUMP JUMPDEST PUSH2 0x3B5 JUMP JUMPDEST PUSH2 0x134 PUSH1 0x6 SLOAD DUP2 JUMP JUMPDEST PUSH1 0x60 PUSH1 0x3 DUP1 SLOAD PUSH2 0x235 SWAP1 PUSH2 0x847 JUMP JUMPDEST DUP1 PUSH1 0x1F ADD PUSH1 0x20 DUP1 SWAP2 DIV MUL PUSH1 0x20 ADD PUSH1 0x40 MLOAD SWAP1 DUP2 ADD PUSH1 0x40 MSTORE DUP1 SWAP3 SWAP2 SWAP1 DUP2 DUP2 MSTORE PUSH1 0x20 ADD DUP3 DUP1 SLOAD PUSH2 0x261 SWAP1 PUSH2 0x847 JUMP JUMPDEST DUP1 ISZERO PUSH2 0x2AE JUMPI DUP1 PUSH1 0x1F LT PUSH2 0x283 JUMPI PUSH2 0x100 DUP1 DUP4 SLOAD DIV MUL DUP4 MSTORE SWAP2 PUSH1 0x20 ADD SWAP2 PUSH2 0x2AE JUMP JUMPDEST DUP3 ADD SWAP2 SWAP1 PUSH1 0x0 MSTORE PUSH1 0x20 PUSH1 0x0 KECCAK256 SWAP1 JUMPDEST DUP2 SLOAD DUP2 MSTORE SWAP1 PUSH1 0x1 ADD SWAP1 PUSH1 0x20 ADD DUP1 DUP4 GT PUSH2 0x291 JUMPI DUP3 SWAP1 SUB PUSH1 0x1F AND DUP3 ADD SWAP2 JUMPDEST POP POP POP POP POP SWAP1 POP SWAP1 JUMP JUMPDEST PUSH1 0x0 CALLER PUSH2 0x2C6 DUP2 DUP6 DUP6 PUSH2 0x3E0 JUMP JUMPDEST PUSH1 0x1 SWAP2 POP POP JUMPDEST SWAP3 SWAP2 POP POP JUMP JUMPDEST PUSH1 0x0 CALLER PUSH2 0x2E0 DUP6 DUP3 DUP6 PUSH2 0x504 JUMP JUMPDEST PUSH2 0x2EB DUP6 DUP6 DUP6 PUSH2 0x57E JUMP JUMPDEST POP PUSH1 0x1 SWAP5 SWAP4 POP POP POP POP JUMP JUMPDEST PUSH1 0x0 CALLER PUSH2 0x2C6 DUP2 DUP6 DUP6 PUSH2 0x309 DUP4 DUP4 PUSH2 0x3B5 JUMP JUMPDEST PUSH2 0x313 SWAP2 SWAP1 PUSH2 0x881 JUMP JUMPDEST PUSH2 0x3E0 JUMP JUMPDEST PUSH1 0x60 PUSH1 0x4 DUP1 SLOAD PUSH2 0x235 SWAP1 PUSH2 0x847 JUMP JUMPDEST PUSH1 0x0 CALLER DUP2 PUSH2 0x335 DUP3 DUP7 PUSH2 0x3B5 JUMP JUMPDEST SWAP1 POP DUP4 DUP2 LT ISZERO PUSH2 0x39A JUMPI PUSH1 0x40 MLOAD PUSH3 0x461BCD PUSH1 0xE5 SHL DUP2 MSTORE PUSH1 0x20 PUSH1 0x4 DUP3 ADD MSTORE PUSH1 0x25 PUSH1 0x24 DUP3 ADD MSTORE PUSH32 0x45524332303A2064656372656173656420616C6C6F77616E63652062656C6F77 PUSH1 0x44 DUP3 ADD MSTORE PUSH5 0x207A65726F PUSH1 0xD8 SHL PUSH1 0x64 DUP3 ADD MSTORE PUSH1 0x84 ADD JUMPDEST PUSH1 0x40 MLOAD DUP1 SWAP2 SUB SWAP1 REVERT JUMPDEST PUSH2 0x2EB DUP3 DUP7 DUP7 DUP5 SUB PUSH2 0x3E0 JUMP JUMPDEST PUSH1 0x0 CALLER PUSH2 0x2C6 DUP2 DUP6 DUP6 PUSH2 0x57E JUMP JUMPDEST PUSH1 0x1 PUSH1 0x1 PUSH1 0xA0 SHL SUB SWAP2 DUP3 AND PUSH1 0x0 SWAP1 DUP2 MSTORE PUSH1 0x1 PUSH1 0x20 SWAP1 DUP2 MSTORE PUSH1 0x40 DUP1 DUP4 KECCAK256 SWAP4 SWAP1 SWAP5 AND DUP3 MSTORE SWAP2 SWAP1 SWAP2 MSTORE KECCAK256 SLOAD SWAP1 JUMP JUMPDEST PUSH1 0x1 PUSH1 0x1 PUSH1 0xA0 SHL SUB DUP4 AND PUSH2 0x442 JUMPI PUSH1 0x40 MLOAD PUSH3 0x461BCD PUSH1 0xE5 SHL DUP2 MSTORE PUSH1 0x20 PUSH1 0x4 DUP3 ADD MSTORE PUSH1 0x24 DUP1 DUP3 ADD MSTORE PUSH32 0x45524332303A20617070726F76652066726F6D20746865207A65726F20616464 PUSH1 0x44 DUP3 ADD MSTORE PUSH4 0x72657373 PUSH1 0xE0 SHL PUSH1 0x64 DUP3 ADD MSTORE PUSH1 0x84 ADD PUSH2 0x391 JUMP JUMPDEST PUSH1 0x1 PUSH1 0x1 PUSH1 0xA0 SHL SUB DUP3 AND PUSH2 0x4A3 JUMPI PUSH1 0x40 MLOAD PUSH3 0x461BCD PUSH1 0xE5 SHL DUP2 MSTORE PUSH1 0x20 PUSH1 0x4 DUP3 ADD MSTORE PUSH1 0x22 PUSH1 0x24 DUP3 ADD MSTORE PUSH32 0x45524332303A20617070726F766520746F20746865207A65726F206164647265 PUSH1 0x44 DUP3 ADD MSTORE PUSH2 0x7373 PUSH1 0xF0 SHL PUSH1 0x64 DUP3 ADD MSTORE PUSH1 0x84 ADD PUSH2 0x391 JUMP JUMPDEST PUSH1 0x1 PUSH1 0x1 PUSH1 0xA0 SHL SUB DUP4 DUP2 AND PUSH1 0x0 DUP2 DUP2 MSTORE PUSH1 0x1 PUSH1 0x20 SWAP1 DUP2 MSTORE PUSH1 0x40 DUP1 DUP4 KECCAK256 SWAP5 DUP8 AND DUP1 DUP5 MSTORE SWAP5 DUP3 MSTORE SWAP2 DUP3 SWAP1 KECCAK256 DUP6 SWAP1 SSTORE SWAP1 MLOAD DUP5 DUP2 MSTORE PUSH32 0x8C5BE1E5EBEC7D5BD14F71427D1E84F3DD0314C0F7B2291E5B200AC8C7C3B925 SWAP2 ADD PUSH1 0x40 MLOAD DUP1 SWAP2 SUB SWAP1 LOG3 POP POP POP JUMP JUMPDEST PUSH1 0x0 PUSH2 0x510 DUP5 DUP5 PUSH2 0x3B5 JUMP JUMPDEST SWAP1 POP PUSH1 0x0 NOT DUP2 EQ PUSH2 0x578 JUMPI DUP2 DUP2 LT ISZERO PUSH2 0x56B JUMPI PUSH1 0x40 MLOAD PUSH3 0x461BCD PUSH1 0xE5 SHL DUP2 MSTORE PUSH1 0x20 PUSH1 0x4 DUP3 ADD MSTORE PUSH1 0x1D PUSH1 0x24 DUP3 ADD MSTORE PUSH32 0x45524332303A20696E73756666696369656E7420616C6C6F77616E6365000000 PUSH1 0x44 DUP3 ADD MSTORE PUSH1 0x64 ADD PUSH2 0x391 JUMP JUMPDEST PUSH2 0x578 DUP5 DUP5 DUP5 DUP5 SUB PUSH2 0x3E0 JUMP JUMPDEST POP POP POP POP JUMP JUMPDEST PUSH1 0x1 PUSH1 0x1 PUSH1 0xA0 SHL SUB DUP4 AND PUSH2 0x5E2 JUMPI PUSH1 0x40 MLOAD PUSH3 0x461BCD PUSH1 0xE5 SHL DUP2 MSTORE PUSH1 0x20 PUSH1 0x4 DUP3 ADD MSTORE PUSH1 0x25 PUSH1 0x24 DUP3 ADD MSTORE PUSH32 0x45524332303A207472616E736665722066726F6D20746865207A65726F206164 PUSH1 0x44 DUP3 ADD MSTORE PUSH5 0x6472657373 PUSH1 0xD8 SHL PUSH1 0x64 DUP3 ADD MSTORE PUSH1 0x84 ADD PUSH2 0x391 JUMP JUMPDEST PUSH1 0x1 PUSH1 0x1 PUSH1 0xA0 SHL SUB DUP3 AND PUSH2 0x644 JUMPI PUSH1 0x40 MLOAD PUSH3 0x461BCD PUSH1 0xE5 SHL DUP2 MSTORE PUSH1 0x20 PUSH1 0x4 DUP3 ADD MSTORE PUSH1 0x23 PUSH1 0x24 DUP3 ADD MSTORE PUSH32 0x45524332303A207472616E7366657220746F20746865207A65726F2061646472 PUSH1 0x44 DUP3 ADD MSTORE PUSH3 0x657373 PUSH1 0xE8 SHL PUSH1 0x64 DUP3 ADD MSTORE PUSH1 0x84 ADD PUSH2 0x391 JUMP JUMPDEST PUSH1 0x1 PUSH1 0x1 PUSH1 0xA0 SHL SUB DUP4 AND PUSH1 0x0 SWAP1 DUP2 MSTORE PUSH1 0x20 DUP2 SWAP1 MSTORE PUSH1 0x40 SWAP1 KECCAK256 SLOAD DUP2 DUP2 LT ISZERO PUSH2 0x6BC JUMPI PUSH1 0x40 MLOAD PUSH3 0x461BCD PUSH1 0xE5 SHL DUP2 MSTORE PUSH1 0x20 PUSH1 0x4 DUP3 ADD MSTORE PUSH1 0x26 PUSH1 0x24 DUP3 ADD MSTORE PUSH32 0x45524332303A207472616E7366657220616D6F756E7420657863656564732062 PUSH1 0x44 DUP3 ADD MSTORE PUSH6 0x616C616E6365 PUSH1 0xD0 SHL PUSH1 0x64 DUP3 ADD MSTORE PUSH1 0x84 ADD PUSH2 0x391 JUMP JUMPDEST PUSH1 0x1 PUSH1 0x1 PUSH1 0xA0 SHL SUB DUP5 DUP2 AND PUSH1 0x0 DUP2 DUP2 MSTORE PUSH1 0x20 DUP2 DUP2 MSTORE PUSH1 0x40 DUP1 DUP4 KECCAK256 DUP8 DUP8 SUB SWAP1 SSTORE SWAP4 DUP8 AND DUP1 DUP4 MSTORE SWAP2 DUP5 SWAP1 KECCAK256 DUP1 SLOAD DUP8 ADD SWAP1 SSTORE SWAP3 MLOAD DUP6 DUP2 MSTORE SWAP1 SWAP3 PUSH32 0xDDF252AD1BE2C89B69C2B068FC378DAA952BA7F163C4A11628F55A4DF523B3EF SWAP2 ADD PUSH1 0x40 MLOAD DUP1 SWAP2 SUB SWAP1 LOG3 PUSH2 0x578 JUMP JUMPDEST PUSH1 0x0 PUSH1 0x20 DUP1 DUP4 MSTORE DUP4 MLOAD DUP1 DUP3 DUP6 ADD MSTORE PUSH1 0x0 JUMPDEST DUP2 DUP2 LT ISZERO PUSH2 0x74F JUMPI DUP6 DUP2 ADD DUP4 ADD MLOAD DUP6 DUP3 ADD PUSH1 0x40 ADD MSTORE DUP3 ADD PUSH2 0x733 JUMP JUMPDEST POP PUSH1 0x0 PUSH1 0x40 DUP3 DUP7 ADD ADD MSTORE PUSH1 0x40 PUSH1 0x1F NOT PUSH1 0x1F DUP4 ADD AND DUP6 ADD ADD SWAP3 POP POP POP SWAP3 SWAP2 POP POP JUMP JUMPDEST DUP1 CALLDATALOAD PUSH1 0x1 PUSH1 0x1 PUSH1 0xA0 SHL SUB DUP2 AND DUP2 EQ PUSH2 0x787 JUMPI PUSH1 0x0 DUP1 REVERT JUMPDEST SWAP2 SWAP1 POP JUMP JUMPDEST PUSH1 0x0 DUP1 PUSH1 0x40 DUP4 DUP6 SUB SLT ISZERO PUSH2 0x79F JUMPI PUSH1 0x0 DUP1 REVERT JUMPDEST PUSH2 0x7A8 DUP4 PUSH2 0x770 JUMP JUMPDEST SWAP5 PUSH1 0x20 SWAP4 SWAP1 SWAP4 ADD CALLDATALOAD SWAP4 POP POP POP JUMP JUMPDEST PUSH1 0x0 DUP1 PUSH1 0x0 PUSH1 0x60 DUP5 DUP7 SUB SLT ISZERO PUSH2 0x7CB JUMPI PUSH1 0x0 DUP1 REVERT JUMPDEST PUSH2 0x7D4 DUP5 PUSH2 0x770 JUMP JUMPDEST SWAP3 POP PUSH2 0x7E2 PUSH1 0x20 DUP6 ADD PUSH2 0x770 JUMP JUMPDEST SWAP2 POP PUSH1 0x40 DUP5 ADD CALLDATALOAD SWAP1 POP SWAP3 POP SWAP3 POP SWAP3 JUMP JUMPDEST PUSH1 0x0 PUSH1 0x20 DUP3 DUP5 SUB SLT ISZERO PUSH2 0x804 JUMPI PUSH1 0x0 DUP1 REVERT JUMPDEST PUSH2 0x80D DUP3 PUSH2 0x770 JUMP JUMPDEST SWAP4 SWAP3 POP POP POP JUMP JUMPDEST PUSH1 0x0 DUP1 PUSH1 0x40 DUP4 DUP6 SUB SLT ISZERO PUSH2 0x827 JUMPI PUSH1 0x0 DUP1 REVERT JUMPDEST PUSH2 0x830 DUP4 PUSH2 0x770 JUMP JUMPDEST SWAP2 POP PUSH2 0x83E PUSH1 0x20 DUP5 ADD PUSH2 0x770 JUMP JUMPDEST SWAP1 POP SWAP3 POP SWAP3 SWAP1 POP JUMP JUMPDEST PUSH1 0x1 DUP2 DUP2 SHR SWAP1 DUP3 AND DUP1 PUSH2 0x85B JUMPI PUSH1 0x7F DUP3 AND SWAP2 POP JUMPDEST PUSH1 0x20 DUP3 LT DUP2 SUB PUSH2 0x87B JUMPI PUSH4 0x4E487B71 PUSH1 0xE0 SHL PUSH1 0x0 MSTORE PUSH1 0x22 PUSH1 0x4 MSTORE PUSH1 0x24 PUSH1 0x0 REVERT JUMPDEST POP SWAP2 SWAP1 POP JUMP JUMPDEST DUP1 DUP3 ADD DUP1 DUP3 GT ISZERO PUSH2 0x2CC JUMPI PUSH4 0x4E487B71 PUSH1 0xE0 SHL PUSH1 0x0 MSTORE PUSH1 0x11 PUSH1 0x4 MSTORE PUSH1 0x24 PUSH1 0x0 REVERT INVALID LOG2 PUSH5 0x6970667358 0x22 SLT KECCAK256 0xCC PUSH31 0x4F818469422BE638D3F0B47416E0D072EF4F8609C3DA915BF0CAE3599DB564 PUSH20 0x6F6C634300081500330000000000000000000000 "
				},
				"gasEstimates": {
					"creation": {
						"codeDepositCost": "216600",
						"executionCost": "infinite",
						"totalCost": "infinite"
					},
					"external": {
						"registration(string,string)": "infinite"
					}
				},
				"methodIdentifiers": {
					"registration(string,string)": "48419dc8"
				}
			},
			"storageLayout": {
				"storage": [
					{
						"astId": 736,
						"contract": "CMONProject.sol:LaunchSystem",
						"label": "CMON",
						"offset": 0,
						"slot": "0",
						"type": "t_contract(CryptoMonster)893"
					},
					{
						"astId": 741,
						"contract": "CMONProject.sol:LaunchSystem",
						"label": "registeredUsers",
						"offset": 0,
						"slot": "1",
						"type": "t_mapping(t_address,t_struct(User)729_storage)"
					}
				],
				"types": {
					"t_address": {
						"encoding": "inplace",
						"label": "address",
						"numberOfBytes": "20"
					},
					"t_bytes32": {
						"encoding": "inplace",
						"label": "bytes32",
						"numberOfBytes": "32"
					},
					"t_contract(CryptoMonster)893": {
						"encoding": "inplace",
						"label": "contract CryptoMonster",
						"numberOfBytes": "20"
					},
					"t_enum(Roles)721": {
						"encoding": "inplace",
						"label": "enum LaunchSystem.Roles",
						"numberOfBytes": "1"
					},
					"t_mapping(t_address,t_struct(User)729_storage)": {
						"encoding": "mapping",
						"key": "t_address",
						"label": "mapping(address => struct LaunchSystem.User)",
						"numberOfBytes": "32",
						"value": "t_struct(User)729_storage"
					},
					"t_string_storage": {
						"encoding": "bytes",
						"label": "string",
						"numberOfBytes": "32"
					},
					"t_struct(User)729_storage": {
						"encoding": "inplace",
						"label": "struct LaunchSystem.User",
						"members": [
							{
								"astId": 723,
								"contract": "CMONProject.sol:LaunchSystem",
								"label": "name",
								"offset": 0,
								"slot": "0",
								"type": "t_string_storage"
							},
							{
								"astId": 725,
								"contract": "CMONProject.sol:LaunchSystem",
								"label": "password",
								"offset": 0,
								"slot": "1",
								"type": "t_bytes32"
							},
							{
								"astId": 728,
								"contract": "CMONProject.sol:LaunchSystem",
								"label": "role",
								"offset": 0,
								"slot": "2",
								"type": "t_enum(Roles)721"
							}
						],
						"numberOfBytes": "96"
					}
				}
			},
			"userdoc": {
				"kind": "user",
				"methods": {},
				"version": 1
			}
		}
	}
}