{
	"data": {
		"bytecode": {
			"linkReferences": {},
			"object": "60806040523480156200001157600080fd5b5033600960006101000a81548173ffffffffffffffffffffffffffffffffffffffff021916908373ffffffffffffffffffffffffffffffffffffffff1602179055506003604051806060016040528060018152602001735b38da6a701c568545dcfcb03fcb875f56beddc473ffffffffffffffffffffffffffffffffffffffff1681526020016040518060400160405280600881526020017f636974696c696e6b00000000000000000000000000000000000000000000000081525081525090806001815401808255809150506001900390600052602060002090600302016000909190919091506000820151816000015560208201518160010160006101000a81548173ffffffffffffffffffffffffffffffffffffffff021916908373ffffffffffffffffffffffffffffffffffffffff1602179055506040820151816002019081620001619190620008d9565b505050600360405180606001604052806002815260200173583031d1113ad414f02576bd6afabfb30214022573ffffffffffffffffffffffffffffffffffffffff1681526020016040518060400160405280600781526020017f4d2e766964656f0000000000000000000000000000000000000000000000000081525081525090806001815401808255809150506001900390600052602060002090600302016000909190919091506000820151816000015560208201518160010160006101000a81548173ffffffffffffffffffffffffffffffffffffffff021916908373ffffffffffffffffffffffffffffffffffffffff1602179055506040820151816002019081620002729190620008d9565b5050506004604051806060016040528060018152602001670de0b6b3a764000081526020016064815250908060018154018082558091505060019003906000526020600020906003020160009091909190915060008201518160000155602082015181600101556040820151816002015550506001604051806080016040528060046000815481106200030a5762000309620009c0565b5b90600052602060002090600302016000015481526020016001815260200160026004600081548110620003425762000341620009c0565b5b90600052602060002090600302016001015462000360919062000a1e565b81526020016014815250908060018154018082558091505060019003906000526020600020906004020160009091909190915060008201518160000155602082015181600101556040820151816002015560608201518160030155505060026040518060800160405280600181526020016040518060400160405280600681526020017f536872696d70000000000000000000000000000000000000000000000000000081525081526020016040518060400160405280600681526020017f44657363722e0000000000000000000000000000000000000000000000000000815250815260200160058152509080600181540180825580915050600190039060005260206000209060040201600090919091909150600082015181600001556020820151816001019081620004969190620008d9565b506040820151816002019081620004ae9190620008d9565b50606082015181600301555050600060405180606001604052806040518060400160405280600381526020017f444e530000000000000000000000000000000000000000000000000000000000815250815260200173dd870fa1b7c4700f2bd7f44238821c26f739214873ffffffffffffffffffffffffffffffffffffffff168152602001600081525090806001815401808255809150506001900390600052602060002090600302016000909190919091506000820151816000019081620005789190620008d9565b5060208201518160010160006101000a81548173ffffffffffffffffffffffffffffffffffffffff021916908373ffffffffffffffffffffffffffffffffffffffff16021790555060408201518160020155505060006013600080600081548110620005e957620005e8620009c0565b5b906000526020600020906003020160010160009054906101000a900473ffffffffffffffffffffffffffffffffffffffff1673ffffffffffffffffffffffffffffffffffffffff1673ffffffffffffffffffffffffffffffffffffffff1681526020019081526020016000208190555062000a69565b600081519050919050565b7f4e487b7100000000000000000000000000000000000000000000000000000000600052604160045260246000fd5b7f4e487b7100000000000000000000000000000000000000000000000000000000600052602260045260246000fd5b60006002820490506001821680620006e157607f821691505b602082108103620006f757620006f662000699565b5b50919050565b60008190508160005260206000209050919050565b60006020601f8301049050919050565b600082821b905092915050565b600060088302620007617fffffffffffffffffffffffffffffffffffffffffffffffffffffffffffffffff8262000722565b6200076d868362000722565b95508019841693508086168417925050509392505050565b6000819050919050565b6000819050919050565b6000620007ba620007b4620007ae8462000785565b6200078f565b62000785565b9050919050565b6000819050919050565b620007d68362000799565b620007ee620007e582620007c1565b8484546200072f565b825550505050565b600090565b62000805620007f6565b62000812818484620007cb565b505050565b5b818110156200083a576200082e600082620007fb565b60018101905062000818565b5050565b601f82111562000889576200085381620006fd565b6200085e8462000712565b810160208510156200086e578190505b620008866200087d8562000712565b83018262000817565b50505b505050565b600082821c905092915050565b6000620008ae600019846008026200088e565b1980831691505092915050565b6000620008c983836200089b565b9150826002028217905092915050565b620008e4826200065f565b67ffffffffffffffff8111156200090057620008ff6200066a565b5b6200090c8254620006c8565b620009198282856200083e565b600060209050601f8311600181146200095157600084156200093c578287015190505b620009488582620008bb565b865550620009b8565b601f1984166200096186620006fd565b60005b828110156200098b5784890151825560018201915060208501945060208101905062000964565b86831015620009ab5784890151620009a7601f8916826200089b565b8355505b6001600288020188555050505b505050505050565b7f4e487b7100000000000000000000000000000000000000000000000000000000600052603260045260246000fd5b7f4e487b7100000000000000000000000000000000000000000000000000000000600052601160045260246000fd5b600062000a2b8262000785565b915062000a388362000785565b925082820262000a488162000785565b9150828204841483151762000a625762000a61620009ef565b5b5092915050565b615eaf8062000a796000396000f3fe60806040526004361061009c5760003560e01c8063d2cedf0411610064578063d2cedf0414610142578063d9bd29d41461015e578063db9c557114610187578063dd26d4d9146101b0578063df8903d8146101cc578063eb277cf9146101e85761009c565b806362cc01e7146100a1578063ab166be6146100bd578063b107cbce146100d9578063bf6c0b4814610102578063d0ccd2131461012b575b600080fd5b6100bb60048036038101906100b6919061448e565b610211565b005b6100d760048036038101906100d29190614506565b6106be565b005b3480156100e557600080fd5b5061010060048036038101906100fb919061457c565b610b1f565b005b34801561010e57600080fd5b506101296004803603810190610124919061461a565b610cef565b005b34801561013757600080fd5b50610140611003565b005b61015c60048036038101906101579190614647565b611259565b005b34801561016a57600080fd5b50610185600480360381019061018091906147df565b61146e565b005b34801561019357600080fd5b506101ae60048036038101906101a9919061483b565b6115e2565b005b6101ca60048036038101906101c591906148be565b611eb4565b005b6101e660048036038101906101e19190614911565b612203565b005b3480156101f457600080fd5b5061020f600480360381019061020a9190614647565b612a97565b005b6000805b6000805490508110156102b2573373ffffffffffffffffffffffffffffffffffffffff166000828154811061024d5761024c614964565b5b906000526020600020906003020160010160009054906101000a900473ffffffffffffffffffffffffffffffffffffffff1673ffffffffffffffffffffffffffffffffffffffff160361029f57600191505b80806102aa906149c2565b915050610215565b5060011515811515146102fa576040517f08c379a00000000000000000000000000000000000000000000000000000000081526004016102f190614a67565b60405180910390fd5b826006805490508110610342576040517f08c379a000000000000000000000000000000000000000000000000000000000815260040161033990614af9565b60405180910390fd5b346006858154811061035757610356614964565b5b90600052602060002090600802016004015460016006878154811061037f5761037e614964565b5b906000526020600020906008020160030154815481106103a2576103a1614964565b5b9060005260206000209060040201600201546103be9190614b19565b11156103ff576040517f08c379a00000000000000000000000000000000000000000000000000000000081526004016103f690614bcd565b60405180910390fd5b6000601660003373ffffffffffffffffffffffffffffffffffffffff1673ffffffffffffffffffffffffffffffffffffffff1681526020019081526020016000208054806020026020016040519081016040528092919081815260200182805480156104c057602002820191906000526020600020905b8160009054906101000a900473ffffffffffffffffffffffffffffffffffffffff1673ffffffffffffffffffffffffffffffffffffffff1681526020019060010190808311610476575b505050505090506000600686815481106104dd576104dc614964565b5b90600052602060002090600802016001015490506004600581111561050557610504614bed565b5b6006878154811061051957610518614964565b5b906000526020600020906008020160060160009054906101000a900460ff16600581111561054a57610549614bed565b5b1461058a576040517f08c379a000000000000000000000000000000000000000000000000000000000815260040161058190614c68565b60405180910390fd5b81818151811061059d5761059c614964565b5b602002602001015173ffffffffffffffffffffffffffffffffffffffff166108fc600e549081150290604051600060405180830381858888f193505050501580156105ec573d6000803e3d6000fd5b5060056006878154811061060357610602614964565b5b906000526020600020906008020160060160006101000a81548160ff0219169083600581111561063657610635614bed565b5b021790555081818151811061064e5761064d614964565b5b60200260200101600073ffffffffffffffffffffffffffffffffffffffff16815250600e546000868154811061068757610686614964565b5b906000526020600020906003020160020160008282546106a79190614c88565b925050819055506000600e81905550505050505050565b6000805b60008054905081101561075f573373ffffffffffffffffffffffffffffffffffffffff16600082815481106106fa576106f9614964565b5b906000526020600020906003020160010160009054906101000a900473ffffffffffffffffffffffffffffffffffffffff1673ffffffffffffffffffffffffffffffffffffffff160361074c57600191505b8080610757906149c2565b9150506106c2565b5060011515811515146107a7576040517f08c379a000000000000000000000000000000000000000000000000000000000815260040161079e90614a67565b60405180910390fd5b600060058111156107bb576107ba614bed565b5b600683815481106107cf576107ce614964565b5b906000526020600020906008020160060160009054906101000a900460ff166005811115610800576107ff614bed565b5b14610840576040517f08c379a000000000000000000000000000000000000000000000000000000000815260040161083790614d2e565b60405180910390fd5b60011515831515036108d6576000610856613258565b9050806006848154811061086d5761086c614964565b5b90600052602060002090600802016007018190555060016006848154811061089857610897614964565b5b906000526020600020906008020160060160006101000a81548160ff021916908360058111156108cb576108ca614bed565b5b021790555050610b1a565b6000151583151503610b1957600682815481106108f6576108f5614964565b5b90600052602060002090600802016004015460016006848154811061091e5761091d614964565b5b9060005260206000209060080201600301548154811061094157610940614964565b5b90600052602060002090600402016002015461095d9190614b19565b34101561099f576040517f08c379a000000000000000000000000000000000000000000000000000000000815260040161099690614d9a565b60405180910390fd5b6002600683815481106109b5576109b4614964565b5b906000526020600020906008020160060160006101000a81548160ff021916908360058111156109e8576109e7614bed565b5b0217905550600760068381548110610a0357610a02614964565b5b90600052602060002090600802016001015481548110610a2657610a25614964565b5b906000526020600020906003020160000160009054906101000a900473ffffffffffffffffffffffffffffffffffffffff1673ffffffffffffffffffffffffffffffffffffffff166108fc60068481548110610a8557610a84614964565b5b906000526020600020906008020160040154600160068681548110610aad57610aac614964565b5b90600052602060002090600802016003015481548110610ad057610acf614964565b5b906000526020600020906004020160020154610aec9190614b19565b9081150290604051600060405180830381858888f19350505050158015610b17573d6000803e3d6000fd5b505b5b505050565b3373ffffffffffffffffffffffffffffffffffffffff16600960009054906101000a900473ffffffffffffffffffffffffffffffffffffffff1673ffffffffffffffffffffffffffffffffffffffff1614610baf576040517f08c379a0000000000000000000000000000000000000000000000000000000008152600401610ba690614e06565b60405180910390fd5b6000821480610bbe5750600182145b610bfd576040517f08c379a0000000000000000000000000000000000000000000000000000000008152600401610bf490614e98565b60405180910390fd5b60008103610c2b57610c26604051806060016040528060248152602001615e5660249139613271565b610ceb565b610ce28260058481548110610c4357610c42614964565b5b90600052602060002090600402016002018054610c5f90614ee7565b80601f0160208091040260200160405190810160405280929190818152602001828054610c8b90614ee7565b8015610cd85780601f10610cad57610100808354040283529160200191610cd8565b820191906000526020600020905b815481529060010190602001808311610cbb57829003601f168201915b505050505061330a565b610cea613831565b5b5050565b60005b600380549050811015610dc5573373ffffffffffffffffffffffffffffffffffffffff1660038281548110610d2a57610d29614964565b5b906000526020600020906003020160010160009054906101000a900473ffffffffffffffffffffffffffffffffffffffff1673ffffffffffffffffffffffffffffffffffffffff1603610db2576040517f08c379a0000000000000000000000000000000000000000000000000000000008152600401610da990614f64565b60405180910390fd5b8080610dbd906149c2565b915050610cf2565b5060005b600080549050811015610e9c573373ffffffffffffffffffffffffffffffffffffffff1660008281548110610e0157610e00614964565b5b906000526020600020906003020160010160009054906101000a900473ffffffffffffffffffffffffffffffffffffffff1673ffffffffffffffffffffffffffffffffffffffff1603610e89576040517f08c379a0000000000000000000000000000000000000000000000000000000008152600401610e8090614f64565b60405180910390fd5b8080610e94906149c2565b915050610dc9565b503373ffffffffffffffffffffffffffffffffffffffff168173ffffffffffffffffffffffffffffffffffffffff1603610f0b576040517f08c379a0000000000000000000000000000000000000000000000000000000008152600401610f0290614ff6565b60405180910390fd5b6000610f1682613aad565b90506001151581151503610f5f576040517f08c379a0000000000000000000000000000000000000000000000000000000008152600401610f5690615088565b60405180910390fd5b610f6b620f4240613b4d565b601560008473ffffffffffffffffffffffffffffffffffffffff1673ffffffffffffffffffffffffffffffffffffffff16815260200190815260200160002081905550610fb782613b8d565b610fff601560008473ffffffffffffffffffffffffffffffffffffffff1673ffffffffffffffffffffffffffffffffffffffff16815260200190815260200160002054613c34565b5050565b3373ffffffffffffffffffffffffffffffffffffffff16600960009054906101000a900473ffffffffffffffffffffffffffffffffffffffff1673ffffffffffffffffffffffffffffffffffffffff1614611093576040517f08c379a000000000000000000000000000000000000000000000000000000000815260040161108a90614e06565b60405180910390fd5b60005b600580549050811015611256576110c46040518060600160405280602b8152602001615dce602b9139613271565b6110f2600582815481106110db576110da614964565b5b906000526020600020906004020160000154613c34565b6111406005828154811061110957611108614964565b5b906000526020600020906004020160010160009054906101000a900473ffffffffffffffffffffffffffffffffffffffff16613ccd565b6111f66005828154811061115757611156614964565b5b9060005260206000209060040201600201805461117390614ee7565b80601f016020809104026020016040519081016040528092919081815260200182805461119f90614ee7565b80156111ec5780601f106111c1576101008083540402835291602001916111ec565b820191906000526020600020905b8154815290600101906020018083116111cf57829003601f168201915b5050505050613271565b6112436005828154811061120d5761120c614964565b5b906000526020600020906004020160030160009054906101000a900460ff16600381111561123e5761123d614bed565b5b613c34565b808061124e906149c2565b915050611096565b50565b6000805b6000805490508110156112fa573373ffffffffffffffffffffffffffffffffffffffff166000828154811061129557611294614964565b5b906000526020600020906003020160010160009054906101000a900473ffffffffffffffffffffffffffffffffffffffff1673ffffffffffffffffffffffffffffffffffffffff16036112e757600191505b80806112f2906149c2565b91505061125d565b506001151581151514611342576040517f08c379a000000000000000000000000000000000000000000000000000000000815260040161133990614a67565b60405180910390fd5b6000601660003373ffffffffffffffffffffffffffffffffffffffff1673ffffffffffffffffffffffffffffffffffffffff16815260200190815260200160002080549050116113c7576040517f08c379a00000000000000000000000000000000000000000000000000000000081526004016113be906150f4565b60405180910390fd5b600680549050821061140e576040517f08c379a000000000000000000000000000000000000000000000000000000000815260040161140590614af9565b60405180910390fd5b61144c6040518060400160405280601281526020017f596f757220646562742073756d206574683a0000000000000000000000000000815250613271565b61146a670de0b6b3a7640000600e546114659190615143565b613c34565b5050565b60056040518060800160405280600c5481526020013373ffffffffffffffffffffffffffffffffffffffff1681526020018381526020018460038111156114b8576114b7614bed565b5b81525090806001815401808255809150506001900390600052602060002090600402016000909190919091506000820151816000015560208201518160010160006101000a81548173ffffffffffffffffffffffffffffffffffffffff021916908373ffffffffffffffffffffffffffffffffffffffff160217905550604082015181600201908161154a919061532b565b5060608201518160030160006101000a81548160ff0219169083600381111561157657611575614bed565b5b021790555050506115bb6040518060400160405280600a81526020017f5175657272792069643a00000000000000000000000000000000000000000000815250613271565b6115c6600c54613c34565b600c60008154809291906115d9906149c2565b91905055505050565b60005b6003805490508110156116b8573373ffffffffffffffffffffffffffffffffffffffff166003828154811061161d5761161c614964565b5b906000526020600020906003020160010160009054906101000a900473ffffffffffffffffffffffffffffffffffffffff1673ffffffffffffffffffffffffffffffffffffffff16036116a5576040517f08c379a000000000000000000000000000000000000000000000000000000000815260040161169c90614f64565b60405180910390fd5b80806116b0906149c2565b9150506115e5565b5060005b60008054905081101561178f573373ffffffffffffffffffffffffffffffffffffffff16600082815481106116f4576116f3614964565b5b906000526020600020906003020160010160009054906101000a900473ffffffffffffffffffffffffffffffffffffffff1673ffffffffffffffffffffffffffffffffffffffff160361177c576040517f08c379a000000000000000000000000000000000000000000000000000000000815260040161177390614f64565b60405180910390fd5b8080611787906149c2565b9150506116bc565b50600083600186815481106117a7576117a6614964565b5b9060005260206000209060040201600301546117c39190614c88565b1015611804576040517f08c379a00000000000000000000000000000000000000000000000000000000081526004016117fb9061546f565b60405180910390fd5b826001858154811061181957611818614964565b5b906000526020600020906004020160030160008282546118399190614c88565b925050819055506000601260003373ffffffffffffffffffffffffffffffffffffffff1673ffffffffffffffffffffffffffffffffffffffff168152602001908152602001600020549050600081036119c957600760405180606001604052803373ffffffffffffffffffffffffffffffffffffffff16815260200184815260200160001515815250908060018154018082558091505060019003906000526020600020906003020160009091909190915060008201518160000160006101000a81548173ffffffffffffffffffffffffffffffffffffffff021916908373ffffffffffffffffffffffffffffffffffffffff1602179055506020820151816001019081611947919061532b565b5060408201518160020160006101000a81548160ff0219169083151502179055505050600d600081548092919061197d906149c2565b9190505550600d54601260003373ffffffffffffffffffffffffffffffffffffffff1673ffffffffffffffffffffffffffffffffffffffff168152602001908152602001600020819055505b6119d285613d66565b600b90816119e0919061532b565b506006604051806101000160405280600b80546119fc90614ee7565b80601f0160208091040260200160405190810160405280929190818152602001828054611a2890614ee7565b8015611a755780601f10611a4a57610100808354040283529160200191611a75565b820191906000526020600020905b815481529060010190602001808311611a5857829003601f168201915b505050505081526020016001600780549050611a919190614c88565b8152602001878152602001858152602001868152602001611ab2600a613b4d565b815260200160006005811115611acb57611aca614bed565b5b8152602001600081525090806001815401808255809150506001900390600052602060002090600802016000909190919091506000820151816000019081611b13919061532b565b506020820151816001015560408201518160020155606082015181600301556080820151816004015560a0820151816005015560c08201518160060160006101000a81548160ff02191690836005811115611b7157611b70614bed565b5b021790555060e082015181600701555050600b60066001600680549050611b989190614c88565b81548110611ba957611ba8614964565b5b90600052602060002090600802016000019081611bc691906154ba565b5060066001600680549050611bdb9190614c88565b81548110611bec57611beb614964565b5b906000526020600020906008020160040154600160066001600680549050611c149190614c88565b81548110611c2557611c24614964565b5b90600052602060002090600802016003015481548110611c4857611c47614964565b5b906000526020600020906004020160020154611c649190614b19565b601760006001600680549050611c7a9190614c88565b815260200190815260200160002081905550611cad604051806060016040528060258152602001615df960259139613271565b611cec60066001600680549050611cc49190614c88565b81548110611cd557611cd4614964565b5b906000526020600020906008020160050154613c34565b611d2a6040518060400160405280600d81526020017f4f72646572206e756d6265723a00000000000000000000000000000000000000815250613271565b611d446001600680549050611d3f9190614c88565b613c34565b611d826040518060400160405280601081526020017f596f757220747261636b20636f64653a00000000000000000000000000000000815250613271565b611e15600b8054611d9290614ee7565b80601f0160208091040260200160405190810160405280929190818152602001828054611dbe90614ee7565b8015611e0b5780601f10611de057610100808354040283529160200191611e0b565b820191906000526020600020905b815481529060010190602001808311611dee57829003601f168201915b5050505050613271565b611e36604051806060016040528060388152602001615e1e60389139613271565b611e406005613c34565b611e61604051806060016040528060328152602001615d9c60329139613271565b611ead67016345785d8a00006005601760006001600680549050611e859190614c88565b815260200190815260200160002054611e9e9190615143565b611ea89190615143565b613c34565b5050505050565b6000805b600080549050811015611f55573373ffffffffffffffffffffffffffffffffffffffff1660008281548110611ef057611eef614964565b5b906000526020600020906003020160010160009054906101000a900473ffffffffffffffffffffffffffffffffffffffff1673ffffffffffffffffffffffffffffffffffffffff1603611f4257600191505b8080611f4d906149c2565b915050611eb8565b506001151581151514611f9d576040517f08c379a0000000000000000000000000000000000000000000000000000000008152600401611f9490614a67565b60405180910390fd5b60008360048481548110611fb457611fb3614964565b5b906000526020600020906003020160020154611fd09190614c88565b1015612011576040517f08c379a000000000000000000000000000000000000000000000000000000000815260040161200890615614565b60405180910390fd5b34836004868154811061202757612026614964565b5b9060005260206000209060030201600101546120439190614b19565b1115612084576040517f08c379a000000000000000000000000000000000000000000000000000000000815260040161207b90615680565b60405180910390fd5b6003828154811061209857612097614964565b5b906000526020600020906003020160010160009054906101000a900473ffffffffffffffffffffffffffffffffffffffff1673ffffffffffffffffffffffffffffffffffffffff166108fc84600487815481106120f8576120f7614964565b5b9060005260206000209060030201600101546121149190614b19565b9081150290604051600060405180830381858888f1935050505015801561213f573d6000803e3d6000fd5b506000601360003373ffffffffffffffffffffffffffffffffffffffff1673ffffffffffffffffffffffffffffffffffffffff168152602001908152602001600020549050836004848154811061219957612198614964565b5b906000526020600020906003020160020160008282546121b99190614c88565b9250508190555083600182815481106121d5576121d4614964565b5b906000526020600020906004020160030160008282546121f591906156a0565b925050819055505050505050565b60005b6003805490508110156122d9573373ffffffffffffffffffffffffffffffffffffffff166003828154811061223e5761223d614964565b5b906000526020600020906003020160010160009054906101000a900473ffffffffffffffffffffffffffffffffffffffff1673ffffffffffffffffffffffffffffffffffffffff16036122c6576040517f08c379a00000000000000000000000000000000000000000000000000000000081526004016122bd90614f64565b60405180910390fd5b80806122d1906149c2565b915050612206565b5060005b6000805490508110156123b0573373ffffffffffffffffffffffffffffffffffffffff166000828154811061231557612314614964565b5b906000526020600020906003020160010160009054906101000a900473ffffffffffffffffffffffffffffffffffffffff1673ffffffffffffffffffffffffffffffffffffffff160361239d576040517f08c379a000000000000000000000000000000000000000000000000000000000815260040161239490614f64565b60405180910390fd5b80806123a8906149c2565b9150506122dd565b503373ffffffffffffffffffffffffffffffffffffffff166007600685815481106123de576123dd614964565b5b9060005260206000209060080201600101548154811061240157612400614964565b5b906000526020600020906003020160000160009054906101000a900473ffffffffffffffffffffffffffffffffffffffff1673ffffffffffffffffffffffffffffffffffffffff1614612489576040517f08c379a000000000000000000000000000000000000000000000000000000000815260040161248090615746565b60405180910390fd5b6001600581111561249d5761249c614bed565b5b600684815481106124b1576124b0614964565b5b906000526020600020906008020160060160009054906101000a900460ff1660058111156124e2576124e1614bed565b5b14612522576040517f08c379a0000000000000000000000000000000000000000000000000000000008152600401612519906157d8565b60405180910390fd5b6006838154811061253657612535614964565b5b90600052602060002090600802016007015442101561258a576040517f08c379a000000000000000000000000000000000000000000000000000000000815260040161258190615844565b60405180910390fd5b6001151582151503612871576000600684815481106125ac576125ab614964565b5b9060005260206000209060080201600401546001600686815481106125d4576125d3614964565b5b906000526020600020906008020160030154815481106125f7576125f6614964565b5b9060005260206000209060040201600201546126139190614b19565b90506000821461272957600061262883613ef7565b90506000151581151514612671576040517f08c379a0000000000000000000000000000000000000000000000000000000008152600401612668906158b0565b60405180910390fd5b6000601560003373ffffffffffffffffffffffffffffffffffffffff1673ffffffffffffffffffffffffffffffffffffffff16815260200190815260200160002054036126f3576040517f08c379a00000000000000000000000000000000000000000000000000000000081526004016126ea9061591c565b60405180910390fd5b6126fc82613f59565b91506008839080600181540180825580915050600190039060005260206000200160009091909190915055505b3481111561276c576040517f08c379a000000000000000000000000000000000000000000000000000000000815260040161276390615680565b60405180910390fd5b60006006858154811061278257612781614964565b5b906000526020600020906008020160020154815481106127a5576127a4614964565b5b906000526020600020906003020160010160009054906101000a900473ffffffffffffffffffffffffffffffffffffffff1673ffffffffffffffffffffffffffffffffffffffff166108fc829081150290604051600060405180830381858888f1935050505015801561281c573d6000803e3d6000fd5b5060036006858154811061283357612832614964565b5b906000526020600020906008020160060160006101000a81548160ff0219169083600581111561286657612865614bed565b5b021790555050612a92565b6000151582151503612a915734601760008581526020019081526020016000205411156128d3576040517f08c379a00000000000000000000000000000000000000000000000000000000081526004016128ca90614d9a565b60405180910390fd5b6000600684815481106128e9576128e8614964565b5b9060005260206000209060080201600201548154811061290c5761290b614964565b5b906000526020600020906003020160010160009054906101000a900473ffffffffffffffffffffffffffffffffffffffff1673ffffffffffffffffffffffffffffffffffffffff166108fc600560176000878152602001908152602001600020546129779190615143565b9081150290604051600060405180830381858888f193505050501580156129a2573d6000803e3d6000fd5b50600060176000858152602001908152602001600020819055506002600684815481106129d2576129d1614964565b5b906000526020600020906008020160060160006101000a81548160ff02191690836005811115612a0557612a04614bed565b5b021790555060068381548110612a1e57612a1d614964565b5b906000526020600020906008020160040154600160068581548110612a4657612a45614964565b5b90600052602060002090600802016003015481548110612a6957612a68614964565b5b90600052602060002090600402016003016000828254612a8991906156a0565b925050819055505b5b505050565b60005b600380549050811015612b6d573373ffffffffffffffffffffffffffffffffffffffff1660038281548110612ad257612ad1614964565b5b906000526020600020906003020160010160009054906101000a900473ffffffffffffffffffffffffffffffffffffffff1673ffffffffffffffffffffffffffffffffffffffff1603612b5a576040517f08c379a0000000000000000000000000000000000000000000000000000000008152600401612b5190614f64565b60405180910390fd5b8080612b65906149c2565b915050612a9a565b5060005b600080549050811015612c44573373ffffffffffffffffffffffffffffffffffffffff1660008281548110612ba957612ba8614964565b5b906000526020600020906003020160010160009054906101000a900473ffffffffffffffffffffffffffffffffffffffff1673ffffffffffffffffffffffffffffffffffffffff1603612c31576040517f08c379a0000000000000000000000000000000000000000000000000000000008152600401612c2890614f64565b60405180910390fd5b8080612c3c906149c2565b915050612b71565b50806006805490508110612c8d576040517f08c379a0000000000000000000000000000000000000000000000000000000008152600401612c8490614af9565b60405180910390fd5b600080600090505b600780549050811015612d35573373ffffffffffffffffffffffffffffffffffffffff1660078281548110612ccd57612ccc614964565b5b906000526020600020906003020160000160009054906101000a900473ffffffffffffffffffffffffffffffffffffffff1673ffffffffffffffffffffffffffffffffffffffff1603612d2257809150612d35565b8080612d2d906149c2565b915050612c95565b5060005b6006805490508110156132525783810361323f5760068181548110612d6157612d60614964565b5b9060005260206000209060080201600101548214612db4576040517f08c379a0000000000000000000000000000000000000000000000000000000008152600401612dab90615988565b60405180910390fd5b600260068281548110612dca57612dc9614964565b5b90600052602060002090600802016003015481548110612ded57612dec614964565b5b90600052602060002090600402016003015460068281548110612e1357612e12614964565b5b90600052602060002090600802016005015411612e65576040517f08c379a0000000000000000000000000000000000000000000000000000000008152600401612e5c90615a1a565b60405180910390fd5b60036005811115612e7957612e78614bed565b5b60068281548110612e8d57612e8c614964565b5b906000526020600020906008020160060160009054906101000a900460ff166005811115612ebe57612ebd614bed565b5b14612efe576040517f08c379a0000000000000000000000000000000000000000000000000000000008152600401612ef590615a86565b60405180910390fd5b600060068581548110612f1457612f13614964565b5b9060005260206000209060080201600301549050600060068681548110612f3e57612f3d614964565b5b90600052602060002090600802016004015490506000600160068881548110612f6a57612f69614964565b5b90600052602060002090600802016003015481548110612f8d57612f8c614964565b5b90600052602060002090600402016002015490508082612fad9190614b19565b600e81905550600460068581548110612fc957612fc8614964565b5b906000526020600020906008020160060160006101000a81548160ff02191690836005811115612ffc57612ffb614bed565b5b02179055506006848154811061301557613014614964565b5b9060005260206000209060080201600401546001848154811061303b5761303a614964565b5b9060005260206000209060040201600301600082825461305b91906156a0565b925050819055506001838154811061307657613075614964565b5b9060005260206000209060040201600301546001848154811061309c5761309b614964565b5b9060005260206000209060040201600201546130b89190614b19565b600060018086815481106130cf576130ce614964565b5b9060005260206000209060040201600101546130eb9190614c88565b815481106130fc576130fb614964565b5b9060005260206000209060030201600201600082825461311c91906156a0565b925050819055506016600080600180878154811061313d5761313c614964565b5b9060005260206000209060040201600101546131599190614c88565b8154811061316a57613169614964565b5b906000526020600020906003020160010160009054906101000a900473ffffffffffffffffffffffffffffffffffffffff1673ffffffffffffffffffffffffffffffffffffffff1673ffffffffffffffffffffffffffffffffffffffff168152602001908152602001600020339080600181540180825580915050600190039060005260206000200160009091909190916101000a81548173ffffffffffffffffffffffffffffffffffffffff021916908373ffffffffffffffffffffffffffffffffffffffff160217905550505050613252565b808061324a906149c2565b915050612d39565b50505050565b60008042905060028161326b91906156a0565b91505090565b613307816040516024016132859190615b09565b6040516020818303038152906040527f41304fac000000000000000000000000000000000000000000000000000000007bffffffffffffffffffffffffffffffffffffffffffffffffffffffff19166020820180517bffffffffffffffffffffffffffffffffffffffffffffffffffffffff8381831617835250505050613f7f565b50565b6005828154811061331e5761331d614964565b5b906000526020600020906004020160010160009054906101000a900473ffffffffffffffffffffffffffffffffffffffff16600a60006101000a81548173ffffffffffffffffffffffffffffffffffffffff021916908373ffffffffffffffffffffffffffffffffffffffff1602179055506000600583815481106133a6576133a5614964565b5b906000526020600020906004020160030160009054906101000a900460ff169050613415600584815481106133de576133dd614964565b5b906000526020600020906004020160010160009054906101000a900473ffffffffffffffffffffffffffffffffffffffff16613f99565b601160006101000a81548160ff0219169083600381111561343957613438614bed565b5b0217905550601160009054906101000a900460ff1660038111156134605761345f614bed565b5b81600381111561347357613472614bed565b5b036134b3576040517f08c379a00000000000000000000000000000000000000000000000000000000081526004016134aa90615b9d565b60405180910390fd5b600260038111156134c7576134c6614bed565b5b8160038111156134da576134d9614bed565b5b036135cc5760006040518060600160405280848152602001600a60009054906101000a900473ffffffffffffffffffffffffffffffffffffffff1673ffffffffffffffffffffffffffffffffffffffff168152602001600081525090806001815401808255809150506001900390600052602060002090600302016000909190919091506000820151816000019081613573919061532b565b5060208201518160010160006101000a81548173ffffffffffffffffffffffffffffffffffffffff021916908373ffffffffffffffffffffffffffffffffffffffff160217905550604082015181600201555050613824565b600160038111156135e0576135df614bed565b5b8160038111156135f3576135f2614bed565b5b036136f5576003604051806060016040528060016003805490506136179190614c88565b8152602001600a60009054906101000a900473ffffffffffffffffffffffffffffffffffffffff1673ffffffffffffffffffffffffffffffffffffffff1681526020018481525090806001815401808255809150506001900390600052602060002090600302016000909190919091506000820151816000015560208201518160010160006101000a81548173ffffffffffffffffffffffffffffffffffffffff021916908373ffffffffffffffffffffffffffffffffffffffff16021790555060408201518160020190816136ed919061532b565b505050613823565b6000600381111561370957613708614bed565b5b81600381111561371c5761371b614bed565b5b036138225760076040518060600160405280600a60009054906101000a900473ffffffffffffffffffffffffffffffffffffffff1673ffffffffffffffffffffffffffffffffffffffff16815260200184815260200160001515815250908060018154018082558091505060019003906000526020600020906003020160009091909190915060008201518160000160006101000a81548173ffffffffffffffffffffffffffffffffffffffff021916908373ffffffffffffffffffffffffffffffffffffffff16021790555060208201518160010190816137fe919061532b565b5060408201518160020160006101000a81548160ff02191690831515021790555050505b5b5b61382c613831565b505050565b6002600381111561384557613844614bed565b5b601160009054906101000a900460ff16600381111561386757613866614bed565b5b0361390157600061389b6001600a60009054906101000a900473ffffffffffffffffffffffffffffffffffffffff1661419a565b815481106138ac576138ab614964565b5b9060005260206000209060030201600080820160006138cb91906143dd565b6001820160006101000a81549073ffffffffffffffffffffffffffffffffffffffff021916905560028201600090555050613aab565b6001600381111561391557613914614bed565b5b601160009054906101000a900460ff16600381111561393757613936614bed565b5b036139d157600361396b6002600a60009054906101000a900473ffffffffffffffffffffffffffffffffffffffff1661419a565b8154811061397c5761397b614964565b5b90600052602060002090600302016000808201600090556001820160006101000a81549073ffffffffffffffffffffffffffffffffffffffff02191690556002820160006139ca91906143dd565b5050613aaa565b600060038111156139e5576139e4614bed565b5b601160009054906101000a900460ff166003811115613a0757613a06614bed565b5b03613aa9576007613a3b6000600a60009054906101000a900473ffffffffffffffffffffffffffffffffffffffff1661419a565b81548110613a4c57613a4b614964565b5b9060005260206000209060030201600080820160006101000a81549073ffffffffffffffffffffffffffffffffffffffff0219169055600182016000613a9291906143dd565b6002820160006101000a81549060ff021916905550505b5b5b565b600080600090505b601054811015613b42578273ffffffffffffffffffffffffffffffffffffffff166014600083815260200190815260200160002060009054906101000a900473ffffffffffffffffffffffffffffffffffffffff1673ffffffffffffffffffffffffffffffffffffffff1603613b2f576001915050613b48565b8080613b3a906149c2565b915050613ab5565b50600090505b919050565b6000814233604051602001613b63929190615c26565b6040516020818303038152906040528051906020012060001c613b869190615c52565b9050919050565b6000613b9882613aad565b90506000151581151503613c17578160146000601054815260200190815260200160002060006101000a81548173ffffffffffffffffffffffffffffffffffffffff021916908373ffffffffffffffffffffffffffffffffffffffff16021790555060106000815480929190613c0d906149c2565b9190505550613c18565b5b600f6000815480929190613c2b906149c2565b91905055505050565b613cca81604051602401613c489190615c92565b6040516020818303038152906040527ff82c50f1000000000000000000000000000000000000000000000000000000007bffffffffffffffffffffffffffffffffffffffffffffffffffffffff19166020820180517bffffffffffffffffffffffffffffffffffffffffffffffffffffffff8381831617835250505050613f7f565b50565b613d6381604051602401613ce19190615cbc565b6040516020818303038152906040527f2c2ecbc2000000000000000000000000000000000000000000000000000000007bffffffffffffffffffffffffffffffffffffffffffffffffffffffff19166020820180517bffffffffffffffffffffffffffffffffffffffffffffffffffffffff8381831617835250505050613f7f565b50565b6060600060028381548110613d7e57613d7d614964565b5b90600052602060002090600402016001018054613d9a90614ee7565b80601f0160208091040260200160405190810160405280929190818152602001828054613dc690614ee7565b8015613e135780601f10613de857610100808354040283529160200191613e13565b820191906000526020600020905b815481529060010190602001808311613df657829003601f168201915b50505050509050600060028481548110613e3057613e2f614964565b5b90600052602060002090600402016002018054613e4c90614ee7565b80601f0160208091040260200160405190810160405280929190818152602001828054613e7890614ee7565b8015613ec55780601f10613e9a57610100808354040283529160200191613ec5565b820191906000526020600020905b815481529060010190602001808311613ea857829003601f168201915b505050505090508181604051602001613edf929190615d39565b60405160208183030381529060405292505050919050565b600080600090505b600880549050811015613f4e5760088181548110613f2057613f1f614964565b5b90600052602060002001548303613f3b576001915050613f54565b8080613f46906149c2565b915050613eff565b50600090505b919050565b600080600a83613f699190615143565b83613f749190614c88565b905080915050919050565b613f9681613f8e6143b16143d2565b63ffffffff16565b50565b600080600090505b600780549050811015614043578273ffffffffffffffffffffffffffffffffffffffff1660078281548110613fd957613fd8614964565b5b906000526020600020906003020160000160009054906101000a900473ffffffffffffffffffffffffffffffffffffffff1673ffffffffffffffffffffffffffffffffffffffff1603614030576000915050614195565b808061403b906149c2565b915050613fa1565b5060005b6000805490508110156140e9578273ffffffffffffffffffffffffffffffffffffffff166000828154811061407f5761407e614964565b5b906000526020600020906003020160010160009054906101000a900473ffffffffffffffffffffffffffffffffffffffff1673ffffffffffffffffffffffffffffffffffffffff16036140d6576002915050614195565b80806140e1906149c2565b915050614047565b5060005b60038054905081101561418f578273ffffffffffffffffffffffffffffffffffffffff166003828154811061412557614124614964565b5b906000526020600020906003020160010160009054906101000a900473ffffffffffffffffffffffffffffffffffffffff1673ffffffffffffffffffffffffffffffffffffffff160361417c576001915050614195565b8080614187906149c2565b9150506140ed565b50600090505b919050565b60006001830361424a5760005b60008054905081101561424857600081815481106141c8576141c7614964565b5b906000526020600020906003020160010160009054906101000a900473ffffffffffffffffffffffffffffffffffffffff1673ffffffffffffffffffffffffffffffffffffffff168373ffffffffffffffffffffffffffffffffffffffff160361423557809150506143ab565b8080614240906149c2565b9150506141a7565b505b600283036142f85760005b6003805490508110156142f6576003818154811061427657614275614964565b5b906000526020600020906003020160010160009054906101000a900473ffffffffffffffffffffffffffffffffffffffff1673ffffffffffffffffffffffffffffffffffffffff168373ffffffffffffffffffffffffffffffffffffffff16036142e357809150506143ab565b80806142ee906149c2565b915050614255565b505b600083036143a65760005b6007805490508110156143a4576007818154811061432457614323614964565b5b906000526020600020906003020160000160009054906101000a900473ffffffffffffffffffffffffffffffffffffffff1673ffffffffffffffffffffffffffffffffffffffff168373ffffffffffffffffffffffffffffffffffffffff160361439157809150506143ab565b808061439c906149c2565b915050614303565b505b600090505b92915050565b60006a636f6e736f6c652e6c6f679050600080835160208501845afa505050565b61441d819050919050565b5080546143e990614ee7565b6000825580601f106143fb575061441a565b601f0160209004906000526020600020908101906144199190614427565b5b50565b614425615d6c565b565b5b80821115614440576000816000905550600101614428565b5090565b6000604051905090565b600080fd5b600080fd5b6000819050919050565b61446b81614458565b811461447657600080fd5b50565b60008135905061448881614462565b92915050565b600080604083850312156144a5576144a461444e565b5b60006144b385828601614479565b92505060206144c485828601614479565b9150509250929050565b60008115159050919050565b6144e3816144ce565b81146144ee57600080fd5b50565b600081359050614500816144da565b92915050565b6000806040838503121561451d5761451c61444e565b5b600061452b858286016144f1565b925050602061453c85828601614479565b9150509250929050565b6000819050919050565b61455981614546565b811461456457600080fd5b50565b60008135905061457681614550565b92915050565b600080604083850312156145935761459261444e565b5b60006145a185828601614567565b92505060206145b285828601614479565b9150509250929050565b600073ffffffffffffffffffffffffffffffffffffffff82169050919050565b60006145e7826145bc565b9050919050565b6145f7816145dc565b811461460257600080fd5b50565b600081359050614614816145ee565b92915050565b6000602082840312156146305761462f61444e565b5b600061463e84828501614605565b91505092915050565b60006020828403121561465d5761465c61444e565b5b600061466b84828501614479565b91505092915050565b6004811061468157600080fd5b50565b60008135905061469381614674565b92915050565b600080fd5b600080fd5b6000601f19601f8301169050919050565b7f4e487b7100000000000000000000000000000000000000000000000000000000600052604160045260246000fd5b6146ec826146a3565b810181811067ffffffffffffffff8211171561470b5761470a6146b4565b5b80604052505050565b600061471e614444565b905061472a82826146e3565b919050565b600067ffffffffffffffff82111561474a576147496146b4565b5b614753826146a3565b9050602081019050919050565b82818337600083830152505050565b600061478261477d8461472f565b614714565b90508281526020810184848401111561479e5761479d61469e565b5b6147a9848285614760565b509392505050565b600082601f8301126147c6576147c5614699565b5b81356147d684826020860161476f565b91505092915050565b600080604083850312156147f6576147f561444e565b5b600061480485828601614684565b925050602083013567ffffffffffffffff81111561482557614824614453565b5b614831858286016147b1565b9150509250929050565b600080600080608085870312156148555761485461444e565b5b600061486387828801614479565b945050602061487487828801614479565b935050604061488587828801614479565b925050606085013567ffffffffffffffff8111156148a6576148a5614453565b5b6148b2878288016147b1565b91505092959194509250565b6000806000606084860312156148d7576148d661444e565b5b60006148e586828701614479565b93505060206148f686828701614479565b925050604061490786828701614479565b9150509250925092565b60008060006060848603121561492a5761492961444e565b5b600061493886828701614479565b9350506020614949868287016144f1565b925050604061495a86828701614479565b9150509250925092565b7f4e487b7100000000000000000000000000000000000000000000000000000000600052603260045260246000fd5b7f4e487b7100000000000000000000000000000000000000000000000000000000600052601160045260246000fd5b60006149cd82614458565b91507fffffffffffffffffffffffffffffffffffffffffffffffffffffffffffffffff82036149ff576149fe614993565b5b600182019050919050565b600082825260208201905092915050565b7f4f6e6c792073686f702063616e20646f20697421000000000000000000000000600082015250565b6000614a51601483614a0a565b9150614a5c82614a1b565b602082019050919050565b60006020820190508181036000830152614a8081614a44565b9050919050565b7f5468697320707572736861726520697320646f6e60742063726561746564207960008201527f6574210000000000000000000000000000000000000000000000000000000000602082015250565b6000614ae3602383614a0a565b9150614aee82614a87565b604082019050919050565b60006020820190508181036000830152614b1281614ad6565b9050919050565b6000614b2482614458565b9150614b2f83614458565b9250828202614b3d81614458565b91508282048414831517614b5457614b53614993565b5b5092915050565b7f596f7520646f6e6074206861766520656e6f756768206d6f6e657920746f207060008201527f617920746f207468697320646562742100000000000000000000000000000000602082015250565b6000614bb7603083614a0a565b9150614bc282614b5b565b604082019050919050565b60006020820190508181036000830152614be681614baa565b9050919050565b7f4e487b7100000000000000000000000000000000000000000000000000000000600052602160045260246000fd5b7f596f75206861766520616c726561647920706169642074686973206465627421600082015250565b6000614c52602083614a0a565b9150614c5d82614c1c565b602082019050919050565b60006020820190508181036000830152614c8181614c45565b9050919050565b6000614c9382614458565b9150614c9e83614458565b9250828203905081811115614cb657614cb5614993565b5b92915050565b7f596f7520636f6e6669726d65642f63616e63656c65642074686973206f72646560008201527f72206561726c7900000000000000000000000000000000000000000000000000602082015250565b6000614d18602783614a0a565b9150614d2382614cbc565b604082019050919050565b60006020820190508181036000830152614d4781614d0b565b9050919050565b7f596f7520646f6e6074206861766520656e6f756768204574682e000000000000600082015250565b6000614d84601a83614a0a565b9150614d8f82614d4e565b602082019050919050565b60006020820190508181036000830152614db381614d77565b9050919050565b7f596f75206172656e607420616e206f776e657221000000000000000000000000600082015250565b6000614df0601483614a0a565b9150614dfb82614dba565b602082019050919050565b60006020820190508181036000830152614e1f81614de3565b9050919050565b7f596f752077726f746520612077726f6e6720636f6e6669726d2f72656a65637460008201527f20636f6465212030202d2072656a6563742c2031202d20636f6e6669726d2100602082015250565b6000614e82603f83614a0a565b9150614e8d82614e26565b604082019050919050565b60006020820190508181036000830152614eb181614e75565b9050919050565b7f4e487b7100000000000000000000000000000000000000000000000000000000600052602260045260246000fd5b60006002820490506001821680614eff57607f821691505b602082108103614f1257614f11614eb8565b5b50919050565b7f4f6e6c7920636c69656e742063616e20646f2069742100000000000000000000600082015250565b6000614f4e601683614a0a565b9150614f5982614f18565b602082019050919050565b60006020820190508181036000830152614f7d81614f41565b9050919050565b7f4572726f722120596f752063616e607420696e7669746520796f757273656c6660008201527f2100000000000000000000000000000000000000000000000000000000000000602082015250565b6000614fe0602183614a0a565b9150614feb82614f84565b604082019050919050565b6000602082019050818103600083015261500f81614fd3565b9050919050565b7f4572726f7221205468697320757365722068617320616c726561647920696e7660008201527f6974656421000000000000000000000000000000000000000000000000000000602082015250565b6000615072602583614a0a565b915061507d82615016565b604082019050919050565b600060208201905081810360008301526150a181615065565b9050919050565b7f596f7520646f6e6074206861766520616e792064656274732100000000000000600082015250565b60006150de601983614a0a565b91506150e9826150a8565b602082019050919050565b6000602082019050818103600083015261510d816150d1565b9050919050565b7f4e487b7100000000000000000000000000000000000000000000000000000000600052601260045260246000fd5b600061514e82614458565b915061515983614458565b92508261516957615168615114565b5b828204905092915050565b600081519050919050565b60008190508160005260206000209050919050565b60006020601f8301049050919050565b600082821b905092915050565b6000600883026151e17fffffffffffffffffffffffffffffffffffffffffffffffffffffffffffffffff826151a4565b6151eb86836151a4565b95508019841693508086168417925050509392505050565b6000819050919050565b600061522861522361521e84614458565b615203565b614458565b9050919050565b6000819050919050565b6152428361520d565b61525661524e8261522f565b8484546151b1565b825550505050565b600090565b61526b61525e565b615276818484615239565b505050565b5b8181101561529a5761528f600082615263565b60018101905061527c565b5050565b601f8211156152df576152b08161517f565b6152b984615194565b810160208510156152c8578190505b6152dc6152d485615194565b83018261527b565b50505b505050565b600082821c905092915050565b6000615302600019846008026152e4565b1980831691505092915050565b600061531b83836152f1565b9150826002028217905092915050565b61533482615174565b67ffffffffffffffff81111561534d5761534c6146b4565b5b6153578254614ee7565b61536282828561529e565b600060209050601f8311600181146153955760008415615383578287015190505b61538d858261530f565b8655506153f5565b601f1984166153a38661517f565b60005b828110156153cb578489015182556001820191506020850194506020810190506153a6565b868310156153e857848901516153e4601f8916826152f1565b8355505b6001600288020188555050505b505050505050565b7f536f7272792120576520646f6e6074206861766520656e6f75676820636f756e60008201527f74206f6620746869732070726f64756374210000000000000000000000000000602082015250565b6000615459603283614a0a565b9150615464826153fd565b604082019050919050565b600060208201905081810360008301526154888161544c565b9050919050565b60008154905061549e81614ee7565b9050919050565b60008190508160005260206000209050919050565b8181036154c85750506155a0565b6154d18261548f565b67ffffffffffffffff8111156154ea576154e96146b4565b5b6154f48254614ee7565b6154ff82828561529e565b6000601f83116001811461552e576000841561551c578287015490505b615526858261530f565b865550615599565b601f19841661553c876154a5565b96506155478661517f565b60005b8281101561556f5784890154825560018201915060018501945060208101905061554a565b8683101561558c5784890154615588601f8916826152f1565b8355505b6001600288020188555050505b5050505050505b565b7f536f7272792c20776520646f6e6074206861766520656e6f7567682070726f6460008201527f7563747300000000000000000000000000000000000000000000000000000000602082015250565b60006155fe602483614a0a565b9150615609826155a2565b604082019050919050565b6000602082019050818103600083015261562d816155f1565b9050919050565b7f596f7520646f6e6074206861766520656e6f7567682045746800000000000000600082015250565b600061566a601983614a0a565b915061567582615634565b602082019050919050565b600060208201905081810360008301526156998161565d565b9050919050565b60006156ab82614458565b91506156b683614458565b92508282019050808211156156ce576156cd614993565b5b92915050565b7f596f7520656e74657220612077726f6e67206e756d626572206f66206f72646560008201527f7221000000000000000000000000000000000000000000000000000000000000602082015250565b6000615730602283614a0a565b915061573b826156d4565b604082019050919050565b6000602082019050818103600083015261575f81615723565b9050919050565b7f54686973207075727368617265206d75737420676f7420636f6e6669726d206660008201527f726f6d2073686f70206f722046696e6973686564207965742100000000000000602082015250565b60006157c2603983614a0a565b91506157cd82615766565b604082019050919050565b600060208201905081810360008301526157f1816157b5565b9050919050565b7f596f7572206f726465722069736e60742064656c697665726564207965742100600082015250565b600061582e601f83614a0a565b9150615839826157f8565b602082019050919050565b6000602082019050818103600083015261585d81615821565b9050919050565b7f5468697320636f646520686173206265656e2075736564210000000000000000600082015250565b600061589a601883614a0a565b91506158a582615864565b602082019050919050565b600060208201905081810360008301526158c98161588d565b9050919050565b7f5468697320636f64652069736e607420666f7220796f75210000000000000000600082015250565b6000615906601883614a0a565b9150615911826158d0565b602082019050919050565b60006020820190508181036000830152615935816158f9565b9050919050565b7f596f752077726f746520612077726f6e67206f72646572206e756d6265722100600082015250565b6000615972601f83614a0a565b915061597d8261593c565b602082019050919050565b600060208201905081810360008301526159a181615965565b9050919050565b7f54686973206f7264657220646f6e6074206861766520616e792065787065726960008201527f65642070726f6475637473210000000000000000000000000000000000000000602082015250565b6000615a04602c83614a0a565b9150615a0f826159a8565b604082019050919050565b60006020820190508181036000830152615a33816159f7565b9050919050565b7f596f752063616e60742072657475726e206f7264657220747769636521000000600082015250565b6000615a70601d83614a0a565b9150615a7b82615a3a565b602082019050919050565b60006020820190508181036000830152615a9f81615a63565b9050919050565b60005b83811015615ac4578082015181840152602081019050615aa9565b60008484015250505050565b6000615adb82615174565b615ae58185614a0a565b9350615af5818560208601615aa6565b615afe816146a3565b840191505092915050565b60006020820190508181036000830152615b238184615ad0565b905092915050565b7f596f752063616e6074206368616e67652066726f6d20796f757220726f6c652060008201527f6f6e20796f757220726f6c652100000000000000000000000000000000000000602082015250565b6000615b87602d83614a0a565b9150615b9282615b2b565b604082019050919050565b60006020820190508181036000830152615bb681615b7a565b9050919050565b6000819050919050565b615bd8615bd382614458565b615bbd565b82525050565b60008160601b9050919050565b6000615bf682615bde565b9050919050565b6000615c0882615beb565b9050919050565b615c20615c1b826145dc565b615bfd565b82525050565b6000615c328285615bc7565b602082019150615c428284615c0f565b6014820191508190509392505050565b6000615c5d82614458565b9150615c6883614458565b925082615c7857615c77615114565b5b828206905092915050565b615c8c81614458565b82525050565b6000602082019050615ca76000830184615c83565b92915050565b615cb6816145dc565b82525050565b6000602082019050615cd16000830184615cad565b92915050565b7f4141000000000000000000000000000000000000000000000000000000000000815250565b600081905092915050565b6000615d1382615174565b615d1d8185615cfd565b9350615d2d818560208601615aa6565b80840191505092915050565b6000615d4482615cd7565b600282019150615d548285615d08565b9150615d608284615d08565b91508190509392505050565b7f4e487b7100000000000000000000000000000000000000000000000000000000600052605160045260246000fdfe46696e652c20696620796f752072656a6563742074686973206f726465722028696e20302c2845746820636f756e7429293a5f5f5f5f5f5f5f5f5f5f5f5f5f5f5f5f5f5f5f5f5f5f5f5f5f5f5f5f5f5f5f5f5f5f5f5f5f5f5f5f5f5f5f446179732066726f6d20737570706c79206f6620746869732070726f647563742069733a20596f75206e65656420746f207761697420796f7572206f7264657220666f723a202874656d706f7261726c7920696e207365636f6e647329446f6e652120596f7520686176652072656a656374656420746869732071756572727921a2646970667358221220d0bf4099e0a2c1e85703cab0661c0fea2704f2ba265283fc95621479f1ff0c5564736f6c63430008120033",
			"opcodes": "PUSH1 0x80 PUSH1 0x40 MSTORE CALLVALUE DUP1 ISZERO PUSH3 0x11 JUMPI PUSH1 0x0 DUP1 REVERT JUMPDEST POP CALLER PUSH1 0x9 PUSH1 0x0 PUSH2 0x100 EXP DUP2 SLOAD DUP2 PUSH20 0xFFFFFFFFFFFFFFFFFFFFFFFFFFFFFFFFFFFFFFFF MUL NOT AND SWAP1 DUP4 PUSH20 0xFFFFFFFFFFFFFFFFFFFFFFFFFFFFFFFFFFFFFFFF AND MUL OR SWAP1 SSTORE POP PUSH1 0x3 PUSH1 0x40 MLOAD DUP1 PUSH1 0x60 ADD PUSH1 0x40 MSTORE DUP1 PUSH1 0x1 DUP2 MSTORE PUSH1 0x20 ADD PUSH20 0x5B38DA6A701C568545DCFCB03FCB875F56BEDDC4 PUSH20 0xFFFFFFFFFFFFFFFFFFFFFFFFFFFFFFFFFFFFFFFF AND DUP2 MSTORE PUSH1 0x20 ADD PUSH1 0x40 MLOAD DUP1 PUSH1 0x40 ADD PUSH1 0x40 MSTORE DUP1 PUSH1 0x8 DUP2 MSTORE PUSH1 0x20 ADD PUSH32 0x636974696C696E6B000000000000000000000000000000000000000000000000 DUP2 MSTORE POP DUP2 MSTORE POP SWAP1 DUP1 PUSH1 0x1 DUP2 SLOAD ADD DUP1 DUP3 SSTORE DUP1 SWAP2 POP POP PUSH1 0x1 SWAP1 SUB SWAP1 PUSH1 0x0 MSTORE PUSH1 0x20 PUSH1 0x0 KECCAK256 SWAP1 PUSH1 0x3 MUL ADD PUSH1 0x0 SWAP1 SWAP2 SWAP1 SWAP2 SWAP1 SWAP2 POP PUSH1 0x0 DUP3 ADD MLOAD DUP2 PUSH1 0x0 ADD SSTORE PUSH1 0x20 DUP3 ADD MLOAD DUP2 PUSH1 0x1 ADD PUSH1 0x0 PUSH2 0x100 EXP DUP2 SLOAD DUP2 PUSH20 0xFFFFFFFFFFFFFFFFFFFFFFFFFFFFFFFFFFFFFFFF MUL NOT AND SWAP1 DUP4 PUSH20 0xFFFFFFFFFFFFFFFFFFFFFFFFFFFFFFFFFFFFFFFF AND MUL OR SWAP1 SSTORE POP PUSH1 0x40 DUP3 ADD MLOAD DUP2 PUSH1 0x2 ADD SWAP1 DUP2 PUSH3 0x161 SWAP2 SWAP1 PUSH3 0x8D9 JUMP JUMPDEST POP POP POP PUSH1 0x3 PUSH1 0x40 MLOAD DUP1 PUSH1 0x60 ADD PUSH1 0x40 MSTORE DUP1 PUSH1 0x2 DUP2 MSTORE PUSH1 0x20 ADD PUSH20 0x583031D1113AD414F02576BD6AFABFB302140225 PUSH20 0xFFFFFFFFFFFFFFFFFFFFFFFFFFFFFFFFFFFFFFFF AND DUP2 MSTORE PUSH1 0x20 ADD PUSH1 0x40 MLOAD DUP1 PUSH1 0x40 ADD PUSH1 0x40 MSTORE DUP1 PUSH1 0x7 DUP2 MSTORE PUSH1 0x20 ADD PUSH32 0x4D2E766964656F00000000000000000000000000000000000000000000000000 DUP2 MSTORE POP DUP2 MSTORE POP SWAP1 DUP1 PUSH1 0x1 DUP2 SLOAD ADD DUP1 DUP3 SSTORE DUP1 SWAP2 POP POP PUSH1 0x1 SWAP1 SUB SWAP1 PUSH1 0x0 MSTORE PUSH1 0x20 PUSH1 0x0 KECCAK256 SWAP1 PUSH1 0x3 MUL ADD PUSH1 0x0 SWAP1 SWAP2 SWAP1 SWAP2 SWAP1 SWAP2 POP PUSH1 0x0 DUP3 ADD MLOAD DUP2 PUSH1 0x0 ADD SSTORE PUSH1 0x20 DUP3 ADD MLOAD DUP2 PUSH1 0x1 ADD PUSH1 0x0 PUSH2 0x100 EXP DUP2 SLOAD DUP2 PUSH20 0xFFFFFFFFFFFFFFFFFFFFFFFFFFFFFFFFFFFFFFFF MUL NOT AND SWAP1 DUP4 PUSH20 0xFFFFFFFFFFFFFFFFFFFFFFFFFFFFFFFFFFFFFFFF AND MUL OR SWAP1 SSTORE POP PUSH1 0x40 DUP3 ADD MLOAD DUP2 PUSH1 0x2 ADD SWAP1 DUP2 PUSH3 0x272 SWAP2 SWAP1 PUSH3 0x8D9 JUMP JUMPDEST POP POP POP PUSH1 0x4 PUSH1 0x40 MLOAD DUP1 PUSH1 0x60 ADD PUSH1 0x40 MSTORE DUP1 PUSH1 0x1 DUP2 MSTORE PUSH1 0x20 ADD PUSH8 0xDE0B6B3A7640000 DUP2 MSTORE PUSH1 0x20 ADD PUSH1 0x64 DUP2 MSTORE POP SWAP1 DUP1 PUSH1 0x1 DUP2 SLOAD ADD DUP1 DUP3 SSTORE DUP1 SWAP2 POP POP PUSH1 0x1 SWAP1 SUB SWAP1 PUSH1 0x0 MSTORE PUSH1 0x20 PUSH1 0x0 KECCAK256 SWAP1 PUSH1 0x3 MUL ADD PUSH1 0x0 SWAP1 SWAP2 SWAP1 SWAP2 SWAP1 SWAP2 POP PUSH1 0x0 DUP3 ADD MLOAD DUP2 PUSH1 0x0 ADD SSTORE PUSH1 0x20 DUP3 ADD MLOAD DUP2 PUSH1 0x1 ADD SSTORE PUSH1 0x40 DUP3 ADD MLOAD DUP2 PUSH1 0x2 ADD SSTORE POP POP PUSH1 0x1 PUSH1 0x40 MLOAD DUP1 PUSH1 0x80 ADD PUSH1 0x40 MSTORE DUP1 PUSH1 0x4 PUSH1 0x0 DUP2 SLOAD DUP2 LT PUSH3 0x30A JUMPI PUSH3 0x309 PUSH3 0x9C0 JUMP JUMPDEST JUMPDEST SWAP1 PUSH1 0x0 MSTORE PUSH1 0x20 PUSH1 0x0 KECCAK256 SWAP1 PUSH1 0x3 MUL ADD PUSH1 0x0 ADD SLOAD DUP2 MSTORE PUSH1 0x20 ADD PUSH1 0x1 DUP2 MSTORE PUSH1 0x20 ADD PUSH1 0x2 PUSH1 0x4 PUSH1 0x0 DUP2 SLOAD DUP2 LT PUSH3 0x342 JUMPI PUSH3 0x341 PUSH3 0x9C0 JUMP JUMPDEST JUMPDEST SWAP1 PUSH1 0x0 MSTORE PUSH1 0x20 PUSH1 0x0 KECCAK256 SWAP1 PUSH1 0x3 MUL ADD PUSH1 0x1 ADD SLOAD PUSH3 0x360 SWAP2 SWAP1 PUSH3 0xA1E JUMP JUMPDEST DUP2 MSTORE PUSH1 0x20 ADD PUSH1 0x14 DUP2 MSTORE POP SWAP1 DUP1 PUSH1 0x1 DUP2 SLOAD ADD DUP1 DUP3 SSTORE DUP1 SWAP2 POP POP PUSH1 0x1 SWAP1 SUB SWAP1 PUSH1 0x0 MSTORE PUSH1 0x20 PUSH1 0x0 KECCAK256 SWAP1 PUSH1 0x4 MUL ADD PUSH1 0x0 SWAP1 SWAP2 SWAP1 SWAP2 SWAP1 SWAP2 POP PUSH1 0x0 DUP3 ADD MLOAD DUP2 PUSH1 0x0 ADD SSTORE PUSH1 0x20 DUP3 ADD MLOAD DUP2 PUSH1 0x1 ADD SSTORE PUSH1 0x40 DUP3 ADD MLOAD DUP2 PUSH1 0x2 ADD SSTORE PUSH1 0x60 DUP3 ADD MLOAD DUP2 PUSH1 0x3 ADD SSTORE POP POP PUSH1 0x2 PUSH1 0x40 MLOAD DUP1 PUSH1 0x80 ADD PUSH1 0x40 MSTORE DUP1 PUSH1 0x1 DUP2 MSTORE PUSH1 0x20 ADD PUSH1 0x40 MLOAD DUP1 PUSH1 0x40 ADD PUSH1 0x40 MSTORE DUP1 PUSH1 0x6 DUP2 MSTORE PUSH1 0x20 ADD PUSH32 0x536872696D700000000000000000000000000000000000000000000000000000 DUP2 MSTORE POP DUP2 MSTORE PUSH1 0x20 ADD PUSH1 0x40 MLOAD DUP1 PUSH1 0x40 ADD PUSH1 0x40 MSTORE DUP1 PUSH1 0x6 DUP2 MSTORE PUSH1 0x20 ADD PUSH32 0x44657363722E0000000000000000000000000000000000000000000000000000 DUP2 MSTORE POP DUP2 MSTORE PUSH1 0x20 ADD PUSH1 0x5 DUP2 MSTORE POP SWAP1 DUP1 PUSH1 0x1 DUP2 SLOAD ADD DUP1 DUP3 SSTORE DUP1 SWAP2 POP POP PUSH1 0x1 SWAP1 SUB SWAP1 PUSH1 0x0 MSTORE PUSH1 0x20 PUSH1 0x0 KECCAK256 SWAP1 PUSH1 0x4 MUL ADD PUSH1 0x0 SWAP1 SWAP2 SWAP1 SWAP2 SWAP1 SWAP2 POP PUSH1 0x0 DUP3 ADD MLOAD DUP2 PUSH1 0x0 ADD SSTORE PUSH1 0x20 DUP3 ADD MLOAD DUP2 PUSH1 0x1 ADD SWAP1 DUP2 PUSH3 0x496 SWAP2 SWAP1 PUSH3 0x8D9 JUMP JUMPDEST POP PUSH1 0x40 DUP3 ADD MLOAD DUP2 PUSH1 0x2 ADD SWAP1 DUP2 PUSH3 0x4AE SWAP2 SWAP1 PUSH3 0x8D9 JUMP JUMPDEST POP PUSH1 0x60 DUP3 ADD MLOAD DUP2 PUSH1 0x3 ADD SSTORE POP POP PUSH1 0x0 PUSH1 0x40 MLOAD DUP1 PUSH1 0x60 ADD PUSH1 0x40 MSTORE DUP1 PUSH1 0x40 MLOAD DUP1 PUSH1 0x40 ADD PUSH1 0x40 MSTORE DUP1 PUSH1 0x3 DUP2 MSTORE PUSH1 0x20 ADD PUSH32 0x444E530000000000000000000000000000000000000000000000000000000000 DUP2 MSTORE POP DUP2 MSTORE PUSH1 0x20 ADD PUSH20 0xDD870FA1B7C4700F2BD7F44238821C26F7392148 PUSH20 0xFFFFFFFFFFFFFFFFFFFFFFFFFFFFFFFFFFFFFFFF AND DUP2 MSTORE PUSH1 0x20 ADD PUSH1 0x0 DUP2 MSTORE POP SWAP1 DUP1 PUSH1 0x1 DUP2 SLOAD ADD DUP1 DUP3 SSTORE DUP1 SWAP2 POP POP PUSH1 0x1 SWAP1 SUB SWAP1 PUSH1 0x0 MSTORE PUSH1 0x20 PUSH1 0x0 KECCAK256 SWAP1 PUSH1 0x3 MUL ADD PUSH1 0x0 SWAP1 SWAP2 SWAP1 SWAP2 SWAP1 SWAP2 POP PUSH1 0x0 DUP3 ADD MLOAD DUP2 PUSH1 0x0 ADD SWAP1 DUP2 PUSH3 0x578 SWAP2 SWAP1 PUSH3 0x8D9 JUMP JUMPDEST POP PUSH1 0x20 DUP3 ADD MLOAD DUP2 PUSH1 0x1 ADD PUSH1 0x0 PUSH2 0x100 EXP DUP2 SLOAD DUP2 PUSH20 0xFFFFFFFFFFFFFFFFFFFFFFFFFFFFFFFFFFFFFFFF MUL NOT AND SWAP1 DUP4 PUSH20 0xFFFFFFFFFFFFFFFFFFFFFFFFFFFFFFFFFFFFFFFF AND MUL OR SWAP1 SSTORE POP PUSH1 0x40 DUP3 ADD MLOAD DUP2 PUSH1 0x2 ADD SSTORE POP POP PUSH1 0x0 PUSH1 0x13 PUSH1 0x0 DUP1 PUSH1 0x0 DUP2 SLOAD DUP2 LT PUSH3 0x5E9 JUMPI PUSH3 0x5E8 PUSH3 0x9C0 JUMP JUMPDEST JUMPDEST SWAP1 PUSH1 0x0 MSTORE PUSH1 0x20 PUSH1 0x0 KECCAK256 SWAP1 PUSH1 0x3 MUL ADD PUSH1 0x1 ADD PUSH1 0x0 SWAP1 SLOAD SWAP1 PUSH2 0x100 EXP SWAP1 DIV PUSH20 0xFFFFFFFFFFFFFFFFFFFFFFFFFFFFFFFFFFFFFFFF AND PUSH20 0xFFFFFFFFFFFFFFFFFFFFFFFFFFFFFFFFFFFFFFFF AND PUSH20 0xFFFFFFFFFFFFFFFFFFFFFFFFFFFFFFFFFFFFFFFF AND DUP2 MSTORE PUSH1 0x20 ADD SWAP1 DUP2 MSTORE PUSH1 0x20 ADD PUSH1 0x0 KECCAK256 DUP2 SWAP1 SSTORE POP PUSH3 0xA69 JUMP JUMPDEST PUSH1 0x0 DUP2 MLOAD SWAP1 POP SWAP2 SWAP1 POP JUMP JUMPDEST PUSH32 0x4E487B7100000000000000000000000000000000000000000000000000000000 PUSH1 0x0 MSTORE PUSH1 0x41 PUSH1 0x4 MSTORE PUSH1 0x24 PUSH1 0x0 REVERT JUMPDEST PUSH32 0x4E487B7100000000000000000000000000000000000000000000000000000000 PUSH1 0x0 MSTORE PUSH1 0x22 PUSH1 0x4 MSTORE PUSH1 0x24 PUSH1 0x0 REVERT JUMPDEST PUSH1 0x0 PUSH1 0x2 DUP3 DIV SWAP1 POP PUSH1 0x1 DUP3 AND DUP1 PUSH3 0x6E1 JUMPI PUSH1 0x7F DUP3 AND SWAP2 POP JUMPDEST PUSH1 0x20 DUP3 LT DUP2 SUB PUSH3 0x6F7 JUMPI PUSH3 0x6F6 PUSH3 0x699 JUMP JUMPDEST JUMPDEST POP SWAP2 SWAP1 POP JUMP JUMPDEST PUSH1 0x0 DUP2 SWAP1 POP DUP2 PUSH1 0x0 MSTORE PUSH1 0x20 PUSH1 0x0 KECCAK256 SWAP1 POP SWAP2 SWAP1 POP JUMP JUMPDEST PUSH1 0x0 PUSH1 0x20 PUSH1 0x1F DUP4 ADD DIV SWAP1 POP SWAP2 SWAP1 POP JUMP JUMPDEST PUSH1 0x0 DUP3 DUP3 SHL SWAP1 POP SWAP3 SWAP2 POP POP JUMP JUMPDEST PUSH1 0x0 PUSH1 0x8 DUP4 MUL PUSH3 0x761 PUSH32 0xFFFFFFFFFFFFFFFFFFFFFFFFFFFFFFFFFFFFFFFFFFFFFFFFFFFFFFFFFFFFFFFF DUP3 PUSH3 0x722 JUMP JUMPDEST PUSH3 0x76D DUP7 DUP4 PUSH3 0x722 JUMP JUMPDEST SWAP6 POP DUP1 NOT DUP5 AND SWAP4 POP DUP1 DUP7 AND DUP5 OR SWAP3 POP POP POP SWAP4 SWAP3 POP POP POP JUMP JUMPDEST PUSH1 0x0 DUP2 SWAP1 POP SWAP2 SWAP1 POP JUMP JUMPDEST PUSH1 0x0 DUP2 SWAP1 POP SWAP2 SWAP1 POP JUMP JUMPDEST PUSH1 0x0 PUSH3 0x7BA PUSH3 0x7B4 PUSH3 0x7AE DUP5 PUSH3 0x785 JUMP JUMPDEST PUSH3 0x78F JUMP JUMPDEST PUSH3 0x785 JUMP JUMPDEST SWAP1 POP SWAP2 SWAP1 POP JUMP JUMPDEST PUSH1 0x0 DUP2 SWAP1 POP SWAP2 SWAP1 POP JUMP JUMPDEST PUSH3 0x7D6 DUP4 PUSH3 0x799 JUMP JUMPDEST PUSH3 0x7EE PUSH3 0x7E5 DUP3 PUSH3 0x7C1 JUMP JUMPDEST DUP5 DUP5 SLOAD PUSH3 0x72F JUMP JUMPDEST DUP3 SSTORE POP POP POP POP JUMP JUMPDEST PUSH1 0x0 SWAP1 JUMP JUMPDEST PUSH3 0x805 PUSH3 0x7F6 JUMP JUMPDEST PUSH3 0x812 DUP2 DUP5 DUP5 PUSH3 0x7CB JUMP JUMPDEST POP POP POP JUMP JUMPDEST JUMPDEST DUP2 DUP2 LT ISZERO PUSH3 0x83A JUMPI PUSH3 0x82E PUSH1 0x0 DUP3 PUSH3 0x7FB JUMP JUMPDEST PUSH1 0x1 DUP2 ADD SWAP1 POP PUSH3 0x818 JUMP JUMPDEST POP POP JUMP JUMPDEST PUSH1 0x1F DUP3 GT ISZERO PUSH3 0x889 JUMPI PUSH3 0x853 DUP2 PUSH3 0x6FD JUMP JUMPDEST PUSH3 0x85E DUP5 PUSH3 0x712 JUMP JUMPDEST DUP2 ADD PUSH1 0x20 DUP6 LT ISZERO PUSH3 0x86E JUMPI DUP2 SWAP1 POP JUMPDEST PUSH3 0x886 PUSH3 0x87D DUP6 PUSH3 0x712 JUMP JUMPDEST DUP4 ADD DUP3 PUSH3 0x817 JUMP JUMPDEST POP POP JUMPDEST POP POP POP JUMP JUMPDEST PUSH1 0x0 DUP3 DUP3 SHR SWAP1 POP SWAP3 SWAP2 POP POP JUMP JUMPDEST PUSH1 0x0 PUSH3 0x8AE PUSH1 0x0 NOT DUP5 PUSH1 0x8 MUL PUSH3 0x88E JUMP JUMPDEST NOT DUP1 DUP4 AND SWAP2 POP POP SWAP3 SWAP2 POP POP JUMP JUMPDEST PUSH1 0x0 PUSH3 0x8C9 DUP4 DUP4 PUSH3 0x89B JUMP JUMPDEST SWAP2 POP DUP3 PUSH1 0x2 MUL DUP3 OR SWAP1 POP SWAP3 SWAP2 POP POP JUMP JUMPDEST PUSH3 0x8E4 DUP3 PUSH3 0x65F JUMP JUMPDEST PUSH8 0xFFFFFFFFFFFFFFFF DUP2 GT ISZERO PUSH3 0x900 JUMPI PUSH3 0x8FF PUSH3 0x66A JUMP JUMPDEST JUMPDEST PUSH3 0x90C DUP3 SLOAD PUSH3 0x6C8 JUMP JUMPDEST PUSH3 0x919 DUP3 DUP3 DUP6 PUSH3 0x83E JUMP JUMPDEST PUSH1 0x0 PUSH1 0x20 SWAP1 POP PUSH1 0x1F DUP4 GT PUSH1 0x1 DUP2 EQ PUSH3 0x951 JUMPI PUSH1 0x0 DUP5 ISZERO PUSH3 0x93C JUMPI DUP3 DUP8 ADD MLOAD SWAP1 POP JUMPDEST PUSH3 0x948 DUP6 DUP3 PUSH3 0x8BB JUMP JUMPDEST DUP7 SSTORE POP PUSH3 0x9B8 JUMP JUMPDEST PUSH1 0x1F NOT DUP5 AND PUSH3 0x961 DUP7 PUSH3 0x6FD JUMP JUMPDEST PUSH1 0x0 JUMPDEST DUP3 DUP2 LT ISZERO PUSH3 0x98B JUMPI DUP5 DUP10 ADD MLOAD DUP3 SSTORE PUSH1 0x1 DUP3 ADD SWAP2 POP PUSH1 0x20 DUP6 ADD SWAP5 POP PUSH1 0x20 DUP2 ADD SWAP1 POP PUSH3 0x964 JUMP JUMPDEST DUP7 DUP4 LT ISZERO PUSH3 0x9AB JUMPI DUP5 DUP10 ADD MLOAD PUSH3 0x9A7 PUSH1 0x1F DUP10 AND DUP3 PUSH3 0x89B JUMP JUMPDEST DUP4 SSTORE POP JUMPDEST PUSH1 0x1 PUSH1 0x2 DUP9 MUL ADD DUP9 SSTORE POP POP POP JUMPDEST POP POP POP POP POP POP JUMP JUMPDEST PUSH32 0x4E487B7100000000000000000000000000000000000000000000000000000000 PUSH1 0x0 MSTORE PUSH1 0x32 PUSH1 0x4 MSTORE PUSH1 0x24 PUSH1 0x0 REVERT JUMPDEST PUSH32 0x4E487B7100000000000000000000000000000000000000000000000000000000 PUSH1 0x0 MSTORE PUSH1 0x11 PUSH1 0x4 MSTORE PUSH1 0x24 PUSH1 0x0 REVERT JUMPDEST PUSH1 0x0 PUSH3 0xA2B DUP3 PUSH3 0x785 JUMP JUMPDEST SWAP2 POP PUSH3 0xA38 DUP4 PUSH3 0x785 JUMP JUMPDEST SWAP3 POP DUP3 DUP3 MUL PUSH3 0xA48 DUP2 PUSH3 0x785 JUMP JUMPDEST SWAP2 POP DUP3 DUP3 DIV DUP5 EQ DUP4 ISZERO OR PUSH3 0xA62 JUMPI PUSH3 0xA61 PUSH3 0x9EF JUMP JUMPDEST JUMPDEST POP SWAP3 SWAP2 POP POP JUMP JUMPDEST PUSH2 0x5EAF DUP1 PUSH3 0xA79 PUSH1 0x0 CODECOPY PUSH1 0x0 RETURN INVALID PUSH1 0x80 PUSH1 0x40 MSTORE PUSH1 0x4 CALLDATASIZE LT PUSH2 0x9C JUMPI PUSH1 0x0 CALLDATALOAD PUSH1 0xE0 SHR DUP1 PUSH4 0xD2CEDF04 GT PUSH2 0x64 JUMPI DUP1 PUSH4 0xD2CEDF04 EQ PUSH2 0x142 JUMPI DUP1 PUSH4 0xD9BD29D4 EQ PUSH2 0x15E JUMPI DUP1 PUSH4 0xDB9C5571 EQ PUSH2 0x187 JUMPI DUP1 PUSH4 0xDD26D4D9 EQ PUSH2 0x1B0 JUMPI DUP1 PUSH4 0xDF8903D8 EQ PUSH2 0x1CC JUMPI DUP1 PUSH4 0xEB277CF9 EQ PUSH2 0x1E8 JUMPI PUSH2 0x9C JUMP JUMPDEST DUP1 PUSH4 0x62CC01E7 EQ PUSH2 0xA1 JUMPI DUP1 PUSH4 0xAB166BE6 EQ PUSH2 0xBD JUMPI DUP1 PUSH4 0xB107CBCE EQ PUSH2 0xD9 JUMPI DUP1 PUSH4 0xBF6C0B48 EQ PUSH2 0x102 JUMPI DUP1 PUSH4 0xD0CCD213 EQ PUSH2 0x12B JUMPI JUMPDEST PUSH1 0x0 DUP1 REVERT JUMPDEST PUSH2 0xBB PUSH1 0x4 DUP1 CALLDATASIZE SUB DUP2 ADD SWAP1 PUSH2 0xB6 SWAP2 SWAP1 PUSH2 0x448E JUMP JUMPDEST PUSH2 0x211 JUMP JUMPDEST STOP JUMPDEST PUSH2 0xD7 PUSH1 0x4 DUP1 CALLDATASIZE SUB DUP2 ADD SWAP1 PUSH2 0xD2 SWAP2 SWAP1 PUSH2 0x4506 JUMP JUMPDEST PUSH2 0x6BE JUMP JUMPDEST STOP JUMPDEST CALLVALUE DUP1 ISZERO PUSH2 0xE5 JUMPI PUSH1 0x0 DUP1 REVERT JUMPDEST POP PUSH2 0x100 PUSH1 0x4 DUP1 CALLDATASIZE SUB DUP2 ADD SWAP1 PUSH2 0xFB SWAP2 SWAP1 PUSH2 0x457C JUMP JUMPDEST PUSH2 0xB1F JUMP JUMPDEST STOP JUMPDEST CALLVALUE DUP1 ISZERO PUSH2 0x10E JUMPI PUSH1 0x0 DUP1 REVERT JUMPDEST POP PUSH2 0x129 PUSH1 0x4 DUP1 CALLDATASIZE SUB DUP2 ADD SWAP1 PUSH2 0x124 SWAP2 SWAP1 PUSH2 0x461A JUMP JUMPDEST PUSH2 0xCEF JUMP JUMPDEST STOP JUMPDEST CALLVALUE DUP1 ISZERO PUSH2 0x137 JUMPI PUSH1 0x0 DUP1 REVERT JUMPDEST POP PUSH2 0x140 PUSH2 0x1003 JUMP JUMPDEST STOP JUMPDEST PUSH2 0x15C PUSH1 0x4 DUP1 CALLDATASIZE SUB DUP2 ADD SWAP1 PUSH2 0x157 SWAP2 SWAP1 PUSH2 0x4647 JUMP JUMPDEST PUSH2 0x1259 JUMP JUMPDEST STOP JUMPDEST CALLVALUE DUP1 ISZERO PUSH2 0x16A JUMPI PUSH1 0x0 DUP1 REVERT JUMPDEST POP PUSH2 0x185 PUSH1 0x4 DUP1 CALLDATASIZE SUB DUP2 ADD SWAP1 PUSH2 0x180 SWAP2 SWAP1 PUSH2 0x47DF JUMP JUMPDEST PUSH2 0x146E JUMP JUMPDEST STOP JUMPDEST CALLVALUE DUP1 ISZERO PUSH2 0x193 JUMPI PUSH1 0x0 DUP1 REVERT JUMPDEST POP PUSH2 0x1AE PUSH1 0x4 DUP1 CALLDATASIZE SUB DUP2 ADD SWAP1 PUSH2 0x1A9 SWAP2 SWAP1 PUSH2 0x483B JUMP JUMPDEST PUSH2 0x15E2 JUMP JUMPDEST STOP JUMPDEST PUSH2 0x1CA PUSH1 0x4 DUP1 CALLDATASIZE SUB DUP2 ADD SWAP1 PUSH2 0x1C5 SWAP2 SWAP1 PUSH2 0x48BE JUMP JUMPDEST PUSH2 0x1EB4 JUMP JUMPDEST STOP JUMPDEST PUSH2 0x1E6 PUSH1 0x4 DUP1 CALLDATASIZE SUB DUP2 ADD SWAP1 PUSH2 0x1E1 SWAP2 SWAP1 PUSH2 0x4911 JUMP JUMPDEST PUSH2 0x2203 JUMP JUMPDEST STOP JUMPDEST CALLVALUE DUP1 ISZERO PUSH2 0x1F4 JUMPI PUSH1 0x0 DUP1 REVERT JUMPDEST POP PUSH2 0x20F PUSH1 0x4 DUP1 CALLDATASIZE SUB DUP2 ADD SWAP1 PUSH2 0x20A SWAP2 SWAP1 PUSH2 0x4647 JUMP JUMPDEST PUSH2 0x2A97 JUMP JUMPDEST STOP JUMPDEST PUSH1 0x0 DUP1 JUMPDEST PUSH1 0x0 DUP1 SLOAD SWAP1 POP DUP2 LT ISZERO PUSH2 0x2B2 JUMPI CALLER PUSH20 0xFFFFFFFFFFFFFFFFFFFFFFFFFFFFFFFFFFFFFFFF AND PUSH1 0x0 DUP3 DUP2 SLOAD DUP2 LT PUSH2 0x24D JUMPI PUSH2 0x24C PUSH2 0x4964 JUMP JUMPDEST JUMPDEST SWAP1 PUSH1 0x0 MSTORE PUSH1 0x20 PUSH1 0x0 KECCAK256 SWAP1 PUSH1 0x3 MUL ADD PUSH1 0x1 ADD PUSH1 0x0 SWAP1 SLOAD SWAP1 PUSH2 0x100 EXP SWAP1 DIV PUSH20 0xFFFFFFFFFFFFFFFFFFFFFFFFFFFFFFFFFFFFFFFF AND PUSH20 0xFFFFFFFFFFFFFFFFFFFFFFFFFFFFFFFFFFFFFFFF AND SUB PUSH2 0x29F JUMPI PUSH1 0x1 SWAP2 POP JUMPDEST DUP1 DUP1 PUSH2 0x2AA SWAP1 PUSH2 0x49C2 JUMP JUMPDEST SWAP2 POP POP PUSH2 0x215 JUMP JUMPDEST POP PUSH1 0x1 ISZERO ISZERO DUP2 ISZERO ISZERO EQ PUSH2 0x2FA JUMPI PUSH1 0x40 MLOAD PUSH32 0x8C379A000000000000000000000000000000000000000000000000000000000 DUP2 MSTORE PUSH1 0x4 ADD PUSH2 0x2F1 SWAP1 PUSH2 0x4A67 JUMP JUMPDEST PUSH1 0x40 MLOAD DUP1 SWAP2 SUB SWAP1 REVERT JUMPDEST DUP3 PUSH1 0x6 DUP1 SLOAD SWAP1 POP DUP2 LT PUSH2 0x342 JUMPI PUSH1 0x40 MLOAD PUSH32 0x8C379A000000000000000000000000000000000000000000000000000000000 DUP2 MSTORE PUSH1 0x4 ADD PUSH2 0x339 SWAP1 PUSH2 0x4AF9 JUMP JUMPDEST PUSH1 0x40 MLOAD DUP1 SWAP2 SUB SWAP1 REVERT JUMPDEST CALLVALUE PUSH1 0x6 DUP6 DUP2 SLOAD DUP2 LT PUSH2 0x357 JUMPI PUSH2 0x356 PUSH2 0x4964 JUMP JUMPDEST JUMPDEST SWAP1 PUSH1 0x0 MSTORE PUSH1 0x20 PUSH1 0x0 KECCAK256 SWAP1 PUSH1 0x8 MUL ADD PUSH1 0x4 ADD SLOAD PUSH1 0x1 PUSH1 0x6 DUP8 DUP2 SLOAD DUP2 LT PUSH2 0x37F JUMPI PUSH2 0x37E PUSH2 0x4964 JUMP JUMPDEST JUMPDEST SWAP1 PUSH1 0x0 MSTORE PUSH1 0x20 PUSH1 0x0 KECCAK256 SWAP1 PUSH1 0x8 MUL ADD PUSH1 0x3 ADD SLOAD DUP2 SLOAD DUP2 LT PUSH2 0x3A2 JUMPI PUSH2 0x3A1 PUSH2 0x4964 JUMP JUMPDEST JUMPDEST SWAP1 PUSH1 0x0 MSTORE PUSH1 0x20 PUSH1 0x0 KECCAK256 SWAP1 PUSH1 0x4 MUL ADD PUSH1 0x2 ADD SLOAD PUSH2 0x3BE SWAP2 SWAP1 PUSH2 0x4B19 JUMP JUMPDEST GT ISZERO PUSH2 0x3FF JUMPI PUSH1 0x40 MLOAD PUSH32 0x8C379A000000000000000000000000000000000000000000000000000000000 DUP2 MSTORE PUSH1 0x4 ADD PUSH2 0x3F6 SWAP1 PUSH2 0x4BCD JUMP JUMPDEST PUSH1 0x40 MLOAD DUP1 SWAP2 SUB SWAP1 REVERT JUMPDEST PUSH1 0x0 PUSH1 0x16 PUSH1 0x0 CALLER PUSH20 0xFFFFFFFFFFFFFFFFFFFFFFFFFFFFFFFFFFFFFFFF AND PUSH20 0xFFFFFFFFFFFFFFFFFFFFFFFFFFFFFFFFFFFFFFFF AND DUP2 MSTORE PUSH1 0x20 ADD SWAP1 DUP2 MSTORE PUSH1 0x20 ADD PUSH1 0x0 KECCAK256 DUP1 SLOAD DUP1 PUSH1 0x20 MUL PUSH1 0x20 ADD PUSH1 0x40 MLOAD SWAP1 DUP2 ADD PUSH1 0x40 MSTORE DUP1 SWAP3 SWAP2 SWAP1 DUP2 DUP2 MSTORE PUSH1 0x20 ADD DUP3 DUP1 SLOAD DUP1 ISZERO PUSH2 0x4C0 JUMPI PUSH1 0x20 MUL DUP3 ADD SWAP2 SWAP1 PUSH1 0x0 MSTORE PUSH1 0x20 PUSH1 0x0 KECCAK256 SWAP1 JUMPDEST DUP2 PUSH1 0x0 SWAP1 SLOAD SWAP1 PUSH2 0x100 EXP SWAP1 DIV PUSH20 0xFFFFFFFFFFFFFFFFFFFFFFFFFFFFFFFFFFFFFFFF AND PUSH20 0xFFFFFFFFFFFFFFFFFFFFFFFFFFFFFFFFFFFFFFFF AND DUP2 MSTORE PUSH1 0x20 ADD SWAP1 PUSH1 0x1 ADD SWAP1 DUP1 DUP4 GT PUSH2 0x476 JUMPI JUMPDEST POP POP POP POP POP SWAP1 POP PUSH1 0x0 PUSH1 0x6 DUP7 DUP2 SLOAD DUP2 LT PUSH2 0x4DD JUMPI PUSH2 0x4DC PUSH2 0x4964 JUMP JUMPDEST JUMPDEST SWAP1 PUSH1 0x0 MSTORE PUSH1 0x20 PUSH1 0x0 KECCAK256 SWAP1 PUSH1 0x8 MUL ADD PUSH1 0x1 ADD SLOAD SWAP1 POP PUSH1 0x4 PUSH1 0x5 DUP2 GT ISZERO PUSH2 0x505 JUMPI PUSH2 0x504 PUSH2 0x4BED JUMP JUMPDEST JUMPDEST PUSH1 0x6 DUP8 DUP2 SLOAD DUP2 LT PUSH2 0x519 JUMPI PUSH2 0x518 PUSH2 0x4964 JUMP JUMPDEST JUMPDEST SWAP1 PUSH1 0x0 MSTORE PUSH1 0x20 PUSH1 0x0 KECCAK256 SWAP1 PUSH1 0x8 MUL ADD PUSH1 0x6 ADD PUSH1 0x0 SWAP1 SLOAD SWAP1 PUSH2 0x100 EXP SWAP1 DIV PUSH1 0xFF AND PUSH1 0x5 DUP2 GT ISZERO PUSH2 0x54A JUMPI PUSH2 0x549 PUSH2 0x4BED JUMP JUMPDEST JUMPDEST EQ PUSH2 0x58A JUMPI PUSH1 0x40 MLOAD PUSH32 0x8C379A000000000000000000000000000000000000000000000000000000000 DUP2 MSTORE PUSH1 0x4 ADD PUSH2 0x581 SWAP1 PUSH2 0x4C68 JUMP JUMPDEST PUSH1 0x40 MLOAD DUP1 SWAP2 SUB SWAP1 REVERT JUMPDEST DUP2 DUP2 DUP2 MLOAD DUP2 LT PUSH2 0x59D JUMPI PUSH2 0x59C PUSH2 0x4964 JUMP JUMPDEST JUMPDEST PUSH1 0x20 MUL PUSH1 0x20 ADD ADD MLOAD PUSH20 0xFFFFFFFFFFFFFFFFFFFFFFFFFFFFFFFFFFFFFFFF AND PUSH2 0x8FC PUSH1 0xE SLOAD SWAP1 DUP2 ISZERO MUL SWAP1 PUSH1 0x40 MLOAD PUSH1 0x0 PUSH1 0x40 MLOAD DUP1 DUP4 SUB DUP2 DUP6 DUP9 DUP9 CALL SWAP4 POP POP POP POP ISZERO DUP1 ISZERO PUSH2 0x5EC JUMPI RETURNDATASIZE PUSH1 0x0 DUP1 RETURNDATACOPY RETURNDATASIZE PUSH1 0x0 REVERT JUMPDEST POP PUSH1 0x5 PUSH1 0x6 DUP8 DUP2 SLOAD DUP2 LT PUSH2 0x603 JUMPI PUSH2 0x602 PUSH2 0x4964 JUMP JUMPDEST JUMPDEST SWAP1 PUSH1 0x0 MSTORE PUSH1 0x20 PUSH1 0x0 KECCAK256 SWAP1 PUSH1 0x8 MUL ADD PUSH1 0x6 ADD PUSH1 0x0 PUSH2 0x100 EXP DUP2 SLOAD DUP2 PUSH1 0xFF MUL NOT AND SWAP1 DUP4 PUSH1 0x5 DUP2 GT ISZERO PUSH2 0x636 JUMPI PUSH2 0x635 PUSH2 0x4BED JUMP JUMPDEST JUMPDEST MUL OR SWAP1 SSTORE POP DUP2 DUP2 DUP2 MLOAD DUP2 LT PUSH2 0x64E JUMPI PUSH2 0x64D PUSH2 0x4964 JUMP JUMPDEST JUMPDEST PUSH1 0x20 MUL PUSH1 0x20 ADD ADD PUSH1 0x0 PUSH20 0xFFFFFFFFFFFFFFFFFFFFFFFFFFFFFFFFFFFFFFFF AND DUP2 MSTORE POP PUSH1 0xE SLOAD PUSH1 0x0 DUP7 DUP2 SLOAD DUP2 LT PUSH2 0x687 JUMPI PUSH2 0x686 PUSH2 0x4964 JUMP JUMPDEST JUMPDEST SWAP1 PUSH1 0x0 MSTORE PUSH1 0x20 PUSH1 0x0 KECCAK256 SWAP1 PUSH1 0x3 MUL ADD PUSH1 0x2 ADD PUSH1 0x0 DUP3 DUP3 SLOAD PUSH2 0x6A7 SWAP2 SWAP1 PUSH2 0x4C88 JUMP JUMPDEST SWAP3 POP POP DUP2 SWAP1 SSTORE POP PUSH1 0x0 PUSH1 0xE DUP2 SWAP1 SSTORE POP POP POP POP POP POP POP JUMP JUMPDEST PUSH1 0x0 DUP1 JUMPDEST PUSH1 0x0 DUP1 SLOAD SWAP1 POP DUP2 LT ISZERO PUSH2 0x75F JUMPI CALLER PUSH20 0xFFFFFFFFFFFFFFFFFFFFFFFFFFFFFFFFFFFFFFFF AND PUSH1 0x0 DUP3 DUP2 SLOAD DUP2 LT PUSH2 0x6FA JUMPI PUSH2 0x6F9 PUSH2 0x4964 JUMP JUMPDEST JUMPDEST SWAP1 PUSH1 0x0 MSTORE PUSH1 0x20 PUSH1 0x0 KECCAK256 SWAP1 PUSH1 0x3 MUL ADD PUSH1 0x1 ADD PUSH1 0x0 SWAP1 SLOAD SWAP1 PUSH2 0x100 EXP SWAP1 DIV PUSH20 0xFFFFFFFFFFFFFFFFFFFFFFFFFFFFFFFFFFFFFFFF AND PUSH20 0xFFFFFFFFFFFFFFFFFFFFFFFFFFFFFFFFFFFFFFFF AND SUB PUSH2 0x74C JUMPI PUSH1 0x1 SWAP2 POP JUMPDEST DUP1 DUP1 PUSH2 0x757 SWAP1 PUSH2 0x49C2 JUMP JUMPDEST SWAP2 POP POP PUSH2 0x6C2 JUMP JUMPDEST POP PUSH1 0x1 ISZERO ISZERO DUP2 ISZERO ISZERO EQ PUSH2 0x7A7 JUMPI PUSH1 0x40 MLOAD PUSH32 0x8C379A000000000000000000000000000000000000000000000000000000000 DUP2 MSTORE PUSH1 0x4 ADD PUSH2 0x79E SWAP1 PUSH2 0x4A67 JUMP JUMPDEST PUSH1 0x40 MLOAD DUP1 SWAP2 SUB SWAP1 REVERT JUMPDEST PUSH1 0x0 PUSH1 0x5 DUP2 GT ISZERO PUSH2 0x7BB JUMPI PUSH2 0x7BA PUSH2 0x4BED JUMP JUMPDEST JUMPDEST PUSH1 0x6 DUP4 DUP2 SLOAD DUP2 LT PUSH2 0x7CF JUMPI PUSH2 0x7CE PUSH2 0x4964 JUMP JUMPDEST JUMPDEST SWAP1 PUSH1 0x0 MSTORE PUSH1 0x20 PUSH1 0x0 KECCAK256 SWAP1 PUSH1 0x8 MUL ADD PUSH1 0x6 ADD PUSH1 0x0 SWAP1 SLOAD SWAP1 PUSH2 0x100 EXP SWAP1 DIV PUSH1 0xFF AND PUSH1 0x5 DUP2 GT ISZERO PUSH2 0x800 JUMPI PUSH2 0x7FF PUSH2 0x4BED JUMP JUMPDEST JUMPDEST EQ PUSH2 0x840 JUMPI PUSH1 0x40 MLOAD PUSH32 0x8C379A000000000000000000000000000000000000000000000000000000000 DUP2 MSTORE PUSH1 0x4 ADD PUSH2 0x837 SWAP1 PUSH2 0x4D2E JUMP JUMPDEST PUSH1 0x40 MLOAD DUP1 SWAP2 SUB SWAP1 REVERT JUMPDEST PUSH1 0x1 ISZERO ISZERO DUP4 ISZERO ISZERO SUB PUSH2 0x8D6 JUMPI PUSH1 0x0 PUSH2 0x856 PUSH2 0x3258 JUMP JUMPDEST SWAP1 POP DUP1 PUSH1 0x6 DUP5 DUP2 SLOAD DUP2 LT PUSH2 0x86D JUMPI PUSH2 0x86C PUSH2 0x4964 JUMP JUMPDEST JUMPDEST SWAP1 PUSH1 0x0 MSTORE PUSH1 0x20 PUSH1 0x0 KECCAK256 SWAP1 PUSH1 0x8 MUL ADD PUSH1 0x7 ADD DUP2 SWAP1 SSTORE POP PUSH1 0x1 PUSH1 0x6 DUP5 DUP2 SLOAD DUP2 LT PUSH2 0x898 JUMPI PUSH2 0x897 PUSH2 0x4964 JUMP JUMPDEST JUMPDEST SWAP1 PUSH1 0x0 MSTORE PUSH1 0x20 PUSH1 0x0 KECCAK256 SWAP1 PUSH1 0x8 MUL ADD PUSH1 0x6 ADD PUSH1 0x0 PUSH2 0x100 EXP DUP2 SLOAD DUP2 PUSH1 0xFF MUL NOT AND SWAP1 DUP4 PUSH1 0x5 DUP2 GT ISZERO PUSH2 0x8CB JUMPI PUSH2 0x8CA PUSH2 0x4BED JUMP JUMPDEST JUMPDEST MUL OR SWAP1 SSTORE POP POP PUSH2 0xB1A JUMP JUMPDEST PUSH1 0x0 ISZERO ISZERO DUP4 ISZERO ISZERO SUB PUSH2 0xB19 JUMPI PUSH1 0x6 DUP3 DUP2 SLOAD DUP2 LT PUSH2 0x8F6 JUMPI PUSH2 0x8F5 PUSH2 0x4964 JUMP JUMPDEST JUMPDEST SWAP1 PUSH1 0x0 MSTORE PUSH1 0x20 PUSH1 0x0 KECCAK256 SWAP1 PUSH1 0x8 MUL ADD PUSH1 0x4 ADD SLOAD PUSH1 0x1 PUSH1 0x6 DUP5 DUP2 SLOAD DUP2 LT PUSH2 0x91E JUMPI PUSH2 0x91D PUSH2 0x4964 JUMP JUMPDEST JUMPDEST SWAP1 PUSH1 0x0 MSTORE PUSH1 0x20 PUSH1 0x0 KECCAK256 SWAP1 PUSH1 0x8 MUL ADD PUSH1 0x3 ADD SLOAD DUP2 SLOAD DUP2 LT PUSH2 0x941 JUMPI PUSH2 0x940 PUSH2 0x4964 JUMP JUMPDEST JUMPDEST SWAP1 PUSH1 0x0 MSTORE PUSH1 0x20 PUSH1 0x0 KECCAK256 SWAP1 PUSH1 0x4 MUL ADD PUSH1 0x2 ADD SLOAD PUSH2 0x95D SWAP2 SWAP1 PUSH2 0x4B19 JUMP JUMPDEST CALLVALUE LT ISZERO PUSH2 0x99F JUMPI PUSH1 0x40 MLOAD PUSH32 0x8C379A000000000000000000000000000000000000000000000000000000000 DUP2 MSTORE PUSH1 0x4 ADD PUSH2 0x996 SWAP1 PUSH2 0x4D9A JUMP JUMPDEST PUSH1 0x40 MLOAD DUP1 SWAP2 SUB SWAP1 REVERT JUMPDEST PUSH1 0x2 PUSH1 0x6 DUP4 DUP2 SLOAD DUP2 LT PUSH2 0x9B5 JUMPI PUSH2 0x9B4 PUSH2 0x4964 JUMP JUMPDEST JUMPDEST SWAP1 PUSH1 0x0 MSTORE PUSH1 0x20 PUSH1 0x0 KECCAK256 SWAP1 PUSH1 0x8 MUL ADD PUSH1 0x6 ADD PUSH1 0x0 PUSH2 0x100 EXP DUP2 SLOAD DUP2 PUSH1 0xFF MUL NOT AND SWAP1 DUP4 PUSH1 0x5 DUP2 GT ISZERO PUSH2 0x9E8 JUMPI PUSH2 0x9E7 PUSH2 0x4BED JUMP JUMPDEST JUMPDEST MUL OR SWAP1 SSTORE POP PUSH1 0x7 PUSH1 0x6 DUP4 DUP2 SLOAD DUP2 LT PUSH2 0xA03 JUMPI PUSH2 0xA02 PUSH2 0x4964 JUMP JUMPDEST JUMPDEST SWAP1 PUSH1 0x0 MSTORE PUSH1 0x20 PUSH1 0x0 KECCAK256 SWAP1 PUSH1 0x8 MUL ADD PUSH1 0x1 ADD SLOAD DUP2 SLOAD DUP2 LT PUSH2 0xA26 JUMPI PUSH2 0xA25 PUSH2 0x4964 JUMP JUMPDEST JUMPDEST SWAP1 PUSH1 0x0 MSTORE PUSH1 0x20 PUSH1 0x0 KECCAK256 SWAP1 PUSH1 0x3 MUL ADD PUSH1 0x0 ADD PUSH1 0x0 SWAP1 SLOAD SWAP1 PUSH2 0x100 EXP SWAP1 DIV PUSH20 0xFFFFFFFFFFFFFFFFFFFFFFFFFFFFFFFFFFFFFFFF AND PUSH20 0xFFFFFFFFFFFFFFFFFFFFFFFFFFFFFFFFFFFFFFFF AND PUSH2 0x8FC PUSH1 0x6 DUP5 DUP2 SLOAD DUP2 LT PUSH2 0xA85 JUMPI PUSH2 0xA84 PUSH2 0x4964 JUMP JUMPDEST JUMPDEST SWAP1 PUSH1 0x0 MSTORE PUSH1 0x20 PUSH1 0x0 KECCAK256 SWAP1 PUSH1 0x8 MUL ADD PUSH1 0x4 ADD SLOAD PUSH1 0x1 PUSH1 0x6 DUP7 DUP2 SLOAD DUP2 LT PUSH2 0xAAD JUMPI PUSH2 0xAAC PUSH2 0x4964 JUMP JUMPDEST JUMPDEST SWAP1 PUSH1 0x0 MSTORE PUSH1 0x20 PUSH1 0x0 KECCAK256 SWAP1 PUSH1 0x8 MUL ADD PUSH1 0x3 ADD SLOAD DUP2 SLOAD DUP2 LT PUSH2 0xAD0 JUMPI PUSH2 0xACF PUSH2 0x4964 JUMP JUMPDEST JUMPDEST SWAP1 PUSH1 0x0 MSTORE PUSH1 0x20 PUSH1 0x0 KECCAK256 SWAP1 PUSH1 0x4 MUL ADD PUSH1 0x2 ADD SLOAD PUSH2 0xAEC SWAP2 SWAP1 PUSH2 0x4B19 JUMP JUMPDEST SWAP1 DUP2 ISZERO MUL SWAP1 PUSH1 0x40 MLOAD PUSH1 0x0 PUSH1 0x40 MLOAD DUP1 DUP4 SUB DUP2 DUP6 DUP9 DUP9 CALL SWAP4 POP POP POP POP ISZERO DUP1 ISZERO PUSH2 0xB17 JUMPI RETURNDATASIZE PUSH1 0x0 DUP1 RETURNDATACOPY RETURNDATASIZE PUSH1 0x0 REVERT JUMPDEST POP JUMPDEST JUMPDEST POP POP POP JUMP JUMPDEST CALLER PUSH20 0xFFFFFFFFFFFFFFFFFFFFFFFFFFFFFFFFFFFFFFFF AND PUSH1 0x9 PUSH1 0x0 SWAP1 SLOAD SWAP1 PUSH2 0x100 EXP SWAP1 DIV PUSH20 0xFFFFFFFFFFFFFFFFFFFFFFFFFFFFFFFFFFFFFFFF AND PUSH20 0xFFFFFFFFFFFFFFFFFFFFFFFFFFFFFFFFFFFFFFFF AND EQ PUSH2 0xBAF JUMPI PUSH1 0x40 MLOAD PUSH32 0x8C379A000000000000000000000000000000000000000000000000000000000 DUP2 MSTORE PUSH1 0x4 ADD PUSH2 0xBA6 SWAP1 PUSH2 0x4E06 JUMP JUMPDEST PUSH1 0x40 MLOAD DUP1 SWAP2 SUB SWAP1 REVERT JUMPDEST PUSH1 0x0 DUP3 EQ DUP1 PUSH2 0xBBE JUMPI POP PUSH1 0x1 DUP3 EQ JUMPDEST PUSH2 0xBFD JUMPI PUSH1 0x40 MLOAD PUSH32 0x8C379A000000000000000000000000000000000000000000000000000000000 DUP2 MSTORE PUSH1 0x4 ADD PUSH2 0xBF4 SWAP1 PUSH2 0x4E98 JUMP JUMPDEST PUSH1 0x40 MLOAD DUP1 SWAP2 SUB SWAP1 REVERT JUMPDEST PUSH1 0x0 DUP2 SUB PUSH2 0xC2B JUMPI PUSH2 0xC26 PUSH1 0x40 MLOAD DUP1 PUSH1 0x60 ADD PUSH1 0x40 MSTORE DUP1 PUSH1 0x24 DUP2 MSTORE PUSH1 0x20 ADD PUSH2 0x5E56 PUSH1 0x24 SWAP2 CODECOPY PUSH2 0x3271 JUMP JUMPDEST PUSH2 0xCEB JUMP JUMPDEST PUSH2 0xCE2 DUP3 PUSH1 0x5 DUP5 DUP2 SLOAD DUP2 LT PUSH2 0xC43 JUMPI PUSH2 0xC42 PUSH2 0x4964 JUMP JUMPDEST JUMPDEST SWAP1 PUSH1 0x0 MSTORE PUSH1 0x20 PUSH1 0x0 KECCAK256 SWAP1 PUSH1 0x4 MUL ADD PUSH1 0x2 ADD DUP1 SLOAD PUSH2 0xC5F SWAP1 PUSH2 0x4EE7 JUMP JUMPDEST DUP1 PUSH1 0x1F ADD PUSH1 0x20 DUP1 SWAP2 DIV MUL PUSH1 0x20 ADD PUSH1 0x40 MLOAD SWAP1 DUP2 ADD PUSH1 0x40 MSTORE DUP1 SWAP3 SWAP2 SWAP1 DUP2 DUP2 MSTORE PUSH1 0x20 ADD DUP3 DUP1 SLOAD PUSH2 0xC8B SWAP1 PUSH2 0x4EE7 JUMP JUMPDEST DUP1 ISZERO PUSH2 0xCD8 JUMPI DUP1 PUSH1 0x1F LT PUSH2 0xCAD JUMPI PUSH2 0x100 DUP1 DUP4 SLOAD DIV MUL DUP4 MSTORE SWAP2 PUSH1 0x20 ADD SWAP2 PUSH2 0xCD8 JUMP JUMPDEST DUP3 ADD SWAP2 SWAP1 PUSH1 0x0 MSTORE PUSH1 0x20 PUSH1 0x0 KECCAK256 SWAP1 JUMPDEST DUP2 SLOAD DUP2 MSTORE SWAP1 PUSH1 0x1 ADD SWAP1 PUSH1 0x20 ADD DUP1 DUP4 GT PUSH2 0xCBB JUMPI DUP3 SWAP1 SUB PUSH1 0x1F AND DUP3 ADD SWAP2 JUMPDEST POP POP POP POP POP PUSH2 0x330A JUMP JUMPDEST PUSH2 0xCEA PUSH2 0x3831 JUMP JUMPDEST JUMPDEST POP POP JUMP JUMPDEST PUSH1 0x0 JUMPDEST PUSH1 0x3 DUP1 SLOAD SWAP1 POP DUP2 LT ISZERO PUSH2 0xDC5 JUMPI CALLER PUSH20 0xFFFFFFFFFFFFFFFFFFFFFFFFFFFFFFFFFFFFFFFF AND PUSH1 0x3 DUP3 DUP2 SLOAD DUP2 LT PUSH2 0xD2A JUMPI PUSH2 0xD29 PUSH2 0x4964 JUMP JUMPDEST JUMPDEST SWAP1 PUSH1 0x0 MSTORE PUSH1 0x20 PUSH1 0x0 KECCAK256 SWAP1 PUSH1 0x3 MUL ADD PUSH1 0x1 ADD PUSH1 0x0 SWAP1 SLOAD SWAP1 PUSH2 0x100 EXP SWAP1 DIV PUSH20 0xFFFFFFFFFFFFFFFFFFFFFFFFFFFFFFFFFFFFFFFF AND PUSH20 0xFFFFFFFFFFFFFFFFFFFFFFFFFFFFFFFFFFFFFFFF AND SUB PUSH2 0xDB2 JUMPI PUSH1 0x40 MLOAD PUSH32 0x8C379A000000000000000000000000000000000000000000000000000000000 DUP2 MSTORE PUSH1 0x4 ADD PUSH2 0xDA9 SWAP1 PUSH2 0x4F64 JUMP JUMPDEST PUSH1 0x40 MLOAD DUP1 SWAP2 SUB SWAP1 REVERT JUMPDEST DUP1 DUP1 PUSH2 0xDBD SWAP1 PUSH2 0x49C2 JUMP JUMPDEST SWAP2 POP POP PUSH2 0xCF2 JUMP JUMPDEST POP PUSH1 0x0 JUMPDEST PUSH1 0x0 DUP1 SLOAD SWAP1 POP DUP2 LT ISZERO PUSH2 0xE9C JUMPI CALLER PUSH20 0xFFFFFFFFFFFFFFFFFFFFFFFFFFFFFFFFFFFFFFFF AND PUSH1 0x0 DUP3 DUP2 SLOAD DUP2 LT PUSH2 0xE01 JUMPI PUSH2 0xE00 PUSH2 0x4964 JUMP JUMPDEST JUMPDEST SWAP1 PUSH1 0x0 MSTORE PUSH1 0x20 PUSH1 0x0 KECCAK256 SWAP1 PUSH1 0x3 MUL ADD PUSH1 0x1 ADD PUSH1 0x0 SWAP1 SLOAD SWAP1 PUSH2 0x100 EXP SWAP1 DIV PUSH20 0xFFFFFFFFFFFFFFFFFFFFFFFFFFFFFFFFFFFFFFFF AND PUSH20 0xFFFFFFFFFFFFFFFFFFFFFFFFFFFFFFFFFFFFFFFF AND SUB PUSH2 0xE89 JUMPI PUSH1 0x40 MLOAD PUSH32 0x8C379A000000000000000000000000000000000000000000000000000000000 DUP2 MSTORE PUSH1 0x4 ADD PUSH2 0xE80 SWAP1 PUSH2 0x4F64 JUMP JUMPDEST PUSH1 0x40 MLOAD DUP1 SWAP2 SUB SWAP1 REVERT JUMPDEST DUP1 DUP1 PUSH2 0xE94 SWAP1 PUSH2 0x49C2 JUMP JUMPDEST SWAP2 POP POP PUSH2 0xDC9 JUMP JUMPDEST POP CALLER PUSH20 0xFFFFFFFFFFFFFFFFFFFFFFFFFFFFFFFFFFFFFFFF AND DUP2 PUSH20 0xFFFFFFFFFFFFFFFFFFFFFFFFFFFFFFFFFFFFFFFF AND SUB PUSH2 0xF0B JUMPI PUSH1 0x40 MLOAD PUSH32 0x8C379A000000000000000000000000000000000000000000000000000000000 DUP2 MSTORE PUSH1 0x4 ADD PUSH2 0xF02 SWAP1 PUSH2 0x4FF6 JUMP JUMPDEST PUSH1 0x40 MLOAD DUP1 SWAP2 SUB SWAP1 REVERT JUMPDEST PUSH1 0x0 PUSH2 0xF16 DUP3 PUSH2 0x3AAD JUMP JUMPDEST SWAP1 POP PUSH1 0x1 ISZERO ISZERO DUP2 ISZERO ISZERO SUB PUSH2 0xF5F JUMPI PUSH1 0x40 MLOAD PUSH32 0x8C379A000000000000000000000000000000000000000000000000000000000 DUP2 MSTORE PUSH1 0x4 ADD PUSH2 0xF56 SWAP1 PUSH2 0x5088 JUMP JUMPDEST PUSH1 0x40 MLOAD DUP1 SWAP2 SUB SWAP1 REVERT JUMPDEST PUSH2 0xF6B PUSH3 0xF4240 PUSH2 0x3B4D JUMP JUMPDEST PUSH1 0x15 PUSH1 0x0 DUP5 PUSH20 0xFFFFFFFFFFFFFFFFFFFFFFFFFFFFFFFFFFFFFFFF AND PUSH20 0xFFFFFFFFFFFFFFFFFFFFFFFFFFFFFFFFFFFFFFFF AND DUP2 MSTORE PUSH1 0x20 ADD SWAP1 DUP2 MSTORE PUSH1 0x20 ADD PUSH1 0x0 KECCAK256 DUP2 SWAP1 SSTORE POP PUSH2 0xFB7 DUP3 PUSH2 0x3B8D JUMP JUMPDEST PUSH2 0xFFF PUSH1 0x15 PUSH1 0x0 DUP5 PUSH20 0xFFFFFFFFFFFFFFFFFFFFFFFFFFFFFFFFFFFFFFFF AND PUSH20 0xFFFFFFFFFFFFFFFFFFFFFFFFFFFFFFFFFFFFFFFF AND DUP2 MSTORE PUSH1 0x20 ADD SWAP1 DUP2 MSTORE PUSH1 0x20 ADD PUSH1 0x0 KECCAK256 SLOAD PUSH2 0x3C34 JUMP JUMPDEST POP POP JUMP JUMPDEST CALLER PUSH20 0xFFFFFFFFFFFFFFFFFFFFFFFFFFFFFFFFFFFFFFFF AND PUSH1 0x9 PUSH1 0x0 SWAP1 SLOAD SWAP1 PUSH2 0x100 EXP SWAP1 DIV PUSH20 0xFFFFFFFFFFFFFFFFFFFFFFFFFFFFFFFFFFFFFFFF AND PUSH20 0xFFFFFFFFFFFFFFFFFFFFFFFFFFFFFFFFFFFFFFFF AND EQ PUSH2 0x1093 JUMPI PUSH1 0x40 MLOAD PUSH32 0x8C379A000000000000000000000000000000000000000000000000000000000 DUP2 MSTORE PUSH1 0x4 ADD PUSH2 0x108A SWAP1 PUSH2 0x4E06 JUMP JUMPDEST PUSH1 0x40 MLOAD DUP1 SWAP2 SUB SWAP1 REVERT JUMPDEST PUSH1 0x0 JUMPDEST PUSH1 0x5 DUP1 SLOAD SWAP1 POP DUP2 LT ISZERO PUSH2 0x1256 JUMPI PUSH2 0x10C4 PUSH1 0x40 MLOAD DUP1 PUSH1 0x60 ADD PUSH1 0x40 MSTORE DUP1 PUSH1 0x2B DUP2 MSTORE PUSH1 0x20 ADD PUSH2 0x5DCE PUSH1 0x2B SWAP2 CODECOPY PUSH2 0x3271 JUMP JUMPDEST PUSH2 0x10F2 PUSH1 0x5 DUP3 DUP2 SLOAD DUP2 LT PUSH2 0x10DB JUMPI PUSH2 0x10DA PUSH2 0x4964 JUMP JUMPDEST JUMPDEST SWAP1 PUSH1 0x0 MSTORE PUSH1 0x20 PUSH1 0x0 KECCAK256 SWAP1 PUSH1 0x4 MUL ADD PUSH1 0x0 ADD SLOAD PUSH2 0x3C34 JUMP JUMPDEST PUSH2 0x1140 PUSH1 0x5 DUP3 DUP2 SLOAD DUP2 LT PUSH2 0x1109 JUMPI PUSH2 0x1108 PUSH2 0x4964 JUMP JUMPDEST JUMPDEST SWAP1 PUSH1 0x0 MSTORE PUSH1 0x20 PUSH1 0x0 KECCAK256 SWAP1 PUSH1 0x4 MUL ADD PUSH1 0x1 ADD PUSH1 0x0 SWAP1 SLOAD SWAP1 PUSH2 0x100 EXP SWAP1 DIV PUSH20 0xFFFFFFFFFFFFFFFFFFFFFFFFFFFFFFFFFFFFFFFF AND PUSH2 0x3CCD JUMP JUMPDEST PUSH2 0x11F6 PUSH1 0x5 DUP3 DUP2 SLOAD DUP2 LT PUSH2 0x1157 JUMPI PUSH2 0x1156 PUSH2 0x4964 JUMP JUMPDEST JUMPDEST SWAP1 PUSH1 0x0 MSTORE PUSH1 0x20 PUSH1 0x0 KECCAK256 SWAP1 PUSH1 0x4 MUL ADD PUSH1 0x2 ADD DUP1 SLOAD PUSH2 0x1173 SWAP1 PUSH2 0x4EE7 JUMP JUMPDEST DUP1 PUSH1 0x1F ADD PUSH1 0x20 DUP1 SWAP2 DIV MUL PUSH1 0x20 ADD PUSH1 0x40 MLOAD SWAP1 DUP2 ADD PUSH1 0x40 MSTORE DUP1 SWAP3 SWAP2 SWAP1 DUP2 DUP2 MSTORE PUSH1 0x20 ADD DUP3 DUP1 SLOAD PUSH2 0x119F SWAP1 PUSH2 0x4EE7 JUMP JUMPDEST DUP1 ISZERO PUSH2 0x11EC JUMPI DUP1 PUSH1 0x1F LT PUSH2 0x11C1 JUMPI PUSH2 0x100 DUP1 DUP4 SLOAD DIV MUL DUP4 MSTORE SWAP2 PUSH1 0x20 ADD SWAP2 PUSH2 0x11EC JUMP JUMPDEST DUP3 ADD SWAP2 SWAP1 PUSH1 0x0 MSTORE PUSH1 0x20 PUSH1 0x0 KECCAK256 SWAP1 JUMPDEST DUP2 SLOAD DUP2 MSTORE SWAP1 PUSH1 0x1 ADD SWAP1 PUSH1 0x20 ADD DUP1 DUP4 GT PUSH2 0x11CF JUMPI DUP3 SWAP1 SUB PUSH1 0x1F AND DUP3 ADD SWAP2 JUMPDEST POP POP POP POP POP PUSH2 0x3271 JUMP JUMPDEST PUSH2 0x1243 PUSH1 0x5 DUP3 DUP2 SLOAD DUP2 LT PUSH2 0x120D JUMPI PUSH2 0x120C PUSH2 0x4964 JUMP JUMPDEST JUMPDEST SWAP1 PUSH1 0x0 MSTORE PUSH1 0x20 PUSH1 0x0 KECCAK256 SWAP1 PUSH1 0x4 MUL ADD PUSH1 0x3 ADD PUSH1 0x0 SWAP1 SLOAD SWAP1 PUSH2 0x100 EXP SWAP1 DIV PUSH1 0xFF AND PUSH1 0x3 DUP2 GT ISZERO PUSH2 0x123E JUMPI PUSH2 0x123D PUSH2 0x4BED JUMP JUMPDEST JUMPDEST PUSH2 0x3C34 JUMP JUMPDEST DUP1 DUP1 PUSH2 0x124E SWAP1 PUSH2 0x49C2 JUMP JUMPDEST SWAP2 POP POP PUSH2 0x1096 JUMP JUMPDEST POP JUMP JUMPDEST PUSH1 0x0 DUP1 JUMPDEST PUSH1 0x0 DUP1 SLOAD SWAP1 POP DUP2 LT ISZERO PUSH2 0x12FA JUMPI CALLER PUSH20 0xFFFFFFFFFFFFFFFFFFFFFFFFFFFFFFFFFFFFFFFF AND PUSH1 0x0 DUP3 DUP2 SLOAD DUP2 LT PUSH2 0x1295 JUMPI PUSH2 0x1294 PUSH2 0x4964 JUMP JUMPDEST JUMPDEST SWAP1 PUSH1 0x0 MSTORE PUSH1 0x20 PUSH1 0x0 KECCAK256 SWAP1 PUSH1 0x3 MUL ADD PUSH1 0x1 ADD PUSH1 0x0 SWAP1 SLOAD SWAP1 PUSH2 0x100 EXP SWAP1 DIV PUSH20 0xFFFFFFFFFFFFFFFFFFFFFFFFFFFFFFFFFFFFFFFF AND PUSH20 0xFFFFFFFFFFFFFFFFFFFFFFFFFFFFFFFFFFFFFFFF AND SUB PUSH2 0x12E7 JUMPI PUSH1 0x1 SWAP2 POP JUMPDEST DUP1 DUP1 PUSH2 0x12F2 SWAP1 PUSH2 0x49C2 JUMP JUMPDEST SWAP2 POP POP PUSH2 0x125D JUMP JUMPDEST POP PUSH1 0x1 ISZERO ISZERO DUP2 ISZERO ISZERO EQ PUSH2 0x1342 JUMPI PUSH1 0x40 MLOAD PUSH32 0x8C379A000000000000000000000000000000000000000000000000000000000 DUP2 MSTORE PUSH1 0x4 ADD PUSH2 0x1339 SWAP1 PUSH2 0x4A67 JUMP JUMPDEST PUSH1 0x40 MLOAD DUP1 SWAP2 SUB SWAP1 REVERT JUMPDEST PUSH1 0x0 PUSH1 0x16 PUSH1 0x0 CALLER PUSH20 0xFFFFFFFFFFFFFFFFFFFFFFFFFFFFFFFFFFFFFFFF AND PUSH20 0xFFFFFFFFFFFFFFFFFFFFFFFFFFFFFFFFFFFFFFFF AND DUP2 MSTORE PUSH1 0x20 ADD SWAP1 DUP2 MSTORE PUSH1 0x20 ADD PUSH1 0x0 KECCAK256 DUP1 SLOAD SWAP1 POP GT PUSH2 0x13C7 JUMPI PUSH1 0x40 MLOAD PUSH32 0x8C379A000000000000000000000000000000000000000000000000000000000 DUP2 MSTORE PUSH1 0x4 ADD PUSH2 0x13BE SWAP1 PUSH2 0x50F4 JUMP JUMPDEST PUSH1 0x40 MLOAD DUP1 SWAP2 SUB SWAP1 REVERT JUMPDEST PUSH1 0x6 DUP1 SLOAD SWAP1 POP DUP3 LT PUSH2 0x140E JUMPI PUSH1 0x40 MLOAD PUSH32 0x8C379A000000000000000000000000000000000000000000000000000000000 DUP2 MSTORE PUSH1 0x4 ADD PUSH2 0x1405 SWAP1 PUSH2 0x4AF9 JUMP JUMPDEST PUSH1 0x40 MLOAD DUP1 SWAP2 SUB SWAP1 REVERT JUMPDEST PUSH2 0x144C PUSH1 0x40 MLOAD DUP1 PUSH1 0x40 ADD PUSH1 0x40 MSTORE DUP1 PUSH1 0x12 DUP2 MSTORE PUSH1 0x20 ADD PUSH32 0x596F757220646562742073756D206574683A0000000000000000000000000000 DUP2 MSTORE POP PUSH2 0x3271 JUMP JUMPDEST PUSH2 0x146A PUSH8 0xDE0B6B3A7640000 PUSH1 0xE SLOAD PUSH2 0x1465 SWAP2 SWAP1 PUSH2 0x5143 JUMP JUMPDEST PUSH2 0x3C34 JUMP JUMPDEST POP POP JUMP JUMPDEST PUSH1 0x5 PUSH1 0x40 MLOAD DUP1 PUSH1 0x80 ADD PUSH1 0x40 MSTORE DUP1 PUSH1 0xC SLOAD DUP2 MSTORE PUSH1 0x20 ADD CALLER PUSH20 0xFFFFFFFFFFFFFFFFFFFFFFFFFFFFFFFFFFFFFFFF AND DUP2 MSTORE PUSH1 0x20 ADD DUP4 DUP2 MSTORE PUSH1 0x20 ADD DUP5 PUSH1 0x3 DUP2 GT ISZERO PUSH2 0x14B8 JUMPI PUSH2 0x14B7 PUSH2 0x4BED JUMP JUMPDEST JUMPDEST DUP2 MSTORE POP SWAP1 DUP1 PUSH1 0x1 DUP2 SLOAD ADD DUP1 DUP3 SSTORE DUP1 SWAP2 POP POP PUSH1 0x1 SWAP1 SUB SWAP1 PUSH1 0x0 MSTORE PUSH1 0x20 PUSH1 0x0 KECCAK256 SWAP1 PUSH1 0x4 MUL ADD PUSH1 0x0 SWAP1 SWAP2 SWAP1 SWAP2 SWAP1 SWAP2 POP PUSH1 0x0 DUP3 ADD MLOAD DUP2 PUSH1 0x0 ADD SSTORE PUSH1 0x20 DUP3 ADD MLOAD DUP2 PUSH1 0x1 ADD PUSH1 0x0 PUSH2 0x100 EXP DUP2 SLOAD DUP2 PUSH20 0xFFFFFFFFFFFFFFFFFFFFFFFFFFFFFFFFFFFFFFFF MUL NOT AND SWAP1 DUP4 PUSH20 0xFFFFFFFFFFFFFFFFFFFFFFFFFFFFFFFFFFFFFFFF AND MUL OR SWAP1 SSTORE POP PUSH1 0x40 DUP3 ADD MLOAD DUP2 PUSH1 0x2 ADD SWAP1 DUP2 PUSH2 0x154A SWAP2 SWAP1 PUSH2 0x532B JUMP JUMPDEST POP PUSH1 0x60 DUP3 ADD MLOAD DUP2 PUSH1 0x3 ADD PUSH1 0x0 PUSH2 0x100 EXP DUP2 SLOAD DUP2 PUSH1 0xFF MUL NOT AND SWAP1 DUP4 PUSH1 0x3 DUP2 GT ISZERO PUSH2 0x1576 JUMPI PUSH2 0x1575 PUSH2 0x4BED JUMP JUMPDEST JUMPDEST MUL OR SWAP1 SSTORE POP POP POP PUSH2 0x15BB PUSH1 0x40 MLOAD DUP1 PUSH1 0x40 ADD PUSH1 0x40 MSTORE DUP1 PUSH1 0xA DUP2 MSTORE PUSH1 0x20 ADD PUSH32 0x5175657272792069643A00000000000000000000000000000000000000000000 DUP2 MSTORE POP PUSH2 0x3271 JUMP JUMPDEST PUSH2 0x15C6 PUSH1 0xC SLOAD PUSH2 0x3C34 JUMP JUMPDEST PUSH1 0xC PUSH1 0x0 DUP2 SLOAD DUP1 SWAP3 SWAP2 SWAP1 PUSH2 0x15D9 SWAP1 PUSH2 0x49C2 JUMP JUMPDEST SWAP2 SWAP1 POP SSTORE POP POP POP JUMP JUMPDEST PUSH1 0x0 JUMPDEST PUSH1 0x3 DUP1 SLOAD SWAP1 POP DUP2 LT ISZERO PUSH2 0x16B8 JUMPI CALLER PUSH20 0xFFFFFFFFFFFFFFFFFFFFFFFFFFFFFFFFFFFFFFFF AND PUSH1 0x3 DUP3 DUP2 SLOAD DUP2 LT PUSH2 0x161D JUMPI PUSH2 0x161C PUSH2 0x4964 JUMP JUMPDEST JUMPDEST SWAP1 PUSH1 0x0 MSTORE PUSH1 0x20 PUSH1 0x0 KECCAK256 SWAP1 PUSH1 0x3 MUL ADD PUSH1 0x1 ADD PUSH1 0x0 SWAP1 SLOAD SWAP1 PUSH2 0x100 EXP SWAP1 DIV PUSH20 0xFFFFFFFFFFFFFFFFFFFFFFFFFFFFFFFFFFFFFFFF AND PUSH20 0xFFFFFFFFFFFFFFFFFFFFFFFFFFFFFFFFFFFFFFFF AND SUB PUSH2 0x16A5 JUMPI PUSH1 0x40 MLOAD PUSH32 0x8C379A000000000000000000000000000000000000000000000000000000000 DUP2 MSTORE PUSH1 0x4 ADD PUSH2 0x169C SWAP1 PUSH2 0x4F64 JUMP JUMPDEST PUSH1 0x40 MLOAD DUP1 SWAP2 SUB SWAP1 REVERT JUMPDEST DUP1 DUP1 PUSH2 0x16B0 SWAP1 PUSH2 0x49C2 JUMP JUMPDEST SWAP2 POP POP PUSH2 0x15E5 JUMP JUMPDEST POP PUSH1 0x0 JUMPDEST PUSH1 0x0 DUP1 SLOAD SWAP1 POP DUP2 LT ISZERO PUSH2 0x178F JUMPI CALLER PUSH20 0xFFFFFFFFFFFFFFFFFFFFFFFFFFFFFFFFFFFFFFFF AND PUSH1 0x0 DUP3 DUP2 SLOAD DUP2 LT PUSH2 0x16F4 JUMPI PUSH2 0x16F3 PUSH2 0x4964 JUMP JUMPDEST JUMPDEST SWAP1 PUSH1 0x0 MSTORE PUSH1 0x20 PUSH1 0x0 KECCAK256 SWAP1 PUSH1 0x3 MUL ADD PUSH1 0x1 ADD PUSH1 0x0 SWAP1 SLOAD SWAP1 PUSH2 0x100 EXP SWAP1 DIV PUSH20 0xFFFFFFFFFFFFFFFFFFFFFFFFFFFFFFFFFFFFFFFF AND PUSH20 0xFFFFFFFFFFFFFFFFFFFFFFFFFFFFFFFFFFFFFFFF AND SUB PUSH2 0x177C JUMPI PUSH1 0x40 MLOAD PUSH32 0x8C379A000000000000000000000000000000000000000000000000000000000 DUP2 MSTORE PUSH1 0x4 ADD PUSH2 0x1773 SWAP1 PUSH2 0x4F64 JUMP JUMPDEST PUSH1 0x40 MLOAD DUP1 SWAP2 SUB SWAP1 REVERT JUMPDEST DUP1 DUP1 PUSH2 0x1787 SWAP1 PUSH2 0x49C2 JUMP JUMPDEST SWAP2 POP POP PUSH2 0x16BC JUMP JUMPDEST POP PUSH1 0x0 DUP4 PUSH1 0x1 DUP7 DUP2 SLOAD DUP2 LT PUSH2 0x17A7 JUMPI PUSH2 0x17A6 PUSH2 0x4964 JUMP JUMPDEST JUMPDEST SWAP1 PUSH1 0x0 MSTORE PUSH1 0x20 PUSH1 0x0 KECCAK256 SWAP1 PUSH1 0x4 MUL ADD PUSH1 0x3 ADD SLOAD PUSH2 0x17C3 SWAP2 SWAP1 PUSH2 0x4C88 JUMP JUMPDEST LT ISZERO PUSH2 0x1804 JUMPI PUSH1 0x40 MLOAD PUSH32 0x8C379A000000000000000000000000000000000000000000000000000000000 DUP2 MSTORE PUSH1 0x4 ADD PUSH2 0x17FB SWAP1 PUSH2 0x546F JUMP JUMPDEST PUSH1 0x40 MLOAD DUP1 SWAP2 SUB SWAP1 REVERT JUMPDEST DUP3 PUSH1 0x1 DUP6 DUP2 SLOAD DUP2 LT PUSH2 0x1819 JUMPI PUSH2 0x1818 PUSH2 0x4964 JUMP JUMPDEST JUMPDEST SWAP1 PUSH1 0x0 MSTORE PUSH1 0x20 PUSH1 0x0 KECCAK256 SWAP1 PUSH1 0x4 MUL ADD PUSH1 0x3 ADD PUSH1 0x0 DUP3 DUP3 SLOAD PUSH2 0x1839 SWAP2 SWAP1 PUSH2 0x4C88 JUMP JUMPDEST SWAP3 POP POP DUP2 SWAP1 SSTORE POP PUSH1 0x0 PUSH1 0x12 PUSH1 0x0 CALLER PUSH20 0xFFFFFFFFFFFFFFFFFFFFFFFFFFFFFFFFFFFFFFFF AND PUSH20 0xFFFFFFFFFFFFFFFFFFFFFFFFFFFFFFFFFFFFFFFF AND DUP2 MSTORE PUSH1 0x20 ADD SWAP1 DUP2 MSTORE PUSH1 0x20 ADD PUSH1 0x0 KECCAK256 SLOAD SWAP1 POP PUSH1 0x0 DUP2 SUB PUSH2 0x19C9 JUMPI PUSH1 0x7 PUSH1 0x40 MLOAD DUP1 PUSH1 0x60 ADD PUSH1 0x40 MSTORE DUP1 CALLER PUSH20 0xFFFFFFFFFFFFFFFFFFFFFFFFFFFFFFFFFFFFFFFF AND DUP2 MSTORE PUSH1 0x20 ADD DUP5 DUP2 MSTORE PUSH1 0x20 ADD PUSH1 0x0 ISZERO ISZERO DUP2 MSTORE POP SWAP1 DUP1 PUSH1 0x1 DUP2 SLOAD ADD DUP1 DUP3 SSTORE DUP1 SWAP2 POP POP PUSH1 0x1 SWAP1 SUB SWAP1 PUSH1 0x0 MSTORE PUSH1 0x20 PUSH1 0x0 KECCAK256 SWAP1 PUSH1 0x3 MUL ADD PUSH1 0x0 SWAP1 SWAP2 SWAP1 SWAP2 SWAP1 SWAP2 POP PUSH1 0x0 DUP3 ADD MLOAD DUP2 PUSH1 0x0 ADD PUSH1 0x0 PUSH2 0x100 EXP DUP2 SLOAD DUP2 PUSH20 0xFFFFFFFFFFFFFFFFFFFFFFFFFFFFFFFFFFFFFFFF MUL NOT AND SWAP1 DUP4 PUSH20 0xFFFFFFFFFFFFFFFFFFFFFFFFFFFFFFFFFFFFFFFF AND MUL OR SWAP1 SSTORE POP PUSH1 0x20 DUP3 ADD MLOAD DUP2 PUSH1 0x1 ADD SWAP1 DUP2 PUSH2 0x1947 SWAP2 SWAP1 PUSH2 0x532B JUMP JUMPDEST POP PUSH1 0x40 DUP3 ADD MLOAD DUP2 PUSH1 0x2 ADD PUSH1 0x0 PUSH2 0x100 EXP DUP2 SLOAD DUP2 PUSH1 0xFF MUL NOT AND SWAP1 DUP4 ISZERO ISZERO MUL OR SWAP1 SSTORE POP POP POP PUSH1 0xD PUSH1 0x0 DUP2 SLOAD DUP1 SWAP3 SWAP2 SWAP1 PUSH2 0x197D SWAP1 PUSH2 0x49C2 JUMP JUMPDEST SWAP2 SWAP1 POP SSTORE POP PUSH1 0xD SLOAD PUSH1 0x12 PUSH1 0x0 CALLER PUSH20 0xFFFFFFFFFFFFFFFFFFFFFFFFFFFFFFFFFFFFFFFF AND PUSH20 0xFFFFFFFFFFFFFFFFFFFFFFFFFFFFFFFFFFFFFFFF AND DUP2 MSTORE PUSH1 0x20 ADD SWAP1 DUP2 MSTORE PUSH1 0x20 ADD PUSH1 0x0 KECCAK256 DUP2 SWAP1 SSTORE POP JUMPDEST PUSH2 0x19D2 DUP6 PUSH2 0x3D66 JUMP JUMPDEST PUSH1 0xB SWAP1 DUP2 PUSH2 0x19E0 SWAP2 SWAP1 PUSH2 0x532B JUMP JUMPDEST POP PUSH1 0x6 PUSH1 0x40 MLOAD DUP1 PUSH2 0x100 ADD PUSH1 0x40 MSTORE DUP1 PUSH1 0xB DUP1 SLOAD PUSH2 0x19FC SWAP1 PUSH2 0x4EE7 JUMP JUMPDEST DUP1 PUSH1 0x1F ADD PUSH1 0x20 DUP1 SWAP2 DIV MUL PUSH1 0x20 ADD PUSH1 0x40 MLOAD SWAP1 DUP2 ADD PUSH1 0x40 MSTORE DUP1 SWAP3 SWAP2 SWAP1 DUP2 DUP2 MSTORE PUSH1 0x20 ADD DUP3 DUP1 SLOAD PUSH2 0x1A28 SWAP1 PUSH2 0x4EE7 JUMP JUMPDEST DUP1 ISZERO PUSH2 0x1A75 JUMPI DUP1 PUSH1 0x1F LT PUSH2 0x1A4A JUMPI PUSH2 0x100 DUP1 DUP4 SLOAD DIV MUL DUP4 MSTORE SWAP2 PUSH1 0x20 ADD SWAP2 PUSH2 0x1A75 JUMP JUMPDEST DUP3 ADD SWAP2 SWAP1 PUSH1 0x0 MSTORE PUSH1 0x20 PUSH1 0x0 KECCAK256 SWAP1 JUMPDEST DUP2 SLOAD DUP2 MSTORE SWAP1 PUSH1 0x1 ADD SWAP1 PUSH1 0x20 ADD DUP1 DUP4 GT PUSH2 0x1A58 JUMPI DUP3 SWAP1 SUB PUSH1 0x1F AND DUP3 ADD SWAP2 JUMPDEST POP POP POP POP POP DUP2 MSTORE PUSH1 0x20 ADD PUSH1 0x1 PUSH1 0x7 DUP1 SLOAD SWAP1 POP PUSH2 0x1A91 SWAP2 SWAP1 PUSH2 0x4C88 JUMP JUMPDEST DUP2 MSTORE PUSH1 0x20 ADD DUP8 DUP2 MSTORE PUSH1 0x20 ADD DUP6 DUP2 MSTORE PUSH1 0x20 ADD DUP7 DUP2 MSTORE PUSH1 0x20 ADD PUSH2 0x1AB2 PUSH1 0xA PUSH2 0x3B4D JUMP JUMPDEST DUP2 MSTORE PUSH1 0x20 ADD PUSH1 0x0 PUSH1 0x5 DUP2 GT ISZERO PUSH2 0x1ACB JUMPI PUSH2 0x1ACA PUSH2 0x4BED JUMP JUMPDEST JUMPDEST DUP2 MSTORE PUSH1 0x20 ADD PUSH1 0x0 DUP2 MSTORE POP SWAP1 DUP1 PUSH1 0x1 DUP2 SLOAD ADD DUP1 DUP3 SSTORE DUP1 SWAP2 POP POP PUSH1 0x1 SWAP1 SUB SWAP1 PUSH1 0x0 MSTORE PUSH1 0x20 PUSH1 0x0 KECCAK256 SWAP1 PUSH1 0x8 MUL ADD PUSH1 0x0 SWAP1 SWAP2 SWAP1 SWAP2 SWAP1 SWAP2 POP PUSH1 0x0 DUP3 ADD MLOAD DUP2 PUSH1 0x0 ADD SWAP1 DUP2 PUSH2 0x1B13 SWAP2 SWAP1 PUSH2 0x532B JUMP JUMPDEST POP PUSH1 0x20 DUP3 ADD MLOAD DUP2 PUSH1 0x1 ADD SSTORE PUSH1 0x40 DUP3 ADD MLOAD DUP2 PUSH1 0x2 ADD SSTORE PUSH1 0x60 DUP3 ADD MLOAD DUP2 PUSH1 0x3 ADD SSTORE PUSH1 0x80 DUP3 ADD MLOAD DUP2 PUSH1 0x4 ADD SSTORE PUSH1 0xA0 DUP3 ADD MLOAD DUP2 PUSH1 0x5 ADD SSTORE PUSH1 0xC0 DUP3 ADD MLOAD DUP2 PUSH1 0x6 ADD PUSH1 0x0 PUSH2 0x100 EXP DUP2 SLOAD DUP2 PUSH1 0xFF MUL NOT AND SWAP1 DUP4 PUSH1 0x5 DUP2 GT ISZERO PUSH2 0x1B71 JUMPI PUSH2 0x1B70 PUSH2 0x4BED JUMP JUMPDEST JUMPDEST MUL OR SWAP1 SSTORE POP PUSH1 0xE0 DUP3 ADD MLOAD DUP2 PUSH1 0x7 ADD SSTORE POP POP PUSH1 0xB PUSH1 0x6 PUSH1 0x1 PUSH1 0x6 DUP1 SLOAD SWAP1 POP PUSH2 0x1B98 SWAP2 SWAP1 PUSH2 0x4C88 JUMP JUMPDEST DUP2 SLOAD DUP2 LT PUSH2 0x1BA9 JUMPI PUSH2 0x1BA8 PUSH2 0x4964 JUMP JUMPDEST JUMPDEST SWAP1 PUSH1 0x0 MSTORE PUSH1 0x20 PUSH1 0x0 KECCAK256 SWAP1 PUSH1 0x8 MUL ADD PUSH1 0x0 ADD SWAP1 DUP2 PUSH2 0x1BC6 SWAP2 SWAP1 PUSH2 0x54BA JUMP JUMPDEST POP PUSH1 0x6 PUSH1 0x1 PUSH1 0x6 DUP1 SLOAD SWAP1 POP PUSH2 0x1BDB SWAP2 SWAP1 PUSH2 0x4C88 JUMP JUMPDEST DUP2 SLOAD DUP2 LT PUSH2 0x1BEC JUMPI PUSH2 0x1BEB PUSH2 0x4964 JUMP JUMPDEST JUMPDEST SWAP1 PUSH1 0x0 MSTORE PUSH1 0x20 PUSH1 0x0 KECCAK256 SWAP1 PUSH1 0x8 MUL ADD PUSH1 0x4 ADD SLOAD PUSH1 0x1 PUSH1 0x6 PUSH1 0x1 PUSH1 0x6 DUP1 SLOAD SWAP1 POP PUSH2 0x1C14 SWAP2 SWAP1 PUSH2 0x4C88 JUMP JUMPDEST DUP2 SLOAD DUP2 LT PUSH2 0x1C25 JUMPI PUSH2 0x1C24 PUSH2 0x4964 JUMP JUMPDEST JUMPDEST SWAP1 PUSH1 0x0 MSTORE PUSH1 0x20 PUSH1 0x0 KECCAK256 SWAP1 PUSH1 0x8 MUL ADD PUSH1 0x3 ADD SLOAD DUP2 SLOAD DUP2 LT PUSH2 0x1C48 JUMPI PUSH2 0x1C47 PUSH2 0x4964 JUMP JUMPDEST JUMPDEST SWAP1 PUSH1 0x0 MSTORE PUSH1 0x20 PUSH1 0x0 KECCAK256 SWAP1 PUSH1 0x4 MUL ADD PUSH1 0x2 ADD SLOAD PUSH2 0x1C64 SWAP2 SWAP1 PUSH2 0x4B19 JUMP JUMPDEST PUSH1 0x17 PUSH1 0x0 PUSH1 0x1 PUSH1 0x6 DUP1 SLOAD SWAP1 POP PUSH2 0x1C7A SWAP2 SWAP1 PUSH2 0x4C88 JUMP JUMPDEST DUP2 MSTORE PUSH1 0x20 ADD SWAP1 DUP2 MSTORE PUSH1 0x20 ADD PUSH1 0x0 KECCAK256 DUP2 SWAP1 SSTORE POP PUSH2 0x1CAD PUSH1 0x40 MLOAD DUP1 PUSH1 0x60 ADD PUSH1 0x40 MSTORE DUP1 PUSH1 0x25 DUP2 MSTORE PUSH1 0x20 ADD PUSH2 0x5DF9 PUSH1 0x25 SWAP2 CODECOPY PUSH2 0x3271 JUMP JUMPDEST PUSH2 0x1CEC PUSH1 0x6 PUSH1 0x1 PUSH1 0x6 DUP1 SLOAD SWAP1 POP PUSH2 0x1CC4 SWAP2 SWAP1 PUSH2 0x4C88 JUMP JUMPDEST DUP2 SLOAD DUP2 LT PUSH2 0x1CD5 JUMPI PUSH2 0x1CD4 PUSH2 0x4964 JUMP JUMPDEST JUMPDEST SWAP1 PUSH1 0x0 MSTORE PUSH1 0x20 PUSH1 0x0 KECCAK256 SWAP1 PUSH1 0x8 MUL ADD PUSH1 0x5 ADD SLOAD PUSH2 0x3C34 JUMP JUMPDEST PUSH2 0x1D2A PUSH1 0x40 MLOAD DUP1 PUSH1 0x40 ADD PUSH1 0x40 MSTORE DUP1 PUSH1 0xD DUP2 MSTORE PUSH1 0x20 ADD PUSH32 0x4F72646572206E756D6265723A00000000000000000000000000000000000000 DUP2 MSTORE POP PUSH2 0x3271 JUMP JUMPDEST PUSH2 0x1D44 PUSH1 0x1 PUSH1 0x6 DUP1 SLOAD SWAP1 POP PUSH2 0x1D3F SWAP2 SWAP1 PUSH2 0x4C88 JUMP JUMPDEST PUSH2 0x3C34 JUMP JUMPDEST PUSH2 0x1D82 PUSH1 0x40 MLOAD DUP1 PUSH1 0x40 ADD PUSH1 0x40 MSTORE DUP1 PUSH1 0x10 DUP2 MSTORE PUSH1 0x20 ADD PUSH32 0x596F757220747261636B20636F64653A00000000000000000000000000000000 DUP2 MSTORE POP PUSH2 0x3271 JUMP JUMPDEST PUSH2 0x1E15 PUSH1 0xB DUP1 SLOAD PUSH2 0x1D92 SWAP1 PUSH2 0x4EE7 JUMP JUMPDEST DUP1 PUSH1 0x1F ADD PUSH1 0x20 DUP1 SWAP2 DIV MUL PUSH1 0x20 ADD PUSH1 0x40 MLOAD SWAP1 DUP2 ADD PUSH1 0x40 MSTORE DUP1 SWAP3 SWAP2 SWAP1 DUP2 DUP2 MSTORE PUSH1 0x20 ADD DUP3 DUP1 SLOAD PUSH2 0x1DBE SWAP1 PUSH2 0x4EE7 JUMP JUMPDEST DUP1 ISZERO PUSH2 0x1E0B JUMPI DUP1 PUSH1 0x1F LT PUSH2 0x1DE0 JUMPI PUSH2 0x100 DUP1 DUP4 SLOAD DIV MUL DUP4 MSTORE SWAP2 PUSH1 0x20 ADD SWAP2 PUSH2 0x1E0B JUMP JUMPDEST DUP3 ADD SWAP2 SWAP1 PUSH1 0x0 MSTORE PUSH1 0x20 PUSH1 0x0 KECCAK256 SWAP1 JUMPDEST DUP2 SLOAD DUP2 MSTORE SWAP1 PUSH1 0x1 ADD SWAP1 PUSH1 0x20 ADD DUP1 DUP4 GT PUSH2 0x1DEE JUMPI DUP3 SWAP1 SUB PUSH1 0x1F AND DUP3 ADD SWAP2 JUMPDEST POP POP POP POP POP PUSH2 0x3271 JUMP JUMPDEST PUSH2 0x1E36 PUSH1 0x40 MLOAD DUP1 PUSH1 0x60 ADD PUSH1 0x40 MSTORE DUP1 PUSH1 0x38 DUP2 MSTORE PUSH1 0x20 ADD PUSH2 0x5E1E PUSH1 0x38 SWAP2 CODECOPY PUSH2 0x3271 JUMP JUMPDEST PUSH2 0x1E40 PUSH1 0x5 PUSH2 0x3C34 JUMP JUMPDEST PUSH2 0x1E61 PUSH1 0x40 MLOAD DUP1 PUSH1 0x60 ADD PUSH1 0x40 MSTORE DUP1 PUSH1 0x32 DUP2 MSTORE PUSH1 0x20 ADD PUSH2 0x5D9C PUSH1 0x32 SWAP2 CODECOPY PUSH2 0x3271 JUMP JUMPDEST PUSH2 0x1EAD PUSH8 0x16345785D8A0000 PUSH1 0x5 PUSH1 0x17 PUSH1 0x0 PUSH1 0x1 PUSH1 0x6 DUP1 SLOAD SWAP1 POP PUSH2 0x1E85 SWAP2 SWAP1 PUSH2 0x4C88 JUMP JUMPDEST DUP2 MSTORE PUSH1 0x20 ADD SWAP1 DUP2 MSTORE PUSH1 0x20 ADD PUSH1 0x0 KECCAK256 SLOAD PUSH2 0x1E9E SWAP2 SWAP1 PUSH2 0x5143 JUMP JUMPDEST PUSH2 0x1EA8 SWAP2 SWAP1 PUSH2 0x5143 JUMP JUMPDEST PUSH2 0x3C34 JUMP JUMPDEST POP POP POP POP POP JUMP JUMPDEST PUSH1 0x0 DUP1 JUMPDEST PUSH1 0x0 DUP1 SLOAD SWAP1 POP DUP2 LT ISZERO PUSH2 0x1F55 JUMPI CALLER PUSH20 0xFFFFFFFFFFFFFFFFFFFFFFFFFFFFFFFFFFFFFFFF AND PUSH1 0x0 DUP3 DUP2 SLOAD DUP2 LT PUSH2 0x1EF0 JUMPI PUSH2 0x1EEF PUSH2 0x4964 JUMP JUMPDEST JUMPDEST SWAP1 PUSH1 0x0 MSTORE PUSH1 0x20 PUSH1 0x0 KECCAK256 SWAP1 PUSH1 0x3 MUL ADD PUSH1 0x1 ADD PUSH1 0x0 SWAP1 SLOAD SWAP1 PUSH2 0x100 EXP SWAP1 DIV PUSH20 0xFFFFFFFFFFFFFFFFFFFFFFFFFFFFFFFFFFFFFFFF AND PUSH20 0xFFFFFFFFFFFFFFFFFFFFFFFFFFFFFFFFFFFFFFFF AND SUB PUSH2 0x1F42 JUMPI PUSH1 0x1 SWAP2 POP JUMPDEST DUP1 DUP1 PUSH2 0x1F4D SWAP1 PUSH2 0x49C2 JUMP JUMPDEST SWAP2 POP POP PUSH2 0x1EB8 JUMP JUMPDEST POP PUSH1 0x1 ISZERO ISZERO DUP2 ISZERO ISZERO EQ PUSH2 0x1F9D JUMPI PUSH1 0x40 MLOAD PUSH32 0x8C379A000000000000000000000000000000000000000000000000000000000 DUP2 MSTORE PUSH1 0x4 ADD PUSH2 0x1F94 SWAP1 PUSH2 0x4A67 JUMP JUMPDEST PUSH1 0x40 MLOAD DUP1 SWAP2 SUB SWAP1 REVERT JUMPDEST PUSH1 0x0 DUP4 PUSH1 0x4 DUP5 DUP2 SLOAD DUP2 LT PUSH2 0x1FB4 JUMPI PUSH2 0x1FB3 PUSH2 0x4964 JUMP JUMPDEST JUMPDEST SWAP1 PUSH1 0x0 MSTORE PUSH1 0x20 PUSH1 0x0 KECCAK256 SWAP1 PUSH1 0x3 MUL ADD PUSH1 0x2 ADD SLOAD PUSH2 0x1FD0 SWAP2 SWAP1 PUSH2 0x4C88 JUMP JUMPDEST LT ISZERO PUSH2 0x2011 JUMPI PUSH1 0x40 MLOAD PUSH32 0x8C379A000000000000000000000000000000000000000000000000000000000 DUP2 MSTORE PUSH1 0x4 ADD PUSH2 0x2008 SWAP1 PUSH2 0x5614 JUMP JUMPDEST PUSH1 0x40 MLOAD DUP1 SWAP2 SUB SWAP1 REVERT JUMPDEST CALLVALUE DUP4 PUSH1 0x4 DUP7 DUP2 SLOAD DUP2 LT PUSH2 0x2027 JUMPI PUSH2 0x2026 PUSH2 0x4964 JUMP JUMPDEST JUMPDEST SWAP1 PUSH1 0x0 MSTORE PUSH1 0x20 PUSH1 0x0 KECCAK256 SWAP1 PUSH1 0x3 MUL ADD PUSH1 0x1 ADD SLOAD PUSH2 0x2043 SWAP2 SWAP1 PUSH2 0x4B19 JUMP JUMPDEST GT ISZERO PUSH2 0x2084 JUMPI PUSH1 0x40 MLOAD PUSH32 0x8C379A000000000000000000000000000000000000000000000000000000000 DUP2 MSTORE PUSH1 0x4 ADD PUSH2 0x207B SWAP1 PUSH2 0x5680 JUMP JUMPDEST PUSH1 0x40 MLOAD DUP1 SWAP2 SUB SWAP1 REVERT JUMPDEST PUSH1 0x3 DUP3 DUP2 SLOAD DUP2 LT PUSH2 0x2098 JUMPI PUSH2 0x2097 PUSH2 0x4964 JUMP JUMPDEST JUMPDEST SWAP1 PUSH1 0x0 MSTORE PUSH1 0x20 PUSH1 0x0 KECCAK256 SWAP1 PUSH1 0x3 MUL ADD PUSH1 0x1 ADD PUSH1 0x0 SWAP1 SLOAD SWAP1 PUSH2 0x100 EXP SWAP1 DIV PUSH20 0xFFFFFFFFFFFFFFFFFFFFFFFFFFFFFFFFFFFFFFFF AND PUSH20 0xFFFFFFFFFFFFFFFFFFFFFFFFFFFFFFFFFFFFFFFF AND PUSH2 0x8FC DUP5 PUSH1 0x4 DUP8 DUP2 SLOAD DUP2 LT PUSH2 0x20F8 JUMPI PUSH2 0x20F7 PUSH2 0x4964 JUMP JUMPDEST JUMPDEST SWAP1 PUSH1 0x0 MSTORE PUSH1 0x20 PUSH1 0x0 KECCAK256 SWAP1 PUSH1 0x3 MUL ADD PUSH1 0x1 ADD SLOAD PUSH2 0x2114 SWAP2 SWAP1 PUSH2 0x4B19 JUMP JUMPDEST SWAP1 DUP2 ISZERO MUL SWAP1 PUSH1 0x40 MLOAD PUSH1 0x0 PUSH1 0x40 MLOAD DUP1 DUP4 SUB DUP2 DUP6 DUP9 DUP9 CALL SWAP4 POP POP POP POP ISZERO DUP1 ISZERO PUSH2 0x213F JUMPI RETURNDATASIZE PUSH1 0x0 DUP1 RETURNDATACOPY RETURNDATASIZE PUSH1 0x0 REVERT JUMPDEST POP PUSH1 0x0 PUSH1 0x13 PUSH1 0x0 CALLER PUSH20 0xFFFFFFFFFFFFFFFFFFFFFFFFFFFFFFFFFFFFFFFF AND PUSH20 0xFFFFFFFFFFFFFFFFFFFFFFFFFFFFFFFFFFFFFFFF AND DUP2 MSTORE PUSH1 0x20 ADD SWAP1 DUP2 MSTORE PUSH1 0x20 ADD PUSH1 0x0 KECCAK256 SLOAD SWAP1 POP DUP4 PUSH1 0x4 DUP5 DUP2 SLOAD DUP2 LT PUSH2 0x2199 JUMPI PUSH2 0x2198 PUSH2 0x4964 JUMP JUMPDEST JUMPDEST SWAP1 PUSH1 0x0 MSTORE PUSH1 0x20 PUSH1 0x0 KECCAK256 SWAP1 PUSH1 0x3 MUL ADD PUSH1 0x2 ADD PUSH1 0x0 DUP3 DUP3 SLOAD PUSH2 0x21B9 SWAP2 SWAP1 PUSH2 0x4C88 JUMP JUMPDEST SWAP3 POP POP DUP2 SWAP1 SSTORE POP DUP4 PUSH1 0x1 DUP3 DUP2 SLOAD DUP2 LT PUSH2 0x21D5 JUMPI PUSH2 0x21D4 PUSH2 0x4964 JUMP JUMPDEST JUMPDEST SWAP1 PUSH1 0x0 MSTORE PUSH1 0x20 PUSH1 0x0 KECCAK256 SWAP1 PUSH1 0x4 MUL ADD PUSH1 0x3 ADD PUSH1 0x0 DUP3 DUP3 SLOAD PUSH2 0x21F5 SWAP2 SWAP1 PUSH2 0x56A0 JUMP JUMPDEST SWAP3 POP POP DUP2 SWAP1 SSTORE POP POP POP POP POP POP JUMP JUMPDEST PUSH1 0x0 JUMPDEST PUSH1 0x3 DUP1 SLOAD SWAP1 POP DUP2 LT ISZERO PUSH2 0x22D9 JUMPI CALLER PUSH20 0xFFFFFFFFFFFFFFFFFFFFFFFFFFFFFFFFFFFFFFFF AND PUSH1 0x3 DUP3 DUP2 SLOAD DUP2 LT PUSH2 0x223E JUMPI PUSH2 0x223D PUSH2 0x4964 JUMP JUMPDEST JUMPDEST SWAP1 PUSH1 0x0 MSTORE PUSH1 0x20 PUSH1 0x0 KECCAK256 SWAP1 PUSH1 0x3 MUL ADD PUSH1 0x1 ADD PUSH1 0x0 SWAP1 SLOAD SWAP1 PUSH2 0x100 EXP SWAP1 DIV PUSH20 0xFFFFFFFFFFFFFFFFFFFFFFFFFFFFFFFFFFFFFFFF AND PUSH20 0xFFFFFFFFFFFFFFFFFFFFFFFFFFFFFFFFFFFFFFFF AND SUB PUSH2 0x22C6 JUMPI PUSH1 0x40 MLOAD PUSH32 0x8C379A000000000000000000000000000000000000000000000000000000000 DUP2 MSTORE PUSH1 0x4 ADD PUSH2 0x22BD SWAP1 PUSH2 0x4F64 JUMP JUMPDEST PUSH1 0x40 MLOAD DUP1 SWAP2 SUB SWAP1 REVERT JUMPDEST DUP1 DUP1 PUSH2 0x22D1 SWAP1 PUSH2 0x49C2 JUMP JUMPDEST SWAP2 POP POP PUSH2 0x2206 JUMP JUMPDEST POP PUSH1 0x0 JUMPDEST PUSH1 0x0 DUP1 SLOAD SWAP1 POP DUP2 LT ISZERO PUSH2 0x23B0 JUMPI CALLER PUSH20 0xFFFFFFFFFFFFFFFFFFFFFFFFFFFFFFFFFFFFFFFF AND PUSH1 0x0 DUP3 DUP2 SLOAD DUP2 LT PUSH2 0x2315 JUMPI PUSH2 0x2314 PUSH2 0x4964 JUMP JUMPDEST JUMPDEST SWAP1 PUSH1 0x0 MSTORE PUSH1 0x20 PUSH1 0x0 KECCAK256 SWAP1 PUSH1 0x3 MUL ADD PUSH1 0x1 ADD PUSH1 0x0 SWAP1 SLOAD SWAP1 PUSH2 0x100 EXP SWAP1 DIV PUSH20 0xFFFFFFFFFFFFFFFFFFFFFFFFFFFFFFFFFFFFFFFF AND PUSH20 0xFFFFFFFFFFFFFFFFFFFFFFFFFFFFFFFFFFFFFFFF AND SUB PUSH2 0x239D JUMPI PUSH1 0x40 MLOAD PUSH32 0x8C379A000000000000000000000000000000000000000000000000000000000 DUP2 MSTORE PUSH1 0x4 ADD PUSH2 0x2394 SWAP1 PUSH2 0x4F64 JUMP JUMPDEST PUSH1 0x40 MLOAD DUP1 SWAP2 SUB SWAP1 REVERT JUMPDEST DUP1 DUP1 PUSH2 0x23A8 SWAP1 PUSH2 0x49C2 JUMP JUMPDEST SWAP2 POP POP PUSH2 0x22DD JUMP JUMPDEST POP CALLER PUSH20 0xFFFFFFFFFFFFFFFFFFFFFFFFFFFFFFFFFFFFFFFF AND PUSH1 0x7 PUSH1 0x6 DUP6 DUP2 SLOAD DUP2 LT PUSH2 0x23DE JUMPI PUSH2 0x23DD PUSH2 0x4964 JUMP JUMPDEST JUMPDEST SWAP1 PUSH1 0x0 MSTORE PUSH1 0x20 PUSH1 0x0 KECCAK256 SWAP1 PUSH1 0x8 MUL ADD PUSH1 0x1 ADD SLOAD DUP2 SLOAD DUP2 LT PUSH2 0x2401 JUMPI PUSH2 0x2400 PUSH2 0x4964 JUMP JUMPDEST JUMPDEST SWAP1 PUSH1 0x0 MSTORE PUSH1 0x20 PUSH1 0x0 KECCAK256 SWAP1 PUSH1 0x3 MUL ADD PUSH1 0x0 ADD PUSH1 0x0 SWAP1 SLOAD SWAP1 PUSH2 0x100 EXP SWAP1 DIV PUSH20 0xFFFFFFFFFFFFFFFFFFFFFFFFFFFFFFFFFFFFFFFF AND PUSH20 0xFFFFFFFFFFFFFFFFFFFFFFFFFFFFFFFFFFFFFFFF AND EQ PUSH2 0x2489 JUMPI PUSH1 0x40 MLOAD PUSH32 0x8C379A000000000000000000000000000000000000000000000000000000000 DUP2 MSTORE PUSH1 0x4 ADD PUSH2 0x2480 SWAP1 PUSH2 0x5746 JUMP JUMPDEST PUSH1 0x40 MLOAD DUP1 SWAP2 SUB SWAP1 REVERT JUMPDEST PUSH1 0x1 PUSH1 0x5 DUP2 GT ISZERO PUSH2 0x249D JUMPI PUSH2 0x249C PUSH2 0x4BED JUMP JUMPDEST JUMPDEST PUSH1 0x6 DUP5 DUP2 SLOAD DUP2 LT PUSH2 0x24B1 JUMPI PUSH2 0x24B0 PUSH2 0x4964 JUMP JUMPDEST JUMPDEST SWAP1 PUSH1 0x0 MSTORE PUSH1 0x20 PUSH1 0x0 KECCAK256 SWAP1 PUSH1 0x8 MUL ADD PUSH1 0x6 ADD PUSH1 0x0 SWAP1 SLOAD SWAP1 PUSH2 0x100 EXP SWAP1 DIV PUSH1 0xFF AND PUSH1 0x5 DUP2 GT ISZERO PUSH2 0x24E2 JUMPI PUSH2 0x24E1 PUSH2 0x4BED JUMP JUMPDEST JUMPDEST EQ PUSH2 0x2522 JUMPI PUSH1 0x40 MLOAD PUSH32 0x8C379A000000000000000000000000000000000000000000000000000000000 DUP2 MSTORE PUSH1 0x4 ADD PUSH2 0x2519 SWAP1 PUSH2 0x57D8 JUMP JUMPDEST PUSH1 0x40 MLOAD DUP1 SWAP2 SUB SWAP1 REVERT JUMPDEST PUSH1 0x6 DUP4 DUP2 SLOAD DUP2 LT PUSH2 0x2536 JUMPI PUSH2 0x2535 PUSH2 0x4964 JUMP JUMPDEST JUMPDEST SWAP1 PUSH1 0x0 MSTORE PUSH1 0x20 PUSH1 0x0 KECCAK256 SWAP1 PUSH1 0x8 MUL ADD PUSH1 0x7 ADD SLOAD TIMESTAMP LT ISZERO PUSH2 0x258A JUMPI PUSH1 0x40 MLOAD PUSH32 0x8C379A000000000000000000000000000000000000000000000000000000000 DUP2 MSTORE PUSH1 0x4 ADD PUSH2 0x2581 SWAP1 PUSH2 0x5844 JUMP JUMPDEST PUSH1 0x40 MLOAD DUP1 SWAP2 SUB SWAP1 REVERT JUMPDEST PUSH1 0x1 ISZERO ISZERO DUP3 ISZERO ISZERO SUB PUSH2 0x2871 JUMPI PUSH1 0x0 PUSH1 0x6 DUP5 DUP2 SLOAD DUP2 LT PUSH2 0x25AC JUMPI PUSH2 0x25AB PUSH2 0x4964 JUMP JUMPDEST JUMPDEST SWAP1 PUSH1 0x0 MSTORE PUSH1 0x20 PUSH1 0x0 KECCAK256 SWAP1 PUSH1 0x8 MUL ADD PUSH1 0x4 ADD SLOAD PUSH1 0x1 PUSH1 0x6 DUP7 DUP2 SLOAD DUP2 LT PUSH2 0x25D4 JUMPI PUSH2 0x25D3 PUSH2 0x4964 JUMP JUMPDEST JUMPDEST SWAP1 PUSH1 0x0 MSTORE PUSH1 0x20 PUSH1 0x0 KECCAK256 SWAP1 PUSH1 0x8 MUL ADD PUSH1 0x3 ADD SLOAD DUP2 SLOAD DUP2 LT PUSH2 0x25F7 JUMPI PUSH2 0x25F6 PUSH2 0x4964 JUMP JUMPDEST JUMPDEST SWAP1 PUSH1 0x0 MSTORE PUSH1 0x20 PUSH1 0x0 KECCAK256 SWAP1 PUSH1 0x4 MUL ADD PUSH1 0x2 ADD SLOAD PUSH2 0x2613 SWAP2 SWAP1 PUSH2 0x4B19 JUMP JUMPDEST SWAP1 POP PUSH1 0x0 DUP3 EQ PUSH2 0x2729 JUMPI PUSH1 0x0 PUSH2 0x2628 DUP4 PUSH2 0x3EF7 JUMP JUMPDEST SWAP1 POP PUSH1 0x0 ISZERO ISZERO DUP2 ISZERO ISZERO EQ PUSH2 0x2671 JUMPI PUSH1 0x40 MLOAD PUSH32 0x8C379A000000000000000000000000000000000000000000000000000000000 DUP2 MSTORE PUSH1 0x4 ADD PUSH2 0x2668 SWAP1 PUSH2 0x58B0 JUMP JUMPDEST PUSH1 0x40 MLOAD DUP1 SWAP2 SUB SWAP1 REVERT JUMPDEST PUSH1 0x0 PUSH1 0x15 PUSH1 0x0 CALLER PUSH20 0xFFFFFFFFFFFFFFFFFFFFFFFFFFFFFFFFFFFFFFFF AND PUSH20 0xFFFFFFFFFFFFFFFFFFFFFFFFFFFFFFFFFFFFFFFF AND DUP2 MSTORE PUSH1 0x20 ADD SWAP1 DUP2 MSTORE PUSH1 0x20 ADD PUSH1 0x0 KECCAK256 SLOAD SUB PUSH2 0x26F3 JUMPI PUSH1 0x40 MLOAD PUSH32 0x8C379A000000000000000000000000000000000000000000000000000000000 DUP2 MSTORE PUSH1 0x4 ADD PUSH2 0x26EA SWAP1 PUSH2 0x591C JUMP JUMPDEST PUSH1 0x40 MLOAD DUP1 SWAP2 SUB SWAP1 REVERT JUMPDEST PUSH2 0x26FC DUP3 PUSH2 0x3F59 JUMP JUMPDEST SWAP2 POP PUSH1 0x8 DUP4 SWAP1 DUP1 PUSH1 0x1 DUP2 SLOAD ADD DUP1 DUP3 SSTORE DUP1 SWAP2 POP POP PUSH1 0x1 SWAP1 SUB SWAP1 PUSH1 0x0 MSTORE PUSH1 0x20 PUSH1 0x0 KECCAK256 ADD PUSH1 0x0 SWAP1 SWAP2 SWAP1 SWAP2 SWAP1 SWAP2 POP SSTORE POP JUMPDEST CALLVALUE DUP2 GT ISZERO PUSH2 0x276C JUMPI PUSH1 0x40 MLOAD PUSH32 0x8C379A000000000000000000000000000000000000000000000000000000000 DUP2 MSTORE PUSH1 0x4 ADD PUSH2 0x2763 SWAP1 PUSH2 0x5680 JUMP JUMPDEST PUSH1 0x40 MLOAD DUP1 SWAP2 SUB SWAP1 REVERT JUMPDEST PUSH1 0x0 PUSH1 0x6 DUP6 DUP2 SLOAD DUP2 LT PUSH2 0x2782 JUMPI PUSH2 0x2781 PUSH2 0x4964 JUMP JUMPDEST JUMPDEST SWAP1 PUSH1 0x0 MSTORE PUSH1 0x20 PUSH1 0x0 KECCAK256 SWAP1 PUSH1 0x8 MUL ADD PUSH1 0x2 ADD SLOAD DUP2 SLOAD DUP2 LT PUSH2 0x27A5 JUMPI PUSH2 0x27A4 PUSH2 0x4964 JUMP JUMPDEST JUMPDEST SWAP1 PUSH1 0x0 MSTORE PUSH1 0x20 PUSH1 0x0 KECCAK256 SWAP1 PUSH1 0x3 MUL ADD PUSH1 0x1 ADD PUSH1 0x0 SWAP1 SLOAD SWAP1 PUSH2 0x100 EXP SWAP1 DIV PUSH20 0xFFFFFFFFFFFFFFFFFFFFFFFFFFFFFFFFFFFFFFFF AND PUSH20 0xFFFFFFFFFFFFFFFFFFFFFFFFFFFFFFFFFFFFFFFF AND PUSH2 0x8FC DUP3 SWAP1 DUP2 ISZERO MUL SWAP1 PUSH1 0x40 MLOAD PUSH1 0x0 PUSH1 0x40 MLOAD DUP1 DUP4 SUB DUP2 DUP6 DUP9 DUP9 CALL SWAP4 POP POP POP POP ISZERO DUP1 ISZERO PUSH2 0x281C JUMPI RETURNDATASIZE PUSH1 0x0 DUP1 RETURNDATACOPY RETURNDATASIZE PUSH1 0x0 REVERT JUMPDEST POP PUSH1 0x3 PUSH1 0x6 DUP6 DUP2 SLOAD DUP2 LT PUSH2 0x2833 JUMPI PUSH2 0x2832 PUSH2 0x4964 JUMP JUMPDEST JUMPDEST SWAP1 PUSH1 0x0 MSTORE PUSH1 0x20 PUSH1 0x0 KECCAK256 SWAP1 PUSH1 0x8 MUL ADD PUSH1 0x6 ADD PUSH1 0x0 PUSH2 0x100 EXP DUP2 SLOAD DUP2 PUSH1 0xFF MUL NOT AND SWAP1 DUP4 PUSH1 0x5 DUP2 GT ISZERO PUSH2 0x2866 JUMPI PUSH2 0x2865 PUSH2 0x4BED JUMP JUMPDEST JUMPDEST MUL OR SWAP1 SSTORE POP POP PUSH2 0x2A92 JUMP JUMPDEST PUSH1 0x0 ISZERO ISZERO DUP3 ISZERO ISZERO SUB PUSH2 0x2A91 JUMPI CALLVALUE PUSH1 0x17 PUSH1 0x0 DUP6 DUP2 MSTORE PUSH1 0x20 ADD SWAP1 DUP2 MSTORE PUSH1 0x20 ADD PUSH1 0x0 KECCAK256 SLOAD GT ISZERO PUSH2 0x28D3 JUMPI PUSH1 0x40 MLOAD PUSH32 0x8C379A000000000000000000000000000000000000000000000000000000000 DUP2 MSTORE PUSH1 0x4 ADD PUSH2 0x28CA SWAP1 PUSH2 0x4D9A JUMP JUMPDEST PUSH1 0x40 MLOAD DUP1 SWAP2 SUB SWAP1 REVERT JUMPDEST PUSH1 0x0 PUSH1 0x6 DUP5 DUP2 SLOAD DUP2 LT PUSH2 0x28E9 JUMPI PUSH2 0x28E8 PUSH2 0x4964 JUMP JUMPDEST JUMPDEST SWAP1 PUSH1 0x0 MSTORE PUSH1 0x20 PUSH1 0x0 KECCAK256 SWAP1 PUSH1 0x8 MUL ADD PUSH1 0x2 ADD SLOAD DUP2 SLOAD DUP2 LT PUSH2 0x290C JUMPI PUSH2 0x290B PUSH2 0x4964 JUMP JUMPDEST JUMPDEST SWAP1 PUSH1 0x0 MSTORE PUSH1 0x20 PUSH1 0x0 KECCAK256 SWAP1 PUSH1 0x3 MUL ADD PUSH1 0x1 ADD PUSH1 0x0 SWAP1 SLOAD SWAP1 PUSH2 0x100 EXP SWAP1 DIV PUSH20 0xFFFFFFFFFFFFFFFFFFFFFFFFFFFFFFFFFFFFFFFF AND PUSH20 0xFFFFFFFFFFFFFFFFFFFFFFFFFFFFFFFFFFFFFFFF AND PUSH2 0x8FC PUSH1 0x5 PUSH1 0x17 PUSH1 0x0 DUP8 DUP2 MSTORE PUSH1 0x20 ADD SWAP1 DUP2 MSTORE PUSH1 0x20 ADD PUSH1 0x0 KECCAK256 SLOAD PUSH2 0x2977 SWAP2 SWAP1 PUSH2 0x5143 JUMP JUMPDEST SWAP1 DUP2 ISZERO MUL SWAP1 PUSH1 0x40 MLOAD PUSH1 0x0 PUSH1 0x40 MLOAD DUP1 DUP4 SUB DUP2 DUP6 DUP9 DUP9 CALL SWAP4 POP POP POP POP ISZERO DUP1 ISZERO PUSH2 0x29A2 JUMPI RETURNDATASIZE PUSH1 0x0 DUP1 RETURNDATACOPY RETURNDATASIZE PUSH1 0x0 REVERT JUMPDEST POP PUSH1 0x0 PUSH1 0x17 PUSH1 0x0 DUP6 DUP2 MSTORE PUSH1 0x20 ADD SWAP1 DUP2 MSTORE PUSH1 0x20 ADD PUSH1 0x0 KECCAK256 DUP2 SWAP1 SSTORE POP PUSH1 0x2 PUSH1 0x6 DUP5 DUP2 SLOAD DUP2 LT PUSH2 0x29D2 JUMPI PUSH2 0x29D1 PUSH2 0x4964 JUMP JUMPDEST JUMPDEST SWAP1 PUSH1 0x0 MSTORE PUSH1 0x20 PUSH1 0x0 KECCAK256 SWAP1 PUSH1 0x8 MUL ADD PUSH1 0x6 ADD PUSH1 0x0 PUSH2 0x100 EXP DUP2 SLOAD DUP2 PUSH1 0xFF MUL NOT AND SWAP1 DUP4 PUSH1 0x5 DUP2 GT ISZERO PUSH2 0x2A05 JUMPI PUSH2 0x2A04 PUSH2 0x4BED JUMP JUMPDEST JUMPDEST MUL OR SWAP1 SSTORE POP PUSH1 0x6 DUP4 DUP2 SLOAD DUP2 LT PUSH2 0x2A1E JUMPI PUSH2 0x2A1D PUSH2 0x4964 JUMP JUMPDEST JUMPDEST SWAP1 PUSH1 0x0 MSTORE PUSH1 0x20 PUSH1 0x0 KECCAK256 SWAP1 PUSH1 0x8 MUL ADD PUSH1 0x4 ADD SLOAD PUSH1 0x1 PUSH1 0x6 DUP6 DUP2 SLOAD DUP2 LT PUSH2 0x2A46 JUMPI PUSH2 0x2A45 PUSH2 0x4964 JUMP JUMPDEST JUMPDEST SWAP1 PUSH1 0x0 MSTORE PUSH1 0x20 PUSH1 0x0 KECCAK256 SWAP1 PUSH1 0x8 MUL ADD PUSH1 0x3 ADD SLOAD DUP2 SLOAD DUP2 LT PUSH2 0x2A69 JUMPI PUSH2 0x2A68 PUSH2 0x4964 JUMP JUMPDEST JUMPDEST SWAP1 PUSH1 0x0 MSTORE PUSH1 0x20 PUSH1 0x0 KECCAK256 SWAP1 PUSH1 0x4 MUL ADD PUSH1 0x3 ADD PUSH1 0x0 DUP3 DUP3 SLOAD PUSH2 0x2A89 SWAP2 SWAP1 PUSH2 0x56A0 JUMP JUMPDEST SWAP3 POP POP DUP2 SWAP1 SSTORE POP JUMPDEST JUMPDEST POP POP POP JUMP JUMPDEST PUSH1 0x0 JUMPDEST PUSH1 0x3 DUP1 SLOAD SWAP1 POP DUP2 LT ISZERO PUSH2 0x2B6D JUMPI CALLER PUSH20 0xFFFFFFFFFFFFFFFFFFFFFFFFFFFFFFFFFFFFFFFF AND PUSH1 0x3 DUP3 DUP2 SLOAD DUP2 LT PUSH2 0x2AD2 JUMPI PUSH2 0x2AD1 PUSH2 0x4964 JUMP JUMPDEST JUMPDEST SWAP1 PUSH1 0x0 MSTORE PUSH1 0x20 PUSH1 0x0 KECCAK256 SWAP1 PUSH1 0x3 MUL ADD PUSH1 0x1 ADD PUSH1 0x0 SWAP1 SLOAD SWAP1 PUSH2 0x100 EXP SWAP1 DIV PUSH20 0xFFFFFFFFFFFFFFFFFFFFFFFFFFFFFFFFFFFFFFFF AND PUSH20 0xFFFFFFFFFFFFFFFFFFFFFFFFFFFFFFFFFFFFFFFF AND SUB PUSH2 0x2B5A JUMPI PUSH1 0x40 MLOAD PUSH32 0x8C379A000000000000000000000000000000000000000000000000000000000 DUP2 MSTORE PUSH1 0x4 ADD PUSH2 0x2B51 SWAP1 PUSH2 0x4F64 JUMP JUMPDEST PUSH1 0x40 MLOAD DUP1 SWAP2 SUB SWAP1 REVERT JUMPDEST DUP1 DUP1 PUSH2 0x2B65 SWAP1 PUSH2 0x49C2 JUMP JUMPDEST SWAP2 POP POP PUSH2 0x2A9A JUMP JUMPDEST POP PUSH1 0x0 JUMPDEST PUSH1 0x0 DUP1 SLOAD SWAP1 POP DUP2 LT ISZERO PUSH2 0x2C44 JUMPI CALLER PUSH20 0xFFFFFFFFFFFFFFFFFFFFFFFFFFFFFFFFFFFFFFFF AND PUSH1 0x0 DUP3 DUP2 SLOAD DUP2 LT PUSH2 0x2BA9 JUMPI PUSH2 0x2BA8 PUSH2 0x4964 JUMP JUMPDEST JUMPDEST SWAP1 PUSH1 0x0 MSTORE PUSH1 0x20 PUSH1 0x0 KECCAK256 SWAP1 PUSH1 0x3 MUL ADD PUSH1 0x1 ADD PUSH1 0x0 SWAP1 SLOAD SWAP1 PUSH2 0x100 EXP SWAP1 DIV PUSH20 0xFFFFFFFFFFFFFFFFFFFFFFFFFFFFFFFFFFFFFFFF AND PUSH20 0xFFFFFFFFFFFFFFFFFFFFFFFFFFFFFFFFFFFFFFFF AND SUB PUSH2 0x2C31 JUMPI PUSH1 0x40 MLOAD PUSH32 0x8C379A000000000000000000000000000000000000000000000000000000000 DUP2 MSTORE PUSH1 0x4 ADD PUSH2 0x2C28 SWAP1 PUSH2 0x4F64 JUMP JUMPDEST PUSH1 0x40 MLOAD DUP1 SWAP2 SUB SWAP1 REVERT JUMPDEST DUP1 DUP1 PUSH2 0x2C3C SWAP1 PUSH2 0x49C2 JUMP JUMPDEST SWAP2 POP POP PUSH2 0x2B71 JUMP JUMPDEST POP DUP1 PUSH1 0x6 DUP1 SLOAD SWAP1 POP DUP2 LT PUSH2 0x2C8D JUMPI PUSH1 0x40 MLOAD PUSH32 0x8C379A000000000000000000000000000000000000000000000000000000000 DUP2 MSTORE PUSH1 0x4 ADD PUSH2 0x2C84 SWAP1 PUSH2 0x4AF9 JUMP JUMPDEST PUSH1 0x40 MLOAD DUP1 SWAP2 SUB SWAP1 REVERT JUMPDEST PUSH1 0x0 DUP1 PUSH1 0x0 SWAP1 POP JUMPDEST PUSH1 0x7 DUP1 SLOAD SWAP1 POP DUP2 LT ISZERO PUSH2 0x2D35 JUMPI CALLER PUSH20 0xFFFFFFFFFFFFFFFFFFFFFFFFFFFFFFFFFFFFFFFF AND PUSH1 0x7 DUP3 DUP2 SLOAD DUP2 LT PUSH2 0x2CCD JUMPI PUSH2 0x2CCC PUSH2 0x4964 JUMP JUMPDEST JUMPDEST SWAP1 PUSH1 0x0 MSTORE PUSH1 0x20 PUSH1 0x0 KECCAK256 SWAP1 PUSH1 0x3 MUL ADD PUSH1 0x0 ADD PUSH1 0x0 SWAP1 SLOAD SWAP1 PUSH2 0x100 EXP SWAP1 DIV PUSH20 0xFFFFFFFFFFFFFFFFFFFFFFFFFFFFFFFFFFFFFFFF AND PUSH20 0xFFFFFFFFFFFFFFFFFFFFFFFFFFFFFFFFFFFFFFFF AND SUB PUSH2 0x2D22 JUMPI DUP1 SWAP2 POP PUSH2 0x2D35 JUMP JUMPDEST DUP1 DUP1 PUSH2 0x2D2D SWAP1 PUSH2 0x49C2 JUMP JUMPDEST SWAP2 POP POP PUSH2 0x2C95 JUMP JUMPDEST POP PUSH1 0x0 JUMPDEST PUSH1 0x6 DUP1 SLOAD SWAP1 POP DUP2 LT ISZERO PUSH2 0x3252 JUMPI DUP4 DUP2 SUB PUSH2 0x323F JUMPI PUSH1 0x6 DUP2 DUP2 SLOAD DUP2 LT PUSH2 0x2D61 JUMPI PUSH2 0x2D60 PUSH2 0x4964 JUMP JUMPDEST JUMPDEST SWAP1 PUSH1 0x0 MSTORE PUSH1 0x20 PUSH1 0x0 KECCAK256 SWAP1 PUSH1 0x8 MUL ADD PUSH1 0x1 ADD SLOAD DUP3 EQ PUSH2 0x2DB4 JUMPI PUSH1 0x40 MLOAD PUSH32 0x8C379A000000000000000000000000000000000000000000000000000000000 DUP2 MSTORE PUSH1 0x4 ADD PUSH2 0x2DAB SWAP1 PUSH2 0x5988 JUMP JUMPDEST PUSH1 0x40 MLOAD DUP1 SWAP2 SUB SWAP1 REVERT JUMPDEST PUSH1 0x2 PUSH1 0x6 DUP3 DUP2 SLOAD DUP2 LT PUSH2 0x2DCA JUMPI PUSH2 0x2DC9 PUSH2 0x4964 JUMP JUMPDEST JUMPDEST SWAP1 PUSH1 0x0 MSTORE PUSH1 0x20 PUSH1 0x0 KECCAK256 SWAP1 PUSH1 0x8 MUL ADD PUSH1 0x3 ADD SLOAD DUP2 SLOAD DUP2 LT PUSH2 0x2DED JUMPI PUSH2 0x2DEC PUSH2 0x4964 JUMP JUMPDEST JUMPDEST SWAP1 PUSH1 0x0 MSTORE PUSH1 0x20 PUSH1 0x0 KECCAK256 SWAP1 PUSH1 0x4 MUL ADD PUSH1 0x3 ADD SLOAD PUSH1 0x6 DUP3 DUP2 SLOAD DUP2 LT PUSH2 0x2E13 JUMPI PUSH2 0x2E12 PUSH2 0x4964 JUMP JUMPDEST JUMPDEST SWAP1 PUSH1 0x0 MSTORE PUSH1 0x20 PUSH1 0x0 KECCAK256 SWAP1 PUSH1 0x8 MUL ADD PUSH1 0x5 ADD SLOAD GT PUSH2 0x2E65 JUMPI PUSH1 0x40 MLOAD PUSH32 0x8C379A000000000000000000000000000000000000000000000000000000000 DUP2 MSTORE PUSH1 0x4 ADD PUSH2 0x2E5C SWAP1 PUSH2 0x5A1A JUMP JUMPDEST PUSH1 0x40 MLOAD DUP1 SWAP2 SUB SWAP1 REVERT JUMPDEST PUSH1 0x3 PUSH1 0x5 DUP2 GT ISZERO PUSH2 0x2E79 JUMPI PUSH2 0x2E78 PUSH2 0x4BED JUMP JUMPDEST JUMPDEST PUSH1 0x6 DUP3 DUP2 SLOAD DUP2 LT PUSH2 0x2E8D JUMPI PUSH2 0x2E8C PUSH2 0x4964 JUMP JUMPDEST JUMPDEST SWAP1 PUSH1 0x0 MSTORE PUSH1 0x20 PUSH1 0x0 KECCAK256 SWAP1 PUSH1 0x8 MUL ADD PUSH1 0x6 ADD PUSH1 0x0 SWAP1 SLOAD SWAP1 PUSH2 0x100 EXP SWAP1 DIV PUSH1 0xFF AND PUSH1 0x5 DUP2 GT ISZERO PUSH2 0x2EBE JUMPI PUSH2 0x2EBD PUSH2 0x4BED JUMP JUMPDEST JUMPDEST EQ PUSH2 0x2EFE JUMPI PUSH1 0x40 MLOAD PUSH32 0x8C379A000000000000000000000000000000000000000000000000000000000 DUP2 MSTORE PUSH1 0x4 ADD PUSH2 0x2EF5 SWAP1 PUSH2 0x5A86 JUMP JUMPDEST PUSH1 0x40 MLOAD DUP1 SWAP2 SUB SWAP1 REVERT JUMPDEST PUSH1 0x0 PUSH1 0x6 DUP6 DUP2 SLOAD DUP2 LT PUSH2 0x2F14 JUMPI PUSH2 0x2F13 PUSH2 0x4964 JUMP JUMPDEST JUMPDEST SWAP1 PUSH1 0x0 MSTORE PUSH1 0x20 PUSH1 0x0 KECCAK256 SWAP1 PUSH1 0x8 MUL ADD PUSH1 0x3 ADD SLOAD SWAP1 POP PUSH1 0x0 PUSH1 0x6 DUP7 DUP2 SLOAD DUP2 LT PUSH2 0x2F3E JUMPI PUSH2 0x2F3D PUSH2 0x4964 JUMP JUMPDEST JUMPDEST SWAP1 PUSH1 0x0 MSTORE PUSH1 0x20 PUSH1 0x0 KECCAK256 SWAP1 PUSH1 0x8 MUL ADD PUSH1 0x4 ADD SLOAD SWAP1 POP PUSH1 0x0 PUSH1 0x1 PUSH1 0x6 DUP9 DUP2 SLOAD DUP2 LT PUSH2 0x2F6A JUMPI PUSH2 0x2F69 PUSH2 0x4964 JUMP JUMPDEST JUMPDEST SWAP1 PUSH1 0x0 MSTORE PUSH1 0x20 PUSH1 0x0 KECCAK256 SWAP1 PUSH1 0x8 MUL ADD PUSH1 0x3 ADD SLOAD DUP2 SLOAD DUP2 LT PUSH2 0x2F8D JUMPI PUSH2 0x2F8C PUSH2 0x4964 JUMP JUMPDEST JUMPDEST SWAP1 PUSH1 0x0 MSTORE PUSH1 0x20 PUSH1 0x0 KECCAK256 SWAP1 PUSH1 0x4 MUL ADD PUSH1 0x2 ADD SLOAD SWAP1 POP DUP1 DUP3 PUSH2 0x2FAD SWAP2 SWAP1 PUSH2 0x4B19 JUMP JUMPDEST PUSH1 0xE DUP2 SWAP1 SSTORE POP PUSH1 0x4 PUSH1 0x6 DUP6 DUP2 SLOAD DUP2 LT PUSH2 0x2FC9 JUMPI PUSH2 0x2FC8 PUSH2 0x4964 JUMP JUMPDEST JUMPDEST SWAP1 PUSH1 0x0 MSTORE PUSH1 0x20 PUSH1 0x0 KECCAK256 SWAP1 PUSH1 0x8 MUL ADD PUSH1 0x6 ADD PUSH1 0x0 PUSH2 0x100 EXP DUP2 SLOAD DUP2 PUSH1 0xFF MUL NOT AND SWAP1 DUP4 PUSH1 0x5 DUP2 GT ISZERO PUSH2 0x2FFC JUMPI PUSH2 0x2FFB PUSH2 0x4BED JUMP JUMPDEST JUMPDEST MUL OR SWAP1 SSTORE POP PUSH1 0x6 DUP5 DUP2 SLOAD DUP2 LT PUSH2 0x3015 JUMPI PUSH2 0x3014 PUSH2 0x4964 JUMP JUMPDEST JUMPDEST SWAP1 PUSH1 0x0 MSTORE PUSH1 0x20 PUSH1 0x0 KECCAK256 SWAP1 PUSH1 0x8 MUL ADD PUSH1 0x4 ADD SLOAD PUSH1 0x1 DUP5 DUP2 SLOAD DUP2 LT PUSH2 0x303B JUMPI PUSH2 0x303A PUSH2 0x4964 JUMP JUMPDEST JUMPDEST SWAP1 PUSH1 0x0 MSTORE PUSH1 0x20 PUSH1 0x0 KECCAK256 SWAP1 PUSH1 0x4 MUL ADD PUSH1 0x3 ADD PUSH1 0x0 DUP3 DUP3 SLOAD PUSH2 0x305B SWAP2 SWAP1 PUSH2 0x56A0 JUMP JUMPDEST SWAP3 POP POP DUP2 SWAP1 SSTORE POP PUSH1 0x1 DUP4 DUP2 SLOAD DUP2 LT PUSH2 0x3076 JUMPI PUSH2 0x3075 PUSH2 0x4964 JUMP JUMPDEST JUMPDEST SWAP1 PUSH1 0x0 MSTORE PUSH1 0x20 PUSH1 0x0 KECCAK256 SWAP1 PUSH1 0x4 MUL ADD PUSH1 0x3 ADD SLOAD PUSH1 0x1 DUP5 DUP2 SLOAD DUP2 LT PUSH2 0x309C JUMPI PUSH2 0x309B PUSH2 0x4964 JUMP JUMPDEST JUMPDEST SWAP1 PUSH1 0x0 MSTORE PUSH1 0x20 PUSH1 0x0 KECCAK256 SWAP1 PUSH1 0x4 MUL ADD PUSH1 0x2 ADD SLOAD PUSH2 0x30B8 SWAP2 SWAP1 PUSH2 0x4B19 JUMP JUMPDEST PUSH1 0x0 PUSH1 0x1 DUP1 DUP7 DUP2 SLOAD DUP2 LT PUSH2 0x30CF JUMPI PUSH2 0x30CE PUSH2 0x4964 JUMP JUMPDEST JUMPDEST SWAP1 PUSH1 0x0 MSTORE PUSH1 0x20 PUSH1 0x0 KECCAK256 SWAP1 PUSH1 0x4 MUL ADD PUSH1 0x1 ADD SLOAD PUSH2 0x30EB SWAP2 SWAP1 PUSH2 0x4C88 JUMP JUMPDEST DUP2 SLOAD DUP2 LT PUSH2 0x30FC JUMPI PUSH2 0x30FB PUSH2 0x4964 JUMP JUMPDEST JUMPDEST SWAP1 PUSH1 0x0 MSTORE PUSH1 0x20 PUSH1 0x0 KECCAK256 SWAP1 PUSH1 0x3 MUL ADD PUSH1 0x2 ADD PUSH1 0x0 DUP3 DUP3 SLOAD PUSH2 0x311C SWAP2 SWAP1 PUSH2 0x56A0 JUMP JUMPDEST SWAP3 POP POP DUP2 SWAP1 SSTORE POP PUSH1 0x16 PUSH1 0x0 DUP1 PUSH1 0x1 DUP1 DUP8 DUP2 SLOAD DUP2 LT PUSH2 0x313D JUMPI PUSH2 0x313C PUSH2 0x4964 JUMP JUMPDEST JUMPDEST SWAP1 PUSH1 0x0 MSTORE PUSH1 0x20 PUSH1 0x0 KECCAK256 SWAP1 PUSH1 0x4 MUL ADD PUSH1 0x1 ADD SLOAD PUSH2 0x3159 SWAP2 SWAP1 PUSH2 0x4C88 JUMP JUMPDEST DUP2 SLOAD DUP2 LT PUSH2 0x316A JUMPI PUSH2 0x3169 PUSH2 0x4964 JUMP JUMPDEST JUMPDEST SWAP1 PUSH1 0x0 MSTORE PUSH1 0x20 PUSH1 0x0 KECCAK256 SWAP1 PUSH1 0x3 MUL ADD PUSH1 0x1 ADD PUSH1 0x0 SWAP1 SLOAD SWAP1 PUSH2 0x100 EXP SWAP1 DIV PUSH20 0xFFFFFFFFFFFFFFFFFFFFFFFFFFFFFFFFFFFFFFFF AND PUSH20 0xFFFFFFFFFFFFFFFFFFFFFFFFFFFFFFFFFFFFFFFF AND PUSH20 0xFFFFFFFFFFFFFFFFFFFFFFFFFFFFFFFFFFFFFFFF AND DUP2 MSTORE PUSH1 0x20 ADD SWAP1 DUP2 MSTORE PUSH1 0x20 ADD PUSH1 0x0 KECCAK256 CALLER SWAP1 DUP1 PUSH1 0x1 DUP2 SLOAD ADD DUP1 DUP3 SSTORE DUP1 SWAP2 POP POP PUSH1 0x1 SWAP1 SUB SWAP1 PUSH1 0x0 MSTORE PUSH1 0x20 PUSH1 0x0 KECCAK256 ADD PUSH1 0x0 SWAP1 SWAP2 SWAP1 SWAP2 SWAP1 SWAP2 PUSH2 0x100 EXP DUP2 SLOAD DUP2 PUSH20 0xFFFFFFFFFFFFFFFFFFFFFFFFFFFFFFFFFFFFFFFF MUL NOT AND SWAP1 DUP4 PUSH20 0xFFFFFFFFFFFFFFFFFFFFFFFFFFFFFFFFFFFFFFFF AND MUL OR SWAP1 SSTORE POP POP POP POP PUSH2 0x3252 JUMP JUMPDEST DUP1 DUP1 PUSH2 0x324A SWAP1 PUSH2 0x49C2 JUMP JUMPDEST SWAP2 POP POP PUSH2 0x2D39 JUMP JUMPDEST POP POP POP POP JUMP JUMPDEST PUSH1 0x0 DUP1 TIMESTAMP SWAP1 POP PUSH1 0x2 DUP2 PUSH2 0x326B SWAP2 SWAP1 PUSH2 0x56A0 JUMP JUMPDEST SWAP2 POP POP SWAP1 JUMP JUMPDEST PUSH2 0x3307 DUP2 PUSH1 0x40 MLOAD PUSH1 0x24 ADD PUSH2 0x3285 SWAP2 SWAP1 PUSH2 0x5B09 JUMP JUMPDEST PUSH1 0x40 MLOAD PUSH1 0x20 DUP2 DUP4 SUB SUB DUP2 MSTORE SWAP1 PUSH1 0x40 MSTORE PUSH32 0x41304FAC00000000000000000000000000000000000000000000000000000000 PUSH28 0xFFFFFFFFFFFFFFFFFFFFFFFFFFFFFFFFFFFFFFFFFFFFFFFFFFFFFFFF NOT AND PUSH1 0x20 DUP3 ADD DUP1 MLOAD PUSH28 0xFFFFFFFFFFFFFFFFFFFFFFFFFFFFFFFFFFFFFFFFFFFFFFFFFFFFFFFF DUP4 DUP2 DUP4 AND OR DUP4 MSTORE POP POP POP POP PUSH2 0x3F7F JUMP JUMPDEST POP JUMP JUMPDEST PUSH1 0x5 DUP3 DUP2 SLOAD DUP2 LT PUSH2 0x331E JUMPI PUSH2 0x331D PUSH2 0x4964 JUMP JUMPDEST JUMPDEST SWAP1 PUSH1 0x0 MSTORE PUSH1 0x20 PUSH1 0x0 KECCAK256 SWAP1 PUSH1 0x4 MUL ADD PUSH1 0x1 ADD PUSH1 0x0 SWAP1 SLOAD SWAP1 PUSH2 0x100 EXP SWAP1 DIV PUSH20 0xFFFFFFFFFFFFFFFFFFFFFFFFFFFFFFFFFFFFFFFF AND PUSH1 0xA PUSH1 0x0 PUSH2 0x100 EXP DUP2 SLOAD DUP2 PUSH20 0xFFFFFFFFFFFFFFFFFFFFFFFFFFFFFFFFFFFFFFFF MUL NOT AND SWAP1 DUP4 PUSH20 0xFFFFFFFFFFFFFFFFFFFFFFFFFFFFFFFFFFFFFFFF AND MUL OR SWAP1 SSTORE POP PUSH1 0x0 PUSH1 0x5 DUP4 DUP2 SLOAD DUP2 LT PUSH2 0x33A6 JUMPI PUSH2 0x33A5 PUSH2 0x4964 JUMP JUMPDEST JUMPDEST SWAP1 PUSH1 0x0 MSTORE PUSH1 0x20 PUSH1 0x0 KECCAK256 SWAP1 PUSH1 0x4 MUL ADD PUSH1 0x3 ADD PUSH1 0x0 SWAP1 SLOAD SWAP1 PUSH2 0x100 EXP SWAP1 DIV PUSH1 0xFF AND SWAP1 POP PUSH2 0x3415 PUSH1 0x5 DUP5 DUP2 SLOAD DUP2 LT PUSH2 0x33DE JUMPI PUSH2 0x33DD PUSH2 0x4964 JUMP JUMPDEST JUMPDEST SWAP1 PUSH1 0x0 MSTORE PUSH1 0x20 PUSH1 0x0 KECCAK256 SWAP1 PUSH1 0x4 MUL ADD PUSH1 0x1 ADD PUSH1 0x0 SWAP1 SLOAD SWAP1 PUSH2 0x100 EXP SWAP1 DIV PUSH20 0xFFFFFFFFFFFFFFFFFFFFFFFFFFFFFFFFFFFFFFFF AND PUSH2 0x3F99 JUMP JUMPDEST PUSH1 0x11 PUSH1 0x0 PUSH2 0x100 EXP DUP2 SLOAD DUP2 PUSH1 0xFF MUL NOT AND SWAP1 DUP4 PUSH1 0x3 DUP2 GT ISZERO PUSH2 0x3439 JUMPI PUSH2 0x3438 PUSH2 0x4BED JUMP JUMPDEST JUMPDEST MUL OR SWAP1 SSTORE POP PUSH1 0x11 PUSH1 0x0 SWAP1 SLOAD SWAP1 PUSH2 0x100 EXP SWAP1 DIV PUSH1 0xFF AND PUSH1 0x3 DUP2 GT ISZERO PUSH2 0x3460 JUMPI PUSH2 0x345F PUSH2 0x4BED JUMP JUMPDEST JUMPDEST DUP2 PUSH1 0x3 DUP2 GT ISZERO PUSH2 0x3473 JUMPI PUSH2 0x3472 PUSH2 0x4BED JUMP JUMPDEST JUMPDEST SUB PUSH2 0x34B3 JUMPI PUSH1 0x40 MLOAD PUSH32 0x8C379A000000000000000000000000000000000000000000000000000000000 DUP2 MSTORE PUSH1 0x4 ADD PUSH2 0x34AA SWAP1 PUSH2 0x5B9D JUMP JUMPDEST PUSH1 0x40 MLOAD DUP1 SWAP2 SUB SWAP1 REVERT JUMPDEST PUSH1 0x2 PUSH1 0x3 DUP2 GT ISZERO PUSH2 0x34C7 JUMPI PUSH2 0x34C6 PUSH2 0x4BED JUMP JUMPDEST JUMPDEST DUP2 PUSH1 0x3 DUP2 GT ISZERO PUSH2 0x34DA JUMPI PUSH2 0x34D9 PUSH2 0x4BED JUMP JUMPDEST JUMPDEST SUB PUSH2 0x35CC JUMPI PUSH1 0x0 PUSH1 0x40 MLOAD DUP1 PUSH1 0x60 ADD PUSH1 0x40 MSTORE DUP1 DUP5 DUP2 MSTORE PUSH1 0x20 ADD PUSH1 0xA PUSH1 0x0 SWAP1 SLOAD SWAP1 PUSH2 0x100 EXP SWAP1 DIV PUSH20 0xFFFFFFFFFFFFFFFFFFFFFFFFFFFFFFFFFFFFFFFF AND PUSH20 0xFFFFFFFFFFFFFFFFFFFFFFFFFFFFFFFFFFFFFFFF AND DUP2 MSTORE PUSH1 0x20 ADD PUSH1 0x0 DUP2 MSTORE POP SWAP1 DUP1 PUSH1 0x1 DUP2 SLOAD ADD DUP1 DUP3 SSTORE DUP1 SWAP2 POP POP PUSH1 0x1 SWAP1 SUB SWAP1 PUSH1 0x0 MSTORE PUSH1 0x20 PUSH1 0x0 KECCAK256 SWAP1 PUSH1 0x3 MUL ADD PUSH1 0x0 SWAP1 SWAP2 SWAP1 SWAP2 SWAP1 SWAP2 POP PUSH1 0x0 DUP3 ADD MLOAD DUP2 PUSH1 0x0 ADD SWAP1 DUP2 PUSH2 0x3573 SWAP2 SWAP1 PUSH2 0x532B JUMP JUMPDEST POP PUSH1 0x20 DUP3 ADD MLOAD DUP2 PUSH1 0x1 ADD PUSH1 0x0 PUSH2 0x100 EXP DUP2 SLOAD DUP2 PUSH20 0xFFFFFFFFFFFFFFFFFFFFFFFFFFFFFFFFFFFFFFFF MUL NOT AND SWAP1 DUP4 PUSH20 0xFFFFFFFFFFFFFFFFFFFFFFFFFFFFFFFFFFFFFFFF AND MUL OR SWAP1 SSTORE POP PUSH1 0x40 DUP3 ADD MLOAD DUP2 PUSH1 0x2 ADD SSTORE POP POP PUSH2 0x3824 JUMP JUMPDEST PUSH1 0x1 PUSH1 0x3 DUP2 GT ISZERO PUSH2 0x35E0 JUMPI PUSH2 0x35DF PUSH2 0x4BED JUMP JUMPDEST JUMPDEST DUP2 PUSH1 0x3 DUP2 GT ISZERO PUSH2 0x35F3 JUMPI PUSH2 0x35F2 PUSH2 0x4BED JUMP JUMPDEST JUMPDEST SUB PUSH2 0x36F5 JUMPI PUSH1 0x3 PUSH1 0x40 MLOAD DUP1 PUSH1 0x60 ADD PUSH1 0x40 MSTORE DUP1 PUSH1 0x1 PUSH1 0x3 DUP1 SLOAD SWAP1 POP PUSH2 0x3617 SWAP2 SWAP1 PUSH2 0x4C88 JUMP JUMPDEST DUP2 MSTORE PUSH1 0x20 ADD PUSH1 0xA PUSH1 0x0 SWAP1 SLOAD SWAP1 PUSH2 0x100 EXP SWAP1 DIV PUSH20 0xFFFFFFFFFFFFFFFFFFFFFFFFFFFFFFFFFFFFFFFF AND PUSH20 0xFFFFFFFFFFFFFFFFFFFFFFFFFFFFFFFFFFFFFFFF AND DUP2 MSTORE PUSH1 0x20 ADD DUP5 DUP2 MSTORE POP SWAP1 DUP1 PUSH1 0x1 DUP2 SLOAD ADD DUP1 DUP3 SSTORE DUP1 SWAP2 POP POP PUSH1 0x1 SWAP1 SUB SWAP1 PUSH1 0x0 MSTORE PUSH1 0x20 PUSH1 0x0 KECCAK256 SWAP1 PUSH1 0x3 MUL ADD PUSH1 0x0 SWAP1 SWAP2 SWAP1 SWAP2 SWAP1 SWAP2 POP PUSH1 0x0 DUP3 ADD MLOAD DUP2 PUSH1 0x0 ADD SSTORE PUSH1 0x20 DUP3 ADD MLOAD DUP2 PUSH1 0x1 ADD PUSH1 0x0 PUSH2 0x100 EXP DUP2 SLOAD DUP2 PUSH20 0xFFFFFFFFFFFFFFFFFFFFFFFFFFFFFFFFFFFFFFFF MUL NOT AND SWAP1 DUP4 PUSH20 0xFFFFFFFFFFFFFFFFFFFFFFFFFFFFFFFFFFFFFFFF AND MUL OR SWAP1 SSTORE POP PUSH1 0x40 DUP3 ADD MLOAD DUP2 PUSH1 0x2 ADD SWAP1 DUP2 PUSH2 0x36ED SWAP2 SWAP1 PUSH2 0x532B JUMP JUMPDEST POP POP POP PUSH2 0x3823 JUMP JUMPDEST PUSH1 0x0 PUSH1 0x3 DUP2 GT ISZERO PUSH2 0x3709 JUMPI PUSH2 0x3708 PUSH2 0x4BED JUMP JUMPDEST JUMPDEST DUP2 PUSH1 0x3 DUP2 GT ISZERO PUSH2 0x371C JUMPI PUSH2 0x371B PUSH2 0x4BED JUMP JUMPDEST JUMPDEST SUB PUSH2 0x3822 JUMPI PUSH1 0x7 PUSH1 0x40 MLOAD DUP1 PUSH1 0x60 ADD PUSH1 0x40 MSTORE DUP1 PUSH1 0xA PUSH1 0x0 SWAP1 SLOAD SWAP1 PUSH2 0x100 EXP SWAP1 DIV PUSH20 0xFFFFFFFFFFFFFFFFFFFFFFFFFFFFFFFFFFFFFFFF AND PUSH20 0xFFFFFFFFFFFFFFFFFFFFFFFFFFFFFFFFFFFFFFFF AND DUP2 MSTORE PUSH1 0x20 ADD DUP5 DUP2 MSTORE PUSH1 0x20 ADD PUSH1 0x0 ISZERO ISZERO DUP2 MSTORE POP SWAP1 DUP1 PUSH1 0x1 DUP2 SLOAD ADD DUP1 DUP3 SSTORE DUP1 SWAP2 POP POP PUSH1 0x1 SWAP1 SUB SWAP1 PUSH1 0x0 MSTORE PUSH1 0x20 PUSH1 0x0 KECCAK256 SWAP1 PUSH1 0x3 MUL ADD PUSH1 0x0 SWAP1 SWAP2 SWAP1 SWAP2 SWAP1 SWAP2 POP PUSH1 0x0 DUP3 ADD MLOAD DUP2 PUSH1 0x0 ADD PUSH1 0x0 PUSH2 0x100 EXP DUP2 SLOAD DUP2 PUSH20 0xFFFFFFFFFFFFFFFFFFFFFFFFFFFFFFFFFFFFFFFF MUL NOT AND SWAP1 DUP4 PUSH20 0xFFFFFFFFFFFFFFFFFFFFFFFFFFFFFFFFFFFFFFFF AND MUL OR SWAP1 SSTORE POP PUSH1 0x20 DUP3 ADD MLOAD DUP2 PUSH1 0x1 ADD SWAP1 DUP2 PUSH2 0x37FE SWAP2 SWAP1 PUSH2 0x532B JUMP JUMPDEST POP PUSH1 0x40 DUP3 ADD MLOAD DUP2 PUSH1 0x2 ADD PUSH1 0x0 PUSH2 0x100 EXP DUP2 SLOAD DUP2 PUSH1 0xFF MUL NOT AND SWAP1 DUP4 ISZERO ISZERO MUL OR SWAP1 SSTORE POP POP POP JUMPDEST JUMPDEST JUMPDEST PUSH2 0x382C PUSH2 0x3831 JUMP JUMPDEST POP POP POP JUMP JUMPDEST PUSH1 0x2 PUSH1 0x3 DUP2 GT ISZERO PUSH2 0x3845 JUMPI PUSH2 0x3844 PUSH2 0x4BED JUMP JUMPDEST JUMPDEST PUSH1 0x11 PUSH1 0x0 SWAP1 SLOAD SWAP1 PUSH2 0x100 EXP SWAP1 DIV PUSH1 0xFF AND PUSH1 0x3 DUP2 GT ISZERO PUSH2 0x3867 JUMPI PUSH2 0x3866 PUSH2 0x4BED JUMP JUMPDEST JUMPDEST SUB PUSH2 0x3901 JUMPI PUSH1 0x0 PUSH2 0x389B PUSH1 0x1 PUSH1 0xA PUSH1 0x0 SWAP1 SLOAD SWAP1 PUSH2 0x100 EXP SWAP1 DIV PUSH20 0xFFFFFFFFFFFFFFFFFFFFFFFFFFFFFFFFFFFFFFFF AND PUSH2 0x419A JUMP JUMPDEST DUP2 SLOAD DUP2 LT PUSH2 0x38AC JUMPI PUSH2 0x38AB PUSH2 0x4964 JUMP JUMPDEST JUMPDEST SWAP1 PUSH1 0x0 MSTORE PUSH1 0x20 PUSH1 0x0 KECCAK256 SWAP1 PUSH1 0x3 MUL ADD PUSH1 0x0 DUP1 DUP3 ADD PUSH1 0x0 PUSH2 0x38CB SWAP2 SWAP1 PUSH2 0x43DD JUMP JUMPDEST PUSH1 0x1 DUP3 ADD PUSH1 0x0 PUSH2 0x100 EXP DUP2 SLOAD SWAP1 PUSH20 0xFFFFFFFFFFFFFFFFFFFFFFFFFFFFFFFFFFFFFFFF MUL NOT AND SWAP1 SSTORE PUSH1 0x2 DUP3 ADD PUSH1 0x0 SWAP1 SSTORE POP POP PUSH2 0x3AAB JUMP JUMPDEST PUSH1 0x1 PUSH1 0x3 DUP2 GT ISZERO PUSH2 0x3915 JUMPI PUSH2 0x3914 PUSH2 0x4BED JUMP JUMPDEST JUMPDEST PUSH1 0x11 PUSH1 0x0 SWAP1 SLOAD SWAP1 PUSH2 0x100 EXP SWAP1 DIV PUSH1 0xFF AND PUSH1 0x3 DUP2 GT ISZERO PUSH2 0x3937 JUMPI PUSH2 0x3936 PUSH2 0x4BED JUMP JUMPDEST JUMPDEST SUB PUSH2 0x39D1 JUMPI PUSH1 0x3 PUSH2 0x396B PUSH1 0x2 PUSH1 0xA PUSH1 0x0 SWAP1 SLOAD SWAP1 PUSH2 0x100 EXP SWAP1 DIV PUSH20 0xFFFFFFFFFFFFFFFFFFFFFFFFFFFFFFFFFFFFFFFF AND PUSH2 0x419A JUMP JUMPDEST DUP2 SLOAD DUP2 LT PUSH2 0x397C JUMPI PUSH2 0x397B PUSH2 0x4964 JUMP JUMPDEST JUMPDEST SWAP1 PUSH1 0x0 MSTORE PUSH1 0x20 PUSH1 0x0 KECCAK256 SWAP1 PUSH1 0x3 MUL ADD PUSH1 0x0 DUP1 DUP3 ADD PUSH1 0x0 SWAP1 SSTORE PUSH1 0x1 DUP3 ADD PUSH1 0x0 PUSH2 0x100 EXP DUP2 SLOAD SWAP1 PUSH20 0xFFFFFFFFFFFFFFFFFFFFFFFFFFFFFFFFFFFFFFFF MUL NOT AND SWAP1 SSTORE PUSH1 0x2 DUP3 ADD PUSH1 0x0 PUSH2 0x39CA SWAP2 SWAP1 PUSH2 0x43DD JUMP JUMPDEST POP POP PUSH2 0x3AAA JUMP JUMPDEST PUSH1 0x0 PUSH1 0x3 DUP2 GT ISZERO PUSH2 0x39E5 JUMPI PUSH2 0x39E4 PUSH2 0x4BED JUMP JUMPDEST JUMPDEST PUSH1 0x11 PUSH1 0x0 SWAP1 SLOAD SWAP1 PUSH2 0x100 EXP SWAP1 DIV PUSH1 0xFF AND PUSH1 0x3 DUP2 GT ISZERO PUSH2 0x3A07 JUMPI PUSH2 0x3A06 PUSH2 0x4BED JUMP JUMPDEST JUMPDEST SUB PUSH2 0x3AA9 JUMPI PUSH1 0x7 PUSH2 0x3A3B PUSH1 0x0 PUSH1 0xA PUSH1 0x0 SWAP1 SLOAD SWAP1 PUSH2 0x100 EXP SWAP1 DIV PUSH20 0xFFFFFFFFFFFFFFFFFFFFFFFFFFFFFFFFFFFFFFFF AND PUSH2 0x419A JUMP JUMPDEST DUP2 SLOAD DUP2 LT PUSH2 0x3A4C JUMPI PUSH2 0x3A4B PUSH2 0x4964 JUMP JUMPDEST JUMPDEST SWAP1 PUSH1 0x0 MSTORE PUSH1 0x20 PUSH1 0x0 KECCAK256 SWAP1 PUSH1 0x3 MUL ADD PUSH1 0x0 DUP1 DUP3 ADD PUSH1 0x0 PUSH2 0x100 EXP DUP2 SLOAD SWAP1 PUSH20 0xFFFFFFFFFFFFFFFFFFFFFFFFFFFFFFFFFFFFFFFF MUL NOT AND SWAP1 SSTORE PUSH1 0x1 DUP3 ADD PUSH1 0x0 PUSH2 0x3A92 SWAP2 SWAP1 PUSH2 0x43DD JUMP JUMPDEST PUSH1 0x2 DUP3 ADD PUSH1 0x0 PUSH2 0x100 EXP DUP2 SLOAD SWAP1 PUSH1 0xFF MUL NOT AND SWAP1 SSTORE POP POP JUMPDEST JUMPDEST JUMPDEST JUMP JUMPDEST PUSH1 0x0 DUP1 PUSH1 0x0 SWAP1 POP JUMPDEST PUSH1 0x10 SLOAD DUP2 LT ISZERO PUSH2 0x3B42 JUMPI DUP3 PUSH20 0xFFFFFFFFFFFFFFFFFFFFFFFFFFFFFFFFFFFFFFFF AND PUSH1 0x14 PUSH1 0x0 DUP4 DUP2 MSTORE PUSH1 0x20 ADD SWAP1 DUP2 MSTORE PUSH1 0x20 ADD PUSH1 0x0 KECCAK256 PUSH1 0x0 SWAP1 SLOAD SWAP1 PUSH2 0x100 EXP SWAP1 DIV PUSH20 0xFFFFFFFFFFFFFFFFFFFFFFFFFFFFFFFFFFFFFFFF AND PUSH20 0xFFFFFFFFFFFFFFFFFFFFFFFFFFFFFFFFFFFFFFFF AND SUB PUSH2 0x3B2F JUMPI PUSH1 0x1 SWAP2 POP POP PUSH2 0x3B48 JUMP JUMPDEST DUP1 DUP1 PUSH2 0x3B3A SWAP1 PUSH2 0x49C2 JUMP JUMPDEST SWAP2 POP POP PUSH2 0x3AB5 JUMP JUMPDEST POP PUSH1 0x0 SWAP1 POP JUMPDEST SWAP2 SWAP1 POP JUMP JUMPDEST PUSH1 0x0 DUP2 TIMESTAMP CALLER PUSH1 0x40 MLOAD PUSH1 0x20 ADD PUSH2 0x3B63 SWAP3 SWAP2 SWAP1 PUSH2 0x5C26 JUMP JUMPDEST PUSH1 0x40 MLOAD PUSH1 0x20 DUP2 DUP4 SUB SUB DUP2 MSTORE SWAP1 PUSH1 0x40 MSTORE DUP1 MLOAD SWAP1 PUSH1 0x20 ADD KECCAK256 PUSH1 0x0 SHR PUSH2 0x3B86 SWAP2 SWAP1 PUSH2 0x5C52 JUMP JUMPDEST SWAP1 POP SWAP2 SWAP1 POP JUMP JUMPDEST PUSH1 0x0 PUSH2 0x3B98 DUP3 PUSH2 0x3AAD JUMP JUMPDEST SWAP1 POP PUSH1 0x0 ISZERO ISZERO DUP2 ISZERO ISZERO SUB PUSH2 0x3C17 JUMPI DUP2 PUSH1 0x14 PUSH1 0x0 PUSH1 0x10 SLOAD DUP2 MSTORE PUSH1 0x20 ADD SWAP1 DUP2 MSTORE PUSH1 0x20 ADD PUSH1 0x0 KECCAK256 PUSH1 0x0 PUSH2 0x100 EXP DUP2 SLOAD DUP2 PUSH20 0xFFFFFFFFFFFFFFFFFFFFFFFFFFFFFFFFFFFFFFFF MUL NOT AND SWAP1 DUP4 PUSH20 0xFFFFFFFFFFFFFFFFFFFFFFFFFFFFFFFFFFFFFFFF AND MUL OR SWAP1 SSTORE POP PUSH1 0x10 PUSH1 0x0 DUP2 SLOAD DUP1 SWAP3 SWAP2 SWAP1 PUSH2 0x3C0D SWAP1 PUSH2 0x49C2 JUMP JUMPDEST SWAP2 SWAP1 POP SSTORE POP PUSH2 0x3C18 JUMP JUMPDEST JUMPDEST PUSH1 0xF PUSH1 0x0 DUP2 SLOAD DUP1 SWAP3 SWAP2 SWAP1 PUSH2 0x3C2B SWAP1 PUSH2 0x49C2 JUMP JUMPDEST SWAP2 SWAP1 POP SSTORE POP POP POP JUMP JUMPDEST PUSH2 0x3CCA DUP2 PUSH1 0x40 MLOAD PUSH1 0x24 ADD PUSH2 0x3C48 SWAP2 SWAP1 PUSH2 0x5C92 JUMP JUMPDEST PUSH1 0x40 MLOAD PUSH1 0x20 DUP2 DUP4 SUB SUB DUP2 MSTORE SWAP1 PUSH1 0x40 MSTORE PUSH32 0xF82C50F100000000000000000000000000000000000000000000000000000000 PUSH28 0xFFFFFFFFFFFFFFFFFFFFFFFFFFFFFFFFFFFFFFFFFFFFFFFFFFFFFFFF NOT AND PUSH1 0x20 DUP3 ADD DUP1 MLOAD PUSH28 0xFFFFFFFFFFFFFFFFFFFFFFFFFFFFFFFFFFFFFFFFFFFFFFFFFFFFFFFF DUP4 DUP2 DUP4 AND OR DUP4 MSTORE POP POP POP POP PUSH2 0x3F7F JUMP JUMPDEST POP JUMP JUMPDEST PUSH2 0x3D63 DUP2 PUSH1 0x40 MLOAD PUSH1 0x24 ADD PUSH2 0x3CE1 SWAP2 SWAP1 PUSH2 0x5CBC JUMP JUMPDEST PUSH1 0x40 MLOAD PUSH1 0x20 DUP2 DUP4 SUB SUB DUP2 MSTORE SWAP1 PUSH1 0x40 MSTORE PUSH32 0x2C2ECBC200000000000000000000000000000000000000000000000000000000 PUSH28 0xFFFFFFFFFFFFFFFFFFFFFFFFFFFFFFFFFFFFFFFFFFFFFFFFFFFFFFFF NOT AND PUSH1 0x20 DUP3 ADD DUP1 MLOAD PUSH28 0xFFFFFFFFFFFFFFFFFFFFFFFFFFFFFFFFFFFFFFFFFFFFFFFFFFFFFFFF DUP4 DUP2 DUP4 AND OR DUP4 MSTORE POP POP POP POP PUSH2 0x3F7F JUMP JUMPDEST POP JUMP JUMPDEST PUSH1 0x60 PUSH1 0x0 PUSH1 0x2 DUP4 DUP2 SLOAD DUP2 LT PUSH2 0x3D7E JUMPI PUSH2 0x3D7D PUSH2 0x4964 JUMP JUMPDEST JUMPDEST SWAP1 PUSH1 0x0 MSTORE PUSH1 0x20 PUSH1 0x0 KECCAK256 SWAP1 PUSH1 0x4 MUL ADD PUSH1 0x1 ADD DUP1 SLOAD PUSH2 0x3D9A SWAP1 PUSH2 0x4EE7 JUMP JUMPDEST DUP1 PUSH1 0x1F ADD PUSH1 0x20 DUP1 SWAP2 DIV MUL PUSH1 0x20 ADD PUSH1 0x40 MLOAD SWAP1 DUP2 ADD PUSH1 0x40 MSTORE DUP1 SWAP3 SWAP2 SWAP1 DUP2 DUP2 MSTORE PUSH1 0x20 ADD DUP3 DUP1 SLOAD PUSH2 0x3DC6 SWAP1 PUSH2 0x4EE7 JUMP JUMPDEST DUP1 ISZERO PUSH2 0x3E13 JUMPI DUP1 PUSH1 0x1F LT PUSH2 0x3DE8 JUMPI PUSH2 0x100 DUP1 DUP4 SLOAD DIV MUL DUP4 MSTORE SWAP2 PUSH1 0x20 ADD SWAP2 PUSH2 0x3E13 JUMP JUMPDEST DUP3 ADD SWAP2 SWAP1 PUSH1 0x0 MSTORE PUSH1 0x20 PUSH1 0x0 KECCAK256 SWAP1 JUMPDEST DUP2 SLOAD DUP2 MSTORE SWAP1 PUSH1 0x1 ADD SWAP1 PUSH1 0x20 ADD DUP1 DUP4 GT PUSH2 0x3DF6 JUMPI DUP3 SWAP1 SUB PUSH1 0x1F AND DUP3 ADD SWAP2 JUMPDEST POP POP POP POP POP SWAP1 POP PUSH1 0x0 PUSH1 0x2 DUP5 DUP2 SLOAD DUP2 LT PUSH2 0x3E30 JUMPI PUSH2 0x3E2F PUSH2 0x4964 JUMP JUMPDEST JUMPDEST SWAP1 PUSH1 0x0 MSTORE PUSH1 0x20 PUSH1 0x0 KECCAK256 SWAP1 PUSH1 0x4 MUL ADD PUSH1 0x2 ADD DUP1 SLOAD PUSH2 0x3E4C SWAP1 PUSH2 0x4EE7 JUMP JUMPDEST DUP1 PUSH1 0x1F ADD PUSH1 0x20 DUP1 SWAP2 DIV MUL PUSH1 0x20 ADD PUSH1 0x40 MLOAD SWAP1 DUP2 ADD PUSH1 0x40 MSTORE DUP1 SWAP3 SWAP2 SWAP1 DUP2 DUP2 MSTORE PUSH1 0x20 ADD DUP3 DUP1 SLOAD PUSH2 0x3E78 SWAP1 PUSH2 0x4EE7 JUMP JUMPDEST DUP1 ISZERO PUSH2 0x3EC5 JUMPI DUP1 PUSH1 0x1F LT PUSH2 0x3E9A JUMPI PUSH2 0x100 DUP1 DUP4 SLOAD DIV MUL DUP4 MSTORE SWAP2 PUSH1 0x20 ADD SWAP2 PUSH2 0x3EC5 JUMP JUMPDEST DUP3 ADD SWAP2 SWAP1 PUSH1 0x0 MSTORE PUSH1 0x20 PUSH1 0x0 KECCAK256 SWAP1 JUMPDEST DUP2 SLOAD DUP2 MSTORE SWAP1 PUSH1 0x1 ADD SWAP1 PUSH1 0x20 ADD DUP1 DUP4 GT PUSH2 0x3EA8 JUMPI DUP3 SWAP1 SUB PUSH1 0x1F AND DUP3 ADD SWAP2 JUMPDEST POP POP POP POP POP SWAP1 POP DUP2 DUP2 PUSH1 0x40 MLOAD PUSH1 0x20 ADD PUSH2 0x3EDF SWAP3 SWAP2 SWAP1 PUSH2 0x5D39 JUMP JUMPDEST PUSH1 0x40 MLOAD PUSH1 0x20 DUP2 DUP4 SUB SUB DUP2 MSTORE SWAP1 PUSH1 0x40 MSTORE SWAP3 POP POP POP SWAP2 SWAP1 POP JUMP JUMPDEST PUSH1 0x0 DUP1 PUSH1 0x0 SWAP1 POP JUMPDEST PUSH1 0x8 DUP1 SLOAD SWAP1 POP DUP2 LT ISZERO PUSH2 0x3F4E JUMPI PUSH1 0x8 DUP2 DUP2 SLOAD DUP2 LT PUSH2 0x3F20 JUMPI PUSH2 0x3F1F PUSH2 0x4964 JUMP JUMPDEST JUMPDEST SWAP1 PUSH1 0x0 MSTORE PUSH1 0x20 PUSH1 0x0 KECCAK256 ADD SLOAD DUP4 SUB PUSH2 0x3F3B JUMPI PUSH1 0x1 SWAP2 POP POP PUSH2 0x3F54 JUMP JUMPDEST DUP1 DUP1 PUSH2 0x3F46 SWAP1 PUSH2 0x49C2 JUMP JUMPDEST SWAP2 POP POP PUSH2 0x3EFF JUMP JUMPDEST POP PUSH1 0x0 SWAP1 POP JUMPDEST SWAP2 SWAP1 POP JUMP JUMPDEST PUSH1 0x0 DUP1 PUSH1 0xA DUP4 PUSH2 0x3F69 SWAP2 SWAP1 PUSH2 0x5143 JUMP JUMPDEST DUP4 PUSH2 0x3F74 SWAP2 SWAP1 PUSH2 0x4C88 JUMP JUMPDEST SWAP1 POP DUP1 SWAP2 POP POP SWAP2 SWAP1 POP JUMP JUMPDEST PUSH2 0x3F96 DUP2 PUSH2 0x3F8E PUSH2 0x43B1 PUSH2 0x43D2 JUMP JUMPDEST PUSH4 0xFFFFFFFF AND JUMP JUMPDEST POP JUMP JUMPDEST PUSH1 0x0 DUP1 PUSH1 0x0 SWAP1 POP JUMPDEST PUSH1 0x7 DUP1 SLOAD SWAP1 POP DUP2 LT ISZERO PUSH2 0x4043 JUMPI DUP3 PUSH20 0xFFFFFFFFFFFFFFFFFFFFFFFFFFFFFFFFFFFFFFFF AND PUSH1 0x7 DUP3 DUP2 SLOAD DUP2 LT PUSH2 0x3FD9 JUMPI PUSH2 0x3FD8 PUSH2 0x4964 JUMP JUMPDEST JUMPDEST SWAP1 PUSH1 0x0 MSTORE PUSH1 0x20 PUSH1 0x0 KECCAK256 SWAP1 PUSH1 0x3 MUL ADD PUSH1 0x0 ADD PUSH1 0x0 SWAP1 SLOAD SWAP1 PUSH2 0x100 EXP SWAP1 DIV PUSH20 0xFFFFFFFFFFFFFFFFFFFFFFFFFFFFFFFFFFFFFFFF AND PUSH20 0xFFFFFFFFFFFFFFFFFFFFFFFFFFFFFFFFFFFFFFFF AND SUB PUSH2 0x4030 JUMPI PUSH1 0x0 SWAP2 POP POP PUSH2 0x4195 JUMP JUMPDEST DUP1 DUP1 PUSH2 0x403B SWAP1 PUSH2 0x49C2 JUMP JUMPDEST SWAP2 POP POP PUSH2 0x3FA1 JUMP JUMPDEST POP PUSH1 0x0 JUMPDEST PUSH1 0x0 DUP1 SLOAD SWAP1 POP DUP2 LT ISZERO PUSH2 0x40E9 JUMPI DUP3 PUSH20 0xFFFFFFFFFFFFFFFFFFFFFFFFFFFFFFFFFFFFFFFF AND PUSH1 0x0 DUP3 DUP2 SLOAD DUP2 LT PUSH2 0x407F JUMPI PUSH2 0x407E PUSH2 0x4964 JUMP JUMPDEST JUMPDEST SWAP1 PUSH1 0x0 MSTORE PUSH1 0x20 PUSH1 0x0 KECCAK256 SWAP1 PUSH1 0x3 MUL ADD PUSH1 0x1 ADD PUSH1 0x0 SWAP1 SLOAD SWAP1 PUSH2 0x100 EXP SWAP1 DIV PUSH20 0xFFFFFFFFFFFFFFFFFFFFFFFFFFFFFFFFFFFFFFFF AND PUSH20 0xFFFFFFFFFFFFFFFFFFFFFFFFFFFFFFFFFFFFFFFF AND SUB PUSH2 0x40D6 JUMPI PUSH1 0x2 SWAP2 POP POP PUSH2 0x4195 JUMP JUMPDEST DUP1 DUP1 PUSH2 0x40E1 SWAP1 PUSH2 0x49C2 JUMP JUMPDEST SWAP2 POP POP PUSH2 0x4047 JUMP JUMPDEST POP PUSH1 0x0 JUMPDEST PUSH1 0x3 DUP1 SLOAD SWAP1 POP DUP2 LT ISZERO PUSH2 0x418F JUMPI DUP3 PUSH20 0xFFFFFFFFFFFFFFFFFFFFFFFFFFFFFFFFFFFFFFFF AND PUSH1 0x3 DUP3 DUP2 SLOAD DUP2 LT PUSH2 0x4125 JUMPI PUSH2 0x4124 PUSH2 0x4964 JUMP JUMPDEST JUMPDEST SWAP1 PUSH1 0x0 MSTORE PUSH1 0x20 PUSH1 0x0 KECCAK256 SWAP1 PUSH1 0x3 MUL ADD PUSH1 0x1 ADD PUSH1 0x0 SWAP1 SLOAD SWAP1 PUSH2 0x100 EXP SWAP1 DIV PUSH20 0xFFFFFFFFFFFFFFFFFFFFFFFFFFFFFFFFFFFFFFFF AND PUSH20 0xFFFFFFFFFFFFFFFFFFFFFFFFFFFFFFFFFFFFFFFF AND SUB PUSH2 0x417C JUMPI PUSH1 0x1 SWAP2 POP POP PUSH2 0x4195 JUMP JUMPDEST DUP1 DUP1 PUSH2 0x4187 SWAP1 PUSH2 0x49C2 JUMP JUMPDEST SWAP2 POP POP PUSH2 0x40ED JUMP JUMPDEST POP PUSH1 0x0 SWAP1 POP JUMPDEST SWAP2 SWAP1 POP JUMP JUMPDEST PUSH1 0x0 PUSH1 0x1 DUP4 SUB PUSH2 0x424A JUMPI PUSH1 0x0 JUMPDEST PUSH1 0x0 DUP1 SLOAD SWAP1 POP DUP2 LT ISZERO PUSH2 0x4248 JUMPI PUSH1 0x0 DUP2 DUP2 SLOAD DUP2 LT PUSH2 0x41C8 JUMPI PUSH2 0x41C7 PUSH2 0x4964 JUMP JUMPDEST JUMPDEST SWAP1 PUSH1 0x0 MSTORE PUSH1 0x20 PUSH1 0x0 KECCAK256 SWAP1 PUSH1 0x3 MUL ADD PUSH1 0x1 ADD PUSH1 0x0 SWAP1 SLOAD SWAP1 PUSH2 0x100 EXP SWAP1 DIV PUSH20 0xFFFFFFFFFFFFFFFFFFFFFFFFFFFFFFFFFFFFFFFF AND PUSH20 0xFFFFFFFFFFFFFFFFFFFFFFFFFFFFFFFFFFFFFFFF AND DUP4 PUSH20 0xFFFFFFFFFFFFFFFFFFFFFFFFFFFFFFFFFFFFFFFF AND SUB PUSH2 0x4235 JUMPI DUP1 SWAP2 POP POP PUSH2 0x43AB JUMP JUMPDEST DUP1 DUP1 PUSH2 0x4240 SWAP1 PUSH2 0x49C2 JUMP JUMPDEST SWAP2 POP POP PUSH2 0x41A7 JUMP JUMPDEST POP JUMPDEST PUSH1 0x2 DUP4 SUB PUSH2 0x42F8 JUMPI PUSH1 0x0 JUMPDEST PUSH1 0x3 DUP1 SLOAD SWAP1 POP DUP2 LT ISZERO PUSH2 0x42F6 JUMPI PUSH1 0x3 DUP2 DUP2 SLOAD DUP2 LT PUSH2 0x4276 JUMPI PUSH2 0x4275 PUSH2 0x4964 JUMP JUMPDEST JUMPDEST SWAP1 PUSH1 0x0 MSTORE PUSH1 0x20 PUSH1 0x0 KECCAK256 SWAP1 PUSH1 0x3 MUL ADD PUSH1 0x1 ADD PUSH1 0x0 SWAP1 SLOAD SWAP1 PUSH2 0x100 EXP SWAP1 DIV PUSH20 0xFFFFFFFFFFFFFFFFFFFFFFFFFFFFFFFFFFFFFFFF AND PUSH20 0xFFFFFFFFFFFFFFFFFFFFFFFFFFFFFFFFFFFFFFFF AND DUP4 PUSH20 0xFFFFFFFFFFFFFFFFFFFFFFFFFFFFFFFFFFFFFFFF AND SUB PUSH2 0x42E3 JUMPI DUP1 SWAP2 POP POP PUSH2 0x43AB JUMP JUMPDEST DUP1 DUP1 PUSH2 0x42EE SWAP1 PUSH2 0x49C2 JUMP JUMPDEST SWAP2 POP POP PUSH2 0x4255 JUMP JUMPDEST POP JUMPDEST PUSH1 0x0 DUP4 SUB PUSH2 0x43A6 JUMPI PUSH1 0x0 JUMPDEST PUSH1 0x7 DUP1 SLOAD SWAP1 POP DUP2 LT ISZERO PUSH2 0x43A4 JUMPI PUSH1 0x7 DUP2 DUP2 SLOAD DUP2 LT PUSH2 0x4324 JUMPI PUSH2 0x4323 PUSH2 0x4964 JUMP JUMPDEST JUMPDEST SWAP1 PUSH1 0x0 MSTORE PUSH1 0x20 PUSH1 0x0 KECCAK256 SWAP1 PUSH1 0x3 MUL ADD PUSH1 0x0 ADD PUSH1 0x0 SWAP1 SLOAD SWAP1 PUSH2 0x100 EXP SWAP1 DIV PUSH20 0xFFFFFFFFFFFFFFFFFFFFFFFFFFFFFFFFFFFFFFFF AND PUSH20 0xFFFFFFFFFFFFFFFFFFFFFFFFFFFFFFFFFFFFFFFF AND DUP4 PUSH20 0xFFFFFFFFFFFFFFFFFFFFFFFFFFFFFFFFFFFFFFFF AND SUB PUSH2 0x4391 JUMPI DUP1 SWAP2 POP POP PUSH2 0x43AB JUMP JUMPDEST DUP1 DUP1 PUSH2 0x439C SWAP1 PUSH2 0x49C2 JUMP JUMPDEST SWAP2 POP POP PUSH2 0x4303 JUMP JUMPDEST POP JUMPDEST PUSH1 0x0 SWAP1 POP JUMPDEST SWAP3 SWAP2 POP POP JUMP JUMPDEST PUSH1 0x0 PUSH11 0x636F6E736F6C652E6C6F67 SWAP1 POP PUSH1 0x0 DUP1 DUP4 MLOAD PUSH1 0x20 DUP6 ADD DUP5 GAS STATICCALL POP POP POP JUMP JUMPDEST PUSH2 0x441D DUP2 SWAP1 POP SWAP2 SWAP1 POP JUMP JUMPDEST POP DUP1 SLOAD PUSH2 0x43E9 SWAP1 PUSH2 0x4EE7 JUMP JUMPDEST PUSH1 0x0 DUP3 SSTORE DUP1 PUSH1 0x1F LT PUSH2 0x43FB JUMPI POP PUSH2 0x441A JUMP JUMPDEST PUSH1 0x1F ADD PUSH1 0x20 SWAP1 DIV SWAP1 PUSH1 0x0 MSTORE PUSH1 0x20 PUSH1 0x0 KECCAK256 SWAP1 DUP2 ADD SWAP1 PUSH2 0x4419 SWAP2 SWAP1 PUSH2 0x4427 JUMP JUMPDEST JUMPDEST POP JUMP JUMPDEST PUSH2 0x4425 PUSH2 0x5D6C JUMP JUMPDEST JUMP JUMPDEST JUMPDEST DUP1 DUP3 GT ISZERO PUSH2 0x4440 JUMPI PUSH1 0x0 DUP2 PUSH1 0x0 SWAP1 SSTORE POP PUSH1 0x1 ADD PUSH2 0x4428 JUMP JUMPDEST POP SWAP1 JUMP JUMPDEST PUSH1 0x0 PUSH1 0x40 MLOAD SWAP1 POP SWAP1 JUMP JUMPDEST PUSH1 0x0 DUP1 REVERT JUMPDEST PUSH1 0x0 DUP1 REVERT JUMPDEST PUSH1 0x0 DUP2 SWAP1 POP SWAP2 SWAP1 POP JUMP JUMPDEST PUSH2 0x446B DUP2 PUSH2 0x4458 JUMP JUMPDEST DUP2 EQ PUSH2 0x4476 JUMPI PUSH1 0x0 DUP1 REVERT JUMPDEST POP JUMP JUMPDEST PUSH1 0x0 DUP2 CALLDATALOAD SWAP1 POP PUSH2 0x4488 DUP2 PUSH2 0x4462 JUMP JUMPDEST SWAP3 SWAP2 POP POP JUMP JUMPDEST PUSH1 0x0 DUP1 PUSH1 0x40 DUP4 DUP6 SUB SLT ISZERO PUSH2 0x44A5 JUMPI PUSH2 0x44A4 PUSH2 0x444E JUMP JUMPDEST JUMPDEST PUSH1 0x0 PUSH2 0x44B3 DUP6 DUP3 DUP7 ADD PUSH2 0x4479 JUMP JUMPDEST SWAP3 POP POP PUSH1 0x20 PUSH2 0x44C4 DUP6 DUP3 DUP7 ADD PUSH2 0x4479 JUMP JUMPDEST SWAP2 POP POP SWAP3 POP SWAP3 SWAP1 POP JUMP JUMPDEST PUSH1 0x0 DUP2 ISZERO ISZERO SWAP1 POP SWAP2 SWAP1 POP JUMP JUMPDEST PUSH2 0x44E3 DUP2 PUSH2 0x44CE JUMP JUMPDEST DUP2 EQ PUSH2 0x44EE JUMPI PUSH1 0x0 DUP1 REVERT JUMPDEST POP JUMP JUMPDEST PUSH1 0x0 DUP2 CALLDATALOAD SWAP1 POP PUSH2 0x4500 DUP2 PUSH2 0x44DA JUMP JUMPDEST SWAP3 SWAP2 POP POP JUMP JUMPDEST PUSH1 0x0 DUP1 PUSH1 0x40 DUP4 DUP6 SUB SLT ISZERO PUSH2 0x451D JUMPI PUSH2 0x451C PUSH2 0x444E JUMP JUMPDEST JUMPDEST PUSH1 0x0 PUSH2 0x452B DUP6 DUP3 DUP7 ADD PUSH2 0x44F1 JUMP JUMPDEST SWAP3 POP POP PUSH1 0x20 PUSH2 0x453C DUP6 DUP3 DUP7 ADD PUSH2 0x4479 JUMP JUMPDEST SWAP2 POP POP SWAP3 POP SWAP3 SWAP1 POP JUMP JUMPDEST PUSH1 0x0 DUP2 SWAP1 POP SWAP2 SWAP1 POP JUMP JUMPDEST PUSH2 0x4559 DUP2 PUSH2 0x4546 JUMP JUMPDEST DUP2 EQ PUSH2 0x4564 JUMPI PUSH1 0x0 DUP1 REVERT JUMPDEST POP JUMP JUMPDEST PUSH1 0x0 DUP2 CALLDATALOAD SWAP1 POP PUSH2 0x4576 DUP2 PUSH2 0x4550 JUMP JUMPDEST SWAP3 SWAP2 POP POP JUMP JUMPDEST PUSH1 0x0 DUP1 PUSH1 0x40 DUP4 DUP6 SUB SLT ISZERO PUSH2 0x4593 JUMPI PUSH2 0x4592 PUSH2 0x444E JUMP JUMPDEST JUMPDEST PUSH1 0x0 PUSH2 0x45A1 DUP6 DUP3 DUP7 ADD PUSH2 0x4567 JUMP JUMPDEST SWAP3 POP POP PUSH1 0x20 PUSH2 0x45B2 DUP6 DUP3 DUP7 ADD PUSH2 0x4479 JUMP JUMPDEST SWAP2 POP POP SWAP3 POP SWAP3 SWAP1 POP JUMP JUMPDEST PUSH1 0x0 PUSH20 0xFFFFFFFFFFFFFFFFFFFFFFFFFFFFFFFFFFFFFFFF DUP3 AND SWAP1 POP SWAP2 SWAP1 POP JUMP JUMPDEST PUSH1 0x0 PUSH2 0x45E7 DUP3 PUSH2 0x45BC JUMP JUMPDEST SWAP1 POP SWAP2 SWAP1 POP JUMP JUMPDEST PUSH2 0x45F7 DUP2 PUSH2 0x45DC JUMP JUMPDEST DUP2 EQ PUSH2 0x4602 JUMPI PUSH1 0x0 DUP1 REVERT JUMPDEST POP JUMP JUMPDEST PUSH1 0x0 DUP2 CALLDATALOAD SWAP1 POP PUSH2 0x4614 DUP2 PUSH2 0x45EE JUMP JUMPDEST SWAP3 SWAP2 POP POP JUMP JUMPDEST PUSH1 0x0 PUSH1 0x20 DUP3 DUP5 SUB SLT ISZERO PUSH2 0x4630 JUMPI PUSH2 0x462F PUSH2 0x444E JUMP JUMPDEST JUMPDEST PUSH1 0x0 PUSH2 0x463E DUP5 DUP3 DUP6 ADD PUSH2 0x4605 JUMP JUMPDEST SWAP2 POP POP SWAP3 SWAP2 POP POP JUMP JUMPDEST PUSH1 0x0 PUSH1 0x20 DUP3 DUP5 SUB SLT ISZERO PUSH2 0x465D JUMPI PUSH2 0x465C PUSH2 0x444E JUMP JUMPDEST JUMPDEST PUSH1 0x0 PUSH2 0x466B DUP5 DUP3 DUP6 ADD PUSH2 0x4479 JUMP JUMPDEST SWAP2 POP POP SWAP3 SWAP2 POP POP JUMP JUMPDEST PUSH1 0x4 DUP2 LT PUSH2 0x4681 JUMPI PUSH1 0x0 DUP1 REVERT JUMPDEST POP JUMP JUMPDEST PUSH1 0x0 DUP2 CALLDATALOAD SWAP1 POP PUSH2 0x4693 DUP2 PUSH2 0x4674 JUMP JUMPDEST SWAP3 SWAP2 POP POP JUMP JUMPDEST PUSH1 0x0 DUP1 REVERT JUMPDEST PUSH1 0x0 DUP1 REVERT JUMPDEST PUSH1 0x0 PUSH1 0x1F NOT PUSH1 0x1F DUP4 ADD AND SWAP1 POP SWAP2 SWAP1 POP JUMP JUMPDEST PUSH32 0x4E487B7100000000000000000000000000000000000000000000000000000000 PUSH1 0x0 MSTORE PUSH1 0x41 PUSH1 0x4 MSTORE PUSH1 0x24 PUSH1 0x0 REVERT JUMPDEST PUSH2 0x46EC DUP3 PUSH2 0x46A3 JUMP JUMPDEST DUP2 ADD DUP2 DUP2 LT PUSH8 0xFFFFFFFFFFFFFFFF DUP3 GT OR ISZERO PUSH2 0x470B JUMPI PUSH2 0x470A PUSH2 0x46B4 JUMP JUMPDEST JUMPDEST DUP1 PUSH1 0x40 MSTORE POP POP POP JUMP JUMPDEST PUSH1 0x0 PUSH2 0x471E PUSH2 0x4444 JUMP JUMPDEST SWAP1 POP PUSH2 0x472A DUP3 DUP3 PUSH2 0x46E3 JUMP JUMPDEST SWAP2 SWAP1 POP JUMP JUMPDEST PUSH1 0x0 PUSH8 0xFFFFFFFFFFFFFFFF DUP3 GT ISZERO PUSH2 0x474A JUMPI PUSH2 0x4749 PUSH2 0x46B4 JUMP JUMPDEST JUMPDEST PUSH2 0x4753 DUP3 PUSH2 0x46A3 JUMP JUMPDEST SWAP1 POP PUSH1 0x20 DUP2 ADD SWAP1 POP SWAP2 SWAP1 POP JUMP JUMPDEST DUP3 DUP2 DUP4 CALLDATACOPY PUSH1 0x0 DUP4 DUP4 ADD MSTORE POP POP POP JUMP JUMPDEST PUSH1 0x0 PUSH2 0x4782 PUSH2 0x477D DUP5 PUSH2 0x472F JUMP JUMPDEST PUSH2 0x4714 JUMP JUMPDEST SWAP1 POP DUP3 DUP2 MSTORE PUSH1 0x20 DUP2 ADD DUP5 DUP5 DUP5 ADD GT ISZERO PUSH2 0x479E JUMPI PUSH2 0x479D PUSH2 0x469E JUMP JUMPDEST JUMPDEST PUSH2 0x47A9 DUP5 DUP3 DUP6 PUSH2 0x4760 JUMP JUMPDEST POP SWAP4 SWAP3 POP POP POP JUMP JUMPDEST PUSH1 0x0 DUP3 PUSH1 0x1F DUP4 ADD SLT PUSH2 0x47C6 JUMPI PUSH2 0x47C5 PUSH2 0x4699 JUMP JUMPDEST JUMPDEST DUP2 CALLDATALOAD PUSH2 0x47D6 DUP5 DUP3 PUSH1 0x20 DUP7 ADD PUSH2 0x476F JUMP JUMPDEST SWAP2 POP POP SWAP3 SWAP2 POP POP JUMP JUMPDEST PUSH1 0x0 DUP1 PUSH1 0x40 DUP4 DUP6 SUB SLT ISZERO PUSH2 0x47F6 JUMPI PUSH2 0x47F5 PUSH2 0x444E JUMP JUMPDEST JUMPDEST PUSH1 0x0 PUSH2 0x4804 DUP6 DUP3 DUP7 ADD PUSH2 0x4684 JUMP JUMPDEST SWAP3 POP POP PUSH1 0x20 DUP4 ADD CALLDATALOAD PUSH8 0xFFFFFFFFFFFFFFFF DUP2 GT ISZERO PUSH2 0x4825 JUMPI PUSH2 0x4824 PUSH2 0x4453 JUMP JUMPDEST JUMPDEST PUSH2 0x4831 DUP6 DUP3 DUP7 ADD PUSH2 0x47B1 JUMP JUMPDEST SWAP2 POP POP SWAP3 POP SWAP3 SWAP1 POP JUMP JUMPDEST PUSH1 0x0 DUP1 PUSH1 0x0 DUP1 PUSH1 0x80 DUP6 DUP8 SUB SLT ISZERO PUSH2 0x4855 JUMPI PUSH2 0x4854 PUSH2 0x444E JUMP JUMPDEST JUMPDEST PUSH1 0x0 PUSH2 0x4863 DUP8 DUP3 DUP9 ADD PUSH2 0x4479 JUMP JUMPDEST SWAP5 POP POP PUSH1 0x20 PUSH2 0x4874 DUP8 DUP3 DUP9 ADD PUSH2 0x4479 JUMP JUMPDEST SWAP4 POP POP PUSH1 0x40 PUSH2 0x4885 DUP8 DUP3 DUP9 ADD PUSH2 0x4479 JUMP JUMPDEST SWAP3 POP POP PUSH1 0x60 DUP6 ADD CALLDATALOAD PUSH8 0xFFFFFFFFFFFFFFFF DUP2 GT ISZERO PUSH2 0x48A6 JUMPI PUSH2 0x48A5 PUSH2 0x4453 JUMP JUMPDEST JUMPDEST PUSH2 0x48B2 DUP8 DUP3 DUP9 ADD PUSH2 0x47B1 JUMP JUMPDEST SWAP2 POP POP SWAP3 SWAP6 SWAP2 SWAP5 POP SWAP3 POP JUMP JUMPDEST PUSH1 0x0 DUP1 PUSH1 0x0 PUSH1 0x60 DUP5 DUP7 SUB SLT ISZERO PUSH2 0x48D7 JUMPI PUSH2 0x48D6 PUSH2 0x444E JUMP JUMPDEST JUMPDEST PUSH1 0x0 PUSH2 0x48E5 DUP7 DUP3 DUP8 ADD PUSH2 0x4479 JUMP JUMPDEST SWAP4 POP POP PUSH1 0x20 PUSH2 0x48F6 DUP7 DUP3 DUP8 ADD PUSH2 0x4479 JUMP JUMPDEST SWAP3 POP POP PUSH1 0x40 PUSH2 0x4907 DUP7 DUP3 DUP8 ADD PUSH2 0x4479 JUMP JUMPDEST SWAP2 POP POP SWAP3 POP SWAP3 POP SWAP3 JUMP JUMPDEST PUSH1 0x0 DUP1 PUSH1 0x0 PUSH1 0x60 DUP5 DUP7 SUB SLT ISZERO PUSH2 0x492A JUMPI PUSH2 0x4929 PUSH2 0x444E JUMP JUMPDEST JUMPDEST PUSH1 0x0 PUSH2 0x4938 DUP7 DUP3 DUP8 ADD PUSH2 0x4479 JUMP JUMPDEST SWAP4 POP POP PUSH1 0x20 PUSH2 0x4949 DUP7 DUP3 DUP8 ADD PUSH2 0x44F1 JUMP JUMPDEST SWAP3 POP POP PUSH1 0x40 PUSH2 0x495A DUP7 DUP3 DUP8 ADD PUSH2 0x4479 JUMP JUMPDEST SWAP2 POP POP SWAP3 POP SWAP3 POP SWAP3 JUMP JUMPDEST PUSH32 0x4E487B7100000000000000000000000000000000000000000000000000000000 PUSH1 0x0 MSTORE PUSH1 0x32 PUSH1 0x4 MSTORE PUSH1 0x24 PUSH1 0x0 REVERT JUMPDEST PUSH32 0x4E487B7100000000000000000000000000000000000000000000000000000000 PUSH1 0x0 MSTORE PUSH1 0x11 PUSH1 0x4 MSTORE PUSH1 0x24 PUSH1 0x0 REVERT JUMPDEST PUSH1 0x0 PUSH2 0x49CD DUP3 PUSH2 0x4458 JUMP JUMPDEST SWAP2 POP PUSH32 0xFFFFFFFFFFFFFFFFFFFFFFFFFFFFFFFFFFFFFFFFFFFFFFFFFFFFFFFFFFFFFFFF DUP3 SUB PUSH2 0x49FF JUMPI PUSH2 0x49FE PUSH2 0x4993 JUMP JUMPDEST JUMPDEST PUSH1 0x1 DUP3 ADD SWAP1 POP SWAP2 SWAP1 POP JUMP JUMPDEST PUSH1 0x0 DUP3 DUP3 MSTORE PUSH1 0x20 DUP3 ADD SWAP1 POP SWAP3 SWAP2 POP POP JUMP JUMPDEST PUSH32 0x4F6E6C792073686F702063616E20646F20697421000000000000000000000000 PUSH1 0x0 DUP3 ADD MSTORE POP JUMP JUMPDEST PUSH1 0x0 PUSH2 0x4A51 PUSH1 0x14 DUP4 PUSH2 0x4A0A JUMP JUMPDEST SWAP2 POP PUSH2 0x4A5C DUP3 PUSH2 0x4A1B JUMP JUMPDEST PUSH1 0x20 DUP3 ADD SWAP1 POP SWAP2 SWAP1 POP JUMP JUMPDEST PUSH1 0x0 PUSH1 0x20 DUP3 ADD SWAP1 POP DUP2 DUP2 SUB PUSH1 0x0 DUP4 ADD MSTORE PUSH2 0x4A80 DUP2 PUSH2 0x4A44 JUMP JUMPDEST SWAP1 POP SWAP2 SWAP1 POP JUMP JUMPDEST PUSH32 0x5468697320707572736861726520697320646F6E607420637265617465642079 PUSH1 0x0 DUP3 ADD MSTORE PUSH32 0x6574210000000000000000000000000000000000000000000000000000000000 PUSH1 0x20 DUP3 ADD MSTORE POP JUMP JUMPDEST PUSH1 0x0 PUSH2 0x4AE3 PUSH1 0x23 DUP4 PUSH2 0x4A0A JUMP JUMPDEST SWAP2 POP PUSH2 0x4AEE DUP3 PUSH2 0x4A87 JUMP JUMPDEST PUSH1 0x40 DUP3 ADD SWAP1 POP SWAP2 SWAP1 POP JUMP JUMPDEST PUSH1 0x0 PUSH1 0x20 DUP3 ADD SWAP1 POP DUP2 DUP2 SUB PUSH1 0x0 DUP4 ADD MSTORE PUSH2 0x4B12 DUP2 PUSH2 0x4AD6 JUMP JUMPDEST SWAP1 POP SWAP2 SWAP1 POP JUMP JUMPDEST PUSH1 0x0 PUSH2 0x4B24 DUP3 PUSH2 0x4458 JUMP JUMPDEST SWAP2 POP PUSH2 0x4B2F DUP4 PUSH2 0x4458 JUMP JUMPDEST SWAP3 POP DUP3 DUP3 MUL PUSH2 0x4B3D DUP2 PUSH2 0x4458 JUMP JUMPDEST SWAP2 POP DUP3 DUP3 DIV DUP5 EQ DUP4 ISZERO OR PUSH2 0x4B54 JUMPI PUSH2 0x4B53 PUSH2 0x4993 JUMP JUMPDEST JUMPDEST POP SWAP3 SWAP2 POP POP JUMP JUMPDEST PUSH32 0x596F7520646F6E6074206861766520656E6F756768206D6F6E657920746F2070 PUSH1 0x0 DUP3 ADD MSTORE PUSH32 0x617920746F207468697320646562742100000000000000000000000000000000 PUSH1 0x20 DUP3 ADD MSTORE POP JUMP JUMPDEST PUSH1 0x0 PUSH2 0x4BB7 PUSH1 0x30 DUP4 PUSH2 0x4A0A JUMP JUMPDEST SWAP2 POP PUSH2 0x4BC2 DUP3 PUSH2 0x4B5B JUMP JUMPDEST PUSH1 0x40 DUP3 ADD SWAP1 POP SWAP2 SWAP1 POP JUMP JUMPDEST PUSH1 0x0 PUSH1 0x20 DUP3 ADD SWAP1 POP DUP2 DUP2 SUB PUSH1 0x0 DUP4 ADD MSTORE PUSH2 0x4BE6 DUP2 PUSH2 0x4BAA JUMP JUMPDEST SWAP1 POP SWAP2 SWAP1 POP JUMP JUMPDEST PUSH32 0x4E487B7100000000000000000000000000000000000000000000000000000000 PUSH1 0x0 MSTORE PUSH1 0x21 PUSH1 0x4 MSTORE PUSH1 0x24 PUSH1 0x0 REVERT JUMPDEST PUSH32 0x596F75206861766520616C726561647920706169642074686973206465627421 PUSH1 0x0 DUP3 ADD MSTORE POP JUMP JUMPDEST PUSH1 0x0 PUSH2 0x4C52 PUSH1 0x20 DUP4 PUSH2 0x4A0A JUMP JUMPDEST SWAP2 POP PUSH2 0x4C5D DUP3 PUSH2 0x4C1C JUMP JUMPDEST PUSH1 0x20 DUP3 ADD SWAP1 POP SWAP2 SWAP1 POP JUMP JUMPDEST PUSH1 0x0 PUSH1 0x20 DUP3 ADD SWAP1 POP DUP2 DUP2 SUB PUSH1 0x0 DUP4 ADD MSTORE PUSH2 0x4C81 DUP2 PUSH2 0x4C45 JUMP JUMPDEST SWAP1 POP SWAP2 SWAP1 POP JUMP JUMPDEST PUSH1 0x0 PUSH2 0x4C93 DUP3 PUSH2 0x4458 JUMP JUMPDEST SWAP2 POP PUSH2 0x4C9E DUP4 PUSH2 0x4458 JUMP JUMPDEST SWAP3 POP DUP3 DUP3 SUB SWAP1 POP DUP2 DUP2 GT ISZERO PUSH2 0x4CB6 JUMPI PUSH2 0x4CB5 PUSH2 0x4993 JUMP JUMPDEST JUMPDEST SWAP3 SWAP2 POP POP JUMP JUMPDEST PUSH32 0x596F7520636F6E6669726D65642F63616E63656C65642074686973206F726465 PUSH1 0x0 DUP3 ADD MSTORE PUSH32 0x72206561726C7900000000000000000000000000000000000000000000000000 PUSH1 0x20 DUP3 ADD MSTORE POP JUMP JUMPDEST PUSH1 0x0 PUSH2 0x4D18 PUSH1 0x27 DUP4 PUSH2 0x4A0A JUMP JUMPDEST SWAP2 POP PUSH2 0x4D23 DUP3 PUSH2 0x4CBC JUMP JUMPDEST PUSH1 0x40 DUP3 ADD SWAP1 POP SWAP2 SWAP1 POP JUMP JUMPDEST PUSH1 0x0 PUSH1 0x20 DUP3 ADD SWAP1 POP DUP2 DUP2 SUB PUSH1 0x0 DUP4 ADD MSTORE PUSH2 0x4D47 DUP2 PUSH2 0x4D0B JUMP JUMPDEST SWAP1 POP SWAP2 SWAP1 POP JUMP JUMPDEST PUSH32 0x596F7520646F6E6074206861766520656E6F756768204574682E000000000000 PUSH1 0x0 DUP3 ADD MSTORE POP JUMP JUMPDEST PUSH1 0x0 PUSH2 0x4D84 PUSH1 0x1A DUP4 PUSH2 0x4A0A JUMP JUMPDEST SWAP2 POP PUSH2 0x4D8F DUP3 PUSH2 0x4D4E JUMP JUMPDEST PUSH1 0x20 DUP3 ADD SWAP1 POP SWAP2 SWAP1 POP JUMP JUMPDEST PUSH1 0x0 PUSH1 0x20 DUP3 ADD SWAP1 POP DUP2 DUP2 SUB PUSH1 0x0 DUP4 ADD MSTORE PUSH2 0x4DB3 DUP2 PUSH2 0x4D77 JUMP JUMPDEST SWAP1 POP SWAP2 SWAP1 POP JUMP JUMPDEST PUSH32 0x596F75206172656E607420616E206F776E657221000000000000000000000000 PUSH1 0x0 DUP3 ADD MSTORE POP JUMP JUMPDEST PUSH1 0x0 PUSH2 0x4DF0 PUSH1 0x14 DUP4 PUSH2 0x4A0A JUMP JUMPDEST SWAP2 POP PUSH2 0x4DFB DUP3 PUSH2 0x4DBA JUMP JUMPDEST PUSH1 0x20 DUP3 ADD SWAP1 POP SWAP2 SWAP1 POP JUMP JUMPDEST PUSH1 0x0 PUSH1 0x20 DUP3 ADD SWAP1 POP DUP2 DUP2 SUB PUSH1 0x0 DUP4 ADD MSTORE PUSH2 0x4E1F DUP2 PUSH2 0x4DE3 JUMP JUMPDEST SWAP1 POP SWAP2 SWAP1 POP JUMP JUMPDEST PUSH32 0x596F752077726F746520612077726F6E6720636F6E6669726D2F72656A656374 PUSH1 0x0 DUP3 ADD MSTORE PUSH32 0x20636F6465212030202D2072656A6563742C2031202D20636F6E6669726D2100 PUSH1 0x20 DUP3 ADD MSTORE POP JUMP JUMPDEST PUSH1 0x0 PUSH2 0x4E82 PUSH1 0x3F DUP4 PUSH2 0x4A0A JUMP JUMPDEST SWAP2 POP PUSH2 0x4E8D DUP3 PUSH2 0x4E26 JUMP JUMPDEST PUSH1 0x40 DUP3 ADD SWAP1 POP SWAP2 SWAP1 POP JUMP JUMPDEST PUSH1 0x0 PUSH1 0x20 DUP3 ADD SWAP1 POP DUP2 DUP2 SUB PUSH1 0x0 DUP4 ADD MSTORE PUSH2 0x4EB1 DUP2 PUSH2 0x4E75 JUMP JUMPDEST SWAP1 POP SWAP2 SWAP1 POP JUMP JUMPDEST PUSH32 0x4E487B7100000000000000000000000000000000000000000000000000000000 PUSH1 0x0 MSTORE PUSH1 0x22 PUSH1 0x4 MSTORE PUSH1 0x24 PUSH1 0x0 REVERT JUMPDEST PUSH1 0x0 PUSH1 0x2 DUP3 DIV SWAP1 POP PUSH1 0x1 DUP3 AND DUP1 PUSH2 0x4EFF JUMPI PUSH1 0x7F DUP3 AND SWAP2 POP JUMPDEST PUSH1 0x20 DUP3 LT DUP2 SUB PUSH2 0x4F12 JUMPI PUSH2 0x4F11 PUSH2 0x4EB8 JUMP JUMPDEST JUMPDEST POP SWAP2 SWAP1 POP JUMP JUMPDEST PUSH32 0x4F6E6C7920636C69656E742063616E20646F2069742100000000000000000000 PUSH1 0x0 DUP3 ADD MSTORE POP JUMP JUMPDEST PUSH1 0x0 PUSH2 0x4F4E PUSH1 0x16 DUP4 PUSH2 0x4A0A JUMP JUMPDEST SWAP2 POP PUSH2 0x4F59 DUP3 PUSH2 0x4F18 JUMP JUMPDEST PUSH1 0x20 DUP3 ADD SWAP1 POP SWAP2 SWAP1 POP JUMP JUMPDEST PUSH1 0x0 PUSH1 0x20 DUP3 ADD SWAP1 POP DUP2 DUP2 SUB PUSH1 0x0 DUP4 ADD MSTORE PUSH2 0x4F7D DUP2 PUSH2 0x4F41 JUMP JUMPDEST SWAP1 POP SWAP2 SWAP1 POP JUMP JUMPDEST PUSH32 0x4572726F722120596F752063616E607420696E7669746520796F757273656C66 PUSH1 0x0 DUP3 ADD MSTORE PUSH32 0x2100000000000000000000000000000000000000000000000000000000000000 PUSH1 0x20 DUP3 ADD MSTORE POP JUMP JUMPDEST PUSH1 0x0 PUSH2 0x4FE0 PUSH1 0x21 DUP4 PUSH2 0x4A0A JUMP JUMPDEST SWAP2 POP PUSH2 0x4FEB DUP3 PUSH2 0x4F84 JUMP JUMPDEST PUSH1 0x40 DUP3 ADD SWAP1 POP SWAP2 SWAP1 POP JUMP JUMPDEST PUSH1 0x0 PUSH1 0x20 DUP3 ADD SWAP1 POP DUP2 DUP2 SUB PUSH1 0x0 DUP4 ADD MSTORE PUSH2 0x500F DUP2 PUSH2 0x4FD3 JUMP JUMPDEST SWAP1 POP SWAP2 SWAP1 POP JUMP JUMPDEST PUSH32 0x4572726F7221205468697320757365722068617320616C726561647920696E76 PUSH1 0x0 DUP3 ADD MSTORE PUSH32 0x6974656421000000000000000000000000000000000000000000000000000000 PUSH1 0x20 DUP3 ADD MSTORE POP JUMP JUMPDEST PUSH1 0x0 PUSH2 0x5072 PUSH1 0x25 DUP4 PUSH2 0x4A0A JUMP JUMPDEST SWAP2 POP PUSH2 0x507D DUP3 PUSH2 0x5016 JUMP JUMPDEST PUSH1 0x40 DUP3 ADD SWAP1 POP SWAP2 SWAP1 POP JUMP JUMPDEST PUSH1 0x0 PUSH1 0x20 DUP3 ADD SWAP1 POP DUP2 DUP2 SUB PUSH1 0x0 DUP4 ADD MSTORE PUSH2 0x50A1 DUP2 PUSH2 0x5065 JUMP JUMPDEST SWAP1 POP SWAP2 SWAP1 POP JUMP JUMPDEST PUSH32 0x596F7520646F6E6074206861766520616E792064656274732100000000000000 PUSH1 0x0 DUP3 ADD MSTORE POP JUMP JUMPDEST PUSH1 0x0 PUSH2 0x50DE PUSH1 0x19 DUP4 PUSH2 0x4A0A JUMP JUMPDEST SWAP2 POP PUSH2 0x50E9 DUP3 PUSH2 0x50A8 JUMP JUMPDEST PUSH1 0x20 DUP3 ADD SWAP1 POP SWAP2 SWAP1 POP JUMP JUMPDEST PUSH1 0x0 PUSH1 0x20 DUP3 ADD SWAP1 POP DUP2 DUP2 SUB PUSH1 0x0 DUP4 ADD MSTORE PUSH2 0x510D DUP2 PUSH2 0x50D1 JUMP JUMPDEST SWAP1 POP SWAP2 SWAP1 POP JUMP JUMPDEST PUSH32 0x4E487B7100000000000000000000000000000000000000000000000000000000 PUSH1 0x0 MSTORE PUSH1 0x12 PUSH1 0x4 MSTORE PUSH1 0x24 PUSH1 0x0 REVERT JUMPDEST PUSH1 0x0 PUSH2 0x514E DUP3 PUSH2 0x4458 JUMP JUMPDEST SWAP2 POP PUSH2 0x5159 DUP4 PUSH2 0x4458 JUMP JUMPDEST SWAP3 POP DUP3 PUSH2 0x5169 JUMPI PUSH2 0x5168 PUSH2 0x5114 JUMP JUMPDEST JUMPDEST DUP3 DUP3 DIV SWAP1 POP SWAP3 SWAP2 POP POP JUMP JUMPDEST PUSH1 0x0 DUP2 MLOAD SWAP1 POP SWAP2 SWAP1 POP JUMP JUMPDEST PUSH1 0x0 DUP2 SWAP1 POP DUP2 PUSH1 0x0 MSTORE PUSH1 0x20 PUSH1 0x0 KECCAK256 SWAP1 POP SWAP2 SWAP1 POP JUMP JUMPDEST PUSH1 0x0 PUSH1 0x20 PUSH1 0x1F DUP4 ADD DIV SWAP1 POP SWAP2 SWAP1 POP JUMP JUMPDEST PUSH1 0x0 DUP3 DUP3 SHL SWAP1 POP SWAP3 SWAP2 POP POP JUMP JUMPDEST PUSH1 0x0 PUSH1 0x8 DUP4 MUL PUSH2 0x51E1 PUSH32 0xFFFFFFFFFFFFFFFFFFFFFFFFFFFFFFFFFFFFFFFFFFFFFFFFFFFFFFFFFFFFFFFF DUP3 PUSH2 0x51A4 JUMP JUMPDEST PUSH2 0x51EB DUP7 DUP4 PUSH2 0x51A4 JUMP JUMPDEST SWAP6 POP DUP1 NOT DUP5 AND SWAP4 POP DUP1 DUP7 AND DUP5 OR SWAP3 POP POP POP SWAP4 SWAP3 POP POP POP JUMP JUMPDEST PUSH1 0x0 DUP2 SWAP1 POP SWAP2 SWAP1 POP JUMP JUMPDEST PUSH1 0x0 PUSH2 0x5228 PUSH2 0x5223 PUSH2 0x521E DUP5 PUSH2 0x4458 JUMP JUMPDEST PUSH2 0x5203 JUMP JUMPDEST PUSH2 0x4458 JUMP JUMPDEST SWAP1 POP SWAP2 SWAP1 POP JUMP JUMPDEST PUSH1 0x0 DUP2 SWAP1 POP SWAP2 SWAP1 POP JUMP JUMPDEST PUSH2 0x5242 DUP4 PUSH2 0x520D JUMP JUMPDEST PUSH2 0x5256 PUSH2 0x524E DUP3 PUSH2 0x522F JUMP JUMPDEST DUP5 DUP5 SLOAD PUSH2 0x51B1 JUMP JUMPDEST DUP3 SSTORE POP POP POP POP JUMP JUMPDEST PUSH1 0x0 SWAP1 JUMP JUMPDEST PUSH2 0x526B PUSH2 0x525E JUMP JUMPDEST PUSH2 0x5276 DUP2 DUP5 DUP5 PUSH2 0x5239 JUMP JUMPDEST POP POP POP JUMP JUMPDEST JUMPDEST DUP2 DUP2 LT ISZERO PUSH2 0x529A JUMPI PUSH2 0x528F PUSH1 0x0 DUP3 PUSH2 0x5263 JUMP JUMPDEST PUSH1 0x1 DUP2 ADD SWAP1 POP PUSH2 0x527C JUMP JUMPDEST POP POP JUMP JUMPDEST PUSH1 0x1F DUP3 GT ISZERO PUSH2 0x52DF JUMPI PUSH2 0x52B0 DUP2 PUSH2 0x517F JUMP JUMPDEST PUSH2 0x52B9 DUP5 PUSH2 0x5194 JUMP JUMPDEST DUP2 ADD PUSH1 0x20 DUP6 LT ISZERO PUSH2 0x52C8 JUMPI DUP2 SWAP1 POP JUMPDEST PUSH2 0x52DC PUSH2 0x52D4 DUP6 PUSH2 0x5194 JUMP JUMPDEST DUP4 ADD DUP3 PUSH2 0x527B JUMP JUMPDEST POP POP JUMPDEST POP POP POP JUMP JUMPDEST PUSH1 0x0 DUP3 DUP3 SHR SWAP1 POP SWAP3 SWAP2 POP POP JUMP JUMPDEST PUSH1 0x0 PUSH2 0x5302 PUSH1 0x0 NOT DUP5 PUSH1 0x8 MUL PUSH2 0x52E4 JUMP JUMPDEST NOT DUP1 DUP4 AND SWAP2 POP POP SWAP3 SWAP2 POP POP JUMP JUMPDEST PUSH1 0x0 PUSH2 0x531B DUP4 DUP4 PUSH2 0x52F1 JUMP JUMPDEST SWAP2 POP DUP3 PUSH1 0x2 MUL DUP3 OR SWAP1 POP SWAP3 SWAP2 POP POP JUMP JUMPDEST PUSH2 0x5334 DUP3 PUSH2 0x5174 JUMP JUMPDEST PUSH8 0xFFFFFFFFFFFFFFFF DUP2 GT ISZERO PUSH2 0x534D JUMPI PUSH2 0x534C PUSH2 0x46B4 JUMP JUMPDEST JUMPDEST PUSH2 0x5357 DUP3 SLOAD PUSH2 0x4EE7 JUMP JUMPDEST PUSH2 0x5362 DUP3 DUP3 DUP6 PUSH2 0x529E JUMP JUMPDEST PUSH1 0x0 PUSH1 0x20 SWAP1 POP PUSH1 0x1F DUP4 GT PUSH1 0x1 DUP2 EQ PUSH2 0x5395 JUMPI PUSH1 0x0 DUP5 ISZERO PUSH2 0x5383 JUMPI DUP3 DUP8 ADD MLOAD SWAP1 POP JUMPDEST PUSH2 0x538D DUP6 DUP3 PUSH2 0x530F JUMP JUMPDEST DUP7 SSTORE POP PUSH2 0x53F5 JUMP JUMPDEST PUSH1 0x1F NOT DUP5 AND PUSH2 0x53A3 DUP7 PUSH2 0x517F JUMP JUMPDEST PUSH1 0x0 JUMPDEST DUP3 DUP2 LT ISZERO PUSH2 0x53CB JUMPI DUP5 DUP10 ADD MLOAD DUP3 SSTORE PUSH1 0x1 DUP3 ADD SWAP2 POP PUSH1 0x20 DUP6 ADD SWAP5 POP PUSH1 0x20 DUP2 ADD SWAP1 POP PUSH2 0x53A6 JUMP JUMPDEST DUP7 DUP4 LT ISZERO PUSH2 0x53E8 JUMPI DUP5 DUP10 ADD MLOAD PUSH2 0x53E4 PUSH1 0x1F DUP10 AND DUP3 PUSH2 0x52F1 JUMP JUMPDEST DUP4 SSTORE POP JUMPDEST PUSH1 0x1 PUSH1 0x2 DUP9 MUL ADD DUP9 SSTORE POP POP POP JUMPDEST POP POP POP POP POP POP JUMP JUMPDEST PUSH32 0x536F7272792120576520646F6E6074206861766520656E6F75676820636F756E PUSH1 0x0 DUP3 ADD MSTORE PUSH32 0x74206F6620746869732070726F64756374210000000000000000000000000000 PUSH1 0x20 DUP3 ADD MSTORE POP JUMP JUMPDEST PUSH1 0x0 PUSH2 0x5459 PUSH1 0x32 DUP4 PUSH2 0x4A0A JUMP JUMPDEST SWAP2 POP PUSH2 0x5464 DUP3 PUSH2 0x53FD JUMP JUMPDEST PUSH1 0x40 DUP3 ADD SWAP1 POP SWAP2 SWAP1 POP JUMP JUMPDEST PUSH1 0x0 PUSH1 0x20 DUP3 ADD SWAP1 POP DUP2 DUP2 SUB PUSH1 0x0 DUP4 ADD MSTORE PUSH2 0x5488 DUP2 PUSH2 0x544C JUMP JUMPDEST SWAP1 POP SWAP2 SWAP1 POP JUMP JUMPDEST PUSH1 0x0 DUP2 SLOAD SWAP1 POP PUSH2 0x549E DUP2 PUSH2 0x4EE7 JUMP JUMPDEST SWAP1 POP SWAP2 SWAP1 POP JUMP JUMPDEST PUSH1 0x0 DUP2 SWAP1 POP DUP2 PUSH1 0x0 MSTORE PUSH1 0x20 PUSH1 0x0 KECCAK256 SWAP1 POP SWAP2 SWAP1 POP JUMP JUMPDEST DUP2 DUP2 SUB PUSH2 0x54C8 JUMPI POP POP PUSH2 0x55A0 JUMP JUMPDEST PUSH2 0x54D1 DUP3 PUSH2 0x548F JUMP JUMPDEST PUSH8 0xFFFFFFFFFFFFFFFF DUP2 GT ISZERO PUSH2 0x54EA JUMPI PUSH2 0x54E9 PUSH2 0x46B4 JUMP JUMPDEST JUMPDEST PUSH2 0x54F4 DUP3 SLOAD PUSH2 0x4EE7 JUMP JUMPDEST PUSH2 0x54FF DUP3 DUP3 DUP6 PUSH2 0x529E JUMP JUMPDEST PUSH1 0x0 PUSH1 0x1F DUP4 GT PUSH1 0x1 DUP2 EQ PUSH2 0x552E JUMPI PUSH1 0x0 DUP5 ISZERO PUSH2 0x551C JUMPI DUP3 DUP8 ADD SLOAD SWAP1 POP JUMPDEST PUSH2 0x5526 DUP6 DUP3 PUSH2 0x530F JUMP JUMPDEST DUP7 SSTORE POP PUSH2 0x5599 JUMP JUMPDEST PUSH1 0x1F NOT DUP5 AND PUSH2 0x553C DUP8 PUSH2 0x54A5 JUMP JUMPDEST SWAP7 POP PUSH2 0x5547 DUP7 PUSH2 0x517F JUMP JUMPDEST PUSH1 0x0 JUMPDEST DUP3 DUP2 LT ISZERO PUSH2 0x556F JUMPI DUP5 DUP10 ADD SLOAD DUP3 SSTORE PUSH1 0x1 DUP3 ADD SWAP2 POP PUSH1 0x1 DUP6 ADD SWAP5 POP PUSH1 0x20 DUP2 ADD SWAP1 POP PUSH2 0x554A JUMP JUMPDEST DUP7 DUP4 LT ISZERO PUSH2 0x558C JUMPI DUP5 DUP10 ADD SLOAD PUSH2 0x5588 PUSH1 0x1F DUP10 AND DUP3 PUSH2 0x52F1 JUMP JUMPDEST DUP4 SSTORE POP JUMPDEST PUSH1 0x1 PUSH1 0x2 DUP9 MUL ADD DUP9 SSTORE POP POP POP JUMPDEST POP POP POP POP POP POP JUMPDEST JUMP JUMPDEST PUSH32 0x536F7272792C20776520646F6E6074206861766520656E6F7567682070726F64 PUSH1 0x0 DUP3 ADD MSTORE PUSH32 0x7563747300000000000000000000000000000000000000000000000000000000 PUSH1 0x20 DUP3 ADD MSTORE POP JUMP JUMPDEST PUSH1 0x0 PUSH2 0x55FE PUSH1 0x24 DUP4 PUSH2 0x4A0A JUMP JUMPDEST SWAP2 POP PUSH2 0x5609 DUP3 PUSH2 0x55A2 JUMP JUMPDEST PUSH1 0x40 DUP3 ADD SWAP1 POP SWAP2 SWAP1 POP JUMP JUMPDEST PUSH1 0x0 PUSH1 0x20 DUP3 ADD SWAP1 POP DUP2 DUP2 SUB PUSH1 0x0 DUP4 ADD MSTORE PUSH2 0x562D DUP2 PUSH2 0x55F1 JUMP JUMPDEST SWAP1 POP SWAP2 SWAP1 POP JUMP JUMPDEST PUSH32 0x596F7520646F6E6074206861766520656E6F7567682045746800000000000000 PUSH1 0x0 DUP3 ADD MSTORE POP JUMP JUMPDEST PUSH1 0x0 PUSH2 0x566A PUSH1 0x19 DUP4 PUSH2 0x4A0A JUMP JUMPDEST SWAP2 POP PUSH2 0x5675 DUP3 PUSH2 0x5634 JUMP JUMPDEST PUSH1 0x20 DUP3 ADD SWAP1 POP SWAP2 SWAP1 POP JUMP JUMPDEST PUSH1 0x0 PUSH1 0x20 DUP3 ADD SWAP1 POP DUP2 DUP2 SUB PUSH1 0x0 DUP4 ADD MSTORE PUSH2 0x5699 DUP2 PUSH2 0x565D JUMP JUMPDEST SWAP1 POP SWAP2 SWAP1 POP JUMP JUMPDEST PUSH1 0x0 PUSH2 0x56AB DUP3 PUSH2 0x4458 JUMP JUMPDEST SWAP2 POP PUSH2 0x56B6 DUP4 PUSH2 0x4458 JUMP JUMPDEST SWAP3 POP DUP3 DUP3 ADD SWAP1 POP DUP1 DUP3 GT ISZERO PUSH2 0x56CE JUMPI PUSH2 0x56CD PUSH2 0x4993 JUMP JUMPDEST JUMPDEST SWAP3 SWAP2 POP POP JUMP JUMPDEST PUSH32 0x596F7520656E74657220612077726F6E67206E756D626572206F66206F726465 PUSH1 0x0 DUP3 ADD MSTORE PUSH32 0x7221000000000000000000000000000000000000000000000000000000000000 PUSH1 0x20 DUP3 ADD MSTORE POP JUMP JUMPDEST PUSH1 0x0 PUSH2 0x5730 PUSH1 0x22 DUP4 PUSH2 0x4A0A JUMP JUMPDEST SWAP2 POP PUSH2 0x573B DUP3 PUSH2 0x56D4 JUMP JUMPDEST PUSH1 0x40 DUP3 ADD SWAP1 POP SWAP2 SWAP1 POP JUMP JUMPDEST PUSH1 0x0 PUSH1 0x20 DUP3 ADD SWAP1 POP DUP2 DUP2 SUB PUSH1 0x0 DUP4 ADD MSTORE PUSH2 0x575F DUP2 PUSH2 0x5723 JUMP JUMPDEST SWAP1 POP SWAP2 SWAP1 POP JUMP JUMPDEST PUSH32 0x54686973207075727368617265206D75737420676F7420636F6E6669726D2066 PUSH1 0x0 DUP3 ADD MSTORE PUSH32 0x726F6D2073686F70206F722046696E6973686564207965742100000000000000 PUSH1 0x20 DUP3 ADD MSTORE POP JUMP JUMPDEST PUSH1 0x0 PUSH2 0x57C2 PUSH1 0x39 DUP4 PUSH2 0x4A0A JUMP JUMPDEST SWAP2 POP PUSH2 0x57CD DUP3 PUSH2 0x5766 JUMP JUMPDEST PUSH1 0x40 DUP3 ADD SWAP1 POP SWAP2 SWAP1 POP JUMP JUMPDEST PUSH1 0x0 PUSH1 0x20 DUP3 ADD SWAP1 POP DUP2 DUP2 SUB PUSH1 0x0 DUP4 ADD MSTORE PUSH2 0x57F1 DUP2 PUSH2 0x57B5 JUMP JUMPDEST SWAP1 POP SWAP2 SWAP1 POP JUMP JUMPDEST PUSH32 0x596F7572206F726465722069736E60742064656C697665726564207965742100 PUSH1 0x0 DUP3 ADD MSTORE POP JUMP JUMPDEST PUSH1 0x0 PUSH2 0x582E PUSH1 0x1F DUP4 PUSH2 0x4A0A JUMP JUMPDEST SWAP2 POP PUSH2 0x5839 DUP3 PUSH2 0x57F8 JUMP JUMPDEST PUSH1 0x20 DUP3 ADD SWAP1 POP SWAP2 SWAP1 POP JUMP JUMPDEST PUSH1 0x0 PUSH1 0x20 DUP3 ADD SWAP1 POP DUP2 DUP2 SUB PUSH1 0x0 DUP4 ADD MSTORE PUSH2 0x585D DUP2 PUSH2 0x5821 JUMP JUMPDEST SWAP1 POP SWAP2 SWAP1 POP JUMP JUMPDEST PUSH32 0x5468697320636F646520686173206265656E2075736564210000000000000000 PUSH1 0x0 DUP3 ADD MSTORE POP JUMP JUMPDEST PUSH1 0x0 PUSH2 0x589A PUSH1 0x18 DUP4 PUSH2 0x4A0A JUMP JUMPDEST SWAP2 POP PUSH2 0x58A5 DUP3 PUSH2 0x5864 JUMP JUMPDEST PUSH1 0x20 DUP3 ADD SWAP1 POP SWAP2 SWAP1 POP JUMP JUMPDEST PUSH1 0x0 PUSH1 0x20 DUP3 ADD SWAP1 POP DUP2 DUP2 SUB PUSH1 0x0 DUP4 ADD MSTORE PUSH2 0x58C9 DUP2 PUSH2 0x588D JUMP JUMPDEST SWAP1 POP SWAP2 SWAP1 POP JUMP JUMPDEST PUSH32 0x5468697320636F64652069736E607420666F7220796F75210000000000000000 PUSH1 0x0 DUP3 ADD MSTORE POP JUMP JUMPDEST PUSH1 0x0 PUSH2 0x5906 PUSH1 0x18 DUP4 PUSH2 0x4A0A JUMP JUMPDEST SWAP2 POP PUSH2 0x5911 DUP3 PUSH2 0x58D0 JUMP JUMPDEST PUSH1 0x20 DUP3 ADD SWAP1 POP SWAP2 SWAP1 POP JUMP JUMPDEST PUSH1 0x0 PUSH1 0x20 DUP3 ADD SWAP1 POP DUP2 DUP2 SUB PUSH1 0x0 DUP4 ADD MSTORE PUSH2 0x5935 DUP2 PUSH2 0x58F9 JUMP JUMPDEST SWAP1 POP SWAP2 SWAP1 POP JUMP JUMPDEST PUSH32 0x596F752077726F746520612077726F6E67206F72646572206E756D6265722100 PUSH1 0x0 DUP3 ADD MSTORE POP JUMP JUMPDEST PUSH1 0x0 PUSH2 0x5972 PUSH1 0x1F DUP4 PUSH2 0x4A0A JUMP JUMPDEST SWAP2 POP PUSH2 0x597D DUP3 PUSH2 0x593C JUMP JUMPDEST PUSH1 0x20 DUP3 ADD SWAP1 POP SWAP2 SWAP1 POP JUMP JUMPDEST PUSH1 0x0 PUSH1 0x20 DUP3 ADD SWAP1 POP DUP2 DUP2 SUB PUSH1 0x0 DUP4 ADD MSTORE PUSH2 0x59A1 DUP2 PUSH2 0x5965 JUMP JUMPDEST SWAP1 POP SWAP2 SWAP1 POP JUMP JUMPDEST PUSH32 0x54686973206F7264657220646F6E6074206861766520616E7920657870657269 PUSH1 0x0 DUP3 ADD MSTORE PUSH32 0x65642070726F6475637473210000000000000000000000000000000000000000 PUSH1 0x20 DUP3 ADD MSTORE POP JUMP JUMPDEST PUSH1 0x0 PUSH2 0x5A04 PUSH1 0x2C DUP4 PUSH2 0x4A0A JUMP JUMPDEST SWAP2 POP PUSH2 0x5A0F DUP3 PUSH2 0x59A8 JUMP JUMPDEST PUSH1 0x40 DUP3 ADD SWAP1 POP SWAP2 SWAP1 POP JUMP JUMPDEST PUSH1 0x0 PUSH1 0x20 DUP3 ADD SWAP1 POP DUP2 DUP2 SUB PUSH1 0x0 DUP4 ADD MSTORE PUSH2 0x5A33 DUP2 PUSH2 0x59F7 JUMP JUMPDEST SWAP1 POP SWAP2 SWAP1 POP JUMP JUMPDEST PUSH32 0x596F752063616E60742072657475726E206F7264657220747769636521000000 PUSH1 0x0 DUP3 ADD MSTORE POP JUMP JUMPDEST PUSH1 0x0 PUSH2 0x5A70 PUSH1 0x1D DUP4 PUSH2 0x4A0A JUMP JUMPDEST SWAP2 POP PUSH2 0x5A7B DUP3 PUSH2 0x5A3A JUMP JUMPDEST PUSH1 0x20 DUP3 ADD SWAP1 POP SWAP2 SWAP1 POP JUMP JUMPDEST PUSH1 0x0 PUSH1 0x20 DUP3 ADD SWAP1 POP DUP2 DUP2 SUB PUSH1 0x0 DUP4 ADD MSTORE PUSH2 0x5A9F DUP2 PUSH2 0x5A63 JUMP JUMPDEST SWAP1 POP SWAP2 SWAP1 POP JUMP JUMPDEST PUSH1 0x0 JUMPDEST DUP4 DUP2 LT ISZERO PUSH2 0x5AC4 JUMPI DUP1 DUP3 ADD MLOAD DUP2 DUP5 ADD MSTORE PUSH1 0x20 DUP2 ADD SWAP1 POP PUSH2 0x5AA9 JUMP JUMPDEST PUSH1 0x0 DUP5 DUP5 ADD MSTORE POP POP POP POP JUMP JUMPDEST PUSH1 0x0 PUSH2 0x5ADB DUP3 PUSH2 0x5174 JUMP JUMPDEST PUSH2 0x5AE5 DUP2 DUP6 PUSH2 0x4A0A JUMP JUMPDEST SWAP4 POP PUSH2 0x5AF5 DUP2 DUP6 PUSH1 0x20 DUP7 ADD PUSH2 0x5AA6 JUMP JUMPDEST PUSH2 0x5AFE DUP2 PUSH2 0x46A3 JUMP JUMPDEST DUP5 ADD SWAP2 POP POP SWAP3 SWAP2 POP POP JUMP JUMPDEST PUSH1 0x0 PUSH1 0x20 DUP3 ADD SWAP1 POP DUP2 DUP2 SUB PUSH1 0x0 DUP4 ADD MSTORE PUSH2 0x5B23 DUP2 DUP5 PUSH2 0x5AD0 JUMP JUMPDEST SWAP1 POP SWAP3 SWAP2 POP POP JUMP JUMPDEST PUSH32 0x596F752063616E6074206368616E67652066726F6D20796F757220726F6C6520 PUSH1 0x0 DUP3 ADD MSTORE PUSH32 0x6F6E20796F757220726F6C652100000000000000000000000000000000000000 PUSH1 0x20 DUP3 ADD MSTORE POP JUMP JUMPDEST PUSH1 0x0 PUSH2 0x5B87 PUSH1 0x2D DUP4 PUSH2 0x4A0A JUMP JUMPDEST SWAP2 POP PUSH2 0x5B92 DUP3 PUSH2 0x5B2B JUMP JUMPDEST PUSH1 0x40 DUP3 ADD SWAP1 POP SWAP2 SWAP1 POP JUMP JUMPDEST PUSH1 0x0 PUSH1 0x20 DUP3 ADD SWAP1 POP DUP2 DUP2 SUB PUSH1 0x0 DUP4 ADD MSTORE PUSH2 0x5BB6 DUP2 PUSH2 0x5B7A JUMP JUMPDEST SWAP1 POP SWAP2 SWAP1 POP JUMP JUMPDEST PUSH1 0x0 DUP2 SWAP1 POP SWAP2 SWAP1 POP JUMP JUMPDEST PUSH2 0x5BD8 PUSH2 0x5BD3 DUP3 PUSH2 0x4458 JUMP JUMPDEST PUSH2 0x5BBD JUMP JUMPDEST DUP3 MSTORE POP POP JUMP JUMPDEST PUSH1 0x0 DUP2 PUSH1 0x60 SHL SWAP1 POP SWAP2 SWAP1 POP JUMP JUMPDEST PUSH1 0x0 PUSH2 0x5BF6 DUP3 PUSH2 0x5BDE JUMP JUMPDEST SWAP1 POP SWAP2 SWAP1 POP JUMP JUMPDEST PUSH1 0x0 PUSH2 0x5C08 DUP3 PUSH2 0x5BEB JUMP JUMPDEST SWAP1 POP SWAP2 SWAP1 POP JUMP JUMPDEST PUSH2 0x5C20 PUSH2 0x5C1B DUP3 PUSH2 0x45DC JUMP JUMPDEST PUSH2 0x5BFD JUMP JUMPDEST DUP3 MSTORE POP POP JUMP JUMPDEST PUSH1 0x0 PUSH2 0x5C32 DUP3 DUP6 PUSH2 0x5BC7 JUMP JUMPDEST PUSH1 0x20 DUP3 ADD SWAP2 POP PUSH2 0x5C42 DUP3 DUP5 PUSH2 0x5C0F JUMP JUMPDEST PUSH1 0x14 DUP3 ADD SWAP2 POP DUP2 SWAP1 POP SWAP4 SWAP3 POP POP POP JUMP JUMPDEST PUSH1 0x0 PUSH2 0x5C5D DUP3 PUSH2 0x4458 JUMP JUMPDEST SWAP2 POP PUSH2 0x5C68 DUP4 PUSH2 0x4458 JUMP JUMPDEST SWAP3 POP DUP3 PUSH2 0x5C78 JUMPI PUSH2 0x5C77 PUSH2 0x5114 JUMP JUMPDEST JUMPDEST DUP3 DUP3 MOD SWAP1 POP SWAP3 SWAP2 POP POP JUMP JUMPDEST PUSH2 0x5C8C DUP2 PUSH2 0x4458 JUMP JUMPDEST DUP3 MSTORE POP POP JUMP JUMPDEST PUSH1 0x0 PUSH1 0x20 DUP3 ADD SWAP1 POP PUSH2 0x5CA7 PUSH1 0x0 DUP4 ADD DUP5 PUSH2 0x5C83 JUMP JUMPDEST SWAP3 SWAP2 POP POP JUMP JUMPDEST PUSH2 0x5CB6 DUP2 PUSH2 0x45DC JUMP JUMPDEST DUP3 MSTORE POP POP JUMP JUMPDEST PUSH1 0x0 PUSH1 0x20 DUP3 ADD SWAP1 POP PUSH2 0x5CD1 PUSH1 0x0 DUP4 ADD DUP5 PUSH2 0x5CAD JUMP JUMPDEST SWAP3 SWAP2 POP POP JUMP JUMPDEST PUSH32 0x4141000000000000000000000000000000000000000000000000000000000000 DUP2 MSTORE POP JUMP JUMPDEST PUSH1 0x0 DUP2 SWAP1 POP SWAP3 SWAP2 POP POP JUMP JUMPDEST PUSH1 0x0 PUSH2 0x5D13 DUP3 PUSH2 0x5174 JUMP JUMPDEST PUSH2 0x5D1D DUP2 DUP6 PUSH2 0x5CFD JUMP JUMPDEST SWAP4 POP PUSH2 0x5D2D DUP2 DUP6 PUSH1 0x20 DUP7 ADD PUSH2 0x5AA6 JUMP JUMPDEST DUP1 DUP5 ADD SWAP2 POP POP SWAP3 SWAP2 POP POP JUMP JUMPDEST PUSH1 0x0 PUSH2 0x5D44 DUP3 PUSH2 0x5CD7 JUMP JUMPDEST PUSH1 0x2 DUP3 ADD SWAP2 POP PUSH2 0x5D54 DUP3 DUP6 PUSH2 0x5D08 JUMP JUMPDEST SWAP2 POP PUSH2 0x5D60 DUP3 DUP5 PUSH2 0x5D08 JUMP JUMPDEST SWAP2 POP DUP2 SWAP1 POP SWAP4 SWAP3 POP POP POP JUMP JUMPDEST PUSH32 0x4E487B7100000000000000000000000000000000000000000000000000000000 PUSH1 0x0 MSTORE PUSH1 0x51 PUSH1 0x4 MSTORE PUSH1 0x24 PUSH1 0x0 REVERT INVALID CHAINID PUSH10 0x6E652C20696620796F75 KECCAK256 PUSH19 0x656A6563742074686973206F72646572202869 PUSH15 0x20302C2845746820636F756E742929 GASPRICE 0x5F 0x5F 0x5F 0x5F 0x5F 0x5F 0x5F 0x5F 0x5F 0x5F 0x5F 0x5F 0x5F 0x5F 0x5F 0x5F 0x5F 0x5F 0x5F 0x5F 0x5F 0x5F 0x5F 0x5F 0x5F 0x5F 0x5F 0x5F 0x5F 0x5F 0x5F 0x5F 0x5F 0x5F 0x5F 0x5F 0x5F 0x5F 0x5F 0x5F 0x5F 0x5F 0x5F PREVRANDAO PUSH2 0x7973 KECCAK256 PUSH7 0x726F6D20737570 PUSH17 0x6C79206F6620746869732070726F647563 PUSH21 0x2069733A20596F75206E65656420746F2077616974 KECCAK256 PUSH26 0x6F7572206F7264657220666F723A202874656D706F7261726C79 KECCAK256 PUSH10 0x6E207365636F6E647329 PREVRANDAO PUSH16 0x6E652120596F7520686176652072656A PUSH6 0x637465642074 PUSH9 0x697320717565727279 0x21 LOG2 PUSH5 0x6970667358 0x22 SLT KECCAK256 0xD0 0xBF BLOCKHASH SWAP10 0xE0 LOG2 0xC1 0xE8 JUMPI SUB 0xCA 0xB0 PUSH7 0x1C0FEA2704F2BA 0x26 MSTORE DUP4 0xFC SWAP6 PUSH3 0x1479F1 SELFDESTRUCT 0xC SSTORE PUSH5 0x736F6C6343 STOP ADDMOD SLT STOP CALLER "
		},
		"gasEstimates": {
			"creation": {
				"codeDepositCost": "4847800",
				"executionCost": "infinite",
				"totalCost": "infinite"
			},
			"external": {
				"CheckQuerries()": "infinite",
				"buyProd(uint256,uint256,uint256,string)": "infinite",
				"confirmOrder(bool,uint256)": "infinite",
				"confirmPurshare(uint256,bool,uint256)": "infinite",
				"confirmRejectQuerry(int256,uint256)": "infinite",
				"inviteYourFriend(address)": "infinite",
				"makeChangeRoleQuerry(uint8,string)": "infinite",
				"payDebt(uint256,uint256)": "infinite",
				"returnDebt(uint256)": "infinite",
				"returnProducts(uint256)": "infinite",
				"supply(uint256,uint256,uint256)": "infinite"
			},
			"internal": {
				"AddReferal(address)": "28865",
				"changeRole(uint256,string memory)": "infinite",
				"defineUserRole(address)": "infinite",
				"findByAdd(uint256,address)": "infinite",
				"generateRandNum(uint256)": "infinite",
				"generateTrackNum(uint256)": "infinite",
				"isCodeUsed(uint256)": "infinite",
				"isInvitedFound(address)": "infinite",
				"makeDeliveryDate()": "infinite",
				"makeDiscount(uint256)": "infinite",
				"removeRole()": "infinite"
			}
		},
		"methodIdentifiers": {
			"CheckQuerries()": "d0ccd213",
			"buyProd(uint256,uint256,uint256,string)": "db9c5571",
			"confirmOrder(bool,uint256)": "ab166be6",
			"confirmPurshare(uint256,bool,uint256)": "df8903d8",
			"confirmRejectQuerry(int256,uint256)": "b107cbce",
			"inviteYourFriend(address)": "bf6c0b48",
			"makeChangeRoleQuerry(uint8,string)": "d9bd29d4",
			"payDebt(uint256,uint256)": "62cc01e7",
			"returnDebt(uint256)": "d2cedf04",
			"returnProducts(uint256)": "eb277cf9",
			"supply(uint256,uint256,uint256)": "dd26d4d9"
		}
	},
	"abi": [
		{
			"inputs": [],
			"stateMutability": "nonpayable",
			"type": "constructor"
		},
		{
			"inputs": [],
			"name": "CheckQuerries",
			"outputs": [],
			"stateMutability": "view",
			"type": "function"
		},
		{
			"inputs": [
				{
					"internalType": "uint256",
					"name": "_prodId",
					"type": "uint256"
				},
				{
					"internalType": "uint256",
					"name": "prodCount",
					"type": "uint256"
				},
				{
					"internalType": "uint256",
					"name": "shopId",
					"type": "uint256"
				},
				{
					"internalType": "string",
					"name": "clientName",
					"type": "string"
				}
			],
			"name": "buyProd",
			"outputs": [],
			"stateMutability": "nonpayable",
			"type": "function"
		},
		{
			"inputs": [
				{
					"internalType": "bool",
					"name": "isApproved",
					"type": "bool"
				},
				{
					"internalType": "uint256",
					"name": "purshareId",
					"type": "uint256"
				}
			],
			"name": "confirmOrder",
			"outputs": [],
			"stateMutability": "payable",
			"type": "function"
		},
		{
			"inputs": [
				{
					"internalType": "uint256",
					"name": "purshareId",
					"type": "uint256"
				},
				{
					"internalType": "bool",
					"name": "isConfirmed",
					"type": "bool"
				},
				{
					"internalType": "uint256",
					"name": "inviteCode",
					"type": "uint256"
				}
			],
			"name": "confirmPurshare",
			"outputs": [],
			"stateMutability": "payable",
			"type": "function"
		},
		{
			"inputs": [
				{
					"internalType": "int256",
					"name": "querryId",
					"type": "int256"
				},
				{
					"internalType": "uint256",
					"name": "confirmCode",
					"type": "uint256"
				}
			],
			"name": "confirmRejectQuerry",
			"outputs": [],
			"stateMutability": "nonpayable",
			"type": "function"
		},
		{
			"inputs": [
				{
					"internalType": "address",
					"name": "friendAddress",
					"type": "address"
				}
			],
			"name": "inviteYourFriend",
			"outputs": [],
			"stateMutability": "nonpayable",
			"type": "function"
		},
		{
			"inputs": [
				{
					"internalType": "enum BuyingInShop.Role",
					"name": "_role",
					"type": "uint8"
				},
				{
					"internalType": "string",
					"name": "name",
					"type": "string"
				}
			],
			"name": "makeChangeRoleQuerry",
			"outputs": [],
			"stateMutability": "nonpayable",
			"type": "function"
		},
		{
			"inputs": [
				{
					"internalType": "uint256",
					"name": "purshareId",
					"type": "uint256"
				},
				{
					"internalType": "uint256",
					"name": "shopId",
					"type": "uint256"
				}
			],
			"name": "payDebt",
			"outputs": [],
			"stateMutability": "payable",
			"type": "function"
		},
		{
			"inputs": [
				{
					"internalType": "uint256",
					"name": "purshareId",
					"type": "uint256"
				}
			],
			"name": "returnDebt",
			"outputs": [],
			"stateMutability": "payable",
			"type": "function"
		},
		{
			"inputs": [
				{
					"internalType": "uint256",
					"name": "purshareId",
					"type": "uint256"
				}
			],
			"name": "returnProducts",
			"outputs": [],
			"stateMutability": "nonpayable",
			"type": "function"
		},
		{
			"inputs": [
				{
					"internalType": "uint256",
					"name": "__prodId",
					"type": "uint256"
				},
				{
					"internalType": "uint256",
					"name": "_prodCount",
					"type": "uint256"
				},
				{
					"internalType": "uint256",
					"name": "supId",
					"type": "uint256"
				}
			],
			"name": "supply",
			"outputs": [],
			"stateMutability": "payable",
			"type": "function"
		}
	]
}