{
	"data": {
		"bytecode": {
			"linkReferences": {},
			"object": "60806040523480156200001157600080fd5b50600980546001600160a01b03199081163317909155604080516060810182526001808252735b38da6a701c568545dcfcb03fcb875f56beddc46020808401918252845180860186526008815267636974696c696e6b60c01b918101919091529383019384526003805492830181556000819052835192027fc2575a0e9e593c00f959f8c92f12db2869c3395a3b0502d05e2516446f71f85b810192835590517fc2575a0e9e593c00f959f8c92f12db2869c3395a3b0502d05e2516446f71f85c820180546001600160a01b03929092169190961617909455915190927fc2575a0e9e593c00f959f8c92f12db2869c3395a3b0502d05e2516446f71f85d01906200011d908262000627565b5050604080516060810182526002815273583031d1113ad414f02576bd6afabfb30214022560208083019182528351808501855260078152664d2e766964656f60c81b91810191909152928201928352600380546001810182556000829052835191027fc2575a0e9e593c00f959f8c92f12db2869c3395a3b0502d05e2516446f71f85b810191825591517fc2575a0e9e593c00f959f8c92f12db2869c3395a3b0502d05e2516446f71f85c830180546001600160a01b03929092166001600160a01b031990921691909117905592519193507fc2575a0e9e593c00f959f8c92f12db2869c3395a3b0502d05e2516446f71f85d01906200021f908262000627565b5050604080516060810182526001808252670de0b6b3a7640000602083019081526064838501908152600480548085018255600082815295517f8a35acfbc15ff81a39ae7d344fd709f28e8600b4aa8c65c6b64bfe7fe36bd19b60039092029182015592517f8a35acfbc15ff81a39ae7d344fd709f28e8600b4aa8c65c6b64bfe7fe36bd19c84015590517f8a35acfbc15ff81a39ae7d344fd709f28e8600b4aa8c65c6b64bfe7fe36bd19d90920191909155835160808101909452805491945083929091620002f357620002f3620006f3565b9060005260206000209060030201600001548152602001600181526020016004600081548110620003285762000328620006f3565b906000526020600020906003020160010154600262000348919062000709565b8152601460209182015282546001818101855560009485528285208451600493840290910190815584840151818301556040808601516002808401919091556060968701516003909301929092558051608081018252838152815180830183526006808252650536872696d760d41b8289015282880191825283518085018552908152652232b9b1b91760d11b978101979097529181019590955260059585019590955280549182018155909452815193027f405787fa12a823e0f2b7631cc41b3ba8828b3321ca811111fa75cd3aa3bb5ace810193845591519092917f405787fa12a823e0f2b7631cc41b3ba8828b3321ca811111fa75cd3aa3bb5acf019062000454908262000627565b50604082015160028201906200046b908262000627565b506060918201516003918201556040805160a08101825292830182815262444e5360e81b6080850152835273dd870fa1b7c4700f2bd7f44238821c26f7392148602084015260009083018190528054600181018255908052825191027f290decd9548b62a8d60345a988386fc84ba6bc95484008f6362f93160ef3e56301908190620004f8908262000627565b5060208201518160010160006101000a8154816001600160a01b0302191690836001600160a01b03160217905550604082015181600201555050600060136000806000815481106200054e576200054e620006f3565b60009182526020808320600160039093020191909101546001600160a01b0316835282019290925260400190205562000735565b634e487b7160e01b600052604160045260246000fd5b600181811c90821680620005ad57607f821691505b602082108103620005ce57634e487b7160e01b600052602260045260246000fd5b50919050565b601f8211156200062257600081815260208120601f850160051c81016020861015620005fd5750805b601f850160051c820191505b818110156200061e5782815560010162000609565b5050505b505050565b81516001600160401b0381111562000643576200064362000582565b6200065b8162000654845462000598565b84620005d4565b602080601f8311600181146200069357600084156200067a5750858301515b600019600386901b1c1916600185901b1785556200061e565b600085815260208120601f198616915b82811015620006c457888601518255948401946001909101908401620006a3565b5085821015620006e35787850151600019600388901b60f8161c191681555b5050505050600190811b01905550565b634e487b7160e01b600052603260045260246000fd5b80820281158282048414176200072f57634e487b7160e01b600052601160045260246000fd5b92915050565b613ba280620007456000396000f3fe60806040526004361061009c5760003560e01c8063d2cedf0411610064578063d2cedf041461011e578063d9bd29d414610131578063db9c557114610151578063dd26d4d914610171578063df8903d814610184578063eb277cf91461019757600080fd5b806362cc01e7146100a1578063ab166be6146100b6578063b107cbce146100c9578063bf6c0b48146100e9578063d0ccd21314610109575b600080fd5b6100b46100af366004613410565b6101b7565b005b6100b46100c4366004613447565b610572565b3480156100d557600080fd5b506100b46100e4366004613410565b610938565b3480156100f557600080fd5b506100b4610104366004613471565b610af3565b34801561011557600080fd5b506100b4610d00565b6100b461012c36600461349a565b610ef1565b34801561013d57600080fd5b506100b461014c366004613556565b611041565b34801561015d57600080fd5b506100b461016c3660046135aa565b61115b565b6100b461017f366004613604565b611823565b6100b4610192366004613630565b611adc565b3480156101a357600080fd5b506100b46101b236600461349a565b6121f1565b6000805b60005481101561021b57336001600160a01b0316600082815481106101e2576101e2613665565b60009182526020909120600160039092020101546001600160a01b03160361020957600191505b8061021381613691565b9150506101bb565b506001811515146102475760405162461bcd60e51b815260040161023e906136aa565b60405180910390fd5b6006548390811061026a5760405162461bcd60e51b815260040161023e906136d8565b346006858154811061027e5761027e613665565b9060005260206000209060080201600401546001600687815481106102a5576102a5613665565b906000526020600020906008020160030154815481106102c7576102c7613665565b9060005260206000209060040201600201546102e3919061371b565b111561034a5760405162461bcd60e51b815260206004820152603060248201527f596f7520646f6e6074206861766520656e6f756768206d6f6e657920746f207060448201526f617920746f207468697320646562742160801b606482015260840161023e565b336000908152601660209081526040808320805482518185028101850190935280835291929091908301828280156103ab57602002820191906000526020600020905b81546001600160a01b0316815260019091019060200180831161038d575b505050505090506000600686815481106103c7576103c7613665565b600091825260209091206001600890920201015490506004600687815481106103f2576103f2613665565b600091825260209091206006600890920201015460ff16600581111561041a5761041a613732565b146104675760405162461bcd60e51b815260206004820181905260248201527f596f75206861766520616c726561647920706169642074686973206465627421604482015260640161023e565b81818151811061047957610479613665565b60200260200101516001600160a01b03166108fc600e549081150290604051600060405180830381858888f193505050501580156104bb573d6000803e3d6000fd5b506005600687815481106104d1576104d1613665565b60009182526020909120600660089092020101805460ff191660018360058111156104fe576104fe613732565b021790555081818151811061051557610515613665565b6020026020010160006001600160a01b0316815250600e546000868154811061054057610540613665565b906000526020600020906003020160020160008282546105609190613748565b90915550506000600e55505050505050565b6000805b6000548110156105d657336001600160a01b03166000828154811061059d5761059d613665565b60009182526020909120600160039092020101546001600160a01b0316036105c457600191505b806105ce81613691565b915050610576565b506001811515146105f95760405162461bcd60e51b815260040161023e906136aa565b60006006838154811061060e5761060e613665565b600091825260209091206006600890920201015460ff16600581111561063657610636613732565b146106935760405162461bcd60e51b815260206004820152602760248201527f596f7520636f6e6669726d65642f63616e63656c65642074686973206f72646560448201526672206561726c7960c81b606482015260840161023e565b82151560010361071f5760006106a7612807565b905080600684815481106106bd576106bd613665565b9060005260206000209060080201600701819055506001600684815481106106e7576106e7613665565b60009182526020909120600660089092020101805460ff1916600183600581111561071457610714613732565b021790555050505050565b821515600003610933576006828154811061073c5761073c613665565b90600052602060002090600802016004015460016006848154811061076357610763613665565b9060005260206000209060080201600301548154811061078557610785613665565b9060005260206000209060040201600201546107a1919061371b565b3410156107f05760405162461bcd60e51b815260206004820152601a60248201527f596f7520646f6e6074206861766520656e6f756768204574682e000000000000604482015260640161023e565b60026006838154811061080557610805613665565b60009182526020909120600660089092020101805460ff1916600183600581111561083257610832613732565b021790555060076006838154811061084c5761084c613665565b9060005260206000209060080201600101548154811061086e5761086e613665565b6000918252602090912060039091020154600680546001600160a01b03909216916108fc9190859081106108a4576108a4613665565b9060005260206000209060080201600401546001600686815481106108cb576108cb613665565b906000526020600020906008020160030154815481106108ed576108ed613665565b906000526020600020906004020160020154610909919061371b565b6040518115909202916000818181858888f19350505050158015610931573d6000803e3d6000fd5b505b505050565b6009546001600160a01b031633146109895760405162461bcd60e51b8152602060048201526014602482015273596f75206172656e607420616e206f776e65722160601b604482015260640161023e565b8115806109965750816001145b610a085760405162461bcd60e51b815260206004820152603f60248201527f596f752077726f746520612077726f6e6720636f6e6669726d2f72656a65637460448201527f20636f6465212030202d2072656a6563742c2031202d20636f6e6669726d2100606482015260840161023e565b80600003610a3557610a31604051806060016040528060248152602001613b496024913961281b565b5050565b610aeb8260058481548110610a4c57610a4c613665565b90600052602060002090600402016002018054610a689061375b565b80601f0160208091040260200160405190810160405280929190818152602001828054610a949061375b565b8015610ae15780601f10610ab657610100808354040283529160200191610ae1565b820191906000526020600020905b815481529060010190602001808311610ac457829003601f168201915b505050505061285e565b610a31612c06565b60005b600354811015610b6957336001600160a01b031660038281548110610b1d57610b1d613665565b60009182526020909120600160039092020101546001600160a01b031603610b575760405162461bcd60e51b815260040161023e90613795565b80610b6181613691565b915050610af6565b5060005b600054811015610be057336001600160a01b031660008281548110610b9457610b94613665565b60009182526020909120600160039092020101546001600160a01b031603610bce5760405162461bcd60e51b815260040161023e90613795565b80610bd881613691565b915050610b6d565b50336001600160a01b03821603610c435760405162461bcd60e51b815260206004820152602160248201527f4572726f722120596f752063616e607420696e7669746520796f757273656c666044820152602160f81b606482015260840161023e565b6000610c4e82612d84565b9050801515600103610cb05760405162461bcd60e51b815260206004820152602560248201527f4572726f7221205468697320757365722068617320616c726561647920696e76604482015264697465642160d81b606482015260840161023e565b610cbc620f4240612dd7565b6001600160a01b038316600090815260156020526040902055610cde82612e31565b6001600160a01b038216600090815260156020526040902054610a3190612e96565b6009546001600160a01b03163314610d515760405162461bcd60e51b8152602060048201526014602482015273596f75206172656e607420616e206f776e65722160601b604482015260640161023e565b60005b600554811015610eee57610d7f6040518060600160405280602b8152602001613ac1602b913961281b565b610dac60058281548110610d9557610d95613665565b906000526020600020906004020160000154612e96565b610de460058281548110610dc257610dc2613665565b60009182526020909120600160049092020101546001600160a01b0316612edb565b610e9960058281548110610dfa57610dfa613665565b90600052602060002090600402016002018054610e169061375b565b80601f0160208091040260200160405190810160405280929190818152602001828054610e429061375b565b8015610e8f5780601f10610e6457610100808354040283529160200191610e8f565b820191906000526020600020905b815481529060010190602001808311610e7257829003601f168201915b505050505061281b565b610edc60058281548110610eaf57610eaf613665565b60009182526020909120600360049092020181015460ff1690811115610ed757610ed7613732565b612e96565b80610ee681613691565b915050610d54565b50565b6000805b600054811015610f5557336001600160a01b031660008281548110610f1c57610f1c613665565b60009182526020909120600160039092020101546001600160a01b031603610f4357600191505b80610f4d81613691565b915050610ef5565b50600181151514610f785760405162461bcd60e51b815260040161023e906136aa565b33600090815260166020526040902054610fd45760405162461bcd60e51b815260206004820152601960248201527f596f7520646f6e6074206861766520616e792064656274732100000000000000604482015260640161023e565b6006548210610ff55760405162461bcd60e51b815260040161023e906136d8565b611028604051806040016040528060128152602001712cb7bab9103232b13a1039bab69032ba341d60711b81525061281b565b610a31670de0b6b3a7640000600e54610ed791906137db565b60056040518060800160405280600c548152602001336001600160a01b0316815260200183815260200184600381111561107d5761107d613732565b9052815460018082018455600093845260209384902083516004909302019182559282015192810180546001600160a01b0319166001600160a01b0390941693909317909255604081015190919060028201906110da908261383d565b5060608201518160030160006101000a81548160ff0219169083600381111561110557611105613732565b021790555050506111376040518060400160405280600a81526020016928bab2b9393c9034b21d60b11b81525061281b565b611142600c54612e96565b600c805490600061115283613691565b91905055505050565b60005b6003548110156111d157336001600160a01b03166003828154811061118557611185613665565b60009182526020909120600160039092020101546001600160a01b0316036111bf5760405162461bcd60e51b815260040161023e90613795565b806111c981613691565b91505061115e565b5060005b60005481101561124857336001600160a01b0316600082815481106111fc576111fc613665565b60009182526020909120600160039092020101546001600160a01b0316036112365760405162461bcd60e51b815260040161023e90613795565b8061124081613691565b9150506111d5565b506000836001868154811061125f5761125f613665565b90600052602060002090600402016003015461127b9190613748565b10156112e45760405162461bcd60e51b815260206004820152603260248201527f536f7272792120576520646f6e6074206861766520656e6f75676820636f756e60448201527174206f6620746869732070726f647563742160701b606482015260840161023e565b82600185815481106112f8576112f8613665565b906000526020600020906004020160030160008282546113189190613748565b9091555050336000908152601260205260408120549081900361141f576040805160608101825233815260208101848152600092820183905260078054600181018255935281517fa66cc928b5edb82af9bd49922954155ab7b0942694bea4ce44661d9a8736c688600390940293840180546001600160a01b0319166001600160a01b039092169190911781559051919290917fa66cc928b5edb82af9bd49922954155ab7b0942694bea4ce44661d9a8736c689909101906113da908261383d565b50604091909101516002909101805460ff1916911515919091179055600d805490600061140683613691565b9091555050600d54336000908152601260205260409020555b61142885612f23565b600b90611435908261383d565b506006604051806101000160405280600b80546114519061375b565b80601f016020809104026020016040519081016040528092919081815260200182805461147d9061375b565b80156114ca5780601f1061149f576101008083540402835291602001916114ca565b820191906000526020600020905b8154815290600101906020018083116114ad57829003601f168201915b5050505050815260200160016007805490506114e69190613748565b8152602001878152602001858152602001868152602001611507600a612dd7565b81526020016000815260006020918201819052835460018101855593815220815191926008020190819061153b908261383d565b506020820151816001015560408201518160020155606082015181600301556080820151816004015560a0820151816005015560c08201518160060160006101000a81548160ff0219169083600581111561159857611598613732565b021790555060e082015181600701555050600b600660016006805490506115bf9190613748565b815481106115cf576115cf613665565b906000526020600020906008020160000190816115ec91906138fd565b50600680546115fd90600190613748565b8154811061160d5761160d613665565b9060005260206000209060080201600401546001600660016006805490506116359190613748565b8154811061164557611645613665565b9060005260206000209060080201600301548154811061166757611667613665565b906000526020600020906004020160020154611683919061371b565b60065460179060009061169890600190613748565b8152602001908152602001600020819055506116cb604051806060016040528060258152602001613aec6025913961281b565b6006805461170791906116e090600190613748565b815481106116f0576116f0613665565b906000526020600020906008020160050154612e96565b6117356040518060400160405280600d81526020016c27b93232b910373ab6b132b91d60991b81525061281b565b60065461174890610ed790600190613748565b6117796040518060400160405280601081526020016f2cb7bab9103a3930b1b59031b7b2329d60811b81525061281b565b611789600b8054610e169061375b565b6117aa604051806060016040528060388152602001613b116038913961281b565b6117b46005612e96565b6117d5604051806060016040528060328152602001613a8f6032913961281b565b61181c67016345785d8a000060056017600060016006805490506117f99190613748565b81526020019081526020016000205461181291906137db565b610ed791906137db565b5050505050565b6000805b60005481101561188757336001600160a01b03166000828154811061184e5761184e613665565b60009182526020909120600160039092020101546001600160a01b03160361187557600191505b8061187f81613691565b915050611827565b506001811515146118aa5760405162461bcd60e51b815260040161023e906136aa565b600083600484815481106118c0576118c0613665565b9060005260206000209060030201600201546118dc9190613748565b10156119365760405162461bcd60e51b8152602060048201526024808201527f536f7272792c20776520646f6e6074206861766520656e6f7567682070726f646044820152637563747360e01b606482015260840161023e565b34836004868154811061194b5761194b613665565b906000526020600020906003020160010154611967919061371b565b11156119b15760405162461bcd60e51b81526020600482015260196024820152780b2deea40c8dedcc0e840d0c2ecca40cadcdeeaced0408ae8d603b1b604482015260640161023e565b600382815481106119c4576119c4613665565b906000526020600020906003020160010160009054906101000a90046001600160a01b03166001600160a01b03166108fc8460048781548110611a0957611a09613665565b906000526020600020906003020160010154611a25919061371b565b6040518115909202916000818181858888f19350505050158015611a4d573d6000803e3d6000fd5b50336000908152601360205260409020546004805485919085908110611a7557611a75613665565b90600052602060002090600302016002016000828254611a959190613748565b925050819055508360018281548110611ab057611ab0613665565b90600052602060002090600402016003016000828254611ad091906139d0565b90915550505050505050565b60005b600354811015611b5257336001600160a01b031660038281548110611b0657611b06613665565b60009182526020909120600160039092020101546001600160a01b031603611b405760405162461bcd60e51b815260040161023e90613795565b80611b4a81613691565b915050611adf565b5060005b600054811015611bc957336001600160a01b031660008281548110611b7d57611b7d613665565b60009182526020909120600160039092020101546001600160a01b031603611bb75760405162461bcd60e51b815260040161023e90613795565b80611bc181613691565b915050611b56565b50336001600160a01b0316600760068581548110611be957611be9613665565b90600052602060002090600802016001015481548110611c0b57611c0b613665565b60009182526020909120600390910201546001600160a01b031614611c7d5760405162461bcd60e51b815260206004820152602260248201527f596f7520656e74657220612077726f6e67206e756d626572206f66206f726465604482015261722160f01b606482015260840161023e565b600160068481548110611c9257611c92613665565b600091825260209091206006600890920201015460ff166005811115611cba57611cba613732565b14611d2d5760405162461bcd60e51b815260206004820152603960248201527f54686973207075727368617265206d75737420676f7420636f6e6669726d206660448201527f726f6d2073686f70206f722046696e6973686564207965742100000000000000606482015260840161023e565b60068381548110611d4057611d40613665565b906000526020600020906008020160070154421015611da15760405162461bcd60e51b815260206004820152601f60248201527f596f7572206f726465722069736e60742064656c697665726564207965742100604482015260640161023e565b81151560010361200957600060068481548110611dc057611dc0613665565b906000526020600020906008020160040154600160068681548110611de757611de7613665565b90600052602060002090600802016003015481548110611e0957611e09613665565b906000526020600020906004020160020154611e25919061371b565b90508115611f28576000611e38836130b2565b90508015611e885760405162461bcd60e51b815260206004820152601860248201527f5468697320636f646520686173206265656e2075736564210000000000000000604482015260640161023e565b336000908152601560205260408120549003611ee65760405162461bcd60e51b815260206004820152601860248201527f5468697320636f64652069736e607420666f7220796f75210000000000000000604482015260640161023e565b611eef826130ff565b600880546001810182556000919091527ff3f7a9fe364faab93b216da50a3214154f22a0a2b415b23a84c8169e8b636ee3018490559150505b34811115611f745760405162461bcd60e51b81526020600482015260196024820152780b2deea40c8dedcc0e840d0c2ecca40cadcdeeaced0408ae8d603b1b604482015260640161023e565b600060068581548110611f8957611f89613665565b90600052602060002090600802016002015481548110611fab57611fab613665565b600091825260208220600160039092020101546040516001600160a01b039091169183156108fc02918491818181858888f19350505050158015611ff3573d6000803e3d6000fd5b506003600685815481106106e7576106e7613665565b811515600003610933576000838152601760205260409020543410156120715760405162461bcd60e51b815260206004820152601a60248201527f596f7520646f6e6074206861766520656e6f756768204574682e000000000000604482015260640161023e565b60006006848154811061208657612086613665565b906000526020600020906008020160020154815481106120a8576120a8613665565b600091825260208083206001600390930201919091015485835260179091526040909120546001600160a01b03909116906108fc906120e9906005906137db565b6040518115909202916000818181858888f19350505050158015612111573d6000803e3d6000fd5b5060008381526017602052604081205560068054600291908590811061213957612139613665565b60009182526020909120600660089092020101805460ff1916600183600581111561216657612166613732565b02179055506006838154811061217e5761217e613665565b9060005260206000209060080201600401546001600685815481106121a5576121a5613665565b906000526020600020906008020160030154815481106121c7576121c7613665565b906000526020600020906004020160030160008282546121e791906139d0565b9091555050505050565b60005b60035481101561226757336001600160a01b03166003828154811061221b5761221b613665565b60009182526020909120600160039092020101546001600160a01b0316036122555760405162461bcd60e51b815260040161023e90613795565b8061225f81613691565b9150506121f4565b5060005b6000548110156122de57336001600160a01b03166000828154811061229257612292613665565b60009182526020909120600160039092020101546001600160a01b0316036122cc5760405162461bcd60e51b815260040161023e90613795565b806122d681613691565b91505061226b565b50600654819081106123025760405162461bcd60e51b815260040161023e906136d8565b6000805b60075481101561236657336001600160a01b03166007828154811061232d5761232d613665565b60009182526020909120600390910201546001600160a01b03160361235457809150612366565b8061235e81613691565b915050612306565b5060005b600654811015610931578381036127f5576006818154811061238e5761238e613665565b90600052602060002090600802016001015482146123ee5760405162461bcd60e51b815260206004820152601f60248201527f596f752077726f746520612077726f6e67206f72646572206e756d6265722100604482015260640161023e565b60026006828154811061240357612403613665565b9060005260206000209060080201600301548154811061242557612425613665565b9060005260206000209060040201600301546006828154811061244a5761244a613665565b906000526020600020906008020160050154116124be5760405162461bcd60e51b815260206004820152602c60248201527f54686973206f7264657220646f6e6074206861766520616e792065787065726960448201526b65642070726f64756374732160a01b606482015260840161023e565b6003600682815481106124d3576124d3613665565b600091825260209091206006600890920201015460ff1660058111156124fb576124fb613732565b146125485760405162461bcd60e51b815260206004820152601d60248201527f596f752063616e60742072657475726e206f7264657220747769636521000000604482015260640161023e565b60006006858154811061255d5761255d613665565b906000526020600020906008020160030154905060006006868154811061258657612586613665565b906000526020600020906008020160040154905060006001600688815481106125b1576125b1613665565b906000526020600020906008020160030154815481106125d3576125d3613665565b906000526020600020906004020160020154905080826125f3919061371b565b600e8190555060046006858154811061260e5761260e613665565b60009182526020909120600660089092020101805460ff1916600183600581111561263b5761263b613732565b02179055506006848154811061265357612653613665565b9060005260206000209060080201600401546001848154811061267857612678613665565b9060005260206000209060040201600301600082825461269891906139d0565b909155505060018054849081106126b1576126b1613665565b906000526020600020906004020160030154600184815481106126d6576126d6613665565b9060005260206000209060040201600201546126f2919061371b565b6000600180868154811061270857612708613665565b9060005260206000209060040201600101546127249190613748565b8154811061273457612734613665565b9060005260206000209060030201600201600082825461275491906139d0565b925050819055506016600080600180878154811061277457612774613665565b9060005260206000209060040201600101546127909190613748565b815481106127a0576127a0613665565b6000918252602080832060016003909302018201546001600160a01b031684528381019490945260409092018120805492830181558152919091200180546001600160a01b0319163317905550610931915050565b806127ff81613691565b91505061236a565b6000426128158160026139d0565b91505090565b610eee8160405160240161282f9190613a07565b60408051601f198184030181529190526020810180516001600160e01b031663104c13eb60e21b17905261311e565b6005828154811061287157612871613665565b60009182526020822060016004909202010154600a80546001600160a01b0319166001600160a01b0390921691909117905560058054849081106128b7576128b7613665565b906000526020600020906004020160030160009054906101000a900460ff169050612910600584815481106128ee576128ee613665565b60009182526020909120600160049092020101546001600160a01b0316613127565b6011805460ff1916600183600381111561292c5761292c613732565b021790555060115460ff16600381111561294857612948613732565b81600381111561295a5761295a613732565b036129bd5760405162461bcd60e51b815260206004820152602d60248201527f596f752063616e6074206368616e67652066726f6d20796f757220726f6c652060448201526c6f6e20796f757220726f6c652160981b606482015260840161023e565b60028160038111156129d1576129d1613732565b03612a755760408051606081018252838152600a546001600160a01b0316602082015260009181018290528154600181018355918052805190916003027f290decd9548b62a8d60345a988386fc84ba6bc95484008f6362f93160ef3e56301908190612a3d908261383d565b5060208201516001820180546001600160a01b0319166001600160a01b03909216919091179055604090910151600290910155612c02565b6001816003811115612a8957612a89613732565b03612b2557600360405180606001604052806001600380549050612aad9190613748565b8152600a546001600160a01b03908116602080840191909152604092830187905284546001808201875560009687529582902085516003909202019081559084015194810180546001600160a01b031916959092169490941790558101519091906002820190612b1d908261383d565b505050612c02565b6000816003811115612b3957612b39613732565b03612c025760408051606081018252600a546001600160a01b03908116825260208201858152600093830184905260078054600181018255945282517fa66cc928b5edb82af9bd49922954155ab7b0942694bea4ce44661d9a8736c688600390950294850180546001600160a01b0319169190931617825551919290917fa66cc928b5edb82af9bd49922954155ab7b0942694bea4ce44661d9a8736c68990910190612be5908261383d565b50604091909101516002909101805460ff19169115159190911790555b6109335b600260115460ff166003811115612c1f57612c1f613732565b03612c8657600a54600090612c3f906001906001600160a01b031661325c565b81548110612c4f57612c4f613665565b60009182526020822060039091020190612c6982826133c2565b506001810180546001600160a01b03191690556000600290910155565b600160115460ff166003811115612c9f57612c9f613732565b03612d0157600a54600390612cbf906002906001600160a01b031661325c565b81548110612ccf57612ccf613665565b6000918252602082206003909102018181556001810180546001600160a01b031916905590610a3160028301826133c2565b600060115460ff166003811115612d1a57612d1a613732565b03612d8257600a54600790612d3a906000906001600160a01b031661325c565b81548110612d4a57612d4a613665565b60009182526020822060039091020180546001600160a01b031916815590612d7560018301826133c2565b50600201805460ff191690555b565b6000805b601054811015612dce576000818152601460205260409020546001600160a01b03808516911603612dbc5750600192915050565b80612dc681613691565b915050612d88565b50600092915050565b6000814233604051602001612e0892919091825260601b6bffffffffffffffffffffffff1916602082015260340190565b6040516020818303038152906040528051906020012060001c612e2b9190613a3a565b92915050565b6000612e3c82612d84565b9050801515600003612e865760108054600090815260146020526040812080546001600160a01b0319166001600160a01b03861617905581549190612e8083613691565b91905055505b600f805490600061115283613691565b610eee81604051602401612eac91815260200190565b60408051601f198184030181529190526020810180516001600160e01b031663f82c50f160e01b17905261311e565b6040516001600160a01b0382166024820152610eee9060440160408051601f198184030181529190526020810180516001600160e01b031663161765e160e11b17905261311e565b6060600060028381548110612f3a57612f3a613665565b90600052602060002090600402016001018054612f569061375b565b80601f0160208091040260200160405190810160405280929190818152602001828054612f829061375b565b8015612fcf5780601f10612fa457610100808354040283529160200191612fcf565b820191906000526020600020905b815481529060010190602001808311612fb257829003601f168201915b50505050509050600060028481548110612feb57612feb613665565b906000526020600020906004020160020180546130079061375b565b80601f01602080910402602001604051908101604052809291908181526020018280546130339061375b565b80156130805780601f1061305557610100808354040283529160200191613080565b820191906000526020600020905b81548152906001019060200180831161306357829003601f168201915b50505050509050818160405160200161309a929190613a4e565b60405160208183030381529060405292505050919050565b6000805b600854811015612dce57600881815481106130d3576130d3613665565b906000526020600020015483036130ed5750600192915050565b806130f781613691565b9150506130b6565b60008061310d600a846137db565b6131179084613748565b9392505050565b610eee816133a1565b6000805b60075481101561318c57826001600160a01b03166007828154811061315257613152613665565b60009182526020909120600390910201546001600160a01b03160361317a5750600092915050565b8061318481613691565b91505061312b565b5060005b6000548110156131f457826001600160a01b0316600082815481106131b7576131b7613665565b60009182526020909120600160039092020101546001600160a01b0316036131e25750600292915050565b806131ec81613691565b915050613190565b5060005b600354811015612dce57826001600160a01b03166003828154811061321f5761321f613665565b60009182526020909120600160039092020101546001600160a01b03160361324a5750600192915050565b8061325481613691565b9150506131f8565b6000826001036132c85760005b6000548110156132c6576000818154811061328657613286613665565b60009182526020909120600160039092020101546001600160a01b03908116908416036132b4579050612e2b565b806132be81613691565b915050613269565b505b826002036133325760005b60035481101561333057600381815481106132f0576132f0613665565b60009182526020909120600160039092020101546001600160a01b039081169084160361331e579050612e2b565b8061332881613691565b9150506132d3565b505b82600003612dce5760005b600754811015613397576007818154811061335a5761335a613665565b60009182526020909120600390910201546001600160a01b0390811690841603613385579050612e2b565b8061338f81613691565b91505061333d565b5050600092915050565b60006a636f6e736f6c652e6c6f679050600080835160208501845afa505050565b5080546133ce9061375b565b6000825580601f106133de575050565b601f016020900490600052602060002090810190610eee91905b8082111561340c57600081556001016133f8565b5090565b6000806040838503121561342357600080fd5b50508035926020909101359150565b8035801515811461344257600080fd5b919050565b6000806040838503121561345a57600080fd5b61346383613432565b946020939093013593505050565b60006020828403121561348357600080fd5b81356001600160a01b038116811461311757600080fd5b6000602082840312156134ac57600080fd5b5035919050565b634e487b7160e01b600052604160045260246000fd5b600082601f8301126134da57600080fd5b813567ffffffffffffffff808211156134f5576134f56134b3565b604051601f8301601f19908116603f0116810190828211818310171561351d5761351d6134b3565b8160405283815286602085880101111561353657600080fd5b836020870160208301376000602085830101528094505050505092915050565b6000806040838503121561356957600080fd5b82356004811061357857600080fd5b9150602083013567ffffffffffffffff81111561359457600080fd5b6135a0858286016134c9565b9150509250929050565b600080600080608085870312156135c057600080fd5b843593506020850135925060408501359150606085013567ffffffffffffffff8111156135ec57600080fd5b6135f8878288016134c9565b91505092959194509250565b60008060006060848603121561361957600080fd5b505081359360208301359350604090920135919050565b60008060006060848603121561364557600080fd5b8335925061365560208501613432565b9150604084013590509250925092565b634e487b7160e01b600052603260045260246000fd5b634e487b7160e01b600052601160045260246000fd5b6000600182016136a3576136a361367b565b5060010190565b6020808252601490820152734f6e6c792073686f702063616e20646f2069742160601b604082015260600190565b60208082526023908201527f5468697320707572736861726520697320646f6e60742063726561746564207960408201526265742160e81b606082015260800190565b8082028115828204841417612e2b57612e2b61367b565b634e487b7160e01b600052602160045260246000fd5b81810381811115612e2b57612e2b61367b565b600181811c9082168061376f57607f821691505b60208210810361378f57634e487b7160e01b600052602260045260246000fd5b50919050565b6020808252601690820152754f6e6c7920636c69656e742063616e20646f2069742160501b604082015260600190565b634e487b7160e01b600052601260045260246000fd5b6000826137ea576137ea6137c5565b500490565b601f82111561093357600081815260208120601f850160051c810160208610156138165750805b601f850160051c820191505b8181101561383557828155600101613822565b505050505050565b815167ffffffffffffffff811115613857576138576134b3565b61386b81613865845461375b565b846137ef565b602080601f8311600181146138a057600084156138885750858301515b600019600386901b1c1916600185901b178555613835565b600085815260208120601f198616915b828110156138cf578886015182559484019460019091019084016138b0565b50858210156138ed5787850151600019600388901b60f8161c191681555b5050505050600190811b01905550565b818103613908575050565b613912825461375b565b67ffffffffffffffff81111561392a5761392a6134b3565b61393881613865845461375b565b6000601f82116001811461396c57600083156139545750848201545b600019600385901b1c1916600184901b17845561181c565b600085815260209020601f19841690600086815260209020845b838110156139a65782860154825560019586019590910190602001613986565b50858310156138ed5793015460001960f8600387901b161c19169092555050600190811b01905550565b80820180821115612e2b57612e2b61367b565b60005b838110156139fe5781810151838201526020016139e6565b50506000910152565b6020815260008251806020840152613a268160408501602087016139e3565b601f01601f19169190910160400192915050565b600082613a4957613a496137c5565b500690565b61414160f01b815260008351613a6b8160028501602088016139e3565b835190830190613a828160028401602088016139e3565b0160020194935050505056fe46696e652c20696620796f752072656a6563742074686973206f726465722028696e20302c2845746820636f756e7429293a5f5f5f5f5f5f5f5f5f5f5f5f5f5f5f5f5f5f5f5f5f5f5f5f5f5f5f5f5f5f5f5f5f5f5f5f5f5f5f5f5f5f5f446179732066726f6d20737570706c79206f6620746869732070726f647563742069733a20596f75206e65656420746f207761697420796f7572206f7264657220666f723a202874656d706f7261726c7920696e207365636f6e647329446f6e652120596f7520686176652072656a656374656420746869732071756572727921a2646970667358221220d8d2e170780c05c8063db827e0c0d837760c14e779b7f7f3648a02308995baf764736f6c63430008150033",
			"opcodes": "PUSH1 0x80 PUSH1 0x40 MSTORE CALLVALUE DUP1 ISZERO PUSH3 0x11 JUMPI PUSH1 0x0 DUP1 REVERT JUMPDEST POP PUSH1 0x9 DUP1 SLOAD PUSH1 0x1 PUSH1 0x1 PUSH1 0xA0 SHL SUB NOT SWAP1 DUP2 AND CALLER OR SWAP1 SWAP2 SSTORE PUSH1 0x40 DUP1 MLOAD PUSH1 0x60 DUP2 ADD DUP3 MSTORE PUSH1 0x1 DUP1 DUP3 MSTORE PUSH20 0x5B38DA6A701C568545DCFCB03FCB875F56BEDDC4 PUSH1 0x20 DUP1 DUP5 ADD SWAP2 DUP3 MSTORE DUP5 MLOAD DUP1 DUP7 ADD DUP7 MSTORE PUSH1 0x8 DUP2 MSTORE PUSH8 0x636974696C696E6B PUSH1 0xC0 SHL SWAP2 DUP2 ADD SWAP2 SWAP1 SWAP2 MSTORE SWAP4 DUP4 ADD SWAP4 DUP5 MSTORE PUSH1 0x3 DUP1 SLOAD SWAP3 DUP4 ADD DUP2 SSTORE PUSH1 0x0 DUP2 SWAP1 MSTORE DUP4 MLOAD SWAP3 MUL PUSH32 0xC2575A0E9E593C00F959F8C92F12DB2869C3395A3B0502D05E2516446F71F85B DUP2 ADD SWAP3 DUP4 SSTORE SWAP1 MLOAD PUSH32 0xC2575A0E9E593C00F959F8C92F12DB2869C3395A3B0502D05E2516446F71F85C DUP3 ADD DUP1 SLOAD PUSH1 0x1 PUSH1 0x1 PUSH1 0xA0 SHL SUB SWAP3 SWAP1 SWAP3 AND SWAP2 SWAP1 SWAP7 AND OR SWAP1 SWAP5 SSTORE SWAP2 MLOAD SWAP1 SWAP3 PUSH32 0xC2575A0E9E593C00F959F8C92F12DB2869C3395A3B0502D05E2516446F71F85D ADD SWAP1 PUSH3 0x11D SWAP1 DUP3 PUSH3 0x627 JUMP JUMPDEST POP POP PUSH1 0x40 DUP1 MLOAD PUSH1 0x60 DUP2 ADD DUP3 MSTORE PUSH1 0x2 DUP2 MSTORE PUSH20 0x583031D1113AD414F02576BD6AFABFB302140225 PUSH1 0x20 DUP1 DUP4 ADD SWAP2 DUP3 MSTORE DUP4 MLOAD DUP1 DUP6 ADD DUP6 MSTORE PUSH1 0x7 DUP2 MSTORE PUSH7 0x4D2E766964656F PUSH1 0xC8 SHL SWAP2 DUP2 ADD SWAP2 SWAP1 SWAP2 MSTORE SWAP3 DUP3 ADD SWAP3 DUP4 MSTORE PUSH1 0x3 DUP1 SLOAD PUSH1 0x1 DUP2 ADD DUP3 SSTORE PUSH1 0x0 DUP3 SWAP1 MSTORE DUP4 MLOAD SWAP2 MUL PUSH32 0xC2575A0E9E593C00F959F8C92F12DB2869C3395A3B0502D05E2516446F71F85B DUP2 ADD SWAP2 DUP3 SSTORE SWAP2 MLOAD PUSH32 0xC2575A0E9E593C00F959F8C92F12DB2869C3395A3B0502D05E2516446F71F85C DUP4 ADD DUP1 SLOAD PUSH1 0x1 PUSH1 0x1 PUSH1 0xA0 SHL SUB SWAP3 SWAP1 SWAP3 AND PUSH1 0x1 PUSH1 0x1 PUSH1 0xA0 SHL SUB NOT SWAP1 SWAP3 AND SWAP2 SWAP1 SWAP2 OR SWAP1 SSTORE SWAP3 MLOAD SWAP2 SWAP4 POP PUSH32 0xC2575A0E9E593C00F959F8C92F12DB2869C3395A3B0502D05E2516446F71F85D ADD SWAP1 PUSH3 0x21F SWAP1 DUP3 PUSH3 0x627 JUMP JUMPDEST POP POP PUSH1 0x40 DUP1 MLOAD PUSH1 0x60 DUP2 ADD DUP3 MSTORE PUSH1 0x1 DUP1 DUP3 MSTORE PUSH8 0xDE0B6B3A7640000 PUSH1 0x20 DUP4 ADD SWAP1 DUP2 MSTORE PUSH1 0x64 DUP4 DUP6 ADD SWAP1 DUP2 MSTORE PUSH1 0x4 DUP1 SLOAD DUP1 DUP6 ADD DUP3 SSTORE PUSH1 0x0 DUP3 DUP2 MSTORE SWAP6 MLOAD PUSH32 0x8A35ACFBC15FF81A39AE7D344FD709F28E8600B4AA8C65C6B64BFE7FE36BD19B PUSH1 0x3 SWAP1 SWAP3 MUL SWAP2 DUP3 ADD SSTORE SWAP3 MLOAD PUSH32 0x8A35ACFBC15FF81A39AE7D344FD709F28E8600B4AA8C65C6B64BFE7FE36BD19C DUP5 ADD SSTORE SWAP1 MLOAD PUSH32 0x8A35ACFBC15FF81A39AE7D344FD709F28E8600B4AA8C65C6B64BFE7FE36BD19D SWAP1 SWAP3 ADD SWAP2 SWAP1 SWAP2 SSTORE DUP4 MLOAD PUSH1 0x80 DUP2 ADD SWAP1 SWAP5 MSTORE DUP1 SLOAD SWAP2 SWAP5 POP DUP4 SWAP3 SWAP1 SWAP2 PUSH3 0x2F3 JUMPI PUSH3 0x2F3 PUSH3 0x6F3 JUMP JUMPDEST SWAP1 PUSH1 0x0 MSTORE PUSH1 0x20 PUSH1 0x0 KECCAK256 SWAP1 PUSH1 0x3 MUL ADD PUSH1 0x0 ADD SLOAD DUP2 MSTORE PUSH1 0x20 ADD PUSH1 0x1 DUP2 MSTORE PUSH1 0x20 ADD PUSH1 0x4 PUSH1 0x0 DUP2 SLOAD DUP2 LT PUSH3 0x328 JUMPI PUSH3 0x328 PUSH3 0x6F3 JUMP JUMPDEST SWAP1 PUSH1 0x0 MSTORE PUSH1 0x20 PUSH1 0x0 KECCAK256 SWAP1 PUSH1 0x3 MUL ADD PUSH1 0x1 ADD SLOAD PUSH1 0x2 PUSH3 0x348 SWAP2 SWAP1 PUSH3 0x709 JUMP JUMPDEST DUP2 MSTORE PUSH1 0x14 PUSH1 0x20 SWAP2 DUP3 ADD MSTORE DUP3 SLOAD PUSH1 0x1 DUP2 DUP2 ADD DUP6 SSTORE PUSH1 0x0 SWAP5 DUP6 MSTORE DUP3 DUP6 KECCAK256 DUP5 MLOAD PUSH1 0x4 SWAP4 DUP5 MUL SWAP1 SWAP2 ADD SWAP1 DUP2 SSTORE DUP5 DUP5 ADD MLOAD DUP2 DUP4 ADD SSTORE PUSH1 0x40 DUP1 DUP7 ADD MLOAD PUSH1 0x2 DUP1 DUP5 ADD SWAP2 SWAP1 SWAP2 SSTORE PUSH1 0x60 SWAP7 DUP8 ADD MLOAD PUSH1 0x3 SWAP1 SWAP4 ADD SWAP3 SWAP1 SWAP3 SSTORE DUP1 MLOAD PUSH1 0x80 DUP2 ADD DUP3 MSTORE DUP4 DUP2 MSTORE DUP2 MLOAD DUP1 DUP4 ADD DUP4 MSTORE PUSH1 0x6 DUP1 DUP3 MSTORE PUSH6 0x536872696D7 PUSH1 0xD4 SHL DUP3 DUP10 ADD MSTORE DUP3 DUP9 ADD SWAP2 DUP3 MSTORE DUP4 MLOAD DUP1 DUP6 ADD DUP6 MSTORE SWAP1 DUP2 MSTORE PUSH6 0x2232B9B1B917 PUSH1 0xD1 SHL SWAP8 DUP2 ADD SWAP8 SWAP1 SWAP8 MSTORE SWAP2 DUP2 ADD SWAP6 SWAP1 SWAP6 MSTORE PUSH1 0x5 SWAP6 DUP6 ADD SWAP6 SWAP1 SWAP6 MSTORE DUP1 SLOAD SWAP2 DUP3 ADD DUP2 SSTORE SWAP1 SWAP5 MSTORE DUP2 MLOAD SWAP4 MUL PUSH32 0x405787FA12A823E0F2B7631CC41B3BA8828B3321CA811111FA75CD3AA3BB5ACE DUP2 ADD SWAP4 DUP5 SSTORE SWAP2 MLOAD SWAP1 SWAP3 SWAP2 PUSH32 0x405787FA12A823E0F2B7631CC41B3BA8828B3321CA811111FA75CD3AA3BB5ACF ADD SWAP1 PUSH3 0x454 SWAP1 DUP3 PUSH3 0x627 JUMP JUMPDEST POP PUSH1 0x40 DUP3 ADD MLOAD PUSH1 0x2 DUP3 ADD SWAP1 PUSH3 0x46B SWAP1 DUP3 PUSH3 0x627 JUMP JUMPDEST POP PUSH1 0x60 SWAP2 DUP3 ADD MLOAD PUSH1 0x3 SWAP2 DUP3 ADD SSTORE PUSH1 0x40 DUP1 MLOAD PUSH1 0xA0 DUP2 ADD DUP3 MSTORE SWAP3 DUP4 ADD DUP3 DUP2 MSTORE PUSH3 0x444E53 PUSH1 0xE8 SHL PUSH1 0x80 DUP6 ADD MSTORE DUP4 MSTORE PUSH20 0xDD870FA1B7C4700F2BD7F44238821C26F7392148 PUSH1 0x20 DUP5 ADD MSTORE PUSH1 0x0 SWAP1 DUP4 ADD DUP2 SWAP1 MSTORE DUP1 SLOAD PUSH1 0x1 DUP2 ADD DUP3 SSTORE SWAP1 DUP1 MSTORE DUP3 MLOAD SWAP2 MUL PUSH32 0x290DECD9548B62A8D60345A988386FC84BA6BC95484008F6362F93160EF3E563 ADD SWAP1 DUP2 SWAP1 PUSH3 0x4F8 SWAP1 DUP3 PUSH3 0x627 JUMP JUMPDEST POP PUSH1 0x20 DUP3 ADD MLOAD DUP2 PUSH1 0x1 ADD PUSH1 0x0 PUSH2 0x100 EXP DUP2 SLOAD DUP2 PUSH1 0x1 PUSH1 0x1 PUSH1 0xA0 SHL SUB MUL NOT AND SWAP1 DUP4 PUSH1 0x1 PUSH1 0x1 PUSH1 0xA0 SHL SUB AND MUL OR SWAP1 SSTORE POP PUSH1 0x40 DUP3 ADD MLOAD DUP2 PUSH1 0x2 ADD SSTORE POP POP PUSH1 0x0 PUSH1 0x13 PUSH1 0x0 DUP1 PUSH1 0x0 DUP2 SLOAD DUP2 LT PUSH3 0x54E JUMPI PUSH3 0x54E PUSH3 0x6F3 JUMP JUMPDEST PUSH1 0x0 SWAP2 DUP3 MSTORE PUSH1 0x20 DUP1 DUP4 KECCAK256 PUSH1 0x1 PUSH1 0x3 SWAP1 SWAP4 MUL ADD SWAP2 SWAP1 SWAP2 ADD SLOAD PUSH1 0x1 PUSH1 0x1 PUSH1 0xA0 SHL SUB AND DUP4 MSTORE DUP3 ADD SWAP3 SWAP1 SWAP3 MSTORE PUSH1 0x40 ADD SWAP1 KECCAK256 SSTORE PUSH3 0x735 JUMP JUMPDEST PUSH4 0x4E487B71 PUSH1 0xE0 SHL PUSH1 0x0 MSTORE PUSH1 0x41 PUSH1 0x4 MSTORE PUSH1 0x24 PUSH1 0x0 REVERT JUMPDEST PUSH1 0x1 DUP2 DUP2 SHR SWAP1 DUP3 AND DUP1 PUSH3 0x5AD JUMPI PUSH1 0x7F DUP3 AND SWAP2 POP JUMPDEST PUSH1 0x20 DUP3 LT DUP2 SUB PUSH3 0x5CE JUMPI PUSH4 0x4E487B71 PUSH1 0xE0 SHL PUSH1 0x0 MSTORE PUSH1 0x22 PUSH1 0x4 MSTORE PUSH1 0x24 PUSH1 0x0 REVERT JUMPDEST POP SWAP2 SWAP1 POP JUMP JUMPDEST PUSH1 0x1F DUP3 GT ISZERO PUSH3 0x622 JUMPI PUSH1 0x0 DUP2 DUP2 MSTORE PUSH1 0x20 DUP2 KECCAK256 PUSH1 0x1F DUP6 ADD PUSH1 0x5 SHR DUP2 ADD PUSH1 0x20 DUP7 LT ISZERO PUSH3 0x5FD JUMPI POP DUP1 JUMPDEST PUSH1 0x1F DUP6 ADD PUSH1 0x5 SHR DUP3 ADD SWAP2 POP JUMPDEST DUP2 DUP2 LT ISZERO PUSH3 0x61E JUMPI DUP3 DUP2 SSTORE PUSH1 0x1 ADD PUSH3 0x609 JUMP JUMPDEST POP POP POP JUMPDEST POP POP POP JUMP JUMPDEST DUP2 MLOAD PUSH1 0x1 PUSH1 0x1 PUSH1 0x40 SHL SUB DUP2 GT ISZERO PUSH3 0x643 JUMPI PUSH3 0x643 PUSH3 0x582 JUMP JUMPDEST PUSH3 0x65B DUP2 PUSH3 0x654 DUP5 SLOAD PUSH3 0x598 JUMP JUMPDEST DUP5 PUSH3 0x5D4 JUMP JUMPDEST PUSH1 0x20 DUP1 PUSH1 0x1F DUP4 GT PUSH1 0x1 DUP2 EQ PUSH3 0x693 JUMPI PUSH1 0x0 DUP5 ISZERO PUSH3 0x67A JUMPI POP DUP6 DUP4 ADD MLOAD JUMPDEST PUSH1 0x0 NOT PUSH1 0x3 DUP7 SWAP1 SHL SHR NOT AND PUSH1 0x1 DUP6 SWAP1 SHL OR DUP6 SSTORE PUSH3 0x61E JUMP JUMPDEST PUSH1 0x0 DUP6 DUP2 MSTORE PUSH1 0x20 DUP2 KECCAK256 PUSH1 0x1F NOT DUP7 AND SWAP2 JUMPDEST DUP3 DUP2 LT ISZERO PUSH3 0x6C4 JUMPI DUP9 DUP7 ADD MLOAD DUP3 SSTORE SWAP5 DUP5 ADD SWAP5 PUSH1 0x1 SWAP1 SWAP2 ADD SWAP1 DUP5 ADD PUSH3 0x6A3 JUMP JUMPDEST POP DUP6 DUP3 LT ISZERO PUSH3 0x6E3 JUMPI DUP8 DUP6 ADD MLOAD PUSH1 0x0 NOT PUSH1 0x3 DUP9 SWAP1 SHL PUSH1 0xF8 AND SHR NOT AND DUP2 SSTORE JUMPDEST POP POP POP POP POP PUSH1 0x1 SWAP1 DUP2 SHL ADD SWAP1 SSTORE POP JUMP JUMPDEST PUSH4 0x4E487B71 PUSH1 0xE0 SHL PUSH1 0x0 MSTORE PUSH1 0x32 PUSH1 0x4 MSTORE PUSH1 0x24 PUSH1 0x0 REVERT JUMPDEST DUP1 DUP3 MUL DUP2 ISZERO DUP3 DUP3 DIV DUP5 EQ OR PUSH3 0x72F JUMPI PUSH4 0x4E487B71 PUSH1 0xE0 SHL PUSH1 0x0 MSTORE PUSH1 0x11 PUSH1 0x4 MSTORE PUSH1 0x24 PUSH1 0x0 REVERT JUMPDEST SWAP3 SWAP2 POP POP JUMP JUMPDEST PUSH2 0x3BA2 DUP1 PUSH3 0x745 PUSH1 0x0 CODECOPY PUSH1 0x0 RETURN INVALID PUSH1 0x80 PUSH1 0x40 MSTORE PUSH1 0x4 CALLDATASIZE LT PUSH2 0x9C JUMPI PUSH1 0x0 CALLDATALOAD PUSH1 0xE0 SHR DUP1 PUSH4 0xD2CEDF04 GT PUSH2 0x64 JUMPI DUP1 PUSH4 0xD2CEDF04 EQ PUSH2 0x11E JUMPI DUP1 PUSH4 0xD9BD29D4 EQ PUSH2 0x131 JUMPI DUP1 PUSH4 0xDB9C5571 EQ PUSH2 0x151 JUMPI DUP1 PUSH4 0xDD26D4D9 EQ PUSH2 0x171 JUMPI DUP1 PUSH4 0xDF8903D8 EQ PUSH2 0x184 JUMPI DUP1 PUSH4 0xEB277CF9 EQ PUSH2 0x197 JUMPI PUSH1 0x0 DUP1 REVERT JUMPDEST DUP1 PUSH4 0x62CC01E7 EQ PUSH2 0xA1 JUMPI DUP1 PUSH4 0xAB166BE6 EQ PUSH2 0xB6 JUMPI DUP1 PUSH4 0xB107CBCE EQ PUSH2 0xC9 JUMPI DUP1 PUSH4 0xBF6C0B48 EQ PUSH2 0xE9 JUMPI DUP1 PUSH4 0xD0CCD213 EQ PUSH2 0x109 JUMPI JUMPDEST PUSH1 0x0 DUP1 REVERT JUMPDEST PUSH2 0xB4 PUSH2 0xAF CALLDATASIZE PUSH1 0x4 PUSH2 0x3410 JUMP JUMPDEST PUSH2 0x1B7 JUMP JUMPDEST STOP JUMPDEST PUSH2 0xB4 PUSH2 0xC4 CALLDATASIZE PUSH1 0x4 PUSH2 0x3447 JUMP JUMPDEST PUSH2 0x572 JUMP JUMPDEST CALLVALUE DUP1 ISZERO PUSH2 0xD5 JUMPI PUSH1 0x0 DUP1 REVERT JUMPDEST POP PUSH2 0xB4 PUSH2 0xE4 CALLDATASIZE PUSH1 0x4 PUSH2 0x3410 JUMP JUMPDEST PUSH2 0x938 JUMP JUMPDEST CALLVALUE DUP1 ISZERO PUSH2 0xF5 JUMPI PUSH1 0x0 DUP1 REVERT JUMPDEST POP PUSH2 0xB4 PUSH2 0x104 CALLDATASIZE PUSH1 0x4 PUSH2 0x3471 JUMP JUMPDEST PUSH2 0xAF3 JUMP JUMPDEST CALLVALUE DUP1 ISZERO PUSH2 0x115 JUMPI PUSH1 0x0 DUP1 REVERT JUMPDEST POP PUSH2 0xB4 PUSH2 0xD00 JUMP JUMPDEST PUSH2 0xB4 PUSH2 0x12C CALLDATASIZE PUSH1 0x4 PUSH2 0x349A JUMP JUMPDEST PUSH2 0xEF1 JUMP JUMPDEST CALLVALUE DUP1 ISZERO PUSH2 0x13D JUMPI PUSH1 0x0 DUP1 REVERT JUMPDEST POP PUSH2 0xB4 PUSH2 0x14C CALLDATASIZE PUSH1 0x4 PUSH2 0x3556 JUMP JUMPDEST PUSH2 0x1041 JUMP JUMPDEST CALLVALUE DUP1 ISZERO PUSH2 0x15D JUMPI PUSH1 0x0 DUP1 REVERT JUMPDEST POP PUSH2 0xB4 PUSH2 0x16C CALLDATASIZE PUSH1 0x4 PUSH2 0x35AA JUMP JUMPDEST PUSH2 0x115B JUMP JUMPDEST PUSH2 0xB4 PUSH2 0x17F CALLDATASIZE PUSH1 0x4 PUSH2 0x3604 JUMP JUMPDEST PUSH2 0x1823 JUMP JUMPDEST PUSH2 0xB4 PUSH2 0x192 CALLDATASIZE PUSH1 0x4 PUSH2 0x3630 JUMP JUMPDEST PUSH2 0x1ADC JUMP JUMPDEST CALLVALUE DUP1 ISZERO PUSH2 0x1A3 JUMPI PUSH1 0x0 DUP1 REVERT JUMPDEST POP PUSH2 0xB4 PUSH2 0x1B2 CALLDATASIZE PUSH1 0x4 PUSH2 0x349A JUMP JUMPDEST PUSH2 0x21F1 JUMP JUMPDEST PUSH1 0x0 DUP1 JUMPDEST PUSH1 0x0 SLOAD DUP2 LT ISZERO PUSH2 0x21B JUMPI CALLER PUSH1 0x1 PUSH1 0x1 PUSH1 0xA0 SHL SUB AND PUSH1 0x0 DUP3 DUP2 SLOAD DUP2 LT PUSH2 0x1E2 JUMPI PUSH2 0x1E2 PUSH2 0x3665 JUMP JUMPDEST PUSH1 0x0 SWAP2 DUP3 MSTORE PUSH1 0x20 SWAP1 SWAP2 KECCAK256 PUSH1 0x1 PUSH1 0x3 SWAP1 SWAP3 MUL ADD ADD SLOAD PUSH1 0x1 PUSH1 0x1 PUSH1 0xA0 SHL SUB AND SUB PUSH2 0x209 JUMPI PUSH1 0x1 SWAP2 POP JUMPDEST DUP1 PUSH2 0x213 DUP2 PUSH2 0x3691 JUMP JUMPDEST SWAP2 POP POP PUSH2 0x1BB JUMP JUMPDEST POP PUSH1 0x1 DUP2 ISZERO ISZERO EQ PUSH2 0x247 JUMPI PUSH1 0x40 MLOAD PUSH3 0x461BCD PUSH1 0xE5 SHL DUP2 MSTORE PUSH1 0x4 ADD PUSH2 0x23E SWAP1 PUSH2 0x36AA JUMP JUMPDEST PUSH1 0x40 MLOAD DUP1 SWAP2 SUB SWAP1 REVERT JUMPDEST PUSH1 0x6 SLOAD DUP4 SWAP1 DUP2 LT PUSH2 0x26A JUMPI PUSH1 0x40 MLOAD PUSH3 0x461BCD PUSH1 0xE5 SHL DUP2 MSTORE PUSH1 0x4 ADD PUSH2 0x23E SWAP1 PUSH2 0x36D8 JUMP JUMPDEST CALLVALUE PUSH1 0x6 DUP6 DUP2 SLOAD DUP2 LT PUSH2 0x27E JUMPI PUSH2 0x27E PUSH2 0x3665 JUMP JUMPDEST SWAP1 PUSH1 0x0 MSTORE PUSH1 0x20 PUSH1 0x0 KECCAK256 SWAP1 PUSH1 0x8 MUL ADD PUSH1 0x4 ADD SLOAD PUSH1 0x1 PUSH1 0x6 DUP8 DUP2 SLOAD DUP2 LT PUSH2 0x2A5 JUMPI PUSH2 0x2A5 PUSH2 0x3665 JUMP JUMPDEST SWAP1 PUSH1 0x0 MSTORE PUSH1 0x20 PUSH1 0x0 KECCAK256 SWAP1 PUSH1 0x8 MUL ADD PUSH1 0x3 ADD SLOAD DUP2 SLOAD DUP2 LT PUSH2 0x2C7 JUMPI PUSH2 0x2C7 PUSH2 0x3665 JUMP JUMPDEST SWAP1 PUSH1 0x0 MSTORE PUSH1 0x20 PUSH1 0x0 KECCAK256 SWAP1 PUSH1 0x4 MUL ADD PUSH1 0x2 ADD SLOAD PUSH2 0x2E3 SWAP2 SWAP1 PUSH2 0x371B JUMP JUMPDEST GT ISZERO PUSH2 0x34A JUMPI PUSH1 0x40 MLOAD PUSH3 0x461BCD PUSH1 0xE5 SHL DUP2 MSTORE PUSH1 0x20 PUSH1 0x4 DUP3 ADD MSTORE PUSH1 0x30 PUSH1 0x24 DUP3 ADD MSTORE PUSH32 0x596F7520646F6E6074206861766520656E6F756768206D6F6E657920746F2070 PUSH1 0x44 DUP3 ADD MSTORE PUSH16 0x617920746F2074686973206465627421 PUSH1 0x80 SHL PUSH1 0x64 DUP3 ADD MSTORE PUSH1 0x84 ADD PUSH2 0x23E JUMP JUMPDEST CALLER PUSH1 0x0 SWAP1 DUP2 MSTORE PUSH1 0x16 PUSH1 0x20 SWAP1 DUP2 MSTORE PUSH1 0x40 DUP1 DUP4 KECCAK256 DUP1 SLOAD DUP3 MLOAD DUP2 DUP6 MUL DUP2 ADD DUP6 ADD SWAP1 SWAP4 MSTORE DUP1 DUP4 MSTORE SWAP2 SWAP3 SWAP1 SWAP2 SWAP1 DUP4 ADD DUP3 DUP3 DUP1 ISZERO PUSH2 0x3AB JUMPI PUSH1 0x20 MUL DUP3 ADD SWAP2 SWAP1 PUSH1 0x0 MSTORE PUSH1 0x20 PUSH1 0x0 KECCAK256 SWAP1 JUMPDEST DUP2 SLOAD PUSH1 0x1 PUSH1 0x1 PUSH1 0xA0 SHL SUB AND DUP2 MSTORE PUSH1 0x1 SWAP1 SWAP2 ADD SWAP1 PUSH1 0x20 ADD DUP1 DUP4 GT PUSH2 0x38D JUMPI JUMPDEST POP POP POP POP POP SWAP1 POP PUSH1 0x0 PUSH1 0x6 DUP7 DUP2 SLOAD DUP2 LT PUSH2 0x3C7 JUMPI PUSH2 0x3C7 PUSH2 0x3665 JUMP JUMPDEST PUSH1 0x0 SWAP2 DUP3 MSTORE PUSH1 0x20 SWAP1 SWAP2 KECCAK256 PUSH1 0x1 PUSH1 0x8 SWAP1 SWAP3 MUL ADD ADD SLOAD SWAP1 POP PUSH1 0x4 PUSH1 0x6 DUP8 DUP2 SLOAD DUP2 LT PUSH2 0x3F2 JUMPI PUSH2 0x3F2 PUSH2 0x3665 JUMP JUMPDEST PUSH1 0x0 SWAP2 DUP3 MSTORE PUSH1 0x20 SWAP1 SWAP2 KECCAK256 PUSH1 0x6 PUSH1 0x8 SWAP1 SWAP3 MUL ADD ADD SLOAD PUSH1 0xFF AND PUSH1 0x5 DUP2 GT ISZERO PUSH2 0x41A JUMPI PUSH2 0x41A PUSH2 0x3732 JUMP JUMPDEST EQ PUSH2 0x467 JUMPI PUSH1 0x40 MLOAD PUSH3 0x461BCD PUSH1 0xE5 SHL DUP2 MSTORE PUSH1 0x20 PUSH1 0x4 DUP3 ADD DUP2 SWAP1 MSTORE PUSH1 0x24 DUP3 ADD MSTORE PUSH32 0x596F75206861766520616C726561647920706169642074686973206465627421 PUSH1 0x44 DUP3 ADD MSTORE PUSH1 0x64 ADD PUSH2 0x23E JUMP JUMPDEST DUP2 DUP2 DUP2 MLOAD DUP2 LT PUSH2 0x479 JUMPI PUSH2 0x479 PUSH2 0x3665 JUMP JUMPDEST PUSH1 0x20 MUL PUSH1 0x20 ADD ADD MLOAD PUSH1 0x1 PUSH1 0x1 PUSH1 0xA0 SHL SUB AND PUSH2 0x8FC PUSH1 0xE SLOAD SWAP1 DUP2 ISZERO MUL SWAP1 PUSH1 0x40 MLOAD PUSH1 0x0 PUSH1 0x40 MLOAD DUP1 DUP4 SUB DUP2 DUP6 DUP9 DUP9 CALL SWAP4 POP POP POP POP ISZERO DUP1 ISZERO PUSH2 0x4BB JUMPI RETURNDATASIZE PUSH1 0x0 DUP1 RETURNDATACOPY RETURNDATASIZE PUSH1 0x0 REVERT JUMPDEST POP PUSH1 0x5 PUSH1 0x6 DUP8 DUP2 SLOAD DUP2 LT PUSH2 0x4D1 JUMPI PUSH2 0x4D1 PUSH2 0x3665 JUMP JUMPDEST PUSH1 0x0 SWAP2 DUP3 MSTORE PUSH1 0x20 SWAP1 SWAP2 KECCAK256 PUSH1 0x6 PUSH1 0x8 SWAP1 SWAP3 MUL ADD ADD DUP1 SLOAD PUSH1 0xFF NOT AND PUSH1 0x1 DUP4 PUSH1 0x5 DUP2 GT ISZERO PUSH2 0x4FE JUMPI PUSH2 0x4FE PUSH2 0x3732 JUMP JUMPDEST MUL OR SWAP1 SSTORE POP DUP2 DUP2 DUP2 MLOAD DUP2 LT PUSH2 0x515 JUMPI PUSH2 0x515 PUSH2 0x3665 JUMP JUMPDEST PUSH1 0x20 MUL PUSH1 0x20 ADD ADD PUSH1 0x0 PUSH1 0x1 PUSH1 0x1 PUSH1 0xA0 SHL SUB AND DUP2 MSTORE POP PUSH1 0xE SLOAD PUSH1 0x0 DUP7 DUP2 SLOAD DUP2 LT PUSH2 0x540 JUMPI PUSH2 0x540 PUSH2 0x3665 JUMP JUMPDEST SWAP1 PUSH1 0x0 MSTORE PUSH1 0x20 PUSH1 0x0 KECCAK256 SWAP1 PUSH1 0x3 MUL ADD PUSH1 0x2 ADD PUSH1 0x0 DUP3 DUP3 SLOAD PUSH2 0x560 SWAP2 SWAP1 PUSH2 0x3748 JUMP JUMPDEST SWAP1 SWAP2 SSTORE POP POP PUSH1 0x0 PUSH1 0xE SSTORE POP POP POP POP POP POP JUMP JUMPDEST PUSH1 0x0 DUP1 JUMPDEST PUSH1 0x0 SLOAD DUP2 LT ISZERO PUSH2 0x5D6 JUMPI CALLER PUSH1 0x1 PUSH1 0x1 PUSH1 0xA0 SHL SUB AND PUSH1 0x0 DUP3 DUP2 SLOAD DUP2 LT PUSH2 0x59D JUMPI PUSH2 0x59D PUSH2 0x3665 JUMP JUMPDEST PUSH1 0x0 SWAP2 DUP3 MSTORE PUSH1 0x20 SWAP1 SWAP2 KECCAK256 PUSH1 0x1 PUSH1 0x3 SWAP1 SWAP3 MUL ADD ADD SLOAD PUSH1 0x1 PUSH1 0x1 PUSH1 0xA0 SHL SUB AND SUB PUSH2 0x5C4 JUMPI PUSH1 0x1 SWAP2 POP JUMPDEST DUP1 PUSH2 0x5CE DUP2 PUSH2 0x3691 JUMP JUMPDEST SWAP2 POP POP PUSH2 0x576 JUMP JUMPDEST POP PUSH1 0x1 DUP2 ISZERO ISZERO EQ PUSH2 0x5F9 JUMPI PUSH1 0x40 MLOAD PUSH3 0x461BCD PUSH1 0xE5 SHL DUP2 MSTORE PUSH1 0x4 ADD PUSH2 0x23E SWAP1 PUSH2 0x36AA JUMP JUMPDEST PUSH1 0x0 PUSH1 0x6 DUP4 DUP2 SLOAD DUP2 LT PUSH2 0x60E JUMPI PUSH2 0x60E PUSH2 0x3665 JUMP JUMPDEST PUSH1 0x0 SWAP2 DUP3 MSTORE PUSH1 0x20 SWAP1 SWAP2 KECCAK256 PUSH1 0x6 PUSH1 0x8 SWAP1 SWAP3 MUL ADD ADD SLOAD PUSH1 0xFF AND PUSH1 0x5 DUP2 GT ISZERO PUSH2 0x636 JUMPI PUSH2 0x636 PUSH2 0x3732 JUMP JUMPDEST EQ PUSH2 0x693 JUMPI PUSH1 0x40 MLOAD PUSH3 0x461BCD PUSH1 0xE5 SHL DUP2 MSTORE PUSH1 0x20 PUSH1 0x4 DUP3 ADD MSTORE PUSH1 0x27 PUSH1 0x24 DUP3 ADD MSTORE PUSH32 0x596F7520636F6E6669726D65642F63616E63656C65642074686973206F726465 PUSH1 0x44 DUP3 ADD MSTORE PUSH7 0x72206561726C79 PUSH1 0xC8 SHL PUSH1 0x64 DUP3 ADD MSTORE PUSH1 0x84 ADD PUSH2 0x23E JUMP JUMPDEST DUP3 ISZERO ISZERO PUSH1 0x1 SUB PUSH2 0x71F JUMPI PUSH1 0x0 PUSH2 0x6A7 PUSH2 0x2807 JUMP JUMPDEST SWAP1 POP DUP1 PUSH1 0x6 DUP5 DUP2 SLOAD DUP2 LT PUSH2 0x6BD JUMPI PUSH2 0x6BD PUSH2 0x3665 JUMP JUMPDEST SWAP1 PUSH1 0x0 MSTORE PUSH1 0x20 PUSH1 0x0 KECCAK256 SWAP1 PUSH1 0x8 MUL ADD PUSH1 0x7 ADD DUP2 SWAP1 SSTORE POP PUSH1 0x1 PUSH1 0x6 DUP5 DUP2 SLOAD DUP2 LT PUSH2 0x6E7 JUMPI PUSH2 0x6E7 PUSH2 0x3665 JUMP JUMPDEST PUSH1 0x0 SWAP2 DUP3 MSTORE PUSH1 0x20 SWAP1 SWAP2 KECCAK256 PUSH1 0x6 PUSH1 0x8 SWAP1 SWAP3 MUL ADD ADD DUP1 SLOAD PUSH1 0xFF NOT AND PUSH1 0x1 DUP4 PUSH1 0x5 DUP2 GT ISZERO PUSH2 0x714 JUMPI PUSH2 0x714 PUSH2 0x3732 JUMP JUMPDEST MUL OR SWAP1 SSTORE POP POP POP POP POP JUMP JUMPDEST DUP3 ISZERO ISZERO PUSH1 0x0 SUB PUSH2 0x933 JUMPI PUSH1 0x6 DUP3 DUP2 SLOAD DUP2 LT PUSH2 0x73C JUMPI PUSH2 0x73C PUSH2 0x3665 JUMP JUMPDEST SWAP1 PUSH1 0x0 MSTORE PUSH1 0x20 PUSH1 0x0 KECCAK256 SWAP1 PUSH1 0x8 MUL ADD PUSH1 0x4 ADD SLOAD PUSH1 0x1 PUSH1 0x6 DUP5 DUP2 SLOAD DUP2 LT PUSH2 0x763 JUMPI PUSH2 0x763 PUSH2 0x3665 JUMP JUMPDEST SWAP1 PUSH1 0x0 MSTORE PUSH1 0x20 PUSH1 0x0 KECCAK256 SWAP1 PUSH1 0x8 MUL ADD PUSH1 0x3 ADD SLOAD DUP2 SLOAD DUP2 LT PUSH2 0x785 JUMPI PUSH2 0x785 PUSH2 0x3665 JUMP JUMPDEST SWAP1 PUSH1 0x0 MSTORE PUSH1 0x20 PUSH1 0x0 KECCAK256 SWAP1 PUSH1 0x4 MUL ADD PUSH1 0x2 ADD SLOAD PUSH2 0x7A1 SWAP2 SWAP1 PUSH2 0x371B JUMP JUMPDEST CALLVALUE LT ISZERO PUSH2 0x7F0 JUMPI PUSH1 0x40 MLOAD PUSH3 0x461BCD PUSH1 0xE5 SHL DUP2 MSTORE PUSH1 0x20 PUSH1 0x4 DUP3 ADD MSTORE PUSH1 0x1A PUSH1 0x24 DUP3 ADD MSTORE PUSH32 0x596F7520646F6E6074206861766520656E6F756768204574682E000000000000 PUSH1 0x44 DUP3 ADD MSTORE PUSH1 0x64 ADD PUSH2 0x23E JUMP JUMPDEST PUSH1 0x2 PUSH1 0x6 DUP4 DUP2 SLOAD DUP2 LT PUSH2 0x805 JUMPI PUSH2 0x805 PUSH2 0x3665 JUMP JUMPDEST PUSH1 0x0 SWAP2 DUP3 MSTORE PUSH1 0x20 SWAP1 SWAP2 KECCAK256 PUSH1 0x6 PUSH1 0x8 SWAP1 SWAP3 MUL ADD ADD DUP1 SLOAD PUSH1 0xFF NOT AND PUSH1 0x1 DUP4 PUSH1 0x5 DUP2 GT ISZERO PUSH2 0x832 JUMPI PUSH2 0x832 PUSH2 0x3732 JUMP JUMPDEST MUL OR SWAP1 SSTORE POP PUSH1 0x7 PUSH1 0x6 DUP4 DUP2 SLOAD DUP2 LT PUSH2 0x84C JUMPI PUSH2 0x84C PUSH2 0x3665 JUMP JUMPDEST SWAP1 PUSH1 0x0 MSTORE PUSH1 0x20 PUSH1 0x0 KECCAK256 SWAP1 PUSH1 0x8 MUL ADD PUSH1 0x1 ADD SLOAD DUP2 SLOAD DUP2 LT PUSH2 0x86E JUMPI PUSH2 0x86E PUSH2 0x3665 JUMP JUMPDEST PUSH1 0x0 SWAP2 DUP3 MSTORE PUSH1 0x20 SWAP1 SWAP2 KECCAK256 PUSH1 0x3 SWAP1 SWAP2 MUL ADD SLOAD PUSH1 0x6 DUP1 SLOAD PUSH1 0x1 PUSH1 0x1 PUSH1 0xA0 SHL SUB SWAP1 SWAP3 AND SWAP2 PUSH2 0x8FC SWAP2 SWAP1 DUP6 SWAP1 DUP2 LT PUSH2 0x8A4 JUMPI PUSH2 0x8A4 PUSH2 0x3665 JUMP JUMPDEST SWAP1 PUSH1 0x0 MSTORE PUSH1 0x20 PUSH1 0x0 KECCAK256 SWAP1 PUSH1 0x8 MUL ADD PUSH1 0x4 ADD SLOAD PUSH1 0x1 PUSH1 0x6 DUP7 DUP2 SLOAD DUP2 LT PUSH2 0x8CB JUMPI PUSH2 0x8CB PUSH2 0x3665 JUMP JUMPDEST SWAP1 PUSH1 0x0 MSTORE PUSH1 0x20 PUSH1 0x0 KECCAK256 SWAP1 PUSH1 0x8 MUL ADD PUSH1 0x3 ADD SLOAD DUP2 SLOAD DUP2 LT PUSH2 0x8ED JUMPI PUSH2 0x8ED PUSH2 0x3665 JUMP JUMPDEST SWAP1 PUSH1 0x0 MSTORE PUSH1 0x20 PUSH1 0x0 KECCAK256 SWAP1 PUSH1 0x4 MUL ADD PUSH1 0x2 ADD SLOAD PUSH2 0x909 SWAP2 SWAP1 PUSH2 0x371B JUMP JUMPDEST PUSH1 0x40 MLOAD DUP2 ISZERO SWAP1 SWAP3 MUL SWAP2 PUSH1 0x0 DUP2 DUP2 DUP2 DUP6 DUP9 DUP9 CALL SWAP4 POP POP POP POP ISZERO DUP1 ISZERO PUSH2 0x931 JUMPI RETURNDATASIZE PUSH1 0x0 DUP1 RETURNDATACOPY RETURNDATASIZE PUSH1 0x0 REVERT JUMPDEST POP JUMPDEST POP POP POP JUMP JUMPDEST PUSH1 0x9 SLOAD PUSH1 0x1 PUSH1 0x1 PUSH1 0xA0 SHL SUB AND CALLER EQ PUSH2 0x989 JUMPI PUSH1 0x40 MLOAD PUSH3 0x461BCD PUSH1 0xE5 SHL DUP2 MSTORE PUSH1 0x20 PUSH1 0x4 DUP3 ADD MSTORE PUSH1 0x14 PUSH1 0x24 DUP3 ADD MSTORE PUSH20 0x596F75206172656E607420616E206F776E657221 PUSH1 0x60 SHL PUSH1 0x44 DUP3 ADD MSTORE PUSH1 0x64 ADD PUSH2 0x23E JUMP JUMPDEST DUP2 ISZERO DUP1 PUSH2 0x996 JUMPI POP DUP2 PUSH1 0x1 EQ JUMPDEST PUSH2 0xA08 JUMPI PUSH1 0x40 MLOAD PUSH3 0x461BCD PUSH1 0xE5 SHL DUP2 MSTORE PUSH1 0x20 PUSH1 0x4 DUP3 ADD MSTORE PUSH1 0x3F PUSH1 0x24 DUP3 ADD MSTORE PUSH32 0x596F752077726F746520612077726F6E6720636F6E6669726D2F72656A656374 PUSH1 0x44 DUP3 ADD MSTORE PUSH32 0x20636F6465212030202D2072656A6563742C2031202D20636F6E6669726D2100 PUSH1 0x64 DUP3 ADD MSTORE PUSH1 0x84 ADD PUSH2 0x23E JUMP JUMPDEST DUP1 PUSH1 0x0 SUB PUSH2 0xA35 JUMPI PUSH2 0xA31 PUSH1 0x40 MLOAD DUP1 PUSH1 0x60 ADD PUSH1 0x40 MSTORE DUP1 PUSH1 0x24 DUP2 MSTORE PUSH1 0x20 ADD PUSH2 0x3B49 PUSH1 0x24 SWAP2 CODECOPY PUSH2 0x281B JUMP JUMPDEST POP POP JUMP JUMPDEST PUSH2 0xAEB DUP3 PUSH1 0x5 DUP5 DUP2 SLOAD DUP2 LT PUSH2 0xA4C JUMPI PUSH2 0xA4C PUSH2 0x3665 JUMP JUMPDEST SWAP1 PUSH1 0x0 MSTORE PUSH1 0x20 PUSH1 0x0 KECCAK256 SWAP1 PUSH1 0x4 MUL ADD PUSH1 0x2 ADD DUP1 SLOAD PUSH2 0xA68 SWAP1 PUSH2 0x375B JUMP JUMPDEST DUP1 PUSH1 0x1F ADD PUSH1 0x20 DUP1 SWAP2 DIV MUL PUSH1 0x20 ADD PUSH1 0x40 MLOAD SWAP1 DUP2 ADD PUSH1 0x40 MSTORE DUP1 SWAP3 SWAP2 SWAP1 DUP2 DUP2 MSTORE PUSH1 0x20 ADD DUP3 DUP1 SLOAD PUSH2 0xA94 SWAP1 PUSH2 0x375B JUMP JUMPDEST DUP1 ISZERO PUSH2 0xAE1 JUMPI DUP1 PUSH1 0x1F LT PUSH2 0xAB6 JUMPI PUSH2 0x100 DUP1 DUP4 SLOAD DIV MUL DUP4 MSTORE SWAP2 PUSH1 0x20 ADD SWAP2 PUSH2 0xAE1 JUMP JUMPDEST DUP3 ADD SWAP2 SWAP1 PUSH1 0x0 MSTORE PUSH1 0x20 PUSH1 0x0 KECCAK256 SWAP1 JUMPDEST DUP2 SLOAD DUP2 MSTORE SWAP1 PUSH1 0x1 ADD SWAP1 PUSH1 0x20 ADD DUP1 DUP4 GT PUSH2 0xAC4 JUMPI DUP3 SWAP1 SUB PUSH1 0x1F AND DUP3 ADD SWAP2 JUMPDEST POP POP POP POP POP PUSH2 0x285E JUMP JUMPDEST PUSH2 0xA31 PUSH2 0x2C06 JUMP JUMPDEST PUSH1 0x0 JUMPDEST PUSH1 0x3 SLOAD DUP2 LT ISZERO PUSH2 0xB69 JUMPI CALLER PUSH1 0x1 PUSH1 0x1 PUSH1 0xA0 SHL SUB AND PUSH1 0x3 DUP3 DUP2 SLOAD DUP2 LT PUSH2 0xB1D JUMPI PUSH2 0xB1D PUSH2 0x3665 JUMP JUMPDEST PUSH1 0x0 SWAP2 DUP3 MSTORE PUSH1 0x20 SWAP1 SWAP2 KECCAK256 PUSH1 0x1 PUSH1 0x3 SWAP1 SWAP3 MUL ADD ADD SLOAD PUSH1 0x1 PUSH1 0x1 PUSH1 0xA0 SHL SUB AND SUB PUSH2 0xB57 JUMPI PUSH1 0x40 MLOAD PUSH3 0x461BCD PUSH1 0xE5 SHL DUP2 MSTORE PUSH1 0x4 ADD PUSH2 0x23E SWAP1 PUSH2 0x3795 JUMP JUMPDEST DUP1 PUSH2 0xB61 DUP2 PUSH2 0x3691 JUMP JUMPDEST SWAP2 POP POP PUSH2 0xAF6 JUMP JUMPDEST POP PUSH1 0x0 JUMPDEST PUSH1 0x0 SLOAD DUP2 LT ISZERO PUSH2 0xBE0 JUMPI CALLER PUSH1 0x1 PUSH1 0x1 PUSH1 0xA0 SHL SUB AND PUSH1 0x0 DUP3 DUP2 SLOAD DUP2 LT PUSH2 0xB94 JUMPI PUSH2 0xB94 PUSH2 0x3665 JUMP JUMPDEST PUSH1 0x0 SWAP2 DUP3 MSTORE PUSH1 0x20 SWAP1 SWAP2 KECCAK256 PUSH1 0x1 PUSH1 0x3 SWAP1 SWAP3 MUL ADD ADD SLOAD PUSH1 0x1 PUSH1 0x1 PUSH1 0xA0 SHL SUB AND SUB PUSH2 0xBCE JUMPI PUSH1 0x40 MLOAD PUSH3 0x461BCD PUSH1 0xE5 SHL DUP2 MSTORE PUSH1 0x4 ADD PUSH2 0x23E SWAP1 PUSH2 0x3795 JUMP JUMPDEST DUP1 PUSH2 0xBD8 DUP2 PUSH2 0x3691 JUMP JUMPDEST SWAP2 POP POP PUSH2 0xB6D JUMP JUMPDEST POP CALLER PUSH1 0x1 PUSH1 0x1 PUSH1 0xA0 SHL SUB DUP3 AND SUB PUSH2 0xC43 JUMPI PUSH1 0x40 MLOAD PUSH3 0x461BCD PUSH1 0xE5 SHL DUP2 MSTORE PUSH1 0x20 PUSH1 0x4 DUP3 ADD MSTORE PUSH1 0x21 PUSH1 0x24 DUP3 ADD MSTORE PUSH32 0x4572726F722120596F752063616E607420696E7669746520796F757273656C66 PUSH1 0x44 DUP3 ADD MSTORE PUSH1 0x21 PUSH1 0xF8 SHL PUSH1 0x64 DUP3 ADD MSTORE PUSH1 0x84 ADD PUSH2 0x23E JUMP JUMPDEST PUSH1 0x0 PUSH2 0xC4E DUP3 PUSH2 0x2D84 JUMP JUMPDEST SWAP1 POP DUP1 ISZERO ISZERO PUSH1 0x1 SUB PUSH2 0xCB0 JUMPI PUSH1 0x40 MLOAD PUSH3 0x461BCD PUSH1 0xE5 SHL DUP2 MSTORE PUSH1 0x20 PUSH1 0x4 DUP3 ADD MSTORE PUSH1 0x25 PUSH1 0x24 DUP3 ADD MSTORE PUSH32 0x4572726F7221205468697320757365722068617320616C726561647920696E76 PUSH1 0x44 DUP3 ADD MSTORE PUSH5 0x6974656421 PUSH1 0xD8 SHL PUSH1 0x64 DUP3 ADD MSTORE PUSH1 0x84 ADD PUSH2 0x23E JUMP JUMPDEST PUSH2 0xCBC PUSH3 0xF4240 PUSH2 0x2DD7 JUMP JUMPDEST PUSH1 0x1 PUSH1 0x1 PUSH1 0xA0 SHL SUB DUP4 AND PUSH1 0x0 SWAP1 DUP2 MSTORE PUSH1 0x15 PUSH1 0x20 MSTORE PUSH1 0x40 SWAP1 KECCAK256 SSTORE PUSH2 0xCDE DUP3 PUSH2 0x2E31 JUMP JUMPDEST PUSH1 0x1 PUSH1 0x1 PUSH1 0xA0 SHL SUB DUP3 AND PUSH1 0x0 SWAP1 DUP2 MSTORE PUSH1 0x15 PUSH1 0x20 MSTORE PUSH1 0x40 SWAP1 KECCAK256 SLOAD PUSH2 0xA31 SWAP1 PUSH2 0x2E96 JUMP JUMPDEST PUSH1 0x9 SLOAD PUSH1 0x1 PUSH1 0x1 PUSH1 0xA0 SHL SUB AND CALLER EQ PUSH2 0xD51 JUMPI PUSH1 0x40 MLOAD PUSH3 0x461BCD PUSH1 0xE5 SHL DUP2 MSTORE PUSH1 0x20 PUSH1 0x4 DUP3 ADD MSTORE PUSH1 0x14 PUSH1 0x24 DUP3 ADD MSTORE PUSH20 0x596F75206172656E607420616E206F776E657221 PUSH1 0x60 SHL PUSH1 0x44 DUP3 ADD MSTORE PUSH1 0x64 ADD PUSH2 0x23E JUMP JUMPDEST PUSH1 0x0 JUMPDEST PUSH1 0x5 SLOAD DUP2 LT ISZERO PUSH2 0xEEE JUMPI PUSH2 0xD7F PUSH1 0x40 MLOAD DUP1 PUSH1 0x60 ADD PUSH1 0x40 MSTORE DUP1 PUSH1 0x2B DUP2 MSTORE PUSH1 0x20 ADD PUSH2 0x3AC1 PUSH1 0x2B SWAP2 CODECOPY PUSH2 0x281B JUMP JUMPDEST PUSH2 0xDAC PUSH1 0x5 DUP3 DUP2 SLOAD DUP2 LT PUSH2 0xD95 JUMPI PUSH2 0xD95 PUSH2 0x3665 JUMP JUMPDEST SWAP1 PUSH1 0x0 MSTORE PUSH1 0x20 PUSH1 0x0 KECCAK256 SWAP1 PUSH1 0x4 MUL ADD PUSH1 0x0 ADD SLOAD PUSH2 0x2E96 JUMP JUMPDEST PUSH2 0xDE4 PUSH1 0x5 DUP3 DUP2 SLOAD DUP2 LT PUSH2 0xDC2 JUMPI PUSH2 0xDC2 PUSH2 0x3665 JUMP JUMPDEST PUSH1 0x0 SWAP2 DUP3 MSTORE PUSH1 0x20 SWAP1 SWAP2 KECCAK256 PUSH1 0x1 PUSH1 0x4 SWAP1 SWAP3 MUL ADD ADD SLOAD PUSH1 0x1 PUSH1 0x1 PUSH1 0xA0 SHL SUB AND PUSH2 0x2EDB JUMP JUMPDEST PUSH2 0xE99 PUSH1 0x5 DUP3 DUP2 SLOAD DUP2 LT PUSH2 0xDFA JUMPI PUSH2 0xDFA PUSH2 0x3665 JUMP JUMPDEST SWAP1 PUSH1 0x0 MSTORE PUSH1 0x20 PUSH1 0x0 KECCAK256 SWAP1 PUSH1 0x4 MUL ADD PUSH1 0x2 ADD DUP1 SLOAD PUSH2 0xE16 SWAP1 PUSH2 0x375B JUMP JUMPDEST DUP1 PUSH1 0x1F ADD PUSH1 0x20 DUP1 SWAP2 DIV MUL PUSH1 0x20 ADD PUSH1 0x40 MLOAD SWAP1 DUP2 ADD PUSH1 0x40 MSTORE DUP1 SWAP3 SWAP2 SWAP1 DUP2 DUP2 MSTORE PUSH1 0x20 ADD DUP3 DUP1 SLOAD PUSH2 0xE42 SWAP1 PUSH2 0x375B JUMP JUMPDEST DUP1 ISZERO PUSH2 0xE8F JUMPI DUP1 PUSH1 0x1F LT PUSH2 0xE64 JUMPI PUSH2 0x100 DUP1 DUP4 SLOAD DIV MUL DUP4 MSTORE SWAP2 PUSH1 0x20 ADD SWAP2 PUSH2 0xE8F JUMP JUMPDEST DUP3 ADD SWAP2 SWAP1 PUSH1 0x0 MSTORE PUSH1 0x20 PUSH1 0x0 KECCAK256 SWAP1 JUMPDEST DUP2 SLOAD DUP2 MSTORE SWAP1 PUSH1 0x1 ADD SWAP1 PUSH1 0x20 ADD DUP1 DUP4 GT PUSH2 0xE72 JUMPI DUP3 SWAP1 SUB PUSH1 0x1F AND DUP3 ADD SWAP2 JUMPDEST POP POP POP POP POP PUSH2 0x281B JUMP JUMPDEST PUSH2 0xEDC PUSH1 0x5 DUP3 DUP2 SLOAD DUP2 LT PUSH2 0xEAF JUMPI PUSH2 0xEAF PUSH2 0x3665 JUMP JUMPDEST PUSH1 0x0 SWAP2 DUP3 MSTORE PUSH1 0x20 SWAP1 SWAP2 KECCAK256 PUSH1 0x3 PUSH1 0x4 SWAP1 SWAP3 MUL ADD DUP2 ADD SLOAD PUSH1 0xFF AND SWAP1 DUP2 GT ISZERO PUSH2 0xED7 JUMPI PUSH2 0xED7 PUSH2 0x3732 JUMP JUMPDEST PUSH2 0x2E96 JUMP JUMPDEST DUP1 PUSH2 0xEE6 DUP2 PUSH2 0x3691 JUMP JUMPDEST SWAP2 POP POP PUSH2 0xD54 JUMP JUMPDEST POP JUMP JUMPDEST PUSH1 0x0 DUP1 JUMPDEST PUSH1 0x0 SLOAD DUP2 LT ISZERO PUSH2 0xF55 JUMPI CALLER PUSH1 0x1 PUSH1 0x1 PUSH1 0xA0 SHL SUB AND PUSH1 0x0 DUP3 DUP2 SLOAD DUP2 LT PUSH2 0xF1C JUMPI PUSH2 0xF1C PUSH2 0x3665 JUMP JUMPDEST PUSH1 0x0 SWAP2 DUP3 MSTORE PUSH1 0x20 SWAP1 SWAP2 KECCAK256 PUSH1 0x1 PUSH1 0x3 SWAP1 SWAP3 MUL ADD ADD SLOAD PUSH1 0x1 PUSH1 0x1 PUSH1 0xA0 SHL SUB AND SUB PUSH2 0xF43 JUMPI PUSH1 0x1 SWAP2 POP JUMPDEST DUP1 PUSH2 0xF4D DUP2 PUSH2 0x3691 JUMP JUMPDEST SWAP2 POP POP PUSH2 0xEF5 JUMP JUMPDEST POP PUSH1 0x1 DUP2 ISZERO ISZERO EQ PUSH2 0xF78 JUMPI PUSH1 0x40 MLOAD PUSH3 0x461BCD PUSH1 0xE5 SHL DUP2 MSTORE PUSH1 0x4 ADD PUSH2 0x23E SWAP1 PUSH2 0x36AA JUMP JUMPDEST CALLER PUSH1 0x0 SWAP1 DUP2 MSTORE PUSH1 0x16 PUSH1 0x20 MSTORE PUSH1 0x40 SWAP1 KECCAK256 SLOAD PUSH2 0xFD4 JUMPI PUSH1 0x40 MLOAD PUSH3 0x461BCD PUSH1 0xE5 SHL DUP2 MSTORE PUSH1 0x20 PUSH1 0x4 DUP3 ADD MSTORE PUSH1 0x19 PUSH1 0x24 DUP3 ADD MSTORE PUSH32 0x596F7520646F6E6074206861766520616E792064656274732100000000000000 PUSH1 0x44 DUP3 ADD MSTORE PUSH1 0x64 ADD PUSH2 0x23E JUMP JUMPDEST PUSH1 0x6 SLOAD DUP3 LT PUSH2 0xFF5 JUMPI PUSH1 0x40 MLOAD PUSH3 0x461BCD PUSH1 0xE5 SHL DUP2 MSTORE PUSH1 0x4 ADD PUSH2 0x23E SWAP1 PUSH2 0x36D8 JUMP JUMPDEST PUSH2 0x1028 PUSH1 0x40 MLOAD DUP1 PUSH1 0x40 ADD PUSH1 0x40 MSTORE DUP1 PUSH1 0x12 DUP2 MSTORE PUSH1 0x20 ADD PUSH18 0x2CB7BAB9103232B13A1039BAB69032BA341D PUSH1 0x71 SHL DUP2 MSTORE POP PUSH2 0x281B JUMP JUMPDEST PUSH2 0xA31 PUSH8 0xDE0B6B3A7640000 PUSH1 0xE SLOAD PUSH2 0xED7 SWAP2 SWAP1 PUSH2 0x37DB JUMP JUMPDEST PUSH1 0x5 PUSH1 0x40 MLOAD DUP1 PUSH1 0x80 ADD PUSH1 0x40 MSTORE DUP1 PUSH1 0xC SLOAD DUP2 MSTORE PUSH1 0x20 ADD CALLER PUSH1 0x1 PUSH1 0x1 PUSH1 0xA0 SHL SUB AND DUP2 MSTORE PUSH1 0x20 ADD DUP4 DUP2 MSTORE PUSH1 0x20 ADD DUP5 PUSH1 0x3 DUP2 GT ISZERO PUSH2 0x107D JUMPI PUSH2 0x107D PUSH2 0x3732 JUMP JUMPDEST SWAP1 MSTORE DUP2 SLOAD PUSH1 0x1 DUP1 DUP3 ADD DUP5 SSTORE PUSH1 0x0 SWAP4 DUP5 MSTORE PUSH1 0x20 SWAP4 DUP5 SWAP1 KECCAK256 DUP4 MLOAD PUSH1 0x4 SWAP1 SWAP4 MUL ADD SWAP2 DUP3 SSTORE SWAP3 DUP3 ADD MLOAD SWAP3 DUP2 ADD DUP1 SLOAD PUSH1 0x1 PUSH1 0x1 PUSH1 0xA0 SHL SUB NOT AND PUSH1 0x1 PUSH1 0x1 PUSH1 0xA0 SHL SUB SWAP1 SWAP5 AND SWAP4 SWAP1 SWAP4 OR SWAP1 SWAP3 SSTORE PUSH1 0x40 DUP2 ADD MLOAD SWAP1 SWAP2 SWAP1 PUSH1 0x2 DUP3 ADD SWAP1 PUSH2 0x10DA SWAP1 DUP3 PUSH2 0x383D JUMP JUMPDEST POP PUSH1 0x60 DUP3 ADD MLOAD DUP2 PUSH1 0x3 ADD PUSH1 0x0 PUSH2 0x100 EXP DUP2 SLOAD DUP2 PUSH1 0xFF MUL NOT AND SWAP1 DUP4 PUSH1 0x3 DUP2 GT ISZERO PUSH2 0x1105 JUMPI PUSH2 0x1105 PUSH2 0x3732 JUMP JUMPDEST MUL OR SWAP1 SSTORE POP POP POP PUSH2 0x1137 PUSH1 0x40 MLOAD DUP1 PUSH1 0x40 ADD PUSH1 0x40 MSTORE DUP1 PUSH1 0xA DUP2 MSTORE PUSH1 0x20 ADD PUSH10 0x28BAB2B9393C9034B21D PUSH1 0xB1 SHL DUP2 MSTORE POP PUSH2 0x281B JUMP JUMPDEST PUSH2 0x1142 PUSH1 0xC SLOAD PUSH2 0x2E96 JUMP JUMPDEST PUSH1 0xC DUP1 SLOAD SWAP1 PUSH1 0x0 PUSH2 0x1152 DUP4 PUSH2 0x3691 JUMP JUMPDEST SWAP2 SWAP1 POP SSTORE POP POP POP JUMP JUMPDEST PUSH1 0x0 JUMPDEST PUSH1 0x3 SLOAD DUP2 LT ISZERO PUSH2 0x11D1 JUMPI CALLER PUSH1 0x1 PUSH1 0x1 PUSH1 0xA0 SHL SUB AND PUSH1 0x3 DUP3 DUP2 SLOAD DUP2 LT PUSH2 0x1185 JUMPI PUSH2 0x1185 PUSH2 0x3665 JUMP JUMPDEST PUSH1 0x0 SWAP2 DUP3 MSTORE PUSH1 0x20 SWAP1 SWAP2 KECCAK256 PUSH1 0x1 PUSH1 0x3 SWAP1 SWAP3 MUL ADD ADD SLOAD PUSH1 0x1 PUSH1 0x1 PUSH1 0xA0 SHL SUB AND SUB PUSH2 0x11BF JUMPI PUSH1 0x40 MLOAD PUSH3 0x461BCD PUSH1 0xE5 SHL DUP2 MSTORE PUSH1 0x4 ADD PUSH2 0x23E SWAP1 PUSH2 0x3795 JUMP JUMPDEST DUP1 PUSH2 0x11C9 DUP2 PUSH2 0x3691 JUMP JUMPDEST SWAP2 POP POP PUSH2 0x115E JUMP JUMPDEST POP PUSH1 0x0 JUMPDEST PUSH1 0x0 SLOAD DUP2 LT ISZERO PUSH2 0x1248 JUMPI CALLER PUSH1 0x1 PUSH1 0x1 PUSH1 0xA0 SHL SUB AND PUSH1 0x0 DUP3 DUP2 SLOAD DUP2 LT PUSH2 0x11FC JUMPI PUSH2 0x11FC PUSH2 0x3665 JUMP JUMPDEST PUSH1 0x0 SWAP2 DUP3 MSTORE PUSH1 0x20 SWAP1 SWAP2 KECCAK256 PUSH1 0x1 PUSH1 0x3 SWAP1 SWAP3 MUL ADD ADD SLOAD PUSH1 0x1 PUSH1 0x1 PUSH1 0xA0 SHL SUB AND SUB PUSH2 0x1236 JUMPI PUSH1 0x40 MLOAD PUSH3 0x461BCD PUSH1 0xE5 SHL DUP2 MSTORE PUSH1 0x4 ADD PUSH2 0x23E SWAP1 PUSH2 0x3795 JUMP JUMPDEST DUP1 PUSH2 0x1240 DUP2 PUSH2 0x3691 JUMP JUMPDEST SWAP2 POP POP PUSH2 0x11D5 JUMP JUMPDEST POP PUSH1 0x0 DUP4 PUSH1 0x1 DUP7 DUP2 SLOAD DUP2 LT PUSH2 0x125F JUMPI PUSH2 0x125F PUSH2 0x3665 JUMP JUMPDEST SWAP1 PUSH1 0x0 MSTORE PUSH1 0x20 PUSH1 0x0 KECCAK256 SWAP1 PUSH1 0x4 MUL ADD PUSH1 0x3 ADD SLOAD PUSH2 0x127B SWAP2 SWAP1 PUSH2 0x3748 JUMP JUMPDEST LT ISZERO PUSH2 0x12E4 JUMPI PUSH1 0x40 MLOAD PUSH3 0x461BCD PUSH1 0xE5 SHL DUP2 MSTORE PUSH1 0x20 PUSH1 0x4 DUP3 ADD MSTORE PUSH1 0x32 PUSH1 0x24 DUP3 ADD MSTORE PUSH32 0x536F7272792120576520646F6E6074206861766520656E6F75676820636F756E PUSH1 0x44 DUP3 ADD MSTORE PUSH18 0x74206F6620746869732070726F6475637421 PUSH1 0x70 SHL PUSH1 0x64 DUP3 ADD MSTORE PUSH1 0x84 ADD PUSH2 0x23E JUMP JUMPDEST DUP3 PUSH1 0x1 DUP6 DUP2 SLOAD DUP2 LT PUSH2 0x12F8 JUMPI PUSH2 0x12F8 PUSH2 0x3665 JUMP JUMPDEST SWAP1 PUSH1 0x0 MSTORE PUSH1 0x20 PUSH1 0x0 KECCAK256 SWAP1 PUSH1 0x4 MUL ADD PUSH1 0x3 ADD PUSH1 0x0 DUP3 DUP3 SLOAD PUSH2 0x1318 SWAP2 SWAP1 PUSH2 0x3748 JUMP JUMPDEST SWAP1 SWAP2 SSTORE POP POP CALLER PUSH1 0x0 SWAP1 DUP2 MSTORE PUSH1 0x12 PUSH1 0x20 MSTORE PUSH1 0x40 DUP2 KECCAK256 SLOAD SWAP1 DUP2 SWAP1 SUB PUSH2 0x141F JUMPI PUSH1 0x40 DUP1 MLOAD PUSH1 0x60 DUP2 ADD DUP3 MSTORE CALLER DUP2 MSTORE PUSH1 0x20 DUP2 ADD DUP5 DUP2 MSTORE PUSH1 0x0 SWAP3 DUP3 ADD DUP4 SWAP1 MSTORE PUSH1 0x7 DUP1 SLOAD PUSH1 0x1 DUP2 ADD DUP3 SSTORE SWAP4 MSTORE DUP2 MLOAD PUSH32 0xA66CC928B5EDB82AF9BD49922954155AB7B0942694BEA4CE44661D9A8736C688 PUSH1 0x3 SWAP1 SWAP5 MUL SWAP4 DUP5 ADD DUP1 SLOAD PUSH1 0x1 PUSH1 0x1 PUSH1 0xA0 SHL SUB NOT AND PUSH1 0x1 PUSH1 0x1 PUSH1 0xA0 SHL SUB SWAP1 SWAP3 AND SWAP2 SWAP1 SWAP2 OR DUP2 SSTORE SWAP1 MLOAD SWAP2 SWAP3 SWAP1 SWAP2 PUSH32 0xA66CC928B5EDB82AF9BD49922954155AB7B0942694BEA4CE44661D9A8736C689 SWAP1 SWAP2 ADD SWAP1 PUSH2 0x13DA SWAP1 DUP3 PUSH2 0x383D JUMP JUMPDEST POP PUSH1 0x40 SWAP2 SWAP1 SWAP2 ADD MLOAD PUSH1 0x2 SWAP1 SWAP2 ADD DUP1 SLOAD PUSH1 0xFF NOT AND SWAP2 ISZERO ISZERO SWAP2 SWAP1 SWAP2 OR SWAP1 SSTORE PUSH1 0xD DUP1 SLOAD SWAP1 PUSH1 0x0 PUSH2 0x1406 DUP4 PUSH2 0x3691 JUMP JUMPDEST SWAP1 SWAP2 SSTORE POP POP PUSH1 0xD SLOAD CALLER PUSH1 0x0 SWAP1 DUP2 MSTORE PUSH1 0x12 PUSH1 0x20 MSTORE PUSH1 0x40 SWAP1 KECCAK256 SSTORE JUMPDEST PUSH2 0x1428 DUP6 PUSH2 0x2F23 JUMP JUMPDEST PUSH1 0xB SWAP1 PUSH2 0x1435 SWAP1 DUP3 PUSH2 0x383D JUMP JUMPDEST POP PUSH1 0x6 PUSH1 0x40 MLOAD DUP1 PUSH2 0x100 ADD PUSH1 0x40 MSTORE DUP1 PUSH1 0xB DUP1 SLOAD PUSH2 0x1451 SWAP1 PUSH2 0x375B JUMP JUMPDEST DUP1 PUSH1 0x1F ADD PUSH1 0x20 DUP1 SWAP2 DIV MUL PUSH1 0x20 ADD PUSH1 0x40 MLOAD SWAP1 DUP2 ADD PUSH1 0x40 MSTORE DUP1 SWAP3 SWAP2 SWAP1 DUP2 DUP2 MSTORE PUSH1 0x20 ADD DUP3 DUP1 SLOAD PUSH2 0x147D SWAP1 PUSH2 0x375B JUMP JUMPDEST DUP1 ISZERO PUSH2 0x14CA JUMPI DUP1 PUSH1 0x1F LT PUSH2 0x149F JUMPI PUSH2 0x100 DUP1 DUP4 SLOAD DIV MUL DUP4 MSTORE SWAP2 PUSH1 0x20 ADD SWAP2 PUSH2 0x14CA JUMP JUMPDEST DUP3 ADD SWAP2 SWAP1 PUSH1 0x0 MSTORE PUSH1 0x20 PUSH1 0x0 KECCAK256 SWAP1 JUMPDEST DUP2 SLOAD DUP2 MSTORE SWAP1 PUSH1 0x1 ADD SWAP1 PUSH1 0x20 ADD DUP1 DUP4 GT PUSH2 0x14AD JUMPI DUP3 SWAP1 SUB PUSH1 0x1F AND DUP3 ADD SWAP2 JUMPDEST POP POP POP POP POP DUP2 MSTORE PUSH1 0x20 ADD PUSH1 0x1 PUSH1 0x7 DUP1 SLOAD SWAP1 POP PUSH2 0x14E6 SWAP2 SWAP1 PUSH2 0x3748 JUMP JUMPDEST DUP2 MSTORE PUSH1 0x20 ADD DUP8 DUP2 MSTORE PUSH1 0x20 ADD DUP6 DUP2 MSTORE PUSH1 0x20 ADD DUP7 DUP2 MSTORE PUSH1 0x20 ADD PUSH2 0x1507 PUSH1 0xA PUSH2 0x2DD7 JUMP JUMPDEST DUP2 MSTORE PUSH1 0x20 ADD PUSH1 0x0 DUP2 MSTORE PUSH1 0x0 PUSH1 0x20 SWAP2 DUP3 ADD DUP2 SWAP1 MSTORE DUP4 SLOAD PUSH1 0x1 DUP2 ADD DUP6 SSTORE SWAP4 DUP2 MSTORE KECCAK256 DUP2 MLOAD SWAP2 SWAP3 PUSH1 0x8 MUL ADD SWAP1 DUP2 SWAP1 PUSH2 0x153B SWAP1 DUP3 PUSH2 0x383D JUMP JUMPDEST POP PUSH1 0x20 DUP3 ADD MLOAD DUP2 PUSH1 0x1 ADD SSTORE PUSH1 0x40 DUP3 ADD MLOAD DUP2 PUSH1 0x2 ADD SSTORE PUSH1 0x60 DUP3 ADD MLOAD DUP2 PUSH1 0x3 ADD SSTORE PUSH1 0x80 DUP3 ADD MLOAD DUP2 PUSH1 0x4 ADD SSTORE PUSH1 0xA0 DUP3 ADD MLOAD DUP2 PUSH1 0x5 ADD SSTORE PUSH1 0xC0 DUP3 ADD MLOAD DUP2 PUSH1 0x6 ADD PUSH1 0x0 PUSH2 0x100 EXP DUP2 SLOAD DUP2 PUSH1 0xFF MUL NOT AND SWAP1 DUP4 PUSH1 0x5 DUP2 GT ISZERO PUSH2 0x1598 JUMPI PUSH2 0x1598 PUSH2 0x3732 JUMP JUMPDEST MUL OR SWAP1 SSTORE POP PUSH1 0xE0 DUP3 ADD MLOAD DUP2 PUSH1 0x7 ADD SSTORE POP POP PUSH1 0xB PUSH1 0x6 PUSH1 0x1 PUSH1 0x6 DUP1 SLOAD SWAP1 POP PUSH2 0x15BF SWAP2 SWAP1 PUSH2 0x3748 JUMP JUMPDEST DUP2 SLOAD DUP2 LT PUSH2 0x15CF JUMPI PUSH2 0x15CF PUSH2 0x3665 JUMP JUMPDEST SWAP1 PUSH1 0x0 MSTORE PUSH1 0x20 PUSH1 0x0 KECCAK256 SWAP1 PUSH1 0x8 MUL ADD PUSH1 0x0 ADD SWAP1 DUP2 PUSH2 0x15EC SWAP2 SWAP1 PUSH2 0x38FD JUMP JUMPDEST POP PUSH1 0x6 DUP1 SLOAD PUSH2 0x15FD SWAP1 PUSH1 0x1 SWAP1 PUSH2 0x3748 JUMP JUMPDEST DUP2 SLOAD DUP2 LT PUSH2 0x160D JUMPI PUSH2 0x160D PUSH2 0x3665 JUMP JUMPDEST SWAP1 PUSH1 0x0 MSTORE PUSH1 0x20 PUSH1 0x0 KECCAK256 SWAP1 PUSH1 0x8 MUL ADD PUSH1 0x4 ADD SLOAD PUSH1 0x1 PUSH1 0x6 PUSH1 0x1 PUSH1 0x6 DUP1 SLOAD SWAP1 POP PUSH2 0x1635 SWAP2 SWAP1 PUSH2 0x3748 JUMP JUMPDEST DUP2 SLOAD DUP2 LT PUSH2 0x1645 JUMPI PUSH2 0x1645 PUSH2 0x3665 JUMP JUMPDEST SWAP1 PUSH1 0x0 MSTORE PUSH1 0x20 PUSH1 0x0 KECCAK256 SWAP1 PUSH1 0x8 MUL ADD PUSH1 0x3 ADD SLOAD DUP2 SLOAD DUP2 LT PUSH2 0x1667 JUMPI PUSH2 0x1667 PUSH2 0x3665 JUMP JUMPDEST SWAP1 PUSH1 0x0 MSTORE PUSH1 0x20 PUSH1 0x0 KECCAK256 SWAP1 PUSH1 0x4 MUL ADD PUSH1 0x2 ADD SLOAD PUSH2 0x1683 SWAP2 SWAP1 PUSH2 0x371B JUMP JUMPDEST PUSH1 0x6 SLOAD PUSH1 0x17 SWAP1 PUSH1 0x0 SWAP1 PUSH2 0x1698 SWAP1 PUSH1 0x1 SWAP1 PUSH2 0x3748 JUMP JUMPDEST DUP2 MSTORE PUSH1 0x20 ADD SWAP1 DUP2 MSTORE PUSH1 0x20 ADD PUSH1 0x0 KECCAK256 DUP2 SWAP1 SSTORE POP PUSH2 0x16CB PUSH1 0x40 MLOAD DUP1 PUSH1 0x60 ADD PUSH1 0x40 MSTORE DUP1 PUSH1 0x25 DUP2 MSTORE PUSH1 0x20 ADD PUSH2 0x3AEC PUSH1 0x25 SWAP2 CODECOPY PUSH2 0x281B JUMP JUMPDEST PUSH1 0x6 DUP1 SLOAD PUSH2 0x1707 SWAP2 SWAP1 PUSH2 0x16E0 SWAP1 PUSH1 0x1 SWAP1 PUSH2 0x3748 JUMP JUMPDEST DUP2 SLOAD DUP2 LT PUSH2 0x16F0 JUMPI PUSH2 0x16F0 PUSH2 0x3665 JUMP JUMPDEST SWAP1 PUSH1 0x0 MSTORE PUSH1 0x20 PUSH1 0x0 KECCAK256 SWAP1 PUSH1 0x8 MUL ADD PUSH1 0x5 ADD SLOAD PUSH2 0x2E96 JUMP JUMPDEST PUSH2 0x1735 PUSH1 0x40 MLOAD DUP1 PUSH1 0x40 ADD PUSH1 0x40 MSTORE DUP1 PUSH1 0xD DUP2 MSTORE PUSH1 0x20 ADD PUSH13 0x27B93232B910373AB6B132B91D PUSH1 0x99 SHL DUP2 MSTORE POP PUSH2 0x281B JUMP JUMPDEST PUSH1 0x6 SLOAD PUSH2 0x1748 SWAP1 PUSH2 0xED7 SWAP1 PUSH1 0x1 SWAP1 PUSH2 0x3748 JUMP JUMPDEST PUSH2 0x1779 PUSH1 0x40 MLOAD DUP1 PUSH1 0x40 ADD PUSH1 0x40 MSTORE DUP1 PUSH1 0x10 DUP2 MSTORE PUSH1 0x20 ADD PUSH16 0x2CB7BAB9103A3930B1B59031B7B2329D PUSH1 0x81 SHL DUP2 MSTORE POP PUSH2 0x281B JUMP JUMPDEST PUSH2 0x1789 PUSH1 0xB DUP1 SLOAD PUSH2 0xE16 SWAP1 PUSH2 0x375B JUMP JUMPDEST PUSH2 0x17AA PUSH1 0x40 MLOAD DUP1 PUSH1 0x60 ADD PUSH1 0x40 MSTORE DUP1 PUSH1 0x38 DUP2 MSTORE PUSH1 0x20 ADD PUSH2 0x3B11 PUSH1 0x38 SWAP2 CODECOPY PUSH2 0x281B JUMP JUMPDEST PUSH2 0x17B4 PUSH1 0x5 PUSH2 0x2E96 JUMP JUMPDEST PUSH2 0x17D5 PUSH1 0x40 MLOAD DUP1 PUSH1 0x60 ADD PUSH1 0x40 MSTORE DUP1 PUSH1 0x32 DUP2 MSTORE PUSH1 0x20 ADD PUSH2 0x3A8F PUSH1 0x32 SWAP2 CODECOPY PUSH2 0x281B JUMP JUMPDEST PUSH2 0x181C PUSH8 0x16345785D8A0000 PUSH1 0x5 PUSH1 0x17 PUSH1 0x0 PUSH1 0x1 PUSH1 0x6 DUP1 SLOAD SWAP1 POP PUSH2 0x17F9 SWAP2 SWAP1 PUSH2 0x3748 JUMP JUMPDEST DUP2 MSTORE PUSH1 0x20 ADD SWAP1 DUP2 MSTORE PUSH1 0x20 ADD PUSH1 0x0 KECCAK256 SLOAD PUSH2 0x1812 SWAP2 SWAP1 PUSH2 0x37DB JUMP JUMPDEST PUSH2 0xED7 SWAP2 SWAP1 PUSH2 0x37DB JUMP JUMPDEST POP POP POP POP POP JUMP JUMPDEST PUSH1 0x0 DUP1 JUMPDEST PUSH1 0x0 SLOAD DUP2 LT ISZERO PUSH2 0x1887 JUMPI CALLER PUSH1 0x1 PUSH1 0x1 PUSH1 0xA0 SHL SUB AND PUSH1 0x0 DUP3 DUP2 SLOAD DUP2 LT PUSH2 0x184E JUMPI PUSH2 0x184E PUSH2 0x3665 JUMP JUMPDEST PUSH1 0x0 SWAP2 DUP3 MSTORE PUSH1 0x20 SWAP1 SWAP2 KECCAK256 PUSH1 0x1 PUSH1 0x3 SWAP1 SWAP3 MUL ADD ADD SLOAD PUSH1 0x1 PUSH1 0x1 PUSH1 0xA0 SHL SUB AND SUB PUSH2 0x1875 JUMPI PUSH1 0x1 SWAP2 POP JUMPDEST DUP1 PUSH2 0x187F DUP2 PUSH2 0x3691 JUMP JUMPDEST SWAP2 POP POP PUSH2 0x1827 JUMP JUMPDEST POP PUSH1 0x1 DUP2 ISZERO ISZERO EQ PUSH2 0x18AA JUMPI PUSH1 0x40 MLOAD PUSH3 0x461BCD PUSH1 0xE5 SHL DUP2 MSTORE PUSH1 0x4 ADD PUSH2 0x23E SWAP1 PUSH2 0x36AA JUMP JUMPDEST PUSH1 0x0 DUP4 PUSH1 0x4 DUP5 DUP2 SLOAD DUP2 LT PUSH2 0x18C0 JUMPI PUSH2 0x18C0 PUSH2 0x3665 JUMP JUMPDEST SWAP1 PUSH1 0x0 MSTORE PUSH1 0x20 PUSH1 0x0 KECCAK256 SWAP1 PUSH1 0x3 MUL ADD PUSH1 0x2 ADD SLOAD PUSH2 0x18DC SWAP2 SWAP1 PUSH2 0x3748 JUMP JUMPDEST LT ISZERO PUSH2 0x1936 JUMPI PUSH1 0x40 MLOAD PUSH3 0x461BCD PUSH1 0xE5 SHL DUP2 MSTORE PUSH1 0x20 PUSH1 0x4 DUP3 ADD MSTORE PUSH1 0x24 DUP1 DUP3 ADD MSTORE PUSH32 0x536F7272792C20776520646F6E6074206861766520656E6F7567682070726F64 PUSH1 0x44 DUP3 ADD MSTORE PUSH4 0x75637473 PUSH1 0xE0 SHL PUSH1 0x64 DUP3 ADD MSTORE PUSH1 0x84 ADD PUSH2 0x23E JUMP JUMPDEST CALLVALUE DUP4 PUSH1 0x4 DUP7 DUP2 SLOAD DUP2 LT PUSH2 0x194B JUMPI PUSH2 0x194B PUSH2 0x3665 JUMP JUMPDEST SWAP1 PUSH1 0x0 MSTORE PUSH1 0x20 PUSH1 0x0 KECCAK256 SWAP1 PUSH1 0x3 MUL ADD PUSH1 0x1 ADD SLOAD PUSH2 0x1967 SWAP2 SWAP1 PUSH2 0x371B JUMP JUMPDEST GT ISZERO PUSH2 0x19B1 JUMPI PUSH1 0x40 MLOAD PUSH3 0x461BCD PUSH1 0xE5 SHL DUP2 MSTORE PUSH1 0x20 PUSH1 0x4 DUP3 ADD MSTORE PUSH1 0x19 PUSH1 0x24 DUP3 ADD MSTORE PUSH25 0xB2DEEA40C8DEDCC0E840D0C2ECCA40CADCDEEACED0408AE8D PUSH1 0x3B SHL PUSH1 0x44 DUP3 ADD MSTORE PUSH1 0x64 ADD PUSH2 0x23E JUMP JUMPDEST PUSH1 0x3 DUP3 DUP2 SLOAD DUP2 LT PUSH2 0x19C4 JUMPI PUSH2 0x19C4 PUSH2 0x3665 JUMP JUMPDEST SWAP1 PUSH1 0x0 MSTORE PUSH1 0x20 PUSH1 0x0 KECCAK256 SWAP1 PUSH1 0x3 MUL ADD PUSH1 0x1 ADD PUSH1 0x0 SWAP1 SLOAD SWAP1 PUSH2 0x100 EXP SWAP1 DIV PUSH1 0x1 PUSH1 0x1 PUSH1 0xA0 SHL SUB AND PUSH1 0x1 PUSH1 0x1 PUSH1 0xA0 SHL SUB AND PUSH2 0x8FC DUP5 PUSH1 0x4 DUP8 DUP2 SLOAD DUP2 LT PUSH2 0x1A09 JUMPI PUSH2 0x1A09 PUSH2 0x3665 JUMP JUMPDEST SWAP1 PUSH1 0x0 MSTORE PUSH1 0x20 PUSH1 0x0 KECCAK256 SWAP1 PUSH1 0x3 MUL ADD PUSH1 0x1 ADD SLOAD PUSH2 0x1A25 SWAP2 SWAP1 PUSH2 0x371B JUMP JUMPDEST PUSH1 0x40 MLOAD DUP2 ISZERO SWAP1 SWAP3 MUL SWAP2 PUSH1 0x0 DUP2 DUP2 DUP2 DUP6 DUP9 DUP9 CALL SWAP4 POP POP POP POP ISZERO DUP1 ISZERO PUSH2 0x1A4D JUMPI RETURNDATASIZE PUSH1 0x0 DUP1 RETURNDATACOPY RETURNDATASIZE PUSH1 0x0 REVERT JUMPDEST POP CALLER PUSH1 0x0 SWAP1 DUP2 MSTORE PUSH1 0x13 PUSH1 0x20 MSTORE PUSH1 0x40 SWAP1 KECCAK256 SLOAD PUSH1 0x4 DUP1 SLOAD DUP6 SWAP2 SWAP1 DUP6 SWAP1 DUP2 LT PUSH2 0x1A75 JUMPI PUSH2 0x1A75 PUSH2 0x3665 JUMP JUMPDEST SWAP1 PUSH1 0x0 MSTORE PUSH1 0x20 PUSH1 0x0 KECCAK256 SWAP1 PUSH1 0x3 MUL ADD PUSH1 0x2 ADD PUSH1 0x0 DUP3 DUP3 SLOAD PUSH2 0x1A95 SWAP2 SWAP1 PUSH2 0x3748 JUMP JUMPDEST SWAP3 POP POP DUP2 SWAP1 SSTORE POP DUP4 PUSH1 0x1 DUP3 DUP2 SLOAD DUP2 LT PUSH2 0x1AB0 JUMPI PUSH2 0x1AB0 PUSH2 0x3665 JUMP JUMPDEST SWAP1 PUSH1 0x0 MSTORE PUSH1 0x20 PUSH1 0x0 KECCAK256 SWAP1 PUSH1 0x4 MUL ADD PUSH1 0x3 ADD PUSH1 0x0 DUP3 DUP3 SLOAD PUSH2 0x1AD0 SWAP2 SWAP1 PUSH2 0x39D0 JUMP JUMPDEST SWAP1 SWAP2 SSTORE POP POP POP POP POP POP POP JUMP JUMPDEST PUSH1 0x0 JUMPDEST PUSH1 0x3 SLOAD DUP2 LT ISZERO PUSH2 0x1B52 JUMPI CALLER PUSH1 0x1 PUSH1 0x1 PUSH1 0xA0 SHL SUB AND PUSH1 0x3 DUP3 DUP2 SLOAD DUP2 LT PUSH2 0x1B06 JUMPI PUSH2 0x1B06 PUSH2 0x3665 JUMP JUMPDEST PUSH1 0x0 SWAP2 DUP3 MSTORE PUSH1 0x20 SWAP1 SWAP2 KECCAK256 PUSH1 0x1 PUSH1 0x3 SWAP1 SWAP3 MUL ADD ADD SLOAD PUSH1 0x1 PUSH1 0x1 PUSH1 0xA0 SHL SUB AND SUB PUSH2 0x1B40 JUMPI PUSH1 0x40 MLOAD PUSH3 0x461BCD PUSH1 0xE5 SHL DUP2 MSTORE PUSH1 0x4 ADD PUSH2 0x23E SWAP1 PUSH2 0x3795 JUMP JUMPDEST DUP1 PUSH2 0x1B4A DUP2 PUSH2 0x3691 JUMP JUMPDEST SWAP2 POP POP PUSH2 0x1ADF JUMP JUMPDEST POP PUSH1 0x0 JUMPDEST PUSH1 0x0 SLOAD DUP2 LT ISZERO PUSH2 0x1BC9 JUMPI CALLER PUSH1 0x1 PUSH1 0x1 PUSH1 0xA0 SHL SUB AND PUSH1 0x0 DUP3 DUP2 SLOAD DUP2 LT PUSH2 0x1B7D JUMPI PUSH2 0x1B7D PUSH2 0x3665 JUMP JUMPDEST PUSH1 0x0 SWAP2 DUP3 MSTORE PUSH1 0x20 SWAP1 SWAP2 KECCAK256 PUSH1 0x1 PUSH1 0x3 SWAP1 SWAP3 MUL ADD ADD SLOAD PUSH1 0x1 PUSH1 0x1 PUSH1 0xA0 SHL SUB AND SUB PUSH2 0x1BB7 JUMPI PUSH1 0x40 MLOAD PUSH3 0x461BCD PUSH1 0xE5 SHL DUP2 MSTORE PUSH1 0x4 ADD PUSH2 0x23E SWAP1 PUSH2 0x3795 JUMP JUMPDEST DUP1 PUSH2 0x1BC1 DUP2 PUSH2 0x3691 JUMP JUMPDEST SWAP2 POP POP PUSH2 0x1B56 JUMP JUMPDEST POP CALLER PUSH1 0x1 PUSH1 0x1 PUSH1 0xA0 SHL SUB AND PUSH1 0x7 PUSH1 0x6 DUP6 DUP2 SLOAD DUP2 LT PUSH2 0x1BE9 JUMPI PUSH2 0x1BE9 PUSH2 0x3665 JUMP JUMPDEST SWAP1 PUSH1 0x0 MSTORE PUSH1 0x20 PUSH1 0x0 KECCAK256 SWAP1 PUSH1 0x8 MUL ADD PUSH1 0x1 ADD SLOAD DUP2 SLOAD DUP2 LT PUSH2 0x1C0B JUMPI PUSH2 0x1C0B PUSH2 0x3665 JUMP JUMPDEST PUSH1 0x0 SWAP2 DUP3 MSTORE PUSH1 0x20 SWAP1 SWAP2 KECCAK256 PUSH1 0x3 SWAP1 SWAP2 MUL ADD SLOAD PUSH1 0x1 PUSH1 0x1 PUSH1 0xA0 SHL SUB AND EQ PUSH2 0x1C7D JUMPI PUSH1 0x40 MLOAD PUSH3 0x461BCD PUSH1 0xE5 SHL DUP2 MSTORE PUSH1 0x20 PUSH1 0x4 DUP3 ADD MSTORE PUSH1 0x22 PUSH1 0x24 DUP3 ADD MSTORE PUSH32 0x596F7520656E74657220612077726F6E67206E756D626572206F66206F726465 PUSH1 0x44 DUP3 ADD MSTORE PUSH2 0x7221 PUSH1 0xF0 SHL PUSH1 0x64 DUP3 ADD MSTORE PUSH1 0x84 ADD PUSH2 0x23E JUMP JUMPDEST PUSH1 0x1 PUSH1 0x6 DUP5 DUP2 SLOAD DUP2 LT PUSH2 0x1C92 JUMPI PUSH2 0x1C92 PUSH2 0x3665 JUMP JUMPDEST PUSH1 0x0 SWAP2 DUP3 MSTORE PUSH1 0x20 SWAP1 SWAP2 KECCAK256 PUSH1 0x6 PUSH1 0x8 SWAP1 SWAP3 MUL ADD ADD SLOAD PUSH1 0xFF AND PUSH1 0x5 DUP2 GT ISZERO PUSH2 0x1CBA JUMPI PUSH2 0x1CBA PUSH2 0x3732 JUMP JUMPDEST EQ PUSH2 0x1D2D JUMPI PUSH1 0x40 MLOAD PUSH3 0x461BCD PUSH1 0xE5 SHL DUP2 MSTORE PUSH1 0x20 PUSH1 0x4 DUP3 ADD MSTORE PUSH1 0x39 PUSH1 0x24 DUP3 ADD MSTORE PUSH32 0x54686973207075727368617265206D75737420676F7420636F6E6669726D2066 PUSH1 0x44 DUP3 ADD MSTORE PUSH32 0x726F6D2073686F70206F722046696E6973686564207965742100000000000000 PUSH1 0x64 DUP3 ADD MSTORE PUSH1 0x84 ADD PUSH2 0x23E JUMP JUMPDEST PUSH1 0x6 DUP4 DUP2 SLOAD DUP2 LT PUSH2 0x1D40 JUMPI PUSH2 0x1D40 PUSH2 0x3665 JUMP JUMPDEST SWAP1 PUSH1 0x0 MSTORE PUSH1 0x20 PUSH1 0x0 KECCAK256 SWAP1 PUSH1 0x8 MUL ADD PUSH1 0x7 ADD SLOAD TIMESTAMP LT ISZERO PUSH2 0x1DA1 JUMPI PUSH1 0x40 MLOAD PUSH3 0x461BCD PUSH1 0xE5 SHL DUP2 MSTORE PUSH1 0x20 PUSH1 0x4 DUP3 ADD MSTORE PUSH1 0x1F PUSH1 0x24 DUP3 ADD MSTORE PUSH32 0x596F7572206F726465722069736E60742064656C697665726564207965742100 PUSH1 0x44 DUP3 ADD MSTORE PUSH1 0x64 ADD PUSH2 0x23E JUMP JUMPDEST DUP2 ISZERO ISZERO PUSH1 0x1 SUB PUSH2 0x2009 JUMPI PUSH1 0x0 PUSH1 0x6 DUP5 DUP2 SLOAD DUP2 LT PUSH2 0x1DC0 JUMPI PUSH2 0x1DC0 PUSH2 0x3665 JUMP JUMPDEST SWAP1 PUSH1 0x0 MSTORE PUSH1 0x20 PUSH1 0x0 KECCAK256 SWAP1 PUSH1 0x8 MUL ADD PUSH1 0x4 ADD SLOAD PUSH1 0x1 PUSH1 0x6 DUP7 DUP2 SLOAD DUP2 LT PUSH2 0x1DE7 JUMPI PUSH2 0x1DE7 PUSH2 0x3665 JUMP JUMPDEST SWAP1 PUSH1 0x0 MSTORE PUSH1 0x20 PUSH1 0x0 KECCAK256 SWAP1 PUSH1 0x8 MUL ADD PUSH1 0x3 ADD SLOAD DUP2 SLOAD DUP2 LT PUSH2 0x1E09 JUMPI PUSH2 0x1E09 PUSH2 0x3665 JUMP JUMPDEST SWAP1 PUSH1 0x0 MSTORE PUSH1 0x20 PUSH1 0x0 KECCAK256 SWAP1 PUSH1 0x4 MUL ADD PUSH1 0x2 ADD SLOAD PUSH2 0x1E25 SWAP2 SWAP1 PUSH2 0x371B JUMP JUMPDEST SWAP1 POP DUP2 ISZERO PUSH2 0x1F28 JUMPI PUSH1 0x0 PUSH2 0x1E38 DUP4 PUSH2 0x30B2 JUMP JUMPDEST SWAP1 POP DUP1 ISZERO PUSH2 0x1E88 JUMPI PUSH1 0x40 MLOAD PUSH3 0x461BCD PUSH1 0xE5 SHL DUP2 MSTORE PUSH1 0x20 PUSH1 0x4 DUP3 ADD MSTORE PUSH1 0x18 PUSH1 0x24 DUP3 ADD MSTORE PUSH32 0x5468697320636F646520686173206265656E2075736564210000000000000000 PUSH1 0x44 DUP3 ADD MSTORE PUSH1 0x64 ADD PUSH2 0x23E JUMP JUMPDEST CALLER PUSH1 0x0 SWAP1 DUP2 MSTORE PUSH1 0x15 PUSH1 0x20 MSTORE PUSH1 0x40 DUP2 KECCAK256 SLOAD SWAP1 SUB PUSH2 0x1EE6 JUMPI PUSH1 0x40 MLOAD PUSH3 0x461BCD PUSH1 0xE5 SHL DUP2 MSTORE PUSH1 0x20 PUSH1 0x4 DUP3 ADD MSTORE PUSH1 0x18 PUSH1 0x24 DUP3 ADD MSTORE PUSH32 0x5468697320636F64652069736E607420666F7220796F75210000000000000000 PUSH1 0x44 DUP3 ADD MSTORE PUSH1 0x64 ADD PUSH2 0x23E JUMP JUMPDEST PUSH2 0x1EEF DUP3 PUSH2 0x30FF JUMP JUMPDEST PUSH1 0x8 DUP1 SLOAD PUSH1 0x1 DUP2 ADD DUP3 SSTORE PUSH1 0x0 SWAP2 SWAP1 SWAP2 MSTORE PUSH32 0xF3F7A9FE364FAAB93B216DA50A3214154F22A0A2B415B23A84C8169E8B636EE3 ADD DUP5 SWAP1 SSTORE SWAP2 POP POP JUMPDEST CALLVALUE DUP2 GT ISZERO PUSH2 0x1F74 JUMPI PUSH1 0x40 MLOAD PUSH3 0x461BCD PUSH1 0xE5 SHL DUP2 MSTORE PUSH1 0x20 PUSH1 0x4 DUP3 ADD MSTORE PUSH1 0x19 PUSH1 0x24 DUP3 ADD MSTORE PUSH25 0xB2DEEA40C8DEDCC0E840D0C2ECCA40CADCDEEACED0408AE8D PUSH1 0x3B SHL PUSH1 0x44 DUP3 ADD MSTORE PUSH1 0x64 ADD PUSH2 0x23E JUMP JUMPDEST PUSH1 0x0 PUSH1 0x6 DUP6 DUP2 SLOAD DUP2 LT PUSH2 0x1F89 JUMPI PUSH2 0x1F89 PUSH2 0x3665 JUMP JUMPDEST SWAP1 PUSH1 0x0 MSTORE PUSH1 0x20 PUSH1 0x0 KECCAK256 SWAP1 PUSH1 0x8 MUL ADD PUSH1 0x2 ADD SLOAD DUP2 SLOAD DUP2 LT PUSH2 0x1FAB JUMPI PUSH2 0x1FAB PUSH2 0x3665 JUMP JUMPDEST PUSH1 0x0 SWAP2 DUP3 MSTORE PUSH1 0x20 DUP3 KECCAK256 PUSH1 0x1 PUSH1 0x3 SWAP1 SWAP3 MUL ADD ADD SLOAD PUSH1 0x40 MLOAD PUSH1 0x1 PUSH1 0x1 PUSH1 0xA0 SHL SUB SWAP1 SWAP2 AND SWAP2 DUP4 ISZERO PUSH2 0x8FC MUL SWAP2 DUP5 SWAP2 DUP2 DUP2 DUP2 DUP6 DUP9 DUP9 CALL SWAP4 POP POP POP POP ISZERO DUP1 ISZERO PUSH2 0x1FF3 JUMPI RETURNDATASIZE PUSH1 0x0 DUP1 RETURNDATACOPY RETURNDATASIZE PUSH1 0x0 REVERT JUMPDEST POP PUSH1 0x3 PUSH1 0x6 DUP6 DUP2 SLOAD DUP2 LT PUSH2 0x6E7 JUMPI PUSH2 0x6E7 PUSH2 0x3665 JUMP JUMPDEST DUP2 ISZERO ISZERO PUSH1 0x0 SUB PUSH2 0x933 JUMPI PUSH1 0x0 DUP4 DUP2 MSTORE PUSH1 0x17 PUSH1 0x20 MSTORE PUSH1 0x40 SWAP1 KECCAK256 SLOAD CALLVALUE LT ISZERO PUSH2 0x2071 JUMPI PUSH1 0x40 MLOAD PUSH3 0x461BCD PUSH1 0xE5 SHL DUP2 MSTORE PUSH1 0x20 PUSH1 0x4 DUP3 ADD MSTORE PUSH1 0x1A PUSH1 0x24 DUP3 ADD MSTORE PUSH32 0x596F7520646F6E6074206861766520656E6F756768204574682E000000000000 PUSH1 0x44 DUP3 ADD MSTORE PUSH1 0x64 ADD PUSH2 0x23E JUMP JUMPDEST PUSH1 0x0 PUSH1 0x6 DUP5 DUP2 SLOAD DUP2 LT PUSH2 0x2086 JUMPI PUSH2 0x2086 PUSH2 0x3665 JUMP JUMPDEST SWAP1 PUSH1 0x0 MSTORE PUSH1 0x20 PUSH1 0x0 KECCAK256 SWAP1 PUSH1 0x8 MUL ADD PUSH1 0x2 ADD SLOAD DUP2 SLOAD DUP2 LT PUSH2 0x20A8 JUMPI PUSH2 0x20A8 PUSH2 0x3665 JUMP JUMPDEST PUSH1 0x0 SWAP2 DUP3 MSTORE PUSH1 0x20 DUP1 DUP4 KECCAK256 PUSH1 0x1 PUSH1 0x3 SWAP1 SWAP4 MUL ADD SWAP2 SWAP1 SWAP2 ADD SLOAD DUP6 DUP4 MSTORE PUSH1 0x17 SWAP1 SWAP2 MSTORE PUSH1 0x40 SWAP1 SWAP2 KECCAK256 SLOAD PUSH1 0x1 PUSH1 0x1 PUSH1 0xA0 SHL SUB SWAP1 SWAP2 AND SWAP1 PUSH2 0x8FC SWAP1 PUSH2 0x20E9 SWAP1 PUSH1 0x5 SWAP1 PUSH2 0x37DB JUMP JUMPDEST PUSH1 0x40 MLOAD DUP2 ISZERO SWAP1 SWAP3 MUL SWAP2 PUSH1 0x0 DUP2 DUP2 DUP2 DUP6 DUP9 DUP9 CALL SWAP4 POP POP POP POP ISZERO DUP1 ISZERO PUSH2 0x2111 JUMPI RETURNDATASIZE PUSH1 0x0 DUP1 RETURNDATACOPY RETURNDATASIZE PUSH1 0x0 REVERT JUMPDEST POP PUSH1 0x0 DUP4 DUP2 MSTORE PUSH1 0x17 PUSH1 0x20 MSTORE PUSH1 0x40 DUP2 KECCAK256 SSTORE PUSH1 0x6 DUP1 SLOAD PUSH1 0x2 SWAP2 SWAP1 DUP6 SWAP1 DUP2 LT PUSH2 0x2139 JUMPI PUSH2 0x2139 PUSH2 0x3665 JUMP JUMPDEST PUSH1 0x0 SWAP2 DUP3 MSTORE PUSH1 0x20 SWAP1 SWAP2 KECCAK256 PUSH1 0x6 PUSH1 0x8 SWAP1 SWAP3 MUL ADD ADD DUP1 SLOAD PUSH1 0xFF NOT AND PUSH1 0x1 DUP4 PUSH1 0x5 DUP2 GT ISZERO PUSH2 0x2166 JUMPI PUSH2 0x2166 PUSH2 0x3732 JUMP JUMPDEST MUL OR SWAP1 SSTORE POP PUSH1 0x6 DUP4 DUP2 SLOAD DUP2 LT PUSH2 0x217E JUMPI PUSH2 0x217E PUSH2 0x3665 JUMP JUMPDEST SWAP1 PUSH1 0x0 MSTORE PUSH1 0x20 PUSH1 0x0 KECCAK256 SWAP1 PUSH1 0x8 MUL ADD PUSH1 0x4 ADD SLOAD PUSH1 0x1 PUSH1 0x6 DUP6 DUP2 SLOAD DUP2 LT PUSH2 0x21A5 JUMPI PUSH2 0x21A5 PUSH2 0x3665 JUMP JUMPDEST SWAP1 PUSH1 0x0 MSTORE PUSH1 0x20 PUSH1 0x0 KECCAK256 SWAP1 PUSH1 0x8 MUL ADD PUSH1 0x3 ADD SLOAD DUP2 SLOAD DUP2 LT PUSH2 0x21C7 JUMPI PUSH2 0x21C7 PUSH2 0x3665 JUMP JUMPDEST SWAP1 PUSH1 0x0 MSTORE PUSH1 0x20 PUSH1 0x0 KECCAK256 SWAP1 PUSH1 0x4 MUL ADD PUSH1 0x3 ADD PUSH1 0x0 DUP3 DUP3 SLOAD PUSH2 0x21E7 SWAP2 SWAP1 PUSH2 0x39D0 JUMP JUMPDEST SWAP1 SWAP2 SSTORE POP POP POP POP POP JUMP JUMPDEST PUSH1 0x0 JUMPDEST PUSH1 0x3 SLOAD DUP2 LT ISZERO PUSH2 0x2267 JUMPI CALLER PUSH1 0x1 PUSH1 0x1 PUSH1 0xA0 SHL SUB AND PUSH1 0x3 DUP3 DUP2 SLOAD DUP2 LT PUSH2 0x221B JUMPI PUSH2 0x221B PUSH2 0x3665 JUMP JUMPDEST PUSH1 0x0 SWAP2 DUP3 MSTORE PUSH1 0x20 SWAP1 SWAP2 KECCAK256 PUSH1 0x1 PUSH1 0x3 SWAP1 SWAP3 MUL ADD ADD SLOAD PUSH1 0x1 PUSH1 0x1 PUSH1 0xA0 SHL SUB AND SUB PUSH2 0x2255 JUMPI PUSH1 0x40 MLOAD PUSH3 0x461BCD PUSH1 0xE5 SHL DUP2 MSTORE PUSH1 0x4 ADD PUSH2 0x23E SWAP1 PUSH2 0x3795 JUMP JUMPDEST DUP1 PUSH2 0x225F DUP2 PUSH2 0x3691 JUMP JUMPDEST SWAP2 POP POP PUSH2 0x21F4 JUMP JUMPDEST POP PUSH1 0x0 JUMPDEST PUSH1 0x0 SLOAD DUP2 LT ISZERO PUSH2 0x22DE JUMPI CALLER PUSH1 0x1 PUSH1 0x1 PUSH1 0xA0 SHL SUB AND PUSH1 0x0 DUP3 DUP2 SLOAD DUP2 LT PUSH2 0x2292 JUMPI PUSH2 0x2292 PUSH2 0x3665 JUMP JUMPDEST PUSH1 0x0 SWAP2 DUP3 MSTORE PUSH1 0x20 SWAP1 SWAP2 KECCAK256 PUSH1 0x1 PUSH1 0x3 SWAP1 SWAP3 MUL ADD ADD SLOAD PUSH1 0x1 PUSH1 0x1 PUSH1 0xA0 SHL SUB AND SUB PUSH2 0x22CC JUMPI PUSH1 0x40 MLOAD PUSH3 0x461BCD PUSH1 0xE5 SHL DUP2 MSTORE PUSH1 0x4 ADD PUSH2 0x23E SWAP1 PUSH2 0x3795 JUMP JUMPDEST DUP1 PUSH2 0x22D6 DUP2 PUSH2 0x3691 JUMP JUMPDEST SWAP2 POP POP PUSH2 0x226B JUMP JUMPDEST POP PUSH1 0x6 SLOAD DUP2 SWAP1 DUP2 LT PUSH2 0x2302 JUMPI PUSH1 0x40 MLOAD PUSH3 0x461BCD PUSH1 0xE5 SHL DUP2 MSTORE PUSH1 0x4 ADD PUSH2 0x23E SWAP1 PUSH2 0x36D8 JUMP JUMPDEST PUSH1 0x0 DUP1 JUMPDEST PUSH1 0x7 SLOAD DUP2 LT ISZERO PUSH2 0x2366 JUMPI CALLER PUSH1 0x1 PUSH1 0x1 PUSH1 0xA0 SHL SUB AND PUSH1 0x7 DUP3 DUP2 SLOAD DUP2 LT PUSH2 0x232D JUMPI PUSH2 0x232D PUSH2 0x3665 JUMP JUMPDEST PUSH1 0x0 SWAP2 DUP3 MSTORE PUSH1 0x20 SWAP1 SWAP2 KECCAK256 PUSH1 0x3 SWAP1 SWAP2 MUL ADD SLOAD PUSH1 0x1 PUSH1 0x1 PUSH1 0xA0 SHL SUB AND SUB PUSH2 0x2354 JUMPI DUP1 SWAP2 POP PUSH2 0x2366 JUMP JUMPDEST DUP1 PUSH2 0x235E DUP2 PUSH2 0x3691 JUMP JUMPDEST SWAP2 POP POP PUSH2 0x2306 JUMP JUMPDEST POP PUSH1 0x0 JUMPDEST PUSH1 0x6 SLOAD DUP2 LT ISZERO PUSH2 0x931 JUMPI DUP4 DUP2 SUB PUSH2 0x27F5 JUMPI PUSH1 0x6 DUP2 DUP2 SLOAD DUP2 LT PUSH2 0x238E JUMPI PUSH2 0x238E PUSH2 0x3665 JUMP JUMPDEST SWAP1 PUSH1 0x0 MSTORE PUSH1 0x20 PUSH1 0x0 KECCAK256 SWAP1 PUSH1 0x8 MUL ADD PUSH1 0x1 ADD SLOAD DUP3 EQ PUSH2 0x23EE JUMPI PUSH1 0x40 MLOAD PUSH3 0x461BCD PUSH1 0xE5 SHL DUP2 MSTORE PUSH1 0x20 PUSH1 0x4 DUP3 ADD MSTORE PUSH1 0x1F PUSH1 0x24 DUP3 ADD MSTORE PUSH32 0x596F752077726F746520612077726F6E67206F72646572206E756D6265722100 PUSH1 0x44 DUP3 ADD MSTORE PUSH1 0x64 ADD PUSH2 0x23E JUMP JUMPDEST PUSH1 0x2 PUSH1 0x6 DUP3 DUP2 SLOAD DUP2 LT PUSH2 0x2403 JUMPI PUSH2 0x2403 PUSH2 0x3665 JUMP JUMPDEST SWAP1 PUSH1 0x0 MSTORE PUSH1 0x20 PUSH1 0x0 KECCAK256 SWAP1 PUSH1 0x8 MUL ADD PUSH1 0x3 ADD SLOAD DUP2 SLOAD DUP2 LT PUSH2 0x2425 JUMPI PUSH2 0x2425 PUSH2 0x3665 JUMP JUMPDEST SWAP1 PUSH1 0x0 MSTORE PUSH1 0x20 PUSH1 0x0 KECCAK256 SWAP1 PUSH1 0x4 MUL ADD PUSH1 0x3 ADD SLOAD PUSH1 0x6 DUP3 DUP2 SLOAD DUP2 LT PUSH2 0x244A JUMPI PUSH2 0x244A PUSH2 0x3665 JUMP JUMPDEST SWAP1 PUSH1 0x0 MSTORE PUSH1 0x20 PUSH1 0x0 KECCAK256 SWAP1 PUSH1 0x8 MUL ADD PUSH1 0x5 ADD SLOAD GT PUSH2 0x24BE JUMPI PUSH1 0x40 MLOAD PUSH3 0x461BCD PUSH1 0xE5 SHL DUP2 MSTORE PUSH1 0x20 PUSH1 0x4 DUP3 ADD MSTORE PUSH1 0x2C PUSH1 0x24 DUP3 ADD MSTORE PUSH32 0x54686973206F7264657220646F6E6074206861766520616E7920657870657269 PUSH1 0x44 DUP3 ADD MSTORE PUSH12 0x65642070726F647563747321 PUSH1 0xA0 SHL PUSH1 0x64 DUP3 ADD MSTORE PUSH1 0x84 ADD PUSH2 0x23E JUMP JUMPDEST PUSH1 0x3 PUSH1 0x6 DUP3 DUP2 SLOAD DUP2 LT PUSH2 0x24D3 JUMPI PUSH2 0x24D3 PUSH2 0x3665 JUMP JUMPDEST PUSH1 0x0 SWAP2 DUP3 MSTORE PUSH1 0x20 SWAP1 SWAP2 KECCAK256 PUSH1 0x6 PUSH1 0x8 SWAP1 SWAP3 MUL ADD ADD SLOAD PUSH1 0xFF AND PUSH1 0x5 DUP2 GT ISZERO PUSH2 0x24FB JUMPI PUSH2 0x24FB PUSH2 0x3732 JUMP JUMPDEST EQ PUSH2 0x2548 JUMPI PUSH1 0x40 MLOAD PUSH3 0x461BCD PUSH1 0xE5 SHL DUP2 MSTORE PUSH1 0x20 PUSH1 0x4 DUP3 ADD MSTORE PUSH1 0x1D PUSH1 0x24 DUP3 ADD MSTORE PUSH32 0x596F752063616E60742072657475726E206F7264657220747769636521000000 PUSH1 0x44 DUP3 ADD MSTORE PUSH1 0x64 ADD PUSH2 0x23E JUMP JUMPDEST PUSH1 0x0 PUSH1 0x6 DUP6 DUP2 SLOAD DUP2 LT PUSH2 0x255D JUMPI PUSH2 0x255D PUSH2 0x3665 JUMP JUMPDEST SWAP1 PUSH1 0x0 MSTORE PUSH1 0x20 PUSH1 0x0 KECCAK256 SWAP1 PUSH1 0x8 MUL ADD PUSH1 0x3 ADD SLOAD SWAP1 POP PUSH1 0x0 PUSH1 0x6 DUP7 DUP2 SLOAD DUP2 LT PUSH2 0x2586 JUMPI PUSH2 0x2586 PUSH2 0x3665 JUMP JUMPDEST SWAP1 PUSH1 0x0 MSTORE PUSH1 0x20 PUSH1 0x0 KECCAK256 SWAP1 PUSH1 0x8 MUL ADD PUSH1 0x4 ADD SLOAD SWAP1 POP PUSH1 0x0 PUSH1 0x1 PUSH1 0x6 DUP9 DUP2 SLOAD DUP2 LT PUSH2 0x25B1 JUMPI PUSH2 0x25B1 PUSH2 0x3665 JUMP JUMPDEST SWAP1 PUSH1 0x0 MSTORE PUSH1 0x20 PUSH1 0x0 KECCAK256 SWAP1 PUSH1 0x8 MUL ADD PUSH1 0x3 ADD SLOAD DUP2 SLOAD DUP2 LT PUSH2 0x25D3 JUMPI PUSH2 0x25D3 PUSH2 0x3665 JUMP JUMPDEST SWAP1 PUSH1 0x0 MSTORE PUSH1 0x20 PUSH1 0x0 KECCAK256 SWAP1 PUSH1 0x4 MUL ADD PUSH1 0x2 ADD SLOAD SWAP1 POP DUP1 DUP3 PUSH2 0x25F3 SWAP2 SWAP1 PUSH2 0x371B JUMP JUMPDEST PUSH1 0xE DUP2 SWAP1 SSTORE POP PUSH1 0x4 PUSH1 0x6 DUP6 DUP2 SLOAD DUP2 LT PUSH2 0x260E JUMPI PUSH2 0x260E PUSH2 0x3665 JUMP JUMPDEST PUSH1 0x0 SWAP2 DUP3 MSTORE PUSH1 0x20 SWAP1 SWAP2 KECCAK256 PUSH1 0x6 PUSH1 0x8 SWAP1 SWAP3 MUL ADD ADD DUP1 SLOAD PUSH1 0xFF NOT AND PUSH1 0x1 DUP4 PUSH1 0x5 DUP2 GT ISZERO PUSH2 0x263B JUMPI PUSH2 0x263B PUSH2 0x3732 JUMP JUMPDEST MUL OR SWAP1 SSTORE POP PUSH1 0x6 DUP5 DUP2 SLOAD DUP2 LT PUSH2 0x2653 JUMPI PUSH2 0x2653 PUSH2 0x3665 JUMP JUMPDEST SWAP1 PUSH1 0x0 MSTORE PUSH1 0x20 PUSH1 0x0 KECCAK256 SWAP1 PUSH1 0x8 MUL ADD PUSH1 0x4 ADD SLOAD PUSH1 0x1 DUP5 DUP2 SLOAD DUP2 LT PUSH2 0x2678 JUMPI PUSH2 0x2678 PUSH2 0x3665 JUMP JUMPDEST SWAP1 PUSH1 0x0 MSTORE PUSH1 0x20 PUSH1 0x0 KECCAK256 SWAP1 PUSH1 0x4 MUL ADD PUSH1 0x3 ADD PUSH1 0x0 DUP3 DUP3 SLOAD PUSH2 0x2698 SWAP2 SWAP1 PUSH2 0x39D0 JUMP JUMPDEST SWAP1 SWAP2 SSTORE POP POP PUSH1 0x1 DUP1 SLOAD DUP5 SWAP1 DUP2 LT PUSH2 0x26B1 JUMPI PUSH2 0x26B1 PUSH2 0x3665 JUMP JUMPDEST SWAP1 PUSH1 0x0 MSTORE PUSH1 0x20 PUSH1 0x0 KECCAK256 SWAP1 PUSH1 0x4 MUL ADD PUSH1 0x3 ADD SLOAD PUSH1 0x1 DUP5 DUP2 SLOAD DUP2 LT PUSH2 0x26D6 JUMPI PUSH2 0x26D6 PUSH2 0x3665 JUMP JUMPDEST SWAP1 PUSH1 0x0 MSTORE PUSH1 0x20 PUSH1 0x0 KECCAK256 SWAP1 PUSH1 0x4 MUL ADD PUSH1 0x2 ADD SLOAD PUSH2 0x26F2 SWAP2 SWAP1 PUSH2 0x371B JUMP JUMPDEST PUSH1 0x0 PUSH1 0x1 DUP1 DUP7 DUP2 SLOAD DUP2 LT PUSH2 0x2708 JUMPI PUSH2 0x2708 PUSH2 0x3665 JUMP JUMPDEST SWAP1 PUSH1 0x0 MSTORE PUSH1 0x20 PUSH1 0x0 KECCAK256 SWAP1 PUSH1 0x4 MUL ADD PUSH1 0x1 ADD SLOAD PUSH2 0x2724 SWAP2 SWAP1 PUSH2 0x3748 JUMP JUMPDEST DUP2 SLOAD DUP2 LT PUSH2 0x2734 JUMPI PUSH2 0x2734 PUSH2 0x3665 JUMP JUMPDEST SWAP1 PUSH1 0x0 MSTORE PUSH1 0x20 PUSH1 0x0 KECCAK256 SWAP1 PUSH1 0x3 MUL ADD PUSH1 0x2 ADD PUSH1 0x0 DUP3 DUP3 SLOAD PUSH2 0x2754 SWAP2 SWAP1 PUSH2 0x39D0 JUMP JUMPDEST SWAP3 POP POP DUP2 SWAP1 SSTORE POP PUSH1 0x16 PUSH1 0x0 DUP1 PUSH1 0x1 DUP1 DUP8 DUP2 SLOAD DUP2 LT PUSH2 0x2774 JUMPI PUSH2 0x2774 PUSH2 0x3665 JUMP JUMPDEST SWAP1 PUSH1 0x0 MSTORE PUSH1 0x20 PUSH1 0x0 KECCAK256 SWAP1 PUSH1 0x4 MUL ADD PUSH1 0x1 ADD SLOAD PUSH2 0x2790 SWAP2 SWAP1 PUSH2 0x3748 JUMP JUMPDEST DUP2 SLOAD DUP2 LT PUSH2 0x27A0 JUMPI PUSH2 0x27A0 PUSH2 0x3665 JUMP JUMPDEST PUSH1 0x0 SWAP2 DUP3 MSTORE PUSH1 0x20 DUP1 DUP4 KECCAK256 PUSH1 0x1 PUSH1 0x3 SWAP1 SWAP4 MUL ADD DUP3 ADD SLOAD PUSH1 0x1 PUSH1 0x1 PUSH1 0xA0 SHL SUB AND DUP5 MSTORE DUP4 DUP2 ADD SWAP5 SWAP1 SWAP5 MSTORE PUSH1 0x40 SWAP1 SWAP3 ADD DUP2 KECCAK256 DUP1 SLOAD SWAP3 DUP4 ADD DUP2 SSTORE DUP2 MSTORE SWAP2 SWAP1 SWAP2 KECCAK256 ADD DUP1 SLOAD PUSH1 0x1 PUSH1 0x1 PUSH1 0xA0 SHL SUB NOT AND CALLER OR SWAP1 SSTORE POP PUSH2 0x931 SWAP2 POP POP JUMP JUMPDEST DUP1 PUSH2 0x27FF DUP2 PUSH2 0x3691 JUMP JUMPDEST SWAP2 POP POP PUSH2 0x236A JUMP JUMPDEST PUSH1 0x0 TIMESTAMP PUSH2 0x2815 DUP2 PUSH1 0x2 PUSH2 0x39D0 JUMP JUMPDEST SWAP2 POP POP SWAP1 JUMP JUMPDEST PUSH2 0xEEE DUP2 PUSH1 0x40 MLOAD PUSH1 0x24 ADD PUSH2 0x282F SWAP2 SWAP1 PUSH2 0x3A07 JUMP JUMPDEST PUSH1 0x40 DUP1 MLOAD PUSH1 0x1F NOT DUP2 DUP5 SUB ADD DUP2 MSTORE SWAP2 SWAP1 MSTORE PUSH1 0x20 DUP2 ADD DUP1 MLOAD PUSH1 0x1 PUSH1 0x1 PUSH1 0xE0 SHL SUB AND PUSH4 0x104C13EB PUSH1 0xE2 SHL OR SWAP1 MSTORE PUSH2 0x311E JUMP JUMPDEST PUSH1 0x5 DUP3 DUP2 SLOAD DUP2 LT PUSH2 0x2871 JUMPI PUSH2 0x2871 PUSH2 0x3665 JUMP JUMPDEST PUSH1 0x0 SWAP2 DUP3 MSTORE PUSH1 0x20 DUP3 KECCAK256 PUSH1 0x1 PUSH1 0x4 SWAP1 SWAP3 MUL ADD ADD SLOAD PUSH1 0xA DUP1 SLOAD PUSH1 0x1 PUSH1 0x1 PUSH1 0xA0 SHL SUB NOT AND PUSH1 0x1 PUSH1 0x1 PUSH1 0xA0 SHL SUB SWAP1 SWAP3 AND SWAP2 SWAP1 SWAP2 OR SWAP1 SSTORE PUSH1 0x5 DUP1 SLOAD DUP5 SWAP1 DUP2 LT PUSH2 0x28B7 JUMPI PUSH2 0x28B7 PUSH2 0x3665 JUMP JUMPDEST SWAP1 PUSH1 0x0 MSTORE PUSH1 0x20 PUSH1 0x0 KECCAK256 SWAP1 PUSH1 0x4 MUL ADD PUSH1 0x3 ADD PUSH1 0x0 SWAP1 SLOAD SWAP1 PUSH2 0x100 EXP SWAP1 DIV PUSH1 0xFF AND SWAP1 POP PUSH2 0x2910 PUSH1 0x5 DUP5 DUP2 SLOAD DUP2 LT PUSH2 0x28EE JUMPI PUSH2 0x28EE PUSH2 0x3665 JUMP JUMPDEST PUSH1 0x0 SWAP2 DUP3 MSTORE PUSH1 0x20 SWAP1 SWAP2 KECCAK256 PUSH1 0x1 PUSH1 0x4 SWAP1 SWAP3 MUL ADD ADD SLOAD PUSH1 0x1 PUSH1 0x1 PUSH1 0xA0 SHL SUB AND PUSH2 0x3127 JUMP JUMPDEST PUSH1 0x11 DUP1 SLOAD PUSH1 0xFF NOT AND PUSH1 0x1 DUP4 PUSH1 0x3 DUP2 GT ISZERO PUSH2 0x292C JUMPI PUSH2 0x292C PUSH2 0x3732 JUMP JUMPDEST MUL OR SWAP1 SSTORE POP PUSH1 0x11 SLOAD PUSH1 0xFF AND PUSH1 0x3 DUP2 GT ISZERO PUSH2 0x2948 JUMPI PUSH2 0x2948 PUSH2 0x3732 JUMP JUMPDEST DUP2 PUSH1 0x3 DUP2 GT ISZERO PUSH2 0x295A JUMPI PUSH2 0x295A PUSH2 0x3732 JUMP JUMPDEST SUB PUSH2 0x29BD JUMPI PUSH1 0x40 MLOAD PUSH3 0x461BCD PUSH1 0xE5 SHL DUP2 MSTORE PUSH1 0x20 PUSH1 0x4 DUP3 ADD MSTORE PUSH1 0x2D PUSH1 0x24 DUP3 ADD MSTORE PUSH32 0x596F752063616E6074206368616E67652066726F6D20796F757220726F6C6520 PUSH1 0x44 DUP3 ADD MSTORE PUSH13 0x6F6E20796F757220726F6C6521 PUSH1 0x98 SHL PUSH1 0x64 DUP3 ADD MSTORE PUSH1 0x84 ADD PUSH2 0x23E JUMP JUMPDEST PUSH1 0x2 DUP2 PUSH1 0x3 DUP2 GT ISZERO PUSH2 0x29D1 JUMPI PUSH2 0x29D1 PUSH2 0x3732 JUMP JUMPDEST SUB PUSH2 0x2A75 JUMPI PUSH1 0x40 DUP1 MLOAD PUSH1 0x60 DUP2 ADD DUP3 MSTORE DUP4 DUP2 MSTORE PUSH1 0xA SLOAD PUSH1 0x1 PUSH1 0x1 PUSH1 0xA0 SHL SUB AND PUSH1 0x20 DUP3 ADD MSTORE PUSH1 0x0 SWAP2 DUP2 ADD DUP3 SWAP1 MSTORE DUP2 SLOAD PUSH1 0x1 DUP2 ADD DUP4 SSTORE SWAP2 DUP1 MSTORE DUP1 MLOAD SWAP1 SWAP2 PUSH1 0x3 MUL PUSH32 0x290DECD9548B62A8D60345A988386FC84BA6BC95484008F6362F93160EF3E563 ADD SWAP1 DUP2 SWAP1 PUSH2 0x2A3D SWAP1 DUP3 PUSH2 0x383D JUMP JUMPDEST POP PUSH1 0x20 DUP3 ADD MLOAD PUSH1 0x1 DUP3 ADD DUP1 SLOAD PUSH1 0x1 PUSH1 0x1 PUSH1 0xA0 SHL SUB NOT AND PUSH1 0x1 PUSH1 0x1 PUSH1 0xA0 SHL SUB SWAP1 SWAP3 AND SWAP2 SWAP1 SWAP2 OR SWAP1 SSTORE PUSH1 0x40 SWAP1 SWAP2 ADD MLOAD PUSH1 0x2 SWAP1 SWAP2 ADD SSTORE PUSH2 0x2C02 JUMP JUMPDEST PUSH1 0x1 DUP2 PUSH1 0x3 DUP2 GT ISZERO PUSH2 0x2A89 JUMPI PUSH2 0x2A89 PUSH2 0x3732 JUMP JUMPDEST SUB PUSH2 0x2B25 JUMPI PUSH1 0x3 PUSH1 0x40 MLOAD DUP1 PUSH1 0x60 ADD PUSH1 0x40 MSTORE DUP1 PUSH1 0x1 PUSH1 0x3 DUP1 SLOAD SWAP1 POP PUSH2 0x2AAD SWAP2 SWAP1 PUSH2 0x3748 JUMP JUMPDEST DUP2 MSTORE PUSH1 0xA SLOAD PUSH1 0x1 PUSH1 0x1 PUSH1 0xA0 SHL SUB SWAP1 DUP2 AND PUSH1 0x20 DUP1 DUP5 ADD SWAP2 SWAP1 SWAP2 MSTORE PUSH1 0x40 SWAP3 DUP4 ADD DUP8 SWAP1 MSTORE DUP5 SLOAD PUSH1 0x1 DUP1 DUP3 ADD DUP8 SSTORE PUSH1 0x0 SWAP7 DUP8 MSTORE SWAP6 DUP3 SWAP1 KECCAK256 DUP6 MLOAD PUSH1 0x3 SWAP1 SWAP3 MUL ADD SWAP1 DUP2 SSTORE SWAP1 DUP5 ADD MLOAD SWAP5 DUP2 ADD DUP1 SLOAD PUSH1 0x1 PUSH1 0x1 PUSH1 0xA0 SHL SUB NOT AND SWAP6 SWAP1 SWAP3 AND SWAP5 SWAP1 SWAP5 OR SWAP1 SSTORE DUP2 ADD MLOAD SWAP1 SWAP2 SWAP1 PUSH1 0x2 DUP3 ADD SWAP1 PUSH2 0x2B1D SWAP1 DUP3 PUSH2 0x383D JUMP JUMPDEST POP POP POP PUSH2 0x2C02 JUMP JUMPDEST PUSH1 0x0 DUP2 PUSH1 0x3 DUP2 GT ISZERO PUSH2 0x2B39 JUMPI PUSH2 0x2B39 PUSH2 0x3732 JUMP JUMPDEST SUB PUSH2 0x2C02 JUMPI PUSH1 0x40 DUP1 MLOAD PUSH1 0x60 DUP2 ADD DUP3 MSTORE PUSH1 0xA SLOAD PUSH1 0x1 PUSH1 0x1 PUSH1 0xA0 SHL SUB SWAP1 DUP2 AND DUP3 MSTORE PUSH1 0x20 DUP3 ADD DUP6 DUP2 MSTORE PUSH1 0x0 SWAP4 DUP4 ADD DUP5 SWAP1 MSTORE PUSH1 0x7 DUP1 SLOAD PUSH1 0x1 DUP2 ADD DUP3 SSTORE SWAP5 MSTORE DUP3 MLOAD PUSH32 0xA66CC928B5EDB82AF9BD49922954155AB7B0942694BEA4CE44661D9A8736C688 PUSH1 0x3 SWAP1 SWAP6 MUL SWAP5 DUP6 ADD DUP1 SLOAD PUSH1 0x1 PUSH1 0x1 PUSH1 0xA0 SHL SUB NOT AND SWAP2 SWAP1 SWAP4 AND OR DUP3 SSTORE MLOAD SWAP2 SWAP3 SWAP1 SWAP2 PUSH32 0xA66CC928B5EDB82AF9BD49922954155AB7B0942694BEA4CE44661D9A8736C689 SWAP1 SWAP2 ADD SWAP1 PUSH2 0x2BE5 SWAP1 DUP3 PUSH2 0x383D JUMP JUMPDEST POP PUSH1 0x40 SWAP2 SWAP1 SWAP2 ADD MLOAD PUSH1 0x2 SWAP1 SWAP2 ADD DUP1 SLOAD PUSH1 0xFF NOT AND SWAP2 ISZERO ISZERO SWAP2 SWAP1 SWAP2 OR SWAP1 SSTORE JUMPDEST PUSH2 0x933 JUMPDEST PUSH1 0x2 PUSH1 0x11 SLOAD PUSH1 0xFF AND PUSH1 0x3 DUP2 GT ISZERO PUSH2 0x2C1F JUMPI PUSH2 0x2C1F PUSH2 0x3732 JUMP JUMPDEST SUB PUSH2 0x2C86 JUMPI PUSH1 0xA SLOAD PUSH1 0x0 SWAP1 PUSH2 0x2C3F SWAP1 PUSH1 0x1 SWAP1 PUSH1 0x1 PUSH1 0x1 PUSH1 0xA0 SHL SUB AND PUSH2 0x325C JUMP JUMPDEST DUP2 SLOAD DUP2 LT PUSH2 0x2C4F JUMPI PUSH2 0x2C4F PUSH2 0x3665 JUMP JUMPDEST PUSH1 0x0 SWAP2 DUP3 MSTORE PUSH1 0x20 DUP3 KECCAK256 PUSH1 0x3 SWAP1 SWAP2 MUL ADD SWAP1 PUSH2 0x2C69 DUP3 DUP3 PUSH2 0x33C2 JUMP JUMPDEST POP PUSH1 0x1 DUP2 ADD DUP1 SLOAD PUSH1 0x1 PUSH1 0x1 PUSH1 0xA0 SHL SUB NOT AND SWAP1 SSTORE PUSH1 0x0 PUSH1 0x2 SWAP1 SWAP2 ADD SSTORE JUMP JUMPDEST PUSH1 0x1 PUSH1 0x11 SLOAD PUSH1 0xFF AND PUSH1 0x3 DUP2 GT ISZERO PUSH2 0x2C9F JUMPI PUSH2 0x2C9F PUSH2 0x3732 JUMP JUMPDEST SUB PUSH2 0x2D01 JUMPI PUSH1 0xA SLOAD PUSH1 0x3 SWAP1 PUSH2 0x2CBF SWAP1 PUSH1 0x2 SWAP1 PUSH1 0x1 PUSH1 0x1 PUSH1 0xA0 SHL SUB AND PUSH2 0x325C JUMP JUMPDEST DUP2 SLOAD DUP2 LT PUSH2 0x2CCF JUMPI PUSH2 0x2CCF PUSH2 0x3665 JUMP JUMPDEST PUSH1 0x0 SWAP2 DUP3 MSTORE PUSH1 0x20 DUP3 KECCAK256 PUSH1 0x3 SWAP1 SWAP2 MUL ADD DUP2 DUP2 SSTORE PUSH1 0x1 DUP2 ADD DUP1 SLOAD PUSH1 0x1 PUSH1 0x1 PUSH1 0xA0 SHL SUB NOT AND SWAP1 SSTORE SWAP1 PUSH2 0xA31 PUSH1 0x2 DUP4 ADD DUP3 PUSH2 0x33C2 JUMP JUMPDEST PUSH1 0x0 PUSH1 0x11 SLOAD PUSH1 0xFF AND PUSH1 0x3 DUP2 GT ISZERO PUSH2 0x2D1A JUMPI PUSH2 0x2D1A PUSH2 0x3732 JUMP JUMPDEST SUB PUSH2 0x2D82 JUMPI PUSH1 0xA SLOAD PUSH1 0x7 SWAP1 PUSH2 0x2D3A SWAP1 PUSH1 0x0 SWAP1 PUSH1 0x1 PUSH1 0x1 PUSH1 0xA0 SHL SUB AND PUSH2 0x325C JUMP JUMPDEST DUP2 SLOAD DUP2 LT PUSH2 0x2D4A JUMPI PUSH2 0x2D4A PUSH2 0x3665 JUMP JUMPDEST PUSH1 0x0 SWAP2 DUP3 MSTORE PUSH1 0x20 DUP3 KECCAK256 PUSH1 0x3 SWAP1 SWAP2 MUL ADD DUP1 SLOAD PUSH1 0x1 PUSH1 0x1 PUSH1 0xA0 SHL SUB NOT AND DUP2 SSTORE SWAP1 PUSH2 0x2D75 PUSH1 0x1 DUP4 ADD DUP3 PUSH2 0x33C2 JUMP JUMPDEST POP PUSH1 0x2 ADD DUP1 SLOAD PUSH1 0xFF NOT AND SWAP1 SSTORE JUMPDEST JUMP JUMPDEST PUSH1 0x0 DUP1 JUMPDEST PUSH1 0x10 SLOAD DUP2 LT ISZERO PUSH2 0x2DCE JUMPI PUSH1 0x0 DUP2 DUP2 MSTORE PUSH1 0x14 PUSH1 0x20 MSTORE PUSH1 0x40 SWAP1 KECCAK256 SLOAD PUSH1 0x1 PUSH1 0x1 PUSH1 0xA0 SHL SUB DUP1 DUP6 AND SWAP2 AND SUB PUSH2 0x2DBC JUMPI POP PUSH1 0x1 SWAP3 SWAP2 POP POP JUMP JUMPDEST DUP1 PUSH2 0x2DC6 DUP2 PUSH2 0x3691 JUMP JUMPDEST SWAP2 POP POP PUSH2 0x2D88 JUMP JUMPDEST POP PUSH1 0x0 SWAP3 SWAP2 POP POP JUMP JUMPDEST PUSH1 0x0 DUP2 TIMESTAMP CALLER PUSH1 0x40 MLOAD PUSH1 0x20 ADD PUSH2 0x2E08 SWAP3 SWAP2 SWAP1 SWAP2 DUP3 MSTORE PUSH1 0x60 SHL PUSH12 0xFFFFFFFFFFFFFFFFFFFFFFFF NOT AND PUSH1 0x20 DUP3 ADD MSTORE PUSH1 0x34 ADD SWAP1 JUMP JUMPDEST PUSH1 0x40 MLOAD PUSH1 0x20 DUP2 DUP4 SUB SUB DUP2 MSTORE SWAP1 PUSH1 0x40 MSTORE DUP1 MLOAD SWAP1 PUSH1 0x20 ADD KECCAK256 PUSH1 0x0 SHR PUSH2 0x2E2B SWAP2 SWAP1 PUSH2 0x3A3A JUMP JUMPDEST SWAP3 SWAP2 POP POP JUMP JUMPDEST PUSH1 0x0 PUSH2 0x2E3C DUP3 PUSH2 0x2D84 JUMP JUMPDEST SWAP1 POP DUP1 ISZERO ISZERO PUSH1 0x0 SUB PUSH2 0x2E86 JUMPI PUSH1 0x10 DUP1 SLOAD PUSH1 0x0 SWAP1 DUP2 MSTORE PUSH1 0x14 PUSH1 0x20 MSTORE PUSH1 0x40 DUP2 KECCAK256 DUP1 SLOAD PUSH1 0x1 PUSH1 0x1 PUSH1 0xA0 SHL SUB NOT AND PUSH1 0x1 PUSH1 0x1 PUSH1 0xA0 SHL SUB DUP7 AND OR SWAP1 SSTORE DUP2 SLOAD SWAP2 SWAP1 PUSH2 0x2E80 DUP4 PUSH2 0x3691 JUMP JUMPDEST SWAP2 SWAP1 POP SSTORE POP JUMPDEST PUSH1 0xF DUP1 SLOAD SWAP1 PUSH1 0x0 PUSH2 0x1152 DUP4 PUSH2 0x3691 JUMP JUMPDEST PUSH2 0xEEE DUP2 PUSH1 0x40 MLOAD PUSH1 0x24 ADD PUSH2 0x2EAC SWAP2 DUP2 MSTORE PUSH1 0x20 ADD SWAP1 JUMP JUMPDEST PUSH1 0x40 DUP1 MLOAD PUSH1 0x1F NOT DUP2 DUP5 SUB ADD DUP2 MSTORE SWAP2 SWAP1 MSTORE PUSH1 0x20 DUP2 ADD DUP1 MLOAD PUSH1 0x1 PUSH1 0x1 PUSH1 0xE0 SHL SUB AND PUSH4 0xF82C50F1 PUSH1 0xE0 SHL OR SWAP1 MSTORE PUSH2 0x311E JUMP JUMPDEST PUSH1 0x40 MLOAD PUSH1 0x1 PUSH1 0x1 PUSH1 0xA0 SHL SUB DUP3 AND PUSH1 0x24 DUP3 ADD MSTORE PUSH2 0xEEE SWAP1 PUSH1 0x44 ADD PUSH1 0x40 DUP1 MLOAD PUSH1 0x1F NOT DUP2 DUP5 SUB ADD DUP2 MSTORE SWAP2 SWAP1 MSTORE PUSH1 0x20 DUP2 ADD DUP1 MLOAD PUSH1 0x1 PUSH1 0x1 PUSH1 0xE0 SHL SUB AND PUSH4 0x161765E1 PUSH1 0xE1 SHL OR SWAP1 MSTORE PUSH2 0x311E JUMP JUMPDEST PUSH1 0x60 PUSH1 0x0 PUSH1 0x2 DUP4 DUP2 SLOAD DUP2 LT PUSH2 0x2F3A JUMPI PUSH2 0x2F3A PUSH2 0x3665 JUMP JUMPDEST SWAP1 PUSH1 0x0 MSTORE PUSH1 0x20 PUSH1 0x0 KECCAK256 SWAP1 PUSH1 0x4 MUL ADD PUSH1 0x1 ADD DUP1 SLOAD PUSH2 0x2F56 SWAP1 PUSH2 0x375B JUMP JUMPDEST DUP1 PUSH1 0x1F ADD PUSH1 0x20 DUP1 SWAP2 DIV MUL PUSH1 0x20 ADD PUSH1 0x40 MLOAD SWAP1 DUP2 ADD PUSH1 0x40 MSTORE DUP1 SWAP3 SWAP2 SWAP1 DUP2 DUP2 MSTORE PUSH1 0x20 ADD DUP3 DUP1 SLOAD PUSH2 0x2F82 SWAP1 PUSH2 0x375B JUMP JUMPDEST DUP1 ISZERO PUSH2 0x2FCF JUMPI DUP1 PUSH1 0x1F LT PUSH2 0x2FA4 JUMPI PUSH2 0x100 DUP1 DUP4 SLOAD DIV MUL DUP4 MSTORE SWAP2 PUSH1 0x20 ADD SWAP2 PUSH2 0x2FCF JUMP JUMPDEST DUP3 ADD SWAP2 SWAP1 PUSH1 0x0 MSTORE PUSH1 0x20 PUSH1 0x0 KECCAK256 SWAP1 JUMPDEST DUP2 SLOAD DUP2 MSTORE SWAP1 PUSH1 0x1 ADD SWAP1 PUSH1 0x20 ADD DUP1 DUP4 GT PUSH2 0x2FB2 JUMPI DUP3 SWAP1 SUB PUSH1 0x1F AND DUP3 ADD SWAP2 JUMPDEST POP POP POP POP POP SWAP1 POP PUSH1 0x0 PUSH1 0x2 DUP5 DUP2 SLOAD DUP2 LT PUSH2 0x2FEB JUMPI PUSH2 0x2FEB PUSH2 0x3665 JUMP JUMPDEST SWAP1 PUSH1 0x0 MSTORE PUSH1 0x20 PUSH1 0x0 KECCAK256 SWAP1 PUSH1 0x4 MUL ADD PUSH1 0x2 ADD DUP1 SLOAD PUSH2 0x3007 SWAP1 PUSH2 0x375B JUMP JUMPDEST DUP1 PUSH1 0x1F ADD PUSH1 0x20 DUP1 SWAP2 DIV MUL PUSH1 0x20 ADD PUSH1 0x40 MLOAD SWAP1 DUP2 ADD PUSH1 0x40 MSTORE DUP1 SWAP3 SWAP2 SWAP1 DUP2 DUP2 MSTORE PUSH1 0x20 ADD DUP3 DUP1 SLOAD PUSH2 0x3033 SWAP1 PUSH2 0x375B JUMP JUMPDEST DUP1 ISZERO PUSH2 0x3080 JUMPI DUP1 PUSH1 0x1F LT PUSH2 0x3055 JUMPI PUSH2 0x100 DUP1 DUP4 SLOAD DIV MUL DUP4 MSTORE SWAP2 PUSH1 0x20 ADD SWAP2 PUSH2 0x3080 JUMP JUMPDEST DUP3 ADD SWAP2 SWAP1 PUSH1 0x0 MSTORE PUSH1 0x20 PUSH1 0x0 KECCAK256 SWAP1 JUMPDEST DUP2 SLOAD DUP2 MSTORE SWAP1 PUSH1 0x1 ADD SWAP1 PUSH1 0x20 ADD DUP1 DUP4 GT PUSH2 0x3063 JUMPI DUP3 SWAP1 SUB PUSH1 0x1F AND DUP3 ADD SWAP2 JUMPDEST POP POP POP POP POP SWAP1 POP DUP2 DUP2 PUSH1 0x40 MLOAD PUSH1 0x20 ADD PUSH2 0x309A SWAP3 SWAP2 SWAP1 PUSH2 0x3A4E JUMP JUMPDEST PUSH1 0x40 MLOAD PUSH1 0x20 DUP2 DUP4 SUB SUB DUP2 MSTORE SWAP1 PUSH1 0x40 MSTORE SWAP3 POP POP POP SWAP2 SWAP1 POP JUMP JUMPDEST PUSH1 0x0 DUP1 JUMPDEST PUSH1 0x8 SLOAD DUP2 LT ISZERO PUSH2 0x2DCE JUMPI PUSH1 0x8 DUP2 DUP2 SLOAD DUP2 LT PUSH2 0x30D3 JUMPI PUSH2 0x30D3 PUSH2 0x3665 JUMP JUMPDEST SWAP1 PUSH1 0x0 MSTORE PUSH1 0x20 PUSH1 0x0 KECCAK256 ADD SLOAD DUP4 SUB PUSH2 0x30ED JUMPI POP PUSH1 0x1 SWAP3 SWAP2 POP POP JUMP JUMPDEST DUP1 PUSH2 0x30F7 DUP2 PUSH2 0x3691 JUMP JUMPDEST SWAP2 POP POP PUSH2 0x30B6 JUMP JUMPDEST PUSH1 0x0 DUP1 PUSH2 0x310D PUSH1 0xA DUP5 PUSH2 0x37DB JUMP JUMPDEST PUSH2 0x3117 SWAP1 DUP5 PUSH2 0x3748 JUMP JUMPDEST SWAP4 SWAP3 POP POP POP JUMP JUMPDEST PUSH2 0xEEE DUP2 PUSH2 0x33A1 JUMP JUMPDEST PUSH1 0x0 DUP1 JUMPDEST PUSH1 0x7 SLOAD DUP2 LT ISZERO PUSH2 0x318C JUMPI DUP3 PUSH1 0x1 PUSH1 0x1 PUSH1 0xA0 SHL SUB AND PUSH1 0x7 DUP3 DUP2 SLOAD DUP2 LT PUSH2 0x3152 JUMPI PUSH2 0x3152 PUSH2 0x3665 JUMP JUMPDEST PUSH1 0x0 SWAP2 DUP3 MSTORE PUSH1 0x20 SWAP1 SWAP2 KECCAK256 PUSH1 0x3 SWAP1 SWAP2 MUL ADD SLOAD PUSH1 0x1 PUSH1 0x1 PUSH1 0xA0 SHL SUB AND SUB PUSH2 0x317A JUMPI POP PUSH1 0x0 SWAP3 SWAP2 POP POP JUMP JUMPDEST DUP1 PUSH2 0x3184 DUP2 PUSH2 0x3691 JUMP JUMPDEST SWAP2 POP POP PUSH2 0x312B JUMP JUMPDEST POP PUSH1 0x0 JUMPDEST PUSH1 0x0 SLOAD DUP2 LT ISZERO PUSH2 0x31F4 JUMPI DUP3 PUSH1 0x1 PUSH1 0x1 PUSH1 0xA0 SHL SUB AND PUSH1 0x0 DUP3 DUP2 SLOAD DUP2 LT PUSH2 0x31B7 JUMPI PUSH2 0x31B7 PUSH2 0x3665 JUMP JUMPDEST PUSH1 0x0 SWAP2 DUP3 MSTORE PUSH1 0x20 SWAP1 SWAP2 KECCAK256 PUSH1 0x1 PUSH1 0x3 SWAP1 SWAP3 MUL ADD ADD SLOAD PUSH1 0x1 PUSH1 0x1 PUSH1 0xA0 SHL SUB AND SUB PUSH2 0x31E2 JUMPI POP PUSH1 0x2 SWAP3 SWAP2 POP POP JUMP JUMPDEST DUP1 PUSH2 0x31EC DUP2 PUSH2 0x3691 JUMP JUMPDEST SWAP2 POP POP PUSH2 0x3190 JUMP JUMPDEST POP PUSH1 0x0 JUMPDEST PUSH1 0x3 SLOAD DUP2 LT ISZERO PUSH2 0x2DCE JUMPI DUP3 PUSH1 0x1 PUSH1 0x1 PUSH1 0xA0 SHL SUB AND PUSH1 0x3 DUP3 DUP2 SLOAD DUP2 LT PUSH2 0x321F JUMPI PUSH2 0x321F PUSH2 0x3665 JUMP JUMPDEST PUSH1 0x0 SWAP2 DUP3 MSTORE PUSH1 0x20 SWAP1 SWAP2 KECCAK256 PUSH1 0x1 PUSH1 0x3 SWAP1 SWAP3 MUL ADD ADD SLOAD PUSH1 0x1 PUSH1 0x1 PUSH1 0xA0 SHL SUB AND SUB PUSH2 0x324A JUMPI POP PUSH1 0x1 SWAP3 SWAP2 POP POP JUMP JUMPDEST DUP1 PUSH2 0x3254 DUP2 PUSH2 0x3691 JUMP JUMPDEST SWAP2 POP POP PUSH2 0x31F8 JUMP JUMPDEST PUSH1 0x0 DUP3 PUSH1 0x1 SUB PUSH2 0x32C8 JUMPI PUSH1 0x0 JUMPDEST PUSH1 0x0 SLOAD DUP2 LT ISZERO PUSH2 0x32C6 JUMPI PUSH1 0x0 DUP2 DUP2 SLOAD DUP2 LT PUSH2 0x3286 JUMPI PUSH2 0x3286 PUSH2 0x3665 JUMP JUMPDEST PUSH1 0x0 SWAP2 DUP3 MSTORE PUSH1 0x20 SWAP1 SWAP2 KECCAK256 PUSH1 0x1 PUSH1 0x3 SWAP1 SWAP3 MUL ADD ADD SLOAD PUSH1 0x1 PUSH1 0x1 PUSH1 0xA0 SHL SUB SWAP1 DUP2 AND SWAP1 DUP5 AND SUB PUSH2 0x32B4 JUMPI SWAP1 POP PUSH2 0x2E2B JUMP JUMPDEST DUP1 PUSH2 0x32BE DUP2 PUSH2 0x3691 JUMP JUMPDEST SWAP2 POP POP PUSH2 0x3269 JUMP JUMPDEST POP JUMPDEST DUP3 PUSH1 0x2 SUB PUSH2 0x3332 JUMPI PUSH1 0x0 JUMPDEST PUSH1 0x3 SLOAD DUP2 LT ISZERO PUSH2 0x3330 JUMPI PUSH1 0x3 DUP2 DUP2 SLOAD DUP2 LT PUSH2 0x32F0 JUMPI PUSH2 0x32F0 PUSH2 0x3665 JUMP JUMPDEST PUSH1 0x0 SWAP2 DUP3 MSTORE PUSH1 0x20 SWAP1 SWAP2 KECCAK256 PUSH1 0x1 PUSH1 0x3 SWAP1 SWAP3 MUL ADD ADD SLOAD PUSH1 0x1 PUSH1 0x1 PUSH1 0xA0 SHL SUB SWAP1 DUP2 AND SWAP1 DUP5 AND SUB PUSH2 0x331E JUMPI SWAP1 POP PUSH2 0x2E2B JUMP JUMPDEST DUP1 PUSH2 0x3328 DUP2 PUSH2 0x3691 JUMP JUMPDEST SWAP2 POP POP PUSH2 0x32D3 JUMP JUMPDEST POP JUMPDEST DUP3 PUSH1 0x0 SUB PUSH2 0x2DCE JUMPI PUSH1 0x0 JUMPDEST PUSH1 0x7 SLOAD DUP2 LT ISZERO PUSH2 0x3397 JUMPI PUSH1 0x7 DUP2 DUP2 SLOAD DUP2 LT PUSH2 0x335A JUMPI PUSH2 0x335A PUSH2 0x3665 JUMP JUMPDEST PUSH1 0x0 SWAP2 DUP3 MSTORE PUSH1 0x20 SWAP1 SWAP2 KECCAK256 PUSH1 0x3 SWAP1 SWAP2 MUL ADD SLOAD PUSH1 0x1 PUSH1 0x1 PUSH1 0xA0 SHL SUB SWAP1 DUP2 AND SWAP1 DUP5 AND SUB PUSH2 0x3385 JUMPI SWAP1 POP PUSH2 0x2E2B JUMP JUMPDEST DUP1 PUSH2 0x338F DUP2 PUSH2 0x3691 JUMP JUMPDEST SWAP2 POP POP PUSH2 0x333D JUMP JUMPDEST POP POP PUSH1 0x0 SWAP3 SWAP2 POP POP JUMP JUMPDEST PUSH1 0x0 PUSH11 0x636F6E736F6C652E6C6F67 SWAP1 POP PUSH1 0x0 DUP1 DUP4 MLOAD PUSH1 0x20 DUP6 ADD DUP5 GAS STATICCALL POP POP POP JUMP JUMPDEST POP DUP1 SLOAD PUSH2 0x33CE SWAP1 PUSH2 0x375B JUMP JUMPDEST PUSH1 0x0 DUP3 SSTORE DUP1 PUSH1 0x1F LT PUSH2 0x33DE JUMPI POP POP JUMP JUMPDEST PUSH1 0x1F ADD PUSH1 0x20 SWAP1 DIV SWAP1 PUSH1 0x0 MSTORE PUSH1 0x20 PUSH1 0x0 KECCAK256 SWAP1 DUP2 ADD SWAP1 PUSH2 0xEEE SWAP2 SWAP1 JUMPDEST DUP1 DUP3 GT ISZERO PUSH2 0x340C JUMPI PUSH1 0x0 DUP2 SSTORE PUSH1 0x1 ADD PUSH2 0x33F8 JUMP JUMPDEST POP SWAP1 JUMP JUMPDEST PUSH1 0x0 DUP1 PUSH1 0x40 DUP4 DUP6 SUB SLT ISZERO PUSH2 0x3423 JUMPI PUSH1 0x0 DUP1 REVERT JUMPDEST POP POP DUP1 CALLDATALOAD SWAP3 PUSH1 0x20 SWAP1 SWAP2 ADD CALLDATALOAD SWAP2 POP JUMP JUMPDEST DUP1 CALLDATALOAD DUP1 ISZERO ISZERO DUP2 EQ PUSH2 0x3442 JUMPI PUSH1 0x0 DUP1 REVERT JUMPDEST SWAP2 SWAP1 POP JUMP JUMPDEST PUSH1 0x0 DUP1 PUSH1 0x40 DUP4 DUP6 SUB SLT ISZERO PUSH2 0x345A JUMPI PUSH1 0x0 DUP1 REVERT JUMPDEST PUSH2 0x3463 DUP4 PUSH2 0x3432 JUMP JUMPDEST SWAP5 PUSH1 0x20 SWAP4 SWAP1 SWAP4 ADD CALLDATALOAD SWAP4 POP POP POP JUMP JUMPDEST PUSH1 0x0 PUSH1 0x20 DUP3 DUP5 SUB SLT ISZERO PUSH2 0x3483 JUMPI PUSH1 0x0 DUP1 REVERT JUMPDEST DUP2 CALLDATALOAD PUSH1 0x1 PUSH1 0x1 PUSH1 0xA0 SHL SUB DUP2 AND DUP2 EQ PUSH2 0x3117 JUMPI PUSH1 0x0 DUP1 REVERT JUMPDEST PUSH1 0x0 PUSH1 0x20 DUP3 DUP5 SUB SLT ISZERO PUSH2 0x34AC JUMPI PUSH1 0x0 DUP1 REVERT JUMPDEST POP CALLDATALOAD SWAP2 SWAP1 POP JUMP JUMPDEST PUSH4 0x4E487B71 PUSH1 0xE0 SHL PUSH1 0x0 MSTORE PUSH1 0x41 PUSH1 0x4 MSTORE PUSH1 0x24 PUSH1 0x0 REVERT JUMPDEST PUSH1 0x0 DUP3 PUSH1 0x1F DUP4 ADD SLT PUSH2 0x34DA JUMPI PUSH1 0x0 DUP1 REVERT JUMPDEST DUP2 CALLDATALOAD PUSH8 0xFFFFFFFFFFFFFFFF DUP1 DUP3 GT ISZERO PUSH2 0x34F5 JUMPI PUSH2 0x34F5 PUSH2 0x34B3 JUMP JUMPDEST PUSH1 0x40 MLOAD PUSH1 0x1F DUP4 ADD PUSH1 0x1F NOT SWAP1 DUP2 AND PUSH1 0x3F ADD AND DUP2 ADD SWAP1 DUP3 DUP3 GT DUP2 DUP4 LT OR ISZERO PUSH2 0x351D JUMPI PUSH2 0x351D PUSH2 0x34B3 JUMP JUMPDEST DUP2 PUSH1 0x40 MSTORE DUP4 DUP2 MSTORE DUP7 PUSH1 0x20 DUP6 DUP9 ADD ADD GT ISZERO PUSH2 0x3536 JUMPI PUSH1 0x0 DUP1 REVERT JUMPDEST DUP4 PUSH1 0x20 DUP8 ADD PUSH1 0x20 DUP4 ADD CALLDATACOPY PUSH1 0x0 PUSH1 0x20 DUP6 DUP4 ADD ADD MSTORE DUP1 SWAP5 POP POP POP POP POP SWAP3 SWAP2 POP POP JUMP JUMPDEST PUSH1 0x0 DUP1 PUSH1 0x40 DUP4 DUP6 SUB SLT ISZERO PUSH2 0x3569 JUMPI PUSH1 0x0 DUP1 REVERT JUMPDEST DUP3 CALLDATALOAD PUSH1 0x4 DUP2 LT PUSH2 0x3578 JUMPI PUSH1 0x0 DUP1 REVERT JUMPDEST SWAP2 POP PUSH1 0x20 DUP4 ADD CALLDATALOAD PUSH8 0xFFFFFFFFFFFFFFFF DUP2 GT ISZERO PUSH2 0x3594 JUMPI PUSH1 0x0 DUP1 REVERT JUMPDEST PUSH2 0x35A0 DUP6 DUP3 DUP7 ADD PUSH2 0x34C9 JUMP JUMPDEST SWAP2 POP POP SWAP3 POP SWAP3 SWAP1 POP JUMP JUMPDEST PUSH1 0x0 DUP1 PUSH1 0x0 DUP1 PUSH1 0x80 DUP6 DUP8 SUB SLT ISZERO PUSH2 0x35C0 JUMPI PUSH1 0x0 DUP1 REVERT JUMPDEST DUP5 CALLDATALOAD SWAP4 POP PUSH1 0x20 DUP6 ADD CALLDATALOAD SWAP3 POP PUSH1 0x40 DUP6 ADD CALLDATALOAD SWAP2 POP PUSH1 0x60 DUP6 ADD CALLDATALOAD PUSH8 0xFFFFFFFFFFFFFFFF DUP2 GT ISZERO PUSH2 0x35EC JUMPI PUSH1 0x0 DUP1 REVERT JUMPDEST PUSH2 0x35F8 DUP8 DUP3 DUP9 ADD PUSH2 0x34C9 JUMP JUMPDEST SWAP2 POP POP SWAP3 SWAP6 SWAP2 SWAP5 POP SWAP3 POP JUMP JUMPDEST PUSH1 0x0 DUP1 PUSH1 0x0 PUSH1 0x60 DUP5 DUP7 SUB SLT ISZERO PUSH2 0x3619 JUMPI PUSH1 0x0 DUP1 REVERT JUMPDEST POP POP DUP2 CALLDATALOAD SWAP4 PUSH1 0x20 DUP4 ADD CALLDATALOAD SWAP4 POP PUSH1 0x40 SWAP1 SWAP3 ADD CALLDATALOAD SWAP2 SWAP1 POP JUMP JUMPDEST PUSH1 0x0 DUP1 PUSH1 0x0 PUSH1 0x60 DUP5 DUP7 SUB SLT ISZERO PUSH2 0x3645 JUMPI PUSH1 0x0 DUP1 REVERT JUMPDEST DUP4 CALLDATALOAD SWAP3 POP PUSH2 0x3655 PUSH1 0x20 DUP6 ADD PUSH2 0x3432 JUMP JUMPDEST SWAP2 POP PUSH1 0x40 DUP5 ADD CALLDATALOAD SWAP1 POP SWAP3 POP SWAP3 POP SWAP3 JUMP JUMPDEST PUSH4 0x4E487B71 PUSH1 0xE0 SHL PUSH1 0x0 MSTORE PUSH1 0x32 PUSH1 0x4 MSTORE PUSH1 0x24 PUSH1 0x0 REVERT JUMPDEST PUSH4 0x4E487B71 PUSH1 0xE0 SHL PUSH1 0x0 MSTORE PUSH1 0x11 PUSH1 0x4 MSTORE PUSH1 0x24 PUSH1 0x0 REVERT JUMPDEST PUSH1 0x0 PUSH1 0x1 DUP3 ADD PUSH2 0x36A3 JUMPI PUSH2 0x36A3 PUSH2 0x367B JUMP JUMPDEST POP PUSH1 0x1 ADD SWAP1 JUMP JUMPDEST PUSH1 0x20 DUP1 DUP3 MSTORE PUSH1 0x14 SWAP1 DUP3 ADD MSTORE PUSH20 0x4F6E6C792073686F702063616E20646F20697421 PUSH1 0x60 SHL PUSH1 0x40 DUP3 ADD MSTORE PUSH1 0x60 ADD SWAP1 JUMP JUMPDEST PUSH1 0x20 DUP1 DUP3 MSTORE PUSH1 0x23 SWAP1 DUP3 ADD MSTORE PUSH32 0x5468697320707572736861726520697320646F6E607420637265617465642079 PUSH1 0x40 DUP3 ADD MSTORE PUSH3 0x657421 PUSH1 0xE8 SHL PUSH1 0x60 DUP3 ADD MSTORE PUSH1 0x80 ADD SWAP1 JUMP JUMPDEST DUP1 DUP3 MUL DUP2 ISZERO DUP3 DUP3 DIV DUP5 EQ OR PUSH2 0x2E2B JUMPI PUSH2 0x2E2B PUSH2 0x367B JUMP JUMPDEST PUSH4 0x4E487B71 PUSH1 0xE0 SHL PUSH1 0x0 MSTORE PUSH1 0x21 PUSH1 0x4 MSTORE PUSH1 0x24 PUSH1 0x0 REVERT JUMPDEST DUP2 DUP2 SUB DUP2 DUP2 GT ISZERO PUSH2 0x2E2B JUMPI PUSH2 0x2E2B PUSH2 0x367B JUMP JUMPDEST PUSH1 0x1 DUP2 DUP2 SHR SWAP1 DUP3 AND DUP1 PUSH2 0x376F JUMPI PUSH1 0x7F DUP3 AND SWAP2 POP JUMPDEST PUSH1 0x20 DUP3 LT DUP2 SUB PUSH2 0x378F JUMPI PUSH4 0x4E487B71 PUSH1 0xE0 SHL PUSH1 0x0 MSTORE PUSH1 0x22 PUSH1 0x4 MSTORE PUSH1 0x24 PUSH1 0x0 REVERT JUMPDEST POP SWAP2 SWAP1 POP JUMP JUMPDEST PUSH1 0x20 DUP1 DUP3 MSTORE PUSH1 0x16 SWAP1 DUP3 ADD MSTORE PUSH22 0x4F6E6C7920636C69656E742063616E20646F20697421 PUSH1 0x50 SHL PUSH1 0x40 DUP3 ADD MSTORE PUSH1 0x60 ADD SWAP1 JUMP JUMPDEST PUSH4 0x4E487B71 PUSH1 0xE0 SHL PUSH1 0x0 MSTORE PUSH1 0x12 PUSH1 0x4 MSTORE PUSH1 0x24 PUSH1 0x0 REVERT JUMPDEST PUSH1 0x0 DUP3 PUSH2 0x37EA JUMPI PUSH2 0x37EA PUSH2 0x37C5 JUMP JUMPDEST POP DIV SWAP1 JUMP JUMPDEST PUSH1 0x1F DUP3 GT ISZERO PUSH2 0x933 JUMPI PUSH1 0x0 DUP2 DUP2 MSTORE PUSH1 0x20 DUP2 KECCAK256 PUSH1 0x1F DUP6 ADD PUSH1 0x5 SHR DUP2 ADD PUSH1 0x20 DUP7 LT ISZERO PUSH2 0x3816 JUMPI POP DUP1 JUMPDEST PUSH1 0x1F DUP6 ADD PUSH1 0x5 SHR DUP3 ADD SWAP2 POP JUMPDEST DUP2 DUP2 LT ISZERO PUSH2 0x3835 JUMPI DUP3 DUP2 SSTORE PUSH1 0x1 ADD PUSH2 0x3822 JUMP JUMPDEST POP POP POP POP POP POP JUMP JUMPDEST DUP2 MLOAD PUSH8 0xFFFFFFFFFFFFFFFF DUP2 GT ISZERO PUSH2 0x3857 JUMPI PUSH2 0x3857 PUSH2 0x34B3 JUMP JUMPDEST PUSH2 0x386B DUP2 PUSH2 0x3865 DUP5 SLOAD PUSH2 0x375B JUMP JUMPDEST DUP5 PUSH2 0x37EF JUMP JUMPDEST PUSH1 0x20 DUP1 PUSH1 0x1F DUP4 GT PUSH1 0x1 DUP2 EQ PUSH2 0x38A0 JUMPI PUSH1 0x0 DUP5 ISZERO PUSH2 0x3888 JUMPI POP DUP6 DUP4 ADD MLOAD JUMPDEST PUSH1 0x0 NOT PUSH1 0x3 DUP7 SWAP1 SHL SHR NOT AND PUSH1 0x1 DUP6 SWAP1 SHL OR DUP6 SSTORE PUSH2 0x3835 JUMP JUMPDEST PUSH1 0x0 DUP6 DUP2 MSTORE PUSH1 0x20 DUP2 KECCAK256 PUSH1 0x1F NOT DUP7 AND SWAP2 JUMPDEST DUP3 DUP2 LT ISZERO PUSH2 0x38CF JUMPI DUP9 DUP7 ADD MLOAD DUP3 SSTORE SWAP5 DUP5 ADD SWAP5 PUSH1 0x1 SWAP1 SWAP2 ADD SWAP1 DUP5 ADD PUSH2 0x38B0 JUMP JUMPDEST POP DUP6 DUP3 LT ISZERO PUSH2 0x38ED JUMPI DUP8 DUP6 ADD MLOAD PUSH1 0x0 NOT PUSH1 0x3 DUP9 SWAP1 SHL PUSH1 0xF8 AND SHR NOT AND DUP2 SSTORE JUMPDEST POP POP POP POP POP PUSH1 0x1 SWAP1 DUP2 SHL ADD SWAP1 SSTORE POP JUMP JUMPDEST DUP2 DUP2 SUB PUSH2 0x3908 JUMPI POP POP JUMP JUMPDEST PUSH2 0x3912 DUP3 SLOAD PUSH2 0x375B JUMP JUMPDEST PUSH8 0xFFFFFFFFFFFFFFFF DUP2 GT ISZERO PUSH2 0x392A JUMPI PUSH2 0x392A PUSH2 0x34B3 JUMP JUMPDEST PUSH2 0x3938 DUP2 PUSH2 0x3865 DUP5 SLOAD PUSH2 0x375B JUMP JUMPDEST PUSH1 0x0 PUSH1 0x1F DUP3 GT PUSH1 0x1 DUP2 EQ PUSH2 0x396C JUMPI PUSH1 0x0 DUP4 ISZERO PUSH2 0x3954 JUMPI POP DUP5 DUP3 ADD SLOAD JUMPDEST PUSH1 0x0 NOT PUSH1 0x3 DUP6 SWAP1 SHL SHR NOT AND PUSH1 0x1 DUP5 SWAP1 SHL OR DUP5 SSTORE PUSH2 0x181C JUMP JUMPDEST PUSH1 0x0 DUP6 DUP2 MSTORE PUSH1 0x20 SWAP1 KECCAK256 PUSH1 0x1F NOT DUP5 AND SWAP1 PUSH1 0x0 DUP7 DUP2 MSTORE PUSH1 0x20 SWAP1 KECCAK256 DUP5 JUMPDEST DUP4 DUP2 LT ISZERO PUSH2 0x39A6 JUMPI DUP3 DUP7 ADD SLOAD DUP3 SSTORE PUSH1 0x1 SWAP6 DUP7 ADD SWAP6 SWAP1 SWAP2 ADD SWAP1 PUSH1 0x20 ADD PUSH2 0x3986 JUMP JUMPDEST POP DUP6 DUP4 LT ISZERO PUSH2 0x38ED JUMPI SWAP4 ADD SLOAD PUSH1 0x0 NOT PUSH1 0xF8 PUSH1 0x3 DUP8 SWAP1 SHL AND SHR NOT AND SWAP1 SWAP3 SSTORE POP POP PUSH1 0x1 SWAP1 DUP2 SHL ADD SWAP1 SSTORE POP JUMP JUMPDEST DUP1 DUP3 ADD DUP1 DUP3 GT ISZERO PUSH2 0x2E2B JUMPI PUSH2 0x2E2B PUSH2 0x367B JUMP JUMPDEST PUSH1 0x0 JUMPDEST DUP4 DUP2 LT ISZERO PUSH2 0x39FE JUMPI DUP2 DUP2 ADD MLOAD DUP4 DUP3 ADD MSTORE PUSH1 0x20 ADD PUSH2 0x39E6 JUMP JUMPDEST POP POP PUSH1 0x0 SWAP2 ADD MSTORE JUMP JUMPDEST PUSH1 0x20 DUP2 MSTORE PUSH1 0x0 DUP3 MLOAD DUP1 PUSH1 0x20 DUP5 ADD MSTORE PUSH2 0x3A26 DUP2 PUSH1 0x40 DUP6 ADD PUSH1 0x20 DUP8 ADD PUSH2 0x39E3 JUMP JUMPDEST PUSH1 0x1F ADD PUSH1 0x1F NOT AND SWAP2 SWAP1 SWAP2 ADD PUSH1 0x40 ADD SWAP3 SWAP2 POP POP JUMP JUMPDEST PUSH1 0x0 DUP3 PUSH2 0x3A49 JUMPI PUSH2 0x3A49 PUSH2 0x37C5 JUMP JUMPDEST POP MOD SWAP1 JUMP JUMPDEST PUSH2 0x4141 PUSH1 0xF0 SHL DUP2 MSTORE PUSH1 0x0 DUP4 MLOAD PUSH2 0x3A6B DUP2 PUSH1 0x2 DUP6 ADD PUSH1 0x20 DUP9 ADD PUSH2 0x39E3 JUMP JUMPDEST DUP4 MLOAD SWAP1 DUP4 ADD SWAP1 PUSH2 0x3A82 DUP2 PUSH1 0x2 DUP5 ADD PUSH1 0x20 DUP9 ADD PUSH2 0x39E3 JUMP JUMPDEST ADD PUSH1 0x2 ADD SWAP5 SWAP4 POP POP POP POP JUMP INVALID CHAINID PUSH10 0x6E652C20696620796F75 KECCAK256 PUSH19 0x656A6563742074686973206F72646572202869 PUSH15 0x20302C2845746820636F756E742929 GASPRICE PUSH0 PUSH0 PUSH0 PUSH0 PUSH0 PUSH0 PUSH0 PUSH0 PUSH0 PUSH0 PUSH0 PUSH0 PUSH0 PUSH0 PUSH0 PUSH0 PUSH0 PUSH0 PUSH0 PUSH0 PUSH0 PUSH0 PUSH0 PUSH0 PUSH0 PUSH0 PUSH0 PUSH0 PUSH0 PUSH0 PUSH0 PUSH0 PUSH0 PUSH0 PUSH0 PUSH0 PUSH0 PUSH0 PUSH0 PUSH0 PUSH0 PUSH0 PUSH0 PREVRANDAO PUSH2 0x7973 KECCAK256 PUSH7 0x726F6D20737570 PUSH17 0x6C79206F6620746869732070726F647563 PUSH21 0x2069733A20596F75206E65656420746F2077616974 KECCAK256 PUSH26 0x6F7572206F7264657220666F723A202874656D706F7261726C79 KECCAK256 PUSH10 0x6E207365636F6E647329 PREVRANDAO PUSH16 0x6E652120596F7520686176652072656A PUSH6 0x637465642074 PUSH9 0x697320717565727279 0x21 LOG2 PUSH5 0x6970667358 0x22 SLT KECCAK256 0xD8 0xD2 0xE1 PUSH17 0x780C05C8063DB827E0C0D837760C14E779 0xB7 0xF7 RETURN PUSH5 0x8A02308995 0xBA 0xF7 PUSH5 0x736F6C6343 STOP ADDMOD ISZERO STOP CALLER "
		},
		"gasEstimates": {
			"creation": {
				"codeDepositCost": "3053200",
				"executionCost": "infinite",
				"totalCost": "infinite"
			},
			"external": {
				"CheckQuerries()": "infinite",
				"buyProd(uint256,uint256,uint256,string)": "infinite",
				"confirmOrder(bool,uint256)": "infinite",
				"confirmPurshare(uint256,bool,uint256)": "infinite",
				"confirmRejectQuerry(int256,uint256)": "infinite",
				"inviteYourFriend(address)": "infinite",
				"makeChangeRoleQuerry(uint8,string)": "infinite",
				"payDebt(uint256,uint256)": "infinite",
				"returnDebt(uint256)": "infinite",
				"returnProducts(uint256)": "infinite",
				"supply(uint256,uint256,uint256)": "infinite"
			},
			"internal": {
				"AddReferal(address)": "28731",
				"changeRole(uint256,string memory)": "infinite",
				"defineUserRole(address)": "infinite",
				"findByAdd(uint256,address)": "infinite",
				"generateRandNum(uint256)": "infinite",
				"generateTrackNum(uint256)": "infinite",
				"isCodeUsed(uint256)": "infinite",
				"isInvitedFound(address)": "infinite",
				"makeDeliveryDate()": "112",
				"makeDiscount(uint256)": "173",
				"removeRole()": "infinite"
			}
		},
		"methodIdentifiers": {
			"CheckQuerries()": "d0ccd213",
			"buyProd(uint256,uint256,uint256,string)": "db9c5571",
			"confirmOrder(bool,uint256)": "ab166be6",
			"confirmPurshare(uint256,bool,uint256)": "df8903d8",
			"confirmRejectQuerry(int256,uint256)": "b107cbce",
			"inviteYourFriend(address)": "bf6c0b48",
			"makeChangeRoleQuerry(uint8,string)": "d9bd29d4",
			"payDebt(uint256,uint256)": "62cc01e7",
			"returnDebt(uint256)": "d2cedf04",
			"returnProducts(uint256)": "eb277cf9",
			"supply(uint256,uint256,uint256)": "dd26d4d9"
		}
	},
	"abi": [
		{
			"inputs": [],
			"stateMutability": "nonpayable",
			"type": "constructor"
		},
		{
			"inputs": [],
			"name": "CheckQuerries",
			"outputs": [],
			"stateMutability": "view",
			"type": "function"
		},
		{
			"inputs": [
				{
					"internalType": "uint256",
					"name": "_prodId",
					"type": "uint256"
				},
				{
					"internalType": "uint256",
					"name": "prodCount",
					"type": "uint256"
				},
				{
					"internalType": "uint256",
					"name": "shopId",
					"type": "uint256"
				},
				{
					"internalType": "string",
					"name": "clientName",
					"type": "string"
				}
			],
			"name": "buyProd",
			"outputs": [],
			"stateMutability": "nonpayable",
			"type": "function"
		},
		{
			"inputs": [
				{
					"internalType": "bool",
					"name": "isApproved",
					"type": "bool"
				},
				{
					"internalType": "uint256",
					"name": "purshareId",
					"type": "uint256"
				}
			],
			"name": "confirmOrder",
			"outputs": [],
			"stateMutability": "payable",
			"type": "function"
		},
		{
			"inputs": [
				{
					"internalType": "uint256",
					"name": "purshareId",
					"type": "uint256"
				},
				{
					"internalType": "bool",
					"name": "isConfirmed",
					"type": "bool"
				},
				{
					"internalType": "uint256",
					"name": "inviteCode",
					"type": "uint256"
				}
			],
			"name": "confirmPurshare",
			"outputs": [],
			"stateMutability": "payable",
			"type": "function"
		},
		{
			"inputs": [
				{
					"internalType": "int256",
					"name": "querryId",
					"type": "int256"
				},
				{
					"internalType": "uint256",
					"name": "confirmCode",
					"type": "uint256"
				}
			],
			"name": "confirmRejectQuerry",
			"outputs": [],
			"stateMutability": "nonpayable",
			"type": "function"
		},
		{
			"inputs": [
				{
					"internalType": "address",
					"name": "friendAddress",
					"type": "address"
				}
			],
			"name": "inviteYourFriend",
			"outputs": [],
			"stateMutability": "nonpayable",
			"type": "function"
		},
		{
			"inputs": [
				{
					"internalType": "enum BuyingInShop.Role",
					"name": "_role",
					"type": "uint8"
				},
				{
					"internalType": "string",
					"name": "name",
					"type": "string"
				}
			],
			"name": "makeChangeRoleQuerry",
			"outputs": [],
			"stateMutability": "nonpayable",
			"type": "function"
		},
		{
			"inputs": [
				{
					"internalType": "uint256",
					"name": "purshareId",
					"type": "uint256"
				},
				{
					"internalType": "uint256",
					"name": "shopId",
					"type": "uint256"
				}
			],
			"name": "payDebt",
			"outputs": [],
			"stateMutability": "payable",
			"type": "function"
		},
		{
			"inputs": [
				{
					"internalType": "uint256",
					"name": "purshareId",
					"type": "uint256"
				}
			],
			"name": "returnDebt",
			"outputs": [],
			"stateMutability": "payable",
			"type": "function"
		},
		{
			"inputs": [
				{
					"internalType": "uint256",
					"name": "purshareId",
					"type": "uint256"
				}
			],
			"name": "returnProducts",
			"outputs": [],
			"stateMutability": "nonpayable",
			"type": "function"
		},
		{
			"inputs": [
				{
					"internalType": "uint256",
					"name": "__prodId",
					"type": "uint256"
				},
				{
					"internalType": "uint256",
					"name": "_prodCount",
					"type": "uint256"
				},
				{
					"internalType": "uint256",
					"name": "supId",
					"type": "uint256"
				}
			],
			"name": "supply",
			"outputs": [],
			"stateMutability": "payable",
			"type": "function"
		}
	]
}