{
	"data": {
		"bytecode": {
			"linkReferences": {},
			"object": "6080604052426005554260065560006007553480156200001e57600080fd5b506040518060400160405280600d81526020017f43727970746f4d6f6e73746572000000000000000000000000000000000000008152506040518060400160405280600481526020017f434d4f4e0000000000000000000000000000000000000000000000000000000081525081600390816200009c91906200212d565b508060049081620000ae91906200212d565b505050620000f033620000c6620013c860201b60201c565b600a620000d49190620023a4565b62989680620000e49190620023f5565b620013d160201b60201c565b6040518060e001604052806040518060400160405280600581526020017f6f776e657200000000000000000000000000000000000000000000000000000081525081526020013373ffffffffffffffffffffffffffffffffffffffff1681526020016001151581526020016200016b620013c860201b60201c565b600a620001799190620023a4565b620f4240620001899190620023f5565b81526020016200019e620013c860201b60201c565b600a620001ac9190620023a4565b622dc6c0620001bc9190620023f5565b8152602001620001d1620013c860201b60201c565b600a620001df9190620023a4565b625b8d80620001ef9190620023f5565b81526020016003808111156200020a576200020962002440565b5b815250600b60003373ffffffffffffffffffffffffffffffffffffffff1673ffffffffffffffffffffffffffffffffffffffff16815260200190815260200160002060008201518160000190816200026391906200212d565b5060208201518160010160006101000a81548173ffffffffffffffffffffffffffffffffffffffff021916908373ffffffffffffffffffffffffffffffffffffffff16021790555060408201518160010160146101000a81548160ff021916908315150217905550606082015181600201556080820151816003015560a0820151816004015560c08201518160050160006101000a81548160ff0219169083600381111562000317576200031662002440565b5b02179055509050506040516020016200033090620024d0565b60405160208183030381529060405280519060200120600d60405162000356906200254d565b90815260200160405180910390208190555033600c60405162000379906200254d565b908152602001604051809103902060006101000a81548173ffffffffffffffffffffffffffffffffffffffff021916908373ffffffffffffffffffffffffffffffffffffffff1602179055506040518060e001604052806040518060400160405280600981526020017f707269762070726f7600000000000000000000000000000000000000000000008152508152602001734b0897b0513fdc7c541b6d9d7e929c4e5364d2db73ffffffffffffffffffffffffffffffffffffffff1681526020016001151581526020016000815260200160008152602001600081526020016001600381111562000470576200046f62002440565b5b815250600b6000734b0897b0513fdc7c541b6d9d7e929c4e5364d2db73ffffffffffffffffffffffffffffffffffffffff1673ffffffffffffffffffffffffffffffffffffffff1681526020019081526020016000206000820151816000019081620004dd91906200212d565b5060208201518160010160006101000a81548173ffffffffffffffffffffffffffffffffffffffff021916908373ffffffffffffffffffffffffffffffffffffffff16021790555060408201518160010160146101000a81548160ff021916908315150217905550606082015181600201556080820151816003015560a0820151816004015560c08201518160050160006101000a81548160ff0219169083600381111562000591576200059062002440565b5b0217905550905050604051602001620005aa90620024d0565b60405160208183030381529060405280519060200120600d604051620005d090620025b4565b908152602001604051809103902081905550734b0897b0513fdc7c541b6d9d7e929c4e5364d2db600c6040516200060790620025b4565b908152602001604051809103902060006101000a81548173ffffffffffffffffffffffffffffffffffffffff021916908373ffffffffffffffffffffffffffffffffffffffff1602179055506040518060e001604052806040518060400160405280600881526020017f7075622070726f76000000000000000000000000000000000000000000000000815250815260200173583031d1113ad414f02576bd6afabfb30214022573ffffffffffffffffffffffffffffffffffffffff16815260200160011515815260200160008152602001600081526020016000815260200160026003811115620006fe57620006fd62002440565b5b815250600b600073583031d1113ad414f02576bd6afabfb30214022573ffffffffffffffffffffffffffffffffffffffff1673ffffffffffffffffffffffffffffffffffffffff16815260200190815260200160002060008201518160000190816200076b91906200212d565b5060208201518160010160006101000a81548173ffffffffffffffffffffffffffffffffffffffff021916908373ffffffffffffffffffffffffffffffffffffffff16021790555060408201518160010160146101000a81548160ff021916908315150217905550606082015181600201556080820151816003015560a0820151816004015560c08201518160050160006101000a81548160ff021916908360038111156200081f576200081e62002440565b5b02179055509050506040516020016200083890620024d0565b60405160208183030381529060405280519060200120600d6040516200085e906200261b565b90815260200160405180910390208190555073583031d1113ad414f02576bd6afabfb302140225600c60405162000895906200261b565b908152602001604051809103902060006101000a81548173ffffffffffffffffffffffffffffffffffffffff021916908373ffffffffffffffffffffffffffffffffffffffff1602179055506040518060e001604052806040518060400160405280600481526020017f696e7631000000000000000000000000000000000000000000000000000000008152508152602001735b38da6a701c568545dcfcb03fcb875f56beddc473ffffffffffffffffffffffffffffffffffffffff16815260200160011515815260200162000970620013c860201b60201c565b600a6200097e9190620023a4565b620493e06200098e9190620023f5565b8152602001600081526020016000815260200160006003811115620009b857620009b762002440565b5b815250600b6000735b38da6a701c568545dcfcb03fcb875f56beddc473ffffffffffffffffffffffffffffffffffffffff1673ffffffffffffffffffffffffffffffffffffffff168152602001908152602001600020600082015181600001908162000a2591906200212d565b5060208201518160010160006101000a81548173ffffffffffffffffffffffffffffffffffffffff021916908373ffffffffffffffffffffffffffffffffffffffff16021790555060408201518160010160146101000a81548160ff021916908315150217905550606082015181600201556080820151816003015560a0820151816004015560c08201518160050160006101000a81548160ff0219169083600381111562000ad95762000ad862002440565b5b021790555090505060405160200162000af290620024d0565b60405160208183030381529060405280519060200120600d6040518060400160405280600481526020017f696e76310000000000000000000000000000000000000000000000000000000081525060405162000b4f919062002695565b908152602001604051809103902081905550735b38da6a701c568545dcfcb03fcb875f56beddc4600c6040518060400160405280600481526020017f696e76310000000000000000000000000000000000000000000000000000000081525060405162000bbd919062002695565b908152602001604051809103902060006101000a81548173ffffffffffffffffffffffffffffffffffffffff021916908373ffffffffffffffffffffffffffffffffffffffff1602179055506040518060e001604052806040518060400160405280600481526020017f696e763200000000000000000000000000000000000000000000000000000000815250815260200173ab8483f64d9c6d1ecf9b849ae677dd3315835cb273ffffffffffffffffffffffffffffffffffffffff16815260200160011515815260200162000c98620013c860201b60201c565b600a62000ca69190620023a4565b62061a8062000cb69190620023f5565b815260200160008152602001600081526020016000600381111562000ce05762000cdf62002440565b5b815250600b600073ab8483f64d9c6d1ecf9b849ae677dd3315835cb273ffffffffffffffffffffffffffffffffffffffff1673ffffffffffffffffffffffffffffffffffffffff168152602001908152602001600020600082015181600001908162000d4d91906200212d565b5060208201518160010160006101000a81548173ffffffffffffffffffffffffffffffffffffffff021916908373ffffffffffffffffffffffffffffffffffffffff16021790555060408201518160010160146101000a81548160ff021916908315150217905550606082015181600201556080820151816003015560a0820151816004015560c08201518160050160006101000a81548160ff0219169083600381111562000e015762000e0062002440565b5b021790555090505060405160200162000e1a90620024d0565b60405160208183030381529060405280519060200120600d60405162000e4090620026fe565b90815260200160405180910390208190555073ab8483f64d9c6d1ecf9b849ae677dd3315835cb2600c60405162000e7790620026fe565b908152602001604051809103902060006101000a81548173ffffffffffffffffffffffffffffffffffffffff021916908373ffffffffffffffffffffffffffffffffffffffff1602179055506040518060e001604052806040518060400160405280600681526020017f667269656e6400000000000000000000000000000000000000000000000000008152508152602001734b20993bc481177ec7e8f571cecae8a9e22c02db73ffffffffffffffffffffffffffffffffffffffff16815260200160011515815260200162000f52620013c860201b60201c565b600a62000f609190620023a4565b62030d4062000f709190620023f5565b815260200160008152602001600081526020016000600381111562000f9a5762000f9962002440565b5b815250600b6000734b20993bc481177ec7e8f571cecae8a9e22c02db73ffffffffffffffffffffffffffffffffffffffff1673ffffffffffffffffffffffffffffffffffffffff16815260200190815260200160002060008201518160000190816200100791906200212d565b5060208201518160010160006101000a81548173ffffffffffffffffffffffffffffffffffffffff021916908373ffffffffffffffffffffffffffffffffffffffff16021790555060408201518160010160146101000a81548160ff021916908315150217905550606082015181600201556080820151816003015560a0820151816004015560c08201518160050160006101000a81548160ff02191690836003811115620010bb57620010ba62002440565b5b0217905550905050604051602001620010d490620024d0565b60405160208183030381529060405280519060200120600d604051620010fa9062002765565b908152602001604051809103902081905550734b20993bc481177ec7e8f571cecae8a9e22c02db600c604051620011319062002765565b908152602001604051809103902060006101000a81548173ffffffffffffffffffffffffffffffffffffffff021916908373ffffffffffffffffffffffffffffffffffffffff1602179055506200118d6200153e60201b60201c565b506200124a600c604051620011a2906200254d565b908152602001604051809103902060009054906101000a900473ffffffffffffffffffffffffffffffffffffffff16600c604051620011e190620027cc565b908152602001604051809103902060009054906101000a900473ffffffffffffffffffffffffffffffffffffffff1662001220620013c860201b60201c565b600a6200122e9190620023a4565b620493e06200123e9190620023f5565b620016c860201b60201c565b62001306600c6040516200125e906200254d565b908152602001604051809103902060009054906101000a900473ffffffffffffffffffffffffffffffffffffffff16600c6040516200129d90620026fe565b908152602001604051809103902060009054906101000a900473ffffffffffffffffffffffffffffffffffffffff16620012dc620013c860201b60201c565b600a620012ea9190620023a4565b62061a80620012fa9190620023f5565b620016c860201b60201c565b620013c2600c6040516200131a906200254d565b908152602001604051809103902060009054906101000a900473ffffffffffffffffffffffffffffffffffffffff16600c604051620013599062002765565b908152602001604051809103902060009054906101000a900473ffffffffffffffffffffffffffffffffffffffff1662001398620013c860201b60201c565b600a620013a69190620023a4565b62030d40620013b69190620023f5565b620016c860201b60201c565b62002ac1565b6000600c905090565b600073ffffffffffffffffffffffffffffffffffffffff168273ffffffffffffffffffffffffffffffffffffffff160362001443576040517f08c379a00000000000000000000000000000000000000000000000000000000081526004016200143a9062002833565b60405180910390fd5b62001457600083836200195960201b60201c565b80600260008282546200146b919062002855565b92505081905550806000808473ffffffffffffffffffffffffffffffffffffffff1673ffffffffffffffffffffffffffffffffffffffff168152602001908152602001600020600082825401925050819055508173ffffffffffffffffffffffffffffffffffffffff16600073ffffffffffffffffffffffffffffffffffffffff167fddf252ad1be2c89b69c2b068fc378daa952ba7f163c4a11628f55a4df523b3ef836040516200151e9190620028a1565b60405180910390a36200153a600083836200195e60201b60201c565b5050565b60006007544262001550919062002855565b60058190555060006006546005546200156a9190620028be565b905061012c811180156200157f575061038481105b8015620015c65750600160028111156200159e576200159d62002440565b5b600a60009054906101000a900460ff166002811115620015c357620015c262002440565b5b14155b1562001620576001600a60006101000a81548160ff02191690836002811115620015f557620015f462002440565b5b02179055506200161a600a60009054906101000a900460ff166200196360201b60201c565b620016c1565b610384811180156200166b575060028081111562001643576200164262002440565b5b600a60009054906101000a900460ff16600281111562001668576200166762002440565b5b14155b15620016c0576002600a60006101000a81548160ff021916908360028111156200169a576200169962002440565b5b0217905550620016bf600a60009054906101000a900460ff166200196360201b60201c565b5b5b8091505090565b600073ffffffffffffffffffffffffffffffffffffffff168373ffffffffffffffffffffffffffffffffffffffff16036200173a576040517f08c379a000000000000000000000000000000000000000000000000000000000815260040162001731906200296f565b60405180910390fd5b600073ffffffffffffffffffffffffffffffffffffffff168273ffffffffffffffffffffffffffffffffffffffff1603620017ac576040517f08c379a0000000000000000000000000000000000000000000000000000000008152600401620017a39062002a07565b60405180910390fd5b620017bf8383836200195960201b60201c565b60008060008573ffffffffffffffffffffffffffffffffffffffff1673ffffffffffffffffffffffffffffffffffffffff1681526020019081526020016000205490508181101562001848576040517f08c379a00000000000000000000000000000000000000000000000000000000081526004016200183f9062002a9f565b60405180910390fd5b8181036000808673ffffffffffffffffffffffffffffffffffffffff1673ffffffffffffffffffffffffffffffffffffffff16815260200190815260200160002081905550816000808573ffffffffffffffffffffffffffffffffffffffff1673ffffffffffffffffffffffffffffffffffffffff168152602001908152602001600020600082825401925050819055508273ffffffffffffffffffffffffffffffffffffffff168473ffffffffffffffffffffffffffffffffffffffff167fddf252ad1be2c89b69c2b068fc378daa952ba7f163c4a11628f55a4df523b3ef84604051620019389190620028a1565b60405180910390a3620019538484846200195e60201b60201c565b50505050565b505050565b505050565b600160028111156200197a576200197962002440565b5b81600281111562001990576200198f62002440565b5b0362001c26576602aa1efb94e000600881905550620019b4620013c860201b60201c565b600a620019c29190620023a4565b620186a0620019d29190620023f5565b600981905550620019e8620013c860201b60201c565b600a620019f69190620023a4565b622dc6c062001a069190620023f5565b600b6000600c60405162001a1a906200254d565b908152602001604051809103902060009054906101000a900473ffffffffffffffffffffffffffffffffffffffff1673ffffffffffffffffffffffffffffffffffffffff1673ffffffffffffffffffffffffffffffffffffffff168152602001908152602001600020600301600082825462001a979190620028be565b9250508190555062001aae620013c860201b60201c565b600a62001abc9190620023a4565b622dc6c062001acc9190620023f5565b600b6000600c60405162001ae090620025b4565b908152602001604051809103902060009054906101000a900473ffffffffffffffffffffffffffffffffffffffff1673ffffffffffffffffffffffffffffffffffffffff1673ffffffffffffffffffffffffffffffffffffffff168152602001908152602001600020600301600082825462001b5d919062002855565b9250508190555062001c20600c60405162001b78906200254d565b908152602001604051809103902060009054906101000a900473ffffffffffffffffffffffffffffffffffffffff16600c60405162001bb790620025b4565b908152602001604051809103902060009054906101000a900473ffffffffffffffffffffffffffffffffffffffff1662001bf6620013c860201b60201c565b600a62001c049190620023a4565b622dc6c062001c149190620023f5565b620016c860201b60201c565b62001eb0565b66038d7ea4c6800060088190555062001c44620013c860201b60201c565b600a62001c529190620023a4565b61138862001c619190620023f5565b60098190555062001c77620013c860201b60201c565b600a62001c859190620023a4565b625b8d8062001c959190620023f5565b600b6000600c60405162001ca9906200254d565b908152602001604051809103902060009054906101000a900473ffffffffffffffffffffffffffffffffffffffff1673ffffffffffffffffffffffffffffffffffffffff1673ffffffffffffffffffffffffffffffffffffffff168152602001908152602001600020600401600082825462001d269190620028be565b9250508190555062001d3d620013c860201b60201c565b600a62001d4b9190620023a4565b625b8d8062001d5b9190620023f5565b600b6000600c60405162001d6f906200261b565b908152602001604051809103902060009054906101000a900473ffffffffffffffffffffffffffffffffffffffff1673ffffffffffffffffffffffffffffffffffffffff1673ffffffffffffffffffffffffffffffffffffffff168152602001908152602001600020600401600082825462001dec919062002855565b9250508190555062001eaf600c60405162001e07906200254d565b908152602001604051809103902060009054906101000a900473ffffffffffffffffffffffffffffffffffffffff16600c60405162001e46906200261b565b908152602001604051809103902060009054906101000a900473ffffffffffffffffffffffffffffffffffffffff1662001e85620013c860201b60201c565b600a62001e939190620023a4565b625b8d8062001ea39190620023f5565b620016c860201b60201c565b5b50565b600081519050919050565b7f4e487b7100000000000000000000000000000000000000000000000000000000600052604160045260246000fd5b7f4e487b7100000000000000000000000000000000000000000000000000000000600052602260045260246000fd5b6000600282049050600182168062001f3557607f821691505b60208210810362001f4b5762001f4a62001eed565b5b50919050565b60008190508160005260206000209050919050565b60006020601f8301049050919050565b600082821b905092915050565b60006008830262001fb57fffffffffffffffffffffffffffffffffffffffffffffffffffffffffffffffff8262001f76565b62001fc1868362001f76565b95508019841693508086168417925050509392505050565b6000819050919050565b6000819050919050565b60006200200e62002008620020028462001fd9565b62001fe3565b62001fd9565b9050919050565b6000819050919050565b6200202a8362001fed565b62002042620020398262002015565b84845462001f83565b825550505050565b600090565b620020596200204a565b620020668184846200201f565b505050565b5b818110156200208e57620020826000826200204f565b6001810190506200206c565b5050565b601f821115620020dd57620020a78162001f51565b620020b28462001f66565b81016020851015620020c2578190505b620020da620020d18562001f66565b8301826200206b565b50505b505050565b600082821c905092915050565b60006200210260001984600802620020e2565b1980831691505092915050565b60006200211d8383620020ef565b9150826002028217905092915050565b620021388262001eb3565b67ffffffffffffffff81111562002154576200215362001ebe565b5b62002160825462001f1c565b6200216d82828562002092565b600060209050601f831160018114620021a5576000841562002190578287015190505b6200219c85826200210f565b8655506200220c565b601f198416620021b58662001f51565b60005b82811015620021df57848901518255600182019150602085019450602081019050620021b8565b86831015620021ff5784890151620021fb601f891682620020ef565b8355505b6001600288020188555050505b505050505050565b7f4e487b7100000000000000000000000000000000000000000000000000000000600052601160045260246000fd5b60008160011c9050919050565b6000808291508390505b6001851115620022a2578086048111156200227a576200227962002214565b5b60018516156200228a5780820291505b80810290506200229a8562002243565b94506200225a565b94509492505050565b600082620022bd576001905062002390565b81620022cd576000905062002390565b8160018114620022e65760028114620022f15762002327565b600191505062002390565b60ff84111562002306576200230562002214565b5b8360020a91508482111562002320576200231f62002214565b5b5062002390565b5060208310610133831016604e8410600b8410161715620023615782820a9050838111156200235b576200235a62002214565b5b62002390565b62002370848484600162002250565b925090508184048111156200238a576200238962002214565b5b81810290505b9392505050565b600060ff82169050919050565b6000620023b18262001fd9565b9150620023be8362002397565b9250620023ed7fffffffffffffffffffffffffffffffffffffffffffffffffffffffffffffffff8484620022ab565b905092915050565b6000620024028262001fd9565b91506200240f8362001fd9565b92508282026200241f8162001fd9565b9150828204841483151762002439576200243862002214565b5b5092915050565b7f4e487b7100000000000000000000000000000000000000000000000000000000600052602160045260246000fd5b600082825260208201905092915050565b7f3132330000000000000000000000000000000000000000000000000000000000600082015250565b6000620024b86003836200246f565b9150620024c58262002480565b602082019050919050565b60006020820190508181036000830152620024eb81620024a9565b9050919050565b600081905092915050565b7f6f776e6572000000000000000000000000000000000000000000000000000000600082015250565b600062002535600583620024f2565b91506200254282620024fd565b600582019050919050565b60006200255a8262002526565b9150819050919050565b7f707269762070726f760000000000000000000000000000000000000000000000600082015250565b60006200259c600983620024f2565b9150620025a98262002564565b600982019050919050565b6000620025c1826200258d565b9150819050919050565b7f7075622070726f76000000000000000000000000000000000000000000000000600082015250565b600062002603600883620024f2565b91506200261082620025cb565b600882019050919050565b60006200262882620025f4565b9150819050919050565b60005b838110156200265257808201518184015260208101905062002635565b60008484015250505050565b60006200266b8262001eb3565b620026778185620024f2565b93506200268981856020860162002632565b80840191505092915050565b6000620026a382846200265e565b915081905092915050565b7f696e763200000000000000000000000000000000000000000000000000000000600082015250565b6000620026e6600483620024f2565b9150620026f382620026ae565b600482019050919050565b60006200270b82620026d7565b9150819050919050565b7f667269656e640000000000000000000000000000000000000000000000000000600082015250565b60006200274d600683620024f2565b91506200275a8262002715565b600682019050919050565b600062002772826200273e565b9150819050919050565b7f696e763100000000000000000000000000000000000000000000000000000000600082015250565b6000620027b4600483620024f2565b9150620027c1826200277c565b600482019050919050565b6000620027d982620027a5565b9150819050919050565b7f45524332303a206d696e7420746f20746865207a65726f206164647265737300600082015250565b60006200281b601f836200246f565b91506200282882620027e3565b602082019050919050565b600060208201905081810360008301526200284e816200280c565b9050919050565b6000620028628262001fd9565b91506200286f8362001fd9565b92508282019050808211156200288a576200288962002214565b5b92915050565b6200289b8162001fd9565b82525050565b6000602082019050620028b8600083018462002890565b92915050565b6000620028cb8262001fd9565b9150620028d88362001fd9565b9250828203905081811115620028f357620028f262002214565b5b92915050565b7f45524332303a207472616e736665722066726f6d20746865207a65726f20616460008201527f6472657373000000000000000000000000000000000000000000000000000000602082015250565b6000620029576025836200246f565b91506200296482620028f9565b604082019050919050565b600060208201905081810360008301526200298a8162002948565b9050919050565b7f45524332303a207472616e7366657220746f20746865207a65726f206164647260008201527f6573730000000000000000000000000000000000000000000000000000000000602082015250565b6000620029ef6023836200246f565b9150620029fc8262002991565b604082019050919050565b6000602082019050818103600083015262002a2281620029e0565b9050919050565b7f45524332303a207472616e7366657220616d6f756e742065786365656473206260008201527f616c616e63650000000000000000000000000000000000000000000000000000602082015250565b600062002a876026836200246f565b915062002a948262002a29565b604082019050919050565b6000602082019050818103600083015262002aba8162002a78565b9050919050565b61488d8062002ad16000396000f3fe60806040526004361061011f5760003560e01c8063817c1e07116100a0578063a469a33211610064578063a469a332146103da578063a9059cbb14610403578063da452c0414610440578063dd62ed3e14610469578063e4d69fbd146104a65761011f565b8063817c1e071461030957806395d89b41146103325780639b9aa3eb1461035d578063a33dc9fa14610374578063a457c2d71461039d5761011f565b80632c162dbc116100e75780632c162dbc1461020b5780632d296bf114610248578063313ce56714610264578063395093511461028f57806370a08231146102cc5761011f565b806306fdde0314610124578063095ea7b31461014f5780630bab83881461018c57806318160ddd146101a357806323b872dd146101ce575b600080fd5b34801561013057600080fd5b506101396104bd565b6040516101469190612d77565b60405180910390f35b34801561015b57600080fd5b5061017660048036038101906101719190612e41565b61054f565b6040516101839190612e9c565b60405180910390f35b34801561019857600080fd5b506101a1610572565b005b3480156101af57600080fd5b506101b8610593565b6040516101c59190612ec6565b60405180910390f35b3480156101da57600080fd5b506101f560048036038101906101f09190612ee1565b61059d565b6040516102029190612e9c565b60405180910390f35b34801561021757600080fd5b50610232600480360381019061022d9190613069565b6105cc565b60405161023f919061326b565b60405180910390f35b610262600480360381019061025d919061328d565b61084f565b005b34801561027057600080fd5b50610279610acf565b60405161028691906132d6565b60405180910390f35b34801561029b57600080fd5b506102b660048036038101906102b19190612e41565b610ad8565b6040516102c39190612e9c565b60405180910390f35b3480156102d857600080fd5b506102f360048036038101906102ee91906132f1565b610b0f565b6040516103009190612ec6565b60405180910390f35b34801561031557600080fd5b50610330600480360381019061032b919061334a565b610b57565b005b34801561033e57600080fd5b50610347610c9d565b6040516103549190612d77565b60405180910390f35b34801561036957600080fd5b50610372610d2f565b005b34801561038057600080fd5b5061039b600480360381019061039691906133a3565b610f66565b005b3480156103a957600080fd5b506103c460048036038101906103bf9190612e41565b61152c565b6040516103d19190612e9c565b60405180910390f35b3480156103e657600080fd5b5061040160048036038101906103fc9190613069565b6115a3565b005b34801561040f57600080fd5b5061042a60048036038101906104259190612e41565b611989565b6040516104379190612e9c565b60405180910390f35b34801561044c57600080fd5b50610467600480360381019061046291906133ff565b6119ac565b005b34801561047557600080fd5b50610490600480360381019061048b919061343f565b611b09565b60405161049d9190612ec6565b60405180910390f35b3480156104b257600080fd5b506104bb611b90565b005b6060600380546104cc906134ae565b80601f01602080910402602001604051908101604052809291908181526020018280546104f8906134ae565b80156105455780601f1061051a57610100808354040283529160200191610545565b820191906000526020600020905b81548152906001019060200180831161052857829003601f168201915b5050505050905090565b60008061055a611bb5565b9050610567818585611bbd565b600191505092915050565b600061057c611d86565b905061058781611ee4565b61058f611d86565b5050565b6000600254905090565b6000806105a8611bb5565b90506105b5858285611f7d565b6105c0858585612009565b60019150509392505050565b6105d4612c19565b816040516020016105e59190612d77565b60405160208183030381529060405280519060200120600d8460405161060b919061351b565b9081526020016040518091039020541461065a576040517f08c379a00000000000000000000000000000000000000000000000000000000081526004016106519061357e565b60405180910390fd5b610662611d86565b50600b6000600c85604051610677919061351b565b908152602001604051809103902060009054906101000a900473ffffffffffffffffffffffffffffffffffffffff1673ffffffffffffffffffffffffffffffffffffffff1673ffffffffffffffffffffffffffffffffffffffff1681526020019081526020016000206040518060e00160405290816000820180546106fb906134ae565b80601f0160208091040260200160405190810160405280929190818152602001828054610727906134ae565b80156107745780601f1061074957610100808354040283529160200191610774565b820191906000526020600020905b81548152906001019060200180831161075757829003601f168201915b505050505081526020016001820160009054906101000a900473ffffffffffffffffffffffffffffffffffffffff1673ffffffffffffffffffffffffffffffffffffffff1673ffffffffffffffffffffffffffffffffffffffff1681526020016001820160149054906101000a900460ff161515151581526020016002820154815260200160038201548152602001600482015481526020016005820160009054906101000a900460ff16600381111561083157610830613158565b5b600381111561084357610842613158565b5b81525050905092915050565b600954811115610894576040517f08c379a000000000000000000000000000000000000000000000000000000000815260040161088b9061365c565b60405180910390fd5b600060028111156108a8576108a7613158565b5b600a60009054906101000a900460ff1660028111156108ca576108c9613158565b5b0361090a576040517f08c379a0000000000000000000000000000000000000000000000000000000008152600401610901906136ee565b60405180910390fd5b3481600854610919919061373d565b111561095a576040517f08c379a0000000000000000000000000000000000000000000000000000000008152600401610951906137f1565b60405180910390fd5b6001600281111561096e5761096d613158565b5b600a60009054906101000a900460ff1660028111156109905761098f613158565b5b03610a795760011515600b60003373ffffffffffffffffffffffffffffffffffffffff1673ffffffffffffffffffffffffffffffffffffffff16815260200190815260200160002060010160149054906101000a900460ff16151514610a2b576040517f08c379a0000000000000000000000000000000000000000000000000000000008152600401610a2290613883565b60405180910390fd5b610a74600c604051610a3c906138ef565b908152602001604051809103902060009054906101000a900473ffffffffffffffffffffffffffffffffffffffff163383600161227f565b610ac3565b610ac2600c604051610a8a90613950565b908152602001604051809103902060009054906101000a900473ffffffffffffffffffffffffffffffffffffffff163383600261227f565b5b610acb611d86565b5050565b6000600c905090565b600080610ae3611bb5565b9050610b04818585610af58589611b09565b610aff9190613965565b611bbd565b600191505092915050565b60008060008373ffffffffffffffffffffffffffffffffffffffff1673ffffffffffffffffffffffffffffffffffffffff168152602001908152602001600020549050919050565b6002600b60003373ffffffffffffffffffffffffffffffffffffffff1673ffffffffffffffffffffffffffffffffffffffff16815260200190815260200160002060050160009054906101000a900460ff166003811115610bbb57610bba613158565b5b816003811115610bce57610bcd613158565b5b14610c0e576040517f08c379a0000000000000000000000000000000000000000000000000000000008152600401610c0590613a0b565b60405180910390fd5b6002806002811115610c2357610c22613158565b5b600a60009054906101000a900460ff166002811115610c4557610c44613158565b5b14610c85576040517f08c379a0000000000000000000000000000000000000000000000000000000008152600401610c7c90613a9d565b60405180910390fd5b8260ff16600881905550610c97611d86565b50505050565b606060048054610cac906134ae565b80601f0160208091040260200160405190810160405280929190818152602001828054610cd8906134ae565b8015610d255780601f10610cfa57610100808354040283529160200191610d25565b820191906000526020600020905b815481529060010190602001808311610d0857829003601f168201915b5050505050905090565b6000806002811115610d4457610d43613158565b5b600a60009054906101000a900460ff166002811115610d6657610d65613158565b5b14610da6576040517f08c379a0000000000000000000000000000000000000000000000000000000008152600401610d9d90613a9d565b60405180910390fd5b6040518060600160405280600b60003373ffffffffffffffffffffffffffffffffffffffff1673ffffffffffffffffffffffffffffffffffffffff1681526020019081526020016000206000018054610dfe906134ae565b80601f0160208091040260200160405190810160405280929190818152602001828054610e2a906134ae565b8015610e775780601f10610e4c57610100808354040283529160200191610e77565b820191906000526020600020905b815481529060010190602001808311610e5a57829003601f168201915b505050505081526020013373ffffffffffffffffffffffffffffffffffffffff16815260200160001515815250600e60003373ffffffffffffffffffffffffffffffffffffffff1673ffffffffffffffffffffffffffffffffffffffff1681526020019081526020016000206000820151816000019081610ef89190613c69565b5060208201518160010160006101000a81548173ffffffffffffffffffffffffffffffffffffffff021916908373ffffffffffffffffffffffffffffffffffffffff16021790555060408201518160010160146101000a81548160ff02191690831515021790555090505050565b6000806002811115610f7b57610f7a613158565b5b600a60009054906101000a900460ff166002811115610f9d57610f9c613158565b5b14610fdd576040517f08c379a0000000000000000000000000000000000000000000000000000000008152600401610fd490613a9d565b60405180910390fd5b6001600b60003373ffffffffffffffffffffffffffffffffffffffff1673ffffffffffffffffffffffffffffffffffffffff16815260200190815260200160002060050160009054906101000a900460ff16600381111561104157611040613158565b5b81600381111561105457611053613158565b5b14611094576040517f08c379a000000000000000000000000000000000000000000000000000000000815260040161108b90613a0b565b60405180910390fd5b600073ffffffffffffffffffffffffffffffffffffffff16600c856040516110bc919061351b565b908152602001604051809103902060009054906101000a900473ffffffffffffffffffffffffffffffffffffffff1673ffffffffffffffffffffffffffffffffffffffff1603611141576040517f08c379a000000000000000000000000000000000000000000000000000000000815260040161113890613d87565b60405180910390fd5b6001151583151503611425576001600b6000600c87604051611163919061351b565b908152602001604051809103902060009054906101000a900473ffffffffffffffffffffffffffffffffffffffff1673ffffffffffffffffffffffffffffffffffffffff1673ffffffffffffffffffffffffffffffffffffffff16815260200190815260200160002060010160146101000a81548160ff0219169083151502179055506040518060600160405280858152602001600c86604051611207919061351b565b908152602001604051809103902060009054906101000a900473ffffffffffffffffffffffffffffffffffffffff1673ffffffffffffffffffffffffffffffffffffffff16815260200160011515815250600f6000600c8760405161126c919061351b565b908152602001604051809103902060009054906101000a900473ffffffffffffffffffffffffffffffffffffffff1673ffffffffffffffffffffffffffffffffffffffff1673ffffffffffffffffffffffffffffffffffffffff16815260200190815260200160002060008201518160000190816112ea9190613c69565b5060208201518160010160006101000a81548173ffffffffffffffffffffffffffffffffffffffff021916908373ffffffffffffffffffffffffffffffffffffffff16021790555060408201518160010160146101000a81548160ff021916908315150217905550905050600e6000600c86604051611369919061351b565b908152602001604051809103902060009054906101000a900473ffffffffffffffffffffffffffffffffffffffff1673ffffffffffffffffffffffffffffffffffffffff1673ffffffffffffffffffffffffffffffffffffffff168152602001908152602001600020600080820160006113e39190612c80565b6001820160006101000a81549073ffffffffffffffffffffffffffffffffffffffff02191690556001820160146101000a81549060ff0219169055505061151d565b600b6000600c86604051611439919061351b565b908152602001604051809103902060009054906101000a900473ffffffffffffffffffffffffffffffffffffffff1673ffffffffffffffffffffffffffffffffffffffff1673ffffffffffffffffffffffffffffffffffffffff168152602001908152602001600020600080820160006114b39190612c80565b6001820160006101000a81549073ffffffffffffffffffffffffffffffffffffffff02191690556001820160146101000a81549060ff02191690556002820160009055600382016000905560048201600090556005820160006101000a81549060ff021916905550505b611525611d86565b5050505050565b600080611537611bb5565b905060006115458286611b09565b90508381101561158a576040517f08c379a000000000000000000000000000000000000000000000000000000000815260040161158190613e19565b60405180910390fd5b6115978286868403611bbd565b60019250505092915050565b600073ffffffffffffffffffffffffffffffffffffffff16600c836040516115cb919061351b565b908152602001604051809103902060009054906101000a900473ffffffffffffffffffffffffffffffffffffffff1673ffffffffffffffffffffffffffffffffffffffff1614611650576040517f08c379a000000000000000000000000000000000000000000000000000000000815260040161164790613e85565b60405180910390fd5b600073ffffffffffffffffffffffffffffffffffffffff16600b6000600c8560405161167c919061351b565b908152602001604051809103902060009054906101000a900473ffffffffffffffffffffffffffffffffffffffff1673ffffffffffffffffffffffffffffffffffffffff1673ffffffffffffffffffffffffffffffffffffffff16815260200190815260200160002060010160009054906101000a900473ffffffffffffffffffffffffffffffffffffffff1673ffffffffffffffffffffffffffffffffffffffff161461172957600080fd5b33600c8360405161173a919061351b565b908152602001604051809103902060006101000a81548173ffffffffffffffffffffffffffffffffffffffff021916908373ffffffffffffffffffffffffffffffffffffffff160217905550806040516020016117979190612d77565b60405160208183030381529060405280519060200120600d836040516117bd919061351b565b9081526020016040518091039020819055506040518060e001604052808381526020013373ffffffffffffffffffffffffffffffffffffffff1681526020016000151581526020016000815260200160008152602001600081526020016000600381111561182e5761182d613158565b5b815250600b6000600c85604051611845919061351b565b908152602001604051809103902060009054906101000a900473ffffffffffffffffffffffffffffffffffffffff1673ffffffffffffffffffffffffffffffffffffffff1673ffffffffffffffffffffffffffffffffffffffff16815260200190815260200160002060008201518160000190816118c39190613c69565b5060208201518160010160006101000a81548173ffffffffffffffffffffffffffffffffffffffff021916908373ffffffffffffffffffffffffffffffffffffffff16021790555060408201518160010160146101000a81548160ff021916908315150217905550606082015181600201556080820151816003015560a0820151816004015560c08201518160050160006101000a81548160ff0219169083600381111561197457611973613158565b5b0217905550905050611984611d86565b505050565b600080611994611bb5565b90506119a1818585612009565b600191505092915050565b6002600b60003373ffffffffffffffffffffffffffffffffffffffff1673ffffffffffffffffffffffffffffffffffffffff16815260200190815260200160002060050160009054906101000a900460ff166003811115611a1057611a0f613158565b5b816003811115611a2357611a22613158565b5b14611a63576040517f08c379a0000000000000000000000000000000000000000000000000000000008152600401611a5a90613a0b565b60405180910390fd5b8160ff16600b60003373ffffffffffffffffffffffffffffffffffffffff1673ffffffffffffffffffffffffffffffffffffffff168152602001908152602001600020600401541015611aeb576040517f08c379a0000000000000000000000000000000000000000000000000000000008152600401611ae290613f17565b60405180910390fd5b611afb33848460ff16600261227f565b611b03611d86565b50505050565b6000600160008473ffffffffffffffffffffffffffffffffffffffff1673ffffffffffffffffffffffffffffffffffffffff16815260200190815260200160002060008373ffffffffffffffffffffffffffffffffffffffff1673ffffffffffffffffffffffffffffffffffffffff16815260200190815260200160002054905092915050565b603c60076000828254611ba39190613965565b92505081905550611bb2611d86565b50565b600033905090565b600073ffffffffffffffffffffffffffffffffffffffff168373ffffffffffffffffffffffffffffffffffffffff1603611c2c576040517f08c379a0000000000000000000000000000000000000000000000000000000008152600401611c2390613fa9565b60405180910390fd5b600073ffffffffffffffffffffffffffffffffffffffff168273ffffffffffffffffffffffffffffffffffffffff1603611c9b576040517f08c379a0000000000000000000000000000000000000000000000000000000008152600401611c929061403b565b60405180910390fd5b80600160008573ffffffffffffffffffffffffffffffffffffffff1673ffffffffffffffffffffffffffffffffffffffff16815260200190815260200160002060008473ffffffffffffffffffffffffffffffffffffffff1673ffffffffffffffffffffffffffffffffffffffff168152602001908152602001600020819055508173ffffffffffffffffffffffffffffffffffffffff168373ffffffffffffffffffffffffffffffffffffffff167f8c5be1e5ebec7d5bd14f71427d1e84f3dd0314c0f7b2291e5b200ac8c7c3b92583604051611d799190612ec6565b60405180910390a3505050565b600060075442611d969190613965565b6005819055506000600654600554611dae919061405b565b905061012c81118015611dc2575061038481105b8015611e02575060016002811115611ddd57611ddc613158565b5b600a60009054906101000a900460ff166002811115611dff57611dfe613158565b5b14155b15611e4f576001600a60006101000a81548160ff02191690836002811115611e2d57611e2c613158565b5b0217905550611e4a600a60009054906101000a900460ff16612709565b611edd565b61038481118015611e935750600280811115611e6e57611e6d613158565b5b600a60009054906101000a900460ff166002811115611e9057611e8f613158565b5b14155b15611edc576002600a60006101000a81548160ff02191690836002811115611ebe57611ebd613158565b5b0217905550611edb600a60009054906101000a900460ff16612709565b5b5b8091505090565b611f7a81604051602401611ef89190612ec6565b6040516020818303038152906040527ff82c50f1000000000000000000000000000000000000000000000000000000007bffffffffffffffffffffffffffffffffffffffffffffffffffffffff19166020820180517bffffffffffffffffffffffffffffffffffffffffffffffffffffffff8381831617835250505050612bc9565b50565b6000611f898484611b09565b90507fffffffffffffffffffffffffffffffffffffffffffffffffffffffffffffffff81146120035781811015611ff5576040517f08c379a0000000000000000000000000000000000000000000000000000000008152600401611fec906140db565b60405180910390fd5b6120028484848403611bbd565b5b50505050565b600073ffffffffffffffffffffffffffffffffffffffff168373ffffffffffffffffffffffffffffffffffffffff1603612078576040517f08c379a000000000000000000000000000000000000000000000000000000000815260040161206f9061416d565b60405180910390fd5b600073ffffffffffffffffffffffffffffffffffffffff168273ffffffffffffffffffffffffffffffffffffffff16036120e7576040517f08c379a00000000000000000000000000000000000000000000000000000000081526004016120de906141ff565b60405180910390fd5b6120f2838383612be3565b60008060008573ffffffffffffffffffffffffffffffffffffffff1673ffffffffffffffffffffffffffffffffffffffff16815260200190815260200160002054905081811015612178576040517f08c379a000000000000000000000000000000000000000000000000000000000815260040161216f90614291565b60405180910390fd5b8181036000808673ffffffffffffffffffffffffffffffffffffffff1673ffffffffffffffffffffffffffffffffffffffff16815260200190815260200160002081905550816000808573ffffffffffffffffffffffffffffffffffffffff1673ffffffffffffffffffffffffffffffffffffffff168152602001908152602001600020600082825401925050819055508273ffffffffffffffffffffffffffffffffffffffff168473ffffffffffffffffffffffffffffffffffffffff167fddf252ad1be2c89b69c2b068fc378daa952ba7f163c4a11628f55a4df523b3ef846040516122669190612ec6565b60405180910390a3612279848484612be8565b50505050565b600073ffffffffffffffffffffffffffffffffffffffff168373ffffffffffffffffffffffffffffffffffffffff16036122ee576040517f08c379a00000000000000000000000000000000000000000000000000000000081526004016122e590614349565b60405180910390fd5b60028160ff161115612335576040517f08c379a000000000000000000000000000000000000000000000000000000000815260040161232c90614401565b60405180910390fd5b61233d610acf565b600a6123499190614554565b82612354919061373d565b915060008160ff160361248e576000600281111561237557612374613158565b5b600a60009054906101000a900460ff16600281111561239757612396613158565b5b146123d7576040517f08c379a00000000000000000000000000000000000000000000000000000000081526004016123ce90614637565b60405180910390fd5b81600b60008673ffffffffffffffffffffffffffffffffffffffff1673ffffffffffffffffffffffffffffffffffffffff1681526020019081526020016000206002016000828254612429919061405b565b9250508190555081600b60008573ffffffffffffffffffffffffffffffffffffffff1673ffffffffffffffffffffffffffffffffffffffff16815260200190815260200160002060020160008282546124829190613965565b92505081905550612703565b60018160ff16036125c657600160028111156124ad576124ac613158565b5b600a60009054906101000a900460ff1660028111156124cf576124ce613158565b5b1461250f576040517f08c379a0000000000000000000000000000000000000000000000000000000008152600401612506906146ef565b60405180910390fd5b81600b60008673ffffffffffffffffffffffffffffffffffffffff1673ffffffffffffffffffffffffffffffffffffffff1681526020019081526020016000206003016000828254612561919061405b565b9250508190555081600b60008573ffffffffffffffffffffffffffffffffffffffff1673ffffffffffffffffffffffffffffffffffffffff16815260200190815260200160002060030160008282546125ba9190613965565b925050819055506126ee565b6002808111156125d9576125d8613158565b5b600a60009054906101000a900460ff1660028111156125fb576125fa613158565b5b1461263b576040517f08c379a0000000000000000000000000000000000000000000000000000000008152600401612632906147a7565b60405180910390fd5b81600b60008673ffffffffffffffffffffffffffffffffffffffff1673ffffffffffffffffffffffffffffffffffffffff168152602001908152602001600020600401600082825461268d919061405b565b9250508190555081600b60008573ffffffffffffffffffffffffffffffffffffffff1673ffffffffffffffffffffffffffffffffffffffff16815260200190815260200160002060040160008282546126e69190613965565b925050819055505b6126f9848484612009565b612701611d86565b505b50505050565b6001600281111561271d5761271c613158565b5b8160028111156127305761272f613158565b5b03612980576602aa1efb94e00060088190555061274b610acf565b600a6127579190614554565b620186a0612765919061373d565b600981905550612773610acf565b600a61277f9190614554565b622dc6c061278d919061373d565b600b6000600c60405161279f90614813565b908152602001604051809103902060009054906101000a900473ffffffffffffffffffffffffffffffffffffffff1673ffffffffffffffffffffffffffffffffffffffff1673ffffffffffffffffffffffffffffffffffffffff168152602001908152602001600020600301600082825461281a919061405b565b92505081905550612829610acf565b600a6128359190614554565b622dc6c0612843919061373d565b600b6000600c604051612855906138ef565b908152602001604051809103902060009054906101000a900473ffffffffffffffffffffffffffffffffffffffff1673ffffffffffffffffffffffffffffffffffffffff1673ffffffffffffffffffffffffffffffffffffffff16815260200190815260200160002060030160008282546128d09190613965565b9250508190555061297b600c6040516128e890614813565b908152602001604051809103902060009054906101000a900473ffffffffffffffffffffffffffffffffffffffff16600c604051612925906138ef565b908152602001604051809103902060009054906101000a900473ffffffffffffffffffffffffffffffffffffffff1661295c610acf565b600a6129689190614554565b622dc6c0612976919061373d565b612009565b612bc6565b66038d7ea4c68000600881905550612996610acf565b600a6129a29190614554565b6113886129af919061373d565b6009819055506129bd610acf565b600a6129c99190614554565b625b8d806129d7919061373d565b600b6000600c6040516129e990614813565b908152602001604051809103902060009054906101000a900473ffffffffffffffffffffffffffffffffffffffff1673ffffffffffffffffffffffffffffffffffffffff1673ffffffffffffffffffffffffffffffffffffffff1681526020019081526020016000206004016000828254612a64919061405b565b92505081905550612a73610acf565b600a612a7f9190614554565b625b8d80612a8d919061373d565b600b6000600c604051612a9f90613950565b908152602001604051809103902060009054906101000a900473ffffffffffffffffffffffffffffffffffffffff1673ffffffffffffffffffffffffffffffffffffffff1673ffffffffffffffffffffffffffffffffffffffff1681526020019081526020016000206004016000828254612b1a9190613965565b92505081905550612bc5600c604051612b3290614813565b908152602001604051809103902060009054906101000a900473ffffffffffffffffffffffffffffffffffffffff16600c604051612b6f90613950565b908152602001604051809103902060009054906101000a900473ffffffffffffffffffffffffffffffffffffffff16612ba6610acf565b600a612bb29190614554565b625b8d80612bc0919061373d565b612009565b5b50565b612be081612bd8612bed612c0e565b63ffffffff16565b50565b505050565b505050565b60006a636f6e736f6c652e6c6f679050600080835160208501845afa505050565b612cc0819050919050565b6040518060e0016040528060608152602001600073ffffffffffffffffffffffffffffffffffffffff16815260200160001515815260200160008152602001600081526020016000815260200160006003811115612c7a57612c79613158565b5b81525090565b508054612c8c906134ae565b6000825580601f10612c9e5750612cbd565b601f016020900490600052602060002090810190612cbc9190612cca565b5b50565b612cc8614828565b565b5b80821115612ce3576000816000905550600101612ccb565b5090565b600081519050919050565b600082825260208201905092915050565b60005b83811015612d21578082015181840152602081019050612d06565b60008484015250505050565b6000601f19601f8301169050919050565b6000612d4982612ce7565b612d538185612cf2565b9350612d63818560208601612d03565b612d6c81612d2d565b840191505092915050565b60006020820190508181036000830152612d918184612d3e565b905092915050565b6000604051905090565b600080fd5b600080fd5b600073ffffffffffffffffffffffffffffffffffffffff82169050919050565b6000612dd882612dad565b9050919050565b612de881612dcd565b8114612df357600080fd5b50565b600081359050612e0581612ddf565b92915050565b6000819050919050565b612e1e81612e0b565b8114612e2957600080fd5b50565b600081359050612e3b81612e15565b92915050565b60008060408385031215612e5857612e57612da3565b5b6000612e6685828601612df6565b9250506020612e7785828601612e2c565b9150509250929050565b60008115159050919050565b612e9681612e81565b82525050565b6000602082019050612eb16000830184612e8d565b92915050565b612ec081612e0b565b82525050565b6000602082019050612edb6000830184612eb7565b92915050565b600080600060608486031215612efa57612ef9612da3565b5b6000612f0886828701612df6565b9350506020612f1986828701612df6565b9250506040612f2a86828701612e2c565b9150509250925092565b600080fd5b600080fd5b7f4e487b7100000000000000000000000000000000000000000000000000000000600052604160045260246000fd5b612f7682612d2d565b810181811067ffffffffffffffff82111715612f9557612f94612f3e565b5b80604052505050565b6000612fa8612d99565b9050612fb48282612f6d565b919050565b600067ffffffffffffffff821115612fd457612fd3612f3e565b5b612fdd82612d2d565b9050602081019050919050565b82818337600083830152505050565b600061300c61300784612fb9565b612f9e565b90508281526020810184848401111561302857613027612f39565b5b613033848285612fea565b509392505050565b600082601f8301126130505761304f612f34565b5b8135613060848260208601612ff9565b91505092915050565b600080604083850312156130805761307f612da3565b5b600083013567ffffffffffffffff81111561309e5761309d612da8565b5b6130aa8582860161303b565b925050602083013567ffffffffffffffff8111156130cb576130ca612da8565b5b6130d78582860161303b565b9150509250929050565b600082825260208201905092915050565b60006130fd82612ce7565b61310781856130e1565b9350613117818560208601612d03565b61312081612d2d565b840191505092915050565b61313481612dcd565b82525050565b61314381612e81565b82525050565b61315281612e0b565b82525050565b7f4e487b7100000000000000000000000000000000000000000000000000000000600052602160045260246000fd5b6004811061319857613197613158565b5b50565b60008190506131a982613187565b919050565b60006131b98261319b565b9050919050565b6131c9816131ae565b82525050565b600060e08301600083015184820360008601526131ec82826130f2565b9150506020830151613201602086018261312b565b506040830151613214604086018261313a565b5060608301516132276060860182613149565b50608083015161323a6080860182613149565b5060a083015161324d60a0860182613149565b5060c083015161326060c08601826131c0565b508091505092915050565b6000602082019050818103600083015261328581846131cf565b905092915050565b6000602082840312156132a3576132a2612da3565b5b60006132b184828501612e2c565b91505092915050565b600060ff82169050919050565b6132d0816132ba565b82525050565b60006020820190506132eb60008301846132c7565b92915050565b60006020828403121561330757613306612da3565b5b600061331584828501612df6565b91505092915050565b613327816132ba565b811461333257600080fd5b50565b6000813590506133448161331e565b92915050565b6000602082840312156133605761335f612da3565b5b600061336e84828501613335565b91505092915050565b61338081612e81565b811461338b57600080fd5b50565b60008135905061339d81613377565b92915050565b600080604083850312156133ba576133b9612da3565b5b600083013567ffffffffffffffff8111156133d8576133d7612da8565b5b6133e48582860161303b565b92505060206133f58582860161338e565b9150509250929050565b6000806040838503121561341657613415612da3565b5b600061342485828601612df6565b925050602061343585828601613335565b9150509250929050565b6000806040838503121561345657613455612da3565b5b600061346485828601612df6565b925050602061347585828601612df6565b9150509250929050565b7f4e487b7100000000000000000000000000000000000000000000000000000000600052602260045260246000fd5b600060028204905060018216806134c657607f821691505b6020821081036134d9576134d861347f565b5b50919050565b600081905092915050565b60006134f582612ce7565b6134ff81856134df565b935061350f818560208601612d03565b80840191505092915050565b600061352782846134ea565b915081905092915050565b7f57726f6e67206c6f67696e206f722070617373776f7264210000000000000000600082015250565b6000613568601883612cf2565b915061357382613532565b602082019050919050565b600060208201905081810360008301526135978161355b565b9050919050565b7fd09dd0b5d0bbd18cd0b7d18f20d0bfd0b5d180d0b5d0b2d0bed0b4d0b8d182d160008201527f8c20d0b1d0bed0bbd18cd188d0b52c20d187d0b5d0bc20d0bed180d0b3d0b0d060208201527fbdd0b8d187d0b5d0bdd0bdd0be20d0b4d0b0d0bdd0bdd0bed0b920d184d0b0d060408201527fb7d0bed0b9210000000000000000000000000000000000000000000000000000606082015250565b6000613646606683612cf2565b91506136518261359e565b608082019050919050565b6000602082019050818103600083015261367581613639565b9050919050565b7fd09dd0b5d0bbd18cd0b7d18f20d0bfd0bed0bad183d0bfd0b0d182d18c20d18260008201527fd0bed0bad0b5d0bdd18b20d0b220d18dd182d18320d184d0b0d0b7d183210000602082015250565b60006136d8603e83612cf2565b91506136e38261367c565b604082019050919050565b60006020820190508181036000830152613707816136cb565b9050919050565b7f4e487b7100000000000000000000000000000000000000000000000000000000600052601160045260246000fd5b600061374882612e0b565b915061375383612e0b565b925082820261376181612e0b565b915082820484148315176137785761377761370e565b5b5092915050565b7fd0a320d0b2d0b0d18120d0bdd0b5d0b4d0bed181d182d0b0d182d0bed187d0bd60008201527fd0be206574682100000000000000000000000000000000000000000000000000602082015250565b60006137db602783612cf2565b91506137e68261377f565b604082019050919050565b6000602082019050818103600083015261380a816137ce565b9050919050565b7fd0a1d0b2d0bed0b1d0bed0b4d0bdd0b0d18f20d0bfd180d0bed0b4d0b0d0b6d060008201527fb020d0b5d189d19120d0bdd0b520d0bdd0b0d187d0b0d0bbd0b0d181d18c2100602082015250565b600061386d603f83612cf2565b915061387882613811565b604082019050919050565b6000602082019050818103600083015261389c81613860565b9050919050565b7f707269762070726f760000000000000000000000000000000000000000000000600082015250565b60006138d96009836134df565b91506138e4826138a3565b600982019050919050565b60006138fa826138cc565b9150819050919050565b7f7075622070726f76000000000000000000000000000000000000000000000000600082015250565b600061393a6008836134df565b915061394582613904565b600882019050919050565b600061395b8261392d565b9150819050919050565b600061397082612e0b565b915061397b83612e0b565b92508282019050808211156139935761399261370e565b5b92915050565b7f596f7520646f6e60742068617665207065726d697373696f6e7320746f20646f60008201527f2074686973210000000000000000000000000000000000000000000000000000602082015250565b60006139f5602683612cf2565b9150613a0082613999565b604082019050919050565b60006020820190508181036000830152613a24816139e8565b9050919050565b7f546869732070686173652069736e607420616c7265616479207374617274656460008201527f206f722066696e69736865642100000000000000000000000000000000000000602082015250565b6000613a87602d83612cf2565b9150613a9282613a2b565b604082019050919050565b60006020820190508181036000830152613ab681613a7a565b9050919050565b60008190508160005260206000209050919050565b60006020601f8301049050919050565b600082821b905092915050565b600060088302613b1f7fffffffffffffffffffffffffffffffffffffffffffffffffffffffffffffffff82613ae2565b613b298683613ae2565b95508019841693508086168417925050509392505050565b6000819050919050565b6000613b66613b61613b5c84612e0b565b613b41565b612e0b565b9050919050565b6000819050919050565b613b8083613b4b565b613b94613b8c82613b6d565b848454613aef565b825550505050565b600090565b613ba9613b9c565b613bb4818484613b77565b505050565b5b81811015613bd857613bcd600082613ba1565b600181019050613bba565b5050565b601f821115613c1d57613bee81613abd565b613bf784613ad2565b81016020851015613c06578190505b613c1a613c1285613ad2565b830182613bb9565b50505b505050565b600082821c905092915050565b6000613c4060001984600802613c22565b1980831691505092915050565b6000613c598383613c2f565b9150826002028217905092915050565b613c7282612ce7565b67ffffffffffffffff811115613c8b57613c8a612f3e565b5b613c9582546134ae565b613ca0828285613bdc565b600060209050601f831160018114613cd35760008415613cc1578287015190505b613ccb8582613c4d565b865550613d33565b601f198416613ce186613abd565b60005b82811015613d0957848901518255600182019150602085019450602081019050613ce4565b86831015613d265784890151613d22601f891682613c2f565b8355505b6001600288020188555050505b505050505050565b7f4469646e60742066696e64207265717565737465726073206c6f67696e210000600082015250565b6000613d71601e83612cf2565b9150613d7c82613d3b565b602082019050919050565b60006020820190508181036000830152613da081613d64565b9050919050565b7f45524332303a2064656372656173656420616c6c6f77616e63652062656c6f7760008201527f207a65726f000000000000000000000000000000000000000000000000000000602082015250565b6000613e03602583612cf2565b9150613e0e82613da7565b604082019050919050565b60006020820190508181036000830152613e3281613df6565b9050919050565b7f54686973206c6f67696e20697320627573792100000000000000000000000000600082015250565b6000613e6f601383612cf2565b9150613e7a82613e39565b602082019050919050565b60006020820190508181036000830152613e9e81613e62565b9050919050565b7fd0a320d0b2d0b0d18120d0bdd0b5d0b4d0bed181d182d0b0d182d0bed187d0bd60008201527fd0be20d182d0bed0bad0b5d0bdd0bed0b2210000000000000000000000000000602082015250565b6000613f01603283612cf2565b9150613f0c82613ea5565b604082019050919050565b60006020820190508181036000830152613f3081613ef4565b9050919050565b7f45524332303a20617070726f76652066726f6d20746865207a65726f2061646460008201527f7265737300000000000000000000000000000000000000000000000000000000602082015250565b6000613f93602483612cf2565b9150613f9e82613f37565b604082019050919050565b60006020820190508181036000830152613fc281613f86565b9050919050565b7f45524332303a20617070726f766520746f20746865207a65726f20616464726560008201527f7373000000000000000000000000000000000000000000000000000000000000602082015250565b6000614025602283612cf2565b915061403082613fc9565b604082019050919050565b6000602082019050818103600083015261405481614018565b9050919050565b600061406682612e0b565b915061407183612e0b565b92508282039050818111156140895761408861370e565b5b92915050565b7f45524332303a20696e73756666696369656e7420616c6c6f77616e6365000000600082015250565b60006140c5601d83612cf2565b91506140d08261408f565b602082019050919050565b600060208201905081810360008301526140f4816140b8565b9050919050565b7f45524332303a207472616e736665722066726f6d20746865207a65726f20616460008201527f6472657373000000000000000000000000000000000000000000000000000000602082015250565b6000614157602583612cf2565b9150614162826140fb565b604082019050919050565b600060208201905081810360008301526141868161414a565b9050919050565b7f45524332303a207472616e7366657220746f20746865207a65726f206164647260008201527f6573730000000000000000000000000000000000000000000000000000000000602082015250565b60006141e9602383612cf2565b91506141f48261418d565b604082019050919050565b60006020820190508181036000830152614218816141dc565b9050919050565b7f45524332303a207472616e7366657220616d6f756e742065786365656473206260008201527f616c616e63650000000000000000000000000000000000000000000000000000602082015250565b600061427b602683612cf2565b91506142868261421f565b604082019050919050565b600060208201905081810360008301526142aa8161426e565b9050919050565b7fd09dd0b5d0bbd18cd0b7d18f20d0bfd0b5d180d0b5d0b2d0b5d181d182d0b82060008201527fd182d0bed0bad0b5d0bdd18b20d0bdd0b020d0bdd0b5d181d183d189d0b5d18160208201527fd182d0b2d183d18ed189d0b8d0b920d0b0d0b4d180d0b5d18121000000000000604082015250565b6000614333605a83612cf2565b915061433e826142b1565b606082019050919050565b6000602082019050818103600083015261436281614326565b9050919050565b7fd09dd0b5d0bbd18cd0b7d18f20d0bfd0b5d180d0b5d0b2d0bed0b4d0b8d182d160008201527f8c20d182d0b0d0bad0bed0b920d182d0b8d0bf20d182d0bed0bad0b5d0bdd0be60208201527fd0b2210000000000000000000000000000000000000000000000000000000000604082015250565b60006143eb604383612cf2565b91506143f682614369565b606082019050919050565b6000602082019050818103600083015261441a816143de565b9050919050565b60008160011c9050919050565b6000808291508390505b6001851115614478578086048111156144545761445361370e565b5b60018516156144635780820291505b808102905061447185614421565b9450614438565b94509492505050565b600082614491576001905061454d565b8161449f576000905061454d565b81600181146144b557600281146144bf576144ee565b600191505061454d565b60ff8411156144d1576144d061370e565b5b8360020a9150848211156144e8576144e761370e565b5b5061454d565b5060208310610133831016604e8410600b84101617156145235782820a90508381111561451e5761451d61370e565b5b61454d565b614530848484600161442e565b925090508184048111156145475761454661370e565b5b81810290505b9392505050565b600061455f82612e0b565b915061456a836132ba565b92506145977fffffffffffffffffffffffffffffffffffffffffffffffffffffffffffffffff8484614481565b905092915050565b7fd09dd0b5d0bbd18cd0b7d18f20d0bfd0bed0bad183d0bfd0b0d182d18c20736560008201527f656420d182d0bed0bad0b5d0bdd18b20d0b220d18dd182d18320d184d0b0d0b760208201527fd183210000000000000000000000000000000000000000000000000000000000604082015250565b6000614621604383612cf2565b915061462c8261459f565b606082019050919050565b6000602082019050818103600083015261465081614614565b9050919050565b7fd09dd0b5d0bbd18cd0b7d18f20d0bfd0bed0bad183d0bfd0b0d182d18c20707260008201527f697661746520d182d0bed0bad0b5d0bdd18b20d0b220d18dd182d18320d184d060208201527fb0d0b7d183210000000000000000000000000000000000000000000000000000604082015250565b60006146d9604683612cf2565b91506146e482614657565b606082019050919050565b60006020820190508181036000830152614708816146cc565b9050919050565b7fd09dd0b5d0bbd18cd0b7d18f20d0bfd0bed0bad183d0bfd0b0d182d18c20707560008201527f626c696320d182d0bed0bad0b5d0bdd18b20d0b220d18dd182d18320d184d0b060208201527fd0b7d18321000000000000000000000000000000000000000000000000000000604082015250565b6000614791604583612cf2565b915061479c8261470f565b606082019050919050565b600060208201905081810360008301526147c081614784565b9050919050565b7f6f776e6572000000000000000000000000000000000000000000000000000000600082015250565b60006147fd6005836134df565b9150614808826147c7565b600582019050919050565b600061481e826147f0565b9150819050919050565b7f4e487b7100000000000000000000000000000000000000000000000000000000600052605160045260246000fdfea2646970667358221220bffc6a906e5cf7cbd4f18917c1cd2cb0802b80bddbaa4d3a809536c69a9aad9a64736f6c63430008120033",
			"opcodes": "PUSH1 0x80 PUSH1 0x40 MSTORE TIMESTAMP PUSH1 0x5 SSTORE TIMESTAMP PUSH1 0x6 SSTORE PUSH1 0x0 PUSH1 0x7 SSTORE CALLVALUE DUP1 ISZERO PUSH3 0x1E JUMPI PUSH1 0x0 DUP1 REVERT JUMPDEST POP PUSH1 0x40 MLOAD DUP1 PUSH1 0x40 ADD PUSH1 0x40 MSTORE DUP1 PUSH1 0xD DUP2 MSTORE PUSH1 0x20 ADD PUSH32 0x43727970746F4D6F6E7374657200000000000000000000000000000000000000 DUP2 MSTORE POP PUSH1 0x40 MLOAD DUP1 PUSH1 0x40 ADD PUSH1 0x40 MSTORE DUP1 PUSH1 0x4 DUP2 MSTORE PUSH1 0x20 ADD PUSH32 0x434D4F4E00000000000000000000000000000000000000000000000000000000 DUP2 MSTORE POP DUP2 PUSH1 0x3 SWAP1 DUP2 PUSH3 0x9C SWAP2 SWAP1 PUSH3 0x212D JUMP JUMPDEST POP DUP1 PUSH1 0x4 SWAP1 DUP2 PUSH3 0xAE SWAP2 SWAP1 PUSH3 0x212D JUMP JUMPDEST POP POP POP PUSH3 0xF0 CALLER PUSH3 0xC6 PUSH3 0x13C8 PUSH1 0x20 SHL PUSH1 0x20 SHR JUMP JUMPDEST PUSH1 0xA PUSH3 0xD4 SWAP2 SWAP1 PUSH3 0x23A4 JUMP JUMPDEST PUSH3 0x989680 PUSH3 0xE4 SWAP2 SWAP1 PUSH3 0x23F5 JUMP JUMPDEST PUSH3 0x13D1 PUSH1 0x20 SHL PUSH1 0x20 SHR JUMP JUMPDEST PUSH1 0x40 MLOAD DUP1 PUSH1 0xE0 ADD PUSH1 0x40 MSTORE DUP1 PUSH1 0x40 MLOAD DUP1 PUSH1 0x40 ADD PUSH1 0x40 MSTORE DUP1 PUSH1 0x5 DUP2 MSTORE PUSH1 0x20 ADD PUSH32 0x6F776E6572000000000000000000000000000000000000000000000000000000 DUP2 MSTORE POP DUP2 MSTORE PUSH1 0x20 ADD CALLER PUSH20 0xFFFFFFFFFFFFFFFFFFFFFFFFFFFFFFFFFFFFFFFF AND DUP2 MSTORE PUSH1 0x20 ADD PUSH1 0x1 ISZERO ISZERO DUP2 MSTORE PUSH1 0x20 ADD PUSH3 0x16B PUSH3 0x13C8 PUSH1 0x20 SHL PUSH1 0x20 SHR JUMP JUMPDEST PUSH1 0xA PUSH3 0x179 SWAP2 SWAP1 PUSH3 0x23A4 JUMP JUMPDEST PUSH3 0xF4240 PUSH3 0x189 SWAP2 SWAP1 PUSH3 0x23F5 JUMP JUMPDEST DUP2 MSTORE PUSH1 0x20 ADD PUSH3 0x19E PUSH3 0x13C8 PUSH1 0x20 SHL PUSH1 0x20 SHR JUMP JUMPDEST PUSH1 0xA PUSH3 0x1AC SWAP2 SWAP1 PUSH3 0x23A4 JUMP JUMPDEST PUSH3 0x2DC6C0 PUSH3 0x1BC SWAP2 SWAP1 PUSH3 0x23F5 JUMP JUMPDEST DUP2 MSTORE PUSH1 0x20 ADD PUSH3 0x1D1 PUSH3 0x13C8 PUSH1 0x20 SHL PUSH1 0x20 SHR JUMP JUMPDEST PUSH1 0xA PUSH3 0x1DF SWAP2 SWAP1 PUSH3 0x23A4 JUMP JUMPDEST PUSH3 0x5B8D80 PUSH3 0x1EF SWAP2 SWAP1 PUSH3 0x23F5 JUMP JUMPDEST DUP2 MSTORE PUSH1 0x20 ADD PUSH1 0x3 DUP1 DUP2 GT ISZERO PUSH3 0x20A JUMPI PUSH3 0x209 PUSH3 0x2440 JUMP JUMPDEST JUMPDEST DUP2 MSTORE POP PUSH1 0xB PUSH1 0x0 CALLER PUSH20 0xFFFFFFFFFFFFFFFFFFFFFFFFFFFFFFFFFFFFFFFF AND PUSH20 0xFFFFFFFFFFFFFFFFFFFFFFFFFFFFFFFFFFFFFFFF AND DUP2 MSTORE PUSH1 0x20 ADD SWAP1 DUP2 MSTORE PUSH1 0x20 ADD PUSH1 0x0 KECCAK256 PUSH1 0x0 DUP3 ADD MLOAD DUP2 PUSH1 0x0 ADD SWAP1 DUP2 PUSH3 0x263 SWAP2 SWAP1 PUSH3 0x212D JUMP JUMPDEST POP PUSH1 0x20 DUP3 ADD MLOAD DUP2 PUSH1 0x1 ADD PUSH1 0x0 PUSH2 0x100 EXP DUP2 SLOAD DUP2 PUSH20 0xFFFFFFFFFFFFFFFFFFFFFFFFFFFFFFFFFFFFFFFF MUL NOT AND SWAP1 DUP4 PUSH20 0xFFFFFFFFFFFFFFFFFFFFFFFFFFFFFFFFFFFFFFFF AND MUL OR SWAP1 SSTORE POP PUSH1 0x40 DUP3 ADD MLOAD DUP2 PUSH1 0x1 ADD PUSH1 0x14 PUSH2 0x100 EXP DUP2 SLOAD DUP2 PUSH1 0xFF MUL NOT AND SWAP1 DUP4 ISZERO ISZERO MUL OR SWAP1 SSTORE POP PUSH1 0x60 DUP3 ADD MLOAD DUP2 PUSH1 0x2 ADD SSTORE PUSH1 0x80 DUP3 ADD MLOAD DUP2 PUSH1 0x3 ADD SSTORE PUSH1 0xA0 DUP3 ADD MLOAD DUP2 PUSH1 0x4 ADD SSTORE PUSH1 0xC0 DUP3 ADD MLOAD DUP2 PUSH1 0x5 ADD PUSH1 0x0 PUSH2 0x100 EXP DUP2 SLOAD DUP2 PUSH1 0xFF MUL NOT AND SWAP1 DUP4 PUSH1 0x3 DUP2 GT ISZERO PUSH3 0x317 JUMPI PUSH3 0x316 PUSH3 0x2440 JUMP JUMPDEST JUMPDEST MUL OR SWAP1 SSTORE POP SWAP1 POP POP PUSH1 0x40 MLOAD PUSH1 0x20 ADD PUSH3 0x330 SWAP1 PUSH3 0x24D0 JUMP JUMPDEST PUSH1 0x40 MLOAD PUSH1 0x20 DUP2 DUP4 SUB SUB DUP2 MSTORE SWAP1 PUSH1 0x40 MSTORE DUP1 MLOAD SWAP1 PUSH1 0x20 ADD KECCAK256 PUSH1 0xD PUSH1 0x40 MLOAD PUSH3 0x356 SWAP1 PUSH3 0x254D JUMP JUMPDEST SWAP1 DUP2 MSTORE PUSH1 0x20 ADD PUSH1 0x40 MLOAD DUP1 SWAP2 SUB SWAP1 KECCAK256 DUP2 SWAP1 SSTORE POP CALLER PUSH1 0xC PUSH1 0x40 MLOAD PUSH3 0x379 SWAP1 PUSH3 0x254D JUMP JUMPDEST SWAP1 DUP2 MSTORE PUSH1 0x20 ADD PUSH1 0x40 MLOAD DUP1 SWAP2 SUB SWAP1 KECCAK256 PUSH1 0x0 PUSH2 0x100 EXP DUP2 SLOAD DUP2 PUSH20 0xFFFFFFFFFFFFFFFFFFFFFFFFFFFFFFFFFFFFFFFF MUL NOT AND SWAP1 DUP4 PUSH20 0xFFFFFFFFFFFFFFFFFFFFFFFFFFFFFFFFFFFFFFFF AND MUL OR SWAP1 SSTORE POP PUSH1 0x40 MLOAD DUP1 PUSH1 0xE0 ADD PUSH1 0x40 MSTORE DUP1 PUSH1 0x40 MLOAD DUP1 PUSH1 0x40 ADD PUSH1 0x40 MSTORE DUP1 PUSH1 0x9 DUP2 MSTORE PUSH1 0x20 ADD PUSH32 0x707269762070726F760000000000000000000000000000000000000000000000 DUP2 MSTORE POP DUP2 MSTORE PUSH1 0x20 ADD PUSH20 0x4B0897B0513FDC7C541B6D9D7E929C4E5364D2DB PUSH20 0xFFFFFFFFFFFFFFFFFFFFFFFFFFFFFFFFFFFFFFFF AND DUP2 MSTORE PUSH1 0x20 ADD PUSH1 0x1 ISZERO ISZERO DUP2 MSTORE PUSH1 0x20 ADD PUSH1 0x0 DUP2 MSTORE PUSH1 0x20 ADD PUSH1 0x0 DUP2 MSTORE PUSH1 0x20 ADD PUSH1 0x0 DUP2 MSTORE PUSH1 0x20 ADD PUSH1 0x1 PUSH1 0x3 DUP2 GT ISZERO PUSH3 0x470 JUMPI PUSH3 0x46F PUSH3 0x2440 JUMP JUMPDEST JUMPDEST DUP2 MSTORE POP PUSH1 0xB PUSH1 0x0 PUSH20 0x4B0897B0513FDC7C541B6D9D7E929C4E5364D2DB PUSH20 0xFFFFFFFFFFFFFFFFFFFFFFFFFFFFFFFFFFFFFFFF AND PUSH20 0xFFFFFFFFFFFFFFFFFFFFFFFFFFFFFFFFFFFFFFFF AND DUP2 MSTORE PUSH1 0x20 ADD SWAP1 DUP2 MSTORE PUSH1 0x20 ADD PUSH1 0x0 KECCAK256 PUSH1 0x0 DUP3 ADD MLOAD DUP2 PUSH1 0x0 ADD SWAP1 DUP2 PUSH3 0x4DD SWAP2 SWAP1 PUSH3 0x212D JUMP JUMPDEST POP PUSH1 0x20 DUP3 ADD MLOAD DUP2 PUSH1 0x1 ADD PUSH1 0x0 PUSH2 0x100 EXP DUP2 SLOAD DUP2 PUSH20 0xFFFFFFFFFFFFFFFFFFFFFFFFFFFFFFFFFFFFFFFF MUL NOT AND SWAP1 DUP4 PUSH20 0xFFFFFFFFFFFFFFFFFFFFFFFFFFFFFFFFFFFFFFFF AND MUL OR SWAP1 SSTORE POP PUSH1 0x40 DUP3 ADD MLOAD DUP2 PUSH1 0x1 ADD PUSH1 0x14 PUSH2 0x100 EXP DUP2 SLOAD DUP2 PUSH1 0xFF MUL NOT AND SWAP1 DUP4 ISZERO ISZERO MUL OR SWAP1 SSTORE POP PUSH1 0x60 DUP3 ADD MLOAD DUP2 PUSH1 0x2 ADD SSTORE PUSH1 0x80 DUP3 ADD MLOAD DUP2 PUSH1 0x3 ADD SSTORE PUSH1 0xA0 DUP3 ADD MLOAD DUP2 PUSH1 0x4 ADD SSTORE PUSH1 0xC0 DUP3 ADD MLOAD DUP2 PUSH1 0x5 ADD PUSH1 0x0 PUSH2 0x100 EXP DUP2 SLOAD DUP2 PUSH1 0xFF MUL NOT AND SWAP1 DUP4 PUSH1 0x3 DUP2 GT ISZERO PUSH3 0x591 JUMPI PUSH3 0x590 PUSH3 0x2440 JUMP JUMPDEST JUMPDEST MUL OR SWAP1 SSTORE POP SWAP1 POP POP PUSH1 0x40 MLOAD PUSH1 0x20 ADD PUSH3 0x5AA SWAP1 PUSH3 0x24D0 JUMP JUMPDEST PUSH1 0x40 MLOAD PUSH1 0x20 DUP2 DUP4 SUB SUB DUP2 MSTORE SWAP1 PUSH1 0x40 MSTORE DUP1 MLOAD SWAP1 PUSH1 0x20 ADD KECCAK256 PUSH1 0xD PUSH1 0x40 MLOAD PUSH3 0x5D0 SWAP1 PUSH3 0x25B4 JUMP JUMPDEST SWAP1 DUP2 MSTORE PUSH1 0x20 ADD PUSH1 0x40 MLOAD DUP1 SWAP2 SUB SWAP1 KECCAK256 DUP2 SWAP1 SSTORE POP PUSH20 0x4B0897B0513FDC7C541B6D9D7E929C4E5364D2DB PUSH1 0xC PUSH1 0x40 MLOAD PUSH3 0x607 SWAP1 PUSH3 0x25B4 JUMP JUMPDEST SWAP1 DUP2 MSTORE PUSH1 0x20 ADD PUSH1 0x40 MLOAD DUP1 SWAP2 SUB SWAP1 KECCAK256 PUSH1 0x0 PUSH2 0x100 EXP DUP2 SLOAD DUP2 PUSH20 0xFFFFFFFFFFFFFFFFFFFFFFFFFFFFFFFFFFFFFFFF MUL NOT AND SWAP1 DUP4 PUSH20 0xFFFFFFFFFFFFFFFFFFFFFFFFFFFFFFFFFFFFFFFF AND MUL OR SWAP1 SSTORE POP PUSH1 0x40 MLOAD DUP1 PUSH1 0xE0 ADD PUSH1 0x40 MSTORE DUP1 PUSH1 0x40 MLOAD DUP1 PUSH1 0x40 ADD PUSH1 0x40 MSTORE DUP1 PUSH1 0x8 DUP2 MSTORE PUSH1 0x20 ADD PUSH32 0x7075622070726F76000000000000000000000000000000000000000000000000 DUP2 MSTORE POP DUP2 MSTORE PUSH1 0x20 ADD PUSH20 0x583031D1113AD414F02576BD6AFABFB302140225 PUSH20 0xFFFFFFFFFFFFFFFFFFFFFFFFFFFFFFFFFFFFFFFF AND DUP2 MSTORE PUSH1 0x20 ADD PUSH1 0x1 ISZERO ISZERO DUP2 MSTORE PUSH1 0x20 ADD PUSH1 0x0 DUP2 MSTORE PUSH1 0x20 ADD PUSH1 0x0 DUP2 MSTORE PUSH1 0x20 ADD PUSH1 0x0 DUP2 MSTORE PUSH1 0x20 ADD PUSH1 0x2 PUSH1 0x3 DUP2 GT ISZERO PUSH3 0x6FE JUMPI PUSH3 0x6FD PUSH3 0x2440 JUMP JUMPDEST JUMPDEST DUP2 MSTORE POP PUSH1 0xB PUSH1 0x0 PUSH20 0x583031D1113AD414F02576BD6AFABFB302140225 PUSH20 0xFFFFFFFFFFFFFFFFFFFFFFFFFFFFFFFFFFFFFFFF AND PUSH20 0xFFFFFFFFFFFFFFFFFFFFFFFFFFFFFFFFFFFFFFFF AND DUP2 MSTORE PUSH1 0x20 ADD SWAP1 DUP2 MSTORE PUSH1 0x20 ADD PUSH1 0x0 KECCAK256 PUSH1 0x0 DUP3 ADD MLOAD DUP2 PUSH1 0x0 ADD SWAP1 DUP2 PUSH3 0x76B SWAP2 SWAP1 PUSH3 0x212D JUMP JUMPDEST POP PUSH1 0x20 DUP3 ADD MLOAD DUP2 PUSH1 0x1 ADD PUSH1 0x0 PUSH2 0x100 EXP DUP2 SLOAD DUP2 PUSH20 0xFFFFFFFFFFFFFFFFFFFFFFFFFFFFFFFFFFFFFFFF MUL NOT AND SWAP1 DUP4 PUSH20 0xFFFFFFFFFFFFFFFFFFFFFFFFFFFFFFFFFFFFFFFF AND MUL OR SWAP1 SSTORE POP PUSH1 0x40 DUP3 ADD MLOAD DUP2 PUSH1 0x1 ADD PUSH1 0x14 PUSH2 0x100 EXP DUP2 SLOAD DUP2 PUSH1 0xFF MUL NOT AND SWAP1 DUP4 ISZERO ISZERO MUL OR SWAP1 SSTORE POP PUSH1 0x60 DUP3 ADD MLOAD DUP2 PUSH1 0x2 ADD SSTORE PUSH1 0x80 DUP3 ADD MLOAD DUP2 PUSH1 0x3 ADD SSTORE PUSH1 0xA0 DUP3 ADD MLOAD DUP2 PUSH1 0x4 ADD SSTORE PUSH1 0xC0 DUP3 ADD MLOAD DUP2 PUSH1 0x5 ADD PUSH1 0x0 PUSH2 0x100 EXP DUP2 SLOAD DUP2 PUSH1 0xFF MUL NOT AND SWAP1 DUP4 PUSH1 0x3 DUP2 GT ISZERO PUSH3 0x81F JUMPI PUSH3 0x81E PUSH3 0x2440 JUMP JUMPDEST JUMPDEST MUL OR SWAP1 SSTORE POP SWAP1 POP POP PUSH1 0x40 MLOAD PUSH1 0x20 ADD PUSH3 0x838 SWAP1 PUSH3 0x24D0 JUMP JUMPDEST PUSH1 0x40 MLOAD PUSH1 0x20 DUP2 DUP4 SUB SUB DUP2 MSTORE SWAP1 PUSH1 0x40 MSTORE DUP1 MLOAD SWAP1 PUSH1 0x20 ADD KECCAK256 PUSH1 0xD PUSH1 0x40 MLOAD PUSH3 0x85E SWAP1 PUSH3 0x261B JUMP JUMPDEST SWAP1 DUP2 MSTORE PUSH1 0x20 ADD PUSH1 0x40 MLOAD DUP1 SWAP2 SUB SWAP1 KECCAK256 DUP2 SWAP1 SSTORE POP PUSH20 0x583031D1113AD414F02576BD6AFABFB302140225 PUSH1 0xC PUSH1 0x40 MLOAD PUSH3 0x895 SWAP1 PUSH3 0x261B JUMP JUMPDEST SWAP1 DUP2 MSTORE PUSH1 0x20 ADD PUSH1 0x40 MLOAD DUP1 SWAP2 SUB SWAP1 KECCAK256 PUSH1 0x0 PUSH2 0x100 EXP DUP2 SLOAD DUP2 PUSH20 0xFFFFFFFFFFFFFFFFFFFFFFFFFFFFFFFFFFFFFFFF MUL NOT AND SWAP1 DUP4 PUSH20 0xFFFFFFFFFFFFFFFFFFFFFFFFFFFFFFFFFFFFFFFF AND MUL OR SWAP1 SSTORE POP PUSH1 0x40 MLOAD DUP1 PUSH1 0xE0 ADD PUSH1 0x40 MSTORE DUP1 PUSH1 0x40 MLOAD DUP1 PUSH1 0x40 ADD PUSH1 0x40 MSTORE DUP1 PUSH1 0x4 DUP2 MSTORE PUSH1 0x20 ADD PUSH32 0x696E763100000000000000000000000000000000000000000000000000000000 DUP2 MSTORE POP DUP2 MSTORE PUSH1 0x20 ADD PUSH20 0x5B38DA6A701C568545DCFCB03FCB875F56BEDDC4 PUSH20 0xFFFFFFFFFFFFFFFFFFFFFFFFFFFFFFFFFFFFFFFF AND DUP2 MSTORE PUSH1 0x20 ADD PUSH1 0x1 ISZERO ISZERO DUP2 MSTORE PUSH1 0x20 ADD PUSH3 0x970 PUSH3 0x13C8 PUSH1 0x20 SHL PUSH1 0x20 SHR JUMP JUMPDEST PUSH1 0xA PUSH3 0x97E SWAP2 SWAP1 PUSH3 0x23A4 JUMP JUMPDEST PUSH3 0x493E0 PUSH3 0x98E SWAP2 SWAP1 PUSH3 0x23F5 JUMP JUMPDEST DUP2 MSTORE PUSH1 0x20 ADD PUSH1 0x0 DUP2 MSTORE PUSH1 0x20 ADD PUSH1 0x0 DUP2 MSTORE PUSH1 0x20 ADD PUSH1 0x0 PUSH1 0x3 DUP2 GT ISZERO PUSH3 0x9B8 JUMPI PUSH3 0x9B7 PUSH3 0x2440 JUMP JUMPDEST JUMPDEST DUP2 MSTORE POP PUSH1 0xB PUSH1 0x0 PUSH20 0x5B38DA6A701C568545DCFCB03FCB875F56BEDDC4 PUSH20 0xFFFFFFFFFFFFFFFFFFFFFFFFFFFFFFFFFFFFFFFF AND PUSH20 0xFFFFFFFFFFFFFFFFFFFFFFFFFFFFFFFFFFFFFFFF AND DUP2 MSTORE PUSH1 0x20 ADD SWAP1 DUP2 MSTORE PUSH1 0x20 ADD PUSH1 0x0 KECCAK256 PUSH1 0x0 DUP3 ADD MLOAD DUP2 PUSH1 0x0 ADD SWAP1 DUP2 PUSH3 0xA25 SWAP2 SWAP1 PUSH3 0x212D JUMP JUMPDEST POP PUSH1 0x20 DUP3 ADD MLOAD DUP2 PUSH1 0x1 ADD PUSH1 0x0 PUSH2 0x100 EXP DUP2 SLOAD DUP2 PUSH20 0xFFFFFFFFFFFFFFFFFFFFFFFFFFFFFFFFFFFFFFFF MUL NOT AND SWAP1 DUP4 PUSH20 0xFFFFFFFFFFFFFFFFFFFFFFFFFFFFFFFFFFFFFFFF AND MUL OR SWAP1 SSTORE POP PUSH1 0x40 DUP3 ADD MLOAD DUP2 PUSH1 0x1 ADD PUSH1 0x14 PUSH2 0x100 EXP DUP2 SLOAD DUP2 PUSH1 0xFF MUL NOT AND SWAP1 DUP4 ISZERO ISZERO MUL OR SWAP1 SSTORE POP PUSH1 0x60 DUP3 ADD MLOAD DUP2 PUSH1 0x2 ADD SSTORE PUSH1 0x80 DUP3 ADD MLOAD DUP2 PUSH1 0x3 ADD SSTORE PUSH1 0xA0 DUP3 ADD MLOAD DUP2 PUSH1 0x4 ADD SSTORE PUSH1 0xC0 DUP3 ADD MLOAD DUP2 PUSH1 0x5 ADD PUSH1 0x0 PUSH2 0x100 EXP DUP2 SLOAD DUP2 PUSH1 0xFF MUL NOT AND SWAP1 DUP4 PUSH1 0x3 DUP2 GT ISZERO PUSH3 0xAD9 JUMPI PUSH3 0xAD8 PUSH3 0x2440 JUMP JUMPDEST JUMPDEST MUL OR SWAP1 SSTORE POP SWAP1 POP POP PUSH1 0x40 MLOAD PUSH1 0x20 ADD PUSH3 0xAF2 SWAP1 PUSH3 0x24D0 JUMP JUMPDEST PUSH1 0x40 MLOAD PUSH1 0x20 DUP2 DUP4 SUB SUB DUP2 MSTORE SWAP1 PUSH1 0x40 MSTORE DUP1 MLOAD SWAP1 PUSH1 0x20 ADD KECCAK256 PUSH1 0xD PUSH1 0x40 MLOAD DUP1 PUSH1 0x40 ADD PUSH1 0x40 MSTORE DUP1 PUSH1 0x4 DUP2 MSTORE PUSH1 0x20 ADD PUSH32 0x696E763100000000000000000000000000000000000000000000000000000000 DUP2 MSTORE POP PUSH1 0x40 MLOAD PUSH3 0xB4F SWAP2 SWAP1 PUSH3 0x2695 JUMP JUMPDEST SWAP1 DUP2 MSTORE PUSH1 0x20 ADD PUSH1 0x40 MLOAD DUP1 SWAP2 SUB SWAP1 KECCAK256 DUP2 SWAP1 SSTORE POP PUSH20 0x5B38DA6A701C568545DCFCB03FCB875F56BEDDC4 PUSH1 0xC PUSH1 0x40 MLOAD DUP1 PUSH1 0x40 ADD PUSH1 0x40 MSTORE DUP1 PUSH1 0x4 DUP2 MSTORE PUSH1 0x20 ADD PUSH32 0x696E763100000000000000000000000000000000000000000000000000000000 DUP2 MSTORE POP PUSH1 0x40 MLOAD PUSH3 0xBBD SWAP2 SWAP1 PUSH3 0x2695 JUMP JUMPDEST SWAP1 DUP2 MSTORE PUSH1 0x20 ADD PUSH1 0x40 MLOAD DUP1 SWAP2 SUB SWAP1 KECCAK256 PUSH1 0x0 PUSH2 0x100 EXP DUP2 SLOAD DUP2 PUSH20 0xFFFFFFFFFFFFFFFFFFFFFFFFFFFFFFFFFFFFFFFF MUL NOT AND SWAP1 DUP4 PUSH20 0xFFFFFFFFFFFFFFFFFFFFFFFFFFFFFFFFFFFFFFFF AND MUL OR SWAP1 SSTORE POP PUSH1 0x40 MLOAD DUP1 PUSH1 0xE0 ADD PUSH1 0x40 MSTORE DUP1 PUSH1 0x40 MLOAD DUP1 PUSH1 0x40 ADD PUSH1 0x40 MSTORE DUP1 PUSH1 0x4 DUP2 MSTORE PUSH1 0x20 ADD PUSH32 0x696E763200000000000000000000000000000000000000000000000000000000 DUP2 MSTORE POP DUP2 MSTORE PUSH1 0x20 ADD PUSH20 0xAB8483F64D9C6D1ECF9B849AE677DD3315835CB2 PUSH20 0xFFFFFFFFFFFFFFFFFFFFFFFFFFFFFFFFFFFFFFFF AND DUP2 MSTORE PUSH1 0x20 ADD PUSH1 0x1 ISZERO ISZERO DUP2 MSTORE PUSH1 0x20 ADD PUSH3 0xC98 PUSH3 0x13C8 PUSH1 0x20 SHL PUSH1 0x20 SHR JUMP JUMPDEST PUSH1 0xA PUSH3 0xCA6 SWAP2 SWAP1 PUSH3 0x23A4 JUMP JUMPDEST PUSH3 0x61A80 PUSH3 0xCB6 SWAP2 SWAP1 PUSH3 0x23F5 JUMP JUMPDEST DUP2 MSTORE PUSH1 0x20 ADD PUSH1 0x0 DUP2 MSTORE PUSH1 0x20 ADD PUSH1 0x0 DUP2 MSTORE PUSH1 0x20 ADD PUSH1 0x0 PUSH1 0x3 DUP2 GT ISZERO PUSH3 0xCE0 JUMPI PUSH3 0xCDF PUSH3 0x2440 JUMP JUMPDEST JUMPDEST DUP2 MSTORE POP PUSH1 0xB PUSH1 0x0 PUSH20 0xAB8483F64D9C6D1ECF9B849AE677DD3315835CB2 PUSH20 0xFFFFFFFFFFFFFFFFFFFFFFFFFFFFFFFFFFFFFFFF AND PUSH20 0xFFFFFFFFFFFFFFFFFFFFFFFFFFFFFFFFFFFFFFFF AND DUP2 MSTORE PUSH1 0x20 ADD SWAP1 DUP2 MSTORE PUSH1 0x20 ADD PUSH1 0x0 KECCAK256 PUSH1 0x0 DUP3 ADD MLOAD DUP2 PUSH1 0x0 ADD SWAP1 DUP2 PUSH3 0xD4D SWAP2 SWAP1 PUSH3 0x212D JUMP JUMPDEST POP PUSH1 0x20 DUP3 ADD MLOAD DUP2 PUSH1 0x1 ADD PUSH1 0x0 PUSH2 0x100 EXP DUP2 SLOAD DUP2 PUSH20 0xFFFFFFFFFFFFFFFFFFFFFFFFFFFFFFFFFFFFFFFF MUL NOT AND SWAP1 DUP4 PUSH20 0xFFFFFFFFFFFFFFFFFFFFFFFFFFFFFFFFFFFFFFFF AND MUL OR SWAP1 SSTORE POP PUSH1 0x40 DUP3 ADD MLOAD DUP2 PUSH1 0x1 ADD PUSH1 0x14 PUSH2 0x100 EXP DUP2 SLOAD DUP2 PUSH1 0xFF MUL NOT AND SWAP1 DUP4 ISZERO ISZERO MUL OR SWAP1 SSTORE POP PUSH1 0x60 DUP3 ADD MLOAD DUP2 PUSH1 0x2 ADD SSTORE PUSH1 0x80 DUP3 ADD MLOAD DUP2 PUSH1 0x3 ADD SSTORE PUSH1 0xA0 DUP3 ADD MLOAD DUP2 PUSH1 0x4 ADD SSTORE PUSH1 0xC0 DUP3 ADD MLOAD DUP2 PUSH1 0x5 ADD PUSH1 0x0 PUSH2 0x100 EXP DUP2 SLOAD DUP2 PUSH1 0xFF MUL NOT AND SWAP1 DUP4 PUSH1 0x3 DUP2 GT ISZERO PUSH3 0xE01 JUMPI PUSH3 0xE00 PUSH3 0x2440 JUMP JUMPDEST JUMPDEST MUL OR SWAP1 SSTORE POP SWAP1 POP POP PUSH1 0x40 MLOAD PUSH1 0x20 ADD PUSH3 0xE1A SWAP1 PUSH3 0x24D0 JUMP JUMPDEST PUSH1 0x40 MLOAD PUSH1 0x20 DUP2 DUP4 SUB SUB DUP2 MSTORE SWAP1 PUSH1 0x40 MSTORE DUP1 MLOAD SWAP1 PUSH1 0x20 ADD KECCAK256 PUSH1 0xD PUSH1 0x40 MLOAD PUSH3 0xE40 SWAP1 PUSH3 0x26FE JUMP JUMPDEST SWAP1 DUP2 MSTORE PUSH1 0x20 ADD PUSH1 0x40 MLOAD DUP1 SWAP2 SUB SWAP1 KECCAK256 DUP2 SWAP1 SSTORE POP PUSH20 0xAB8483F64D9C6D1ECF9B849AE677DD3315835CB2 PUSH1 0xC PUSH1 0x40 MLOAD PUSH3 0xE77 SWAP1 PUSH3 0x26FE JUMP JUMPDEST SWAP1 DUP2 MSTORE PUSH1 0x20 ADD PUSH1 0x40 MLOAD DUP1 SWAP2 SUB SWAP1 KECCAK256 PUSH1 0x0 PUSH2 0x100 EXP DUP2 SLOAD DUP2 PUSH20 0xFFFFFFFFFFFFFFFFFFFFFFFFFFFFFFFFFFFFFFFF MUL NOT AND SWAP1 DUP4 PUSH20 0xFFFFFFFFFFFFFFFFFFFFFFFFFFFFFFFFFFFFFFFF AND MUL OR SWAP1 SSTORE POP PUSH1 0x40 MLOAD DUP1 PUSH1 0xE0 ADD PUSH1 0x40 MSTORE DUP1 PUSH1 0x40 MLOAD DUP1 PUSH1 0x40 ADD PUSH1 0x40 MSTORE DUP1 PUSH1 0x6 DUP2 MSTORE PUSH1 0x20 ADD PUSH32 0x667269656E640000000000000000000000000000000000000000000000000000 DUP2 MSTORE POP DUP2 MSTORE PUSH1 0x20 ADD PUSH20 0x4B20993BC481177EC7E8F571CECAE8A9E22C02DB PUSH20 0xFFFFFFFFFFFFFFFFFFFFFFFFFFFFFFFFFFFFFFFF AND DUP2 MSTORE PUSH1 0x20 ADD PUSH1 0x1 ISZERO ISZERO DUP2 MSTORE PUSH1 0x20 ADD PUSH3 0xF52 PUSH3 0x13C8 PUSH1 0x20 SHL PUSH1 0x20 SHR JUMP JUMPDEST PUSH1 0xA PUSH3 0xF60 SWAP2 SWAP1 PUSH3 0x23A4 JUMP JUMPDEST PUSH3 0x30D40 PUSH3 0xF70 SWAP2 SWAP1 PUSH3 0x23F5 JUMP JUMPDEST DUP2 MSTORE PUSH1 0x20 ADD PUSH1 0x0 DUP2 MSTORE PUSH1 0x20 ADD PUSH1 0x0 DUP2 MSTORE PUSH1 0x20 ADD PUSH1 0x0 PUSH1 0x3 DUP2 GT ISZERO PUSH3 0xF9A JUMPI PUSH3 0xF99 PUSH3 0x2440 JUMP JUMPDEST JUMPDEST DUP2 MSTORE POP PUSH1 0xB PUSH1 0x0 PUSH20 0x4B20993BC481177EC7E8F571CECAE8A9E22C02DB PUSH20 0xFFFFFFFFFFFFFFFFFFFFFFFFFFFFFFFFFFFFFFFF AND PUSH20 0xFFFFFFFFFFFFFFFFFFFFFFFFFFFFFFFFFFFFFFFF AND DUP2 MSTORE PUSH1 0x20 ADD SWAP1 DUP2 MSTORE PUSH1 0x20 ADD PUSH1 0x0 KECCAK256 PUSH1 0x0 DUP3 ADD MLOAD DUP2 PUSH1 0x0 ADD SWAP1 DUP2 PUSH3 0x1007 SWAP2 SWAP1 PUSH3 0x212D JUMP JUMPDEST POP PUSH1 0x20 DUP3 ADD MLOAD DUP2 PUSH1 0x1 ADD PUSH1 0x0 PUSH2 0x100 EXP DUP2 SLOAD DUP2 PUSH20 0xFFFFFFFFFFFFFFFFFFFFFFFFFFFFFFFFFFFFFFFF MUL NOT AND SWAP1 DUP4 PUSH20 0xFFFFFFFFFFFFFFFFFFFFFFFFFFFFFFFFFFFFFFFF AND MUL OR SWAP1 SSTORE POP PUSH1 0x40 DUP3 ADD MLOAD DUP2 PUSH1 0x1 ADD PUSH1 0x14 PUSH2 0x100 EXP DUP2 SLOAD DUP2 PUSH1 0xFF MUL NOT AND SWAP1 DUP4 ISZERO ISZERO MUL OR SWAP1 SSTORE POP PUSH1 0x60 DUP3 ADD MLOAD DUP2 PUSH1 0x2 ADD SSTORE PUSH1 0x80 DUP3 ADD MLOAD DUP2 PUSH1 0x3 ADD SSTORE PUSH1 0xA0 DUP3 ADD MLOAD DUP2 PUSH1 0x4 ADD SSTORE PUSH1 0xC0 DUP3 ADD MLOAD DUP2 PUSH1 0x5 ADD PUSH1 0x0 PUSH2 0x100 EXP DUP2 SLOAD DUP2 PUSH1 0xFF MUL NOT AND SWAP1 DUP4 PUSH1 0x3 DUP2 GT ISZERO PUSH3 0x10BB JUMPI PUSH3 0x10BA PUSH3 0x2440 JUMP JUMPDEST JUMPDEST MUL OR SWAP1 SSTORE POP SWAP1 POP POP PUSH1 0x40 MLOAD PUSH1 0x20 ADD PUSH3 0x10D4 SWAP1 PUSH3 0x24D0 JUMP JUMPDEST PUSH1 0x40 MLOAD PUSH1 0x20 DUP2 DUP4 SUB SUB DUP2 MSTORE SWAP1 PUSH1 0x40 MSTORE DUP1 MLOAD SWAP1 PUSH1 0x20 ADD KECCAK256 PUSH1 0xD PUSH1 0x40 MLOAD PUSH3 0x10FA SWAP1 PUSH3 0x2765 JUMP JUMPDEST SWAP1 DUP2 MSTORE PUSH1 0x20 ADD PUSH1 0x40 MLOAD DUP1 SWAP2 SUB SWAP1 KECCAK256 DUP2 SWAP1 SSTORE POP PUSH20 0x4B20993BC481177EC7E8F571CECAE8A9E22C02DB PUSH1 0xC PUSH1 0x40 MLOAD PUSH3 0x1131 SWAP1 PUSH3 0x2765 JUMP JUMPDEST SWAP1 DUP2 MSTORE PUSH1 0x20 ADD PUSH1 0x40 MLOAD DUP1 SWAP2 SUB SWAP1 KECCAK256 PUSH1 0x0 PUSH2 0x100 EXP DUP2 SLOAD DUP2 PUSH20 0xFFFFFFFFFFFFFFFFFFFFFFFFFFFFFFFFFFFFFFFF MUL NOT AND SWAP1 DUP4 PUSH20 0xFFFFFFFFFFFFFFFFFFFFFFFFFFFFFFFFFFFFFFFF AND MUL OR SWAP1 SSTORE POP PUSH3 0x118D PUSH3 0x153E PUSH1 0x20 SHL PUSH1 0x20 SHR JUMP JUMPDEST POP PUSH3 0x124A PUSH1 0xC PUSH1 0x40 MLOAD PUSH3 0x11A2 SWAP1 PUSH3 0x254D JUMP JUMPDEST SWAP1 DUP2 MSTORE PUSH1 0x20 ADD PUSH1 0x40 MLOAD DUP1 SWAP2 SUB SWAP1 KECCAK256 PUSH1 0x0 SWAP1 SLOAD SWAP1 PUSH2 0x100 EXP SWAP1 DIV PUSH20 0xFFFFFFFFFFFFFFFFFFFFFFFFFFFFFFFFFFFFFFFF AND PUSH1 0xC PUSH1 0x40 MLOAD PUSH3 0x11E1 SWAP1 PUSH3 0x27CC JUMP JUMPDEST SWAP1 DUP2 MSTORE PUSH1 0x20 ADD PUSH1 0x40 MLOAD DUP1 SWAP2 SUB SWAP1 KECCAK256 PUSH1 0x0 SWAP1 SLOAD SWAP1 PUSH2 0x100 EXP SWAP1 DIV PUSH20 0xFFFFFFFFFFFFFFFFFFFFFFFFFFFFFFFFFFFFFFFF AND PUSH3 0x1220 PUSH3 0x13C8 PUSH1 0x20 SHL PUSH1 0x20 SHR JUMP JUMPDEST PUSH1 0xA PUSH3 0x122E SWAP2 SWAP1 PUSH3 0x23A4 JUMP JUMPDEST PUSH3 0x493E0 PUSH3 0x123E SWAP2 SWAP1 PUSH3 0x23F5 JUMP JUMPDEST PUSH3 0x16C8 PUSH1 0x20 SHL PUSH1 0x20 SHR JUMP JUMPDEST PUSH3 0x1306 PUSH1 0xC PUSH1 0x40 MLOAD PUSH3 0x125E SWAP1 PUSH3 0x254D JUMP JUMPDEST SWAP1 DUP2 MSTORE PUSH1 0x20 ADD PUSH1 0x40 MLOAD DUP1 SWAP2 SUB SWAP1 KECCAK256 PUSH1 0x0 SWAP1 SLOAD SWAP1 PUSH2 0x100 EXP SWAP1 DIV PUSH20 0xFFFFFFFFFFFFFFFFFFFFFFFFFFFFFFFFFFFFFFFF AND PUSH1 0xC PUSH1 0x40 MLOAD PUSH3 0x129D SWAP1 PUSH3 0x26FE JUMP JUMPDEST SWAP1 DUP2 MSTORE PUSH1 0x20 ADD PUSH1 0x40 MLOAD DUP1 SWAP2 SUB SWAP1 KECCAK256 PUSH1 0x0 SWAP1 SLOAD SWAP1 PUSH2 0x100 EXP SWAP1 DIV PUSH20 0xFFFFFFFFFFFFFFFFFFFFFFFFFFFFFFFFFFFFFFFF AND PUSH3 0x12DC PUSH3 0x13C8 PUSH1 0x20 SHL PUSH1 0x20 SHR JUMP JUMPDEST PUSH1 0xA PUSH3 0x12EA SWAP2 SWAP1 PUSH3 0x23A4 JUMP JUMPDEST PUSH3 0x61A80 PUSH3 0x12FA SWAP2 SWAP1 PUSH3 0x23F5 JUMP JUMPDEST PUSH3 0x16C8 PUSH1 0x20 SHL PUSH1 0x20 SHR JUMP JUMPDEST PUSH3 0x13C2 PUSH1 0xC PUSH1 0x40 MLOAD PUSH3 0x131A SWAP1 PUSH3 0x254D JUMP JUMPDEST SWAP1 DUP2 MSTORE PUSH1 0x20 ADD PUSH1 0x40 MLOAD DUP1 SWAP2 SUB SWAP1 KECCAK256 PUSH1 0x0 SWAP1 SLOAD SWAP1 PUSH2 0x100 EXP SWAP1 DIV PUSH20 0xFFFFFFFFFFFFFFFFFFFFFFFFFFFFFFFFFFFFFFFF AND PUSH1 0xC PUSH1 0x40 MLOAD PUSH3 0x1359 SWAP1 PUSH3 0x2765 JUMP JUMPDEST SWAP1 DUP2 MSTORE PUSH1 0x20 ADD PUSH1 0x40 MLOAD DUP1 SWAP2 SUB SWAP1 KECCAK256 PUSH1 0x0 SWAP1 SLOAD SWAP1 PUSH2 0x100 EXP SWAP1 DIV PUSH20 0xFFFFFFFFFFFFFFFFFFFFFFFFFFFFFFFFFFFFFFFF AND PUSH3 0x1398 PUSH3 0x13C8 PUSH1 0x20 SHL PUSH1 0x20 SHR JUMP JUMPDEST PUSH1 0xA PUSH3 0x13A6 SWAP2 SWAP1 PUSH3 0x23A4 JUMP JUMPDEST PUSH3 0x30D40 PUSH3 0x13B6 SWAP2 SWAP1 PUSH3 0x23F5 JUMP JUMPDEST PUSH3 0x16C8 PUSH1 0x20 SHL PUSH1 0x20 SHR JUMP JUMPDEST PUSH3 0x2AC1 JUMP JUMPDEST PUSH1 0x0 PUSH1 0xC SWAP1 POP SWAP1 JUMP JUMPDEST PUSH1 0x0 PUSH20 0xFFFFFFFFFFFFFFFFFFFFFFFFFFFFFFFFFFFFFFFF AND DUP3 PUSH20 0xFFFFFFFFFFFFFFFFFFFFFFFFFFFFFFFFFFFFFFFF AND SUB PUSH3 0x1443 JUMPI PUSH1 0x40 MLOAD PUSH32 0x8C379A000000000000000000000000000000000000000000000000000000000 DUP2 MSTORE PUSH1 0x4 ADD PUSH3 0x143A SWAP1 PUSH3 0x2833 JUMP JUMPDEST PUSH1 0x40 MLOAD DUP1 SWAP2 SUB SWAP1 REVERT JUMPDEST PUSH3 0x1457 PUSH1 0x0 DUP4 DUP4 PUSH3 0x1959 PUSH1 0x20 SHL PUSH1 0x20 SHR JUMP JUMPDEST DUP1 PUSH1 0x2 PUSH1 0x0 DUP3 DUP3 SLOAD PUSH3 0x146B SWAP2 SWAP1 PUSH3 0x2855 JUMP JUMPDEST SWAP3 POP POP DUP2 SWAP1 SSTORE POP DUP1 PUSH1 0x0 DUP1 DUP5 PUSH20 0xFFFFFFFFFFFFFFFFFFFFFFFFFFFFFFFFFFFFFFFF AND PUSH20 0xFFFFFFFFFFFFFFFFFFFFFFFFFFFFFFFFFFFFFFFF AND DUP2 MSTORE PUSH1 0x20 ADD SWAP1 DUP2 MSTORE PUSH1 0x20 ADD PUSH1 0x0 KECCAK256 PUSH1 0x0 DUP3 DUP3 SLOAD ADD SWAP3 POP POP DUP2 SWAP1 SSTORE POP DUP2 PUSH20 0xFFFFFFFFFFFFFFFFFFFFFFFFFFFFFFFFFFFFFFFF AND PUSH1 0x0 PUSH20 0xFFFFFFFFFFFFFFFFFFFFFFFFFFFFFFFFFFFFFFFF AND PUSH32 0xDDF252AD1BE2C89B69C2B068FC378DAA952BA7F163C4A11628F55A4DF523B3EF DUP4 PUSH1 0x40 MLOAD PUSH3 0x151E SWAP2 SWAP1 PUSH3 0x28A1 JUMP JUMPDEST PUSH1 0x40 MLOAD DUP1 SWAP2 SUB SWAP1 LOG3 PUSH3 0x153A PUSH1 0x0 DUP4 DUP4 PUSH3 0x195E PUSH1 0x20 SHL PUSH1 0x20 SHR JUMP JUMPDEST POP POP JUMP JUMPDEST PUSH1 0x0 PUSH1 0x7 SLOAD TIMESTAMP PUSH3 0x1550 SWAP2 SWAP1 PUSH3 0x2855 JUMP JUMPDEST PUSH1 0x5 DUP2 SWAP1 SSTORE POP PUSH1 0x0 PUSH1 0x6 SLOAD PUSH1 0x5 SLOAD PUSH3 0x156A SWAP2 SWAP1 PUSH3 0x28BE JUMP JUMPDEST SWAP1 POP PUSH2 0x12C DUP2 GT DUP1 ISZERO PUSH3 0x157F JUMPI POP PUSH2 0x384 DUP2 LT JUMPDEST DUP1 ISZERO PUSH3 0x15C6 JUMPI POP PUSH1 0x1 PUSH1 0x2 DUP2 GT ISZERO PUSH3 0x159E JUMPI PUSH3 0x159D PUSH3 0x2440 JUMP JUMPDEST JUMPDEST PUSH1 0xA PUSH1 0x0 SWAP1 SLOAD SWAP1 PUSH2 0x100 EXP SWAP1 DIV PUSH1 0xFF AND PUSH1 0x2 DUP2 GT ISZERO PUSH3 0x15C3 JUMPI PUSH3 0x15C2 PUSH3 0x2440 JUMP JUMPDEST JUMPDEST EQ ISZERO JUMPDEST ISZERO PUSH3 0x1620 JUMPI PUSH1 0x1 PUSH1 0xA PUSH1 0x0 PUSH2 0x100 EXP DUP2 SLOAD DUP2 PUSH1 0xFF MUL NOT AND SWAP1 DUP4 PUSH1 0x2 DUP2 GT ISZERO PUSH3 0x15F5 JUMPI PUSH3 0x15F4 PUSH3 0x2440 JUMP JUMPDEST JUMPDEST MUL OR SWAP1 SSTORE POP PUSH3 0x161A PUSH1 0xA PUSH1 0x0 SWAP1 SLOAD SWAP1 PUSH2 0x100 EXP SWAP1 DIV PUSH1 0xFF AND PUSH3 0x1963 PUSH1 0x20 SHL PUSH1 0x20 SHR JUMP JUMPDEST PUSH3 0x16C1 JUMP JUMPDEST PUSH2 0x384 DUP2 GT DUP1 ISZERO PUSH3 0x166B JUMPI POP PUSH1 0x2 DUP1 DUP2 GT ISZERO PUSH3 0x1643 JUMPI PUSH3 0x1642 PUSH3 0x2440 JUMP JUMPDEST JUMPDEST PUSH1 0xA PUSH1 0x0 SWAP1 SLOAD SWAP1 PUSH2 0x100 EXP SWAP1 DIV PUSH1 0xFF AND PUSH1 0x2 DUP2 GT ISZERO PUSH3 0x1668 JUMPI PUSH3 0x1667 PUSH3 0x2440 JUMP JUMPDEST JUMPDEST EQ ISZERO JUMPDEST ISZERO PUSH3 0x16C0 JUMPI PUSH1 0x2 PUSH1 0xA PUSH1 0x0 PUSH2 0x100 EXP DUP2 SLOAD DUP2 PUSH1 0xFF MUL NOT AND SWAP1 DUP4 PUSH1 0x2 DUP2 GT ISZERO PUSH3 0x169A JUMPI PUSH3 0x1699 PUSH3 0x2440 JUMP JUMPDEST JUMPDEST MUL OR SWAP1 SSTORE POP PUSH3 0x16BF PUSH1 0xA PUSH1 0x0 SWAP1 SLOAD SWAP1 PUSH2 0x100 EXP SWAP1 DIV PUSH1 0xFF AND PUSH3 0x1963 PUSH1 0x20 SHL PUSH1 0x20 SHR JUMP JUMPDEST JUMPDEST JUMPDEST DUP1 SWAP2 POP POP SWAP1 JUMP JUMPDEST PUSH1 0x0 PUSH20 0xFFFFFFFFFFFFFFFFFFFFFFFFFFFFFFFFFFFFFFFF AND DUP4 PUSH20 0xFFFFFFFFFFFFFFFFFFFFFFFFFFFFFFFFFFFFFFFF AND SUB PUSH3 0x173A JUMPI PUSH1 0x40 MLOAD PUSH32 0x8C379A000000000000000000000000000000000000000000000000000000000 DUP2 MSTORE PUSH1 0x4 ADD PUSH3 0x1731 SWAP1 PUSH3 0x296F JUMP JUMPDEST PUSH1 0x40 MLOAD DUP1 SWAP2 SUB SWAP1 REVERT JUMPDEST PUSH1 0x0 PUSH20 0xFFFFFFFFFFFFFFFFFFFFFFFFFFFFFFFFFFFFFFFF AND DUP3 PUSH20 0xFFFFFFFFFFFFFFFFFFFFFFFFFFFFFFFFFFFFFFFF AND SUB PUSH3 0x17AC JUMPI PUSH1 0x40 MLOAD PUSH32 0x8C379A000000000000000000000000000000000000000000000000000000000 DUP2 MSTORE PUSH1 0x4 ADD PUSH3 0x17A3 SWAP1 PUSH3 0x2A07 JUMP JUMPDEST PUSH1 0x40 MLOAD DUP1 SWAP2 SUB SWAP1 REVERT JUMPDEST PUSH3 0x17BF DUP4 DUP4 DUP4 PUSH3 0x1959 PUSH1 0x20 SHL PUSH1 0x20 SHR JUMP JUMPDEST PUSH1 0x0 DUP1 PUSH1 0x0 DUP6 PUSH20 0xFFFFFFFFFFFFFFFFFFFFFFFFFFFFFFFFFFFFFFFF AND PUSH20 0xFFFFFFFFFFFFFFFFFFFFFFFFFFFFFFFFFFFFFFFF AND DUP2 MSTORE PUSH1 0x20 ADD SWAP1 DUP2 MSTORE PUSH1 0x20 ADD PUSH1 0x0 KECCAK256 SLOAD SWAP1 POP DUP2 DUP2 LT ISZERO PUSH3 0x1848 JUMPI PUSH1 0x40 MLOAD PUSH32 0x8C379A000000000000000000000000000000000000000000000000000000000 DUP2 MSTORE PUSH1 0x4 ADD PUSH3 0x183F SWAP1 PUSH3 0x2A9F JUMP JUMPDEST PUSH1 0x40 MLOAD DUP1 SWAP2 SUB SWAP1 REVERT JUMPDEST DUP2 DUP2 SUB PUSH1 0x0 DUP1 DUP7 PUSH20 0xFFFFFFFFFFFFFFFFFFFFFFFFFFFFFFFFFFFFFFFF AND PUSH20 0xFFFFFFFFFFFFFFFFFFFFFFFFFFFFFFFFFFFFFFFF AND DUP2 MSTORE PUSH1 0x20 ADD SWAP1 DUP2 MSTORE PUSH1 0x20 ADD PUSH1 0x0 KECCAK256 DUP2 SWAP1 SSTORE POP DUP2 PUSH1 0x0 DUP1 DUP6 PUSH20 0xFFFFFFFFFFFFFFFFFFFFFFFFFFFFFFFFFFFFFFFF AND PUSH20 0xFFFFFFFFFFFFFFFFFFFFFFFFFFFFFFFFFFFFFFFF AND DUP2 MSTORE PUSH1 0x20 ADD SWAP1 DUP2 MSTORE PUSH1 0x20 ADD PUSH1 0x0 KECCAK256 PUSH1 0x0 DUP3 DUP3 SLOAD ADD SWAP3 POP POP DUP2 SWAP1 SSTORE POP DUP3 PUSH20 0xFFFFFFFFFFFFFFFFFFFFFFFFFFFFFFFFFFFFFFFF AND DUP5 PUSH20 0xFFFFFFFFFFFFFFFFFFFFFFFFFFFFFFFFFFFFFFFF AND PUSH32 0xDDF252AD1BE2C89B69C2B068FC378DAA952BA7F163C4A11628F55A4DF523B3EF DUP5 PUSH1 0x40 MLOAD PUSH3 0x1938 SWAP2 SWAP1 PUSH3 0x28A1 JUMP JUMPDEST PUSH1 0x40 MLOAD DUP1 SWAP2 SUB SWAP1 LOG3 PUSH3 0x1953 DUP5 DUP5 DUP5 PUSH3 0x195E PUSH1 0x20 SHL PUSH1 0x20 SHR JUMP JUMPDEST POP POP POP POP JUMP JUMPDEST POP POP POP JUMP JUMPDEST POP POP POP JUMP JUMPDEST PUSH1 0x1 PUSH1 0x2 DUP2 GT ISZERO PUSH3 0x197A JUMPI PUSH3 0x1979 PUSH3 0x2440 JUMP JUMPDEST JUMPDEST DUP2 PUSH1 0x2 DUP2 GT ISZERO PUSH3 0x1990 JUMPI PUSH3 0x198F PUSH3 0x2440 JUMP JUMPDEST JUMPDEST SUB PUSH3 0x1C26 JUMPI PUSH7 0x2AA1EFB94E000 PUSH1 0x8 DUP2 SWAP1 SSTORE POP PUSH3 0x19B4 PUSH3 0x13C8 PUSH1 0x20 SHL PUSH1 0x20 SHR JUMP JUMPDEST PUSH1 0xA PUSH3 0x19C2 SWAP2 SWAP1 PUSH3 0x23A4 JUMP JUMPDEST PUSH3 0x186A0 PUSH3 0x19D2 SWAP2 SWAP1 PUSH3 0x23F5 JUMP JUMPDEST PUSH1 0x9 DUP2 SWAP1 SSTORE POP PUSH3 0x19E8 PUSH3 0x13C8 PUSH1 0x20 SHL PUSH1 0x20 SHR JUMP JUMPDEST PUSH1 0xA PUSH3 0x19F6 SWAP2 SWAP1 PUSH3 0x23A4 JUMP JUMPDEST PUSH3 0x2DC6C0 PUSH3 0x1A06 SWAP2 SWAP1 PUSH3 0x23F5 JUMP JUMPDEST PUSH1 0xB PUSH1 0x0 PUSH1 0xC PUSH1 0x40 MLOAD PUSH3 0x1A1A SWAP1 PUSH3 0x254D JUMP JUMPDEST SWAP1 DUP2 MSTORE PUSH1 0x20 ADD PUSH1 0x40 MLOAD DUP1 SWAP2 SUB SWAP1 KECCAK256 PUSH1 0x0 SWAP1 SLOAD SWAP1 PUSH2 0x100 EXP SWAP1 DIV PUSH20 0xFFFFFFFFFFFFFFFFFFFFFFFFFFFFFFFFFFFFFFFF AND PUSH20 0xFFFFFFFFFFFFFFFFFFFFFFFFFFFFFFFFFFFFFFFF AND PUSH20 0xFFFFFFFFFFFFFFFFFFFFFFFFFFFFFFFFFFFFFFFF AND DUP2 MSTORE PUSH1 0x20 ADD SWAP1 DUP2 MSTORE PUSH1 0x20 ADD PUSH1 0x0 KECCAK256 PUSH1 0x3 ADD PUSH1 0x0 DUP3 DUP3 SLOAD PUSH3 0x1A97 SWAP2 SWAP1 PUSH3 0x28BE JUMP JUMPDEST SWAP3 POP POP DUP2 SWAP1 SSTORE POP PUSH3 0x1AAE PUSH3 0x13C8 PUSH1 0x20 SHL PUSH1 0x20 SHR JUMP JUMPDEST PUSH1 0xA PUSH3 0x1ABC SWAP2 SWAP1 PUSH3 0x23A4 JUMP JUMPDEST PUSH3 0x2DC6C0 PUSH3 0x1ACC SWAP2 SWAP1 PUSH3 0x23F5 JUMP JUMPDEST PUSH1 0xB PUSH1 0x0 PUSH1 0xC PUSH1 0x40 MLOAD PUSH3 0x1AE0 SWAP1 PUSH3 0x25B4 JUMP JUMPDEST SWAP1 DUP2 MSTORE PUSH1 0x20 ADD PUSH1 0x40 MLOAD DUP1 SWAP2 SUB SWAP1 KECCAK256 PUSH1 0x0 SWAP1 SLOAD SWAP1 PUSH2 0x100 EXP SWAP1 DIV PUSH20 0xFFFFFFFFFFFFFFFFFFFFFFFFFFFFFFFFFFFFFFFF AND PUSH20 0xFFFFFFFFFFFFFFFFFFFFFFFFFFFFFFFFFFFFFFFF AND PUSH20 0xFFFFFFFFFFFFFFFFFFFFFFFFFFFFFFFFFFFFFFFF AND DUP2 MSTORE PUSH1 0x20 ADD SWAP1 DUP2 MSTORE PUSH1 0x20 ADD PUSH1 0x0 KECCAK256 PUSH1 0x3 ADD PUSH1 0x0 DUP3 DUP3 SLOAD PUSH3 0x1B5D SWAP2 SWAP1 PUSH3 0x2855 JUMP JUMPDEST SWAP3 POP POP DUP2 SWAP1 SSTORE POP PUSH3 0x1C20 PUSH1 0xC PUSH1 0x40 MLOAD PUSH3 0x1B78 SWAP1 PUSH3 0x254D JUMP JUMPDEST SWAP1 DUP2 MSTORE PUSH1 0x20 ADD PUSH1 0x40 MLOAD DUP1 SWAP2 SUB SWAP1 KECCAK256 PUSH1 0x0 SWAP1 SLOAD SWAP1 PUSH2 0x100 EXP SWAP1 DIV PUSH20 0xFFFFFFFFFFFFFFFFFFFFFFFFFFFFFFFFFFFFFFFF AND PUSH1 0xC PUSH1 0x40 MLOAD PUSH3 0x1BB7 SWAP1 PUSH3 0x25B4 JUMP JUMPDEST SWAP1 DUP2 MSTORE PUSH1 0x20 ADD PUSH1 0x40 MLOAD DUP1 SWAP2 SUB SWAP1 KECCAK256 PUSH1 0x0 SWAP1 SLOAD SWAP1 PUSH2 0x100 EXP SWAP1 DIV PUSH20 0xFFFFFFFFFFFFFFFFFFFFFFFFFFFFFFFFFFFFFFFF AND PUSH3 0x1BF6 PUSH3 0x13C8 PUSH1 0x20 SHL PUSH1 0x20 SHR JUMP JUMPDEST PUSH1 0xA PUSH3 0x1C04 SWAP2 SWAP1 PUSH3 0x23A4 JUMP JUMPDEST PUSH3 0x2DC6C0 PUSH3 0x1C14 SWAP2 SWAP1 PUSH3 0x23F5 JUMP JUMPDEST PUSH3 0x16C8 PUSH1 0x20 SHL PUSH1 0x20 SHR JUMP JUMPDEST PUSH3 0x1EB0 JUMP JUMPDEST PUSH7 0x38D7EA4C68000 PUSH1 0x8 DUP2 SWAP1 SSTORE POP PUSH3 0x1C44 PUSH3 0x13C8 PUSH1 0x20 SHL PUSH1 0x20 SHR JUMP JUMPDEST PUSH1 0xA PUSH3 0x1C52 SWAP2 SWAP1 PUSH3 0x23A4 JUMP JUMPDEST PUSH2 0x1388 PUSH3 0x1C61 SWAP2 SWAP1 PUSH3 0x23F5 JUMP JUMPDEST PUSH1 0x9 DUP2 SWAP1 SSTORE POP PUSH3 0x1C77 PUSH3 0x13C8 PUSH1 0x20 SHL PUSH1 0x20 SHR JUMP JUMPDEST PUSH1 0xA PUSH3 0x1C85 SWAP2 SWAP1 PUSH3 0x23A4 JUMP JUMPDEST PUSH3 0x5B8D80 PUSH3 0x1C95 SWAP2 SWAP1 PUSH3 0x23F5 JUMP JUMPDEST PUSH1 0xB PUSH1 0x0 PUSH1 0xC PUSH1 0x40 MLOAD PUSH3 0x1CA9 SWAP1 PUSH3 0x254D JUMP JUMPDEST SWAP1 DUP2 MSTORE PUSH1 0x20 ADD PUSH1 0x40 MLOAD DUP1 SWAP2 SUB SWAP1 KECCAK256 PUSH1 0x0 SWAP1 SLOAD SWAP1 PUSH2 0x100 EXP SWAP1 DIV PUSH20 0xFFFFFFFFFFFFFFFFFFFFFFFFFFFFFFFFFFFFFFFF AND PUSH20 0xFFFFFFFFFFFFFFFFFFFFFFFFFFFFFFFFFFFFFFFF AND PUSH20 0xFFFFFFFFFFFFFFFFFFFFFFFFFFFFFFFFFFFFFFFF AND DUP2 MSTORE PUSH1 0x20 ADD SWAP1 DUP2 MSTORE PUSH1 0x20 ADD PUSH1 0x0 KECCAK256 PUSH1 0x4 ADD PUSH1 0x0 DUP3 DUP3 SLOAD PUSH3 0x1D26 SWAP2 SWAP1 PUSH3 0x28BE JUMP JUMPDEST SWAP3 POP POP DUP2 SWAP1 SSTORE POP PUSH3 0x1D3D PUSH3 0x13C8 PUSH1 0x20 SHL PUSH1 0x20 SHR JUMP JUMPDEST PUSH1 0xA PUSH3 0x1D4B SWAP2 SWAP1 PUSH3 0x23A4 JUMP JUMPDEST PUSH3 0x5B8D80 PUSH3 0x1D5B SWAP2 SWAP1 PUSH3 0x23F5 JUMP JUMPDEST PUSH1 0xB PUSH1 0x0 PUSH1 0xC PUSH1 0x40 MLOAD PUSH3 0x1D6F SWAP1 PUSH3 0x261B JUMP JUMPDEST SWAP1 DUP2 MSTORE PUSH1 0x20 ADD PUSH1 0x40 MLOAD DUP1 SWAP2 SUB SWAP1 KECCAK256 PUSH1 0x0 SWAP1 SLOAD SWAP1 PUSH2 0x100 EXP SWAP1 DIV PUSH20 0xFFFFFFFFFFFFFFFFFFFFFFFFFFFFFFFFFFFFFFFF AND PUSH20 0xFFFFFFFFFFFFFFFFFFFFFFFFFFFFFFFFFFFFFFFF AND PUSH20 0xFFFFFFFFFFFFFFFFFFFFFFFFFFFFFFFFFFFFFFFF AND DUP2 MSTORE PUSH1 0x20 ADD SWAP1 DUP2 MSTORE PUSH1 0x20 ADD PUSH1 0x0 KECCAK256 PUSH1 0x4 ADD PUSH1 0x0 DUP3 DUP3 SLOAD PUSH3 0x1DEC SWAP2 SWAP1 PUSH3 0x2855 JUMP JUMPDEST SWAP3 POP POP DUP2 SWAP1 SSTORE POP PUSH3 0x1EAF PUSH1 0xC PUSH1 0x40 MLOAD PUSH3 0x1E07 SWAP1 PUSH3 0x254D JUMP JUMPDEST SWAP1 DUP2 MSTORE PUSH1 0x20 ADD PUSH1 0x40 MLOAD DUP1 SWAP2 SUB SWAP1 KECCAK256 PUSH1 0x0 SWAP1 SLOAD SWAP1 PUSH2 0x100 EXP SWAP1 DIV PUSH20 0xFFFFFFFFFFFFFFFFFFFFFFFFFFFFFFFFFFFFFFFF AND PUSH1 0xC PUSH1 0x40 MLOAD PUSH3 0x1E46 SWAP1 PUSH3 0x261B JUMP JUMPDEST SWAP1 DUP2 MSTORE PUSH1 0x20 ADD PUSH1 0x40 MLOAD DUP1 SWAP2 SUB SWAP1 KECCAK256 PUSH1 0x0 SWAP1 SLOAD SWAP1 PUSH2 0x100 EXP SWAP1 DIV PUSH20 0xFFFFFFFFFFFFFFFFFFFFFFFFFFFFFFFFFFFFFFFF AND PUSH3 0x1E85 PUSH3 0x13C8 PUSH1 0x20 SHL PUSH1 0x20 SHR JUMP JUMPDEST PUSH1 0xA PUSH3 0x1E93 SWAP2 SWAP1 PUSH3 0x23A4 JUMP JUMPDEST PUSH3 0x5B8D80 PUSH3 0x1EA3 SWAP2 SWAP1 PUSH3 0x23F5 JUMP JUMPDEST PUSH3 0x16C8 PUSH1 0x20 SHL PUSH1 0x20 SHR JUMP JUMPDEST JUMPDEST POP JUMP JUMPDEST PUSH1 0x0 DUP2 MLOAD SWAP1 POP SWAP2 SWAP1 POP JUMP JUMPDEST PUSH32 0x4E487B7100000000000000000000000000000000000000000000000000000000 PUSH1 0x0 MSTORE PUSH1 0x41 PUSH1 0x4 MSTORE PUSH1 0x24 PUSH1 0x0 REVERT JUMPDEST PUSH32 0x4E487B7100000000000000000000000000000000000000000000000000000000 PUSH1 0x0 MSTORE PUSH1 0x22 PUSH1 0x4 MSTORE PUSH1 0x24 PUSH1 0x0 REVERT JUMPDEST PUSH1 0x0 PUSH1 0x2 DUP3 DIV SWAP1 POP PUSH1 0x1 DUP3 AND DUP1 PUSH3 0x1F35 JUMPI PUSH1 0x7F DUP3 AND SWAP2 POP JUMPDEST PUSH1 0x20 DUP3 LT DUP2 SUB PUSH3 0x1F4B JUMPI PUSH3 0x1F4A PUSH3 0x1EED JUMP JUMPDEST JUMPDEST POP SWAP2 SWAP1 POP JUMP JUMPDEST PUSH1 0x0 DUP2 SWAP1 POP DUP2 PUSH1 0x0 MSTORE PUSH1 0x20 PUSH1 0x0 KECCAK256 SWAP1 POP SWAP2 SWAP1 POP JUMP JUMPDEST PUSH1 0x0 PUSH1 0x20 PUSH1 0x1F DUP4 ADD DIV SWAP1 POP SWAP2 SWAP1 POP JUMP JUMPDEST PUSH1 0x0 DUP3 DUP3 SHL SWAP1 POP SWAP3 SWAP2 POP POP JUMP JUMPDEST PUSH1 0x0 PUSH1 0x8 DUP4 MUL PUSH3 0x1FB5 PUSH32 0xFFFFFFFFFFFFFFFFFFFFFFFFFFFFFFFFFFFFFFFFFFFFFFFFFFFFFFFFFFFFFFFF DUP3 PUSH3 0x1F76 JUMP JUMPDEST PUSH3 0x1FC1 DUP7 DUP4 PUSH3 0x1F76 JUMP JUMPDEST SWAP6 POP DUP1 NOT DUP5 AND SWAP4 POP DUP1 DUP7 AND DUP5 OR SWAP3 POP POP POP SWAP4 SWAP3 POP POP POP JUMP JUMPDEST PUSH1 0x0 DUP2 SWAP1 POP SWAP2 SWAP1 POP JUMP JUMPDEST PUSH1 0x0 DUP2 SWAP1 POP SWAP2 SWAP1 POP JUMP JUMPDEST PUSH1 0x0 PUSH3 0x200E PUSH3 0x2008 PUSH3 0x2002 DUP5 PUSH3 0x1FD9 JUMP JUMPDEST PUSH3 0x1FE3 JUMP JUMPDEST PUSH3 0x1FD9 JUMP JUMPDEST SWAP1 POP SWAP2 SWAP1 POP JUMP JUMPDEST PUSH1 0x0 DUP2 SWAP1 POP SWAP2 SWAP1 POP JUMP JUMPDEST PUSH3 0x202A DUP4 PUSH3 0x1FED JUMP JUMPDEST PUSH3 0x2042 PUSH3 0x2039 DUP3 PUSH3 0x2015 JUMP JUMPDEST DUP5 DUP5 SLOAD PUSH3 0x1F83 JUMP JUMPDEST DUP3 SSTORE POP POP POP POP JUMP JUMPDEST PUSH1 0x0 SWAP1 JUMP JUMPDEST PUSH3 0x2059 PUSH3 0x204A JUMP JUMPDEST PUSH3 0x2066 DUP2 DUP5 DUP5 PUSH3 0x201F JUMP JUMPDEST POP POP POP JUMP JUMPDEST JUMPDEST DUP2 DUP2 LT ISZERO PUSH3 0x208E JUMPI PUSH3 0x2082 PUSH1 0x0 DUP3 PUSH3 0x204F JUMP JUMPDEST PUSH1 0x1 DUP2 ADD SWAP1 POP PUSH3 0x206C JUMP JUMPDEST POP POP JUMP JUMPDEST PUSH1 0x1F DUP3 GT ISZERO PUSH3 0x20DD JUMPI PUSH3 0x20A7 DUP2 PUSH3 0x1F51 JUMP JUMPDEST PUSH3 0x20B2 DUP5 PUSH3 0x1F66 JUMP JUMPDEST DUP2 ADD PUSH1 0x20 DUP6 LT ISZERO PUSH3 0x20C2 JUMPI DUP2 SWAP1 POP JUMPDEST PUSH3 0x20DA PUSH3 0x20D1 DUP6 PUSH3 0x1F66 JUMP JUMPDEST DUP4 ADD DUP3 PUSH3 0x206B JUMP JUMPDEST POP POP JUMPDEST POP POP POP JUMP JUMPDEST PUSH1 0x0 DUP3 DUP3 SHR SWAP1 POP SWAP3 SWAP2 POP POP JUMP JUMPDEST PUSH1 0x0 PUSH3 0x2102 PUSH1 0x0 NOT DUP5 PUSH1 0x8 MUL PUSH3 0x20E2 JUMP JUMPDEST NOT DUP1 DUP4 AND SWAP2 POP POP SWAP3 SWAP2 POP POP JUMP JUMPDEST PUSH1 0x0 PUSH3 0x211D DUP4 DUP4 PUSH3 0x20EF JUMP JUMPDEST SWAP2 POP DUP3 PUSH1 0x2 MUL DUP3 OR SWAP1 POP SWAP3 SWAP2 POP POP JUMP JUMPDEST PUSH3 0x2138 DUP3 PUSH3 0x1EB3 JUMP JUMPDEST PUSH8 0xFFFFFFFFFFFFFFFF DUP2 GT ISZERO PUSH3 0x2154 JUMPI PUSH3 0x2153 PUSH3 0x1EBE JUMP JUMPDEST JUMPDEST PUSH3 0x2160 DUP3 SLOAD PUSH3 0x1F1C JUMP JUMPDEST PUSH3 0x216D DUP3 DUP3 DUP6 PUSH3 0x2092 JUMP JUMPDEST PUSH1 0x0 PUSH1 0x20 SWAP1 POP PUSH1 0x1F DUP4 GT PUSH1 0x1 DUP2 EQ PUSH3 0x21A5 JUMPI PUSH1 0x0 DUP5 ISZERO PUSH3 0x2190 JUMPI DUP3 DUP8 ADD MLOAD SWAP1 POP JUMPDEST PUSH3 0x219C DUP6 DUP3 PUSH3 0x210F JUMP JUMPDEST DUP7 SSTORE POP PUSH3 0x220C JUMP JUMPDEST PUSH1 0x1F NOT DUP5 AND PUSH3 0x21B5 DUP7 PUSH3 0x1F51 JUMP JUMPDEST PUSH1 0x0 JUMPDEST DUP3 DUP2 LT ISZERO PUSH3 0x21DF JUMPI DUP5 DUP10 ADD MLOAD DUP3 SSTORE PUSH1 0x1 DUP3 ADD SWAP2 POP PUSH1 0x20 DUP6 ADD SWAP5 POP PUSH1 0x20 DUP2 ADD SWAP1 POP PUSH3 0x21B8 JUMP JUMPDEST DUP7 DUP4 LT ISZERO PUSH3 0x21FF JUMPI DUP5 DUP10 ADD MLOAD PUSH3 0x21FB PUSH1 0x1F DUP10 AND DUP3 PUSH3 0x20EF JUMP JUMPDEST DUP4 SSTORE POP JUMPDEST PUSH1 0x1 PUSH1 0x2 DUP9 MUL ADD DUP9 SSTORE POP POP POP JUMPDEST POP POP POP POP POP POP JUMP JUMPDEST PUSH32 0x4E487B7100000000000000000000000000000000000000000000000000000000 PUSH1 0x0 MSTORE PUSH1 0x11 PUSH1 0x4 MSTORE PUSH1 0x24 PUSH1 0x0 REVERT JUMPDEST PUSH1 0x0 DUP2 PUSH1 0x1 SHR SWAP1 POP SWAP2 SWAP1 POP JUMP JUMPDEST PUSH1 0x0 DUP1 DUP3 SWAP2 POP DUP4 SWAP1 POP JUMPDEST PUSH1 0x1 DUP6 GT ISZERO PUSH3 0x22A2 JUMPI DUP1 DUP7 DIV DUP2 GT ISZERO PUSH3 0x227A JUMPI PUSH3 0x2279 PUSH3 0x2214 JUMP JUMPDEST JUMPDEST PUSH1 0x1 DUP6 AND ISZERO PUSH3 0x228A JUMPI DUP1 DUP3 MUL SWAP2 POP JUMPDEST DUP1 DUP2 MUL SWAP1 POP PUSH3 0x229A DUP6 PUSH3 0x2243 JUMP JUMPDEST SWAP5 POP PUSH3 0x225A JUMP JUMPDEST SWAP5 POP SWAP5 SWAP3 POP POP POP JUMP JUMPDEST PUSH1 0x0 DUP3 PUSH3 0x22BD JUMPI PUSH1 0x1 SWAP1 POP PUSH3 0x2390 JUMP JUMPDEST DUP2 PUSH3 0x22CD JUMPI PUSH1 0x0 SWAP1 POP PUSH3 0x2390 JUMP JUMPDEST DUP2 PUSH1 0x1 DUP2 EQ PUSH3 0x22E6 JUMPI PUSH1 0x2 DUP2 EQ PUSH3 0x22F1 JUMPI PUSH3 0x2327 JUMP JUMPDEST PUSH1 0x1 SWAP2 POP POP PUSH3 0x2390 JUMP JUMPDEST PUSH1 0xFF DUP5 GT ISZERO PUSH3 0x2306 JUMPI PUSH3 0x2305 PUSH3 0x2214 JUMP JUMPDEST JUMPDEST DUP4 PUSH1 0x2 EXP SWAP2 POP DUP5 DUP3 GT ISZERO PUSH3 0x2320 JUMPI PUSH3 0x231F PUSH3 0x2214 JUMP JUMPDEST JUMPDEST POP PUSH3 0x2390 JUMP JUMPDEST POP PUSH1 0x20 DUP4 LT PUSH2 0x133 DUP4 LT AND PUSH1 0x4E DUP5 LT PUSH1 0xB DUP5 LT AND OR ISZERO PUSH3 0x2361 JUMPI DUP3 DUP3 EXP SWAP1 POP DUP4 DUP2 GT ISZERO PUSH3 0x235B JUMPI PUSH3 0x235A PUSH3 0x2214 JUMP JUMPDEST JUMPDEST PUSH3 0x2390 JUMP JUMPDEST PUSH3 0x2370 DUP5 DUP5 DUP5 PUSH1 0x1 PUSH3 0x2250 JUMP JUMPDEST SWAP3 POP SWAP1 POP DUP2 DUP5 DIV DUP2 GT ISZERO PUSH3 0x238A JUMPI PUSH3 0x2389 PUSH3 0x2214 JUMP JUMPDEST JUMPDEST DUP2 DUP2 MUL SWAP1 POP JUMPDEST SWAP4 SWAP3 POP POP POP JUMP JUMPDEST PUSH1 0x0 PUSH1 0xFF DUP3 AND SWAP1 POP SWAP2 SWAP1 POP JUMP JUMPDEST PUSH1 0x0 PUSH3 0x23B1 DUP3 PUSH3 0x1FD9 JUMP JUMPDEST SWAP2 POP PUSH3 0x23BE DUP4 PUSH3 0x2397 JUMP JUMPDEST SWAP3 POP PUSH3 0x23ED PUSH32 0xFFFFFFFFFFFFFFFFFFFFFFFFFFFFFFFFFFFFFFFFFFFFFFFFFFFFFFFFFFFFFFFF DUP5 DUP5 PUSH3 0x22AB JUMP JUMPDEST SWAP1 POP SWAP3 SWAP2 POP POP JUMP JUMPDEST PUSH1 0x0 PUSH3 0x2402 DUP3 PUSH3 0x1FD9 JUMP JUMPDEST SWAP2 POP PUSH3 0x240F DUP4 PUSH3 0x1FD9 JUMP JUMPDEST SWAP3 POP DUP3 DUP3 MUL PUSH3 0x241F DUP2 PUSH3 0x1FD9 JUMP JUMPDEST SWAP2 POP DUP3 DUP3 DIV DUP5 EQ DUP4 ISZERO OR PUSH3 0x2439 JUMPI PUSH3 0x2438 PUSH3 0x2214 JUMP JUMPDEST JUMPDEST POP SWAP3 SWAP2 POP POP JUMP JUMPDEST PUSH32 0x4E487B7100000000000000000000000000000000000000000000000000000000 PUSH1 0x0 MSTORE PUSH1 0x21 PUSH1 0x4 MSTORE PUSH1 0x24 PUSH1 0x0 REVERT JUMPDEST PUSH1 0x0 DUP3 DUP3 MSTORE PUSH1 0x20 DUP3 ADD SWAP1 POP SWAP3 SWAP2 POP POP JUMP JUMPDEST PUSH32 0x3132330000000000000000000000000000000000000000000000000000000000 PUSH1 0x0 DUP3 ADD MSTORE POP JUMP JUMPDEST PUSH1 0x0 PUSH3 0x24B8 PUSH1 0x3 DUP4 PUSH3 0x246F JUMP JUMPDEST SWAP2 POP PUSH3 0x24C5 DUP3 PUSH3 0x2480 JUMP JUMPDEST PUSH1 0x20 DUP3 ADD SWAP1 POP SWAP2 SWAP1 POP JUMP JUMPDEST PUSH1 0x0 PUSH1 0x20 DUP3 ADD SWAP1 POP DUP2 DUP2 SUB PUSH1 0x0 DUP4 ADD MSTORE PUSH3 0x24EB DUP2 PUSH3 0x24A9 JUMP JUMPDEST SWAP1 POP SWAP2 SWAP1 POP JUMP JUMPDEST PUSH1 0x0 DUP2 SWAP1 POP SWAP3 SWAP2 POP POP JUMP JUMPDEST PUSH32 0x6F776E6572000000000000000000000000000000000000000000000000000000 PUSH1 0x0 DUP3 ADD MSTORE POP JUMP JUMPDEST PUSH1 0x0 PUSH3 0x2535 PUSH1 0x5 DUP4 PUSH3 0x24F2 JUMP JUMPDEST SWAP2 POP PUSH3 0x2542 DUP3 PUSH3 0x24FD JUMP JUMPDEST PUSH1 0x5 DUP3 ADD SWAP1 POP SWAP2 SWAP1 POP JUMP JUMPDEST PUSH1 0x0 PUSH3 0x255A DUP3 PUSH3 0x2526 JUMP JUMPDEST SWAP2 POP DUP2 SWAP1 POP SWAP2 SWAP1 POP JUMP JUMPDEST PUSH32 0x707269762070726F760000000000000000000000000000000000000000000000 PUSH1 0x0 DUP3 ADD MSTORE POP JUMP JUMPDEST PUSH1 0x0 PUSH3 0x259C PUSH1 0x9 DUP4 PUSH3 0x24F2 JUMP JUMPDEST SWAP2 POP PUSH3 0x25A9 DUP3 PUSH3 0x2564 JUMP JUMPDEST PUSH1 0x9 DUP3 ADD SWAP1 POP SWAP2 SWAP1 POP JUMP JUMPDEST PUSH1 0x0 PUSH3 0x25C1 DUP3 PUSH3 0x258D JUMP JUMPDEST SWAP2 POP DUP2 SWAP1 POP SWAP2 SWAP1 POP JUMP JUMPDEST PUSH32 0x7075622070726F76000000000000000000000000000000000000000000000000 PUSH1 0x0 DUP3 ADD MSTORE POP JUMP JUMPDEST PUSH1 0x0 PUSH3 0x2603 PUSH1 0x8 DUP4 PUSH3 0x24F2 JUMP JUMPDEST SWAP2 POP PUSH3 0x2610 DUP3 PUSH3 0x25CB JUMP JUMPDEST PUSH1 0x8 DUP3 ADD SWAP1 POP SWAP2 SWAP1 POP JUMP JUMPDEST PUSH1 0x0 PUSH3 0x2628 DUP3 PUSH3 0x25F4 JUMP JUMPDEST SWAP2 POP DUP2 SWAP1 POP SWAP2 SWAP1 POP JUMP JUMPDEST PUSH1 0x0 JUMPDEST DUP4 DUP2 LT ISZERO PUSH3 0x2652 JUMPI DUP1 DUP3 ADD MLOAD DUP2 DUP5 ADD MSTORE PUSH1 0x20 DUP2 ADD SWAP1 POP PUSH3 0x2635 JUMP JUMPDEST PUSH1 0x0 DUP5 DUP5 ADD MSTORE POP POP POP POP JUMP JUMPDEST PUSH1 0x0 PUSH3 0x266B DUP3 PUSH3 0x1EB3 JUMP JUMPDEST PUSH3 0x2677 DUP2 DUP6 PUSH3 0x24F2 JUMP JUMPDEST SWAP4 POP PUSH3 0x2689 DUP2 DUP6 PUSH1 0x20 DUP7 ADD PUSH3 0x2632 JUMP JUMPDEST DUP1 DUP5 ADD SWAP2 POP POP SWAP3 SWAP2 POP POP JUMP JUMPDEST PUSH1 0x0 PUSH3 0x26A3 DUP3 DUP5 PUSH3 0x265E JUMP JUMPDEST SWAP2 POP DUP2 SWAP1 POP SWAP3 SWAP2 POP POP JUMP JUMPDEST PUSH32 0x696E763200000000000000000000000000000000000000000000000000000000 PUSH1 0x0 DUP3 ADD MSTORE POP JUMP JUMPDEST PUSH1 0x0 PUSH3 0x26E6 PUSH1 0x4 DUP4 PUSH3 0x24F2 JUMP JUMPDEST SWAP2 POP PUSH3 0x26F3 DUP3 PUSH3 0x26AE JUMP JUMPDEST PUSH1 0x4 DUP3 ADD SWAP1 POP SWAP2 SWAP1 POP JUMP JUMPDEST PUSH1 0x0 PUSH3 0x270B DUP3 PUSH3 0x26D7 JUMP JUMPDEST SWAP2 POP DUP2 SWAP1 POP SWAP2 SWAP1 POP JUMP JUMPDEST PUSH32 0x667269656E640000000000000000000000000000000000000000000000000000 PUSH1 0x0 DUP3 ADD MSTORE POP JUMP JUMPDEST PUSH1 0x0 PUSH3 0x274D PUSH1 0x6 DUP4 PUSH3 0x24F2 JUMP JUMPDEST SWAP2 POP PUSH3 0x275A DUP3 PUSH3 0x2715 JUMP JUMPDEST PUSH1 0x6 DUP3 ADD SWAP1 POP SWAP2 SWAP1 POP JUMP JUMPDEST PUSH1 0x0 PUSH3 0x2772 DUP3 PUSH3 0x273E JUMP JUMPDEST SWAP2 POP DUP2 SWAP1 POP SWAP2 SWAP1 POP JUMP JUMPDEST PUSH32 0x696E763100000000000000000000000000000000000000000000000000000000 PUSH1 0x0 DUP3 ADD MSTORE POP JUMP JUMPDEST PUSH1 0x0 PUSH3 0x27B4 PUSH1 0x4 DUP4 PUSH3 0x24F2 JUMP JUMPDEST SWAP2 POP PUSH3 0x27C1 DUP3 PUSH3 0x277C JUMP JUMPDEST PUSH1 0x4 DUP3 ADD SWAP1 POP SWAP2 SWAP1 POP JUMP JUMPDEST PUSH1 0x0 PUSH3 0x27D9 DUP3 PUSH3 0x27A5 JUMP JUMPDEST SWAP2 POP DUP2 SWAP1 POP SWAP2 SWAP1 POP JUMP JUMPDEST PUSH32 0x45524332303A206D696E7420746F20746865207A65726F206164647265737300 PUSH1 0x0 DUP3 ADD MSTORE POP JUMP JUMPDEST PUSH1 0x0 PUSH3 0x281B PUSH1 0x1F DUP4 PUSH3 0x246F JUMP JUMPDEST SWAP2 POP PUSH3 0x2828 DUP3 PUSH3 0x27E3 JUMP JUMPDEST PUSH1 0x20 DUP3 ADD SWAP1 POP SWAP2 SWAP1 POP JUMP JUMPDEST PUSH1 0x0 PUSH1 0x20 DUP3 ADD SWAP1 POP DUP2 DUP2 SUB PUSH1 0x0 DUP4 ADD MSTORE PUSH3 0x284E DUP2 PUSH3 0x280C JUMP JUMPDEST SWAP1 POP SWAP2 SWAP1 POP JUMP JUMPDEST PUSH1 0x0 PUSH3 0x2862 DUP3 PUSH3 0x1FD9 JUMP JUMPDEST SWAP2 POP PUSH3 0x286F DUP4 PUSH3 0x1FD9 JUMP JUMPDEST SWAP3 POP DUP3 DUP3 ADD SWAP1 POP DUP1 DUP3 GT ISZERO PUSH3 0x288A JUMPI PUSH3 0x2889 PUSH3 0x2214 JUMP JUMPDEST JUMPDEST SWAP3 SWAP2 POP POP JUMP JUMPDEST PUSH3 0x289B DUP2 PUSH3 0x1FD9 JUMP JUMPDEST DUP3 MSTORE POP POP JUMP JUMPDEST PUSH1 0x0 PUSH1 0x20 DUP3 ADD SWAP1 POP PUSH3 0x28B8 PUSH1 0x0 DUP4 ADD DUP5 PUSH3 0x2890 JUMP JUMPDEST SWAP3 SWAP2 POP POP JUMP JUMPDEST PUSH1 0x0 PUSH3 0x28CB DUP3 PUSH3 0x1FD9 JUMP JUMPDEST SWAP2 POP PUSH3 0x28D8 DUP4 PUSH3 0x1FD9 JUMP JUMPDEST SWAP3 POP DUP3 DUP3 SUB SWAP1 POP DUP2 DUP2 GT ISZERO PUSH3 0x28F3 JUMPI PUSH3 0x28F2 PUSH3 0x2214 JUMP JUMPDEST JUMPDEST SWAP3 SWAP2 POP POP JUMP JUMPDEST PUSH32 0x45524332303A207472616E736665722066726F6D20746865207A65726F206164 PUSH1 0x0 DUP3 ADD MSTORE PUSH32 0x6472657373000000000000000000000000000000000000000000000000000000 PUSH1 0x20 DUP3 ADD MSTORE POP JUMP JUMPDEST PUSH1 0x0 PUSH3 0x2957 PUSH1 0x25 DUP4 PUSH3 0x246F JUMP JUMPDEST SWAP2 POP PUSH3 0x2964 DUP3 PUSH3 0x28F9 JUMP JUMPDEST PUSH1 0x40 DUP3 ADD SWAP1 POP SWAP2 SWAP1 POP JUMP JUMPDEST PUSH1 0x0 PUSH1 0x20 DUP3 ADD SWAP1 POP DUP2 DUP2 SUB PUSH1 0x0 DUP4 ADD MSTORE PUSH3 0x298A DUP2 PUSH3 0x2948 JUMP JUMPDEST SWAP1 POP SWAP2 SWAP1 POP JUMP JUMPDEST PUSH32 0x45524332303A207472616E7366657220746F20746865207A65726F2061646472 PUSH1 0x0 DUP3 ADD MSTORE PUSH32 0x6573730000000000000000000000000000000000000000000000000000000000 PUSH1 0x20 DUP3 ADD MSTORE POP JUMP JUMPDEST PUSH1 0x0 PUSH3 0x29EF PUSH1 0x23 DUP4 PUSH3 0x246F JUMP JUMPDEST SWAP2 POP PUSH3 0x29FC DUP3 PUSH3 0x2991 JUMP JUMPDEST PUSH1 0x40 DUP3 ADD SWAP1 POP SWAP2 SWAP1 POP JUMP JUMPDEST PUSH1 0x0 PUSH1 0x20 DUP3 ADD SWAP1 POP DUP2 DUP2 SUB PUSH1 0x0 DUP4 ADD MSTORE PUSH3 0x2A22 DUP2 PUSH3 0x29E0 JUMP JUMPDEST SWAP1 POP SWAP2 SWAP1 POP JUMP JUMPDEST PUSH32 0x45524332303A207472616E7366657220616D6F756E7420657863656564732062 PUSH1 0x0 DUP3 ADD MSTORE PUSH32 0x616C616E63650000000000000000000000000000000000000000000000000000 PUSH1 0x20 DUP3 ADD MSTORE POP JUMP JUMPDEST PUSH1 0x0 PUSH3 0x2A87 PUSH1 0x26 DUP4 PUSH3 0x246F JUMP JUMPDEST SWAP2 POP PUSH3 0x2A94 DUP3 PUSH3 0x2A29 JUMP JUMPDEST PUSH1 0x40 DUP3 ADD SWAP1 POP SWAP2 SWAP1 POP JUMP JUMPDEST PUSH1 0x0 PUSH1 0x20 DUP3 ADD SWAP1 POP DUP2 DUP2 SUB PUSH1 0x0 DUP4 ADD MSTORE PUSH3 0x2ABA DUP2 PUSH3 0x2A78 JUMP JUMPDEST SWAP1 POP SWAP2 SWAP1 POP JUMP JUMPDEST PUSH2 0x488D DUP1 PUSH3 0x2AD1 PUSH1 0x0 CODECOPY PUSH1 0x0 RETURN INVALID PUSH1 0x80 PUSH1 0x40 MSTORE PUSH1 0x4 CALLDATASIZE LT PUSH2 0x11F JUMPI PUSH1 0x0 CALLDATALOAD PUSH1 0xE0 SHR DUP1 PUSH4 0x817C1E07 GT PUSH2 0xA0 JUMPI DUP1 PUSH4 0xA469A332 GT PUSH2 0x64 JUMPI DUP1 PUSH4 0xA469A332 EQ PUSH2 0x3DA JUMPI DUP1 PUSH4 0xA9059CBB EQ PUSH2 0x403 JUMPI DUP1 PUSH4 0xDA452C04 EQ PUSH2 0x440 JUMPI DUP1 PUSH4 0xDD62ED3E EQ PUSH2 0x469 JUMPI DUP1 PUSH4 0xE4D69FBD EQ PUSH2 0x4A6 JUMPI PUSH2 0x11F JUMP JUMPDEST DUP1 PUSH4 0x817C1E07 EQ PUSH2 0x309 JUMPI DUP1 PUSH4 0x95D89B41 EQ PUSH2 0x332 JUMPI DUP1 PUSH4 0x9B9AA3EB EQ PUSH2 0x35D JUMPI DUP1 PUSH4 0xA33DC9FA EQ PUSH2 0x374 JUMPI DUP1 PUSH4 0xA457C2D7 EQ PUSH2 0x39D JUMPI PUSH2 0x11F JUMP JUMPDEST DUP1 PUSH4 0x2C162DBC GT PUSH2 0xE7 JUMPI DUP1 PUSH4 0x2C162DBC EQ PUSH2 0x20B JUMPI DUP1 PUSH4 0x2D296BF1 EQ PUSH2 0x248 JUMPI DUP1 PUSH4 0x313CE567 EQ PUSH2 0x264 JUMPI DUP1 PUSH4 0x39509351 EQ PUSH2 0x28F JUMPI DUP1 PUSH4 0x70A08231 EQ PUSH2 0x2CC JUMPI PUSH2 0x11F JUMP JUMPDEST DUP1 PUSH4 0x6FDDE03 EQ PUSH2 0x124 JUMPI DUP1 PUSH4 0x95EA7B3 EQ PUSH2 0x14F JUMPI DUP1 PUSH4 0xBAB8388 EQ PUSH2 0x18C JUMPI DUP1 PUSH4 0x18160DDD EQ PUSH2 0x1A3 JUMPI DUP1 PUSH4 0x23B872DD EQ PUSH2 0x1CE JUMPI JUMPDEST PUSH1 0x0 DUP1 REVERT JUMPDEST CALLVALUE DUP1 ISZERO PUSH2 0x130 JUMPI PUSH1 0x0 DUP1 REVERT JUMPDEST POP PUSH2 0x139 PUSH2 0x4BD JUMP JUMPDEST PUSH1 0x40 MLOAD PUSH2 0x146 SWAP2 SWAP1 PUSH2 0x2D77 JUMP JUMPDEST PUSH1 0x40 MLOAD DUP1 SWAP2 SUB SWAP1 RETURN JUMPDEST CALLVALUE DUP1 ISZERO PUSH2 0x15B JUMPI PUSH1 0x0 DUP1 REVERT JUMPDEST POP PUSH2 0x176 PUSH1 0x4 DUP1 CALLDATASIZE SUB DUP2 ADD SWAP1 PUSH2 0x171 SWAP2 SWAP1 PUSH2 0x2E41 JUMP JUMPDEST PUSH2 0x54F JUMP JUMPDEST PUSH1 0x40 MLOAD PUSH2 0x183 SWAP2 SWAP1 PUSH2 0x2E9C JUMP JUMPDEST PUSH1 0x40 MLOAD DUP1 SWAP2 SUB SWAP1 RETURN JUMPDEST CALLVALUE DUP1 ISZERO PUSH2 0x198 JUMPI PUSH1 0x0 DUP1 REVERT JUMPDEST POP PUSH2 0x1A1 PUSH2 0x572 JUMP JUMPDEST STOP JUMPDEST CALLVALUE DUP1 ISZERO PUSH2 0x1AF JUMPI PUSH1 0x0 DUP1 REVERT JUMPDEST POP PUSH2 0x1B8 PUSH2 0x593 JUMP JUMPDEST PUSH1 0x40 MLOAD PUSH2 0x1C5 SWAP2 SWAP1 PUSH2 0x2EC6 JUMP JUMPDEST PUSH1 0x40 MLOAD DUP1 SWAP2 SUB SWAP1 RETURN JUMPDEST CALLVALUE DUP1 ISZERO PUSH2 0x1DA JUMPI PUSH1 0x0 DUP1 REVERT JUMPDEST POP PUSH2 0x1F5 PUSH1 0x4 DUP1 CALLDATASIZE SUB DUP2 ADD SWAP1 PUSH2 0x1F0 SWAP2 SWAP1 PUSH2 0x2EE1 JUMP JUMPDEST PUSH2 0x59D JUMP JUMPDEST PUSH1 0x40 MLOAD PUSH2 0x202 SWAP2 SWAP1 PUSH2 0x2E9C JUMP JUMPDEST PUSH1 0x40 MLOAD DUP1 SWAP2 SUB SWAP1 RETURN JUMPDEST CALLVALUE DUP1 ISZERO PUSH2 0x217 JUMPI PUSH1 0x0 DUP1 REVERT JUMPDEST POP PUSH2 0x232 PUSH1 0x4 DUP1 CALLDATASIZE SUB DUP2 ADD SWAP1 PUSH2 0x22D SWAP2 SWAP1 PUSH2 0x3069 JUMP JUMPDEST PUSH2 0x5CC JUMP JUMPDEST PUSH1 0x40 MLOAD PUSH2 0x23F SWAP2 SWAP1 PUSH2 0x326B JUMP JUMPDEST PUSH1 0x40 MLOAD DUP1 SWAP2 SUB SWAP1 RETURN JUMPDEST PUSH2 0x262 PUSH1 0x4 DUP1 CALLDATASIZE SUB DUP2 ADD SWAP1 PUSH2 0x25D SWAP2 SWAP1 PUSH2 0x328D JUMP JUMPDEST PUSH2 0x84F JUMP JUMPDEST STOP JUMPDEST CALLVALUE DUP1 ISZERO PUSH2 0x270 JUMPI PUSH1 0x0 DUP1 REVERT JUMPDEST POP PUSH2 0x279 PUSH2 0xACF JUMP JUMPDEST PUSH1 0x40 MLOAD PUSH2 0x286 SWAP2 SWAP1 PUSH2 0x32D6 JUMP JUMPDEST PUSH1 0x40 MLOAD DUP1 SWAP2 SUB SWAP1 RETURN JUMPDEST CALLVALUE DUP1 ISZERO PUSH2 0x29B JUMPI PUSH1 0x0 DUP1 REVERT JUMPDEST POP PUSH2 0x2B6 PUSH1 0x4 DUP1 CALLDATASIZE SUB DUP2 ADD SWAP1 PUSH2 0x2B1 SWAP2 SWAP1 PUSH2 0x2E41 JUMP JUMPDEST PUSH2 0xAD8 JUMP JUMPDEST PUSH1 0x40 MLOAD PUSH2 0x2C3 SWAP2 SWAP1 PUSH2 0x2E9C JUMP JUMPDEST PUSH1 0x40 MLOAD DUP1 SWAP2 SUB SWAP1 RETURN JUMPDEST CALLVALUE DUP1 ISZERO PUSH2 0x2D8 JUMPI PUSH1 0x0 DUP1 REVERT JUMPDEST POP PUSH2 0x2F3 PUSH1 0x4 DUP1 CALLDATASIZE SUB DUP2 ADD SWAP1 PUSH2 0x2EE SWAP2 SWAP1 PUSH2 0x32F1 JUMP JUMPDEST PUSH2 0xB0F JUMP JUMPDEST PUSH1 0x40 MLOAD PUSH2 0x300 SWAP2 SWAP1 PUSH2 0x2EC6 JUMP JUMPDEST PUSH1 0x40 MLOAD DUP1 SWAP2 SUB SWAP1 RETURN JUMPDEST CALLVALUE DUP1 ISZERO PUSH2 0x315 JUMPI PUSH1 0x0 DUP1 REVERT JUMPDEST POP PUSH2 0x330 PUSH1 0x4 DUP1 CALLDATASIZE SUB DUP2 ADD SWAP1 PUSH2 0x32B SWAP2 SWAP1 PUSH2 0x334A JUMP JUMPDEST PUSH2 0xB57 JUMP JUMPDEST STOP JUMPDEST CALLVALUE DUP1 ISZERO PUSH2 0x33E JUMPI PUSH1 0x0 DUP1 REVERT JUMPDEST POP PUSH2 0x347 PUSH2 0xC9D JUMP JUMPDEST PUSH1 0x40 MLOAD PUSH2 0x354 SWAP2 SWAP1 PUSH2 0x2D77 JUMP JUMPDEST PUSH1 0x40 MLOAD DUP1 SWAP2 SUB SWAP1 RETURN JUMPDEST CALLVALUE DUP1 ISZERO PUSH2 0x369 JUMPI PUSH1 0x0 DUP1 REVERT JUMPDEST POP PUSH2 0x372 PUSH2 0xD2F JUMP JUMPDEST STOP JUMPDEST CALLVALUE DUP1 ISZERO PUSH2 0x380 JUMPI PUSH1 0x0 DUP1 REVERT JUMPDEST POP PUSH2 0x39B PUSH1 0x4 DUP1 CALLDATASIZE SUB DUP2 ADD SWAP1 PUSH2 0x396 SWAP2 SWAP1 PUSH2 0x33A3 JUMP JUMPDEST PUSH2 0xF66 JUMP JUMPDEST STOP JUMPDEST CALLVALUE DUP1 ISZERO PUSH2 0x3A9 JUMPI PUSH1 0x0 DUP1 REVERT JUMPDEST POP PUSH2 0x3C4 PUSH1 0x4 DUP1 CALLDATASIZE SUB DUP2 ADD SWAP1 PUSH2 0x3BF SWAP2 SWAP1 PUSH2 0x2E41 JUMP JUMPDEST PUSH2 0x152C JUMP JUMPDEST PUSH1 0x40 MLOAD PUSH2 0x3D1 SWAP2 SWAP1 PUSH2 0x2E9C JUMP JUMPDEST PUSH1 0x40 MLOAD DUP1 SWAP2 SUB SWAP1 RETURN JUMPDEST CALLVALUE DUP1 ISZERO PUSH2 0x3E6 JUMPI PUSH1 0x0 DUP1 REVERT JUMPDEST POP PUSH2 0x401 PUSH1 0x4 DUP1 CALLDATASIZE SUB DUP2 ADD SWAP1 PUSH2 0x3FC SWAP2 SWAP1 PUSH2 0x3069 JUMP JUMPDEST PUSH2 0x15A3 JUMP JUMPDEST STOP JUMPDEST CALLVALUE DUP1 ISZERO PUSH2 0x40F JUMPI PUSH1 0x0 DUP1 REVERT JUMPDEST POP PUSH2 0x42A PUSH1 0x4 DUP1 CALLDATASIZE SUB DUP2 ADD SWAP1 PUSH2 0x425 SWAP2 SWAP1 PUSH2 0x2E41 JUMP JUMPDEST PUSH2 0x1989 JUMP JUMPDEST PUSH1 0x40 MLOAD PUSH2 0x437 SWAP2 SWAP1 PUSH2 0x2E9C JUMP JUMPDEST PUSH1 0x40 MLOAD DUP1 SWAP2 SUB SWAP1 RETURN JUMPDEST CALLVALUE DUP1 ISZERO PUSH2 0x44C JUMPI PUSH1 0x0 DUP1 REVERT JUMPDEST POP PUSH2 0x467 PUSH1 0x4 DUP1 CALLDATASIZE SUB DUP2 ADD SWAP1 PUSH2 0x462 SWAP2 SWAP1 PUSH2 0x33FF JUMP JUMPDEST PUSH2 0x19AC JUMP JUMPDEST STOP JUMPDEST CALLVALUE DUP1 ISZERO PUSH2 0x475 JUMPI PUSH1 0x0 DUP1 REVERT JUMPDEST POP PUSH2 0x490 PUSH1 0x4 DUP1 CALLDATASIZE SUB DUP2 ADD SWAP1 PUSH2 0x48B SWAP2 SWAP1 PUSH2 0x343F JUMP JUMPDEST PUSH2 0x1B09 JUMP JUMPDEST PUSH1 0x40 MLOAD PUSH2 0x49D SWAP2 SWAP1 PUSH2 0x2EC6 JUMP JUMPDEST PUSH1 0x40 MLOAD DUP1 SWAP2 SUB SWAP1 RETURN JUMPDEST CALLVALUE DUP1 ISZERO PUSH2 0x4B2 JUMPI PUSH1 0x0 DUP1 REVERT JUMPDEST POP PUSH2 0x4BB PUSH2 0x1B90 JUMP JUMPDEST STOP JUMPDEST PUSH1 0x60 PUSH1 0x3 DUP1 SLOAD PUSH2 0x4CC SWAP1 PUSH2 0x34AE JUMP JUMPDEST DUP1 PUSH1 0x1F ADD PUSH1 0x20 DUP1 SWAP2 DIV MUL PUSH1 0x20 ADD PUSH1 0x40 MLOAD SWAP1 DUP2 ADD PUSH1 0x40 MSTORE DUP1 SWAP3 SWAP2 SWAP1 DUP2 DUP2 MSTORE PUSH1 0x20 ADD DUP3 DUP1 SLOAD PUSH2 0x4F8 SWAP1 PUSH2 0x34AE JUMP JUMPDEST DUP1 ISZERO PUSH2 0x545 JUMPI DUP1 PUSH1 0x1F LT PUSH2 0x51A JUMPI PUSH2 0x100 DUP1 DUP4 SLOAD DIV MUL DUP4 MSTORE SWAP2 PUSH1 0x20 ADD SWAP2 PUSH2 0x545 JUMP JUMPDEST DUP3 ADD SWAP2 SWAP1 PUSH1 0x0 MSTORE PUSH1 0x20 PUSH1 0x0 KECCAK256 SWAP1 JUMPDEST DUP2 SLOAD DUP2 MSTORE SWAP1 PUSH1 0x1 ADD SWAP1 PUSH1 0x20 ADD DUP1 DUP4 GT PUSH2 0x528 JUMPI DUP3 SWAP1 SUB PUSH1 0x1F AND DUP3 ADD SWAP2 JUMPDEST POP POP POP POP POP SWAP1 POP SWAP1 JUMP JUMPDEST PUSH1 0x0 DUP1 PUSH2 0x55A PUSH2 0x1BB5 JUMP JUMPDEST SWAP1 POP PUSH2 0x567 DUP2 DUP6 DUP6 PUSH2 0x1BBD JUMP JUMPDEST PUSH1 0x1 SWAP2 POP POP SWAP3 SWAP2 POP POP JUMP JUMPDEST PUSH1 0x0 PUSH2 0x57C PUSH2 0x1D86 JUMP JUMPDEST SWAP1 POP PUSH2 0x587 DUP2 PUSH2 0x1EE4 JUMP JUMPDEST PUSH2 0x58F PUSH2 0x1D86 JUMP JUMPDEST POP POP JUMP JUMPDEST PUSH1 0x0 PUSH1 0x2 SLOAD SWAP1 POP SWAP1 JUMP JUMPDEST PUSH1 0x0 DUP1 PUSH2 0x5A8 PUSH2 0x1BB5 JUMP JUMPDEST SWAP1 POP PUSH2 0x5B5 DUP6 DUP3 DUP6 PUSH2 0x1F7D JUMP JUMPDEST PUSH2 0x5C0 DUP6 DUP6 DUP6 PUSH2 0x2009 JUMP JUMPDEST PUSH1 0x1 SWAP2 POP POP SWAP4 SWAP3 POP POP POP JUMP JUMPDEST PUSH2 0x5D4 PUSH2 0x2C19 JUMP JUMPDEST DUP2 PUSH1 0x40 MLOAD PUSH1 0x20 ADD PUSH2 0x5E5 SWAP2 SWAP1 PUSH2 0x2D77 JUMP JUMPDEST PUSH1 0x40 MLOAD PUSH1 0x20 DUP2 DUP4 SUB SUB DUP2 MSTORE SWAP1 PUSH1 0x40 MSTORE DUP1 MLOAD SWAP1 PUSH1 0x20 ADD KECCAK256 PUSH1 0xD DUP5 PUSH1 0x40 MLOAD PUSH2 0x60B SWAP2 SWAP1 PUSH2 0x351B JUMP JUMPDEST SWAP1 DUP2 MSTORE PUSH1 0x20 ADD PUSH1 0x40 MLOAD DUP1 SWAP2 SUB SWAP1 KECCAK256 SLOAD EQ PUSH2 0x65A JUMPI PUSH1 0x40 MLOAD PUSH32 0x8C379A000000000000000000000000000000000000000000000000000000000 DUP2 MSTORE PUSH1 0x4 ADD PUSH2 0x651 SWAP1 PUSH2 0x357E JUMP JUMPDEST PUSH1 0x40 MLOAD DUP1 SWAP2 SUB SWAP1 REVERT JUMPDEST PUSH2 0x662 PUSH2 0x1D86 JUMP JUMPDEST POP PUSH1 0xB PUSH1 0x0 PUSH1 0xC DUP6 PUSH1 0x40 MLOAD PUSH2 0x677 SWAP2 SWAP1 PUSH2 0x351B JUMP JUMPDEST SWAP1 DUP2 MSTORE PUSH1 0x20 ADD PUSH1 0x40 MLOAD DUP1 SWAP2 SUB SWAP1 KECCAK256 PUSH1 0x0 SWAP1 SLOAD SWAP1 PUSH2 0x100 EXP SWAP1 DIV PUSH20 0xFFFFFFFFFFFFFFFFFFFFFFFFFFFFFFFFFFFFFFFF AND PUSH20 0xFFFFFFFFFFFFFFFFFFFFFFFFFFFFFFFFFFFFFFFF AND PUSH20 0xFFFFFFFFFFFFFFFFFFFFFFFFFFFFFFFFFFFFFFFF AND DUP2 MSTORE PUSH1 0x20 ADD SWAP1 DUP2 MSTORE PUSH1 0x20 ADD PUSH1 0x0 KECCAK256 PUSH1 0x40 MLOAD DUP1 PUSH1 0xE0 ADD PUSH1 0x40 MSTORE SWAP1 DUP2 PUSH1 0x0 DUP3 ADD DUP1 SLOAD PUSH2 0x6FB SWAP1 PUSH2 0x34AE JUMP JUMPDEST DUP1 PUSH1 0x1F ADD PUSH1 0x20 DUP1 SWAP2 DIV MUL PUSH1 0x20 ADD PUSH1 0x40 MLOAD SWAP1 DUP2 ADD PUSH1 0x40 MSTORE DUP1 SWAP3 SWAP2 SWAP1 DUP2 DUP2 MSTORE PUSH1 0x20 ADD DUP3 DUP1 SLOAD PUSH2 0x727 SWAP1 PUSH2 0x34AE JUMP JUMPDEST DUP1 ISZERO PUSH2 0x774 JUMPI DUP1 PUSH1 0x1F LT PUSH2 0x749 JUMPI PUSH2 0x100 DUP1 DUP4 SLOAD DIV MUL DUP4 MSTORE SWAP2 PUSH1 0x20 ADD SWAP2 PUSH2 0x774 JUMP JUMPDEST DUP3 ADD SWAP2 SWAP1 PUSH1 0x0 MSTORE PUSH1 0x20 PUSH1 0x0 KECCAK256 SWAP1 JUMPDEST DUP2 SLOAD DUP2 MSTORE SWAP1 PUSH1 0x1 ADD SWAP1 PUSH1 0x20 ADD DUP1 DUP4 GT PUSH2 0x757 JUMPI DUP3 SWAP1 SUB PUSH1 0x1F AND DUP3 ADD SWAP2 JUMPDEST POP POP POP POP POP DUP2 MSTORE PUSH1 0x20 ADD PUSH1 0x1 DUP3 ADD PUSH1 0x0 SWAP1 SLOAD SWAP1 PUSH2 0x100 EXP SWAP1 DIV PUSH20 0xFFFFFFFFFFFFFFFFFFFFFFFFFFFFFFFFFFFFFFFF AND PUSH20 0xFFFFFFFFFFFFFFFFFFFFFFFFFFFFFFFFFFFFFFFF AND PUSH20 0xFFFFFFFFFFFFFFFFFFFFFFFFFFFFFFFFFFFFFFFF AND DUP2 MSTORE PUSH1 0x20 ADD PUSH1 0x1 DUP3 ADD PUSH1 0x14 SWAP1 SLOAD SWAP1 PUSH2 0x100 EXP SWAP1 DIV PUSH1 0xFF AND ISZERO ISZERO ISZERO ISZERO DUP2 MSTORE PUSH1 0x20 ADD PUSH1 0x2 DUP3 ADD SLOAD DUP2 MSTORE PUSH1 0x20 ADD PUSH1 0x3 DUP3 ADD SLOAD DUP2 MSTORE PUSH1 0x20 ADD PUSH1 0x4 DUP3 ADD SLOAD DUP2 MSTORE PUSH1 0x20 ADD PUSH1 0x5 DUP3 ADD PUSH1 0x0 SWAP1 SLOAD SWAP1 PUSH2 0x100 EXP SWAP1 DIV PUSH1 0xFF AND PUSH1 0x3 DUP2 GT ISZERO PUSH2 0x831 JUMPI PUSH2 0x830 PUSH2 0x3158 JUMP JUMPDEST JUMPDEST PUSH1 0x3 DUP2 GT ISZERO PUSH2 0x843 JUMPI PUSH2 0x842 PUSH2 0x3158 JUMP JUMPDEST JUMPDEST DUP2 MSTORE POP POP SWAP1 POP SWAP3 SWAP2 POP POP JUMP JUMPDEST PUSH1 0x9 SLOAD DUP2 GT ISZERO PUSH2 0x894 JUMPI PUSH1 0x40 MLOAD PUSH32 0x8C379A000000000000000000000000000000000000000000000000000000000 DUP2 MSTORE PUSH1 0x4 ADD PUSH2 0x88B SWAP1 PUSH2 0x365C JUMP JUMPDEST PUSH1 0x40 MLOAD DUP1 SWAP2 SUB SWAP1 REVERT JUMPDEST PUSH1 0x0 PUSH1 0x2 DUP2 GT ISZERO PUSH2 0x8A8 JUMPI PUSH2 0x8A7 PUSH2 0x3158 JUMP JUMPDEST JUMPDEST PUSH1 0xA PUSH1 0x0 SWAP1 SLOAD SWAP1 PUSH2 0x100 EXP SWAP1 DIV PUSH1 0xFF AND PUSH1 0x2 DUP2 GT ISZERO PUSH2 0x8CA JUMPI PUSH2 0x8C9 PUSH2 0x3158 JUMP JUMPDEST JUMPDEST SUB PUSH2 0x90A JUMPI PUSH1 0x40 MLOAD PUSH32 0x8C379A000000000000000000000000000000000000000000000000000000000 DUP2 MSTORE PUSH1 0x4 ADD PUSH2 0x901 SWAP1 PUSH2 0x36EE JUMP JUMPDEST PUSH1 0x40 MLOAD DUP1 SWAP2 SUB SWAP1 REVERT JUMPDEST CALLVALUE DUP2 PUSH1 0x8 SLOAD PUSH2 0x919 SWAP2 SWAP1 PUSH2 0x373D JUMP JUMPDEST GT ISZERO PUSH2 0x95A JUMPI PUSH1 0x40 MLOAD PUSH32 0x8C379A000000000000000000000000000000000000000000000000000000000 DUP2 MSTORE PUSH1 0x4 ADD PUSH2 0x951 SWAP1 PUSH2 0x37F1 JUMP JUMPDEST PUSH1 0x40 MLOAD DUP1 SWAP2 SUB SWAP1 REVERT JUMPDEST PUSH1 0x1 PUSH1 0x2 DUP2 GT ISZERO PUSH2 0x96E JUMPI PUSH2 0x96D PUSH2 0x3158 JUMP JUMPDEST JUMPDEST PUSH1 0xA PUSH1 0x0 SWAP1 SLOAD SWAP1 PUSH2 0x100 EXP SWAP1 DIV PUSH1 0xFF AND PUSH1 0x2 DUP2 GT ISZERO PUSH2 0x990 JUMPI PUSH2 0x98F PUSH2 0x3158 JUMP JUMPDEST JUMPDEST SUB PUSH2 0xA79 JUMPI PUSH1 0x1 ISZERO ISZERO PUSH1 0xB PUSH1 0x0 CALLER PUSH20 0xFFFFFFFFFFFFFFFFFFFFFFFFFFFFFFFFFFFFFFFF AND PUSH20 0xFFFFFFFFFFFFFFFFFFFFFFFFFFFFFFFFFFFFFFFF AND DUP2 MSTORE PUSH1 0x20 ADD SWAP1 DUP2 MSTORE PUSH1 0x20 ADD PUSH1 0x0 KECCAK256 PUSH1 0x1 ADD PUSH1 0x14 SWAP1 SLOAD SWAP1 PUSH2 0x100 EXP SWAP1 DIV PUSH1 0xFF AND ISZERO ISZERO EQ PUSH2 0xA2B JUMPI PUSH1 0x40 MLOAD PUSH32 0x8C379A000000000000000000000000000000000000000000000000000000000 DUP2 MSTORE PUSH1 0x4 ADD PUSH2 0xA22 SWAP1 PUSH2 0x3883 JUMP JUMPDEST PUSH1 0x40 MLOAD DUP1 SWAP2 SUB SWAP1 REVERT JUMPDEST PUSH2 0xA74 PUSH1 0xC PUSH1 0x40 MLOAD PUSH2 0xA3C SWAP1 PUSH2 0x38EF JUMP JUMPDEST SWAP1 DUP2 MSTORE PUSH1 0x20 ADD PUSH1 0x40 MLOAD DUP1 SWAP2 SUB SWAP1 KECCAK256 PUSH1 0x0 SWAP1 SLOAD SWAP1 PUSH2 0x100 EXP SWAP1 DIV PUSH20 0xFFFFFFFFFFFFFFFFFFFFFFFFFFFFFFFFFFFFFFFF AND CALLER DUP4 PUSH1 0x1 PUSH2 0x227F JUMP JUMPDEST PUSH2 0xAC3 JUMP JUMPDEST PUSH2 0xAC2 PUSH1 0xC PUSH1 0x40 MLOAD PUSH2 0xA8A SWAP1 PUSH2 0x3950 JUMP JUMPDEST SWAP1 DUP2 MSTORE PUSH1 0x20 ADD PUSH1 0x40 MLOAD DUP1 SWAP2 SUB SWAP1 KECCAK256 PUSH1 0x0 SWAP1 SLOAD SWAP1 PUSH2 0x100 EXP SWAP1 DIV PUSH20 0xFFFFFFFFFFFFFFFFFFFFFFFFFFFFFFFFFFFFFFFF AND CALLER DUP4 PUSH1 0x2 PUSH2 0x227F JUMP JUMPDEST JUMPDEST PUSH2 0xACB PUSH2 0x1D86 JUMP JUMPDEST POP POP JUMP JUMPDEST PUSH1 0x0 PUSH1 0xC SWAP1 POP SWAP1 JUMP JUMPDEST PUSH1 0x0 DUP1 PUSH2 0xAE3 PUSH2 0x1BB5 JUMP JUMPDEST SWAP1 POP PUSH2 0xB04 DUP2 DUP6 DUP6 PUSH2 0xAF5 DUP6 DUP10 PUSH2 0x1B09 JUMP JUMPDEST PUSH2 0xAFF SWAP2 SWAP1 PUSH2 0x3965 JUMP JUMPDEST PUSH2 0x1BBD JUMP JUMPDEST PUSH1 0x1 SWAP2 POP POP SWAP3 SWAP2 POP POP JUMP JUMPDEST PUSH1 0x0 DUP1 PUSH1 0x0 DUP4 PUSH20 0xFFFFFFFFFFFFFFFFFFFFFFFFFFFFFFFFFFFFFFFF AND PUSH20 0xFFFFFFFFFFFFFFFFFFFFFFFFFFFFFFFFFFFFFFFF AND DUP2 MSTORE PUSH1 0x20 ADD SWAP1 DUP2 MSTORE PUSH1 0x20 ADD PUSH1 0x0 KECCAK256 SLOAD SWAP1 POP SWAP2 SWAP1 POP JUMP JUMPDEST PUSH1 0x2 PUSH1 0xB PUSH1 0x0 CALLER PUSH20 0xFFFFFFFFFFFFFFFFFFFFFFFFFFFFFFFFFFFFFFFF AND PUSH20 0xFFFFFFFFFFFFFFFFFFFFFFFFFFFFFFFFFFFFFFFF AND DUP2 MSTORE PUSH1 0x20 ADD SWAP1 DUP2 MSTORE PUSH1 0x20 ADD PUSH1 0x0 KECCAK256 PUSH1 0x5 ADD PUSH1 0x0 SWAP1 SLOAD SWAP1 PUSH2 0x100 EXP SWAP1 DIV PUSH1 0xFF AND PUSH1 0x3 DUP2 GT ISZERO PUSH2 0xBBB JUMPI PUSH2 0xBBA PUSH2 0x3158 JUMP JUMPDEST JUMPDEST DUP2 PUSH1 0x3 DUP2 GT ISZERO PUSH2 0xBCE JUMPI PUSH2 0xBCD PUSH2 0x3158 JUMP JUMPDEST JUMPDEST EQ PUSH2 0xC0E JUMPI PUSH1 0x40 MLOAD PUSH32 0x8C379A000000000000000000000000000000000000000000000000000000000 DUP2 MSTORE PUSH1 0x4 ADD PUSH2 0xC05 SWAP1 PUSH2 0x3A0B JUMP JUMPDEST PUSH1 0x40 MLOAD DUP1 SWAP2 SUB SWAP1 REVERT JUMPDEST PUSH1 0x2 DUP1 PUSH1 0x2 DUP2 GT ISZERO PUSH2 0xC23 JUMPI PUSH2 0xC22 PUSH2 0x3158 JUMP JUMPDEST JUMPDEST PUSH1 0xA PUSH1 0x0 SWAP1 SLOAD SWAP1 PUSH2 0x100 EXP SWAP1 DIV PUSH1 0xFF AND PUSH1 0x2 DUP2 GT ISZERO PUSH2 0xC45 JUMPI PUSH2 0xC44 PUSH2 0x3158 JUMP JUMPDEST JUMPDEST EQ PUSH2 0xC85 JUMPI PUSH1 0x40 MLOAD PUSH32 0x8C379A000000000000000000000000000000000000000000000000000000000 DUP2 MSTORE PUSH1 0x4 ADD PUSH2 0xC7C SWAP1 PUSH2 0x3A9D JUMP JUMPDEST PUSH1 0x40 MLOAD DUP1 SWAP2 SUB SWAP1 REVERT JUMPDEST DUP3 PUSH1 0xFF AND PUSH1 0x8 DUP2 SWAP1 SSTORE POP PUSH2 0xC97 PUSH2 0x1D86 JUMP JUMPDEST POP POP POP POP JUMP JUMPDEST PUSH1 0x60 PUSH1 0x4 DUP1 SLOAD PUSH2 0xCAC SWAP1 PUSH2 0x34AE JUMP JUMPDEST DUP1 PUSH1 0x1F ADD PUSH1 0x20 DUP1 SWAP2 DIV MUL PUSH1 0x20 ADD PUSH1 0x40 MLOAD SWAP1 DUP2 ADD PUSH1 0x40 MSTORE DUP1 SWAP3 SWAP2 SWAP1 DUP2 DUP2 MSTORE PUSH1 0x20 ADD DUP3 DUP1 SLOAD PUSH2 0xCD8 SWAP1 PUSH2 0x34AE JUMP JUMPDEST DUP1 ISZERO PUSH2 0xD25 JUMPI DUP1 PUSH1 0x1F LT PUSH2 0xCFA JUMPI PUSH2 0x100 DUP1 DUP4 SLOAD DIV MUL DUP4 MSTORE SWAP2 PUSH1 0x20 ADD SWAP2 PUSH2 0xD25 JUMP JUMPDEST DUP3 ADD SWAP2 SWAP1 PUSH1 0x0 MSTORE PUSH1 0x20 PUSH1 0x0 KECCAK256 SWAP1 JUMPDEST DUP2 SLOAD DUP2 MSTORE SWAP1 PUSH1 0x1 ADD SWAP1 PUSH1 0x20 ADD DUP1 DUP4 GT PUSH2 0xD08 JUMPI DUP3 SWAP1 SUB PUSH1 0x1F AND DUP3 ADD SWAP2 JUMPDEST POP POP POP POP POP SWAP1 POP SWAP1 JUMP JUMPDEST PUSH1 0x0 DUP1 PUSH1 0x2 DUP2 GT ISZERO PUSH2 0xD44 JUMPI PUSH2 0xD43 PUSH2 0x3158 JUMP JUMPDEST JUMPDEST PUSH1 0xA PUSH1 0x0 SWAP1 SLOAD SWAP1 PUSH2 0x100 EXP SWAP1 DIV PUSH1 0xFF AND PUSH1 0x2 DUP2 GT ISZERO PUSH2 0xD66 JUMPI PUSH2 0xD65 PUSH2 0x3158 JUMP JUMPDEST JUMPDEST EQ PUSH2 0xDA6 JUMPI PUSH1 0x40 MLOAD PUSH32 0x8C379A000000000000000000000000000000000000000000000000000000000 DUP2 MSTORE PUSH1 0x4 ADD PUSH2 0xD9D SWAP1 PUSH2 0x3A9D JUMP JUMPDEST PUSH1 0x40 MLOAD DUP1 SWAP2 SUB SWAP1 REVERT JUMPDEST PUSH1 0x40 MLOAD DUP1 PUSH1 0x60 ADD PUSH1 0x40 MSTORE DUP1 PUSH1 0xB PUSH1 0x0 CALLER PUSH20 0xFFFFFFFFFFFFFFFFFFFFFFFFFFFFFFFFFFFFFFFF AND PUSH20 0xFFFFFFFFFFFFFFFFFFFFFFFFFFFFFFFFFFFFFFFF AND DUP2 MSTORE PUSH1 0x20 ADD SWAP1 DUP2 MSTORE PUSH1 0x20 ADD PUSH1 0x0 KECCAK256 PUSH1 0x0 ADD DUP1 SLOAD PUSH2 0xDFE SWAP1 PUSH2 0x34AE JUMP JUMPDEST DUP1 PUSH1 0x1F ADD PUSH1 0x20 DUP1 SWAP2 DIV MUL PUSH1 0x20 ADD PUSH1 0x40 MLOAD SWAP1 DUP2 ADD PUSH1 0x40 MSTORE DUP1 SWAP3 SWAP2 SWAP1 DUP2 DUP2 MSTORE PUSH1 0x20 ADD DUP3 DUP1 SLOAD PUSH2 0xE2A SWAP1 PUSH2 0x34AE JUMP JUMPDEST DUP1 ISZERO PUSH2 0xE77 JUMPI DUP1 PUSH1 0x1F LT PUSH2 0xE4C JUMPI PUSH2 0x100 DUP1 DUP4 SLOAD DIV MUL DUP4 MSTORE SWAP2 PUSH1 0x20 ADD SWAP2 PUSH2 0xE77 JUMP JUMPDEST DUP3 ADD SWAP2 SWAP1 PUSH1 0x0 MSTORE PUSH1 0x20 PUSH1 0x0 KECCAK256 SWAP1 JUMPDEST DUP2 SLOAD DUP2 MSTORE SWAP1 PUSH1 0x1 ADD SWAP1 PUSH1 0x20 ADD DUP1 DUP4 GT PUSH2 0xE5A JUMPI DUP3 SWAP1 SUB PUSH1 0x1F AND DUP3 ADD SWAP2 JUMPDEST POP POP POP POP POP DUP2 MSTORE PUSH1 0x20 ADD CALLER PUSH20 0xFFFFFFFFFFFFFFFFFFFFFFFFFFFFFFFFFFFFFFFF AND DUP2 MSTORE PUSH1 0x20 ADD PUSH1 0x0 ISZERO ISZERO DUP2 MSTORE POP PUSH1 0xE PUSH1 0x0 CALLER PUSH20 0xFFFFFFFFFFFFFFFFFFFFFFFFFFFFFFFFFFFFFFFF AND PUSH20 0xFFFFFFFFFFFFFFFFFFFFFFFFFFFFFFFFFFFFFFFF AND DUP2 MSTORE PUSH1 0x20 ADD SWAP1 DUP2 MSTORE PUSH1 0x20 ADD PUSH1 0x0 KECCAK256 PUSH1 0x0 DUP3 ADD MLOAD DUP2 PUSH1 0x0 ADD SWAP1 DUP2 PUSH2 0xEF8 SWAP2 SWAP1 PUSH2 0x3C69 JUMP JUMPDEST POP PUSH1 0x20 DUP3 ADD MLOAD DUP2 PUSH1 0x1 ADD PUSH1 0x0 PUSH2 0x100 EXP DUP2 SLOAD DUP2 PUSH20 0xFFFFFFFFFFFFFFFFFFFFFFFFFFFFFFFFFFFFFFFF MUL NOT AND SWAP1 DUP4 PUSH20 0xFFFFFFFFFFFFFFFFFFFFFFFFFFFFFFFFFFFFFFFF AND MUL OR SWAP1 SSTORE POP PUSH1 0x40 DUP3 ADD MLOAD DUP2 PUSH1 0x1 ADD PUSH1 0x14 PUSH2 0x100 EXP DUP2 SLOAD DUP2 PUSH1 0xFF MUL NOT AND SWAP1 DUP4 ISZERO ISZERO MUL OR SWAP1 SSTORE POP SWAP1 POP POP POP JUMP JUMPDEST PUSH1 0x0 DUP1 PUSH1 0x2 DUP2 GT ISZERO PUSH2 0xF7B JUMPI PUSH2 0xF7A PUSH2 0x3158 JUMP JUMPDEST JUMPDEST PUSH1 0xA PUSH1 0x0 SWAP1 SLOAD SWAP1 PUSH2 0x100 EXP SWAP1 DIV PUSH1 0xFF AND PUSH1 0x2 DUP2 GT ISZERO PUSH2 0xF9D JUMPI PUSH2 0xF9C PUSH2 0x3158 JUMP JUMPDEST JUMPDEST EQ PUSH2 0xFDD JUMPI PUSH1 0x40 MLOAD PUSH32 0x8C379A000000000000000000000000000000000000000000000000000000000 DUP2 MSTORE PUSH1 0x4 ADD PUSH2 0xFD4 SWAP1 PUSH2 0x3A9D JUMP JUMPDEST PUSH1 0x40 MLOAD DUP1 SWAP2 SUB SWAP1 REVERT JUMPDEST PUSH1 0x1 PUSH1 0xB PUSH1 0x0 CALLER PUSH20 0xFFFFFFFFFFFFFFFFFFFFFFFFFFFFFFFFFFFFFFFF AND PUSH20 0xFFFFFFFFFFFFFFFFFFFFFFFFFFFFFFFFFFFFFFFF AND DUP2 MSTORE PUSH1 0x20 ADD SWAP1 DUP2 MSTORE PUSH1 0x20 ADD PUSH1 0x0 KECCAK256 PUSH1 0x5 ADD PUSH1 0x0 SWAP1 SLOAD SWAP1 PUSH2 0x100 EXP SWAP1 DIV PUSH1 0xFF AND PUSH1 0x3 DUP2 GT ISZERO PUSH2 0x1041 JUMPI PUSH2 0x1040 PUSH2 0x3158 JUMP JUMPDEST JUMPDEST DUP2 PUSH1 0x3 DUP2 GT ISZERO PUSH2 0x1054 JUMPI PUSH2 0x1053 PUSH2 0x3158 JUMP JUMPDEST JUMPDEST EQ PUSH2 0x1094 JUMPI PUSH1 0x40 MLOAD PUSH32 0x8C379A000000000000000000000000000000000000000000000000000000000 DUP2 MSTORE PUSH1 0x4 ADD PUSH2 0x108B SWAP1 PUSH2 0x3A0B JUMP JUMPDEST PUSH1 0x40 MLOAD DUP1 SWAP2 SUB SWAP1 REVERT JUMPDEST PUSH1 0x0 PUSH20 0xFFFFFFFFFFFFFFFFFFFFFFFFFFFFFFFFFFFFFFFF AND PUSH1 0xC DUP6 PUSH1 0x40 MLOAD PUSH2 0x10BC SWAP2 SWAP1 PUSH2 0x351B JUMP JUMPDEST SWAP1 DUP2 MSTORE PUSH1 0x20 ADD PUSH1 0x40 MLOAD DUP1 SWAP2 SUB SWAP1 KECCAK256 PUSH1 0x0 SWAP1 SLOAD SWAP1 PUSH2 0x100 EXP SWAP1 DIV PUSH20 0xFFFFFFFFFFFFFFFFFFFFFFFFFFFFFFFFFFFFFFFF AND PUSH20 0xFFFFFFFFFFFFFFFFFFFFFFFFFFFFFFFFFFFFFFFF AND SUB PUSH2 0x1141 JUMPI PUSH1 0x40 MLOAD PUSH32 0x8C379A000000000000000000000000000000000000000000000000000000000 DUP2 MSTORE PUSH1 0x4 ADD PUSH2 0x1138 SWAP1 PUSH2 0x3D87 JUMP JUMPDEST PUSH1 0x40 MLOAD DUP1 SWAP2 SUB SWAP1 REVERT JUMPDEST PUSH1 0x1 ISZERO ISZERO DUP4 ISZERO ISZERO SUB PUSH2 0x1425 JUMPI PUSH1 0x1 PUSH1 0xB PUSH1 0x0 PUSH1 0xC DUP8 PUSH1 0x40 MLOAD PUSH2 0x1163 SWAP2 SWAP1 PUSH2 0x351B JUMP JUMPDEST SWAP1 DUP2 MSTORE PUSH1 0x20 ADD PUSH1 0x40 MLOAD DUP1 SWAP2 SUB SWAP1 KECCAK256 PUSH1 0x0 SWAP1 SLOAD SWAP1 PUSH2 0x100 EXP SWAP1 DIV PUSH20 0xFFFFFFFFFFFFFFFFFFFFFFFFFFFFFFFFFFFFFFFF AND PUSH20 0xFFFFFFFFFFFFFFFFFFFFFFFFFFFFFFFFFFFFFFFF AND PUSH20 0xFFFFFFFFFFFFFFFFFFFFFFFFFFFFFFFFFFFFFFFF AND DUP2 MSTORE PUSH1 0x20 ADD SWAP1 DUP2 MSTORE PUSH1 0x20 ADD PUSH1 0x0 KECCAK256 PUSH1 0x1 ADD PUSH1 0x14 PUSH2 0x100 EXP DUP2 SLOAD DUP2 PUSH1 0xFF MUL NOT AND SWAP1 DUP4 ISZERO ISZERO MUL OR SWAP1 SSTORE POP PUSH1 0x40 MLOAD DUP1 PUSH1 0x60 ADD PUSH1 0x40 MSTORE DUP1 DUP6 DUP2 MSTORE PUSH1 0x20 ADD PUSH1 0xC DUP7 PUSH1 0x40 MLOAD PUSH2 0x1207 SWAP2 SWAP1 PUSH2 0x351B JUMP JUMPDEST SWAP1 DUP2 MSTORE PUSH1 0x20 ADD PUSH1 0x40 MLOAD DUP1 SWAP2 SUB SWAP1 KECCAK256 PUSH1 0x0 SWAP1 SLOAD SWAP1 PUSH2 0x100 EXP SWAP1 DIV PUSH20 0xFFFFFFFFFFFFFFFFFFFFFFFFFFFFFFFFFFFFFFFF AND PUSH20 0xFFFFFFFFFFFFFFFFFFFFFFFFFFFFFFFFFFFFFFFF AND DUP2 MSTORE PUSH1 0x20 ADD PUSH1 0x1 ISZERO ISZERO DUP2 MSTORE POP PUSH1 0xF PUSH1 0x0 PUSH1 0xC DUP8 PUSH1 0x40 MLOAD PUSH2 0x126C SWAP2 SWAP1 PUSH2 0x351B JUMP JUMPDEST SWAP1 DUP2 MSTORE PUSH1 0x20 ADD PUSH1 0x40 MLOAD DUP1 SWAP2 SUB SWAP1 KECCAK256 PUSH1 0x0 SWAP1 SLOAD SWAP1 PUSH2 0x100 EXP SWAP1 DIV PUSH20 0xFFFFFFFFFFFFFFFFFFFFFFFFFFFFFFFFFFFFFFFF AND PUSH20 0xFFFFFFFFFFFFFFFFFFFFFFFFFFFFFFFFFFFFFFFF AND PUSH20 0xFFFFFFFFFFFFFFFFFFFFFFFFFFFFFFFFFFFFFFFF AND DUP2 MSTORE PUSH1 0x20 ADD SWAP1 DUP2 MSTORE PUSH1 0x20 ADD PUSH1 0x0 KECCAK256 PUSH1 0x0 DUP3 ADD MLOAD DUP2 PUSH1 0x0 ADD SWAP1 DUP2 PUSH2 0x12EA SWAP2 SWAP1 PUSH2 0x3C69 JUMP JUMPDEST POP PUSH1 0x20 DUP3 ADD MLOAD DUP2 PUSH1 0x1 ADD PUSH1 0x0 PUSH2 0x100 EXP DUP2 SLOAD DUP2 PUSH20 0xFFFFFFFFFFFFFFFFFFFFFFFFFFFFFFFFFFFFFFFF MUL NOT AND SWAP1 DUP4 PUSH20 0xFFFFFFFFFFFFFFFFFFFFFFFFFFFFFFFFFFFFFFFF AND MUL OR SWAP1 SSTORE POP PUSH1 0x40 DUP3 ADD MLOAD DUP2 PUSH1 0x1 ADD PUSH1 0x14 PUSH2 0x100 EXP DUP2 SLOAD DUP2 PUSH1 0xFF MUL NOT AND SWAP1 DUP4 ISZERO ISZERO MUL OR SWAP1 SSTORE POP SWAP1 POP POP PUSH1 0xE PUSH1 0x0 PUSH1 0xC DUP7 PUSH1 0x40 MLOAD PUSH2 0x1369 SWAP2 SWAP1 PUSH2 0x351B JUMP JUMPDEST SWAP1 DUP2 MSTORE PUSH1 0x20 ADD PUSH1 0x40 MLOAD DUP1 SWAP2 SUB SWAP1 KECCAK256 PUSH1 0x0 SWAP1 SLOAD SWAP1 PUSH2 0x100 EXP SWAP1 DIV PUSH20 0xFFFFFFFFFFFFFFFFFFFFFFFFFFFFFFFFFFFFFFFF AND PUSH20 0xFFFFFFFFFFFFFFFFFFFFFFFFFFFFFFFFFFFFFFFF AND PUSH20 0xFFFFFFFFFFFFFFFFFFFFFFFFFFFFFFFFFFFFFFFF AND DUP2 MSTORE PUSH1 0x20 ADD SWAP1 DUP2 MSTORE PUSH1 0x20 ADD PUSH1 0x0 KECCAK256 PUSH1 0x0 DUP1 DUP3 ADD PUSH1 0x0 PUSH2 0x13E3 SWAP2 SWAP1 PUSH2 0x2C80 JUMP JUMPDEST PUSH1 0x1 DUP3 ADD PUSH1 0x0 PUSH2 0x100 EXP DUP2 SLOAD SWAP1 PUSH20 0xFFFFFFFFFFFFFFFFFFFFFFFFFFFFFFFFFFFFFFFF MUL NOT AND SWAP1 SSTORE PUSH1 0x1 DUP3 ADD PUSH1 0x14 PUSH2 0x100 EXP DUP2 SLOAD SWAP1 PUSH1 0xFF MUL NOT AND SWAP1 SSTORE POP POP PUSH2 0x151D JUMP JUMPDEST PUSH1 0xB PUSH1 0x0 PUSH1 0xC DUP7 PUSH1 0x40 MLOAD PUSH2 0x1439 SWAP2 SWAP1 PUSH2 0x351B JUMP JUMPDEST SWAP1 DUP2 MSTORE PUSH1 0x20 ADD PUSH1 0x40 MLOAD DUP1 SWAP2 SUB SWAP1 KECCAK256 PUSH1 0x0 SWAP1 SLOAD SWAP1 PUSH2 0x100 EXP SWAP1 DIV PUSH20 0xFFFFFFFFFFFFFFFFFFFFFFFFFFFFFFFFFFFFFFFF AND PUSH20 0xFFFFFFFFFFFFFFFFFFFFFFFFFFFFFFFFFFFFFFFF AND PUSH20 0xFFFFFFFFFFFFFFFFFFFFFFFFFFFFFFFFFFFFFFFF AND DUP2 MSTORE PUSH1 0x20 ADD SWAP1 DUP2 MSTORE PUSH1 0x20 ADD PUSH1 0x0 KECCAK256 PUSH1 0x0 DUP1 DUP3 ADD PUSH1 0x0 PUSH2 0x14B3 SWAP2 SWAP1 PUSH2 0x2C80 JUMP JUMPDEST PUSH1 0x1 DUP3 ADD PUSH1 0x0 PUSH2 0x100 EXP DUP2 SLOAD SWAP1 PUSH20 0xFFFFFFFFFFFFFFFFFFFFFFFFFFFFFFFFFFFFFFFF MUL NOT AND SWAP1 SSTORE PUSH1 0x1 DUP3 ADD PUSH1 0x14 PUSH2 0x100 EXP DUP2 SLOAD SWAP1 PUSH1 0xFF MUL NOT AND SWAP1 SSTORE PUSH1 0x2 DUP3 ADD PUSH1 0x0 SWAP1 SSTORE PUSH1 0x3 DUP3 ADD PUSH1 0x0 SWAP1 SSTORE PUSH1 0x4 DUP3 ADD PUSH1 0x0 SWAP1 SSTORE PUSH1 0x5 DUP3 ADD PUSH1 0x0 PUSH2 0x100 EXP DUP2 SLOAD SWAP1 PUSH1 0xFF MUL NOT AND SWAP1 SSTORE POP POP JUMPDEST PUSH2 0x1525 PUSH2 0x1D86 JUMP JUMPDEST POP POP POP POP POP JUMP JUMPDEST PUSH1 0x0 DUP1 PUSH2 0x1537 PUSH2 0x1BB5 JUMP JUMPDEST SWAP1 POP PUSH1 0x0 PUSH2 0x1545 DUP3 DUP7 PUSH2 0x1B09 JUMP JUMPDEST SWAP1 POP DUP4 DUP2 LT ISZERO PUSH2 0x158A JUMPI PUSH1 0x40 MLOAD PUSH32 0x8C379A000000000000000000000000000000000000000000000000000000000 DUP2 MSTORE PUSH1 0x4 ADD PUSH2 0x1581 SWAP1 PUSH2 0x3E19 JUMP JUMPDEST PUSH1 0x40 MLOAD DUP1 SWAP2 SUB SWAP1 REVERT JUMPDEST PUSH2 0x1597 DUP3 DUP7 DUP7 DUP5 SUB PUSH2 0x1BBD JUMP JUMPDEST PUSH1 0x1 SWAP3 POP POP POP SWAP3 SWAP2 POP POP JUMP JUMPDEST PUSH1 0x0 PUSH20 0xFFFFFFFFFFFFFFFFFFFFFFFFFFFFFFFFFFFFFFFF AND PUSH1 0xC DUP4 PUSH1 0x40 MLOAD PUSH2 0x15CB SWAP2 SWAP1 PUSH2 0x351B JUMP JUMPDEST SWAP1 DUP2 MSTORE PUSH1 0x20 ADD PUSH1 0x40 MLOAD DUP1 SWAP2 SUB SWAP1 KECCAK256 PUSH1 0x0 SWAP1 SLOAD SWAP1 PUSH2 0x100 EXP SWAP1 DIV PUSH20 0xFFFFFFFFFFFFFFFFFFFFFFFFFFFFFFFFFFFFFFFF AND PUSH20 0xFFFFFFFFFFFFFFFFFFFFFFFFFFFFFFFFFFFFFFFF AND EQ PUSH2 0x1650 JUMPI PUSH1 0x40 MLOAD PUSH32 0x8C379A000000000000000000000000000000000000000000000000000000000 DUP2 MSTORE PUSH1 0x4 ADD PUSH2 0x1647 SWAP1 PUSH2 0x3E85 JUMP JUMPDEST PUSH1 0x40 MLOAD DUP1 SWAP2 SUB SWAP1 REVERT JUMPDEST PUSH1 0x0 PUSH20 0xFFFFFFFFFFFFFFFFFFFFFFFFFFFFFFFFFFFFFFFF AND PUSH1 0xB PUSH1 0x0 PUSH1 0xC DUP6 PUSH1 0x40 MLOAD PUSH2 0x167C SWAP2 SWAP1 PUSH2 0x351B JUMP JUMPDEST SWAP1 DUP2 MSTORE PUSH1 0x20 ADD PUSH1 0x40 MLOAD DUP1 SWAP2 SUB SWAP1 KECCAK256 PUSH1 0x0 SWAP1 SLOAD SWAP1 PUSH2 0x100 EXP SWAP1 DIV PUSH20 0xFFFFFFFFFFFFFFFFFFFFFFFFFFFFFFFFFFFFFFFF AND PUSH20 0xFFFFFFFFFFFFFFFFFFFFFFFFFFFFFFFFFFFFFFFF AND PUSH20 0xFFFFFFFFFFFFFFFFFFFFFFFFFFFFFFFFFFFFFFFF AND DUP2 MSTORE PUSH1 0x20 ADD SWAP1 DUP2 MSTORE PUSH1 0x20 ADD PUSH1 0x0 KECCAK256 PUSH1 0x1 ADD PUSH1 0x0 SWAP1 SLOAD SWAP1 PUSH2 0x100 EXP SWAP1 DIV PUSH20 0xFFFFFFFFFFFFFFFFFFFFFFFFFFFFFFFFFFFFFFFF AND PUSH20 0xFFFFFFFFFFFFFFFFFFFFFFFFFFFFFFFFFFFFFFFF AND EQ PUSH2 0x1729 JUMPI PUSH1 0x0 DUP1 REVERT JUMPDEST CALLER PUSH1 0xC DUP4 PUSH1 0x40 MLOAD PUSH2 0x173A SWAP2 SWAP1 PUSH2 0x351B JUMP JUMPDEST SWAP1 DUP2 MSTORE PUSH1 0x20 ADD PUSH1 0x40 MLOAD DUP1 SWAP2 SUB SWAP1 KECCAK256 PUSH1 0x0 PUSH2 0x100 EXP DUP2 SLOAD DUP2 PUSH20 0xFFFFFFFFFFFFFFFFFFFFFFFFFFFFFFFFFFFFFFFF MUL NOT AND SWAP1 DUP4 PUSH20 0xFFFFFFFFFFFFFFFFFFFFFFFFFFFFFFFFFFFFFFFF AND MUL OR SWAP1 SSTORE POP DUP1 PUSH1 0x40 MLOAD PUSH1 0x20 ADD PUSH2 0x1797 SWAP2 SWAP1 PUSH2 0x2D77 JUMP JUMPDEST PUSH1 0x40 MLOAD PUSH1 0x20 DUP2 DUP4 SUB SUB DUP2 MSTORE SWAP1 PUSH1 0x40 MSTORE DUP1 MLOAD SWAP1 PUSH1 0x20 ADD KECCAK256 PUSH1 0xD DUP4 PUSH1 0x40 MLOAD PUSH2 0x17BD SWAP2 SWAP1 PUSH2 0x351B JUMP JUMPDEST SWAP1 DUP2 MSTORE PUSH1 0x20 ADD PUSH1 0x40 MLOAD DUP1 SWAP2 SUB SWAP1 KECCAK256 DUP2 SWAP1 SSTORE POP PUSH1 0x40 MLOAD DUP1 PUSH1 0xE0 ADD PUSH1 0x40 MSTORE DUP1 DUP4 DUP2 MSTORE PUSH1 0x20 ADD CALLER PUSH20 0xFFFFFFFFFFFFFFFFFFFFFFFFFFFFFFFFFFFFFFFF AND DUP2 MSTORE PUSH1 0x20 ADD PUSH1 0x0 ISZERO ISZERO DUP2 MSTORE PUSH1 0x20 ADD PUSH1 0x0 DUP2 MSTORE PUSH1 0x20 ADD PUSH1 0x0 DUP2 MSTORE PUSH1 0x20 ADD PUSH1 0x0 DUP2 MSTORE PUSH1 0x20 ADD PUSH1 0x0 PUSH1 0x3 DUP2 GT ISZERO PUSH2 0x182E JUMPI PUSH2 0x182D PUSH2 0x3158 JUMP JUMPDEST JUMPDEST DUP2 MSTORE POP PUSH1 0xB PUSH1 0x0 PUSH1 0xC DUP6 PUSH1 0x40 MLOAD PUSH2 0x1845 SWAP2 SWAP1 PUSH2 0x351B JUMP JUMPDEST SWAP1 DUP2 MSTORE PUSH1 0x20 ADD PUSH1 0x40 MLOAD DUP1 SWAP2 SUB SWAP1 KECCAK256 PUSH1 0x0 SWAP1 SLOAD SWAP1 PUSH2 0x100 EXP SWAP1 DIV PUSH20 0xFFFFFFFFFFFFFFFFFFFFFFFFFFFFFFFFFFFFFFFF AND PUSH20 0xFFFFFFFFFFFFFFFFFFFFFFFFFFFFFFFFFFFFFFFF AND PUSH20 0xFFFFFFFFFFFFFFFFFFFFFFFFFFFFFFFFFFFFFFFF AND DUP2 MSTORE PUSH1 0x20 ADD SWAP1 DUP2 MSTORE PUSH1 0x20 ADD PUSH1 0x0 KECCAK256 PUSH1 0x0 DUP3 ADD MLOAD DUP2 PUSH1 0x0 ADD SWAP1 DUP2 PUSH2 0x18C3 SWAP2 SWAP1 PUSH2 0x3C69 JUMP JUMPDEST POP PUSH1 0x20 DUP3 ADD MLOAD DUP2 PUSH1 0x1 ADD PUSH1 0x0 PUSH2 0x100 EXP DUP2 SLOAD DUP2 PUSH20 0xFFFFFFFFFFFFFFFFFFFFFFFFFFFFFFFFFFFFFFFF MUL NOT AND SWAP1 DUP4 PUSH20 0xFFFFFFFFFFFFFFFFFFFFFFFFFFFFFFFFFFFFFFFF AND MUL OR SWAP1 SSTORE POP PUSH1 0x40 DUP3 ADD MLOAD DUP2 PUSH1 0x1 ADD PUSH1 0x14 PUSH2 0x100 EXP DUP2 SLOAD DUP2 PUSH1 0xFF MUL NOT AND SWAP1 DUP4 ISZERO ISZERO MUL OR SWAP1 SSTORE POP PUSH1 0x60 DUP3 ADD MLOAD DUP2 PUSH1 0x2 ADD SSTORE PUSH1 0x80 DUP3 ADD MLOAD DUP2 PUSH1 0x3 ADD SSTORE PUSH1 0xA0 DUP3 ADD MLOAD DUP2 PUSH1 0x4 ADD SSTORE PUSH1 0xC0 DUP3 ADD MLOAD DUP2 PUSH1 0x5 ADD PUSH1 0x0 PUSH2 0x100 EXP DUP2 SLOAD DUP2 PUSH1 0xFF MUL NOT AND SWAP1 DUP4 PUSH1 0x3 DUP2 GT ISZERO PUSH2 0x1974 JUMPI PUSH2 0x1973 PUSH2 0x3158 JUMP JUMPDEST JUMPDEST MUL OR SWAP1 SSTORE POP SWAP1 POP POP PUSH2 0x1984 PUSH2 0x1D86 JUMP JUMPDEST POP POP POP JUMP JUMPDEST PUSH1 0x0 DUP1 PUSH2 0x1994 PUSH2 0x1BB5 JUMP JUMPDEST SWAP1 POP PUSH2 0x19A1 DUP2 DUP6 DUP6 PUSH2 0x2009 JUMP JUMPDEST PUSH1 0x1 SWAP2 POP POP SWAP3 SWAP2 POP POP JUMP JUMPDEST PUSH1 0x2 PUSH1 0xB PUSH1 0x0 CALLER PUSH20 0xFFFFFFFFFFFFFFFFFFFFFFFFFFFFFFFFFFFFFFFF AND PUSH20 0xFFFFFFFFFFFFFFFFFFFFFFFFFFFFFFFFFFFFFFFF AND DUP2 MSTORE PUSH1 0x20 ADD SWAP1 DUP2 MSTORE PUSH1 0x20 ADD PUSH1 0x0 KECCAK256 PUSH1 0x5 ADD PUSH1 0x0 SWAP1 SLOAD SWAP1 PUSH2 0x100 EXP SWAP1 DIV PUSH1 0xFF AND PUSH1 0x3 DUP2 GT ISZERO PUSH2 0x1A10 JUMPI PUSH2 0x1A0F PUSH2 0x3158 JUMP JUMPDEST JUMPDEST DUP2 PUSH1 0x3 DUP2 GT ISZERO PUSH2 0x1A23 JUMPI PUSH2 0x1A22 PUSH2 0x3158 JUMP JUMPDEST JUMPDEST EQ PUSH2 0x1A63 JUMPI PUSH1 0x40 MLOAD PUSH32 0x8C379A000000000000000000000000000000000000000000000000000000000 DUP2 MSTORE PUSH1 0x4 ADD PUSH2 0x1A5A SWAP1 PUSH2 0x3A0B JUMP JUMPDEST PUSH1 0x40 MLOAD DUP1 SWAP2 SUB SWAP1 REVERT JUMPDEST DUP2 PUSH1 0xFF AND PUSH1 0xB PUSH1 0x0 CALLER PUSH20 0xFFFFFFFFFFFFFFFFFFFFFFFFFFFFFFFFFFFFFFFF AND PUSH20 0xFFFFFFFFFFFFFFFFFFFFFFFFFFFFFFFFFFFFFFFF AND DUP2 MSTORE PUSH1 0x20 ADD SWAP1 DUP2 MSTORE PUSH1 0x20 ADD PUSH1 0x0 KECCAK256 PUSH1 0x4 ADD SLOAD LT ISZERO PUSH2 0x1AEB JUMPI PUSH1 0x40 MLOAD PUSH32 0x8C379A000000000000000000000000000000000000000000000000000000000 DUP2 MSTORE PUSH1 0x4 ADD PUSH2 0x1AE2 SWAP1 PUSH2 0x3F17 JUMP JUMPDEST PUSH1 0x40 MLOAD DUP1 SWAP2 SUB SWAP1 REVERT JUMPDEST PUSH2 0x1AFB CALLER DUP5 DUP5 PUSH1 0xFF AND PUSH1 0x2 PUSH2 0x227F JUMP JUMPDEST PUSH2 0x1B03 PUSH2 0x1D86 JUMP JUMPDEST POP POP POP POP JUMP JUMPDEST PUSH1 0x0 PUSH1 0x1 PUSH1 0x0 DUP5 PUSH20 0xFFFFFFFFFFFFFFFFFFFFFFFFFFFFFFFFFFFFFFFF AND PUSH20 0xFFFFFFFFFFFFFFFFFFFFFFFFFFFFFFFFFFFFFFFF AND DUP2 MSTORE PUSH1 0x20 ADD SWAP1 DUP2 MSTORE PUSH1 0x20 ADD PUSH1 0x0 KECCAK256 PUSH1 0x0 DUP4 PUSH20 0xFFFFFFFFFFFFFFFFFFFFFFFFFFFFFFFFFFFFFFFF AND PUSH20 0xFFFFFFFFFFFFFFFFFFFFFFFFFFFFFFFFFFFFFFFF AND DUP2 MSTORE PUSH1 0x20 ADD SWAP1 DUP2 MSTORE PUSH1 0x20 ADD PUSH1 0x0 KECCAK256 SLOAD SWAP1 POP SWAP3 SWAP2 POP POP JUMP JUMPDEST PUSH1 0x3C PUSH1 0x7 PUSH1 0x0 DUP3 DUP3 SLOAD PUSH2 0x1BA3 SWAP2 SWAP1 PUSH2 0x3965 JUMP JUMPDEST SWAP3 POP POP DUP2 SWAP1 SSTORE POP PUSH2 0x1BB2 PUSH2 0x1D86 JUMP JUMPDEST POP JUMP JUMPDEST PUSH1 0x0 CALLER SWAP1 POP SWAP1 JUMP JUMPDEST PUSH1 0x0 PUSH20 0xFFFFFFFFFFFFFFFFFFFFFFFFFFFFFFFFFFFFFFFF AND DUP4 PUSH20 0xFFFFFFFFFFFFFFFFFFFFFFFFFFFFFFFFFFFFFFFF AND SUB PUSH2 0x1C2C JUMPI PUSH1 0x40 MLOAD PUSH32 0x8C379A000000000000000000000000000000000000000000000000000000000 DUP2 MSTORE PUSH1 0x4 ADD PUSH2 0x1C23 SWAP1 PUSH2 0x3FA9 JUMP JUMPDEST PUSH1 0x40 MLOAD DUP1 SWAP2 SUB SWAP1 REVERT JUMPDEST PUSH1 0x0 PUSH20 0xFFFFFFFFFFFFFFFFFFFFFFFFFFFFFFFFFFFFFFFF AND DUP3 PUSH20 0xFFFFFFFFFFFFFFFFFFFFFFFFFFFFFFFFFFFFFFFF AND SUB PUSH2 0x1C9B JUMPI PUSH1 0x40 MLOAD PUSH32 0x8C379A000000000000000000000000000000000000000000000000000000000 DUP2 MSTORE PUSH1 0x4 ADD PUSH2 0x1C92 SWAP1 PUSH2 0x403B JUMP JUMPDEST PUSH1 0x40 MLOAD DUP1 SWAP2 SUB SWAP1 REVERT JUMPDEST DUP1 PUSH1 0x1 PUSH1 0x0 DUP6 PUSH20 0xFFFFFFFFFFFFFFFFFFFFFFFFFFFFFFFFFFFFFFFF AND PUSH20 0xFFFFFFFFFFFFFFFFFFFFFFFFFFFFFFFFFFFFFFFF AND DUP2 MSTORE PUSH1 0x20 ADD SWAP1 DUP2 MSTORE PUSH1 0x20 ADD PUSH1 0x0 KECCAK256 PUSH1 0x0 DUP5 PUSH20 0xFFFFFFFFFFFFFFFFFFFFFFFFFFFFFFFFFFFFFFFF AND PUSH20 0xFFFFFFFFFFFFFFFFFFFFFFFFFFFFFFFFFFFFFFFF AND DUP2 MSTORE PUSH1 0x20 ADD SWAP1 DUP2 MSTORE PUSH1 0x20 ADD PUSH1 0x0 KECCAK256 DUP2 SWAP1 SSTORE POP DUP2 PUSH20 0xFFFFFFFFFFFFFFFFFFFFFFFFFFFFFFFFFFFFFFFF AND DUP4 PUSH20 0xFFFFFFFFFFFFFFFFFFFFFFFFFFFFFFFFFFFFFFFF AND PUSH32 0x8C5BE1E5EBEC7D5BD14F71427D1E84F3DD0314C0F7B2291E5B200AC8C7C3B925 DUP4 PUSH1 0x40 MLOAD PUSH2 0x1D79 SWAP2 SWAP1 PUSH2 0x2EC6 JUMP JUMPDEST PUSH1 0x40 MLOAD DUP1 SWAP2 SUB SWAP1 LOG3 POP POP POP JUMP JUMPDEST PUSH1 0x0 PUSH1 0x7 SLOAD TIMESTAMP PUSH2 0x1D96 SWAP2 SWAP1 PUSH2 0x3965 JUMP JUMPDEST PUSH1 0x5 DUP2 SWAP1 SSTORE POP PUSH1 0x0 PUSH1 0x6 SLOAD PUSH1 0x5 SLOAD PUSH2 0x1DAE SWAP2 SWAP1 PUSH2 0x405B JUMP JUMPDEST SWAP1 POP PUSH2 0x12C DUP2 GT DUP1 ISZERO PUSH2 0x1DC2 JUMPI POP PUSH2 0x384 DUP2 LT JUMPDEST DUP1 ISZERO PUSH2 0x1E02 JUMPI POP PUSH1 0x1 PUSH1 0x2 DUP2 GT ISZERO PUSH2 0x1DDD JUMPI PUSH2 0x1DDC PUSH2 0x3158 JUMP JUMPDEST JUMPDEST PUSH1 0xA PUSH1 0x0 SWAP1 SLOAD SWAP1 PUSH2 0x100 EXP SWAP1 DIV PUSH1 0xFF AND PUSH1 0x2 DUP2 GT ISZERO PUSH2 0x1DFF JUMPI PUSH2 0x1DFE PUSH2 0x3158 JUMP JUMPDEST JUMPDEST EQ ISZERO JUMPDEST ISZERO PUSH2 0x1E4F JUMPI PUSH1 0x1 PUSH1 0xA PUSH1 0x0 PUSH2 0x100 EXP DUP2 SLOAD DUP2 PUSH1 0xFF MUL NOT AND SWAP1 DUP4 PUSH1 0x2 DUP2 GT ISZERO PUSH2 0x1E2D JUMPI PUSH2 0x1E2C PUSH2 0x3158 JUMP JUMPDEST JUMPDEST MUL OR SWAP1 SSTORE POP PUSH2 0x1E4A PUSH1 0xA PUSH1 0x0 SWAP1 SLOAD SWAP1 PUSH2 0x100 EXP SWAP1 DIV PUSH1 0xFF AND PUSH2 0x2709 JUMP JUMPDEST PUSH2 0x1EDD JUMP JUMPDEST PUSH2 0x384 DUP2 GT DUP1 ISZERO PUSH2 0x1E93 JUMPI POP PUSH1 0x2 DUP1 DUP2 GT ISZERO PUSH2 0x1E6E JUMPI PUSH2 0x1E6D PUSH2 0x3158 JUMP JUMPDEST JUMPDEST PUSH1 0xA PUSH1 0x0 SWAP1 SLOAD SWAP1 PUSH2 0x100 EXP SWAP1 DIV PUSH1 0xFF AND PUSH1 0x2 DUP2 GT ISZERO PUSH2 0x1E90 JUMPI PUSH2 0x1E8F PUSH2 0x3158 JUMP JUMPDEST JUMPDEST EQ ISZERO JUMPDEST ISZERO PUSH2 0x1EDC JUMPI PUSH1 0x2 PUSH1 0xA PUSH1 0x0 PUSH2 0x100 EXP DUP2 SLOAD DUP2 PUSH1 0xFF MUL NOT AND SWAP1 DUP4 PUSH1 0x2 DUP2 GT ISZERO PUSH2 0x1EBE JUMPI PUSH2 0x1EBD PUSH2 0x3158 JUMP JUMPDEST JUMPDEST MUL OR SWAP1 SSTORE POP PUSH2 0x1EDB PUSH1 0xA PUSH1 0x0 SWAP1 SLOAD SWAP1 PUSH2 0x100 EXP SWAP1 DIV PUSH1 0xFF AND PUSH2 0x2709 JUMP JUMPDEST JUMPDEST JUMPDEST DUP1 SWAP2 POP POP SWAP1 JUMP JUMPDEST PUSH2 0x1F7A DUP2 PUSH1 0x40 MLOAD PUSH1 0x24 ADD PUSH2 0x1EF8 SWAP2 SWAP1 PUSH2 0x2EC6 JUMP JUMPDEST PUSH1 0x40 MLOAD PUSH1 0x20 DUP2 DUP4 SUB SUB DUP2 MSTORE SWAP1 PUSH1 0x40 MSTORE PUSH32 0xF82C50F100000000000000000000000000000000000000000000000000000000 PUSH28 0xFFFFFFFFFFFFFFFFFFFFFFFFFFFFFFFFFFFFFFFFFFFFFFFFFFFFFFFF NOT AND PUSH1 0x20 DUP3 ADD DUP1 MLOAD PUSH28 0xFFFFFFFFFFFFFFFFFFFFFFFFFFFFFFFFFFFFFFFFFFFFFFFFFFFFFFFF DUP4 DUP2 DUP4 AND OR DUP4 MSTORE POP POP POP POP PUSH2 0x2BC9 JUMP JUMPDEST POP JUMP JUMPDEST PUSH1 0x0 PUSH2 0x1F89 DUP5 DUP5 PUSH2 0x1B09 JUMP JUMPDEST SWAP1 POP PUSH32 0xFFFFFFFFFFFFFFFFFFFFFFFFFFFFFFFFFFFFFFFFFFFFFFFFFFFFFFFFFFFFFFFF DUP2 EQ PUSH2 0x2003 JUMPI DUP2 DUP2 LT ISZERO PUSH2 0x1FF5 JUMPI PUSH1 0x40 MLOAD PUSH32 0x8C379A000000000000000000000000000000000000000000000000000000000 DUP2 MSTORE PUSH1 0x4 ADD PUSH2 0x1FEC SWAP1 PUSH2 0x40DB JUMP JUMPDEST PUSH1 0x40 MLOAD DUP1 SWAP2 SUB SWAP1 REVERT JUMPDEST PUSH2 0x2002 DUP5 DUP5 DUP5 DUP5 SUB PUSH2 0x1BBD JUMP JUMPDEST JUMPDEST POP POP POP POP JUMP JUMPDEST PUSH1 0x0 PUSH20 0xFFFFFFFFFFFFFFFFFFFFFFFFFFFFFFFFFFFFFFFF AND DUP4 PUSH20 0xFFFFFFFFFFFFFFFFFFFFFFFFFFFFFFFFFFFFFFFF AND SUB PUSH2 0x2078 JUMPI PUSH1 0x40 MLOAD PUSH32 0x8C379A000000000000000000000000000000000000000000000000000000000 DUP2 MSTORE PUSH1 0x4 ADD PUSH2 0x206F SWAP1 PUSH2 0x416D JUMP JUMPDEST PUSH1 0x40 MLOAD DUP1 SWAP2 SUB SWAP1 REVERT JUMPDEST PUSH1 0x0 PUSH20 0xFFFFFFFFFFFFFFFFFFFFFFFFFFFFFFFFFFFFFFFF AND DUP3 PUSH20 0xFFFFFFFFFFFFFFFFFFFFFFFFFFFFFFFFFFFFFFFF AND SUB PUSH2 0x20E7 JUMPI PUSH1 0x40 MLOAD PUSH32 0x8C379A000000000000000000000000000000000000000000000000000000000 DUP2 MSTORE PUSH1 0x4 ADD PUSH2 0x20DE SWAP1 PUSH2 0x41FF JUMP JUMPDEST PUSH1 0x40 MLOAD DUP1 SWAP2 SUB SWAP1 REVERT JUMPDEST PUSH2 0x20F2 DUP4 DUP4 DUP4 PUSH2 0x2BE3 JUMP JUMPDEST PUSH1 0x0 DUP1 PUSH1 0x0 DUP6 PUSH20 0xFFFFFFFFFFFFFFFFFFFFFFFFFFFFFFFFFFFFFFFF AND PUSH20 0xFFFFFFFFFFFFFFFFFFFFFFFFFFFFFFFFFFFFFFFF AND DUP2 MSTORE PUSH1 0x20 ADD SWAP1 DUP2 MSTORE PUSH1 0x20 ADD PUSH1 0x0 KECCAK256 SLOAD SWAP1 POP DUP2 DUP2 LT ISZERO PUSH2 0x2178 JUMPI PUSH1 0x40 MLOAD PUSH32 0x8C379A000000000000000000000000000000000000000000000000000000000 DUP2 MSTORE PUSH1 0x4 ADD PUSH2 0x216F SWAP1 PUSH2 0x4291 JUMP JUMPDEST PUSH1 0x40 MLOAD DUP1 SWAP2 SUB SWAP1 REVERT JUMPDEST DUP2 DUP2 SUB PUSH1 0x0 DUP1 DUP7 PUSH20 0xFFFFFFFFFFFFFFFFFFFFFFFFFFFFFFFFFFFFFFFF AND PUSH20 0xFFFFFFFFFFFFFFFFFFFFFFFFFFFFFFFFFFFFFFFF AND DUP2 MSTORE PUSH1 0x20 ADD SWAP1 DUP2 MSTORE PUSH1 0x20 ADD PUSH1 0x0 KECCAK256 DUP2 SWAP1 SSTORE POP DUP2 PUSH1 0x0 DUP1 DUP6 PUSH20 0xFFFFFFFFFFFFFFFFFFFFFFFFFFFFFFFFFFFFFFFF AND PUSH20 0xFFFFFFFFFFFFFFFFFFFFFFFFFFFFFFFFFFFFFFFF AND DUP2 MSTORE PUSH1 0x20 ADD SWAP1 DUP2 MSTORE PUSH1 0x20 ADD PUSH1 0x0 KECCAK256 PUSH1 0x0 DUP3 DUP3 SLOAD ADD SWAP3 POP POP DUP2 SWAP1 SSTORE POP DUP3 PUSH20 0xFFFFFFFFFFFFFFFFFFFFFFFFFFFFFFFFFFFFFFFF AND DUP5 PUSH20 0xFFFFFFFFFFFFFFFFFFFFFFFFFFFFFFFFFFFFFFFF AND PUSH32 0xDDF252AD1BE2C89B69C2B068FC378DAA952BA7F163C4A11628F55A4DF523B3EF DUP5 PUSH1 0x40 MLOAD PUSH2 0x2266 SWAP2 SWAP1 PUSH2 0x2EC6 JUMP JUMPDEST PUSH1 0x40 MLOAD DUP1 SWAP2 SUB SWAP1 LOG3 PUSH2 0x2279 DUP5 DUP5 DUP5 PUSH2 0x2BE8 JUMP JUMPDEST POP POP POP POP JUMP JUMPDEST PUSH1 0x0 PUSH20 0xFFFFFFFFFFFFFFFFFFFFFFFFFFFFFFFFFFFFFFFF AND DUP4 PUSH20 0xFFFFFFFFFFFFFFFFFFFFFFFFFFFFFFFFFFFFFFFF AND SUB PUSH2 0x22EE JUMPI PUSH1 0x40 MLOAD PUSH32 0x8C379A000000000000000000000000000000000000000000000000000000000 DUP2 MSTORE PUSH1 0x4 ADD PUSH2 0x22E5 SWAP1 PUSH2 0x4349 JUMP JUMPDEST PUSH1 0x40 MLOAD DUP1 SWAP2 SUB SWAP1 REVERT JUMPDEST PUSH1 0x2 DUP2 PUSH1 0xFF AND GT ISZERO PUSH2 0x2335 JUMPI PUSH1 0x40 MLOAD PUSH32 0x8C379A000000000000000000000000000000000000000000000000000000000 DUP2 MSTORE PUSH1 0x4 ADD PUSH2 0x232C SWAP1 PUSH2 0x4401 JUMP JUMPDEST PUSH1 0x40 MLOAD DUP1 SWAP2 SUB SWAP1 REVERT JUMPDEST PUSH2 0x233D PUSH2 0xACF JUMP JUMPDEST PUSH1 0xA PUSH2 0x2349 SWAP2 SWAP1 PUSH2 0x4554 JUMP JUMPDEST DUP3 PUSH2 0x2354 SWAP2 SWAP1 PUSH2 0x373D JUMP JUMPDEST SWAP2 POP PUSH1 0x0 DUP2 PUSH1 0xFF AND SUB PUSH2 0x248E JUMPI PUSH1 0x0 PUSH1 0x2 DUP2 GT ISZERO PUSH2 0x2375 JUMPI PUSH2 0x2374 PUSH2 0x3158 JUMP JUMPDEST JUMPDEST PUSH1 0xA PUSH1 0x0 SWAP1 SLOAD SWAP1 PUSH2 0x100 EXP SWAP1 DIV PUSH1 0xFF AND PUSH1 0x2 DUP2 GT ISZERO PUSH2 0x2397 JUMPI PUSH2 0x2396 PUSH2 0x3158 JUMP JUMPDEST JUMPDEST EQ PUSH2 0x23D7 JUMPI PUSH1 0x40 MLOAD PUSH32 0x8C379A000000000000000000000000000000000000000000000000000000000 DUP2 MSTORE PUSH1 0x4 ADD PUSH2 0x23CE SWAP1 PUSH2 0x4637 JUMP JUMPDEST PUSH1 0x40 MLOAD DUP1 SWAP2 SUB SWAP1 REVERT JUMPDEST DUP2 PUSH1 0xB PUSH1 0x0 DUP7 PUSH20 0xFFFFFFFFFFFFFFFFFFFFFFFFFFFFFFFFFFFFFFFF AND PUSH20 0xFFFFFFFFFFFFFFFFFFFFFFFFFFFFFFFFFFFFFFFF AND DUP2 MSTORE PUSH1 0x20 ADD SWAP1 DUP2 MSTORE PUSH1 0x20 ADD PUSH1 0x0 KECCAK256 PUSH1 0x2 ADD PUSH1 0x0 DUP3 DUP3 SLOAD PUSH2 0x2429 SWAP2 SWAP1 PUSH2 0x405B JUMP JUMPDEST SWAP3 POP POP DUP2 SWAP1 SSTORE POP DUP2 PUSH1 0xB PUSH1 0x0 DUP6 PUSH20 0xFFFFFFFFFFFFFFFFFFFFFFFFFFFFFFFFFFFFFFFF AND PUSH20 0xFFFFFFFFFFFFFFFFFFFFFFFFFFFFFFFFFFFFFFFF AND DUP2 MSTORE PUSH1 0x20 ADD SWAP1 DUP2 MSTORE PUSH1 0x20 ADD PUSH1 0x0 KECCAK256 PUSH1 0x2 ADD PUSH1 0x0 DUP3 DUP3 SLOAD PUSH2 0x2482 SWAP2 SWAP1 PUSH2 0x3965 JUMP JUMPDEST SWAP3 POP POP DUP2 SWAP1 SSTORE POP PUSH2 0x2703 JUMP JUMPDEST PUSH1 0x1 DUP2 PUSH1 0xFF AND SUB PUSH2 0x25C6 JUMPI PUSH1 0x1 PUSH1 0x2 DUP2 GT ISZERO PUSH2 0x24AD JUMPI PUSH2 0x24AC PUSH2 0x3158 JUMP JUMPDEST JUMPDEST PUSH1 0xA PUSH1 0x0 SWAP1 SLOAD SWAP1 PUSH2 0x100 EXP SWAP1 DIV PUSH1 0xFF AND PUSH1 0x2 DUP2 GT ISZERO PUSH2 0x24CF JUMPI PUSH2 0x24CE PUSH2 0x3158 JUMP JUMPDEST JUMPDEST EQ PUSH2 0x250F JUMPI PUSH1 0x40 MLOAD PUSH32 0x8C379A000000000000000000000000000000000000000000000000000000000 DUP2 MSTORE PUSH1 0x4 ADD PUSH2 0x2506 SWAP1 PUSH2 0x46EF JUMP JUMPDEST PUSH1 0x40 MLOAD DUP1 SWAP2 SUB SWAP1 REVERT JUMPDEST DUP2 PUSH1 0xB PUSH1 0x0 DUP7 PUSH20 0xFFFFFFFFFFFFFFFFFFFFFFFFFFFFFFFFFFFFFFFF AND PUSH20 0xFFFFFFFFFFFFFFFFFFFFFFFFFFFFFFFFFFFFFFFF AND DUP2 MSTORE PUSH1 0x20 ADD SWAP1 DUP2 MSTORE PUSH1 0x20 ADD PUSH1 0x0 KECCAK256 PUSH1 0x3 ADD PUSH1 0x0 DUP3 DUP3 SLOAD PUSH2 0x2561 SWAP2 SWAP1 PUSH2 0x405B JUMP JUMPDEST SWAP3 POP POP DUP2 SWAP1 SSTORE POP DUP2 PUSH1 0xB PUSH1 0x0 DUP6 PUSH20 0xFFFFFFFFFFFFFFFFFFFFFFFFFFFFFFFFFFFFFFFF AND PUSH20 0xFFFFFFFFFFFFFFFFFFFFFFFFFFFFFFFFFFFFFFFF AND DUP2 MSTORE PUSH1 0x20 ADD SWAP1 DUP2 MSTORE PUSH1 0x20 ADD PUSH1 0x0 KECCAK256 PUSH1 0x3 ADD PUSH1 0x0 DUP3 DUP3 SLOAD PUSH2 0x25BA SWAP2 SWAP1 PUSH2 0x3965 JUMP JUMPDEST SWAP3 POP POP DUP2 SWAP1 SSTORE POP PUSH2 0x26EE JUMP JUMPDEST PUSH1 0x2 DUP1 DUP2 GT ISZERO PUSH2 0x25D9 JUMPI PUSH2 0x25D8 PUSH2 0x3158 JUMP JUMPDEST JUMPDEST PUSH1 0xA PUSH1 0x0 SWAP1 SLOAD SWAP1 PUSH2 0x100 EXP SWAP1 DIV PUSH1 0xFF AND PUSH1 0x2 DUP2 GT ISZERO PUSH2 0x25FB JUMPI PUSH2 0x25FA PUSH2 0x3158 JUMP JUMPDEST JUMPDEST EQ PUSH2 0x263B JUMPI PUSH1 0x40 MLOAD PUSH32 0x8C379A000000000000000000000000000000000000000000000000000000000 DUP2 MSTORE PUSH1 0x4 ADD PUSH2 0x2632 SWAP1 PUSH2 0x47A7 JUMP JUMPDEST PUSH1 0x40 MLOAD DUP1 SWAP2 SUB SWAP1 REVERT JUMPDEST DUP2 PUSH1 0xB PUSH1 0x0 DUP7 PUSH20 0xFFFFFFFFFFFFFFFFFFFFFFFFFFFFFFFFFFFFFFFF AND PUSH20 0xFFFFFFFFFFFFFFFFFFFFFFFFFFFFFFFFFFFFFFFF AND DUP2 MSTORE PUSH1 0x20 ADD SWAP1 DUP2 MSTORE PUSH1 0x20 ADD PUSH1 0x0 KECCAK256 PUSH1 0x4 ADD PUSH1 0x0 DUP3 DUP3 SLOAD PUSH2 0x268D SWAP2 SWAP1 PUSH2 0x405B JUMP JUMPDEST SWAP3 POP POP DUP2 SWAP1 SSTORE POP DUP2 PUSH1 0xB PUSH1 0x0 DUP6 PUSH20 0xFFFFFFFFFFFFFFFFFFFFFFFFFFFFFFFFFFFFFFFF AND PUSH20 0xFFFFFFFFFFFFFFFFFFFFFFFFFFFFFFFFFFFFFFFF AND DUP2 MSTORE PUSH1 0x20 ADD SWAP1 DUP2 MSTORE PUSH1 0x20 ADD PUSH1 0x0 KECCAK256 PUSH1 0x4 ADD PUSH1 0x0 DUP3 DUP3 SLOAD PUSH2 0x26E6 SWAP2 SWAP1 PUSH2 0x3965 JUMP JUMPDEST SWAP3 POP POP DUP2 SWAP1 SSTORE POP JUMPDEST PUSH2 0x26F9 DUP5 DUP5 DUP5 PUSH2 0x2009 JUMP JUMPDEST PUSH2 0x2701 PUSH2 0x1D86 JUMP JUMPDEST POP JUMPDEST POP POP POP POP JUMP JUMPDEST PUSH1 0x1 PUSH1 0x2 DUP2 GT ISZERO PUSH2 0x271D JUMPI PUSH2 0x271C PUSH2 0x3158 JUMP JUMPDEST JUMPDEST DUP2 PUSH1 0x2 DUP2 GT ISZERO PUSH2 0x2730 JUMPI PUSH2 0x272F PUSH2 0x3158 JUMP JUMPDEST JUMPDEST SUB PUSH2 0x2980 JUMPI PUSH7 0x2AA1EFB94E000 PUSH1 0x8 DUP2 SWAP1 SSTORE POP PUSH2 0x274B PUSH2 0xACF JUMP JUMPDEST PUSH1 0xA PUSH2 0x2757 SWAP2 SWAP1 PUSH2 0x4554 JUMP JUMPDEST PUSH3 0x186A0 PUSH2 0x2765 SWAP2 SWAP1 PUSH2 0x373D JUMP JUMPDEST PUSH1 0x9 DUP2 SWAP1 SSTORE POP PUSH2 0x2773 PUSH2 0xACF JUMP JUMPDEST PUSH1 0xA PUSH2 0x277F SWAP2 SWAP1 PUSH2 0x4554 JUMP JUMPDEST PUSH3 0x2DC6C0 PUSH2 0x278D SWAP2 SWAP1 PUSH2 0x373D JUMP JUMPDEST PUSH1 0xB PUSH1 0x0 PUSH1 0xC PUSH1 0x40 MLOAD PUSH2 0x279F SWAP1 PUSH2 0x4813 JUMP JUMPDEST SWAP1 DUP2 MSTORE PUSH1 0x20 ADD PUSH1 0x40 MLOAD DUP1 SWAP2 SUB SWAP1 KECCAK256 PUSH1 0x0 SWAP1 SLOAD SWAP1 PUSH2 0x100 EXP SWAP1 DIV PUSH20 0xFFFFFFFFFFFFFFFFFFFFFFFFFFFFFFFFFFFFFFFF AND PUSH20 0xFFFFFFFFFFFFFFFFFFFFFFFFFFFFFFFFFFFFFFFF AND PUSH20 0xFFFFFFFFFFFFFFFFFFFFFFFFFFFFFFFFFFFFFFFF AND DUP2 MSTORE PUSH1 0x20 ADD SWAP1 DUP2 MSTORE PUSH1 0x20 ADD PUSH1 0x0 KECCAK256 PUSH1 0x3 ADD PUSH1 0x0 DUP3 DUP3 SLOAD PUSH2 0x281A SWAP2 SWAP1 PUSH2 0x405B JUMP JUMPDEST SWAP3 POP POP DUP2 SWAP1 SSTORE POP PUSH2 0x2829 PUSH2 0xACF JUMP JUMPDEST PUSH1 0xA PUSH2 0x2835 SWAP2 SWAP1 PUSH2 0x4554 JUMP JUMPDEST PUSH3 0x2DC6C0 PUSH2 0x2843 SWAP2 SWAP1 PUSH2 0x373D JUMP JUMPDEST PUSH1 0xB PUSH1 0x0 PUSH1 0xC PUSH1 0x40 MLOAD PUSH2 0x2855 SWAP1 PUSH2 0x38EF JUMP JUMPDEST SWAP1 DUP2 MSTORE PUSH1 0x20 ADD PUSH1 0x40 MLOAD DUP1 SWAP2 SUB SWAP1 KECCAK256 PUSH1 0x0 SWAP1 SLOAD SWAP1 PUSH2 0x100 EXP SWAP1 DIV PUSH20 0xFFFFFFFFFFFFFFFFFFFFFFFFFFFFFFFFFFFFFFFF AND PUSH20 0xFFFFFFFFFFFFFFFFFFFFFFFFFFFFFFFFFFFFFFFF AND PUSH20 0xFFFFFFFFFFFFFFFFFFFFFFFFFFFFFFFFFFFFFFFF AND DUP2 MSTORE PUSH1 0x20 ADD SWAP1 DUP2 MSTORE PUSH1 0x20 ADD PUSH1 0x0 KECCAK256 PUSH1 0x3 ADD PUSH1 0x0 DUP3 DUP3 SLOAD PUSH2 0x28D0 SWAP2 SWAP1 PUSH2 0x3965 JUMP JUMPDEST SWAP3 POP POP DUP2 SWAP1 SSTORE POP PUSH2 0x297B PUSH1 0xC PUSH1 0x40 MLOAD PUSH2 0x28E8 SWAP1 PUSH2 0x4813 JUMP JUMPDEST SWAP1 DUP2 MSTORE PUSH1 0x20 ADD PUSH1 0x40 MLOAD DUP1 SWAP2 SUB SWAP1 KECCAK256 PUSH1 0x0 SWAP1 SLOAD SWAP1 PUSH2 0x100 EXP SWAP1 DIV PUSH20 0xFFFFFFFFFFFFFFFFFFFFFFFFFFFFFFFFFFFFFFFF AND PUSH1 0xC PUSH1 0x40 MLOAD PUSH2 0x2925 SWAP1 PUSH2 0x38EF JUMP JUMPDEST SWAP1 DUP2 MSTORE PUSH1 0x20 ADD PUSH1 0x40 MLOAD DUP1 SWAP2 SUB SWAP1 KECCAK256 PUSH1 0x0 SWAP1 SLOAD SWAP1 PUSH2 0x100 EXP SWAP1 DIV PUSH20 0xFFFFFFFFFFFFFFFFFFFFFFFFFFFFFFFFFFFFFFFF AND PUSH2 0x295C PUSH2 0xACF JUMP JUMPDEST PUSH1 0xA PUSH2 0x2968 SWAP2 SWAP1 PUSH2 0x4554 JUMP JUMPDEST PUSH3 0x2DC6C0 PUSH2 0x2976 SWAP2 SWAP1 PUSH2 0x373D JUMP JUMPDEST PUSH2 0x2009 JUMP JUMPDEST PUSH2 0x2BC6 JUMP JUMPDEST PUSH7 0x38D7EA4C68000 PUSH1 0x8 DUP2 SWAP1 SSTORE POP PUSH2 0x2996 PUSH2 0xACF JUMP JUMPDEST PUSH1 0xA PUSH2 0x29A2 SWAP2 SWAP1 PUSH2 0x4554 JUMP JUMPDEST PUSH2 0x1388 PUSH2 0x29AF SWAP2 SWAP1 PUSH2 0x373D JUMP JUMPDEST PUSH1 0x9 DUP2 SWAP1 SSTORE POP PUSH2 0x29BD PUSH2 0xACF JUMP JUMPDEST PUSH1 0xA PUSH2 0x29C9 SWAP2 SWAP1 PUSH2 0x4554 JUMP JUMPDEST PUSH3 0x5B8D80 PUSH2 0x29D7 SWAP2 SWAP1 PUSH2 0x373D JUMP JUMPDEST PUSH1 0xB PUSH1 0x0 PUSH1 0xC PUSH1 0x40 MLOAD PUSH2 0x29E9 SWAP1 PUSH2 0x4813 JUMP JUMPDEST SWAP1 DUP2 MSTORE PUSH1 0x20 ADD PUSH1 0x40 MLOAD DUP1 SWAP2 SUB SWAP1 KECCAK256 PUSH1 0x0 SWAP1 SLOAD SWAP1 PUSH2 0x100 EXP SWAP1 DIV PUSH20 0xFFFFFFFFFFFFFFFFFFFFFFFFFFFFFFFFFFFFFFFF AND PUSH20 0xFFFFFFFFFFFFFFFFFFFFFFFFFFFFFFFFFFFFFFFF AND PUSH20 0xFFFFFFFFFFFFFFFFFFFFFFFFFFFFFFFFFFFFFFFF AND DUP2 MSTORE PUSH1 0x20 ADD SWAP1 DUP2 MSTORE PUSH1 0x20 ADD PUSH1 0x0 KECCAK256 PUSH1 0x4 ADD PUSH1 0x0 DUP3 DUP3 SLOAD PUSH2 0x2A64 SWAP2 SWAP1 PUSH2 0x405B JUMP JUMPDEST SWAP3 POP POP DUP2 SWAP1 SSTORE POP PUSH2 0x2A73 PUSH2 0xACF JUMP JUMPDEST PUSH1 0xA PUSH2 0x2A7F SWAP2 SWAP1 PUSH2 0x4554 JUMP JUMPDEST PUSH3 0x5B8D80 PUSH2 0x2A8D SWAP2 SWAP1 PUSH2 0x373D JUMP JUMPDEST PUSH1 0xB PUSH1 0x0 PUSH1 0xC PUSH1 0x40 MLOAD PUSH2 0x2A9F SWAP1 PUSH2 0x3950 JUMP JUMPDEST SWAP1 DUP2 MSTORE PUSH1 0x20 ADD PUSH1 0x40 MLOAD DUP1 SWAP2 SUB SWAP1 KECCAK256 PUSH1 0x0 SWAP1 SLOAD SWAP1 PUSH2 0x100 EXP SWAP1 DIV PUSH20 0xFFFFFFFFFFFFFFFFFFFFFFFFFFFFFFFFFFFFFFFF AND PUSH20 0xFFFFFFFFFFFFFFFFFFFFFFFFFFFFFFFFFFFFFFFF AND PUSH20 0xFFFFFFFFFFFFFFFFFFFFFFFFFFFFFFFFFFFFFFFF AND DUP2 MSTORE PUSH1 0x20 ADD SWAP1 DUP2 MSTORE PUSH1 0x20 ADD PUSH1 0x0 KECCAK256 PUSH1 0x4 ADD PUSH1 0x0 DUP3 DUP3 SLOAD PUSH2 0x2B1A SWAP2 SWAP1 PUSH2 0x3965 JUMP JUMPDEST SWAP3 POP POP DUP2 SWAP1 SSTORE POP PUSH2 0x2BC5 PUSH1 0xC PUSH1 0x40 MLOAD PUSH2 0x2B32 SWAP1 PUSH2 0x4813 JUMP JUMPDEST SWAP1 DUP2 MSTORE PUSH1 0x20 ADD PUSH1 0x40 MLOAD DUP1 SWAP2 SUB SWAP1 KECCAK256 PUSH1 0x0 SWAP1 SLOAD SWAP1 PUSH2 0x100 EXP SWAP1 DIV PUSH20 0xFFFFFFFFFFFFFFFFFFFFFFFFFFFFFFFFFFFFFFFF AND PUSH1 0xC PUSH1 0x40 MLOAD PUSH2 0x2B6F SWAP1 PUSH2 0x3950 JUMP JUMPDEST SWAP1 DUP2 MSTORE PUSH1 0x20 ADD PUSH1 0x40 MLOAD DUP1 SWAP2 SUB SWAP1 KECCAK256 PUSH1 0x0 SWAP1 SLOAD SWAP1 PUSH2 0x100 EXP SWAP1 DIV PUSH20 0xFFFFFFFFFFFFFFFFFFFFFFFFFFFFFFFFFFFFFFFF AND PUSH2 0x2BA6 PUSH2 0xACF JUMP JUMPDEST PUSH1 0xA PUSH2 0x2BB2 SWAP2 SWAP1 PUSH2 0x4554 JUMP JUMPDEST PUSH3 0x5B8D80 PUSH2 0x2BC0 SWAP2 SWAP1 PUSH2 0x373D JUMP JUMPDEST PUSH2 0x2009 JUMP JUMPDEST JUMPDEST POP JUMP JUMPDEST PUSH2 0x2BE0 DUP2 PUSH2 0x2BD8 PUSH2 0x2BED PUSH2 0x2C0E JUMP JUMPDEST PUSH4 0xFFFFFFFF AND JUMP JUMPDEST POP JUMP JUMPDEST POP POP POP JUMP JUMPDEST POP POP POP JUMP JUMPDEST PUSH1 0x0 PUSH11 0x636F6E736F6C652E6C6F67 SWAP1 POP PUSH1 0x0 DUP1 DUP4 MLOAD PUSH1 0x20 DUP6 ADD DUP5 GAS STATICCALL POP POP POP JUMP JUMPDEST PUSH2 0x2CC0 DUP2 SWAP1 POP SWAP2 SWAP1 POP JUMP JUMPDEST PUSH1 0x40 MLOAD DUP1 PUSH1 0xE0 ADD PUSH1 0x40 MSTORE DUP1 PUSH1 0x60 DUP2 MSTORE PUSH1 0x20 ADD PUSH1 0x0 PUSH20 0xFFFFFFFFFFFFFFFFFFFFFFFFFFFFFFFFFFFFFFFF AND DUP2 MSTORE PUSH1 0x20 ADD PUSH1 0x0 ISZERO ISZERO DUP2 MSTORE PUSH1 0x20 ADD PUSH1 0x0 DUP2 MSTORE PUSH1 0x20 ADD PUSH1 0x0 DUP2 MSTORE PUSH1 0x20 ADD PUSH1 0x0 DUP2 MSTORE PUSH1 0x20 ADD PUSH1 0x0 PUSH1 0x3 DUP2 GT ISZERO PUSH2 0x2C7A JUMPI PUSH2 0x2C79 PUSH2 0x3158 JUMP JUMPDEST JUMPDEST DUP2 MSTORE POP SWAP1 JUMP JUMPDEST POP DUP1 SLOAD PUSH2 0x2C8C SWAP1 PUSH2 0x34AE JUMP JUMPDEST PUSH1 0x0 DUP3 SSTORE DUP1 PUSH1 0x1F LT PUSH2 0x2C9E JUMPI POP PUSH2 0x2CBD JUMP JUMPDEST PUSH1 0x1F ADD PUSH1 0x20 SWAP1 DIV SWAP1 PUSH1 0x0 MSTORE PUSH1 0x20 PUSH1 0x0 KECCAK256 SWAP1 DUP2 ADD SWAP1 PUSH2 0x2CBC SWAP2 SWAP1 PUSH2 0x2CCA JUMP JUMPDEST JUMPDEST POP JUMP JUMPDEST PUSH2 0x2CC8 PUSH2 0x4828 JUMP JUMPDEST JUMP JUMPDEST JUMPDEST DUP1 DUP3 GT ISZERO PUSH2 0x2CE3 JUMPI PUSH1 0x0 DUP2 PUSH1 0x0 SWAP1 SSTORE POP PUSH1 0x1 ADD PUSH2 0x2CCB JUMP JUMPDEST POP SWAP1 JUMP JUMPDEST PUSH1 0x0 DUP2 MLOAD SWAP1 POP SWAP2 SWAP1 POP JUMP JUMPDEST PUSH1 0x0 DUP3 DUP3 MSTORE PUSH1 0x20 DUP3 ADD SWAP1 POP SWAP3 SWAP2 POP POP JUMP JUMPDEST PUSH1 0x0 JUMPDEST DUP4 DUP2 LT ISZERO PUSH2 0x2D21 JUMPI DUP1 DUP3 ADD MLOAD DUP2 DUP5 ADD MSTORE PUSH1 0x20 DUP2 ADD SWAP1 POP PUSH2 0x2D06 JUMP JUMPDEST PUSH1 0x0 DUP5 DUP5 ADD MSTORE POP POP POP POP JUMP JUMPDEST PUSH1 0x0 PUSH1 0x1F NOT PUSH1 0x1F DUP4 ADD AND SWAP1 POP SWAP2 SWAP1 POP JUMP JUMPDEST PUSH1 0x0 PUSH2 0x2D49 DUP3 PUSH2 0x2CE7 JUMP JUMPDEST PUSH2 0x2D53 DUP2 DUP6 PUSH2 0x2CF2 JUMP JUMPDEST SWAP4 POP PUSH2 0x2D63 DUP2 DUP6 PUSH1 0x20 DUP7 ADD PUSH2 0x2D03 JUMP JUMPDEST PUSH2 0x2D6C DUP2 PUSH2 0x2D2D JUMP JUMPDEST DUP5 ADD SWAP2 POP POP SWAP3 SWAP2 POP POP JUMP JUMPDEST PUSH1 0x0 PUSH1 0x20 DUP3 ADD SWAP1 POP DUP2 DUP2 SUB PUSH1 0x0 DUP4 ADD MSTORE PUSH2 0x2D91 DUP2 DUP5 PUSH2 0x2D3E JUMP JUMPDEST SWAP1 POP SWAP3 SWAP2 POP POP JUMP JUMPDEST PUSH1 0x0 PUSH1 0x40 MLOAD SWAP1 POP SWAP1 JUMP JUMPDEST PUSH1 0x0 DUP1 REVERT JUMPDEST PUSH1 0x0 DUP1 REVERT JUMPDEST PUSH1 0x0 PUSH20 0xFFFFFFFFFFFFFFFFFFFFFFFFFFFFFFFFFFFFFFFF DUP3 AND SWAP1 POP SWAP2 SWAP1 POP JUMP JUMPDEST PUSH1 0x0 PUSH2 0x2DD8 DUP3 PUSH2 0x2DAD JUMP JUMPDEST SWAP1 POP SWAP2 SWAP1 POP JUMP JUMPDEST PUSH2 0x2DE8 DUP2 PUSH2 0x2DCD JUMP JUMPDEST DUP2 EQ PUSH2 0x2DF3 JUMPI PUSH1 0x0 DUP1 REVERT JUMPDEST POP JUMP JUMPDEST PUSH1 0x0 DUP2 CALLDATALOAD SWAP1 POP PUSH2 0x2E05 DUP2 PUSH2 0x2DDF JUMP JUMPDEST SWAP3 SWAP2 POP POP JUMP JUMPDEST PUSH1 0x0 DUP2 SWAP1 POP SWAP2 SWAP1 POP JUMP JUMPDEST PUSH2 0x2E1E DUP2 PUSH2 0x2E0B JUMP JUMPDEST DUP2 EQ PUSH2 0x2E29 JUMPI PUSH1 0x0 DUP1 REVERT JUMPDEST POP JUMP JUMPDEST PUSH1 0x0 DUP2 CALLDATALOAD SWAP1 POP PUSH2 0x2E3B DUP2 PUSH2 0x2E15 JUMP JUMPDEST SWAP3 SWAP2 POP POP JUMP JUMPDEST PUSH1 0x0 DUP1 PUSH1 0x40 DUP4 DUP6 SUB SLT ISZERO PUSH2 0x2E58 JUMPI PUSH2 0x2E57 PUSH2 0x2DA3 JUMP JUMPDEST JUMPDEST PUSH1 0x0 PUSH2 0x2E66 DUP6 DUP3 DUP7 ADD PUSH2 0x2DF6 JUMP JUMPDEST SWAP3 POP POP PUSH1 0x20 PUSH2 0x2E77 DUP6 DUP3 DUP7 ADD PUSH2 0x2E2C JUMP JUMPDEST SWAP2 POP POP SWAP3 POP SWAP3 SWAP1 POP JUMP JUMPDEST PUSH1 0x0 DUP2 ISZERO ISZERO SWAP1 POP SWAP2 SWAP1 POP JUMP JUMPDEST PUSH2 0x2E96 DUP2 PUSH2 0x2E81 JUMP JUMPDEST DUP3 MSTORE POP POP JUMP JUMPDEST PUSH1 0x0 PUSH1 0x20 DUP3 ADD SWAP1 POP PUSH2 0x2EB1 PUSH1 0x0 DUP4 ADD DUP5 PUSH2 0x2E8D JUMP JUMPDEST SWAP3 SWAP2 POP POP JUMP JUMPDEST PUSH2 0x2EC0 DUP2 PUSH2 0x2E0B JUMP JUMPDEST DUP3 MSTORE POP POP JUMP JUMPDEST PUSH1 0x0 PUSH1 0x20 DUP3 ADD SWAP1 POP PUSH2 0x2EDB PUSH1 0x0 DUP4 ADD DUP5 PUSH2 0x2EB7 JUMP JUMPDEST SWAP3 SWAP2 POP POP JUMP JUMPDEST PUSH1 0x0 DUP1 PUSH1 0x0 PUSH1 0x60 DUP5 DUP7 SUB SLT ISZERO PUSH2 0x2EFA JUMPI PUSH2 0x2EF9 PUSH2 0x2DA3 JUMP JUMPDEST JUMPDEST PUSH1 0x0 PUSH2 0x2F08 DUP7 DUP3 DUP8 ADD PUSH2 0x2DF6 JUMP JUMPDEST SWAP4 POP POP PUSH1 0x20 PUSH2 0x2F19 DUP7 DUP3 DUP8 ADD PUSH2 0x2DF6 JUMP JUMPDEST SWAP3 POP POP PUSH1 0x40 PUSH2 0x2F2A DUP7 DUP3 DUP8 ADD PUSH2 0x2E2C JUMP JUMPDEST SWAP2 POP POP SWAP3 POP SWAP3 POP SWAP3 JUMP JUMPDEST PUSH1 0x0 DUP1 REVERT JUMPDEST PUSH1 0x0 DUP1 REVERT JUMPDEST PUSH32 0x4E487B7100000000000000000000000000000000000000000000000000000000 PUSH1 0x0 MSTORE PUSH1 0x41 PUSH1 0x4 MSTORE PUSH1 0x24 PUSH1 0x0 REVERT JUMPDEST PUSH2 0x2F76 DUP3 PUSH2 0x2D2D JUMP JUMPDEST DUP2 ADD DUP2 DUP2 LT PUSH8 0xFFFFFFFFFFFFFFFF DUP3 GT OR ISZERO PUSH2 0x2F95 JUMPI PUSH2 0x2F94 PUSH2 0x2F3E JUMP JUMPDEST JUMPDEST DUP1 PUSH1 0x40 MSTORE POP POP POP JUMP JUMPDEST PUSH1 0x0 PUSH2 0x2FA8 PUSH2 0x2D99 JUMP JUMPDEST SWAP1 POP PUSH2 0x2FB4 DUP3 DUP3 PUSH2 0x2F6D JUMP JUMPDEST SWAP2 SWAP1 POP JUMP JUMPDEST PUSH1 0x0 PUSH8 0xFFFFFFFFFFFFFFFF DUP3 GT ISZERO PUSH2 0x2FD4 JUMPI PUSH2 0x2FD3 PUSH2 0x2F3E JUMP JUMPDEST JUMPDEST PUSH2 0x2FDD DUP3 PUSH2 0x2D2D JUMP JUMPDEST SWAP1 POP PUSH1 0x20 DUP2 ADD SWAP1 POP SWAP2 SWAP1 POP JUMP JUMPDEST DUP3 DUP2 DUP4 CALLDATACOPY PUSH1 0x0 DUP4 DUP4 ADD MSTORE POP POP POP JUMP JUMPDEST PUSH1 0x0 PUSH2 0x300C PUSH2 0x3007 DUP5 PUSH2 0x2FB9 JUMP JUMPDEST PUSH2 0x2F9E JUMP JUMPDEST SWAP1 POP DUP3 DUP2 MSTORE PUSH1 0x20 DUP2 ADD DUP5 DUP5 DUP5 ADD GT ISZERO PUSH2 0x3028 JUMPI PUSH2 0x3027 PUSH2 0x2F39 JUMP JUMPDEST JUMPDEST PUSH2 0x3033 DUP5 DUP3 DUP6 PUSH2 0x2FEA JUMP JUMPDEST POP SWAP4 SWAP3 POP POP POP JUMP JUMPDEST PUSH1 0x0 DUP3 PUSH1 0x1F DUP4 ADD SLT PUSH2 0x3050 JUMPI PUSH2 0x304F PUSH2 0x2F34 JUMP JUMPDEST JUMPDEST DUP2 CALLDATALOAD PUSH2 0x3060 DUP5 DUP3 PUSH1 0x20 DUP7 ADD PUSH2 0x2FF9 JUMP JUMPDEST SWAP2 POP POP SWAP3 SWAP2 POP POP JUMP JUMPDEST PUSH1 0x0 DUP1 PUSH1 0x40 DUP4 DUP6 SUB SLT ISZERO PUSH2 0x3080 JUMPI PUSH2 0x307F PUSH2 0x2DA3 JUMP JUMPDEST JUMPDEST PUSH1 0x0 DUP4 ADD CALLDATALOAD PUSH8 0xFFFFFFFFFFFFFFFF DUP2 GT ISZERO PUSH2 0x309E JUMPI PUSH2 0x309D PUSH2 0x2DA8 JUMP JUMPDEST JUMPDEST PUSH2 0x30AA DUP6 DUP3 DUP7 ADD PUSH2 0x303B JUMP JUMPDEST SWAP3 POP POP PUSH1 0x20 DUP4 ADD CALLDATALOAD PUSH8 0xFFFFFFFFFFFFFFFF DUP2 GT ISZERO PUSH2 0x30CB JUMPI PUSH2 0x30CA PUSH2 0x2DA8 JUMP JUMPDEST JUMPDEST PUSH2 0x30D7 DUP6 DUP3 DUP7 ADD PUSH2 0x303B JUMP JUMPDEST SWAP2 POP POP SWAP3 POP SWAP3 SWAP1 POP JUMP JUMPDEST PUSH1 0x0 DUP3 DUP3 MSTORE PUSH1 0x20 DUP3 ADD SWAP1 POP SWAP3 SWAP2 POP POP JUMP JUMPDEST PUSH1 0x0 PUSH2 0x30FD DUP3 PUSH2 0x2CE7 JUMP JUMPDEST PUSH2 0x3107 DUP2 DUP6 PUSH2 0x30E1 JUMP JUMPDEST SWAP4 POP PUSH2 0x3117 DUP2 DUP6 PUSH1 0x20 DUP7 ADD PUSH2 0x2D03 JUMP JUMPDEST PUSH2 0x3120 DUP2 PUSH2 0x2D2D JUMP JUMPDEST DUP5 ADD SWAP2 POP POP SWAP3 SWAP2 POP POP JUMP JUMPDEST PUSH2 0x3134 DUP2 PUSH2 0x2DCD JUMP JUMPDEST DUP3 MSTORE POP POP JUMP JUMPDEST PUSH2 0x3143 DUP2 PUSH2 0x2E81 JUMP JUMPDEST DUP3 MSTORE POP POP JUMP JUMPDEST PUSH2 0x3152 DUP2 PUSH2 0x2E0B JUMP JUMPDEST DUP3 MSTORE POP POP JUMP JUMPDEST PUSH32 0x4E487B7100000000000000000000000000000000000000000000000000000000 PUSH1 0x0 MSTORE PUSH1 0x21 PUSH1 0x4 MSTORE PUSH1 0x24 PUSH1 0x0 REVERT JUMPDEST PUSH1 0x4 DUP2 LT PUSH2 0x3198 JUMPI PUSH2 0x3197 PUSH2 0x3158 JUMP JUMPDEST JUMPDEST POP JUMP JUMPDEST PUSH1 0x0 DUP2 SWAP1 POP PUSH2 0x31A9 DUP3 PUSH2 0x3187 JUMP JUMPDEST SWAP2 SWAP1 POP JUMP JUMPDEST PUSH1 0x0 PUSH2 0x31B9 DUP3 PUSH2 0x319B JUMP JUMPDEST SWAP1 POP SWAP2 SWAP1 POP JUMP JUMPDEST PUSH2 0x31C9 DUP2 PUSH2 0x31AE JUMP JUMPDEST DUP3 MSTORE POP POP JUMP JUMPDEST PUSH1 0x0 PUSH1 0xE0 DUP4 ADD PUSH1 0x0 DUP4 ADD MLOAD DUP5 DUP3 SUB PUSH1 0x0 DUP7 ADD MSTORE PUSH2 0x31EC DUP3 DUP3 PUSH2 0x30F2 JUMP JUMPDEST SWAP2 POP POP PUSH1 0x20 DUP4 ADD MLOAD PUSH2 0x3201 PUSH1 0x20 DUP7 ADD DUP3 PUSH2 0x312B JUMP JUMPDEST POP PUSH1 0x40 DUP4 ADD MLOAD PUSH2 0x3214 PUSH1 0x40 DUP7 ADD DUP3 PUSH2 0x313A JUMP JUMPDEST POP PUSH1 0x60 DUP4 ADD MLOAD PUSH2 0x3227 PUSH1 0x60 DUP7 ADD DUP3 PUSH2 0x3149 JUMP JUMPDEST POP PUSH1 0x80 DUP4 ADD MLOAD PUSH2 0x323A PUSH1 0x80 DUP7 ADD DUP3 PUSH2 0x3149 JUMP JUMPDEST POP PUSH1 0xA0 DUP4 ADD MLOAD PUSH2 0x324D PUSH1 0xA0 DUP7 ADD DUP3 PUSH2 0x3149 JUMP JUMPDEST POP PUSH1 0xC0 DUP4 ADD MLOAD PUSH2 0x3260 PUSH1 0xC0 DUP7 ADD DUP3 PUSH2 0x31C0 JUMP JUMPDEST POP DUP1 SWAP2 POP POP SWAP3 SWAP2 POP POP JUMP JUMPDEST PUSH1 0x0 PUSH1 0x20 DUP3 ADD SWAP1 POP DUP2 DUP2 SUB PUSH1 0x0 DUP4 ADD MSTORE PUSH2 0x3285 DUP2 DUP5 PUSH2 0x31CF JUMP JUMPDEST SWAP1 POP SWAP3 SWAP2 POP POP JUMP JUMPDEST PUSH1 0x0 PUSH1 0x20 DUP3 DUP5 SUB SLT ISZERO PUSH2 0x32A3 JUMPI PUSH2 0x32A2 PUSH2 0x2DA3 JUMP JUMPDEST JUMPDEST PUSH1 0x0 PUSH2 0x32B1 DUP5 DUP3 DUP6 ADD PUSH2 0x2E2C JUMP JUMPDEST SWAP2 POP POP SWAP3 SWAP2 POP POP JUMP JUMPDEST PUSH1 0x0 PUSH1 0xFF DUP3 AND SWAP1 POP SWAP2 SWAP1 POP JUMP JUMPDEST PUSH2 0x32D0 DUP2 PUSH2 0x32BA JUMP JUMPDEST DUP3 MSTORE POP POP JUMP JUMPDEST PUSH1 0x0 PUSH1 0x20 DUP3 ADD SWAP1 POP PUSH2 0x32EB PUSH1 0x0 DUP4 ADD DUP5 PUSH2 0x32C7 JUMP JUMPDEST SWAP3 SWAP2 POP POP JUMP JUMPDEST PUSH1 0x0 PUSH1 0x20 DUP3 DUP5 SUB SLT ISZERO PUSH2 0x3307 JUMPI PUSH2 0x3306 PUSH2 0x2DA3 JUMP JUMPDEST JUMPDEST PUSH1 0x0 PUSH2 0x3315 DUP5 DUP3 DUP6 ADD PUSH2 0x2DF6 JUMP JUMPDEST SWAP2 POP POP SWAP3 SWAP2 POP POP JUMP JUMPDEST PUSH2 0x3327 DUP2 PUSH2 0x32BA JUMP JUMPDEST DUP2 EQ PUSH2 0x3332 JUMPI PUSH1 0x0 DUP1 REVERT JUMPDEST POP JUMP JUMPDEST PUSH1 0x0 DUP2 CALLDATALOAD SWAP1 POP PUSH2 0x3344 DUP2 PUSH2 0x331E JUMP JUMPDEST SWAP3 SWAP2 POP POP JUMP JUMPDEST PUSH1 0x0 PUSH1 0x20 DUP3 DUP5 SUB SLT ISZERO PUSH2 0x3360 JUMPI PUSH2 0x335F PUSH2 0x2DA3 JUMP JUMPDEST JUMPDEST PUSH1 0x0 PUSH2 0x336E DUP5 DUP3 DUP6 ADD PUSH2 0x3335 JUMP JUMPDEST SWAP2 POP POP SWAP3 SWAP2 POP POP JUMP JUMPDEST PUSH2 0x3380 DUP2 PUSH2 0x2E81 JUMP JUMPDEST DUP2 EQ PUSH2 0x338B JUMPI PUSH1 0x0 DUP1 REVERT JUMPDEST POP JUMP JUMPDEST PUSH1 0x0 DUP2 CALLDATALOAD SWAP1 POP PUSH2 0x339D DUP2 PUSH2 0x3377 JUMP JUMPDEST SWAP3 SWAP2 POP POP JUMP JUMPDEST PUSH1 0x0 DUP1 PUSH1 0x40 DUP4 DUP6 SUB SLT ISZERO PUSH2 0x33BA JUMPI PUSH2 0x33B9 PUSH2 0x2DA3 JUMP JUMPDEST JUMPDEST PUSH1 0x0 DUP4 ADD CALLDATALOAD PUSH8 0xFFFFFFFFFFFFFFFF DUP2 GT ISZERO PUSH2 0x33D8 JUMPI PUSH2 0x33D7 PUSH2 0x2DA8 JUMP JUMPDEST JUMPDEST PUSH2 0x33E4 DUP6 DUP3 DUP7 ADD PUSH2 0x303B JUMP JUMPDEST SWAP3 POP POP PUSH1 0x20 PUSH2 0x33F5 DUP6 DUP3 DUP7 ADD PUSH2 0x338E JUMP JUMPDEST SWAP2 POP POP SWAP3 POP SWAP3 SWAP1 POP JUMP JUMPDEST PUSH1 0x0 DUP1 PUSH1 0x40 DUP4 DUP6 SUB SLT ISZERO PUSH2 0x3416 JUMPI PUSH2 0x3415 PUSH2 0x2DA3 JUMP JUMPDEST JUMPDEST PUSH1 0x0 PUSH2 0x3424 DUP6 DUP3 DUP7 ADD PUSH2 0x2DF6 JUMP JUMPDEST SWAP3 POP POP PUSH1 0x20 PUSH2 0x3435 DUP6 DUP3 DUP7 ADD PUSH2 0x3335 JUMP JUMPDEST SWAP2 POP POP SWAP3 POP SWAP3 SWAP1 POP JUMP JUMPDEST PUSH1 0x0 DUP1 PUSH1 0x40 DUP4 DUP6 SUB SLT ISZERO PUSH2 0x3456 JUMPI PUSH2 0x3455 PUSH2 0x2DA3 JUMP JUMPDEST JUMPDEST PUSH1 0x0 PUSH2 0x3464 DUP6 DUP3 DUP7 ADD PUSH2 0x2DF6 JUMP JUMPDEST SWAP3 POP POP PUSH1 0x20 PUSH2 0x3475 DUP6 DUP3 DUP7 ADD PUSH2 0x2DF6 JUMP JUMPDEST SWAP2 POP POP SWAP3 POP SWAP3 SWAP1 POP JUMP JUMPDEST PUSH32 0x4E487B7100000000000000000000000000000000000000000000000000000000 PUSH1 0x0 MSTORE PUSH1 0x22 PUSH1 0x4 MSTORE PUSH1 0x24 PUSH1 0x0 REVERT JUMPDEST PUSH1 0x0 PUSH1 0x2 DUP3 DIV SWAP1 POP PUSH1 0x1 DUP3 AND DUP1 PUSH2 0x34C6 JUMPI PUSH1 0x7F DUP3 AND SWAP2 POP JUMPDEST PUSH1 0x20 DUP3 LT DUP2 SUB PUSH2 0x34D9 JUMPI PUSH2 0x34D8 PUSH2 0x347F JUMP JUMPDEST JUMPDEST POP SWAP2 SWAP1 POP JUMP JUMPDEST PUSH1 0x0 DUP2 SWAP1 POP SWAP3 SWAP2 POP POP JUMP JUMPDEST PUSH1 0x0 PUSH2 0x34F5 DUP3 PUSH2 0x2CE7 JUMP JUMPDEST PUSH2 0x34FF DUP2 DUP6 PUSH2 0x34DF JUMP JUMPDEST SWAP4 POP PUSH2 0x350F DUP2 DUP6 PUSH1 0x20 DUP7 ADD PUSH2 0x2D03 JUMP JUMPDEST DUP1 DUP5 ADD SWAP2 POP POP SWAP3 SWAP2 POP POP JUMP JUMPDEST PUSH1 0x0 PUSH2 0x3527 DUP3 DUP5 PUSH2 0x34EA JUMP JUMPDEST SWAP2 POP DUP2 SWAP1 POP SWAP3 SWAP2 POP POP JUMP JUMPDEST PUSH32 0x57726F6E67206C6F67696E206F722070617373776F7264210000000000000000 PUSH1 0x0 DUP3 ADD MSTORE POP JUMP JUMPDEST PUSH1 0x0 PUSH2 0x3568 PUSH1 0x18 DUP4 PUSH2 0x2CF2 JUMP JUMPDEST SWAP2 POP PUSH2 0x3573 DUP3 PUSH2 0x3532 JUMP JUMPDEST PUSH1 0x20 DUP3 ADD SWAP1 POP SWAP2 SWAP1 POP JUMP JUMPDEST PUSH1 0x0 PUSH1 0x20 DUP3 ADD SWAP1 POP DUP2 DUP2 SUB PUSH1 0x0 DUP4 ADD MSTORE PUSH2 0x3597 DUP2 PUSH2 0x355B JUMP JUMPDEST SWAP1 POP SWAP2 SWAP1 POP JUMP JUMPDEST PUSH32 0xD09DD0B5D0BBD18CD0B7D18F20D0BFD0B5D180D0B5D0B2D0BED0B4D0B8D182D1 PUSH1 0x0 DUP3 ADD MSTORE PUSH32 0x8C20D0B1D0BED0BBD18CD188D0B52C20D187D0B5D0BC20D0BED180D0B3D0B0D0 PUSH1 0x20 DUP3 ADD MSTORE PUSH32 0xBDD0B8D187D0B5D0BDD0BDD0BE20D0B4D0B0D0BDD0BDD0BED0B920D184D0B0D0 PUSH1 0x40 DUP3 ADD MSTORE PUSH32 0xB7D0BED0B9210000000000000000000000000000000000000000000000000000 PUSH1 0x60 DUP3 ADD MSTORE POP JUMP JUMPDEST PUSH1 0x0 PUSH2 0x3646 PUSH1 0x66 DUP4 PUSH2 0x2CF2 JUMP JUMPDEST SWAP2 POP PUSH2 0x3651 DUP3 PUSH2 0x359E JUMP JUMPDEST PUSH1 0x80 DUP3 ADD SWAP1 POP SWAP2 SWAP1 POP JUMP JUMPDEST PUSH1 0x0 PUSH1 0x20 DUP3 ADD SWAP1 POP DUP2 DUP2 SUB PUSH1 0x0 DUP4 ADD MSTORE PUSH2 0x3675 DUP2 PUSH2 0x3639 JUMP JUMPDEST SWAP1 POP SWAP2 SWAP1 POP JUMP JUMPDEST PUSH32 0xD09DD0B5D0BBD18CD0B7D18F20D0BFD0BED0BAD183D0BFD0B0D182D18C20D182 PUSH1 0x0 DUP3 ADD MSTORE PUSH32 0xD0BED0BAD0B5D0BDD18B20D0B220D18DD182D18320D184D0B0D0B7D183210000 PUSH1 0x20 DUP3 ADD MSTORE POP JUMP JUMPDEST PUSH1 0x0 PUSH2 0x36D8 PUSH1 0x3E DUP4 PUSH2 0x2CF2 JUMP JUMPDEST SWAP2 POP PUSH2 0x36E3 DUP3 PUSH2 0x367C JUMP JUMPDEST PUSH1 0x40 DUP3 ADD SWAP1 POP SWAP2 SWAP1 POP JUMP JUMPDEST PUSH1 0x0 PUSH1 0x20 DUP3 ADD SWAP1 POP DUP2 DUP2 SUB PUSH1 0x0 DUP4 ADD MSTORE PUSH2 0x3707 DUP2 PUSH2 0x36CB JUMP JUMPDEST SWAP1 POP SWAP2 SWAP1 POP JUMP JUMPDEST PUSH32 0x4E487B7100000000000000000000000000000000000000000000000000000000 PUSH1 0x0 MSTORE PUSH1 0x11 PUSH1 0x4 MSTORE PUSH1 0x24 PUSH1 0x0 REVERT JUMPDEST PUSH1 0x0 PUSH2 0x3748 DUP3 PUSH2 0x2E0B JUMP JUMPDEST SWAP2 POP PUSH2 0x3753 DUP4 PUSH2 0x2E0B JUMP JUMPDEST SWAP3 POP DUP3 DUP3 MUL PUSH2 0x3761 DUP2 PUSH2 0x2E0B JUMP JUMPDEST SWAP2 POP DUP3 DUP3 DIV DUP5 EQ DUP4 ISZERO OR PUSH2 0x3778 JUMPI PUSH2 0x3777 PUSH2 0x370E JUMP JUMPDEST JUMPDEST POP SWAP3 SWAP2 POP POP JUMP JUMPDEST PUSH32 0xD0A320D0B2D0B0D18120D0BDD0B5D0B4D0BED181D182D0B0D182D0BED187D0BD PUSH1 0x0 DUP3 ADD MSTORE PUSH32 0xD0BE206574682100000000000000000000000000000000000000000000000000 PUSH1 0x20 DUP3 ADD MSTORE POP JUMP JUMPDEST PUSH1 0x0 PUSH2 0x37DB PUSH1 0x27 DUP4 PUSH2 0x2CF2 JUMP JUMPDEST SWAP2 POP PUSH2 0x37E6 DUP3 PUSH2 0x377F JUMP JUMPDEST PUSH1 0x40 DUP3 ADD SWAP1 POP SWAP2 SWAP1 POP JUMP JUMPDEST PUSH1 0x0 PUSH1 0x20 DUP3 ADD SWAP1 POP DUP2 DUP2 SUB PUSH1 0x0 DUP4 ADD MSTORE PUSH2 0x380A DUP2 PUSH2 0x37CE JUMP JUMPDEST SWAP1 POP SWAP2 SWAP1 POP JUMP JUMPDEST PUSH32 0xD0A1D0B2D0BED0B1D0BED0B4D0BDD0B0D18F20D0BFD180D0BED0B4D0B0D0B6D0 PUSH1 0x0 DUP3 ADD MSTORE PUSH32 0xB020D0B5D189D19120D0BDD0B520D0BDD0B0D187D0B0D0BBD0B0D181D18C2100 PUSH1 0x20 DUP3 ADD MSTORE POP JUMP JUMPDEST PUSH1 0x0 PUSH2 0x386D PUSH1 0x3F DUP4 PUSH2 0x2CF2 JUMP JUMPDEST SWAP2 POP PUSH2 0x3878 DUP3 PUSH2 0x3811 JUMP JUMPDEST PUSH1 0x40 DUP3 ADD SWAP1 POP SWAP2 SWAP1 POP JUMP JUMPDEST PUSH1 0x0 PUSH1 0x20 DUP3 ADD SWAP1 POP DUP2 DUP2 SUB PUSH1 0x0 DUP4 ADD MSTORE PUSH2 0x389C DUP2 PUSH2 0x3860 JUMP JUMPDEST SWAP1 POP SWAP2 SWAP1 POP JUMP JUMPDEST PUSH32 0x707269762070726F760000000000000000000000000000000000000000000000 PUSH1 0x0 DUP3 ADD MSTORE POP JUMP JUMPDEST PUSH1 0x0 PUSH2 0x38D9 PUSH1 0x9 DUP4 PUSH2 0x34DF JUMP JUMPDEST SWAP2 POP PUSH2 0x38E4 DUP3 PUSH2 0x38A3 JUMP JUMPDEST PUSH1 0x9 DUP3 ADD SWAP1 POP SWAP2 SWAP1 POP JUMP JUMPDEST PUSH1 0x0 PUSH2 0x38FA DUP3 PUSH2 0x38CC JUMP JUMPDEST SWAP2 POP DUP2 SWAP1 POP SWAP2 SWAP1 POP JUMP JUMPDEST PUSH32 0x7075622070726F76000000000000000000000000000000000000000000000000 PUSH1 0x0 DUP3 ADD MSTORE POP JUMP JUMPDEST PUSH1 0x0 PUSH2 0x393A PUSH1 0x8 DUP4 PUSH2 0x34DF JUMP JUMPDEST SWAP2 POP PUSH2 0x3945 DUP3 PUSH2 0x3904 JUMP JUMPDEST PUSH1 0x8 DUP3 ADD SWAP1 POP SWAP2 SWAP1 POP JUMP JUMPDEST PUSH1 0x0 PUSH2 0x395B DUP3 PUSH2 0x392D JUMP JUMPDEST SWAP2 POP DUP2 SWAP1 POP SWAP2 SWAP1 POP JUMP JUMPDEST PUSH1 0x0 PUSH2 0x3970 DUP3 PUSH2 0x2E0B JUMP JUMPDEST SWAP2 POP PUSH2 0x397B DUP4 PUSH2 0x2E0B JUMP JUMPDEST SWAP3 POP DUP3 DUP3 ADD SWAP1 POP DUP1 DUP3 GT ISZERO PUSH2 0x3993 JUMPI PUSH2 0x3992 PUSH2 0x370E JUMP JUMPDEST JUMPDEST SWAP3 SWAP2 POP POP JUMP JUMPDEST PUSH32 0x596F7520646F6E60742068617665207065726D697373696F6E7320746F20646F PUSH1 0x0 DUP3 ADD MSTORE PUSH32 0x2074686973210000000000000000000000000000000000000000000000000000 PUSH1 0x20 DUP3 ADD MSTORE POP JUMP JUMPDEST PUSH1 0x0 PUSH2 0x39F5 PUSH1 0x26 DUP4 PUSH2 0x2CF2 JUMP JUMPDEST SWAP2 POP PUSH2 0x3A00 DUP3 PUSH2 0x3999 JUMP JUMPDEST PUSH1 0x40 DUP3 ADD SWAP1 POP SWAP2 SWAP1 POP JUMP JUMPDEST PUSH1 0x0 PUSH1 0x20 DUP3 ADD SWAP1 POP DUP2 DUP2 SUB PUSH1 0x0 DUP4 ADD MSTORE PUSH2 0x3A24 DUP2 PUSH2 0x39E8 JUMP JUMPDEST SWAP1 POP SWAP2 SWAP1 POP JUMP JUMPDEST PUSH32 0x546869732070686173652069736E607420616C72656164792073746172746564 PUSH1 0x0 DUP3 ADD MSTORE PUSH32 0x206F722066696E69736865642100000000000000000000000000000000000000 PUSH1 0x20 DUP3 ADD MSTORE POP JUMP JUMPDEST PUSH1 0x0 PUSH2 0x3A87 PUSH1 0x2D DUP4 PUSH2 0x2CF2 JUMP JUMPDEST SWAP2 POP PUSH2 0x3A92 DUP3 PUSH2 0x3A2B JUMP JUMPDEST PUSH1 0x40 DUP3 ADD SWAP1 POP SWAP2 SWAP1 POP JUMP JUMPDEST PUSH1 0x0 PUSH1 0x20 DUP3 ADD SWAP1 POP DUP2 DUP2 SUB PUSH1 0x0 DUP4 ADD MSTORE PUSH2 0x3AB6 DUP2 PUSH2 0x3A7A JUMP JUMPDEST SWAP1 POP SWAP2 SWAP1 POP JUMP JUMPDEST PUSH1 0x0 DUP2 SWAP1 POP DUP2 PUSH1 0x0 MSTORE PUSH1 0x20 PUSH1 0x0 KECCAK256 SWAP1 POP SWAP2 SWAP1 POP JUMP JUMPDEST PUSH1 0x0 PUSH1 0x20 PUSH1 0x1F DUP4 ADD DIV SWAP1 POP SWAP2 SWAP1 POP JUMP JUMPDEST PUSH1 0x0 DUP3 DUP3 SHL SWAP1 POP SWAP3 SWAP2 POP POP JUMP JUMPDEST PUSH1 0x0 PUSH1 0x8 DUP4 MUL PUSH2 0x3B1F PUSH32 0xFFFFFFFFFFFFFFFFFFFFFFFFFFFFFFFFFFFFFFFFFFFFFFFFFFFFFFFFFFFFFFFF DUP3 PUSH2 0x3AE2 JUMP JUMPDEST PUSH2 0x3B29 DUP7 DUP4 PUSH2 0x3AE2 JUMP JUMPDEST SWAP6 POP DUP1 NOT DUP5 AND SWAP4 POP DUP1 DUP7 AND DUP5 OR SWAP3 POP POP POP SWAP4 SWAP3 POP POP POP JUMP JUMPDEST PUSH1 0x0 DUP2 SWAP1 POP SWAP2 SWAP1 POP JUMP JUMPDEST PUSH1 0x0 PUSH2 0x3B66 PUSH2 0x3B61 PUSH2 0x3B5C DUP5 PUSH2 0x2E0B JUMP JUMPDEST PUSH2 0x3B41 JUMP JUMPDEST PUSH2 0x2E0B JUMP JUMPDEST SWAP1 POP SWAP2 SWAP1 POP JUMP JUMPDEST PUSH1 0x0 DUP2 SWAP1 POP SWAP2 SWAP1 POP JUMP JUMPDEST PUSH2 0x3B80 DUP4 PUSH2 0x3B4B JUMP JUMPDEST PUSH2 0x3B94 PUSH2 0x3B8C DUP3 PUSH2 0x3B6D JUMP JUMPDEST DUP5 DUP5 SLOAD PUSH2 0x3AEF JUMP JUMPDEST DUP3 SSTORE POP POP POP POP JUMP JUMPDEST PUSH1 0x0 SWAP1 JUMP JUMPDEST PUSH2 0x3BA9 PUSH2 0x3B9C JUMP JUMPDEST PUSH2 0x3BB4 DUP2 DUP5 DUP5 PUSH2 0x3B77 JUMP JUMPDEST POP POP POP JUMP JUMPDEST JUMPDEST DUP2 DUP2 LT ISZERO PUSH2 0x3BD8 JUMPI PUSH2 0x3BCD PUSH1 0x0 DUP3 PUSH2 0x3BA1 JUMP JUMPDEST PUSH1 0x1 DUP2 ADD SWAP1 POP PUSH2 0x3BBA JUMP JUMPDEST POP POP JUMP JUMPDEST PUSH1 0x1F DUP3 GT ISZERO PUSH2 0x3C1D JUMPI PUSH2 0x3BEE DUP2 PUSH2 0x3ABD JUMP JUMPDEST PUSH2 0x3BF7 DUP5 PUSH2 0x3AD2 JUMP JUMPDEST DUP2 ADD PUSH1 0x20 DUP6 LT ISZERO PUSH2 0x3C06 JUMPI DUP2 SWAP1 POP JUMPDEST PUSH2 0x3C1A PUSH2 0x3C12 DUP6 PUSH2 0x3AD2 JUMP JUMPDEST DUP4 ADD DUP3 PUSH2 0x3BB9 JUMP JUMPDEST POP POP JUMPDEST POP POP POP JUMP JUMPDEST PUSH1 0x0 DUP3 DUP3 SHR SWAP1 POP SWAP3 SWAP2 POP POP JUMP JUMPDEST PUSH1 0x0 PUSH2 0x3C40 PUSH1 0x0 NOT DUP5 PUSH1 0x8 MUL PUSH2 0x3C22 JUMP JUMPDEST NOT DUP1 DUP4 AND SWAP2 POP POP SWAP3 SWAP2 POP POP JUMP JUMPDEST PUSH1 0x0 PUSH2 0x3C59 DUP4 DUP4 PUSH2 0x3C2F JUMP JUMPDEST SWAP2 POP DUP3 PUSH1 0x2 MUL DUP3 OR SWAP1 POP SWAP3 SWAP2 POP POP JUMP JUMPDEST PUSH2 0x3C72 DUP3 PUSH2 0x2CE7 JUMP JUMPDEST PUSH8 0xFFFFFFFFFFFFFFFF DUP2 GT ISZERO PUSH2 0x3C8B JUMPI PUSH2 0x3C8A PUSH2 0x2F3E JUMP JUMPDEST JUMPDEST PUSH2 0x3C95 DUP3 SLOAD PUSH2 0x34AE JUMP JUMPDEST PUSH2 0x3CA0 DUP3 DUP3 DUP6 PUSH2 0x3BDC JUMP JUMPDEST PUSH1 0x0 PUSH1 0x20 SWAP1 POP PUSH1 0x1F DUP4 GT PUSH1 0x1 DUP2 EQ PUSH2 0x3CD3 JUMPI PUSH1 0x0 DUP5 ISZERO PUSH2 0x3CC1 JUMPI DUP3 DUP8 ADD MLOAD SWAP1 POP JUMPDEST PUSH2 0x3CCB DUP6 DUP3 PUSH2 0x3C4D JUMP JUMPDEST DUP7 SSTORE POP PUSH2 0x3D33 JUMP JUMPDEST PUSH1 0x1F NOT DUP5 AND PUSH2 0x3CE1 DUP7 PUSH2 0x3ABD JUMP JUMPDEST PUSH1 0x0 JUMPDEST DUP3 DUP2 LT ISZERO PUSH2 0x3D09 JUMPI DUP5 DUP10 ADD MLOAD DUP3 SSTORE PUSH1 0x1 DUP3 ADD SWAP2 POP PUSH1 0x20 DUP6 ADD SWAP5 POP PUSH1 0x20 DUP2 ADD SWAP1 POP PUSH2 0x3CE4 JUMP JUMPDEST DUP7 DUP4 LT ISZERO PUSH2 0x3D26 JUMPI DUP5 DUP10 ADD MLOAD PUSH2 0x3D22 PUSH1 0x1F DUP10 AND DUP3 PUSH2 0x3C2F JUMP JUMPDEST DUP4 SSTORE POP JUMPDEST PUSH1 0x1 PUSH1 0x2 DUP9 MUL ADD DUP9 SSTORE POP POP POP JUMPDEST POP POP POP POP POP POP JUMP JUMPDEST PUSH32 0x4469646E60742066696E64207265717565737465726073206C6F67696E210000 PUSH1 0x0 DUP3 ADD MSTORE POP JUMP JUMPDEST PUSH1 0x0 PUSH2 0x3D71 PUSH1 0x1E DUP4 PUSH2 0x2CF2 JUMP JUMPDEST SWAP2 POP PUSH2 0x3D7C DUP3 PUSH2 0x3D3B JUMP JUMPDEST PUSH1 0x20 DUP3 ADD SWAP1 POP SWAP2 SWAP1 POP JUMP JUMPDEST PUSH1 0x0 PUSH1 0x20 DUP3 ADD SWAP1 POP DUP2 DUP2 SUB PUSH1 0x0 DUP4 ADD MSTORE PUSH2 0x3DA0 DUP2 PUSH2 0x3D64 JUMP JUMPDEST SWAP1 POP SWAP2 SWAP1 POP JUMP JUMPDEST PUSH32 0x45524332303A2064656372656173656420616C6C6F77616E63652062656C6F77 PUSH1 0x0 DUP3 ADD MSTORE PUSH32 0x207A65726F000000000000000000000000000000000000000000000000000000 PUSH1 0x20 DUP3 ADD MSTORE POP JUMP JUMPDEST PUSH1 0x0 PUSH2 0x3E03 PUSH1 0x25 DUP4 PUSH2 0x2CF2 JUMP JUMPDEST SWAP2 POP PUSH2 0x3E0E DUP3 PUSH2 0x3DA7 JUMP JUMPDEST PUSH1 0x40 DUP3 ADD SWAP1 POP SWAP2 SWAP1 POP JUMP JUMPDEST PUSH1 0x0 PUSH1 0x20 DUP3 ADD SWAP1 POP DUP2 DUP2 SUB PUSH1 0x0 DUP4 ADD MSTORE PUSH2 0x3E32 DUP2 PUSH2 0x3DF6 JUMP JUMPDEST SWAP1 POP SWAP2 SWAP1 POP JUMP JUMPDEST PUSH32 0x54686973206C6F67696E20697320627573792100000000000000000000000000 PUSH1 0x0 DUP3 ADD MSTORE POP JUMP JUMPDEST PUSH1 0x0 PUSH2 0x3E6F PUSH1 0x13 DUP4 PUSH2 0x2CF2 JUMP JUMPDEST SWAP2 POP PUSH2 0x3E7A DUP3 PUSH2 0x3E39 JUMP JUMPDEST PUSH1 0x20 DUP3 ADD SWAP1 POP SWAP2 SWAP1 POP JUMP JUMPDEST PUSH1 0x0 PUSH1 0x20 DUP3 ADD SWAP1 POP DUP2 DUP2 SUB PUSH1 0x0 DUP4 ADD MSTORE PUSH2 0x3E9E DUP2 PUSH2 0x3E62 JUMP JUMPDEST SWAP1 POP SWAP2 SWAP1 POP JUMP JUMPDEST PUSH32 0xD0A320D0B2D0B0D18120D0BDD0B5D0B4D0BED181D182D0B0D182D0BED187D0BD PUSH1 0x0 DUP3 ADD MSTORE PUSH32 0xD0BE20D182D0BED0BAD0B5D0BDD0BED0B2210000000000000000000000000000 PUSH1 0x20 DUP3 ADD MSTORE POP JUMP JUMPDEST PUSH1 0x0 PUSH2 0x3F01 PUSH1 0x32 DUP4 PUSH2 0x2CF2 JUMP JUMPDEST SWAP2 POP PUSH2 0x3F0C DUP3 PUSH2 0x3EA5 JUMP JUMPDEST PUSH1 0x40 DUP3 ADD SWAP1 POP SWAP2 SWAP1 POP JUMP JUMPDEST PUSH1 0x0 PUSH1 0x20 DUP3 ADD SWAP1 POP DUP2 DUP2 SUB PUSH1 0x0 DUP4 ADD MSTORE PUSH2 0x3F30 DUP2 PUSH2 0x3EF4 JUMP JUMPDEST SWAP1 POP SWAP2 SWAP1 POP JUMP JUMPDEST PUSH32 0x45524332303A20617070726F76652066726F6D20746865207A65726F20616464 PUSH1 0x0 DUP3 ADD MSTORE PUSH32 0x7265737300000000000000000000000000000000000000000000000000000000 PUSH1 0x20 DUP3 ADD MSTORE POP JUMP JUMPDEST PUSH1 0x0 PUSH2 0x3F93 PUSH1 0x24 DUP4 PUSH2 0x2CF2 JUMP JUMPDEST SWAP2 POP PUSH2 0x3F9E DUP3 PUSH2 0x3F37 JUMP JUMPDEST PUSH1 0x40 DUP3 ADD SWAP1 POP SWAP2 SWAP1 POP JUMP JUMPDEST PUSH1 0x0 PUSH1 0x20 DUP3 ADD SWAP1 POP DUP2 DUP2 SUB PUSH1 0x0 DUP4 ADD MSTORE PUSH2 0x3FC2 DUP2 PUSH2 0x3F86 JUMP JUMPDEST SWAP1 POP SWAP2 SWAP1 POP JUMP JUMPDEST PUSH32 0x45524332303A20617070726F766520746F20746865207A65726F206164647265 PUSH1 0x0 DUP3 ADD MSTORE PUSH32 0x7373000000000000000000000000000000000000000000000000000000000000 PUSH1 0x20 DUP3 ADD MSTORE POP JUMP JUMPDEST PUSH1 0x0 PUSH2 0x4025 PUSH1 0x22 DUP4 PUSH2 0x2CF2 JUMP JUMPDEST SWAP2 POP PUSH2 0x4030 DUP3 PUSH2 0x3FC9 JUMP JUMPDEST PUSH1 0x40 DUP3 ADD SWAP1 POP SWAP2 SWAP1 POP JUMP JUMPDEST PUSH1 0x0 PUSH1 0x20 DUP3 ADD SWAP1 POP DUP2 DUP2 SUB PUSH1 0x0 DUP4 ADD MSTORE PUSH2 0x4054 DUP2 PUSH2 0x4018 JUMP JUMPDEST SWAP1 POP SWAP2 SWAP1 POP JUMP JUMPDEST PUSH1 0x0 PUSH2 0x4066 DUP3 PUSH2 0x2E0B JUMP JUMPDEST SWAP2 POP PUSH2 0x4071 DUP4 PUSH2 0x2E0B JUMP JUMPDEST SWAP3 POP DUP3 DUP3 SUB SWAP1 POP DUP2 DUP2 GT ISZERO PUSH2 0x4089 JUMPI PUSH2 0x4088 PUSH2 0x370E JUMP JUMPDEST JUMPDEST SWAP3 SWAP2 POP POP JUMP JUMPDEST PUSH32 0x45524332303A20696E73756666696369656E7420616C6C6F77616E6365000000 PUSH1 0x0 DUP3 ADD MSTORE POP JUMP JUMPDEST PUSH1 0x0 PUSH2 0x40C5 PUSH1 0x1D DUP4 PUSH2 0x2CF2 JUMP JUMPDEST SWAP2 POP PUSH2 0x40D0 DUP3 PUSH2 0x408F JUMP JUMPDEST PUSH1 0x20 DUP3 ADD SWAP1 POP SWAP2 SWAP1 POP JUMP JUMPDEST PUSH1 0x0 PUSH1 0x20 DUP3 ADD SWAP1 POP DUP2 DUP2 SUB PUSH1 0x0 DUP4 ADD MSTORE PUSH2 0x40F4 DUP2 PUSH2 0x40B8 JUMP JUMPDEST SWAP1 POP SWAP2 SWAP1 POP JUMP JUMPDEST PUSH32 0x45524332303A207472616E736665722066726F6D20746865207A65726F206164 PUSH1 0x0 DUP3 ADD MSTORE PUSH32 0x6472657373000000000000000000000000000000000000000000000000000000 PUSH1 0x20 DUP3 ADD MSTORE POP JUMP JUMPDEST PUSH1 0x0 PUSH2 0x4157 PUSH1 0x25 DUP4 PUSH2 0x2CF2 JUMP JUMPDEST SWAP2 POP PUSH2 0x4162 DUP3 PUSH2 0x40FB JUMP JUMPDEST PUSH1 0x40 DUP3 ADD SWAP1 POP SWAP2 SWAP1 POP JUMP JUMPDEST PUSH1 0x0 PUSH1 0x20 DUP3 ADD SWAP1 POP DUP2 DUP2 SUB PUSH1 0x0 DUP4 ADD MSTORE PUSH2 0x4186 DUP2 PUSH2 0x414A JUMP JUMPDEST SWAP1 POP SWAP2 SWAP1 POP JUMP JUMPDEST PUSH32 0x45524332303A207472616E7366657220746F20746865207A65726F2061646472 PUSH1 0x0 DUP3 ADD MSTORE PUSH32 0x6573730000000000000000000000000000000000000000000000000000000000 PUSH1 0x20 DUP3 ADD MSTORE POP JUMP JUMPDEST PUSH1 0x0 PUSH2 0x41E9 PUSH1 0x23 DUP4 PUSH2 0x2CF2 JUMP JUMPDEST SWAP2 POP PUSH2 0x41F4 DUP3 PUSH2 0x418D JUMP JUMPDEST PUSH1 0x40 DUP3 ADD SWAP1 POP SWAP2 SWAP1 POP JUMP JUMPDEST PUSH1 0x0 PUSH1 0x20 DUP3 ADD SWAP1 POP DUP2 DUP2 SUB PUSH1 0x0 DUP4 ADD MSTORE PUSH2 0x4218 DUP2 PUSH2 0x41DC JUMP JUMPDEST SWAP1 POP SWAP2 SWAP1 POP JUMP JUMPDEST PUSH32 0x45524332303A207472616E7366657220616D6F756E7420657863656564732062 PUSH1 0x0 DUP3 ADD MSTORE PUSH32 0x616C616E63650000000000000000000000000000000000000000000000000000 PUSH1 0x20 DUP3 ADD MSTORE POP JUMP JUMPDEST PUSH1 0x0 PUSH2 0x427B PUSH1 0x26 DUP4 PUSH2 0x2CF2 JUMP JUMPDEST SWAP2 POP PUSH2 0x4286 DUP3 PUSH2 0x421F JUMP JUMPDEST PUSH1 0x40 DUP3 ADD SWAP1 POP SWAP2 SWAP1 POP JUMP JUMPDEST PUSH1 0x0 PUSH1 0x20 DUP3 ADD SWAP1 POP DUP2 DUP2 SUB PUSH1 0x0 DUP4 ADD MSTORE PUSH2 0x42AA DUP2 PUSH2 0x426E JUMP JUMPDEST SWAP1 POP SWAP2 SWAP1 POP JUMP JUMPDEST PUSH32 0xD09DD0B5D0BBD18CD0B7D18F20D0BFD0B5D180D0B5D0B2D0B5D181D182D0B820 PUSH1 0x0 DUP3 ADD MSTORE PUSH32 0xD182D0BED0BAD0B5D0BDD18B20D0BDD0B020D0BDD0B5D181D183D189D0B5D181 PUSH1 0x20 DUP3 ADD MSTORE PUSH32 0xD182D0B2D183D18ED189D0B8D0B920D0B0D0B4D180D0B5D18121000000000000 PUSH1 0x40 DUP3 ADD MSTORE POP JUMP JUMPDEST PUSH1 0x0 PUSH2 0x4333 PUSH1 0x5A DUP4 PUSH2 0x2CF2 JUMP JUMPDEST SWAP2 POP PUSH2 0x433E DUP3 PUSH2 0x42B1 JUMP JUMPDEST PUSH1 0x60 DUP3 ADD SWAP1 POP SWAP2 SWAP1 POP JUMP JUMPDEST PUSH1 0x0 PUSH1 0x20 DUP3 ADD SWAP1 POP DUP2 DUP2 SUB PUSH1 0x0 DUP4 ADD MSTORE PUSH2 0x4362 DUP2 PUSH2 0x4326 JUMP JUMPDEST SWAP1 POP SWAP2 SWAP1 POP JUMP JUMPDEST PUSH32 0xD09DD0B5D0BBD18CD0B7D18F20D0BFD0B5D180D0B5D0B2D0BED0B4D0B8D182D1 PUSH1 0x0 DUP3 ADD MSTORE PUSH32 0x8C20D182D0B0D0BAD0BED0B920D182D0B8D0BF20D182D0BED0BAD0B5D0BDD0BE PUSH1 0x20 DUP3 ADD MSTORE PUSH32 0xD0B2210000000000000000000000000000000000000000000000000000000000 PUSH1 0x40 DUP3 ADD MSTORE POP JUMP JUMPDEST PUSH1 0x0 PUSH2 0x43EB PUSH1 0x43 DUP4 PUSH2 0x2CF2 JUMP JUMPDEST SWAP2 POP PUSH2 0x43F6 DUP3 PUSH2 0x4369 JUMP JUMPDEST PUSH1 0x60 DUP3 ADD SWAP1 POP SWAP2 SWAP1 POP JUMP JUMPDEST PUSH1 0x0 PUSH1 0x20 DUP3 ADD SWAP1 POP DUP2 DUP2 SUB PUSH1 0x0 DUP4 ADD MSTORE PUSH2 0x441A DUP2 PUSH2 0x43DE JUMP JUMPDEST SWAP1 POP SWAP2 SWAP1 POP JUMP JUMPDEST PUSH1 0x0 DUP2 PUSH1 0x1 SHR SWAP1 POP SWAP2 SWAP1 POP JUMP JUMPDEST PUSH1 0x0 DUP1 DUP3 SWAP2 POP DUP4 SWAP1 POP JUMPDEST PUSH1 0x1 DUP6 GT ISZERO PUSH2 0x4478 JUMPI DUP1 DUP7 DIV DUP2 GT ISZERO PUSH2 0x4454 JUMPI PUSH2 0x4453 PUSH2 0x370E JUMP JUMPDEST JUMPDEST PUSH1 0x1 DUP6 AND ISZERO PUSH2 0x4463 JUMPI DUP1 DUP3 MUL SWAP2 POP JUMPDEST DUP1 DUP2 MUL SWAP1 POP PUSH2 0x4471 DUP6 PUSH2 0x4421 JUMP JUMPDEST SWAP5 POP PUSH2 0x4438 JUMP JUMPDEST SWAP5 POP SWAP5 SWAP3 POP POP POP JUMP JUMPDEST PUSH1 0x0 DUP3 PUSH2 0x4491 JUMPI PUSH1 0x1 SWAP1 POP PUSH2 0x454D JUMP JUMPDEST DUP2 PUSH2 0x449F JUMPI PUSH1 0x0 SWAP1 POP PUSH2 0x454D JUMP JUMPDEST DUP2 PUSH1 0x1 DUP2 EQ PUSH2 0x44B5 JUMPI PUSH1 0x2 DUP2 EQ PUSH2 0x44BF JUMPI PUSH2 0x44EE JUMP JUMPDEST PUSH1 0x1 SWAP2 POP POP PUSH2 0x454D JUMP JUMPDEST PUSH1 0xFF DUP5 GT ISZERO PUSH2 0x44D1 JUMPI PUSH2 0x44D0 PUSH2 0x370E JUMP JUMPDEST JUMPDEST DUP4 PUSH1 0x2 EXP SWAP2 POP DUP5 DUP3 GT ISZERO PUSH2 0x44E8 JUMPI PUSH2 0x44E7 PUSH2 0x370E JUMP JUMPDEST JUMPDEST POP PUSH2 0x454D JUMP JUMPDEST POP PUSH1 0x20 DUP4 LT PUSH2 0x133 DUP4 LT AND PUSH1 0x4E DUP5 LT PUSH1 0xB DUP5 LT AND OR ISZERO PUSH2 0x4523 JUMPI DUP3 DUP3 EXP SWAP1 POP DUP4 DUP2 GT ISZERO PUSH2 0x451E JUMPI PUSH2 0x451D PUSH2 0x370E JUMP JUMPDEST JUMPDEST PUSH2 0x454D JUMP JUMPDEST PUSH2 0x4530 DUP5 DUP5 DUP5 PUSH1 0x1 PUSH2 0x442E JUMP JUMPDEST SWAP3 POP SWAP1 POP DUP2 DUP5 DIV DUP2 GT ISZERO PUSH2 0x4547 JUMPI PUSH2 0x4546 PUSH2 0x370E JUMP JUMPDEST JUMPDEST DUP2 DUP2 MUL SWAP1 POP JUMPDEST SWAP4 SWAP3 POP POP POP JUMP JUMPDEST PUSH1 0x0 PUSH2 0x455F DUP3 PUSH2 0x2E0B JUMP JUMPDEST SWAP2 POP PUSH2 0x456A DUP4 PUSH2 0x32BA JUMP JUMPDEST SWAP3 POP PUSH2 0x4597 PUSH32 0xFFFFFFFFFFFFFFFFFFFFFFFFFFFFFFFFFFFFFFFFFFFFFFFFFFFFFFFFFFFFFFFF DUP5 DUP5 PUSH2 0x4481 JUMP JUMPDEST SWAP1 POP SWAP3 SWAP2 POP POP JUMP JUMPDEST PUSH32 0xD09DD0B5D0BBD18CD0B7D18F20D0BFD0BED0BAD183D0BFD0B0D182D18C207365 PUSH1 0x0 DUP3 ADD MSTORE PUSH32 0x656420D182D0BED0BAD0B5D0BDD18B20D0B220D18DD182D18320D184D0B0D0B7 PUSH1 0x20 DUP3 ADD MSTORE PUSH32 0xD183210000000000000000000000000000000000000000000000000000000000 PUSH1 0x40 DUP3 ADD MSTORE POP JUMP JUMPDEST PUSH1 0x0 PUSH2 0x4621 PUSH1 0x43 DUP4 PUSH2 0x2CF2 JUMP JUMPDEST SWAP2 POP PUSH2 0x462C DUP3 PUSH2 0x459F JUMP JUMPDEST PUSH1 0x60 DUP3 ADD SWAP1 POP SWAP2 SWAP1 POP JUMP JUMPDEST PUSH1 0x0 PUSH1 0x20 DUP3 ADD SWAP1 POP DUP2 DUP2 SUB PUSH1 0x0 DUP4 ADD MSTORE PUSH2 0x4650 DUP2 PUSH2 0x4614 JUMP JUMPDEST SWAP1 POP SWAP2 SWAP1 POP JUMP JUMPDEST PUSH32 0xD09DD0B5D0BBD18CD0B7D18F20D0BFD0BED0BAD183D0BFD0B0D182D18C207072 PUSH1 0x0 DUP3 ADD MSTORE PUSH32 0x697661746520D182D0BED0BAD0B5D0BDD18B20D0B220D18DD182D18320D184D0 PUSH1 0x20 DUP3 ADD MSTORE PUSH32 0xB0D0B7D183210000000000000000000000000000000000000000000000000000 PUSH1 0x40 DUP3 ADD MSTORE POP JUMP JUMPDEST PUSH1 0x0 PUSH2 0x46D9 PUSH1 0x46 DUP4 PUSH2 0x2CF2 JUMP JUMPDEST SWAP2 POP PUSH2 0x46E4 DUP3 PUSH2 0x4657 JUMP JUMPDEST PUSH1 0x60 DUP3 ADD SWAP1 POP SWAP2 SWAP1 POP JUMP JUMPDEST PUSH1 0x0 PUSH1 0x20 DUP3 ADD SWAP1 POP DUP2 DUP2 SUB PUSH1 0x0 DUP4 ADD MSTORE PUSH2 0x4708 DUP2 PUSH2 0x46CC JUMP JUMPDEST SWAP1 POP SWAP2 SWAP1 POP JUMP JUMPDEST PUSH32 0xD09DD0B5D0BBD18CD0B7D18F20D0BFD0BED0BAD183D0BFD0B0D182D18C207075 PUSH1 0x0 DUP3 ADD MSTORE PUSH32 0x626C696320D182D0BED0BAD0B5D0BDD18B20D0B220D18DD182D18320D184D0B0 PUSH1 0x20 DUP3 ADD MSTORE PUSH32 0xD0B7D18321000000000000000000000000000000000000000000000000000000 PUSH1 0x40 DUP3 ADD MSTORE POP JUMP JUMPDEST PUSH1 0x0 PUSH2 0x4791 PUSH1 0x45 DUP4 PUSH2 0x2CF2 JUMP JUMPDEST SWAP2 POP PUSH2 0x479C DUP3 PUSH2 0x470F JUMP JUMPDEST PUSH1 0x60 DUP3 ADD SWAP1 POP SWAP2 SWAP1 POP JUMP JUMPDEST PUSH1 0x0 PUSH1 0x20 DUP3 ADD SWAP1 POP DUP2 DUP2 SUB PUSH1 0x0 DUP4 ADD MSTORE PUSH2 0x47C0 DUP2 PUSH2 0x4784 JUMP JUMPDEST SWAP1 POP SWAP2 SWAP1 POP JUMP JUMPDEST PUSH32 0x6F776E6572000000000000000000000000000000000000000000000000000000 PUSH1 0x0 DUP3 ADD MSTORE POP JUMP JUMPDEST PUSH1 0x0 PUSH2 0x47FD PUSH1 0x5 DUP4 PUSH2 0x34DF JUMP JUMPDEST SWAP2 POP PUSH2 0x4808 DUP3 PUSH2 0x47C7 JUMP JUMPDEST PUSH1 0x5 DUP3 ADD SWAP1 POP SWAP2 SWAP1 POP JUMP JUMPDEST PUSH1 0x0 PUSH2 0x481E DUP3 PUSH2 0x47F0 JUMP JUMPDEST SWAP2 POP DUP2 SWAP1 POP SWAP2 SWAP1 POP JUMP JUMPDEST PUSH32 0x4E487B7100000000000000000000000000000000000000000000000000000000 PUSH1 0x0 MSTORE PUSH1 0x51 PUSH1 0x4 MSTORE PUSH1 0x24 PUSH1 0x0 REVERT INVALID LOG2 PUSH5 0x6970667358 0x22 SLT KECCAK256 0xBF 0xFC PUSH11 0x906E5CF7CBD4F18917C1CD 0x2C 0xB0 DUP1 0x2B DUP1 0xBD 0xDB 0xAA 0x4D GASPRICE DUP1 SWAP6 CALLDATASIZE 0xC6 SWAP11 SWAP11 0xAD SWAP11 PUSH5 0x736F6C6343 STOP ADDMOD SLT STOP CALLER "
		},
		"gasEstimates": {
			"creation": {
				"codeDepositCost": "3714600",
				"executionCost": "infinite",
				"totalCost": "infinite"
			},
			"external": {
				"acceptInviteRequests(string,bool)": "infinite",
				"addMinute()": "infinite",
				"allowance(address,address)": "infinite",
				"approve(address,uint256)": "infinite",
				"askForWhitelistInvite()": "infinite",
				"balanceOf(address)": "2952",
				"buyToken(uint256)": "infinite",
				"changeTokenCost(uint8)": "infinite",
				"checkSystemLifeTime()": "infinite",
				"decimals()": "410",
				"decreaseAllowance(address,uint256)": "infinite",
				"giveReward(address,uint8)": "infinite",
				"increaseAllowance(address,uint256)": "infinite",
				"name()": "infinite",
				"signIn(string,string)": "infinite",
				"signUp(string,string)": "infinite",
				"symbol()": "infinite",
				"totalSupply()": "2527",
				"transfer(address,uint256)": "infinite",
				"transferFrom(address,address,uint256)": "infinite"
			},
			"internal": {
				"_makePhaseConditions(enum LaunchSystem.Phases)": "infinite",
				"_resetTime()": "infinite",
				"transfer(address,address,uint256,uint8)": "infinite"
			}
		},
		"methodIdentifiers": {
			"acceptInviteRequests(string,bool)": "a33dc9fa",
			"addMinute()": "e4d69fbd",
			"allowance(address,address)": "dd62ed3e",
			"approve(address,uint256)": "095ea7b3",
			"askForWhitelistInvite()": "9b9aa3eb",
			"balanceOf(address)": "70a08231",
			"buyToken(uint256)": "2d296bf1",
			"changeTokenCost(uint8)": "817c1e07",
			"checkSystemLifeTime()": "0bab8388",
			"decimals()": "313ce567",
			"decreaseAllowance(address,uint256)": "a457c2d7",
			"giveReward(address,uint8)": "da452c04",
			"increaseAllowance(address,uint256)": "39509351",
			"name()": "06fdde03",
			"signIn(string,string)": "2c162dbc",
			"signUp(string,string)": "a469a332",
			"symbol()": "95d89b41",
			"totalSupply()": "18160ddd",
			"transfer(address,uint256)": "a9059cbb",
			"transferFrom(address,address,uint256)": "23b872dd"
		}
	},
	"abi": [
		{
			"inputs": [],
			"stateMutability": "nonpayable",
			"type": "constructor"
		},
		{
			"anonymous": false,
			"inputs": [
				{
					"indexed": true,
					"internalType": "address",
					"name": "owner",
					"type": "address"
				},
				{
					"indexed": true,
					"internalType": "address",
					"name": "spender",
					"type": "address"
				},
				{
					"indexed": false,
					"internalType": "uint256",
					"name": "value",
					"type": "uint256"
				}
			],
			"name": "Approval",
			"type": "event"
		},
		{
			"anonymous": false,
			"inputs": [
				{
					"indexed": true,
					"internalType": "address",
					"name": "from",
					"type": "address"
				},
				{
					"indexed": true,
					"internalType": "address",
					"name": "to",
					"type": "address"
				},
				{
					"indexed": false,
					"internalType": "uint256",
					"name": "value",
					"type": "uint256"
				}
			],
			"name": "Transfer",
			"type": "event"
		},
		{
			"inputs": [
				{
					"internalType": "string",
					"name": "requesterLog",
					"type": "string"
				},
				{
					"internalType": "bool",
					"name": "isAccepted",
					"type": "bool"
				}
			],
			"name": "acceptInviteRequests",
			"outputs": [],
			"stateMutability": "nonpayable",
			"type": "function"
		},
		{
			"inputs": [],
			"name": "addMinute",
			"outputs": [],
			"stateMutability": "nonpayable",
			"type": "function"
		},
		{
			"inputs": [
				{
					"internalType": "address",
					"name": "owner",
					"type": "address"
				},
				{
					"internalType": "address",
					"name": "spender",
					"type": "address"
				}
			],
			"name": "allowance",
			"outputs": [
				{
					"internalType": "uint256",
					"name": "",
					"type": "uint256"
				}
			],
			"stateMutability": "view",
			"type": "function"
		},
		{
			"inputs": [
				{
					"internalType": "address",
					"name": "spender",
					"type": "address"
				},
				{
					"internalType": "uint256",
					"name": "amount",
					"type": "uint256"
				}
			],
			"name": "approve",
			"outputs": [
				{
					"internalType": "bool",
					"name": "",
					"type": "bool"
				}
			],
			"stateMutability": "nonpayable",
			"type": "function"
		},
		{
			"inputs": [],
			"name": "askForWhitelistInvite",
			"outputs": [],
			"stateMutability": "nonpayable",
			"type": "function"
		},
		{
			"inputs": [
				{
					"internalType": "address",
					"name": "account",
					"type": "address"
				}
			],
			"name": "balanceOf",
			"outputs": [
				{
					"internalType": "uint256",
					"name": "",
					"type": "uint256"
				}
			],
			"stateMutability": "view",
			"type": "function"
		},
		{
			"inputs": [
				{
					"internalType": "uint256",
					"name": "amount",
					"type": "uint256"
				}
			],
			"name": "buyToken",
			"outputs": [],
			"stateMutability": "payable",
			"type": "function"
		},
		{
			"inputs": [
				{
					"internalType": "uint8",
					"name": "costWeiValue",
					"type": "uint8"
				}
			],
			"name": "changeTokenCost",
			"outputs": [],
			"stateMutability": "nonpayable",
			"type": "function"
		},
		{
			"inputs": [],
			"name": "checkSystemLifeTime",
			"outputs": [],
			"stateMutability": "nonpayable",
			"type": "function"
		},
		{
			"inputs": [],
			"name": "decimals",
			"outputs": [
				{
					"internalType": "uint8",
					"name": "",
					"type": "uint8"
				}
			],
			"stateMutability": "view",
			"type": "function"
		},
		{
			"inputs": [
				{
					"internalType": "address",
					"name": "spender",
					"type": "address"
				},
				{
					"internalType": "uint256",
					"name": "subtractedValue",
					"type": "uint256"
				}
			],
			"name": "decreaseAllowance",
			"outputs": [
				{
					"internalType": "bool",
					"name": "",
					"type": "bool"
				}
			],
			"stateMutability": "nonpayable",
			"type": "function"
		},
		{
			"inputs": [
				{
					"internalType": "address",
					"name": "_to",
					"type": "address"
				},
				{
					"internalType": "uint8",
					"name": "amount",
					"type": "uint8"
				}
			],
			"name": "giveReward",
			"outputs": [],
			"stateMutability": "nonpayable",
			"type": "function"
		},
		{
			"inputs": [
				{
					"internalType": "address",
					"name": "spender",
					"type": "address"
				},
				{
					"internalType": "uint256",
					"name": "addedValue",
					"type": "uint256"
				}
			],
			"name": "increaseAllowance",
			"outputs": [
				{
					"internalType": "bool",
					"name": "",
					"type": "bool"
				}
			],
			"stateMutability": "nonpayable",
			"type": "function"
		},
		{
			"inputs": [],
			"name": "name",
			"outputs": [
				{
					"internalType": "string",
					"name": "",
					"type": "string"
				}
			],
			"stateMutability": "view",
			"type": "function"
		},
		{
			"inputs": [
				{
					"internalType": "string",
					"name": "login",
					"type": "string"
				},
				{
					"internalType": "string",
					"name": "password",
					"type": "string"
				}
			],
			"name": "signIn",
			"outputs": [
				{
					"components": [
						{
							"internalType": "string",
							"name": "login",
							"type": "string"
						},
						{
							"internalType": "address",
							"name": "wallet",
							"type": "address"
						},
						{
							"internalType": "bool",
							"name": "isInWhitelist",
							"type": "bool"
						},
						{
							"internalType": "uint256",
							"name": "seedBalance",
							"type": "uint256"
						},
						{
							"internalType": "uint256",
							"name": "privateBalance",
							"type": "uint256"
						},
						{
							"internalType": "uint256",
							"name": "publicBalance",
							"type": "uint256"
						},
						{
							"internalType": "enum LaunchSystem.Roles",
							"name": "role",
							"type": "uint8"
						}
					],
					"internalType": "struct LaunchSystem.User",
					"name": "",
					"type": "tuple"
				}
			],
			"stateMutability": "nonpayable",
			"type": "function"
		},
		{
			"inputs": [
				{
					"internalType": "string",
					"name": "login",
					"type": "string"
				},
				{
					"internalType": "string",
					"name": "password",
					"type": "string"
				}
			],
			"name": "signUp",
			"outputs": [],
			"stateMutability": "nonpayable",
			"type": "function"
		},
		{
			"inputs": [],
			"name": "symbol",
			"outputs": [
				{
					"internalType": "string",
					"name": "",
					"type": "string"
				}
			],
			"stateMutability": "view",
			"type": "function"
		},
		{
			"inputs": [],
			"name": "totalSupply",
			"outputs": [
				{
					"internalType": "uint256",
					"name": "",
					"type": "uint256"
				}
			],
			"stateMutability": "view",
			"type": "function"
		},
		{
			"inputs": [
				{
					"internalType": "address",
					"name": "to",
					"type": "address"
				},
				{
					"internalType": "uint256",
					"name": "amount",
					"type": "uint256"
				}
			],
			"name": "transfer",
			"outputs": [
				{
					"internalType": "bool",
					"name": "",
					"type": "bool"
				}
			],
			"stateMutability": "nonpayable",
			"type": "function"
		},
		{
			"inputs": [
				{
					"internalType": "address",
					"name": "from",
					"type": "address"
				},
				{
					"internalType": "address",
					"name": "to",
					"type": "address"
				},
				{
					"internalType": "uint256",
					"name": "amount",
					"type": "uint256"
				}
			],
			"name": "transferFrom",
			"outputs": [
				{
					"internalType": "bool",
					"name": "",
					"type": "bool"
				}
			],
			"stateMutability": "nonpayable",
			"type": "function"
		}
	]
}