{
	"data": {
		"bytecode": {
			"linkReferences": {},
			"object": "608060405242600555426006555f6007553480156200001c575f80fd5b506040518060400160405280600d81526020017f43727970746f4d6f6e73746572000000000000000000000000000000000000008152506040518060400160405280600481526020017f434d4f4e0000000000000000000000000000000000000000000000000000000081525081600390816200009a919062002552565b508060049081620000ac919062002552565b50505062000102735b38da6a701c568545dcfcb03fcb875f56beddc4620000d8620013d760201b60201c565b600a620000e69190620027bf565b62989680620000f691906200280f565b620013df60201b60201c565b6040518060e001604052806040518060400160405280600581526020017f6f776e65720000000000000000000000000000000000000000000000000000008152508152602001735b38da6a701c568545dcfcb03fcb875f56beddc473ffffffffffffffffffffffffffffffffffffffff16815260200160011515815260200162000191620013d760201b60201c565b600a6200019f9190620027bf565b620f4240620001af91906200280f565b8152602001620001c4620013d760201b60201c565b600a620001d29190620027bf565b622dc6c0620001e291906200280f565b8152602001620001f7620013d760201b60201c565b600a620002059190620027bf565b625b8d806200021591906200280f565b815260200160038081111562000230576200022f62002859565b5b815250600b5f735b38da6a701c568545dcfcb03fcb875f56beddc473ffffffffffffffffffffffffffffffffffffffff1673ffffffffffffffffffffffffffffffffffffffff1681526020019081526020015f205f820151815f01908162000299919062002552565b506020820151816001015f6101000a81548173ffffffffffffffffffffffffffffffffffffffff021916908373ffffffffffffffffffffffffffffffffffffffff16021790555060408201518160010160146101000a81548160ff021916908315150217905550606082015181600201556080820151816003015560a0820151816004015560c0820151816005015f6101000a81548160ff021916908360038111156200034b576200034a62002859565b5b02179055509050506040516020016200036490620028e4565b60405160208183030381529060405280519060200120600d6040516200038a906200295c565b908152602001604051809103902081905550735b38da6a701c568545dcfcb03fcb875f56beddc4600c604051620003c1906200295c565b90815260200160405180910390205f6101000a81548173ffffffffffffffffffffffffffffffffffffffff021916908373ffffffffffffffffffffffffffffffffffffffff1602179055506040518060e001604052806040518060400160405280600981526020017f707269762070726f760000000000000000000000000000000000000000000000815250815260200173ab8483f64d9c6d1ecf9b849ae677dd3315835cb273ffffffffffffffffffffffffffffffffffffffff1681526020016001151581526020015f81526020015f81526020015f815260200160016003811115620004b457620004b362002859565b5b815250600b5f73ab8483f64d9c6d1ecf9b849ae677dd3315835cb273ffffffffffffffffffffffffffffffffffffffff1673ffffffffffffffffffffffffffffffffffffffff1681526020019081526020015f205f820151815f0190816200051d919062002552565b506020820151816001015f6101000a81548173ffffffffffffffffffffffffffffffffffffffff021916908373ffffffffffffffffffffffffffffffffffffffff16021790555060408201518160010160146101000a81548160ff021916908315150217905550606082015181600201556080820151816003015560a0820151816004015560c0820151816005015f6101000a81548160ff02191690836003811115620005cf57620005ce62002859565b5b0217905550905050604051602001620005e890620028e4565b60405160208183030381529060405280519060200120600d6040516200060e90620029c0565b90815260200160405180910390208190555073ab8483f64d9c6d1ecf9b849ae677dd3315835cb2600c6040516200064590620029c0565b90815260200160405180910390205f6101000a81548173ffffffffffffffffffffffffffffffffffffffff021916908373ffffffffffffffffffffffffffffffffffffffff1602179055506040518060e001604052806040518060400160405280600881526020017f7075622070726f760000000000000000000000000000000000000000000000008152508152602001734b20993bc481177ec7e8f571cecae8a9e22c02db73ffffffffffffffffffffffffffffffffffffffff1681526020016001151581526020015f81526020015f81526020015f81526020016002600381111562000738576200073762002859565b5b815250600b5f734b20993bc481177ec7e8f571cecae8a9e22c02db73ffffffffffffffffffffffffffffffffffffffff1673ffffffffffffffffffffffffffffffffffffffff1681526020019081526020015f205f820151815f019081620007a1919062002552565b506020820151816001015f6101000a81548173ffffffffffffffffffffffffffffffffffffffff021916908373ffffffffffffffffffffffffffffffffffffffff16021790555060408201518160010160146101000a81548160ff021916908315150217905550606082015181600201556080820151816003015560a0820151816004015560c0820151816005015f6101000a81548160ff0219169083600381111562000853576200085262002859565b5b02179055509050506040516020016200086c90620028e4565b60405160208183030381529060405280519060200120600d604051620008929062002a24565b908152602001604051809103902081905550734b20993bc481177ec7e8f571cecae8a9e22c02db600c604051620008c99062002a24565b90815260200160405180910390205f6101000a81548173ffffffffffffffffffffffffffffffffffffffff021916908373ffffffffffffffffffffffffffffffffffffffff1602179055506040518060e001604052806040518060400160405280600481526020017f696e76310000000000000000000000000000000000000000000000000000000081525081526020017378731d3ca6b7e34ac0f824c42a7cc18a495cabab73ffffffffffffffffffffffffffffffffffffffff168152602001600115158152602001620009a3620013d760201b60201c565b600a620009b19190620027bf565b620493e0620009c191906200280f565b81526020015f81526020015f81526020015f6003811115620009e857620009e762002859565b5b815250600b5f7378731d3ca6b7e34ac0f824c42a7cc18a495cabab73ffffffffffffffffffffffffffffffffffffffff1673ffffffffffffffffffffffffffffffffffffffff1681526020019081526020015f205f820151815f01908162000a51919062002552565b506020820151816001015f6101000a81548173ffffffffffffffffffffffffffffffffffffffff021916908373ffffffffffffffffffffffffffffffffffffffff16021790555060408201518160010160146101000a81548160ff021916908315150217905550606082015181600201556080820151816003015560a0820151816004015560c0820151816005015f6101000a81548160ff0219169083600381111562000b035762000b0262002859565b5b021790555090505060405160200162000b1c90620028e4565b60405160208183030381529060405280519060200120600d6040518060400160405280600481526020017f696e76310000000000000000000000000000000000000000000000000000000081525060405162000b79919062002a9a565b9081526020016040518091039020819055507378731d3ca6b7e34ac0f824c42a7cc18a495cabab600c6040518060400160405280600481526020017f696e76310000000000000000000000000000000000000000000000000000000081525060405162000be7919062002a9a565b90815260200160405180910390205f6101000a81548173ffffffffffffffffffffffffffffffffffffffff021916908373ffffffffffffffffffffffffffffffffffffffff1602179055506040518060e001604052806040518060400160405280600481526020017f696e763200000000000000000000000000000000000000000000000000000000815250815260200173617f2e2fd72fd9d5503197092ac168c91465e7f273ffffffffffffffffffffffffffffffffffffffff16815260200160011515815260200162000cc1620013d760201b60201c565b600a62000ccf9190620027bf565b62061a8062000cdf91906200280f565b81526020015f81526020015f81526020015f600381111562000d065762000d0562002859565b5b815250600b5f73617f2e2fd72fd9d5503197092ac168c91465e7f273ffffffffffffffffffffffffffffffffffffffff1673ffffffffffffffffffffffffffffffffffffffff1681526020019081526020015f205f820151815f01908162000d6f919062002552565b506020820151816001015f6101000a81548173ffffffffffffffffffffffffffffffffffffffff021916908373ffffffffffffffffffffffffffffffffffffffff16021790555060408201518160010160146101000a81548160ff021916908315150217905550606082015181600201556080820151816003015560a0820151816004015560c0820151816005015f6101000a81548160ff0219169083600381111562000e215762000e2062002859565b5b021790555090505060405160200162000e3a90620028e4565b60405160208183030381529060405280519060200120600d60405162000e609062002b00565b90815260200160405180910390208190555073617f2e2fd72fd9d5503197092ac168c91465e7f2600c60405162000e979062002b00565b90815260200160405180910390205f6101000a81548173ffffffffffffffffffffffffffffffffffffffff021916908373ffffffffffffffffffffffffffffffffffffffff1602179055506040518060e001604052806040518060400160405280600681526020017f667269656e64000000000000000000000000000000000000000000000000000081525081526020017317f6ad8ef982297579c203069c1dbffe4348c37273ffffffffffffffffffffffffffffffffffffffff16815260200160011515815260200162000f71620013d760201b60201c565b600a62000f7f9190620027bf565b62030d4062000f8f91906200280f565b81526020015f81526020015f81526020015f600381111562000fb65762000fb562002859565b5b815250600b5f7317f6ad8ef982297579c203069c1dbffe4348c37273ffffffffffffffffffffffffffffffffffffffff1673ffffffffffffffffffffffffffffffffffffffff1681526020019081526020015f205f820151815f0190816200101f919062002552565b506020820151816001015f6101000a81548173ffffffffffffffffffffffffffffffffffffffff021916908373ffffffffffffffffffffffffffffffffffffffff16021790555060408201518160010160146101000a81548160ff021916908315150217905550606082015181600201556080820151816003015560a0820151816004015560c0820151816005015f6101000a81548160ff02191690836003811115620010d157620010d062002859565b5b0217905550905050604051602001620010ea90620028e4565b60405160208183030381529060405280519060200120600d604051620011109062002b64565b9081526020016040518091039020819055507317f6ad8ef982297579c203069c1dbffe4348c372600c604051620011479062002b64565b90815260200160405180910390205f6101000a81548173ffffffffffffffffffffffffffffffffffffffff021916908373ffffffffffffffffffffffffffffffffffffffff160217905550620011a26200154460201b60201c565b506200125d600c604051620011b7906200295c565b90815260200160405180910390205f9054906101000a900473ffffffffffffffffffffffffffffffffffffffff16600c604051620011f59062002bc8565b90815260200160405180910390205f9054906101000a900473ffffffffffffffffffffffffffffffffffffffff1662001233620013d760201b60201c565b600a620012419190620027bf565b620493e06200125191906200280f565b620016a860201b60201c565b62001317600c60405162001271906200295c565b90815260200160405180910390205f9054906101000a900473ffffffffffffffffffffffffffffffffffffffff16600c604051620012af9062002b00565b90815260200160405180910390205f9054906101000a900473ffffffffffffffffffffffffffffffffffffffff16620012ed620013d760201b60201c565b600a620012fb9190620027bf565b62061a806200130b91906200280f565b620016a860201b60201c565b620013d1600c6040516200132b906200295c565b90815260200160405180910390205f9054906101000a900473ffffffffffffffffffffffffffffffffffffffff16600c604051620013699062002b64565b90815260200160405180910390205f9054906101000a900473ffffffffffffffffffffffffffffffffffffffff16620013a7620013d760201b60201c565b600a620013b59190620027bf565b62030d40620013c591906200280f565b620016a860201b60201c565b6200301c565b5f600c905090565b5f73ffffffffffffffffffffffffffffffffffffffff168273ffffffffffffffffffffffffffffffffffffffff160362001450576040517f08c379a0000000000000000000000000000000000000000000000000000000008152600401620014479062002c2c565b60405180910390fd5b620014635f83836200192f60201b60201c565b8060025f82825462001476919062002c4c565b92505081905550805f808473ffffffffffffffffffffffffffffffffffffffff1673ffffffffffffffffffffffffffffffffffffffff1681526020019081526020015f205f82825401925050819055508173ffffffffffffffffffffffffffffffffffffffff165f73ffffffffffffffffffffffffffffffffffffffff167fddf252ad1be2c89b69c2b068fc378daa952ba7f163c4a11628f55a4df523b3ef8360405162001525919062002c97565b60405180910390a3620015405f83836200193460201b60201c565b5050565b5f6007544262001555919062002c4c565b6005819055505f6006546005546200156e919062002cb2565b905061012c8111801562001583575061038481105b8015620015c9575060016002811115620015a257620015a162002859565b5b600a5f9054906101000a900460ff166002811115620015c657620015c562002859565b5b14155b1562001612576001600a5f6101000a81548160ff02191690836002811115620015f757620015f662002859565b5b02179055506200160c6200193960201b60201c565b620016a1565b610384811180156200165c575060028081111562001635576200163462002859565b5b600a5f9054906101000a900460ff16600281111562001659576200165862002859565b5b14155b15620016a0576002600a5f6101000a81548160ff021916908360028111156200168a576200168962002859565b5b02179055506200169f6200193960201b60201c565b5b5b8091505090565b5f73ffffffffffffffffffffffffffffffffffffffff168373ffffffffffffffffffffffffffffffffffffffff160362001719576040517f08c379a0000000000000000000000000000000000000000000000000000000008152600401620017109062002d60565b60405180910390fd5b5f73ffffffffffffffffffffffffffffffffffffffff168273ffffffffffffffffffffffffffffffffffffffff16036200178a576040517f08c379a0000000000000000000000000000000000000000000000000000000008152600401620017819062002df4565b60405180910390fd5b6200179d8383836200192f60201b60201c565b5f805f8573ffffffffffffffffffffffffffffffffffffffff1673ffffffffffffffffffffffffffffffffffffffff1681526020019081526020015f205490508181101562001823576040517f08c379a00000000000000000000000000000000000000000000000000000000081526004016200181a9062002e88565b60405180910390fd5b8181035f808673ffffffffffffffffffffffffffffffffffffffff1673ffffffffffffffffffffffffffffffffffffffff1681526020019081526020015f2081905550815f808573ffffffffffffffffffffffffffffffffffffffff1673ffffffffffffffffffffffffffffffffffffffff1681526020019081526020015f205f82825401925050819055508273ffffffffffffffffffffffffffffffffffffffff168473ffffffffffffffffffffffffffffffffffffffff167fddf252ad1be2c89b69c2b068fc378daa952ba7f163c4a11628f55a4df523b3ef846040516200190e919062002c97565b60405180910390a3620019298484846200193460201b60201c565b50505050565b505050565b505050565b6001600281111562001950576200194f62002859565b5b600a5f9054906101000a900460ff16600281111562001974576200197362002859565b5b0362001c00576602aa1efb94e00060088190555062001998620013d760201b60201c565b600a620019a69190620027bf565b620186a0620019b691906200280f565b600981905550620019cc620013d760201b60201c565b600a620019da9190620027bf565b622dc6c0620019ea91906200280f565b600b5f600c604051620019fd906200295c565b90815260200160405180910390205f9054906101000a900473ffffffffffffffffffffffffffffffffffffffff1673ffffffffffffffffffffffffffffffffffffffff1673ffffffffffffffffffffffffffffffffffffffff1681526020019081526020015f206003015f82825462001a77919062002cb2565b9250508190555062001a8e620013d760201b60201c565b600a62001a9c9190620027bf565b622dc6c062001aac91906200280f565b600b5f600c60405162001abf90620029c0565b90815260200160405180910390205f9054906101000a900473ffffffffffffffffffffffffffffffffffffffff1673ffffffffffffffffffffffffffffffffffffffff1673ffffffffffffffffffffffffffffffffffffffff1681526020019081526020015f206003015f82825462001b39919062002c4c565b9250508190555062001bfa600c60405162001b54906200295c565b90815260200160405180910390205f9054906101000a900473ffffffffffffffffffffffffffffffffffffffff16600c60405162001b9290620029c0565b90815260200160405180910390205f9054906101000a900473ffffffffffffffffffffffffffffffffffffffff1662001bd0620013d760201b60201c565b600a62001bde9190620027bf565b622dc6c062001bee91906200280f565b620016a860201b60201c565b62001fd2565b60028081111562001c165762001c1562002859565b5b600a5f9054906101000a900460ff16600281111562001c3a5762001c3962002859565b5b0362001fd15766038d7ea4c6800060088190555062001c5e620013d760201b60201c565b600a62001c6c9190620027bf565b61138862001c7b91906200280f565b6009819055505f600b5f600c60405162001c9590620029c0565b90815260200160405180910390205f9054906101000a900473ffffffffffffffffffffffffffffffffffffffff1673ffffffffffffffffffffffffffffffffffffffff1673ffffffffffffffffffffffffffffffffffffffff1681526020019081526020015f2060030154905062001d91600c60405162001d1690620029c0565b90815260200160405180910390205f9054906101000a900473ffffffffffffffffffffffffffffffffffffffff16600c60405162001d54906200295c565b90815260200160405180910390205f9054906101000a900473ffffffffffffffffffffffffffffffffffffffff1683600162001fd460201b60201c565b62001da1620013d760201b60201c565b600a62001daf9190620027bf565b625b8d8062001dbf91906200280f565b600b5f600c60405162001dd2906200295c565b90815260200160405180910390205f9054906101000a900473ffffffffffffffffffffffffffffffffffffffff1673ffffffffffffffffffffffffffffffffffffffff1673ffffffffffffffffffffffffffffffffffffffff1681526020019081526020015f206004015f82825462001e4c919062002cb2565b9250508190555062001e63620013d760201b60201c565b600a62001e719190620027bf565b625b8d8062001e8191906200280f565b600b5f600c60405162001e949062002a24565b90815260200160405180910390205f9054906101000a900473ffffffffffffffffffffffffffffffffffffffff1673ffffffffffffffffffffffffffffffffffffffff1673ffffffffffffffffffffffffffffffffffffffff1681526020019081526020015f206004015f82825462001f0e919062002c4c565b9250508190555062001fcf600c60405162001f29906200295c565b90815260200160405180910390205f9054906101000a900473ffffffffffffffffffffffffffffffffffffffff16600c60405162001f679062002a24565b90815260200160405180910390205f9054906101000a900473ffffffffffffffffffffffffffffffffffffffff1662001fa5620013d760201b60201c565b600a62001fb39190620027bf565b625b8d8062001fc391906200280f565b620016a860201b60201c565b505b5b565b5f73ffffffffffffffffffffffffffffffffffffffff168373ffffffffffffffffffffffffffffffffffffffff160362002045576040517f08c379a00000000000000000000000000000000000000000000000000000000081526004016200203c9062002f42565b60405180910390fd5b60028160ff1611156200208f576040517f08c379a0000000000000000000000000000000000000000000000000000000008152600401620020869062002ffc565b60405180910390fd5b5f8160ff1603620021505781600b5f8673ffffffffffffffffffffffffffffffffffffffff1673ffffffffffffffffffffffffffffffffffffffff1681526020019081526020015f206002015f828254620020eb919062002cb2565b9250508190555081600b5f8573ffffffffffffffffffffffffffffffffffffffff1673ffffffffffffffffffffffffffffffffffffffff1681526020019081526020015f206002015f82825462002143919062002c4c565b92505081905550620022e8565b60018160ff1603620022125781600b5f8673ffffffffffffffffffffffffffffffffffffffff1673ffffffffffffffffffffffffffffffffffffffff1681526020019081526020015f206003015f828254620021ad919062002cb2565b9250508190555081600b5f8573ffffffffffffffffffffffffffffffffffffffff1673ffffffffffffffffffffffffffffffffffffffff1681526020019081526020015f206003015f82825462002205919062002c4c565b92505081905550620022c3565b81600b5f8673ffffffffffffffffffffffffffffffffffffffff1673ffffffffffffffffffffffffffffffffffffffff1681526020019081526020015f206004015f82825462002263919062002cb2565b9250508190555081600b5f8573ffffffffffffffffffffffffffffffffffffffff1673ffffffffffffffffffffffffffffffffffffffff1681526020019081526020015f206004015f828254620022bb919062002c4c565b925050819055505b620022d6848484620016a860201b60201c565b620022e66200154460201b60201c565b505b50505050565b5f81519050919050565b7f4e487b71000000000000000000000000000000000000000000000000000000005f52604160045260245ffd5b7f4e487b71000000000000000000000000000000000000000000000000000000005f52602260045260245ffd5b5f60028204905060018216806200236a57607f821691505b60208210810362002380576200237f62002325565b5b50919050565b5f819050815f5260205f209050919050565b5f6020601f8301049050919050565b5f82821b905092915050565b5f60088302620023e47fffffffffffffffffffffffffffffffffffffffffffffffffffffffffffffffff82620023a7565b620023f08683620023a7565b95508019841693508086168417925050509392505050565b5f819050919050565b5f819050919050565b5f6200243a620024346200242e8462002408565b62002411565b62002408565b9050919050565b5f819050919050565b62002455836200241a565b6200246d620024648262002441565b848454620023b3565b825550505050565b5f90565b6200248362002475565b620024908184846200244a565b505050565b5b81811015620024b757620024ab5f8262002479565b60018101905062002496565b5050565b601f8211156200250657620024d08162002386565b620024db8462002398565b81016020851015620024eb578190505b62002503620024fa8562002398565b83018262002495565b50505b505050565b5f82821c905092915050565b5f620025285f19846008026200250b565b1980831691505092915050565b5f62002542838362002517565b9150826002028217905092915050565b6200255d82620022ee565b67ffffffffffffffff811115620025795762002578620022f8565b5b62002585825462002352565b62002592828285620024bb565b5f60209050601f831160018114620025c8575f8415620025b3578287015190505b620025bf858262002535565b8655506200262e565b601f198416620025d88662002386565b5f5b828110156200260157848901518255600182019150602085019450602081019050620025da565b868310156200262157848901516200261d601f89168262002517565b8355505b6001600288020188555050505b505050505050565b7f4e487b71000000000000000000000000000000000000000000000000000000005f52601160045260245ffd5b5f8160011c9050919050565b5f808291508390505b6001851115620026c05780860481111562002698576200269762002636565b5b6001851615620026a85780820291505b8081029050620026b88562002663565b945062002678565b94509492505050565b5f82620026da5760019050620027ac565b81620026e9575f9050620027ac565b81600181146200270257600281146200270d5762002743565b6001915050620027ac565b60ff84111562002722576200272162002636565b5b8360020a9150848211156200273c576200273b62002636565b5b50620027ac565b5060208310610133831016604e8410600b84101617156200277d5782820a90508381111562002777576200277662002636565b5b620027ac565b6200278c84848460016200266f565b92509050818404811115620027a657620027a562002636565b5b81810290505b9392505050565b5f60ff82169050919050565b5f620027cb8262002408565b9150620027d883620027b3565b9250620028077fffffffffffffffffffffffffffffffffffffffffffffffffffffffffffffffff8484620026c9565b905092915050565b5f6200281b8262002408565b9150620028288362002408565b9250828202620028388162002408565b9150828204841483151762002852576200285162002636565b5b5092915050565b7f4e487b71000000000000000000000000000000000000000000000000000000005f52602160045260245ffd5b5f82825260208201905092915050565b7f31323300000000000000000000000000000000000000000000000000000000005f82015250565b5f620028cc60038362002886565b9150620028d98262002896565b602082019050919050565b5f6020820190508181035f830152620028fd81620028be565b9050919050565b5f81905092915050565b7f6f776e65720000000000000000000000000000000000000000000000000000005f82015250565b5f6200294460058362002904565b915062002951826200290e565b600582019050919050565b5f620029688262002936565b9150819050919050565b7f707269762070726f7600000000000000000000000000000000000000000000005f82015250565b5f620029a860098362002904565b9150620029b58262002972565b600982019050919050565b5f620029cc826200299a565b9150819050919050565b7f7075622070726f760000000000000000000000000000000000000000000000005f82015250565b5f62002a0c60088362002904565b915062002a1982620029d6565b600882019050919050565b5f62002a3082620029fe565b9150819050919050565b5f5b8381101562002a5957808201518184015260208101905062002a3c565b5f8484015250505050565b5f62002a7082620022ee565b62002a7c818562002904565b935062002a8e81856020860162002a3a565b80840191505092915050565b5f62002aa7828462002a64565b915081905092915050565b7f696e7632000000000000000000000000000000000000000000000000000000005f82015250565b5f62002ae860048362002904565b915062002af58262002ab2565b600482019050919050565b5f62002b0c8262002ada565b9150819050919050565b7f667269656e6400000000000000000000000000000000000000000000000000005f82015250565b5f62002b4c60068362002904565b915062002b598262002b16565b600682019050919050565b5f62002b708262002b3e565b9150819050919050565b7f696e7631000000000000000000000000000000000000000000000000000000005f82015250565b5f62002bb060048362002904565b915062002bbd8262002b7a565b600482019050919050565b5f62002bd48262002ba2565b9150819050919050565b7f45524332303a206d696e7420746f20746865207a65726f2061646472657373005f82015250565b5f62002c14601f8362002886565b915062002c218262002bde565b602082019050919050565b5f6020820190508181035f83015262002c458162002c06565b9050919050565b5f62002c588262002408565b915062002c658362002408565b925082820190508082111562002c805762002c7f62002636565b5b92915050565b62002c918162002408565b82525050565b5f60208201905062002cac5f83018462002c86565b92915050565b5f62002cbe8262002408565b915062002ccb8362002408565b925082820390508181111562002ce65762002ce562002636565b5b92915050565b7f45524332303a207472616e736665722066726f6d20746865207a65726f2061645f8201527f6472657373000000000000000000000000000000000000000000000000000000602082015250565b5f62002d4860258362002886565b915062002d558262002cec565b604082019050919050565b5f6020820190508181035f83015262002d798162002d3a565b9050919050565b7f45524332303a207472616e7366657220746f20746865207a65726f20616464725f8201527f6573730000000000000000000000000000000000000000000000000000000000602082015250565b5f62002ddc60238362002886565b915062002de98262002d80565b604082019050919050565b5f6020820190508181035f83015262002e0d8162002dce565b9050919050565b7f45524332303a207472616e7366657220616d6f756e74206578636565647320625f8201527f616c616e63650000000000000000000000000000000000000000000000000000602082015250565b5f62002e7060268362002886565b915062002e7d8262002e14565b604082019050919050565b5f6020820190508181035f83015262002ea18162002e62565b9050919050565b7fd09dd0b5d0bbd18cd0b7d18f20d0bfd0b5d180d0b5d0b2d0b5d181d182d0b8205f8201527fd182d0bed0bad0b5d0bdd18b20d0bdd0b020d0bdd0b5d181d183d189d0b5d18160208201527fd182d0b2d183d18ed189d0b8d0b920d0b0d0b4d180d0b5d18121000000000000604082015250565b5f62002f2a605a8362002886565b915062002f378262002ea8565b606082019050919050565b5f6020820190508181035f83015262002f5b8162002f1c565b9050919050565b7fd09dd0b5d0bbd18cd0b7d18f20d0bfd0b5d180d0b5d0b2d0bed0b4d0b8d182d15f8201527f8c20d182d0b0d0bad0bed0b920d182d0b8d0bf20d182d0bed0bad0b5d0bdd0be60208201527fd0b2210000000000000000000000000000000000000000000000000000000000604082015250565b5f62002fe460438362002886565b915062002ff18262002f62565b606082019050919050565b5f6020820190508181035f830152620030158162002fd6565b9050919050565b614548806200302a5f395ff3fe60806040526004361061011e575f3560e01c8063817c1e071161009f578063a469a33211610063578063a469a332146103ca578063a9059cbb146103f2578063da452c041461042e578063dd62ed3e14610456578063e4d69fbd146104925761011e565b8063817c1e07146102fe57806395d89b41146103265780639b9aa3eb14610350578063a33dc9fa14610366578063a457c2d71461038e5761011e565b80632c162dbc116100e65780632c162dbc146102045780632d296bf114610240578063313ce5671461025c578063395093511461028657806370a08231146102c25761011e565b806306fdde0314610122578063095ea7b31461014c5780630bab83881461018857806318160ddd1461019e57806323b872dd146101c8575b5f80fd5b34801561012d575f80fd5b506101366104a8565b6040516101439190612ca0565b60405180910390f35b348015610157575f80fd5b50610172600480360381019061016d9190612d5e565b610538565b60405161017f9190612db6565b60405180910390f35b348015610193575f80fd5b5061019c61055a565b005b3480156101a9575f80fd5b506101b261057a565b6040516101bf9190612dde565b60405180910390f35b3480156101d3575f80fd5b506101ee60048036038101906101e99190612df7565b610583565b6040516101fb9190612db6565b60405180910390f35b34801561020f575f80fd5b5061022a60048036038101906102259190612f73565b6105b1565b604051610237919061316a565b60405180910390f35b61025a6004803603810190610255919061318a565b61082c565b005b348015610267575f80fd5b50610270610ae1565b60405161027d91906131d0565b60405180910390f35b348015610291575f80fd5b506102ac60048036038101906102a79190612d5e565b610ae9565b6040516102b99190612db6565b60405180910390f35b3480156102cd575f80fd5b506102e860048036038101906102e391906131e9565b610b1f565b6040516102f59190612dde565b60405180910390f35b348015610309575f80fd5b50610324600480360381019061031f919061323e565b610b64565b005b348015610331575f80fd5b5061033a610ca6565b6040516103479190612ca0565b60405180910390f35b34801561035b575f80fd5b50610364610d36565b005b348015610371575f80fd5b5061038c60048036038101906103879190613293565b610f60565b005b348015610399575f80fd5b506103b460048036038101906103af9190612d5e565b611505565b6040516103c19190612db6565b60405180910390f35b3480156103d5575f80fd5b506103f060048036038101906103eb9190612f73565b61157a565b005b3480156103fd575f80fd5b5061041860048036038101906104139190612d5e565b61194b565b6040516104259190612db6565b60405180910390f35b348015610439575f80fd5b50610454600480360381019061044f91906132ed565b61196d565b005b348015610461575f80fd5b5061047c6004803603810190610477919061332b565b611ae3565b6040516104899190612dde565b60405180910390f35b34801561049d575f80fd5b506104a6611b65565b005b6060600380546104b790613396565b80601f01602080910402602001604051908101604052809291908181526020018280546104e390613396565b801561052e5780601f106105055761010080835404028352916020019161052e565b820191905f5260205f20905b81548152906001019060200180831161051157829003601f168201915b5050505050905090565b5f80610542611b89565b905061054f818585611b90565b600191505092915050565b5f610563611d53565b905061056e81611e8b565b610576611d53565b5050565b5f600254905090565b5f8061058d611b89565b905061059a858285611f24565b6105a5858585611faf565b60019150509392505050565b6105b9612b53565b816040516020016105ca9190612ca0565b60405160208183030381529060405280519060200120600d846040516105f09190613400565b9081526020016040518091039020541461063f576040517f08c379a000000000000000000000000000000000000000000000000000000000815260040161063690613486565b60405180910390fd5b610647611d53565b50600b5f600c8560405161065b9190613400565b90815260200160405180910390205f9054906101000a900473ffffffffffffffffffffffffffffffffffffffff1673ffffffffffffffffffffffffffffffffffffffff1673ffffffffffffffffffffffffffffffffffffffff1681526020019081526020015f206040518060e00160405290815f820180546106dc90613396565b80601f016020809104026020016040519081016040528092919081815260200182805461070890613396565b80156107535780601f1061072a57610100808354040283529160200191610753565b820191905f5260205f20905b81548152906001019060200180831161073657829003601f168201915b50505050508152602001600182015f9054906101000a900473ffffffffffffffffffffffffffffffffffffffff1673ffffffffffffffffffffffffffffffffffffffff1673ffffffffffffffffffffffffffffffffffffffff1681526020016001820160149054906101000a900460ff16151515158152602001600282015481526020016003820154815260200160048201548152602001600582015f9054906101000a900460ff16600381111561080e5761080d61305e565b5b60038111156108205761081f61305e565b5b81525050905092915050565b5f600281111561083f5761083e61305e565b5b600a5f9054906101000a900460ff1660028111156108605761085f61305e565b5b036108a0576040517f08c379a000000000000000000000000000000000000000000000000000000000815260040161089790613514565b60405180910390fd5b6009548111156108e5576040517f08c379a00000000000000000000000000000000000000000000000000000000081526004016108dc906135ee565b60405180910390fd5b34816008546108f49190613639565b1115610935576040517f08c379a000000000000000000000000000000000000000000000000000000000815260040161092c906136ea565b60405180910390fd5b600160028111156109495761094861305e565b5b600a5f9054906101000a900460ff16600281111561096a5761096961305e565b5b03610a6e5760011515600b5f3373ffffffffffffffffffffffffffffffffffffffff1673ffffffffffffffffffffffffffffffffffffffff1681526020019081526020015f2060010160149054906101000a900460ff16151514610a03576040517f08c379a00000000000000000000000000000000000000000000000000000000081526004016109fa90613778565b60405180910390fd5b610a69600c604051610a14906137e0565b90815260200160405180910390205f9054906101000a900473ffffffffffffffffffffffffffffffffffffffff1633610a4b610ae1565b600a610a579190613923565b84610a629190613639565b600161221b565b610ad5565b610ad4600c604051610a7f906139b7565b90815260200160405180910390205f9054906101000a900473ffffffffffffffffffffffffffffffffffffffff1633610ab6610ae1565b600a610ac29190613923565b84610acd9190613639565b600261221b565b5b610add611d53565b5050565b5f600c905090565b5f80610af3611b89565b9050610b14818585610b058589611ae3565b610b0f91906139cb565b611b90565b600191505092915050565b5f805f8373ffffffffffffffffffffffffffffffffffffffff1673ffffffffffffffffffffffffffffffffffffffff1681526020019081526020015f20549050919050565b6002600b5f3373ffffffffffffffffffffffffffffffffffffffff1673ffffffffffffffffffffffffffffffffffffffff1681526020019081526020015f206005015f9054906101000a900460ff166003811115610bc557610bc461305e565b5b816003811115610bd857610bd761305e565b5b14610c18576040517f08c379a0000000000000000000000000000000000000000000000000000000008152600401610c0f90613a6e565b60405180910390fd5b6002806002811115610c2d57610c2c61305e565b5b600a5f9054906101000a900460ff166002811115610c4e57610c4d61305e565b5b14610c8e576040517f08c379a0000000000000000000000000000000000000000000000000000000008152600401610c8590613b22565b60405180910390fd5b8260ff16600881905550610ca0611d53565b50505050565b606060048054610cb590613396565b80601f0160208091040260200160405190810160405280929190818152602001828054610ce190613396565b8015610d2c5780601f10610d0357610100808354040283529160200191610d2c565b820191905f5260205f20905b815481529060010190602001808311610d0f57829003601f168201915b5050505050905090565b5f806002811115610d4a57610d4961305e565b5b600a5f9054906101000a900460ff166002811115610d6b57610d6a61305e565b5b14610dab576040517f08c379a0000000000000000000000000000000000000000000000000000000008152600401610da290613b22565b60405180910390fd5b6040518060600160405280600b5f3373ffffffffffffffffffffffffffffffffffffffff1673ffffffffffffffffffffffffffffffffffffffff1681526020019081526020015f205f018054610e0090613396565b80601f0160208091040260200160405190810160405280929190818152602001828054610e2c90613396565b8015610e775780601f10610e4e57610100808354040283529160200191610e77565b820191905f5260205f20905b815481529060010190602001808311610e5a57829003601f168201915b505050505081526020013373ffffffffffffffffffffffffffffffffffffffff1681526020015f1515815250600e5f3373ffffffffffffffffffffffffffffffffffffffff1673ffffffffffffffffffffffffffffffffffffffff1681526020019081526020015f205f820151815f019081610ef39190613cdd565b506020820151816001015f6101000a81548173ffffffffffffffffffffffffffffffffffffffff021916908373ffffffffffffffffffffffffffffffffffffffff16021790555060408201518160010160146101000a81548160ff02191690831515021790555090505050565b5f806002811115610f7457610f7361305e565b5b600a5f9054906101000a900460ff166002811115610f9557610f9461305e565b5b14610fd5576040517f08c379a0000000000000000000000000000000000000000000000000000000008152600401610fcc90613b22565b60405180910390fd5b6001600b5f3373ffffffffffffffffffffffffffffffffffffffff1673ffffffffffffffffffffffffffffffffffffffff1681526020019081526020015f206005015f9054906101000a900460ff1660038111156110365761103561305e565b5b8160038111156110495761104861305e565b5b14611089576040517f08c379a000000000000000000000000000000000000000000000000000000000815260040161108090613a6e565b60405180910390fd5b5f73ffffffffffffffffffffffffffffffffffffffff16600c856040516110b09190613400565b90815260200160405180910390205f9054906101000a900473ffffffffffffffffffffffffffffffffffffffff1673ffffffffffffffffffffffffffffffffffffffff1603611134576040517f08c379a000000000000000000000000000000000000000000000000000000000815260040161112b90613e1c565b60405180910390fd5b6001151583151503611408576001600b5f600c876040516111559190613400565b90815260200160405180910390205f9054906101000a900473ffffffffffffffffffffffffffffffffffffffff1673ffffffffffffffffffffffffffffffffffffffff1673ffffffffffffffffffffffffffffffffffffffff1681526020019081526020015f2060010160146101000a81548160ff0219169083151502179055506040518060600160405280858152602001600c866040516111f79190613400565b90815260200160405180910390205f9054906101000a900473ffffffffffffffffffffffffffffffffffffffff1673ffffffffffffffffffffffffffffffffffffffff16815260200160011515815250600f5f600c8760405161125a9190613400565b90815260200160405180910390205f9054906101000a900473ffffffffffffffffffffffffffffffffffffffff1673ffffffffffffffffffffffffffffffffffffffff1673ffffffffffffffffffffffffffffffffffffffff1681526020019081526020015f205f820151815f0190816112d49190613cdd565b506020820151816001015f6101000a81548173ffffffffffffffffffffffffffffffffffffffff021916908373ffffffffffffffffffffffffffffffffffffffff16021790555060408201518160010160146101000a81548160ff021916908315150217905550905050600e5f600c866040516113519190613400565b90815260200160405180910390205f9054906101000a900473ffffffffffffffffffffffffffffffffffffffff1673ffffffffffffffffffffffffffffffffffffffff1673ffffffffffffffffffffffffffffffffffffffff1681526020019081526020015f205f8082015f6113c79190612bb4565b600182015f6101000a81549073ffffffffffffffffffffffffffffffffffffffff02191690556001820160146101000a81549060ff021916905550506114f6565b600b5f600c8660405161141b9190613400565b90815260200160405180910390205f9054906101000a900473ffffffffffffffffffffffffffffffffffffffff1673ffffffffffffffffffffffffffffffffffffffff1673ffffffffffffffffffffffffffffffffffffffff1681526020019081526020015f205f8082015f6114919190612bb4565b600182015f6101000a81549073ffffffffffffffffffffffffffffffffffffffff02191690556001820160146101000a81549060ff0219169055600282015f9055600382015f9055600482015f9055600582015f6101000a81549060ff021916905550505b6114fe611d53565b5050505050565b5f8061150f611b89565b90505f61151c8286611ae3565b905083811015611561576040517f08c379a000000000000000000000000000000000000000000000000000000000815260040161155890613eaa565b60405180910390fd5b61156e8286868403611b90565b60019250505092915050565b5f73ffffffffffffffffffffffffffffffffffffffff16600c836040516115a19190613400565b90815260200160405180910390205f9054906101000a900473ffffffffffffffffffffffffffffffffffffffff1673ffffffffffffffffffffffffffffffffffffffff1614611625576040517f08c379a000000000000000000000000000000000000000000000000000000000815260040161161c90613f12565b60405180910390fd5b5f73ffffffffffffffffffffffffffffffffffffffff16600b5f600c8560405161164f9190613400565b90815260200160405180910390205f9054906101000a900473ffffffffffffffffffffffffffffffffffffffff1673ffffffffffffffffffffffffffffffffffffffff1673ffffffffffffffffffffffffffffffffffffffff1681526020019081526020015f206001015f9054906101000a900473ffffffffffffffffffffffffffffffffffffffff1673ffffffffffffffffffffffffffffffffffffffff16146116f8575f80fd5b33600c836040516117099190613400565b90815260200160405180910390205f6101000a81548173ffffffffffffffffffffffffffffffffffffffff021916908373ffffffffffffffffffffffffffffffffffffffff160217905550806040516020016117659190612ca0565b60405160208183030381529060405280519060200120600d8360405161178b9190613400565b9081526020016040518091039020819055506040518060e001604052808381526020013373ffffffffffffffffffffffffffffffffffffffff1681526020015f151581526020015f81526020015f81526020015f81526020015f60038111156117f7576117f661305e565b5b815250600b5f600c8560405161180d9190613400565b90815260200160405180910390205f9054906101000a900473ffffffffffffffffffffffffffffffffffffffff1673ffffffffffffffffffffffffffffffffffffffff1673ffffffffffffffffffffffffffffffffffffffff1681526020019081526020015f205f820151815f0190816118879190613cdd565b506020820151816001015f6101000a81548173ffffffffffffffffffffffffffffffffffffffff021916908373ffffffffffffffffffffffffffffffffffffffff16021790555060408201518160010160146101000a81548160ff021916908315150217905550606082015181600201556080820151816003015560a0820151816004015560c0820151816005015f6101000a81548160ff021916908360038111156119365761193561305e565b5b0217905550905050611946611d53565b505050565b5f80611955611b89565b9050611962818585611faf565b600191505092915050565b6002600b5f3373ffffffffffffffffffffffffffffffffffffffff1673ffffffffffffffffffffffffffffffffffffffff1681526020019081526020015f206005015f9054906101000a900460ff1660038111156119ce576119cd61305e565b5b8160038111156119e1576119e061305e565b5b14611a21576040517f08c379a0000000000000000000000000000000000000000000000000000000008152600401611a1890613a6e565b60405180910390fd5b8160ff16600b5f3373ffffffffffffffffffffffffffffffffffffffff1673ffffffffffffffffffffffffffffffffffffffff1681526020019081526020015f20600401541015611aa7576040517f08c379a0000000000000000000000000000000000000000000000000000000008152600401611a9e90613fa0565b60405180910390fd5b611ad53384611ab4610ae1565b600a611ac09190613923565b8560ff16611ace9190613639565b600261221b565b611add611d53565b50505050565b5f60015f8473ffffffffffffffffffffffffffffffffffffffff1673ffffffffffffffffffffffffffffffffffffffff1681526020019081526020015f205f8373ffffffffffffffffffffffffffffffffffffffff1673ffffffffffffffffffffffffffffffffffffffff1681526020019081526020015f2054905092915050565b603c60075f828254611b7791906139cb565b92505081905550611b86611d53565b50565b5f33905090565b5f73ffffffffffffffffffffffffffffffffffffffff168373ffffffffffffffffffffffffffffffffffffffff1603611bfe576040517f08c379a0000000000000000000000000000000000000000000000000000000008152600401611bf59061402e565b60405180910390fd5b5f73ffffffffffffffffffffffffffffffffffffffff168273ffffffffffffffffffffffffffffffffffffffff1603611c6c576040517f08c379a0000000000000000000000000000000000000000000000000000000008152600401611c63906140bc565b60405180910390fd5b8060015f8573ffffffffffffffffffffffffffffffffffffffff1673ffffffffffffffffffffffffffffffffffffffff1681526020019081526020015f205f8473ffffffffffffffffffffffffffffffffffffffff1673ffffffffffffffffffffffffffffffffffffffff1681526020019081526020015f20819055508173ffffffffffffffffffffffffffffffffffffffff168373ffffffffffffffffffffffffffffffffffffffff167f8c5be1e5ebec7d5bd14f71427d1e84f3dd0314c0f7b2291e5b200ac8c7c3b92583604051611d469190612dde565b60405180910390a3505050565b5f60075442611d6291906139cb565b6005819055505f600654600554611d7991906140da565b905061012c81118015611d8d575061038481105b8015611dcc575060016002811115611da857611da761305e565b5b600a5f9054906101000a900460ff166002811115611dc957611dc861305e565b5b14155b15611e08576001600a5f6101000a81548160ff02191690836002811115611df657611df561305e565b5b0217905550611e0361250f565b611e84565b61038481118015611e4b5750600280811115611e2757611e2661305e565b5b600a5f9054906101000a900460ff166002811115611e4857611e4761305e565b5b14155b15611e83576002600a5f6101000a81548160ff02191690836002811115611e7557611e7461305e565b5b0217905550611e8261250f565b5b5b8091505090565b611f2181604051602401611e9f9190612dde565b6040516020818303038152906040527ff82c50f1000000000000000000000000000000000000000000000000000000007bffffffffffffffffffffffffffffffffffffffffffffffffffffffff19166020820180517bffffffffffffffffffffffffffffffffffffffffffffffffffffffff8381831617835250505050612b05565b50565b5f611f2f8484611ae3565b90507fffffffffffffffffffffffffffffffffffffffffffffffffffffffffffffffff8114611fa95781811015611f9b576040517f08c379a0000000000000000000000000000000000000000000000000000000008152600401611f9290614157565b60405180910390fd5b611fa88484848403611b90565b5b50505050565b5f73ffffffffffffffffffffffffffffffffffffffff168373ffffffffffffffffffffffffffffffffffffffff160361201d576040517f08c379a0000000000000000000000000000000000000000000000000000000008152600401612014906141e5565b60405180910390fd5b5f73ffffffffffffffffffffffffffffffffffffffff168273ffffffffffffffffffffffffffffffffffffffff160361208b576040517f08c379a000000000000000000000000000000000000000000000000000000000815260040161208290614273565b60405180910390fd5b612096838383612b1f565b5f805f8573ffffffffffffffffffffffffffffffffffffffff1673ffffffffffffffffffffffffffffffffffffffff1681526020019081526020015f2054905081811015612119576040517f08c379a000000000000000000000000000000000000000000000000000000000815260040161211090614301565b60405180910390fd5b8181035f808673ffffffffffffffffffffffffffffffffffffffff1673ffffffffffffffffffffffffffffffffffffffff1681526020019081526020015f2081905550815f808573ffffffffffffffffffffffffffffffffffffffff1673ffffffffffffffffffffffffffffffffffffffff1681526020019081526020015f205f82825401925050819055508273ffffffffffffffffffffffffffffffffffffffff168473ffffffffffffffffffffffffffffffffffffffff167fddf252ad1be2c89b69c2b068fc378daa952ba7f163c4a11628f55a4df523b3ef846040516122029190612dde565b60405180910390a3612215848484612b24565b50505050565b5f73ffffffffffffffffffffffffffffffffffffffff168373ffffffffffffffffffffffffffffffffffffffff1603612289576040517f08c379a0000000000000000000000000000000000000000000000000000000008152600401612280906143b5565b60405180910390fd5b60028160ff1611156122d0576040517f08c379a00000000000000000000000000000000000000000000000000000000081526004016122c790614469565b60405180910390fd5b5f8160ff160361238b5781600b5f8673ffffffffffffffffffffffffffffffffffffffff1673ffffffffffffffffffffffffffffffffffffffff1681526020019081526020015f206002015f82825461232991906140da565b9250508190555081600b5f8573ffffffffffffffffffffffffffffffffffffffff1673ffffffffffffffffffffffffffffffffffffffff1681526020019081526020015f206002015f82825461237f91906139cb565b92505081905550612509565b60018160ff16036124475781600b5f8673ffffffffffffffffffffffffffffffffffffffff1673ffffffffffffffffffffffffffffffffffffffff1681526020019081526020015f206003015f8282546123e591906140da565b9250508190555081600b5f8573ffffffffffffffffffffffffffffffffffffffff1673ffffffffffffffffffffffffffffffffffffffff1681526020019081526020015f206003015f82825461243b91906139cb565b925050819055506124f4565b81600b5f8673ffffffffffffffffffffffffffffffffffffffff1673ffffffffffffffffffffffffffffffffffffffff1681526020019081526020015f206004015f82825461249691906140da565b9250508190555081600b5f8573ffffffffffffffffffffffffffffffffffffffff1673ffffffffffffffffffffffffffffffffffffffff1681526020019081526020015f206004015f8282546124ec91906139cb565b925050819055505b6124ff848484611faf565b612507611d53565b505b50505050565b600160028111156125235761252261305e565b5b600a5f9054906101000a900460ff1660028111156125445761254361305e565b5b0361278a576602aa1efb94e00060088190555061255f610ae1565b600a61256b9190613923565b620186a06125799190613639565b600981905550612587610ae1565b600a6125939190613923565b622dc6c06125a19190613639565b600b5f600c6040516125b2906144d1565b90815260200160405180910390205f9054906101000a900473ffffffffffffffffffffffffffffffffffffffff1673ffffffffffffffffffffffffffffffffffffffff1673ffffffffffffffffffffffffffffffffffffffff1681526020019081526020015f206003015f82825461262a91906140da565b92505081905550612639610ae1565b600a6126459190613923565b622dc6c06126539190613639565b600b5f600c604051612664906137e0565b90815260200160405180910390205f9054906101000a900473ffffffffffffffffffffffffffffffffffffffff1673ffffffffffffffffffffffffffffffffffffffff1673ffffffffffffffffffffffffffffffffffffffff1681526020019081526020015f206003015f8282546126dc91906139cb565b92505081905550612785600c6040516126f4906144d1565b90815260200160405180910390205f9054906101000a900473ffffffffffffffffffffffffffffffffffffffff16600c604051612730906137e0565b90815260200160405180910390205f9054906101000a900473ffffffffffffffffffffffffffffffffffffffff16612766610ae1565b600a6127729190613923565b622dc6c06127809190613639565b611faf565b612b03565b60028081111561279d5761279c61305e565b5b600a5f9054906101000a900460ff1660028111156127be576127bd61305e565b5b03612b025766038d7ea4c680006008819055506127d9610ae1565b600a6127e59190613923565b6113886127f29190613639565b6009819055505f600b5f600c60405161280a906137e0565b90815260200160405180910390205f9054906101000a900473ffffffffffffffffffffffffffffffffffffffff1673ffffffffffffffffffffffffffffffffffffffff1673ffffffffffffffffffffffffffffffffffffffff1681526020019081526020015f206003015490506128fa600c604051612888906137e0565b90815260200160405180910390205f9054906101000a900473ffffffffffffffffffffffffffffffffffffffff16600c6040516128c4906144d1565b90815260200160405180910390205f9054906101000a900473ffffffffffffffffffffffffffffffffffffffff1683600161221b565b612902610ae1565b600a61290e9190613923565b625b8d8061291c9190613639565b600b5f600c60405161292d906144d1565b90815260200160405180910390205f9054906101000a900473ffffffffffffffffffffffffffffffffffffffff1673ffffffffffffffffffffffffffffffffffffffff1673ffffffffffffffffffffffffffffffffffffffff1681526020019081526020015f206004015f8282546129a591906140da565b925050819055506129b4610ae1565b600a6129c09190613923565b625b8d806129ce9190613639565b600b5f600c6040516129df906139b7565b90815260200160405180910390205f9054906101000a900473ffffffffffffffffffffffffffffffffffffffff1673ffffffffffffffffffffffffffffffffffffffff1673ffffffffffffffffffffffffffffffffffffffff1681526020019081526020015f206004015f828254612a5791906139cb565b92505081905550612b00600c604051612a6f906144d1565b90815260200160405180910390205f9054906101000a900473ffffffffffffffffffffffffffffffffffffffff16600c604051612aab906139b7565b90815260200160405180910390205f9054906101000a900473ffffffffffffffffffffffffffffffffffffffff16612ae1610ae1565b600a612aed9190613923565b625b8d80612afb9190613639565b611faf565b505b5b565b612b1c81612b14612b29612b48565b63ffffffff16565b50565b505050565b505050565b5f6a636f6e736f6c652e6c6f6790505f80835160208501845afa505050565b612bf1819050919050565b6040518060e00160405280606081526020015f73ffffffffffffffffffffffffffffffffffffffff1681526020015f151581526020015f81526020015f81526020015f81526020015f6003811115612bae57612bad61305e565b5b81525090565b508054612bc090613396565b5f825580601f10612bd15750612bee565b601f0160209004905f5260205f2090810190612bed9190612bfb565b5b50565b612bf96144e5565b565b5b80821115612c12575f815f905550600101612bfc565b5090565b5f81519050919050565b5f82825260208201905092915050565b5f5b83811015612c4d578082015181840152602081019050612c32565b5f8484015250505050565b5f601f19601f8301169050919050565b5f612c7282612c16565b612c7c8185612c20565b9350612c8c818560208601612c30565b612c9581612c58565b840191505092915050565b5f6020820190508181035f830152612cb88184612c68565b905092915050565b5f604051905090565b5f80fd5b5f80fd5b5f73ffffffffffffffffffffffffffffffffffffffff82169050919050565b5f612cfa82612cd1565b9050919050565b612d0a81612cf0565b8114612d14575f80fd5b50565b5f81359050612d2581612d01565b92915050565b5f819050919050565b612d3d81612d2b565b8114612d47575f80fd5b50565b5f81359050612d5881612d34565b92915050565b5f8060408385031215612d7457612d73612cc9565b5b5f612d8185828601612d17565b9250506020612d9285828601612d4a565b9150509250929050565b5f8115159050919050565b612db081612d9c565b82525050565b5f602082019050612dc95f830184612da7565b92915050565b612dd881612d2b565b82525050565b5f602082019050612df15f830184612dcf565b92915050565b5f805f60608486031215612e0e57612e0d612cc9565b5b5f612e1b86828701612d17565b9350506020612e2c86828701612d17565b9250506040612e3d86828701612d4a565b9150509250925092565b5f80fd5b5f80fd5b7f4e487b71000000000000000000000000000000000000000000000000000000005f52604160045260245ffd5b612e8582612c58565b810181811067ffffffffffffffff82111715612ea457612ea3612e4f565b5b80604052505050565b5f612eb6612cc0565b9050612ec28282612e7c565b919050565b5f67ffffffffffffffff821115612ee157612ee0612e4f565b5b612eea82612c58565b9050602081019050919050565b828183375f83830152505050565b5f612f17612f1284612ec7565b612ead565b905082815260208101848484011115612f3357612f32612e4b565b5b612f3e848285612ef7565b509392505050565b5f82601f830112612f5a57612f59612e47565b5b8135612f6a848260208601612f05565b91505092915050565b5f8060408385031215612f8957612f88612cc9565b5b5f83013567ffffffffffffffff811115612fa657612fa5612ccd565b5b612fb285828601612f46565b925050602083013567ffffffffffffffff811115612fd357612fd2612ccd565b5b612fdf85828601612f46565b9150509250929050565b5f82825260208201905092915050565b5f61300382612c16565b61300d8185612fe9565b935061301d818560208601612c30565b61302681612c58565b840191505092915050565b61303a81612cf0565b82525050565b61304981612d9c565b82525050565b61305881612d2b565b82525050565b7f4e487b71000000000000000000000000000000000000000000000000000000005f52602160045260245ffd5b6004811061309c5761309b61305e565b5b50565b5f8190506130ac8261308b565b919050565b5f6130bb8261309f565b9050919050565b6130cb816130b1565b82525050565b5f60e083015f8301518482035f8601526130eb8282612ff9565b91505060208301516131006020860182613031565b5060408301516131136040860182613040565b506060830151613126606086018261304f565b506080830151613139608086018261304f565b5060a083015161314c60a086018261304f565b5060c083015161315f60c08601826130c2565b508091505092915050565b5f6020820190508181035f83015261318281846130d1565b905092915050565b5f6020828403121561319f5761319e612cc9565b5b5f6131ac84828501612d4a565b91505092915050565b5f60ff82169050919050565b6131ca816131b5565b82525050565b5f6020820190506131e35f8301846131c1565b92915050565b5f602082840312156131fe576131fd612cc9565b5b5f61320b84828501612d17565b91505092915050565b61321d816131b5565b8114613227575f80fd5b50565b5f8135905061323881613214565b92915050565b5f6020828403121561325357613252612cc9565b5b5f6132608482850161322a565b91505092915050565b61327281612d9c565b811461327c575f80fd5b50565b5f8135905061328d81613269565b92915050565b5f80604083850312156132a9576132a8612cc9565b5b5f83013567ffffffffffffffff8111156132c6576132c5612ccd565b5b6132d285828601612f46565b92505060206132e38582860161327f565b9150509250929050565b5f806040838503121561330357613302612cc9565b5b5f61331085828601612d17565b92505060206133218582860161322a565b9150509250929050565b5f806040838503121561334157613340612cc9565b5b5f61334e85828601612d17565b925050602061335f85828601612d17565b9150509250929050565b7f4e487b71000000000000000000000000000000000000000000000000000000005f52602260045260245ffd5b5f60028204905060018216806133ad57607f821691505b6020821081036133c0576133bf613369565b5b50919050565b5f81905092915050565b5f6133da82612c16565b6133e481856133c6565b93506133f4818560208601612c30565b80840191505092915050565b5f61340b82846133d0565b915081905092915050565b7fd09dd0b5d0b2d0b5d180d0bdd18bd0b920d0bbd0bed0b3d0b8d0bd20d0b8d0bb5f8201527fd0b820d0bfd0b0d180d0bed0bbd18c2100000000000000000000000000000000602082015250565b5f613470603083612c20565b915061347b82613416565b604082019050919050565b5f6020820190508181035f83015261349d81613464565b9050919050565b7fd09dd0b5d0bbd18cd0b7d18f20d0bfd0bed0bad183d0bfd0b0d182d18c20d1825f8201527fd0bed0bad0b5d0bdd18b20d0b220d18dd182d18320d184d0b0d0b7d183210000602082015250565b5f6134fe603e83612c20565b9150613509826134a4565b604082019050919050565b5f6020820190508181035f83015261352b816134f2565b9050919050565b7fd09dd0b5d0bbd18cd0b7d18f20d0bfd0b5d180d0b5d0b2d0bed0b4d0b8d182d15f8201527f8c20d0b1d0bed0bbd18cd188d0b52c20d187d0b5d0bc20d0bed180d0b3d0b0d060208201527fbdd0b8d187d0b5d0bdd0bdd0be20d0b4d0b0d0bdd0bdd0bed0b920d184d0b0d060408201527fb7d0bed0b9210000000000000000000000000000000000000000000000000000606082015250565b5f6135d8606683612c20565b91506135e382613532565b608082019050919050565b5f6020820190508181035f830152613605816135cc565b9050919050565b7f4e487b71000000000000000000000000000000000000000000000000000000005f52601160045260245ffd5b5f61364382612d2b565b915061364e83612d2b565b925082820261365c81612d2b565b915082820484148315176136735761367261360c565b5b5092915050565b7fd0a320d0b2d0b0d18120d0bdd0b5d0b4d0bed181d182d0b0d182d0bed187d0bd5f8201527fd0be206574682100000000000000000000000000000000000000000000000000602082015250565b5f6136d4602783612c20565b91506136df8261367a565b604082019050919050565b5f6020820190508181035f830152613701816136c8565b9050919050565b7fd0a1d0b2d0bed0b1d0bed0b4d0bdd0b0d18f20d0bfd180d0bed0b4d0b0d0b6d05f8201527fb020d0b5d189d19120d0bdd0b520d0bdd0b0d187d0b0d0bbd0b0d181d18c2100602082015250565b5f613762603f83612c20565b915061376d82613708565b604082019050919050565b5f6020820190508181035f83015261378f81613756565b9050919050565b7f707269762070726f7600000000000000000000000000000000000000000000005f82015250565b5f6137ca6009836133c6565b91506137d582613796565b600982019050919050565b5f6137ea826137be565b9150819050919050565b5f8160011c9050919050565b5f808291508390505b6001851115613849578086048111156138255761382461360c565b5b60018516156138345780820291505b8081029050613842856137f4565b9450613809565b94509492505050565b5f82613861576001905061391c565b8161386e575f905061391c565b8160018114613884576002811461388e576138bd565b600191505061391c565b60ff8411156138a05761389f61360c565b5b8360020a9150848211156138b7576138b661360c565b5b5061391c565b5060208310610133831016604e8410600b84101617156138f25782820a9050838111156138ed576138ec61360c565b5b61391c565b6138ff8484846001613800565b925090508184048111156139165761391561360c565b5b81810290505b9392505050565b5f61392d82612d2b565b9150613938836131b5565b92506139657fffffffffffffffffffffffffffffffffffffffffffffffffffffffffffffffff8484613852565b905092915050565b7f7075622070726f760000000000000000000000000000000000000000000000005f82015250565b5f6139a16008836133c6565b91506139ac8261396d565b600882019050919050565b5f6139c182613995565b9150819050919050565b5f6139d582612d2b565b91506139e083612d2b565b92508282019050808211156139f8576139f761360c565b5b92915050565b7fd0a320d0b2d0b0d18120d0bdd0b5d18220d0bfd180d0b0d0b22c20d187d182d05f8201527fbed0b120d181d0b4d0b5d0bbd0b0d182d18c20d18dd182d0be21000000000000602082015250565b5f613a58603a83612c20565b9150613a63826139fe565b604082019050919050565b5f6020820190508181035f830152613a8581613a4c565b9050919050565b7fd0add182d0b020d184d0b0d0b7d0b020d0bdd0b520d0bdd0b0d187d0b0d0bbd05f8201527fb0d181d18c2c20d0bbd0b8d0b1d0be20d183d0b6d0b520d0b7d0b0d0bad0bed060208201527fbdd187d0b8d0bbd0b0d181d18c21000000000000000000000000000000000000604082015250565b5f613b0c604e83612c20565b9150613b1782613a8c565b606082019050919050565b5f6020820190508181035f830152613b3981613b00565b9050919050565b5f819050815f5260205f209050919050565b5f6020601f8301049050919050565b5f82821b905092915050565b5f60088302613b9c7fffffffffffffffffffffffffffffffffffffffffffffffffffffffffffffffff82613b61565b613ba68683613b61565b95508019841693508086168417925050509392505050565b5f819050919050565b5f613be1613bdc613bd784612d2b565b613bbe565b612d2b565b9050919050565b5f819050919050565b613bfa83613bc7565b613c0e613c0682613be8565b848454613b6d565b825550505050565b5f90565b613c22613c16565b613c2d818484613bf1565b505050565b5b81811015613c5057613c455f82613c1a565b600181019050613c33565b5050565b601f821115613c9557613c6681613b40565b613c6f84613b52565b81016020851015613c7e578190505b613c92613c8a85613b52565b830182613c32565b50505b505050565b5f82821c905092915050565b5f613cb55f1984600802613c9a565b1980831691505092915050565b5f613ccd8383613ca6565b9150826002028217905092915050565b613ce682612c16565b67ffffffffffffffff811115613cff57613cfe612e4f565b5b613d098254613396565b613d14828285613c54565b5f60209050601f831160018114613d45575f8415613d33578287015190505b613d3d8582613cc2565b865550613da4565b601f198416613d5386613b40565b5f5b82811015613d7a57848901518255600182019150602085019450602081019050613d55565b86831015613d975784890151613d93601f891682613ca6565b8355505b6001600288020188555050505b505050505050565b7fd09fd0bed0bbd18cd0b7d0bed0b2d0b0d182d0b5d0bbd18c20d0bdd0b520d0bd5f8201527fd0b0d188d0b5d0bbd181d18f2100000000000000000000000000000000000000602082015250565b5f613e06602d83612c20565b9150613e1182613dac565b604082019050919050565b5f6020820190508181035f830152613e3381613dfa565b9050919050565b7f45524332303a2064656372656173656420616c6c6f77616e63652062656c6f775f8201527f207a65726f000000000000000000000000000000000000000000000000000000602082015250565b5f613e94602583612c20565b9150613e9f82613e3a565b604082019050919050565b5f6020820190508181035f830152613ec181613e88565b9050919050565b7fd0add182d0bed18220d0bbd0bed0b3d0b8d0bd20d0b7d0b0d0bdd18fd18221005f82015250565b5f613efc601f83612c20565b9150613f0782613ec8565b602082019050919050565b5f6020820190508181035f830152613f2981613ef0565b9050919050565b7fd0a320d0b2d0b0d18120d0bdd0b5d0b4d0bed181d182d0b0d182d0bed187d0bd5f8201527fd0be20d182d0bed0bad0b5d0bdd0bed0b2210000000000000000000000000000602082015250565b5f613f8a603283612c20565b9150613f9582613f30565b604082019050919050565b5f6020820190508181035f830152613fb781613f7e565b9050919050565b7f45524332303a20617070726f76652066726f6d20746865207a65726f206164645f8201527f7265737300000000000000000000000000000000000000000000000000000000602082015250565b5f614018602483612c20565b915061402382613fbe565b604082019050919050565b5f6020820190508181035f8301526140458161400c565b9050919050565b7f45524332303a20617070726f766520746f20746865207a65726f2061646472655f8201527f7373000000000000000000000000000000000000000000000000000000000000602082015250565b5f6140a6602283612c20565b91506140b18261404c565b604082019050919050565b5f6020820190508181035f8301526140d38161409a565b9050919050565b5f6140e482612d2b565b91506140ef83612d2b565b92508282039050818111156141075761410661360c565b5b92915050565b7f45524332303a20696e73756666696369656e7420616c6c6f77616e63650000005f82015250565b5f614141601d83612c20565b915061414c8261410d565b602082019050919050565b5f6020820190508181035f83015261416e81614135565b9050919050565b7f45524332303a207472616e736665722066726f6d20746865207a65726f2061645f8201527f6472657373000000000000000000000000000000000000000000000000000000602082015250565b5f6141cf602583612c20565b91506141da82614175565b604082019050919050565b5f6020820190508181035f8301526141fc816141c3565b9050919050565b7f45524332303a207472616e7366657220746f20746865207a65726f20616464725f8201527f6573730000000000000000000000000000000000000000000000000000000000602082015250565b5f61425d602383612c20565b915061426882614203565b604082019050919050565b5f6020820190508181035f83015261428a81614251565b9050919050565b7f45524332303a207472616e7366657220616d6f756e74206578636565647320625f8201527f616c616e63650000000000000000000000000000000000000000000000000000602082015250565b5f6142eb602683612c20565b91506142f682614291565b604082019050919050565b5f6020820190508181035f830152614318816142df565b9050919050565b7fd09dd0b5d0bbd18cd0b7d18f20d0bfd0b5d180d0b5d0b2d0b5d181d182d0b8205f8201527fd182d0bed0bad0b5d0bdd18b20d0bdd0b020d0bdd0b5d181d183d189d0b5d18160208201527fd182d0b2d183d18ed189d0b8d0b920d0b0d0b4d180d0b5d18121000000000000604082015250565b5f61439f605a83612c20565b91506143aa8261431f565b606082019050919050565b5f6020820190508181035f8301526143cc81614393565b9050919050565b7fd09dd0b5d0bbd18cd0b7d18f20d0bfd0b5d180d0b5d0b2d0bed0b4d0b8d182d15f8201527f8c20d182d0b0d0bad0bed0b920d182d0b8d0bf20d182d0bed0bad0b5d0bdd0be60208201527fd0b2210000000000000000000000000000000000000000000000000000000000604082015250565b5f614453604383612c20565b915061445e826143d3565b606082019050919050565b5f6020820190508181035f83015261448081614447565b9050919050565b7f6f776e65720000000000000000000000000000000000000000000000000000005f82015250565b5f6144bb6005836133c6565b91506144c682614487565b600582019050919050565b5f6144db826144af565b9150819050919050565b7f4e487b71000000000000000000000000000000000000000000000000000000005f52605160045260245ffdfea26469706673582212202045ca4b1adf2fdcc5b6f243229ac6552b9b2a67e786805841b51c64cb80b80e64736f6c63430008160033",
			"opcodes": "PUSH1 0x80 PUSH1 0x40 MSTORE TIMESTAMP PUSH1 0x5 SSTORE TIMESTAMP PUSH1 0x6 SSTORE PUSH0 PUSH1 0x7 SSTORE CALLVALUE DUP1 ISZERO PUSH3 0x1C JUMPI PUSH0 DUP1 REVERT JUMPDEST POP PUSH1 0x40 MLOAD DUP1 PUSH1 0x40 ADD PUSH1 0x40 MSTORE DUP1 PUSH1 0xD DUP2 MSTORE PUSH1 0x20 ADD PUSH32 0x43727970746F4D6F6E7374657200000000000000000000000000000000000000 DUP2 MSTORE POP PUSH1 0x40 MLOAD DUP1 PUSH1 0x40 ADD PUSH1 0x40 MSTORE DUP1 PUSH1 0x4 DUP2 MSTORE PUSH1 0x20 ADD PUSH32 0x434D4F4E00000000000000000000000000000000000000000000000000000000 DUP2 MSTORE POP DUP2 PUSH1 0x3 SWAP1 DUP2 PUSH3 0x9A SWAP2 SWAP1 PUSH3 0x2552 JUMP JUMPDEST POP DUP1 PUSH1 0x4 SWAP1 DUP2 PUSH3 0xAC SWAP2 SWAP1 PUSH3 0x2552 JUMP JUMPDEST POP POP POP PUSH3 0x102 PUSH20 0x5B38DA6A701C568545DCFCB03FCB875F56BEDDC4 PUSH3 0xD8 PUSH3 0x13D7 PUSH1 0x20 SHL PUSH1 0x20 SHR JUMP JUMPDEST PUSH1 0xA PUSH3 0xE6 SWAP2 SWAP1 PUSH3 0x27BF JUMP JUMPDEST PUSH3 0x989680 PUSH3 0xF6 SWAP2 SWAP1 PUSH3 0x280F JUMP JUMPDEST PUSH3 0x13DF PUSH1 0x20 SHL PUSH1 0x20 SHR JUMP JUMPDEST PUSH1 0x40 MLOAD DUP1 PUSH1 0xE0 ADD PUSH1 0x40 MSTORE DUP1 PUSH1 0x40 MLOAD DUP1 PUSH1 0x40 ADD PUSH1 0x40 MSTORE DUP1 PUSH1 0x5 DUP2 MSTORE PUSH1 0x20 ADD PUSH32 0x6F776E6572000000000000000000000000000000000000000000000000000000 DUP2 MSTORE POP DUP2 MSTORE PUSH1 0x20 ADD PUSH20 0x5B38DA6A701C568545DCFCB03FCB875F56BEDDC4 PUSH20 0xFFFFFFFFFFFFFFFFFFFFFFFFFFFFFFFFFFFFFFFF AND DUP2 MSTORE PUSH1 0x20 ADD PUSH1 0x1 ISZERO ISZERO DUP2 MSTORE PUSH1 0x20 ADD PUSH3 0x191 PUSH3 0x13D7 PUSH1 0x20 SHL PUSH1 0x20 SHR JUMP JUMPDEST PUSH1 0xA PUSH3 0x19F SWAP2 SWAP1 PUSH3 0x27BF JUMP JUMPDEST PUSH3 0xF4240 PUSH3 0x1AF SWAP2 SWAP1 PUSH3 0x280F JUMP JUMPDEST DUP2 MSTORE PUSH1 0x20 ADD PUSH3 0x1C4 PUSH3 0x13D7 PUSH1 0x20 SHL PUSH1 0x20 SHR JUMP JUMPDEST PUSH1 0xA PUSH3 0x1D2 SWAP2 SWAP1 PUSH3 0x27BF JUMP JUMPDEST PUSH3 0x2DC6C0 PUSH3 0x1E2 SWAP2 SWAP1 PUSH3 0x280F JUMP JUMPDEST DUP2 MSTORE PUSH1 0x20 ADD PUSH3 0x1F7 PUSH3 0x13D7 PUSH1 0x20 SHL PUSH1 0x20 SHR JUMP JUMPDEST PUSH1 0xA PUSH3 0x205 SWAP2 SWAP1 PUSH3 0x27BF JUMP JUMPDEST PUSH3 0x5B8D80 PUSH3 0x215 SWAP2 SWAP1 PUSH3 0x280F JUMP JUMPDEST DUP2 MSTORE PUSH1 0x20 ADD PUSH1 0x3 DUP1 DUP2 GT ISZERO PUSH3 0x230 JUMPI PUSH3 0x22F PUSH3 0x2859 JUMP JUMPDEST JUMPDEST DUP2 MSTORE POP PUSH1 0xB PUSH0 PUSH20 0x5B38DA6A701C568545DCFCB03FCB875F56BEDDC4 PUSH20 0xFFFFFFFFFFFFFFFFFFFFFFFFFFFFFFFFFFFFFFFF AND PUSH20 0xFFFFFFFFFFFFFFFFFFFFFFFFFFFFFFFFFFFFFFFF AND DUP2 MSTORE PUSH1 0x20 ADD SWAP1 DUP2 MSTORE PUSH1 0x20 ADD PUSH0 KECCAK256 PUSH0 DUP3 ADD MLOAD DUP2 PUSH0 ADD SWAP1 DUP2 PUSH3 0x299 SWAP2 SWAP1 PUSH3 0x2552 JUMP JUMPDEST POP PUSH1 0x20 DUP3 ADD MLOAD DUP2 PUSH1 0x1 ADD PUSH0 PUSH2 0x100 EXP DUP2 SLOAD DUP2 PUSH20 0xFFFFFFFFFFFFFFFFFFFFFFFFFFFFFFFFFFFFFFFF MUL NOT AND SWAP1 DUP4 PUSH20 0xFFFFFFFFFFFFFFFFFFFFFFFFFFFFFFFFFFFFFFFF AND MUL OR SWAP1 SSTORE POP PUSH1 0x40 DUP3 ADD MLOAD DUP2 PUSH1 0x1 ADD PUSH1 0x14 PUSH2 0x100 EXP DUP2 SLOAD DUP2 PUSH1 0xFF MUL NOT AND SWAP1 DUP4 ISZERO ISZERO MUL OR SWAP1 SSTORE POP PUSH1 0x60 DUP3 ADD MLOAD DUP2 PUSH1 0x2 ADD SSTORE PUSH1 0x80 DUP3 ADD MLOAD DUP2 PUSH1 0x3 ADD SSTORE PUSH1 0xA0 DUP3 ADD MLOAD DUP2 PUSH1 0x4 ADD SSTORE PUSH1 0xC0 DUP3 ADD MLOAD DUP2 PUSH1 0x5 ADD PUSH0 PUSH2 0x100 EXP DUP2 SLOAD DUP2 PUSH1 0xFF MUL NOT AND SWAP1 DUP4 PUSH1 0x3 DUP2 GT ISZERO PUSH3 0x34B JUMPI PUSH3 0x34A PUSH3 0x2859 JUMP JUMPDEST JUMPDEST MUL OR SWAP1 SSTORE POP SWAP1 POP POP PUSH1 0x40 MLOAD PUSH1 0x20 ADD PUSH3 0x364 SWAP1 PUSH3 0x28E4 JUMP JUMPDEST PUSH1 0x40 MLOAD PUSH1 0x20 DUP2 DUP4 SUB SUB DUP2 MSTORE SWAP1 PUSH1 0x40 MSTORE DUP1 MLOAD SWAP1 PUSH1 0x20 ADD KECCAK256 PUSH1 0xD PUSH1 0x40 MLOAD PUSH3 0x38A SWAP1 PUSH3 0x295C JUMP JUMPDEST SWAP1 DUP2 MSTORE PUSH1 0x20 ADD PUSH1 0x40 MLOAD DUP1 SWAP2 SUB SWAP1 KECCAK256 DUP2 SWAP1 SSTORE POP PUSH20 0x5B38DA6A701C568545DCFCB03FCB875F56BEDDC4 PUSH1 0xC PUSH1 0x40 MLOAD PUSH3 0x3C1 SWAP1 PUSH3 0x295C JUMP JUMPDEST SWAP1 DUP2 MSTORE PUSH1 0x20 ADD PUSH1 0x40 MLOAD DUP1 SWAP2 SUB SWAP1 KECCAK256 PUSH0 PUSH2 0x100 EXP DUP2 SLOAD DUP2 PUSH20 0xFFFFFFFFFFFFFFFFFFFFFFFFFFFFFFFFFFFFFFFF MUL NOT AND SWAP1 DUP4 PUSH20 0xFFFFFFFFFFFFFFFFFFFFFFFFFFFFFFFFFFFFFFFF AND MUL OR SWAP1 SSTORE POP PUSH1 0x40 MLOAD DUP1 PUSH1 0xE0 ADD PUSH1 0x40 MSTORE DUP1 PUSH1 0x40 MLOAD DUP1 PUSH1 0x40 ADD PUSH1 0x40 MSTORE DUP1 PUSH1 0x9 DUP2 MSTORE PUSH1 0x20 ADD PUSH32 0x707269762070726F760000000000000000000000000000000000000000000000 DUP2 MSTORE POP DUP2 MSTORE PUSH1 0x20 ADD PUSH20 0xAB8483F64D9C6D1ECF9B849AE677DD3315835CB2 PUSH20 0xFFFFFFFFFFFFFFFFFFFFFFFFFFFFFFFFFFFFFFFF AND DUP2 MSTORE PUSH1 0x20 ADD PUSH1 0x1 ISZERO ISZERO DUP2 MSTORE PUSH1 0x20 ADD PUSH0 DUP2 MSTORE PUSH1 0x20 ADD PUSH0 DUP2 MSTORE PUSH1 0x20 ADD PUSH0 DUP2 MSTORE PUSH1 0x20 ADD PUSH1 0x1 PUSH1 0x3 DUP2 GT ISZERO PUSH3 0x4B4 JUMPI PUSH3 0x4B3 PUSH3 0x2859 JUMP JUMPDEST JUMPDEST DUP2 MSTORE POP PUSH1 0xB PUSH0 PUSH20 0xAB8483F64D9C6D1ECF9B849AE677DD3315835CB2 PUSH20 0xFFFFFFFFFFFFFFFFFFFFFFFFFFFFFFFFFFFFFFFF AND PUSH20 0xFFFFFFFFFFFFFFFFFFFFFFFFFFFFFFFFFFFFFFFF AND DUP2 MSTORE PUSH1 0x20 ADD SWAP1 DUP2 MSTORE PUSH1 0x20 ADD PUSH0 KECCAK256 PUSH0 DUP3 ADD MLOAD DUP2 PUSH0 ADD SWAP1 DUP2 PUSH3 0x51D SWAP2 SWAP1 PUSH3 0x2552 JUMP JUMPDEST POP PUSH1 0x20 DUP3 ADD MLOAD DUP2 PUSH1 0x1 ADD PUSH0 PUSH2 0x100 EXP DUP2 SLOAD DUP2 PUSH20 0xFFFFFFFFFFFFFFFFFFFFFFFFFFFFFFFFFFFFFFFF MUL NOT AND SWAP1 DUP4 PUSH20 0xFFFFFFFFFFFFFFFFFFFFFFFFFFFFFFFFFFFFFFFF AND MUL OR SWAP1 SSTORE POP PUSH1 0x40 DUP3 ADD MLOAD DUP2 PUSH1 0x1 ADD PUSH1 0x14 PUSH2 0x100 EXP DUP2 SLOAD DUP2 PUSH1 0xFF MUL NOT AND SWAP1 DUP4 ISZERO ISZERO MUL OR SWAP1 SSTORE POP PUSH1 0x60 DUP3 ADD MLOAD DUP2 PUSH1 0x2 ADD SSTORE PUSH1 0x80 DUP3 ADD MLOAD DUP2 PUSH1 0x3 ADD SSTORE PUSH1 0xA0 DUP3 ADD MLOAD DUP2 PUSH1 0x4 ADD SSTORE PUSH1 0xC0 DUP3 ADD MLOAD DUP2 PUSH1 0x5 ADD PUSH0 PUSH2 0x100 EXP DUP2 SLOAD DUP2 PUSH1 0xFF MUL NOT AND SWAP1 DUP4 PUSH1 0x3 DUP2 GT ISZERO PUSH3 0x5CF JUMPI PUSH3 0x5CE PUSH3 0x2859 JUMP JUMPDEST JUMPDEST MUL OR SWAP1 SSTORE POP SWAP1 POP POP PUSH1 0x40 MLOAD PUSH1 0x20 ADD PUSH3 0x5E8 SWAP1 PUSH3 0x28E4 JUMP JUMPDEST PUSH1 0x40 MLOAD PUSH1 0x20 DUP2 DUP4 SUB SUB DUP2 MSTORE SWAP1 PUSH1 0x40 MSTORE DUP1 MLOAD SWAP1 PUSH1 0x20 ADD KECCAK256 PUSH1 0xD PUSH1 0x40 MLOAD PUSH3 0x60E SWAP1 PUSH3 0x29C0 JUMP JUMPDEST SWAP1 DUP2 MSTORE PUSH1 0x20 ADD PUSH1 0x40 MLOAD DUP1 SWAP2 SUB SWAP1 KECCAK256 DUP2 SWAP1 SSTORE POP PUSH20 0xAB8483F64D9C6D1ECF9B849AE677DD3315835CB2 PUSH1 0xC PUSH1 0x40 MLOAD PUSH3 0x645 SWAP1 PUSH3 0x29C0 JUMP JUMPDEST SWAP1 DUP2 MSTORE PUSH1 0x20 ADD PUSH1 0x40 MLOAD DUP1 SWAP2 SUB SWAP1 KECCAK256 PUSH0 PUSH2 0x100 EXP DUP2 SLOAD DUP2 PUSH20 0xFFFFFFFFFFFFFFFFFFFFFFFFFFFFFFFFFFFFFFFF MUL NOT AND SWAP1 DUP4 PUSH20 0xFFFFFFFFFFFFFFFFFFFFFFFFFFFFFFFFFFFFFFFF AND MUL OR SWAP1 SSTORE POP PUSH1 0x40 MLOAD DUP1 PUSH1 0xE0 ADD PUSH1 0x40 MSTORE DUP1 PUSH1 0x40 MLOAD DUP1 PUSH1 0x40 ADD PUSH1 0x40 MSTORE DUP1 PUSH1 0x8 DUP2 MSTORE PUSH1 0x20 ADD PUSH32 0x7075622070726F76000000000000000000000000000000000000000000000000 DUP2 MSTORE POP DUP2 MSTORE PUSH1 0x20 ADD PUSH20 0x4B20993BC481177EC7E8F571CECAE8A9E22C02DB PUSH20 0xFFFFFFFFFFFFFFFFFFFFFFFFFFFFFFFFFFFFFFFF AND DUP2 MSTORE PUSH1 0x20 ADD PUSH1 0x1 ISZERO ISZERO DUP2 MSTORE PUSH1 0x20 ADD PUSH0 DUP2 MSTORE PUSH1 0x20 ADD PUSH0 DUP2 MSTORE PUSH1 0x20 ADD PUSH0 DUP2 MSTORE PUSH1 0x20 ADD PUSH1 0x2 PUSH1 0x3 DUP2 GT ISZERO PUSH3 0x738 JUMPI PUSH3 0x737 PUSH3 0x2859 JUMP JUMPDEST JUMPDEST DUP2 MSTORE POP PUSH1 0xB PUSH0 PUSH20 0x4B20993BC481177EC7E8F571CECAE8A9E22C02DB PUSH20 0xFFFFFFFFFFFFFFFFFFFFFFFFFFFFFFFFFFFFFFFF AND PUSH20 0xFFFFFFFFFFFFFFFFFFFFFFFFFFFFFFFFFFFFFFFF AND DUP2 MSTORE PUSH1 0x20 ADD SWAP1 DUP2 MSTORE PUSH1 0x20 ADD PUSH0 KECCAK256 PUSH0 DUP3 ADD MLOAD DUP2 PUSH0 ADD SWAP1 DUP2 PUSH3 0x7A1 SWAP2 SWAP1 PUSH3 0x2552 JUMP JUMPDEST POP PUSH1 0x20 DUP3 ADD MLOAD DUP2 PUSH1 0x1 ADD PUSH0 PUSH2 0x100 EXP DUP2 SLOAD DUP2 PUSH20 0xFFFFFFFFFFFFFFFFFFFFFFFFFFFFFFFFFFFFFFFF MUL NOT AND SWAP1 DUP4 PUSH20 0xFFFFFFFFFFFFFFFFFFFFFFFFFFFFFFFFFFFFFFFF AND MUL OR SWAP1 SSTORE POP PUSH1 0x40 DUP3 ADD MLOAD DUP2 PUSH1 0x1 ADD PUSH1 0x14 PUSH2 0x100 EXP DUP2 SLOAD DUP2 PUSH1 0xFF MUL NOT AND SWAP1 DUP4 ISZERO ISZERO MUL OR SWAP1 SSTORE POP PUSH1 0x60 DUP3 ADD MLOAD DUP2 PUSH1 0x2 ADD SSTORE PUSH1 0x80 DUP3 ADD MLOAD DUP2 PUSH1 0x3 ADD SSTORE PUSH1 0xA0 DUP3 ADD MLOAD DUP2 PUSH1 0x4 ADD SSTORE PUSH1 0xC0 DUP3 ADD MLOAD DUP2 PUSH1 0x5 ADD PUSH0 PUSH2 0x100 EXP DUP2 SLOAD DUP2 PUSH1 0xFF MUL NOT AND SWAP1 DUP4 PUSH1 0x3 DUP2 GT ISZERO PUSH3 0x853 JUMPI PUSH3 0x852 PUSH3 0x2859 JUMP JUMPDEST JUMPDEST MUL OR SWAP1 SSTORE POP SWAP1 POP POP PUSH1 0x40 MLOAD PUSH1 0x20 ADD PUSH3 0x86C SWAP1 PUSH3 0x28E4 JUMP JUMPDEST PUSH1 0x40 MLOAD PUSH1 0x20 DUP2 DUP4 SUB SUB DUP2 MSTORE SWAP1 PUSH1 0x40 MSTORE DUP1 MLOAD SWAP1 PUSH1 0x20 ADD KECCAK256 PUSH1 0xD PUSH1 0x40 MLOAD PUSH3 0x892 SWAP1 PUSH3 0x2A24 JUMP JUMPDEST SWAP1 DUP2 MSTORE PUSH1 0x20 ADD PUSH1 0x40 MLOAD DUP1 SWAP2 SUB SWAP1 KECCAK256 DUP2 SWAP1 SSTORE POP PUSH20 0x4B20993BC481177EC7E8F571CECAE8A9E22C02DB PUSH1 0xC PUSH1 0x40 MLOAD PUSH3 0x8C9 SWAP1 PUSH3 0x2A24 JUMP JUMPDEST SWAP1 DUP2 MSTORE PUSH1 0x20 ADD PUSH1 0x40 MLOAD DUP1 SWAP2 SUB SWAP1 KECCAK256 PUSH0 PUSH2 0x100 EXP DUP2 SLOAD DUP2 PUSH20 0xFFFFFFFFFFFFFFFFFFFFFFFFFFFFFFFFFFFFFFFF MUL NOT AND SWAP1 DUP4 PUSH20 0xFFFFFFFFFFFFFFFFFFFFFFFFFFFFFFFFFFFFFFFF AND MUL OR SWAP1 SSTORE POP PUSH1 0x40 MLOAD DUP1 PUSH1 0xE0 ADD PUSH1 0x40 MSTORE DUP1 PUSH1 0x40 MLOAD DUP1 PUSH1 0x40 ADD PUSH1 0x40 MSTORE DUP1 PUSH1 0x4 DUP2 MSTORE PUSH1 0x20 ADD PUSH32 0x696E763100000000000000000000000000000000000000000000000000000000 DUP2 MSTORE POP DUP2 MSTORE PUSH1 0x20 ADD PUSH20 0x78731D3CA6B7E34AC0F824C42A7CC18A495CABAB PUSH20 0xFFFFFFFFFFFFFFFFFFFFFFFFFFFFFFFFFFFFFFFF AND DUP2 MSTORE PUSH1 0x20 ADD PUSH1 0x1 ISZERO ISZERO DUP2 MSTORE PUSH1 0x20 ADD PUSH3 0x9A3 PUSH3 0x13D7 PUSH1 0x20 SHL PUSH1 0x20 SHR JUMP JUMPDEST PUSH1 0xA PUSH3 0x9B1 SWAP2 SWAP1 PUSH3 0x27BF JUMP JUMPDEST PUSH3 0x493E0 PUSH3 0x9C1 SWAP2 SWAP1 PUSH3 0x280F JUMP JUMPDEST DUP2 MSTORE PUSH1 0x20 ADD PUSH0 DUP2 MSTORE PUSH1 0x20 ADD PUSH0 DUP2 MSTORE PUSH1 0x20 ADD PUSH0 PUSH1 0x3 DUP2 GT ISZERO PUSH3 0x9E8 JUMPI PUSH3 0x9E7 PUSH3 0x2859 JUMP JUMPDEST JUMPDEST DUP2 MSTORE POP PUSH1 0xB PUSH0 PUSH20 0x78731D3CA6B7E34AC0F824C42A7CC18A495CABAB PUSH20 0xFFFFFFFFFFFFFFFFFFFFFFFFFFFFFFFFFFFFFFFF AND PUSH20 0xFFFFFFFFFFFFFFFFFFFFFFFFFFFFFFFFFFFFFFFF AND DUP2 MSTORE PUSH1 0x20 ADD SWAP1 DUP2 MSTORE PUSH1 0x20 ADD PUSH0 KECCAK256 PUSH0 DUP3 ADD MLOAD DUP2 PUSH0 ADD SWAP1 DUP2 PUSH3 0xA51 SWAP2 SWAP1 PUSH3 0x2552 JUMP JUMPDEST POP PUSH1 0x20 DUP3 ADD MLOAD DUP2 PUSH1 0x1 ADD PUSH0 PUSH2 0x100 EXP DUP2 SLOAD DUP2 PUSH20 0xFFFFFFFFFFFFFFFFFFFFFFFFFFFFFFFFFFFFFFFF MUL NOT AND SWAP1 DUP4 PUSH20 0xFFFFFFFFFFFFFFFFFFFFFFFFFFFFFFFFFFFFFFFF AND MUL OR SWAP1 SSTORE POP PUSH1 0x40 DUP3 ADD MLOAD DUP2 PUSH1 0x1 ADD PUSH1 0x14 PUSH2 0x100 EXP DUP2 SLOAD DUP2 PUSH1 0xFF MUL NOT AND SWAP1 DUP4 ISZERO ISZERO MUL OR SWAP1 SSTORE POP PUSH1 0x60 DUP3 ADD MLOAD DUP2 PUSH1 0x2 ADD SSTORE PUSH1 0x80 DUP3 ADD MLOAD DUP2 PUSH1 0x3 ADD SSTORE PUSH1 0xA0 DUP3 ADD MLOAD DUP2 PUSH1 0x4 ADD SSTORE PUSH1 0xC0 DUP3 ADD MLOAD DUP2 PUSH1 0x5 ADD PUSH0 PUSH2 0x100 EXP DUP2 SLOAD DUP2 PUSH1 0xFF MUL NOT AND SWAP1 DUP4 PUSH1 0x3 DUP2 GT ISZERO PUSH3 0xB03 JUMPI PUSH3 0xB02 PUSH3 0x2859 JUMP JUMPDEST JUMPDEST MUL OR SWAP1 SSTORE POP SWAP1 POP POP PUSH1 0x40 MLOAD PUSH1 0x20 ADD PUSH3 0xB1C SWAP1 PUSH3 0x28E4 JUMP JUMPDEST PUSH1 0x40 MLOAD PUSH1 0x20 DUP2 DUP4 SUB SUB DUP2 MSTORE SWAP1 PUSH1 0x40 MSTORE DUP1 MLOAD SWAP1 PUSH1 0x20 ADD KECCAK256 PUSH1 0xD PUSH1 0x40 MLOAD DUP1 PUSH1 0x40 ADD PUSH1 0x40 MSTORE DUP1 PUSH1 0x4 DUP2 MSTORE PUSH1 0x20 ADD PUSH32 0x696E763100000000000000000000000000000000000000000000000000000000 DUP2 MSTORE POP PUSH1 0x40 MLOAD PUSH3 0xB79 SWAP2 SWAP1 PUSH3 0x2A9A JUMP JUMPDEST SWAP1 DUP2 MSTORE PUSH1 0x20 ADD PUSH1 0x40 MLOAD DUP1 SWAP2 SUB SWAP1 KECCAK256 DUP2 SWAP1 SSTORE POP PUSH20 0x78731D3CA6B7E34AC0F824C42A7CC18A495CABAB PUSH1 0xC PUSH1 0x40 MLOAD DUP1 PUSH1 0x40 ADD PUSH1 0x40 MSTORE DUP1 PUSH1 0x4 DUP2 MSTORE PUSH1 0x20 ADD PUSH32 0x696E763100000000000000000000000000000000000000000000000000000000 DUP2 MSTORE POP PUSH1 0x40 MLOAD PUSH3 0xBE7 SWAP2 SWAP1 PUSH3 0x2A9A JUMP JUMPDEST SWAP1 DUP2 MSTORE PUSH1 0x20 ADD PUSH1 0x40 MLOAD DUP1 SWAP2 SUB SWAP1 KECCAK256 PUSH0 PUSH2 0x100 EXP DUP2 SLOAD DUP2 PUSH20 0xFFFFFFFFFFFFFFFFFFFFFFFFFFFFFFFFFFFFFFFF MUL NOT AND SWAP1 DUP4 PUSH20 0xFFFFFFFFFFFFFFFFFFFFFFFFFFFFFFFFFFFFFFFF AND MUL OR SWAP1 SSTORE POP PUSH1 0x40 MLOAD DUP1 PUSH1 0xE0 ADD PUSH1 0x40 MSTORE DUP1 PUSH1 0x40 MLOAD DUP1 PUSH1 0x40 ADD PUSH1 0x40 MSTORE DUP1 PUSH1 0x4 DUP2 MSTORE PUSH1 0x20 ADD PUSH32 0x696E763200000000000000000000000000000000000000000000000000000000 DUP2 MSTORE POP DUP2 MSTORE PUSH1 0x20 ADD PUSH20 0x617F2E2FD72FD9D5503197092AC168C91465E7F2 PUSH20 0xFFFFFFFFFFFFFFFFFFFFFFFFFFFFFFFFFFFFFFFF AND DUP2 MSTORE PUSH1 0x20 ADD PUSH1 0x1 ISZERO ISZERO DUP2 MSTORE PUSH1 0x20 ADD PUSH3 0xCC1 PUSH3 0x13D7 PUSH1 0x20 SHL PUSH1 0x20 SHR JUMP JUMPDEST PUSH1 0xA PUSH3 0xCCF SWAP2 SWAP1 PUSH3 0x27BF JUMP JUMPDEST PUSH3 0x61A80 PUSH3 0xCDF SWAP2 SWAP1 PUSH3 0x280F JUMP JUMPDEST DUP2 MSTORE PUSH1 0x20 ADD PUSH0 DUP2 MSTORE PUSH1 0x20 ADD PUSH0 DUP2 MSTORE PUSH1 0x20 ADD PUSH0 PUSH1 0x3 DUP2 GT ISZERO PUSH3 0xD06 JUMPI PUSH3 0xD05 PUSH3 0x2859 JUMP JUMPDEST JUMPDEST DUP2 MSTORE POP PUSH1 0xB PUSH0 PUSH20 0x617F2E2FD72FD9D5503197092AC168C91465E7F2 PUSH20 0xFFFFFFFFFFFFFFFFFFFFFFFFFFFFFFFFFFFFFFFF AND PUSH20 0xFFFFFFFFFFFFFFFFFFFFFFFFFFFFFFFFFFFFFFFF AND DUP2 MSTORE PUSH1 0x20 ADD SWAP1 DUP2 MSTORE PUSH1 0x20 ADD PUSH0 KECCAK256 PUSH0 DUP3 ADD MLOAD DUP2 PUSH0 ADD SWAP1 DUP2 PUSH3 0xD6F SWAP2 SWAP1 PUSH3 0x2552 JUMP JUMPDEST POP PUSH1 0x20 DUP3 ADD MLOAD DUP2 PUSH1 0x1 ADD PUSH0 PUSH2 0x100 EXP DUP2 SLOAD DUP2 PUSH20 0xFFFFFFFFFFFFFFFFFFFFFFFFFFFFFFFFFFFFFFFF MUL NOT AND SWAP1 DUP4 PUSH20 0xFFFFFFFFFFFFFFFFFFFFFFFFFFFFFFFFFFFFFFFF AND MUL OR SWAP1 SSTORE POP PUSH1 0x40 DUP3 ADD MLOAD DUP2 PUSH1 0x1 ADD PUSH1 0x14 PUSH2 0x100 EXP DUP2 SLOAD DUP2 PUSH1 0xFF MUL NOT AND SWAP1 DUP4 ISZERO ISZERO MUL OR SWAP1 SSTORE POP PUSH1 0x60 DUP3 ADD MLOAD DUP2 PUSH1 0x2 ADD SSTORE PUSH1 0x80 DUP3 ADD MLOAD DUP2 PUSH1 0x3 ADD SSTORE PUSH1 0xA0 DUP3 ADD MLOAD DUP2 PUSH1 0x4 ADD SSTORE PUSH1 0xC0 DUP3 ADD MLOAD DUP2 PUSH1 0x5 ADD PUSH0 PUSH2 0x100 EXP DUP2 SLOAD DUP2 PUSH1 0xFF MUL NOT AND SWAP1 DUP4 PUSH1 0x3 DUP2 GT ISZERO PUSH3 0xE21 JUMPI PUSH3 0xE20 PUSH3 0x2859 JUMP JUMPDEST JUMPDEST MUL OR SWAP1 SSTORE POP SWAP1 POP POP PUSH1 0x40 MLOAD PUSH1 0x20 ADD PUSH3 0xE3A SWAP1 PUSH3 0x28E4 JUMP JUMPDEST PUSH1 0x40 MLOAD PUSH1 0x20 DUP2 DUP4 SUB SUB DUP2 MSTORE SWAP1 PUSH1 0x40 MSTORE DUP1 MLOAD SWAP1 PUSH1 0x20 ADD KECCAK256 PUSH1 0xD PUSH1 0x40 MLOAD PUSH3 0xE60 SWAP1 PUSH3 0x2B00 JUMP JUMPDEST SWAP1 DUP2 MSTORE PUSH1 0x20 ADD PUSH1 0x40 MLOAD DUP1 SWAP2 SUB SWAP1 KECCAK256 DUP2 SWAP1 SSTORE POP PUSH20 0x617F2E2FD72FD9D5503197092AC168C91465E7F2 PUSH1 0xC PUSH1 0x40 MLOAD PUSH3 0xE97 SWAP1 PUSH3 0x2B00 JUMP JUMPDEST SWAP1 DUP2 MSTORE PUSH1 0x20 ADD PUSH1 0x40 MLOAD DUP1 SWAP2 SUB SWAP1 KECCAK256 PUSH0 PUSH2 0x100 EXP DUP2 SLOAD DUP2 PUSH20 0xFFFFFFFFFFFFFFFFFFFFFFFFFFFFFFFFFFFFFFFF MUL NOT AND SWAP1 DUP4 PUSH20 0xFFFFFFFFFFFFFFFFFFFFFFFFFFFFFFFFFFFFFFFF AND MUL OR SWAP1 SSTORE POP PUSH1 0x40 MLOAD DUP1 PUSH1 0xE0 ADD PUSH1 0x40 MSTORE DUP1 PUSH1 0x40 MLOAD DUP1 PUSH1 0x40 ADD PUSH1 0x40 MSTORE DUP1 PUSH1 0x6 DUP2 MSTORE PUSH1 0x20 ADD PUSH32 0x667269656E640000000000000000000000000000000000000000000000000000 DUP2 MSTORE POP DUP2 MSTORE PUSH1 0x20 ADD PUSH20 0x17F6AD8EF982297579C203069C1DBFFE4348C372 PUSH20 0xFFFFFFFFFFFFFFFFFFFFFFFFFFFFFFFFFFFFFFFF AND DUP2 MSTORE PUSH1 0x20 ADD PUSH1 0x1 ISZERO ISZERO DUP2 MSTORE PUSH1 0x20 ADD PUSH3 0xF71 PUSH3 0x13D7 PUSH1 0x20 SHL PUSH1 0x20 SHR JUMP JUMPDEST PUSH1 0xA PUSH3 0xF7F SWAP2 SWAP1 PUSH3 0x27BF JUMP JUMPDEST PUSH3 0x30D40 PUSH3 0xF8F SWAP2 SWAP1 PUSH3 0x280F JUMP JUMPDEST DUP2 MSTORE PUSH1 0x20 ADD PUSH0 DUP2 MSTORE PUSH1 0x20 ADD PUSH0 DUP2 MSTORE PUSH1 0x20 ADD PUSH0 PUSH1 0x3 DUP2 GT ISZERO PUSH3 0xFB6 JUMPI PUSH3 0xFB5 PUSH3 0x2859 JUMP JUMPDEST JUMPDEST DUP2 MSTORE POP PUSH1 0xB PUSH0 PUSH20 0x17F6AD8EF982297579C203069C1DBFFE4348C372 PUSH20 0xFFFFFFFFFFFFFFFFFFFFFFFFFFFFFFFFFFFFFFFF AND PUSH20 0xFFFFFFFFFFFFFFFFFFFFFFFFFFFFFFFFFFFFFFFF AND DUP2 MSTORE PUSH1 0x20 ADD SWAP1 DUP2 MSTORE PUSH1 0x20 ADD PUSH0 KECCAK256 PUSH0 DUP3 ADD MLOAD DUP2 PUSH0 ADD SWAP1 DUP2 PUSH3 0x101F SWAP2 SWAP1 PUSH3 0x2552 JUMP JUMPDEST POP PUSH1 0x20 DUP3 ADD MLOAD DUP2 PUSH1 0x1 ADD PUSH0 PUSH2 0x100 EXP DUP2 SLOAD DUP2 PUSH20 0xFFFFFFFFFFFFFFFFFFFFFFFFFFFFFFFFFFFFFFFF MUL NOT AND SWAP1 DUP4 PUSH20 0xFFFFFFFFFFFFFFFFFFFFFFFFFFFFFFFFFFFFFFFF AND MUL OR SWAP1 SSTORE POP PUSH1 0x40 DUP3 ADD MLOAD DUP2 PUSH1 0x1 ADD PUSH1 0x14 PUSH2 0x100 EXP DUP2 SLOAD DUP2 PUSH1 0xFF MUL NOT AND SWAP1 DUP4 ISZERO ISZERO MUL OR SWAP1 SSTORE POP PUSH1 0x60 DUP3 ADD MLOAD DUP2 PUSH1 0x2 ADD SSTORE PUSH1 0x80 DUP3 ADD MLOAD DUP2 PUSH1 0x3 ADD SSTORE PUSH1 0xA0 DUP3 ADD MLOAD DUP2 PUSH1 0x4 ADD SSTORE PUSH1 0xC0 DUP3 ADD MLOAD DUP2 PUSH1 0x5 ADD PUSH0 PUSH2 0x100 EXP DUP2 SLOAD DUP2 PUSH1 0xFF MUL NOT AND SWAP1 DUP4 PUSH1 0x3 DUP2 GT ISZERO PUSH3 0x10D1 JUMPI PUSH3 0x10D0 PUSH3 0x2859 JUMP JUMPDEST JUMPDEST MUL OR SWAP1 SSTORE POP SWAP1 POP POP PUSH1 0x40 MLOAD PUSH1 0x20 ADD PUSH3 0x10EA SWAP1 PUSH3 0x28E4 JUMP JUMPDEST PUSH1 0x40 MLOAD PUSH1 0x20 DUP2 DUP4 SUB SUB DUP2 MSTORE SWAP1 PUSH1 0x40 MSTORE DUP1 MLOAD SWAP1 PUSH1 0x20 ADD KECCAK256 PUSH1 0xD PUSH1 0x40 MLOAD PUSH3 0x1110 SWAP1 PUSH3 0x2B64 JUMP JUMPDEST SWAP1 DUP2 MSTORE PUSH1 0x20 ADD PUSH1 0x40 MLOAD DUP1 SWAP2 SUB SWAP1 KECCAK256 DUP2 SWAP1 SSTORE POP PUSH20 0x17F6AD8EF982297579C203069C1DBFFE4348C372 PUSH1 0xC PUSH1 0x40 MLOAD PUSH3 0x1147 SWAP1 PUSH3 0x2B64 JUMP JUMPDEST SWAP1 DUP2 MSTORE PUSH1 0x20 ADD PUSH1 0x40 MLOAD DUP1 SWAP2 SUB SWAP1 KECCAK256 PUSH0 PUSH2 0x100 EXP DUP2 SLOAD DUP2 PUSH20 0xFFFFFFFFFFFFFFFFFFFFFFFFFFFFFFFFFFFFFFFF MUL NOT AND SWAP1 DUP4 PUSH20 0xFFFFFFFFFFFFFFFFFFFFFFFFFFFFFFFFFFFFFFFF AND MUL OR SWAP1 SSTORE POP PUSH3 0x11A2 PUSH3 0x1544 PUSH1 0x20 SHL PUSH1 0x20 SHR JUMP JUMPDEST POP PUSH3 0x125D PUSH1 0xC PUSH1 0x40 MLOAD PUSH3 0x11B7 SWAP1 PUSH3 0x295C JUMP JUMPDEST SWAP1 DUP2 MSTORE PUSH1 0x20 ADD PUSH1 0x40 MLOAD DUP1 SWAP2 SUB SWAP1 KECCAK256 PUSH0 SWAP1 SLOAD SWAP1 PUSH2 0x100 EXP SWAP1 DIV PUSH20 0xFFFFFFFFFFFFFFFFFFFFFFFFFFFFFFFFFFFFFFFF AND PUSH1 0xC PUSH1 0x40 MLOAD PUSH3 0x11F5 SWAP1 PUSH3 0x2BC8 JUMP JUMPDEST SWAP1 DUP2 MSTORE PUSH1 0x20 ADD PUSH1 0x40 MLOAD DUP1 SWAP2 SUB SWAP1 KECCAK256 PUSH0 SWAP1 SLOAD SWAP1 PUSH2 0x100 EXP SWAP1 DIV PUSH20 0xFFFFFFFFFFFFFFFFFFFFFFFFFFFFFFFFFFFFFFFF AND PUSH3 0x1233 PUSH3 0x13D7 PUSH1 0x20 SHL PUSH1 0x20 SHR JUMP JUMPDEST PUSH1 0xA PUSH3 0x1241 SWAP2 SWAP1 PUSH3 0x27BF JUMP JUMPDEST PUSH3 0x493E0 PUSH3 0x1251 SWAP2 SWAP1 PUSH3 0x280F JUMP JUMPDEST PUSH3 0x16A8 PUSH1 0x20 SHL PUSH1 0x20 SHR JUMP JUMPDEST PUSH3 0x1317 PUSH1 0xC PUSH1 0x40 MLOAD PUSH3 0x1271 SWAP1 PUSH3 0x295C JUMP JUMPDEST SWAP1 DUP2 MSTORE PUSH1 0x20 ADD PUSH1 0x40 MLOAD DUP1 SWAP2 SUB SWAP1 KECCAK256 PUSH0 SWAP1 SLOAD SWAP1 PUSH2 0x100 EXP SWAP1 DIV PUSH20 0xFFFFFFFFFFFFFFFFFFFFFFFFFFFFFFFFFFFFFFFF AND PUSH1 0xC PUSH1 0x40 MLOAD PUSH3 0x12AF SWAP1 PUSH3 0x2B00 JUMP JUMPDEST SWAP1 DUP2 MSTORE PUSH1 0x20 ADD PUSH1 0x40 MLOAD DUP1 SWAP2 SUB SWAP1 KECCAK256 PUSH0 SWAP1 SLOAD SWAP1 PUSH2 0x100 EXP SWAP1 DIV PUSH20 0xFFFFFFFFFFFFFFFFFFFFFFFFFFFFFFFFFFFFFFFF AND PUSH3 0x12ED PUSH3 0x13D7 PUSH1 0x20 SHL PUSH1 0x20 SHR JUMP JUMPDEST PUSH1 0xA PUSH3 0x12FB SWAP2 SWAP1 PUSH3 0x27BF JUMP JUMPDEST PUSH3 0x61A80 PUSH3 0x130B SWAP2 SWAP1 PUSH3 0x280F JUMP JUMPDEST PUSH3 0x16A8 PUSH1 0x20 SHL PUSH1 0x20 SHR JUMP JUMPDEST PUSH3 0x13D1 PUSH1 0xC PUSH1 0x40 MLOAD PUSH3 0x132B SWAP1 PUSH3 0x295C JUMP JUMPDEST SWAP1 DUP2 MSTORE PUSH1 0x20 ADD PUSH1 0x40 MLOAD DUP1 SWAP2 SUB SWAP1 KECCAK256 PUSH0 SWAP1 SLOAD SWAP1 PUSH2 0x100 EXP SWAP1 DIV PUSH20 0xFFFFFFFFFFFFFFFFFFFFFFFFFFFFFFFFFFFFFFFF AND PUSH1 0xC PUSH1 0x40 MLOAD PUSH3 0x1369 SWAP1 PUSH3 0x2B64 JUMP JUMPDEST SWAP1 DUP2 MSTORE PUSH1 0x20 ADD PUSH1 0x40 MLOAD DUP1 SWAP2 SUB SWAP1 KECCAK256 PUSH0 SWAP1 SLOAD SWAP1 PUSH2 0x100 EXP SWAP1 DIV PUSH20 0xFFFFFFFFFFFFFFFFFFFFFFFFFFFFFFFFFFFFFFFF AND PUSH3 0x13A7 PUSH3 0x13D7 PUSH1 0x20 SHL PUSH1 0x20 SHR JUMP JUMPDEST PUSH1 0xA PUSH3 0x13B5 SWAP2 SWAP1 PUSH3 0x27BF JUMP JUMPDEST PUSH3 0x30D40 PUSH3 0x13C5 SWAP2 SWAP1 PUSH3 0x280F JUMP JUMPDEST PUSH3 0x16A8 PUSH1 0x20 SHL PUSH1 0x20 SHR JUMP JUMPDEST PUSH3 0x301C JUMP JUMPDEST PUSH0 PUSH1 0xC SWAP1 POP SWAP1 JUMP JUMPDEST PUSH0 PUSH20 0xFFFFFFFFFFFFFFFFFFFFFFFFFFFFFFFFFFFFFFFF AND DUP3 PUSH20 0xFFFFFFFFFFFFFFFFFFFFFFFFFFFFFFFFFFFFFFFF AND SUB PUSH3 0x1450 JUMPI PUSH1 0x40 MLOAD PUSH32 0x8C379A000000000000000000000000000000000000000000000000000000000 DUP2 MSTORE PUSH1 0x4 ADD PUSH3 0x1447 SWAP1 PUSH3 0x2C2C JUMP JUMPDEST PUSH1 0x40 MLOAD DUP1 SWAP2 SUB SWAP1 REVERT JUMPDEST PUSH3 0x1463 PUSH0 DUP4 DUP4 PUSH3 0x192F PUSH1 0x20 SHL PUSH1 0x20 SHR JUMP JUMPDEST DUP1 PUSH1 0x2 PUSH0 DUP3 DUP3 SLOAD PUSH3 0x1476 SWAP2 SWAP1 PUSH3 0x2C4C JUMP JUMPDEST SWAP3 POP POP DUP2 SWAP1 SSTORE POP DUP1 PUSH0 DUP1 DUP5 PUSH20 0xFFFFFFFFFFFFFFFFFFFFFFFFFFFFFFFFFFFFFFFF AND PUSH20 0xFFFFFFFFFFFFFFFFFFFFFFFFFFFFFFFFFFFFFFFF AND DUP2 MSTORE PUSH1 0x20 ADD SWAP1 DUP2 MSTORE PUSH1 0x20 ADD PUSH0 KECCAK256 PUSH0 DUP3 DUP3 SLOAD ADD SWAP3 POP POP DUP2 SWAP1 SSTORE POP DUP2 PUSH20 0xFFFFFFFFFFFFFFFFFFFFFFFFFFFFFFFFFFFFFFFF AND PUSH0 PUSH20 0xFFFFFFFFFFFFFFFFFFFFFFFFFFFFFFFFFFFFFFFF AND PUSH32 0xDDF252AD1BE2C89B69C2B068FC378DAA952BA7F163C4A11628F55A4DF523B3EF DUP4 PUSH1 0x40 MLOAD PUSH3 0x1525 SWAP2 SWAP1 PUSH3 0x2C97 JUMP JUMPDEST PUSH1 0x40 MLOAD DUP1 SWAP2 SUB SWAP1 LOG3 PUSH3 0x1540 PUSH0 DUP4 DUP4 PUSH3 0x1934 PUSH1 0x20 SHL PUSH1 0x20 SHR JUMP JUMPDEST POP POP JUMP JUMPDEST PUSH0 PUSH1 0x7 SLOAD TIMESTAMP PUSH3 0x1555 SWAP2 SWAP1 PUSH3 0x2C4C JUMP JUMPDEST PUSH1 0x5 DUP2 SWAP1 SSTORE POP PUSH0 PUSH1 0x6 SLOAD PUSH1 0x5 SLOAD PUSH3 0x156E SWAP2 SWAP1 PUSH3 0x2CB2 JUMP JUMPDEST SWAP1 POP PUSH2 0x12C DUP2 GT DUP1 ISZERO PUSH3 0x1583 JUMPI POP PUSH2 0x384 DUP2 LT JUMPDEST DUP1 ISZERO PUSH3 0x15C9 JUMPI POP PUSH1 0x1 PUSH1 0x2 DUP2 GT ISZERO PUSH3 0x15A2 JUMPI PUSH3 0x15A1 PUSH3 0x2859 JUMP JUMPDEST JUMPDEST PUSH1 0xA PUSH0 SWAP1 SLOAD SWAP1 PUSH2 0x100 EXP SWAP1 DIV PUSH1 0xFF AND PUSH1 0x2 DUP2 GT ISZERO PUSH3 0x15C6 JUMPI PUSH3 0x15C5 PUSH3 0x2859 JUMP JUMPDEST JUMPDEST EQ ISZERO JUMPDEST ISZERO PUSH3 0x1612 JUMPI PUSH1 0x1 PUSH1 0xA PUSH0 PUSH2 0x100 EXP DUP2 SLOAD DUP2 PUSH1 0xFF MUL NOT AND SWAP1 DUP4 PUSH1 0x2 DUP2 GT ISZERO PUSH3 0x15F7 JUMPI PUSH3 0x15F6 PUSH3 0x2859 JUMP JUMPDEST JUMPDEST MUL OR SWAP1 SSTORE POP PUSH3 0x160C PUSH3 0x1939 PUSH1 0x20 SHL PUSH1 0x20 SHR JUMP JUMPDEST PUSH3 0x16A1 JUMP JUMPDEST PUSH2 0x384 DUP2 GT DUP1 ISZERO PUSH3 0x165C JUMPI POP PUSH1 0x2 DUP1 DUP2 GT ISZERO PUSH3 0x1635 JUMPI PUSH3 0x1634 PUSH3 0x2859 JUMP JUMPDEST JUMPDEST PUSH1 0xA PUSH0 SWAP1 SLOAD SWAP1 PUSH2 0x100 EXP SWAP1 DIV PUSH1 0xFF AND PUSH1 0x2 DUP2 GT ISZERO PUSH3 0x1659 JUMPI PUSH3 0x1658 PUSH3 0x2859 JUMP JUMPDEST JUMPDEST EQ ISZERO JUMPDEST ISZERO PUSH3 0x16A0 JUMPI PUSH1 0x2 PUSH1 0xA PUSH0 PUSH2 0x100 EXP DUP2 SLOAD DUP2 PUSH1 0xFF MUL NOT AND SWAP1 DUP4 PUSH1 0x2 DUP2 GT ISZERO PUSH3 0x168A JUMPI PUSH3 0x1689 PUSH3 0x2859 JUMP JUMPDEST JUMPDEST MUL OR SWAP1 SSTORE POP PUSH3 0x169F PUSH3 0x1939 PUSH1 0x20 SHL PUSH1 0x20 SHR JUMP JUMPDEST JUMPDEST JUMPDEST DUP1 SWAP2 POP POP SWAP1 JUMP JUMPDEST PUSH0 PUSH20 0xFFFFFFFFFFFFFFFFFFFFFFFFFFFFFFFFFFFFFFFF AND DUP4 PUSH20 0xFFFFFFFFFFFFFFFFFFFFFFFFFFFFFFFFFFFFFFFF AND SUB PUSH3 0x1719 JUMPI PUSH1 0x40 MLOAD PUSH32 0x8C379A000000000000000000000000000000000000000000000000000000000 DUP2 MSTORE PUSH1 0x4 ADD PUSH3 0x1710 SWAP1 PUSH3 0x2D60 JUMP JUMPDEST PUSH1 0x40 MLOAD DUP1 SWAP2 SUB SWAP1 REVERT JUMPDEST PUSH0 PUSH20 0xFFFFFFFFFFFFFFFFFFFFFFFFFFFFFFFFFFFFFFFF AND DUP3 PUSH20 0xFFFFFFFFFFFFFFFFFFFFFFFFFFFFFFFFFFFFFFFF AND SUB PUSH3 0x178A JUMPI PUSH1 0x40 MLOAD PUSH32 0x8C379A000000000000000000000000000000000000000000000000000000000 DUP2 MSTORE PUSH1 0x4 ADD PUSH3 0x1781 SWAP1 PUSH3 0x2DF4 JUMP JUMPDEST PUSH1 0x40 MLOAD DUP1 SWAP2 SUB SWAP1 REVERT JUMPDEST PUSH3 0x179D DUP4 DUP4 DUP4 PUSH3 0x192F PUSH1 0x20 SHL PUSH1 0x20 SHR JUMP JUMPDEST PUSH0 DUP1 PUSH0 DUP6 PUSH20 0xFFFFFFFFFFFFFFFFFFFFFFFFFFFFFFFFFFFFFFFF AND PUSH20 0xFFFFFFFFFFFFFFFFFFFFFFFFFFFFFFFFFFFFFFFF AND DUP2 MSTORE PUSH1 0x20 ADD SWAP1 DUP2 MSTORE PUSH1 0x20 ADD PUSH0 KECCAK256 SLOAD SWAP1 POP DUP2 DUP2 LT ISZERO PUSH3 0x1823 JUMPI PUSH1 0x40 MLOAD PUSH32 0x8C379A000000000000000000000000000000000000000000000000000000000 DUP2 MSTORE PUSH1 0x4 ADD PUSH3 0x181A SWAP1 PUSH3 0x2E88 JUMP JUMPDEST PUSH1 0x40 MLOAD DUP1 SWAP2 SUB SWAP1 REVERT JUMPDEST DUP2 DUP2 SUB PUSH0 DUP1 DUP7 PUSH20 0xFFFFFFFFFFFFFFFFFFFFFFFFFFFFFFFFFFFFFFFF AND PUSH20 0xFFFFFFFFFFFFFFFFFFFFFFFFFFFFFFFFFFFFFFFF AND DUP2 MSTORE PUSH1 0x20 ADD SWAP1 DUP2 MSTORE PUSH1 0x20 ADD PUSH0 KECCAK256 DUP2 SWAP1 SSTORE POP DUP2 PUSH0 DUP1 DUP6 PUSH20 0xFFFFFFFFFFFFFFFFFFFFFFFFFFFFFFFFFFFFFFFF AND PUSH20 0xFFFFFFFFFFFFFFFFFFFFFFFFFFFFFFFFFFFFFFFF AND DUP2 MSTORE PUSH1 0x20 ADD SWAP1 DUP2 MSTORE PUSH1 0x20 ADD PUSH0 KECCAK256 PUSH0 DUP3 DUP3 SLOAD ADD SWAP3 POP POP DUP2 SWAP1 SSTORE POP DUP3 PUSH20 0xFFFFFFFFFFFFFFFFFFFFFFFFFFFFFFFFFFFFFFFF AND DUP5 PUSH20 0xFFFFFFFFFFFFFFFFFFFFFFFFFFFFFFFFFFFFFFFF AND PUSH32 0xDDF252AD1BE2C89B69C2B068FC378DAA952BA7F163C4A11628F55A4DF523B3EF DUP5 PUSH1 0x40 MLOAD PUSH3 0x190E SWAP2 SWAP1 PUSH3 0x2C97 JUMP JUMPDEST PUSH1 0x40 MLOAD DUP1 SWAP2 SUB SWAP1 LOG3 PUSH3 0x1929 DUP5 DUP5 DUP5 PUSH3 0x1934 PUSH1 0x20 SHL PUSH1 0x20 SHR JUMP JUMPDEST POP POP POP POP JUMP JUMPDEST POP POP POP JUMP JUMPDEST POP POP POP JUMP JUMPDEST PUSH1 0x1 PUSH1 0x2 DUP2 GT ISZERO PUSH3 0x1950 JUMPI PUSH3 0x194F PUSH3 0x2859 JUMP JUMPDEST JUMPDEST PUSH1 0xA PUSH0 SWAP1 SLOAD SWAP1 PUSH2 0x100 EXP SWAP1 DIV PUSH1 0xFF AND PUSH1 0x2 DUP2 GT ISZERO PUSH3 0x1974 JUMPI PUSH3 0x1973 PUSH3 0x2859 JUMP JUMPDEST JUMPDEST SUB PUSH3 0x1C00 JUMPI PUSH7 0x2AA1EFB94E000 PUSH1 0x8 DUP2 SWAP1 SSTORE POP PUSH3 0x1998 PUSH3 0x13D7 PUSH1 0x20 SHL PUSH1 0x20 SHR JUMP JUMPDEST PUSH1 0xA PUSH3 0x19A6 SWAP2 SWAP1 PUSH3 0x27BF JUMP JUMPDEST PUSH3 0x186A0 PUSH3 0x19B6 SWAP2 SWAP1 PUSH3 0x280F JUMP JUMPDEST PUSH1 0x9 DUP2 SWAP1 SSTORE POP PUSH3 0x19CC PUSH3 0x13D7 PUSH1 0x20 SHL PUSH1 0x20 SHR JUMP JUMPDEST PUSH1 0xA PUSH3 0x19DA SWAP2 SWAP1 PUSH3 0x27BF JUMP JUMPDEST PUSH3 0x2DC6C0 PUSH3 0x19EA SWAP2 SWAP1 PUSH3 0x280F JUMP JUMPDEST PUSH1 0xB PUSH0 PUSH1 0xC PUSH1 0x40 MLOAD PUSH3 0x19FD SWAP1 PUSH3 0x295C JUMP JUMPDEST SWAP1 DUP2 MSTORE PUSH1 0x20 ADD PUSH1 0x40 MLOAD DUP1 SWAP2 SUB SWAP1 KECCAK256 PUSH0 SWAP1 SLOAD SWAP1 PUSH2 0x100 EXP SWAP1 DIV PUSH20 0xFFFFFFFFFFFFFFFFFFFFFFFFFFFFFFFFFFFFFFFF AND PUSH20 0xFFFFFFFFFFFFFFFFFFFFFFFFFFFFFFFFFFFFFFFF AND PUSH20 0xFFFFFFFFFFFFFFFFFFFFFFFFFFFFFFFFFFFFFFFF AND DUP2 MSTORE PUSH1 0x20 ADD SWAP1 DUP2 MSTORE PUSH1 0x20 ADD PUSH0 KECCAK256 PUSH1 0x3 ADD PUSH0 DUP3 DUP3 SLOAD PUSH3 0x1A77 SWAP2 SWAP1 PUSH3 0x2CB2 JUMP JUMPDEST SWAP3 POP POP DUP2 SWAP1 SSTORE POP PUSH3 0x1A8E PUSH3 0x13D7 PUSH1 0x20 SHL PUSH1 0x20 SHR JUMP JUMPDEST PUSH1 0xA PUSH3 0x1A9C SWAP2 SWAP1 PUSH3 0x27BF JUMP JUMPDEST PUSH3 0x2DC6C0 PUSH3 0x1AAC SWAP2 SWAP1 PUSH3 0x280F JUMP JUMPDEST PUSH1 0xB PUSH0 PUSH1 0xC PUSH1 0x40 MLOAD PUSH3 0x1ABF SWAP1 PUSH3 0x29C0 JUMP JUMPDEST SWAP1 DUP2 MSTORE PUSH1 0x20 ADD PUSH1 0x40 MLOAD DUP1 SWAP2 SUB SWAP1 KECCAK256 PUSH0 SWAP1 SLOAD SWAP1 PUSH2 0x100 EXP SWAP1 DIV PUSH20 0xFFFFFFFFFFFFFFFFFFFFFFFFFFFFFFFFFFFFFFFF AND PUSH20 0xFFFFFFFFFFFFFFFFFFFFFFFFFFFFFFFFFFFFFFFF AND PUSH20 0xFFFFFFFFFFFFFFFFFFFFFFFFFFFFFFFFFFFFFFFF AND DUP2 MSTORE PUSH1 0x20 ADD SWAP1 DUP2 MSTORE PUSH1 0x20 ADD PUSH0 KECCAK256 PUSH1 0x3 ADD PUSH0 DUP3 DUP3 SLOAD PUSH3 0x1B39 SWAP2 SWAP1 PUSH3 0x2C4C JUMP JUMPDEST SWAP3 POP POP DUP2 SWAP1 SSTORE POP PUSH3 0x1BFA PUSH1 0xC PUSH1 0x40 MLOAD PUSH3 0x1B54 SWAP1 PUSH3 0x295C JUMP JUMPDEST SWAP1 DUP2 MSTORE PUSH1 0x20 ADD PUSH1 0x40 MLOAD DUP1 SWAP2 SUB SWAP1 KECCAK256 PUSH0 SWAP1 SLOAD SWAP1 PUSH2 0x100 EXP SWAP1 DIV PUSH20 0xFFFFFFFFFFFFFFFFFFFFFFFFFFFFFFFFFFFFFFFF AND PUSH1 0xC PUSH1 0x40 MLOAD PUSH3 0x1B92 SWAP1 PUSH3 0x29C0 JUMP JUMPDEST SWAP1 DUP2 MSTORE PUSH1 0x20 ADD PUSH1 0x40 MLOAD DUP1 SWAP2 SUB SWAP1 KECCAK256 PUSH0 SWAP1 SLOAD SWAP1 PUSH2 0x100 EXP SWAP1 DIV PUSH20 0xFFFFFFFFFFFFFFFFFFFFFFFFFFFFFFFFFFFFFFFF AND PUSH3 0x1BD0 PUSH3 0x13D7 PUSH1 0x20 SHL PUSH1 0x20 SHR JUMP JUMPDEST PUSH1 0xA PUSH3 0x1BDE SWAP2 SWAP1 PUSH3 0x27BF JUMP JUMPDEST PUSH3 0x2DC6C0 PUSH3 0x1BEE SWAP2 SWAP1 PUSH3 0x280F JUMP JUMPDEST PUSH3 0x16A8 PUSH1 0x20 SHL PUSH1 0x20 SHR JUMP JUMPDEST PUSH3 0x1FD2 JUMP JUMPDEST PUSH1 0x2 DUP1 DUP2 GT ISZERO PUSH3 0x1C16 JUMPI PUSH3 0x1C15 PUSH3 0x2859 JUMP JUMPDEST JUMPDEST PUSH1 0xA PUSH0 SWAP1 SLOAD SWAP1 PUSH2 0x100 EXP SWAP1 DIV PUSH1 0xFF AND PUSH1 0x2 DUP2 GT ISZERO PUSH3 0x1C3A JUMPI PUSH3 0x1C39 PUSH3 0x2859 JUMP JUMPDEST JUMPDEST SUB PUSH3 0x1FD1 JUMPI PUSH7 0x38D7EA4C68000 PUSH1 0x8 DUP2 SWAP1 SSTORE POP PUSH3 0x1C5E PUSH3 0x13D7 PUSH1 0x20 SHL PUSH1 0x20 SHR JUMP JUMPDEST PUSH1 0xA PUSH3 0x1C6C SWAP2 SWAP1 PUSH3 0x27BF JUMP JUMPDEST PUSH2 0x1388 PUSH3 0x1C7B SWAP2 SWAP1 PUSH3 0x280F JUMP JUMPDEST PUSH1 0x9 DUP2 SWAP1 SSTORE POP PUSH0 PUSH1 0xB PUSH0 PUSH1 0xC PUSH1 0x40 MLOAD PUSH3 0x1C95 SWAP1 PUSH3 0x29C0 JUMP JUMPDEST SWAP1 DUP2 MSTORE PUSH1 0x20 ADD PUSH1 0x40 MLOAD DUP1 SWAP2 SUB SWAP1 KECCAK256 PUSH0 SWAP1 SLOAD SWAP1 PUSH2 0x100 EXP SWAP1 DIV PUSH20 0xFFFFFFFFFFFFFFFFFFFFFFFFFFFFFFFFFFFFFFFF AND PUSH20 0xFFFFFFFFFFFFFFFFFFFFFFFFFFFFFFFFFFFFFFFF AND PUSH20 0xFFFFFFFFFFFFFFFFFFFFFFFFFFFFFFFFFFFFFFFF AND DUP2 MSTORE PUSH1 0x20 ADD SWAP1 DUP2 MSTORE PUSH1 0x20 ADD PUSH0 KECCAK256 PUSH1 0x3 ADD SLOAD SWAP1 POP PUSH3 0x1D91 PUSH1 0xC PUSH1 0x40 MLOAD PUSH3 0x1D16 SWAP1 PUSH3 0x29C0 JUMP JUMPDEST SWAP1 DUP2 MSTORE PUSH1 0x20 ADD PUSH1 0x40 MLOAD DUP1 SWAP2 SUB SWAP1 KECCAK256 PUSH0 SWAP1 SLOAD SWAP1 PUSH2 0x100 EXP SWAP1 DIV PUSH20 0xFFFFFFFFFFFFFFFFFFFFFFFFFFFFFFFFFFFFFFFF AND PUSH1 0xC PUSH1 0x40 MLOAD PUSH3 0x1D54 SWAP1 PUSH3 0x295C JUMP JUMPDEST SWAP1 DUP2 MSTORE PUSH1 0x20 ADD PUSH1 0x40 MLOAD DUP1 SWAP2 SUB SWAP1 KECCAK256 PUSH0 SWAP1 SLOAD SWAP1 PUSH2 0x100 EXP SWAP1 DIV PUSH20 0xFFFFFFFFFFFFFFFFFFFFFFFFFFFFFFFFFFFFFFFF AND DUP4 PUSH1 0x1 PUSH3 0x1FD4 PUSH1 0x20 SHL PUSH1 0x20 SHR JUMP JUMPDEST PUSH3 0x1DA1 PUSH3 0x13D7 PUSH1 0x20 SHL PUSH1 0x20 SHR JUMP JUMPDEST PUSH1 0xA PUSH3 0x1DAF SWAP2 SWAP1 PUSH3 0x27BF JUMP JUMPDEST PUSH3 0x5B8D80 PUSH3 0x1DBF SWAP2 SWAP1 PUSH3 0x280F JUMP JUMPDEST PUSH1 0xB PUSH0 PUSH1 0xC PUSH1 0x40 MLOAD PUSH3 0x1DD2 SWAP1 PUSH3 0x295C JUMP JUMPDEST SWAP1 DUP2 MSTORE PUSH1 0x20 ADD PUSH1 0x40 MLOAD DUP1 SWAP2 SUB SWAP1 KECCAK256 PUSH0 SWAP1 SLOAD SWAP1 PUSH2 0x100 EXP SWAP1 DIV PUSH20 0xFFFFFFFFFFFFFFFFFFFFFFFFFFFFFFFFFFFFFFFF AND PUSH20 0xFFFFFFFFFFFFFFFFFFFFFFFFFFFFFFFFFFFFFFFF AND PUSH20 0xFFFFFFFFFFFFFFFFFFFFFFFFFFFFFFFFFFFFFFFF AND DUP2 MSTORE PUSH1 0x20 ADD SWAP1 DUP2 MSTORE PUSH1 0x20 ADD PUSH0 KECCAK256 PUSH1 0x4 ADD PUSH0 DUP3 DUP3 SLOAD PUSH3 0x1E4C SWAP2 SWAP1 PUSH3 0x2CB2 JUMP JUMPDEST SWAP3 POP POP DUP2 SWAP1 SSTORE POP PUSH3 0x1E63 PUSH3 0x13D7 PUSH1 0x20 SHL PUSH1 0x20 SHR JUMP JUMPDEST PUSH1 0xA PUSH3 0x1E71 SWAP2 SWAP1 PUSH3 0x27BF JUMP JUMPDEST PUSH3 0x5B8D80 PUSH3 0x1E81 SWAP2 SWAP1 PUSH3 0x280F JUMP JUMPDEST PUSH1 0xB PUSH0 PUSH1 0xC PUSH1 0x40 MLOAD PUSH3 0x1E94 SWAP1 PUSH3 0x2A24 JUMP JUMPDEST SWAP1 DUP2 MSTORE PUSH1 0x20 ADD PUSH1 0x40 MLOAD DUP1 SWAP2 SUB SWAP1 KECCAK256 PUSH0 SWAP1 SLOAD SWAP1 PUSH2 0x100 EXP SWAP1 DIV PUSH20 0xFFFFFFFFFFFFFFFFFFFFFFFFFFFFFFFFFFFFFFFF AND PUSH20 0xFFFFFFFFFFFFFFFFFFFFFFFFFFFFFFFFFFFFFFFF AND PUSH20 0xFFFFFFFFFFFFFFFFFFFFFFFFFFFFFFFFFFFFFFFF AND DUP2 MSTORE PUSH1 0x20 ADD SWAP1 DUP2 MSTORE PUSH1 0x20 ADD PUSH0 KECCAK256 PUSH1 0x4 ADD PUSH0 DUP3 DUP3 SLOAD PUSH3 0x1F0E SWAP2 SWAP1 PUSH3 0x2C4C JUMP JUMPDEST SWAP3 POP POP DUP2 SWAP1 SSTORE POP PUSH3 0x1FCF PUSH1 0xC PUSH1 0x40 MLOAD PUSH3 0x1F29 SWAP1 PUSH3 0x295C JUMP JUMPDEST SWAP1 DUP2 MSTORE PUSH1 0x20 ADD PUSH1 0x40 MLOAD DUP1 SWAP2 SUB SWAP1 KECCAK256 PUSH0 SWAP1 SLOAD SWAP1 PUSH2 0x100 EXP SWAP1 DIV PUSH20 0xFFFFFFFFFFFFFFFFFFFFFFFFFFFFFFFFFFFFFFFF AND PUSH1 0xC PUSH1 0x40 MLOAD PUSH3 0x1F67 SWAP1 PUSH3 0x2A24 JUMP JUMPDEST SWAP1 DUP2 MSTORE PUSH1 0x20 ADD PUSH1 0x40 MLOAD DUP1 SWAP2 SUB SWAP1 KECCAK256 PUSH0 SWAP1 SLOAD SWAP1 PUSH2 0x100 EXP SWAP1 DIV PUSH20 0xFFFFFFFFFFFFFFFFFFFFFFFFFFFFFFFFFFFFFFFF AND PUSH3 0x1FA5 PUSH3 0x13D7 PUSH1 0x20 SHL PUSH1 0x20 SHR JUMP JUMPDEST PUSH1 0xA PUSH3 0x1FB3 SWAP2 SWAP1 PUSH3 0x27BF JUMP JUMPDEST PUSH3 0x5B8D80 PUSH3 0x1FC3 SWAP2 SWAP1 PUSH3 0x280F JUMP JUMPDEST PUSH3 0x16A8 PUSH1 0x20 SHL PUSH1 0x20 SHR JUMP JUMPDEST POP JUMPDEST JUMPDEST JUMP JUMPDEST PUSH0 PUSH20 0xFFFFFFFFFFFFFFFFFFFFFFFFFFFFFFFFFFFFFFFF AND DUP4 PUSH20 0xFFFFFFFFFFFFFFFFFFFFFFFFFFFFFFFFFFFFFFFF AND SUB PUSH3 0x2045 JUMPI PUSH1 0x40 MLOAD PUSH32 0x8C379A000000000000000000000000000000000000000000000000000000000 DUP2 MSTORE PUSH1 0x4 ADD PUSH3 0x203C SWAP1 PUSH3 0x2F42 JUMP JUMPDEST PUSH1 0x40 MLOAD DUP1 SWAP2 SUB SWAP1 REVERT JUMPDEST PUSH1 0x2 DUP2 PUSH1 0xFF AND GT ISZERO PUSH3 0x208F JUMPI PUSH1 0x40 MLOAD PUSH32 0x8C379A000000000000000000000000000000000000000000000000000000000 DUP2 MSTORE PUSH1 0x4 ADD PUSH3 0x2086 SWAP1 PUSH3 0x2FFC JUMP JUMPDEST PUSH1 0x40 MLOAD DUP1 SWAP2 SUB SWAP1 REVERT JUMPDEST PUSH0 DUP2 PUSH1 0xFF AND SUB PUSH3 0x2150 JUMPI DUP2 PUSH1 0xB PUSH0 DUP7 PUSH20 0xFFFFFFFFFFFFFFFFFFFFFFFFFFFFFFFFFFFFFFFF AND PUSH20 0xFFFFFFFFFFFFFFFFFFFFFFFFFFFFFFFFFFFFFFFF AND DUP2 MSTORE PUSH1 0x20 ADD SWAP1 DUP2 MSTORE PUSH1 0x20 ADD PUSH0 KECCAK256 PUSH1 0x2 ADD PUSH0 DUP3 DUP3 SLOAD PUSH3 0x20EB SWAP2 SWAP1 PUSH3 0x2CB2 JUMP JUMPDEST SWAP3 POP POP DUP2 SWAP1 SSTORE POP DUP2 PUSH1 0xB PUSH0 DUP6 PUSH20 0xFFFFFFFFFFFFFFFFFFFFFFFFFFFFFFFFFFFFFFFF AND PUSH20 0xFFFFFFFFFFFFFFFFFFFFFFFFFFFFFFFFFFFFFFFF AND DUP2 MSTORE PUSH1 0x20 ADD SWAP1 DUP2 MSTORE PUSH1 0x20 ADD PUSH0 KECCAK256 PUSH1 0x2 ADD PUSH0 DUP3 DUP3 SLOAD PUSH3 0x2143 SWAP2 SWAP1 PUSH3 0x2C4C JUMP JUMPDEST SWAP3 POP POP DUP2 SWAP1 SSTORE POP PUSH3 0x22E8 JUMP JUMPDEST PUSH1 0x1 DUP2 PUSH1 0xFF AND SUB PUSH3 0x2212 JUMPI DUP2 PUSH1 0xB PUSH0 DUP7 PUSH20 0xFFFFFFFFFFFFFFFFFFFFFFFFFFFFFFFFFFFFFFFF AND PUSH20 0xFFFFFFFFFFFFFFFFFFFFFFFFFFFFFFFFFFFFFFFF AND DUP2 MSTORE PUSH1 0x20 ADD SWAP1 DUP2 MSTORE PUSH1 0x20 ADD PUSH0 KECCAK256 PUSH1 0x3 ADD PUSH0 DUP3 DUP3 SLOAD PUSH3 0x21AD SWAP2 SWAP1 PUSH3 0x2CB2 JUMP JUMPDEST SWAP3 POP POP DUP2 SWAP1 SSTORE POP DUP2 PUSH1 0xB PUSH0 DUP6 PUSH20 0xFFFFFFFFFFFFFFFFFFFFFFFFFFFFFFFFFFFFFFFF AND PUSH20 0xFFFFFFFFFFFFFFFFFFFFFFFFFFFFFFFFFFFFFFFF AND DUP2 MSTORE PUSH1 0x20 ADD SWAP1 DUP2 MSTORE PUSH1 0x20 ADD PUSH0 KECCAK256 PUSH1 0x3 ADD PUSH0 DUP3 DUP3 SLOAD PUSH3 0x2205 SWAP2 SWAP1 PUSH3 0x2C4C JUMP JUMPDEST SWAP3 POP POP DUP2 SWAP1 SSTORE POP PUSH3 0x22C3 JUMP JUMPDEST DUP2 PUSH1 0xB PUSH0 DUP7 PUSH20 0xFFFFFFFFFFFFFFFFFFFFFFFFFFFFFFFFFFFFFFFF AND PUSH20 0xFFFFFFFFFFFFFFFFFFFFFFFFFFFFFFFFFFFFFFFF AND DUP2 MSTORE PUSH1 0x20 ADD SWAP1 DUP2 MSTORE PUSH1 0x20 ADD PUSH0 KECCAK256 PUSH1 0x4 ADD PUSH0 DUP3 DUP3 SLOAD PUSH3 0x2263 SWAP2 SWAP1 PUSH3 0x2CB2 JUMP JUMPDEST SWAP3 POP POP DUP2 SWAP1 SSTORE POP DUP2 PUSH1 0xB PUSH0 DUP6 PUSH20 0xFFFFFFFFFFFFFFFFFFFFFFFFFFFFFFFFFFFFFFFF AND PUSH20 0xFFFFFFFFFFFFFFFFFFFFFFFFFFFFFFFFFFFFFFFF AND DUP2 MSTORE PUSH1 0x20 ADD SWAP1 DUP2 MSTORE PUSH1 0x20 ADD PUSH0 KECCAK256 PUSH1 0x4 ADD PUSH0 DUP3 DUP3 SLOAD PUSH3 0x22BB SWAP2 SWAP1 PUSH3 0x2C4C JUMP JUMPDEST SWAP3 POP POP DUP2 SWAP1 SSTORE POP JUMPDEST PUSH3 0x22D6 DUP5 DUP5 DUP5 PUSH3 0x16A8 PUSH1 0x20 SHL PUSH1 0x20 SHR JUMP JUMPDEST PUSH3 0x22E6 PUSH3 0x1544 PUSH1 0x20 SHL PUSH1 0x20 SHR JUMP JUMPDEST POP JUMPDEST POP POP POP POP JUMP JUMPDEST PUSH0 DUP2 MLOAD SWAP1 POP SWAP2 SWAP1 POP JUMP JUMPDEST PUSH32 0x4E487B7100000000000000000000000000000000000000000000000000000000 PUSH0 MSTORE PUSH1 0x41 PUSH1 0x4 MSTORE PUSH1 0x24 PUSH0 REVERT JUMPDEST PUSH32 0x4E487B7100000000000000000000000000000000000000000000000000000000 PUSH0 MSTORE PUSH1 0x22 PUSH1 0x4 MSTORE PUSH1 0x24 PUSH0 REVERT JUMPDEST PUSH0 PUSH1 0x2 DUP3 DIV SWAP1 POP PUSH1 0x1 DUP3 AND DUP1 PUSH3 0x236A JUMPI PUSH1 0x7F DUP3 AND SWAP2 POP JUMPDEST PUSH1 0x20 DUP3 LT DUP2 SUB PUSH3 0x2380 JUMPI PUSH3 0x237F PUSH3 0x2325 JUMP JUMPDEST JUMPDEST POP SWAP2 SWAP1 POP JUMP JUMPDEST PUSH0 DUP2 SWAP1 POP DUP2 PUSH0 MSTORE PUSH1 0x20 PUSH0 KECCAK256 SWAP1 POP SWAP2 SWAP1 POP JUMP JUMPDEST PUSH0 PUSH1 0x20 PUSH1 0x1F DUP4 ADD DIV SWAP1 POP SWAP2 SWAP1 POP JUMP JUMPDEST PUSH0 DUP3 DUP3 SHL SWAP1 POP SWAP3 SWAP2 POP POP JUMP JUMPDEST PUSH0 PUSH1 0x8 DUP4 MUL PUSH3 0x23E4 PUSH32 0xFFFFFFFFFFFFFFFFFFFFFFFFFFFFFFFFFFFFFFFFFFFFFFFFFFFFFFFFFFFFFFFF DUP3 PUSH3 0x23A7 JUMP JUMPDEST PUSH3 0x23F0 DUP7 DUP4 PUSH3 0x23A7 JUMP JUMPDEST SWAP6 POP DUP1 NOT DUP5 AND SWAP4 POP DUP1 DUP7 AND DUP5 OR SWAP3 POP POP POP SWAP4 SWAP3 POP POP POP JUMP JUMPDEST PUSH0 DUP2 SWAP1 POP SWAP2 SWAP1 POP JUMP JUMPDEST PUSH0 DUP2 SWAP1 POP SWAP2 SWAP1 POP JUMP JUMPDEST PUSH0 PUSH3 0x243A PUSH3 0x2434 PUSH3 0x242E DUP5 PUSH3 0x2408 JUMP JUMPDEST PUSH3 0x2411 JUMP JUMPDEST PUSH3 0x2408 JUMP JUMPDEST SWAP1 POP SWAP2 SWAP1 POP JUMP JUMPDEST PUSH0 DUP2 SWAP1 POP SWAP2 SWAP1 POP JUMP JUMPDEST PUSH3 0x2455 DUP4 PUSH3 0x241A JUMP JUMPDEST PUSH3 0x246D PUSH3 0x2464 DUP3 PUSH3 0x2441 JUMP JUMPDEST DUP5 DUP5 SLOAD PUSH3 0x23B3 JUMP JUMPDEST DUP3 SSTORE POP POP POP POP JUMP JUMPDEST PUSH0 SWAP1 JUMP JUMPDEST PUSH3 0x2483 PUSH3 0x2475 JUMP JUMPDEST PUSH3 0x2490 DUP2 DUP5 DUP5 PUSH3 0x244A JUMP JUMPDEST POP POP POP JUMP JUMPDEST JUMPDEST DUP2 DUP2 LT ISZERO PUSH3 0x24B7 JUMPI PUSH3 0x24AB PUSH0 DUP3 PUSH3 0x2479 JUMP JUMPDEST PUSH1 0x1 DUP2 ADD SWAP1 POP PUSH3 0x2496 JUMP JUMPDEST POP POP JUMP JUMPDEST PUSH1 0x1F DUP3 GT ISZERO PUSH3 0x2506 JUMPI PUSH3 0x24D0 DUP2 PUSH3 0x2386 JUMP JUMPDEST PUSH3 0x24DB DUP5 PUSH3 0x2398 JUMP JUMPDEST DUP2 ADD PUSH1 0x20 DUP6 LT ISZERO PUSH3 0x24EB JUMPI DUP2 SWAP1 POP JUMPDEST PUSH3 0x2503 PUSH3 0x24FA DUP6 PUSH3 0x2398 JUMP JUMPDEST DUP4 ADD DUP3 PUSH3 0x2495 JUMP JUMPDEST POP POP JUMPDEST POP POP POP JUMP JUMPDEST PUSH0 DUP3 DUP3 SHR SWAP1 POP SWAP3 SWAP2 POP POP JUMP JUMPDEST PUSH0 PUSH3 0x2528 PUSH0 NOT DUP5 PUSH1 0x8 MUL PUSH3 0x250B JUMP JUMPDEST NOT DUP1 DUP4 AND SWAP2 POP POP SWAP3 SWAP2 POP POP JUMP JUMPDEST PUSH0 PUSH3 0x2542 DUP4 DUP4 PUSH3 0x2517 JUMP JUMPDEST SWAP2 POP DUP3 PUSH1 0x2 MUL DUP3 OR SWAP1 POP SWAP3 SWAP2 POP POP JUMP JUMPDEST PUSH3 0x255D DUP3 PUSH3 0x22EE JUMP JUMPDEST PUSH8 0xFFFFFFFFFFFFFFFF DUP2 GT ISZERO PUSH3 0x2579 JUMPI PUSH3 0x2578 PUSH3 0x22F8 JUMP JUMPDEST JUMPDEST PUSH3 0x2585 DUP3 SLOAD PUSH3 0x2352 JUMP JUMPDEST PUSH3 0x2592 DUP3 DUP3 DUP6 PUSH3 0x24BB JUMP JUMPDEST PUSH0 PUSH1 0x20 SWAP1 POP PUSH1 0x1F DUP4 GT PUSH1 0x1 DUP2 EQ PUSH3 0x25C8 JUMPI PUSH0 DUP5 ISZERO PUSH3 0x25B3 JUMPI DUP3 DUP8 ADD MLOAD SWAP1 POP JUMPDEST PUSH3 0x25BF DUP6 DUP3 PUSH3 0x2535 JUMP JUMPDEST DUP7 SSTORE POP PUSH3 0x262E JUMP JUMPDEST PUSH1 0x1F NOT DUP5 AND PUSH3 0x25D8 DUP7 PUSH3 0x2386 JUMP JUMPDEST PUSH0 JUMPDEST DUP3 DUP2 LT ISZERO PUSH3 0x2601 JUMPI DUP5 DUP10 ADD MLOAD DUP3 SSTORE PUSH1 0x1 DUP3 ADD SWAP2 POP PUSH1 0x20 DUP6 ADD SWAP5 POP PUSH1 0x20 DUP2 ADD SWAP1 POP PUSH3 0x25DA JUMP JUMPDEST DUP7 DUP4 LT ISZERO PUSH3 0x2621 JUMPI DUP5 DUP10 ADD MLOAD PUSH3 0x261D PUSH1 0x1F DUP10 AND DUP3 PUSH3 0x2517 JUMP JUMPDEST DUP4 SSTORE POP JUMPDEST PUSH1 0x1 PUSH1 0x2 DUP9 MUL ADD DUP9 SSTORE POP POP POP JUMPDEST POP POP POP POP POP POP JUMP JUMPDEST PUSH32 0x4E487B7100000000000000000000000000000000000000000000000000000000 PUSH0 MSTORE PUSH1 0x11 PUSH1 0x4 MSTORE PUSH1 0x24 PUSH0 REVERT JUMPDEST PUSH0 DUP2 PUSH1 0x1 SHR SWAP1 POP SWAP2 SWAP1 POP JUMP JUMPDEST PUSH0 DUP1 DUP3 SWAP2 POP DUP4 SWAP1 POP JUMPDEST PUSH1 0x1 DUP6 GT ISZERO PUSH3 0x26C0 JUMPI DUP1 DUP7 DIV DUP2 GT ISZERO PUSH3 0x2698 JUMPI PUSH3 0x2697 PUSH3 0x2636 JUMP JUMPDEST JUMPDEST PUSH1 0x1 DUP6 AND ISZERO PUSH3 0x26A8 JUMPI DUP1 DUP3 MUL SWAP2 POP JUMPDEST DUP1 DUP2 MUL SWAP1 POP PUSH3 0x26B8 DUP6 PUSH3 0x2663 JUMP JUMPDEST SWAP5 POP PUSH3 0x2678 JUMP JUMPDEST SWAP5 POP SWAP5 SWAP3 POP POP POP JUMP JUMPDEST PUSH0 DUP3 PUSH3 0x26DA JUMPI PUSH1 0x1 SWAP1 POP PUSH3 0x27AC JUMP JUMPDEST DUP2 PUSH3 0x26E9 JUMPI PUSH0 SWAP1 POP PUSH3 0x27AC JUMP JUMPDEST DUP2 PUSH1 0x1 DUP2 EQ PUSH3 0x2702 JUMPI PUSH1 0x2 DUP2 EQ PUSH3 0x270D JUMPI PUSH3 0x2743 JUMP JUMPDEST PUSH1 0x1 SWAP2 POP POP PUSH3 0x27AC JUMP JUMPDEST PUSH1 0xFF DUP5 GT ISZERO PUSH3 0x2722 JUMPI PUSH3 0x2721 PUSH3 0x2636 JUMP JUMPDEST JUMPDEST DUP4 PUSH1 0x2 EXP SWAP2 POP DUP5 DUP3 GT ISZERO PUSH3 0x273C JUMPI PUSH3 0x273B PUSH3 0x2636 JUMP JUMPDEST JUMPDEST POP PUSH3 0x27AC JUMP JUMPDEST POP PUSH1 0x20 DUP4 LT PUSH2 0x133 DUP4 LT AND PUSH1 0x4E DUP5 LT PUSH1 0xB DUP5 LT AND OR ISZERO PUSH3 0x277D JUMPI DUP3 DUP3 EXP SWAP1 POP DUP4 DUP2 GT ISZERO PUSH3 0x2777 JUMPI PUSH3 0x2776 PUSH3 0x2636 JUMP JUMPDEST JUMPDEST PUSH3 0x27AC JUMP JUMPDEST PUSH3 0x278C DUP5 DUP5 DUP5 PUSH1 0x1 PUSH3 0x266F JUMP JUMPDEST SWAP3 POP SWAP1 POP DUP2 DUP5 DIV DUP2 GT ISZERO PUSH3 0x27A6 JUMPI PUSH3 0x27A5 PUSH3 0x2636 JUMP JUMPDEST JUMPDEST DUP2 DUP2 MUL SWAP1 POP JUMPDEST SWAP4 SWAP3 POP POP POP JUMP JUMPDEST PUSH0 PUSH1 0xFF DUP3 AND SWAP1 POP SWAP2 SWAP1 POP JUMP JUMPDEST PUSH0 PUSH3 0x27CB DUP3 PUSH3 0x2408 JUMP JUMPDEST SWAP2 POP PUSH3 0x27D8 DUP4 PUSH3 0x27B3 JUMP JUMPDEST SWAP3 POP PUSH3 0x2807 PUSH32 0xFFFFFFFFFFFFFFFFFFFFFFFFFFFFFFFFFFFFFFFFFFFFFFFFFFFFFFFFFFFFFFFF DUP5 DUP5 PUSH3 0x26C9 JUMP JUMPDEST SWAP1 POP SWAP3 SWAP2 POP POP JUMP JUMPDEST PUSH0 PUSH3 0x281B DUP3 PUSH3 0x2408 JUMP JUMPDEST SWAP2 POP PUSH3 0x2828 DUP4 PUSH3 0x2408 JUMP JUMPDEST SWAP3 POP DUP3 DUP3 MUL PUSH3 0x2838 DUP2 PUSH3 0x2408 JUMP JUMPDEST SWAP2 POP DUP3 DUP3 DIV DUP5 EQ DUP4 ISZERO OR PUSH3 0x2852 JUMPI PUSH3 0x2851 PUSH3 0x2636 JUMP JUMPDEST JUMPDEST POP SWAP3 SWAP2 POP POP JUMP JUMPDEST PUSH32 0x4E487B7100000000000000000000000000000000000000000000000000000000 PUSH0 MSTORE PUSH1 0x21 PUSH1 0x4 MSTORE PUSH1 0x24 PUSH0 REVERT JUMPDEST PUSH0 DUP3 DUP3 MSTORE PUSH1 0x20 DUP3 ADD SWAP1 POP SWAP3 SWAP2 POP POP JUMP JUMPDEST PUSH32 0x3132330000000000000000000000000000000000000000000000000000000000 PUSH0 DUP3 ADD MSTORE POP JUMP JUMPDEST PUSH0 PUSH3 0x28CC PUSH1 0x3 DUP4 PUSH3 0x2886 JUMP JUMPDEST SWAP2 POP PUSH3 0x28D9 DUP3 PUSH3 0x2896 JUMP JUMPDEST PUSH1 0x20 DUP3 ADD SWAP1 POP SWAP2 SWAP1 POP JUMP JUMPDEST PUSH0 PUSH1 0x20 DUP3 ADD SWAP1 POP DUP2 DUP2 SUB PUSH0 DUP4 ADD MSTORE PUSH3 0x28FD DUP2 PUSH3 0x28BE JUMP JUMPDEST SWAP1 POP SWAP2 SWAP1 POP JUMP JUMPDEST PUSH0 DUP2 SWAP1 POP SWAP3 SWAP2 POP POP JUMP JUMPDEST PUSH32 0x6F776E6572000000000000000000000000000000000000000000000000000000 PUSH0 DUP3 ADD MSTORE POP JUMP JUMPDEST PUSH0 PUSH3 0x2944 PUSH1 0x5 DUP4 PUSH3 0x2904 JUMP JUMPDEST SWAP2 POP PUSH3 0x2951 DUP3 PUSH3 0x290E JUMP JUMPDEST PUSH1 0x5 DUP3 ADD SWAP1 POP SWAP2 SWAP1 POP JUMP JUMPDEST PUSH0 PUSH3 0x2968 DUP3 PUSH3 0x2936 JUMP JUMPDEST SWAP2 POP DUP2 SWAP1 POP SWAP2 SWAP1 POP JUMP JUMPDEST PUSH32 0x707269762070726F760000000000000000000000000000000000000000000000 PUSH0 DUP3 ADD MSTORE POP JUMP JUMPDEST PUSH0 PUSH3 0x29A8 PUSH1 0x9 DUP4 PUSH3 0x2904 JUMP JUMPDEST SWAP2 POP PUSH3 0x29B5 DUP3 PUSH3 0x2972 JUMP JUMPDEST PUSH1 0x9 DUP3 ADD SWAP1 POP SWAP2 SWAP1 POP JUMP JUMPDEST PUSH0 PUSH3 0x29CC DUP3 PUSH3 0x299A JUMP JUMPDEST SWAP2 POP DUP2 SWAP1 POP SWAP2 SWAP1 POP JUMP JUMPDEST PUSH32 0x7075622070726F76000000000000000000000000000000000000000000000000 PUSH0 DUP3 ADD MSTORE POP JUMP JUMPDEST PUSH0 PUSH3 0x2A0C PUSH1 0x8 DUP4 PUSH3 0x2904 JUMP JUMPDEST SWAP2 POP PUSH3 0x2A19 DUP3 PUSH3 0x29D6 JUMP JUMPDEST PUSH1 0x8 DUP3 ADD SWAP1 POP SWAP2 SWAP1 POP JUMP JUMPDEST PUSH0 PUSH3 0x2A30 DUP3 PUSH3 0x29FE JUMP JUMPDEST SWAP2 POP DUP2 SWAP1 POP SWAP2 SWAP1 POP JUMP JUMPDEST PUSH0 JUMPDEST DUP4 DUP2 LT ISZERO PUSH3 0x2A59 JUMPI DUP1 DUP3 ADD MLOAD DUP2 DUP5 ADD MSTORE PUSH1 0x20 DUP2 ADD SWAP1 POP PUSH3 0x2A3C JUMP JUMPDEST PUSH0 DUP5 DUP5 ADD MSTORE POP POP POP POP JUMP JUMPDEST PUSH0 PUSH3 0x2A70 DUP3 PUSH3 0x22EE JUMP JUMPDEST PUSH3 0x2A7C DUP2 DUP6 PUSH3 0x2904 JUMP JUMPDEST SWAP4 POP PUSH3 0x2A8E DUP2 DUP6 PUSH1 0x20 DUP7 ADD PUSH3 0x2A3A JUMP JUMPDEST DUP1 DUP5 ADD SWAP2 POP POP SWAP3 SWAP2 POP POP JUMP JUMPDEST PUSH0 PUSH3 0x2AA7 DUP3 DUP5 PUSH3 0x2A64 JUMP JUMPDEST SWAP2 POP DUP2 SWAP1 POP SWAP3 SWAP2 POP POP JUMP JUMPDEST PUSH32 0x696E763200000000000000000000000000000000000000000000000000000000 PUSH0 DUP3 ADD MSTORE POP JUMP JUMPDEST PUSH0 PUSH3 0x2AE8 PUSH1 0x4 DUP4 PUSH3 0x2904 JUMP JUMPDEST SWAP2 POP PUSH3 0x2AF5 DUP3 PUSH3 0x2AB2 JUMP JUMPDEST PUSH1 0x4 DUP3 ADD SWAP1 POP SWAP2 SWAP1 POP JUMP JUMPDEST PUSH0 PUSH3 0x2B0C DUP3 PUSH3 0x2ADA JUMP JUMPDEST SWAP2 POP DUP2 SWAP1 POP SWAP2 SWAP1 POP JUMP JUMPDEST PUSH32 0x667269656E640000000000000000000000000000000000000000000000000000 PUSH0 DUP3 ADD MSTORE POP JUMP JUMPDEST PUSH0 PUSH3 0x2B4C PUSH1 0x6 DUP4 PUSH3 0x2904 JUMP JUMPDEST SWAP2 POP PUSH3 0x2B59 DUP3 PUSH3 0x2B16 JUMP JUMPDEST PUSH1 0x6 DUP3 ADD SWAP1 POP SWAP2 SWAP1 POP JUMP JUMPDEST PUSH0 PUSH3 0x2B70 DUP3 PUSH3 0x2B3E JUMP JUMPDEST SWAP2 POP DUP2 SWAP1 POP SWAP2 SWAP1 POP JUMP JUMPDEST PUSH32 0x696E763100000000000000000000000000000000000000000000000000000000 PUSH0 DUP3 ADD MSTORE POP JUMP JUMPDEST PUSH0 PUSH3 0x2BB0 PUSH1 0x4 DUP4 PUSH3 0x2904 JUMP JUMPDEST SWAP2 POP PUSH3 0x2BBD DUP3 PUSH3 0x2B7A JUMP JUMPDEST PUSH1 0x4 DUP3 ADD SWAP1 POP SWAP2 SWAP1 POP JUMP JUMPDEST PUSH0 PUSH3 0x2BD4 DUP3 PUSH3 0x2BA2 JUMP JUMPDEST SWAP2 POP DUP2 SWAP1 POP SWAP2 SWAP1 POP JUMP JUMPDEST PUSH32 0x45524332303A206D696E7420746F20746865207A65726F206164647265737300 PUSH0 DUP3 ADD MSTORE POP JUMP JUMPDEST PUSH0 PUSH3 0x2C14 PUSH1 0x1F DUP4 PUSH3 0x2886 JUMP JUMPDEST SWAP2 POP PUSH3 0x2C21 DUP3 PUSH3 0x2BDE JUMP JUMPDEST PUSH1 0x20 DUP3 ADD SWAP1 POP SWAP2 SWAP1 POP JUMP JUMPDEST PUSH0 PUSH1 0x20 DUP3 ADD SWAP1 POP DUP2 DUP2 SUB PUSH0 DUP4 ADD MSTORE PUSH3 0x2C45 DUP2 PUSH3 0x2C06 JUMP JUMPDEST SWAP1 POP SWAP2 SWAP1 POP JUMP JUMPDEST PUSH0 PUSH3 0x2C58 DUP3 PUSH3 0x2408 JUMP JUMPDEST SWAP2 POP PUSH3 0x2C65 DUP4 PUSH3 0x2408 JUMP JUMPDEST SWAP3 POP DUP3 DUP3 ADD SWAP1 POP DUP1 DUP3 GT ISZERO PUSH3 0x2C80 JUMPI PUSH3 0x2C7F PUSH3 0x2636 JUMP JUMPDEST JUMPDEST SWAP3 SWAP2 POP POP JUMP JUMPDEST PUSH3 0x2C91 DUP2 PUSH3 0x2408 JUMP JUMPDEST DUP3 MSTORE POP POP JUMP JUMPDEST PUSH0 PUSH1 0x20 DUP3 ADD SWAP1 POP PUSH3 0x2CAC PUSH0 DUP4 ADD DUP5 PUSH3 0x2C86 JUMP JUMPDEST SWAP3 SWAP2 POP POP JUMP JUMPDEST PUSH0 PUSH3 0x2CBE DUP3 PUSH3 0x2408 JUMP JUMPDEST SWAP2 POP PUSH3 0x2CCB DUP4 PUSH3 0x2408 JUMP JUMPDEST SWAP3 POP DUP3 DUP3 SUB SWAP1 POP DUP2 DUP2 GT ISZERO PUSH3 0x2CE6 JUMPI PUSH3 0x2CE5 PUSH3 0x2636 JUMP JUMPDEST JUMPDEST SWAP3 SWAP2 POP POP JUMP JUMPDEST PUSH32 0x45524332303A207472616E736665722066726F6D20746865207A65726F206164 PUSH0 DUP3 ADD MSTORE PUSH32 0x6472657373000000000000000000000000000000000000000000000000000000 PUSH1 0x20 DUP3 ADD MSTORE POP JUMP JUMPDEST PUSH0 PUSH3 0x2D48 PUSH1 0x25 DUP4 PUSH3 0x2886 JUMP JUMPDEST SWAP2 POP PUSH3 0x2D55 DUP3 PUSH3 0x2CEC JUMP JUMPDEST PUSH1 0x40 DUP3 ADD SWAP1 POP SWAP2 SWAP1 POP JUMP JUMPDEST PUSH0 PUSH1 0x20 DUP3 ADD SWAP1 POP DUP2 DUP2 SUB PUSH0 DUP4 ADD MSTORE PUSH3 0x2D79 DUP2 PUSH3 0x2D3A JUMP JUMPDEST SWAP1 POP SWAP2 SWAP1 POP JUMP JUMPDEST PUSH32 0x45524332303A207472616E7366657220746F20746865207A65726F2061646472 PUSH0 DUP3 ADD MSTORE PUSH32 0x6573730000000000000000000000000000000000000000000000000000000000 PUSH1 0x20 DUP3 ADD MSTORE POP JUMP JUMPDEST PUSH0 PUSH3 0x2DDC PUSH1 0x23 DUP4 PUSH3 0x2886 JUMP JUMPDEST SWAP2 POP PUSH3 0x2DE9 DUP3 PUSH3 0x2D80 JUMP JUMPDEST PUSH1 0x40 DUP3 ADD SWAP1 POP SWAP2 SWAP1 POP JUMP JUMPDEST PUSH0 PUSH1 0x20 DUP3 ADD SWAP1 POP DUP2 DUP2 SUB PUSH0 DUP4 ADD MSTORE PUSH3 0x2E0D DUP2 PUSH3 0x2DCE JUMP JUMPDEST SWAP1 POP SWAP2 SWAP1 POP JUMP JUMPDEST PUSH32 0x45524332303A207472616E7366657220616D6F756E7420657863656564732062 PUSH0 DUP3 ADD MSTORE PUSH32 0x616C616E63650000000000000000000000000000000000000000000000000000 PUSH1 0x20 DUP3 ADD MSTORE POP JUMP JUMPDEST PUSH0 PUSH3 0x2E70 PUSH1 0x26 DUP4 PUSH3 0x2886 JUMP JUMPDEST SWAP2 POP PUSH3 0x2E7D DUP3 PUSH3 0x2E14 JUMP JUMPDEST PUSH1 0x40 DUP3 ADD SWAP1 POP SWAP2 SWAP1 POP JUMP JUMPDEST PUSH0 PUSH1 0x20 DUP3 ADD SWAP1 POP DUP2 DUP2 SUB PUSH0 DUP4 ADD MSTORE PUSH3 0x2EA1 DUP2 PUSH3 0x2E62 JUMP JUMPDEST SWAP1 POP SWAP2 SWAP1 POP JUMP JUMPDEST PUSH32 0xD09DD0B5D0BBD18CD0B7D18F20D0BFD0B5D180D0B5D0B2D0B5D181D182D0B820 PUSH0 DUP3 ADD MSTORE PUSH32 0xD182D0BED0BAD0B5D0BDD18B20D0BDD0B020D0BDD0B5D181D183D189D0B5D181 PUSH1 0x20 DUP3 ADD MSTORE PUSH32 0xD182D0B2D183D18ED189D0B8D0B920D0B0D0B4D180D0B5D18121000000000000 PUSH1 0x40 DUP3 ADD MSTORE POP JUMP JUMPDEST PUSH0 PUSH3 0x2F2A PUSH1 0x5A DUP4 PUSH3 0x2886 JUMP JUMPDEST SWAP2 POP PUSH3 0x2F37 DUP3 PUSH3 0x2EA8 JUMP JUMPDEST PUSH1 0x60 DUP3 ADD SWAP1 POP SWAP2 SWAP1 POP JUMP JUMPDEST PUSH0 PUSH1 0x20 DUP3 ADD SWAP1 POP DUP2 DUP2 SUB PUSH0 DUP4 ADD MSTORE PUSH3 0x2F5B DUP2 PUSH3 0x2F1C JUMP JUMPDEST SWAP1 POP SWAP2 SWAP1 POP JUMP JUMPDEST PUSH32 0xD09DD0B5D0BBD18CD0B7D18F20D0BFD0B5D180D0B5D0B2D0BED0B4D0B8D182D1 PUSH0 DUP3 ADD MSTORE PUSH32 0x8C20D182D0B0D0BAD0BED0B920D182D0B8D0BF20D182D0BED0BAD0B5D0BDD0BE PUSH1 0x20 DUP3 ADD MSTORE PUSH32 0xD0B2210000000000000000000000000000000000000000000000000000000000 PUSH1 0x40 DUP3 ADD MSTORE POP JUMP JUMPDEST PUSH0 PUSH3 0x2FE4 PUSH1 0x43 DUP4 PUSH3 0x2886 JUMP JUMPDEST SWAP2 POP PUSH3 0x2FF1 DUP3 PUSH3 0x2F62 JUMP JUMPDEST PUSH1 0x60 DUP3 ADD SWAP1 POP SWAP2 SWAP1 POP JUMP JUMPDEST PUSH0 PUSH1 0x20 DUP3 ADD SWAP1 POP DUP2 DUP2 SUB PUSH0 DUP4 ADD MSTORE PUSH3 0x3015 DUP2 PUSH3 0x2FD6 JUMP JUMPDEST SWAP1 POP SWAP2 SWAP1 POP JUMP JUMPDEST PUSH2 0x4548 DUP1 PUSH3 0x302A PUSH0 CODECOPY PUSH0 RETURN INVALID PUSH1 0x80 PUSH1 0x40 MSTORE PUSH1 0x4 CALLDATASIZE LT PUSH2 0x11E JUMPI PUSH0 CALLDATALOAD PUSH1 0xE0 SHR DUP1 PUSH4 0x817C1E07 GT PUSH2 0x9F JUMPI DUP1 PUSH4 0xA469A332 GT PUSH2 0x63 JUMPI DUP1 PUSH4 0xA469A332 EQ PUSH2 0x3CA JUMPI DUP1 PUSH4 0xA9059CBB EQ PUSH2 0x3F2 JUMPI DUP1 PUSH4 0xDA452C04 EQ PUSH2 0x42E JUMPI DUP1 PUSH4 0xDD62ED3E EQ PUSH2 0x456 JUMPI DUP1 PUSH4 0xE4D69FBD EQ PUSH2 0x492 JUMPI PUSH2 0x11E JUMP JUMPDEST DUP1 PUSH4 0x817C1E07 EQ PUSH2 0x2FE JUMPI DUP1 PUSH4 0x95D89B41 EQ PUSH2 0x326 JUMPI DUP1 PUSH4 0x9B9AA3EB EQ PUSH2 0x350 JUMPI DUP1 PUSH4 0xA33DC9FA EQ PUSH2 0x366 JUMPI DUP1 PUSH4 0xA457C2D7 EQ PUSH2 0x38E JUMPI PUSH2 0x11E JUMP JUMPDEST DUP1 PUSH4 0x2C162DBC GT PUSH2 0xE6 JUMPI DUP1 PUSH4 0x2C162DBC EQ PUSH2 0x204 JUMPI DUP1 PUSH4 0x2D296BF1 EQ PUSH2 0x240 JUMPI DUP1 PUSH4 0x313CE567 EQ PUSH2 0x25C JUMPI DUP1 PUSH4 0x39509351 EQ PUSH2 0x286 JUMPI DUP1 PUSH4 0x70A08231 EQ PUSH2 0x2C2 JUMPI PUSH2 0x11E JUMP JUMPDEST DUP1 PUSH4 0x6FDDE03 EQ PUSH2 0x122 JUMPI DUP1 PUSH4 0x95EA7B3 EQ PUSH2 0x14C JUMPI DUP1 PUSH4 0xBAB8388 EQ PUSH2 0x188 JUMPI DUP1 PUSH4 0x18160DDD EQ PUSH2 0x19E JUMPI DUP1 PUSH4 0x23B872DD EQ PUSH2 0x1C8 JUMPI JUMPDEST PUSH0 DUP1 REVERT JUMPDEST CALLVALUE DUP1 ISZERO PUSH2 0x12D JUMPI PUSH0 DUP1 REVERT JUMPDEST POP PUSH2 0x136 PUSH2 0x4A8 JUMP JUMPDEST PUSH1 0x40 MLOAD PUSH2 0x143 SWAP2 SWAP1 PUSH2 0x2CA0 JUMP JUMPDEST PUSH1 0x40 MLOAD DUP1 SWAP2 SUB SWAP1 RETURN JUMPDEST CALLVALUE DUP1 ISZERO PUSH2 0x157 JUMPI PUSH0 DUP1 REVERT JUMPDEST POP PUSH2 0x172 PUSH1 0x4 DUP1 CALLDATASIZE SUB DUP2 ADD SWAP1 PUSH2 0x16D SWAP2 SWAP1 PUSH2 0x2D5E JUMP JUMPDEST PUSH2 0x538 JUMP JUMPDEST PUSH1 0x40 MLOAD PUSH2 0x17F SWAP2 SWAP1 PUSH2 0x2DB6 JUMP JUMPDEST PUSH1 0x40 MLOAD DUP1 SWAP2 SUB SWAP1 RETURN JUMPDEST CALLVALUE DUP1 ISZERO PUSH2 0x193 JUMPI PUSH0 DUP1 REVERT JUMPDEST POP PUSH2 0x19C PUSH2 0x55A JUMP JUMPDEST STOP JUMPDEST CALLVALUE DUP1 ISZERO PUSH2 0x1A9 JUMPI PUSH0 DUP1 REVERT JUMPDEST POP PUSH2 0x1B2 PUSH2 0x57A JUMP JUMPDEST PUSH1 0x40 MLOAD PUSH2 0x1BF SWAP2 SWAP1 PUSH2 0x2DDE JUMP JUMPDEST PUSH1 0x40 MLOAD DUP1 SWAP2 SUB SWAP1 RETURN JUMPDEST CALLVALUE DUP1 ISZERO PUSH2 0x1D3 JUMPI PUSH0 DUP1 REVERT JUMPDEST POP PUSH2 0x1EE PUSH1 0x4 DUP1 CALLDATASIZE SUB DUP2 ADD SWAP1 PUSH2 0x1E9 SWAP2 SWAP1 PUSH2 0x2DF7 JUMP JUMPDEST PUSH2 0x583 JUMP JUMPDEST PUSH1 0x40 MLOAD PUSH2 0x1FB SWAP2 SWAP1 PUSH2 0x2DB6 JUMP JUMPDEST PUSH1 0x40 MLOAD DUP1 SWAP2 SUB SWAP1 RETURN JUMPDEST CALLVALUE DUP1 ISZERO PUSH2 0x20F JUMPI PUSH0 DUP1 REVERT JUMPDEST POP PUSH2 0x22A PUSH1 0x4 DUP1 CALLDATASIZE SUB DUP2 ADD SWAP1 PUSH2 0x225 SWAP2 SWAP1 PUSH2 0x2F73 JUMP JUMPDEST PUSH2 0x5B1 JUMP JUMPDEST PUSH1 0x40 MLOAD PUSH2 0x237 SWAP2 SWAP1 PUSH2 0x316A JUMP JUMPDEST PUSH1 0x40 MLOAD DUP1 SWAP2 SUB SWAP1 RETURN JUMPDEST PUSH2 0x25A PUSH1 0x4 DUP1 CALLDATASIZE SUB DUP2 ADD SWAP1 PUSH2 0x255 SWAP2 SWAP1 PUSH2 0x318A JUMP JUMPDEST PUSH2 0x82C JUMP JUMPDEST STOP JUMPDEST CALLVALUE DUP1 ISZERO PUSH2 0x267 JUMPI PUSH0 DUP1 REVERT JUMPDEST POP PUSH2 0x270 PUSH2 0xAE1 JUMP JUMPDEST PUSH1 0x40 MLOAD PUSH2 0x27D SWAP2 SWAP1 PUSH2 0x31D0 JUMP JUMPDEST PUSH1 0x40 MLOAD DUP1 SWAP2 SUB SWAP1 RETURN JUMPDEST CALLVALUE DUP1 ISZERO PUSH2 0x291 JUMPI PUSH0 DUP1 REVERT JUMPDEST POP PUSH2 0x2AC PUSH1 0x4 DUP1 CALLDATASIZE SUB DUP2 ADD SWAP1 PUSH2 0x2A7 SWAP2 SWAP1 PUSH2 0x2D5E JUMP JUMPDEST PUSH2 0xAE9 JUMP JUMPDEST PUSH1 0x40 MLOAD PUSH2 0x2B9 SWAP2 SWAP1 PUSH2 0x2DB6 JUMP JUMPDEST PUSH1 0x40 MLOAD DUP1 SWAP2 SUB SWAP1 RETURN JUMPDEST CALLVALUE DUP1 ISZERO PUSH2 0x2CD JUMPI PUSH0 DUP1 REVERT JUMPDEST POP PUSH2 0x2E8 PUSH1 0x4 DUP1 CALLDATASIZE SUB DUP2 ADD SWAP1 PUSH2 0x2E3 SWAP2 SWAP1 PUSH2 0x31E9 JUMP JUMPDEST PUSH2 0xB1F JUMP JUMPDEST PUSH1 0x40 MLOAD PUSH2 0x2F5 SWAP2 SWAP1 PUSH2 0x2DDE JUMP JUMPDEST PUSH1 0x40 MLOAD DUP1 SWAP2 SUB SWAP1 RETURN JUMPDEST CALLVALUE DUP1 ISZERO PUSH2 0x309 JUMPI PUSH0 DUP1 REVERT JUMPDEST POP PUSH2 0x324 PUSH1 0x4 DUP1 CALLDATASIZE SUB DUP2 ADD SWAP1 PUSH2 0x31F SWAP2 SWAP1 PUSH2 0x323E JUMP JUMPDEST PUSH2 0xB64 JUMP JUMPDEST STOP JUMPDEST CALLVALUE DUP1 ISZERO PUSH2 0x331 JUMPI PUSH0 DUP1 REVERT JUMPDEST POP PUSH2 0x33A PUSH2 0xCA6 JUMP JUMPDEST PUSH1 0x40 MLOAD PUSH2 0x347 SWAP2 SWAP1 PUSH2 0x2CA0 JUMP JUMPDEST PUSH1 0x40 MLOAD DUP1 SWAP2 SUB SWAP1 RETURN JUMPDEST CALLVALUE DUP1 ISZERO PUSH2 0x35B JUMPI PUSH0 DUP1 REVERT JUMPDEST POP PUSH2 0x364 PUSH2 0xD36 JUMP JUMPDEST STOP JUMPDEST CALLVALUE DUP1 ISZERO PUSH2 0x371 JUMPI PUSH0 DUP1 REVERT JUMPDEST POP PUSH2 0x38C PUSH1 0x4 DUP1 CALLDATASIZE SUB DUP2 ADD SWAP1 PUSH2 0x387 SWAP2 SWAP1 PUSH2 0x3293 JUMP JUMPDEST PUSH2 0xF60 JUMP JUMPDEST STOP JUMPDEST CALLVALUE DUP1 ISZERO PUSH2 0x399 JUMPI PUSH0 DUP1 REVERT JUMPDEST POP PUSH2 0x3B4 PUSH1 0x4 DUP1 CALLDATASIZE SUB DUP2 ADD SWAP1 PUSH2 0x3AF SWAP2 SWAP1 PUSH2 0x2D5E JUMP JUMPDEST PUSH2 0x1505 JUMP JUMPDEST PUSH1 0x40 MLOAD PUSH2 0x3C1 SWAP2 SWAP1 PUSH2 0x2DB6 JUMP JUMPDEST PUSH1 0x40 MLOAD DUP1 SWAP2 SUB SWAP1 RETURN JUMPDEST CALLVALUE DUP1 ISZERO PUSH2 0x3D5 JUMPI PUSH0 DUP1 REVERT JUMPDEST POP PUSH2 0x3F0 PUSH1 0x4 DUP1 CALLDATASIZE SUB DUP2 ADD SWAP1 PUSH2 0x3EB SWAP2 SWAP1 PUSH2 0x2F73 JUMP JUMPDEST PUSH2 0x157A JUMP JUMPDEST STOP JUMPDEST CALLVALUE DUP1 ISZERO PUSH2 0x3FD JUMPI PUSH0 DUP1 REVERT JUMPDEST POP PUSH2 0x418 PUSH1 0x4 DUP1 CALLDATASIZE SUB DUP2 ADD SWAP1 PUSH2 0x413 SWAP2 SWAP1 PUSH2 0x2D5E JUMP JUMPDEST PUSH2 0x194B JUMP JUMPDEST PUSH1 0x40 MLOAD PUSH2 0x425 SWAP2 SWAP1 PUSH2 0x2DB6 JUMP JUMPDEST PUSH1 0x40 MLOAD DUP1 SWAP2 SUB SWAP1 RETURN JUMPDEST CALLVALUE DUP1 ISZERO PUSH2 0x439 JUMPI PUSH0 DUP1 REVERT JUMPDEST POP PUSH2 0x454 PUSH1 0x4 DUP1 CALLDATASIZE SUB DUP2 ADD SWAP1 PUSH2 0x44F SWAP2 SWAP1 PUSH2 0x32ED JUMP JUMPDEST PUSH2 0x196D JUMP JUMPDEST STOP JUMPDEST CALLVALUE DUP1 ISZERO PUSH2 0x461 JUMPI PUSH0 DUP1 REVERT JUMPDEST POP PUSH2 0x47C PUSH1 0x4 DUP1 CALLDATASIZE SUB DUP2 ADD SWAP1 PUSH2 0x477 SWAP2 SWAP1 PUSH2 0x332B JUMP JUMPDEST PUSH2 0x1AE3 JUMP JUMPDEST PUSH1 0x40 MLOAD PUSH2 0x489 SWAP2 SWAP1 PUSH2 0x2DDE JUMP JUMPDEST PUSH1 0x40 MLOAD DUP1 SWAP2 SUB SWAP1 RETURN JUMPDEST CALLVALUE DUP1 ISZERO PUSH2 0x49D JUMPI PUSH0 DUP1 REVERT JUMPDEST POP PUSH2 0x4A6 PUSH2 0x1B65 JUMP JUMPDEST STOP JUMPDEST PUSH1 0x60 PUSH1 0x3 DUP1 SLOAD PUSH2 0x4B7 SWAP1 PUSH2 0x3396 JUMP JUMPDEST DUP1 PUSH1 0x1F ADD PUSH1 0x20 DUP1 SWAP2 DIV MUL PUSH1 0x20 ADD PUSH1 0x40 MLOAD SWAP1 DUP2 ADD PUSH1 0x40 MSTORE DUP1 SWAP3 SWAP2 SWAP1 DUP2 DUP2 MSTORE PUSH1 0x20 ADD DUP3 DUP1 SLOAD PUSH2 0x4E3 SWAP1 PUSH2 0x3396 JUMP JUMPDEST DUP1 ISZERO PUSH2 0x52E JUMPI DUP1 PUSH1 0x1F LT PUSH2 0x505 JUMPI PUSH2 0x100 DUP1 DUP4 SLOAD DIV MUL DUP4 MSTORE SWAP2 PUSH1 0x20 ADD SWAP2 PUSH2 0x52E JUMP JUMPDEST DUP3 ADD SWAP2 SWAP1 PUSH0 MSTORE PUSH1 0x20 PUSH0 KECCAK256 SWAP1 JUMPDEST DUP2 SLOAD DUP2 MSTORE SWAP1 PUSH1 0x1 ADD SWAP1 PUSH1 0x20 ADD DUP1 DUP4 GT PUSH2 0x511 JUMPI DUP3 SWAP1 SUB PUSH1 0x1F AND DUP3 ADD SWAP2 JUMPDEST POP POP POP POP POP SWAP1 POP SWAP1 JUMP JUMPDEST PUSH0 DUP1 PUSH2 0x542 PUSH2 0x1B89 JUMP JUMPDEST SWAP1 POP PUSH2 0x54F DUP2 DUP6 DUP6 PUSH2 0x1B90 JUMP JUMPDEST PUSH1 0x1 SWAP2 POP POP SWAP3 SWAP2 POP POP JUMP JUMPDEST PUSH0 PUSH2 0x563 PUSH2 0x1D53 JUMP JUMPDEST SWAP1 POP PUSH2 0x56E DUP2 PUSH2 0x1E8B JUMP JUMPDEST PUSH2 0x576 PUSH2 0x1D53 JUMP JUMPDEST POP POP JUMP JUMPDEST PUSH0 PUSH1 0x2 SLOAD SWAP1 POP SWAP1 JUMP JUMPDEST PUSH0 DUP1 PUSH2 0x58D PUSH2 0x1B89 JUMP JUMPDEST SWAP1 POP PUSH2 0x59A DUP6 DUP3 DUP6 PUSH2 0x1F24 JUMP JUMPDEST PUSH2 0x5A5 DUP6 DUP6 DUP6 PUSH2 0x1FAF JUMP JUMPDEST PUSH1 0x1 SWAP2 POP POP SWAP4 SWAP3 POP POP POP JUMP JUMPDEST PUSH2 0x5B9 PUSH2 0x2B53 JUMP JUMPDEST DUP2 PUSH1 0x40 MLOAD PUSH1 0x20 ADD PUSH2 0x5CA SWAP2 SWAP1 PUSH2 0x2CA0 JUMP JUMPDEST PUSH1 0x40 MLOAD PUSH1 0x20 DUP2 DUP4 SUB SUB DUP2 MSTORE SWAP1 PUSH1 0x40 MSTORE DUP1 MLOAD SWAP1 PUSH1 0x20 ADD KECCAK256 PUSH1 0xD DUP5 PUSH1 0x40 MLOAD PUSH2 0x5F0 SWAP2 SWAP1 PUSH2 0x3400 JUMP JUMPDEST SWAP1 DUP2 MSTORE PUSH1 0x20 ADD PUSH1 0x40 MLOAD DUP1 SWAP2 SUB SWAP1 KECCAK256 SLOAD EQ PUSH2 0x63F JUMPI PUSH1 0x40 MLOAD PUSH32 0x8C379A000000000000000000000000000000000000000000000000000000000 DUP2 MSTORE PUSH1 0x4 ADD PUSH2 0x636 SWAP1 PUSH2 0x3486 JUMP JUMPDEST PUSH1 0x40 MLOAD DUP1 SWAP2 SUB SWAP1 REVERT JUMPDEST PUSH2 0x647 PUSH2 0x1D53 JUMP JUMPDEST POP PUSH1 0xB PUSH0 PUSH1 0xC DUP6 PUSH1 0x40 MLOAD PUSH2 0x65B SWAP2 SWAP1 PUSH2 0x3400 JUMP JUMPDEST SWAP1 DUP2 MSTORE PUSH1 0x20 ADD PUSH1 0x40 MLOAD DUP1 SWAP2 SUB SWAP1 KECCAK256 PUSH0 SWAP1 SLOAD SWAP1 PUSH2 0x100 EXP SWAP1 DIV PUSH20 0xFFFFFFFFFFFFFFFFFFFFFFFFFFFFFFFFFFFFFFFF AND PUSH20 0xFFFFFFFFFFFFFFFFFFFFFFFFFFFFFFFFFFFFFFFF AND PUSH20 0xFFFFFFFFFFFFFFFFFFFFFFFFFFFFFFFFFFFFFFFF AND DUP2 MSTORE PUSH1 0x20 ADD SWAP1 DUP2 MSTORE PUSH1 0x20 ADD PUSH0 KECCAK256 PUSH1 0x40 MLOAD DUP1 PUSH1 0xE0 ADD PUSH1 0x40 MSTORE SWAP1 DUP2 PUSH0 DUP3 ADD DUP1 SLOAD PUSH2 0x6DC SWAP1 PUSH2 0x3396 JUMP JUMPDEST DUP1 PUSH1 0x1F ADD PUSH1 0x20 DUP1 SWAP2 DIV MUL PUSH1 0x20 ADD PUSH1 0x40 MLOAD SWAP1 DUP2 ADD PUSH1 0x40 MSTORE DUP1 SWAP3 SWAP2 SWAP1 DUP2 DUP2 MSTORE PUSH1 0x20 ADD DUP3 DUP1 SLOAD PUSH2 0x708 SWAP1 PUSH2 0x3396 JUMP JUMPDEST DUP1 ISZERO PUSH2 0x753 JUMPI DUP1 PUSH1 0x1F LT PUSH2 0x72A JUMPI PUSH2 0x100 DUP1 DUP4 SLOAD DIV MUL DUP4 MSTORE SWAP2 PUSH1 0x20 ADD SWAP2 PUSH2 0x753 JUMP JUMPDEST DUP3 ADD SWAP2 SWAP1 PUSH0 MSTORE PUSH1 0x20 PUSH0 KECCAK256 SWAP1 JUMPDEST DUP2 SLOAD DUP2 MSTORE SWAP1 PUSH1 0x1 ADD SWAP1 PUSH1 0x20 ADD DUP1 DUP4 GT PUSH2 0x736 JUMPI DUP3 SWAP1 SUB PUSH1 0x1F AND DUP3 ADD SWAP2 JUMPDEST POP POP POP POP POP DUP2 MSTORE PUSH1 0x20 ADD PUSH1 0x1 DUP3 ADD PUSH0 SWAP1 SLOAD SWAP1 PUSH2 0x100 EXP SWAP1 DIV PUSH20 0xFFFFFFFFFFFFFFFFFFFFFFFFFFFFFFFFFFFFFFFF AND PUSH20 0xFFFFFFFFFFFFFFFFFFFFFFFFFFFFFFFFFFFFFFFF AND PUSH20 0xFFFFFFFFFFFFFFFFFFFFFFFFFFFFFFFFFFFFFFFF AND DUP2 MSTORE PUSH1 0x20 ADD PUSH1 0x1 DUP3 ADD PUSH1 0x14 SWAP1 SLOAD SWAP1 PUSH2 0x100 EXP SWAP1 DIV PUSH1 0xFF AND ISZERO ISZERO ISZERO ISZERO DUP2 MSTORE PUSH1 0x20 ADD PUSH1 0x2 DUP3 ADD SLOAD DUP2 MSTORE PUSH1 0x20 ADD PUSH1 0x3 DUP3 ADD SLOAD DUP2 MSTORE PUSH1 0x20 ADD PUSH1 0x4 DUP3 ADD SLOAD DUP2 MSTORE PUSH1 0x20 ADD PUSH1 0x5 DUP3 ADD PUSH0 SWAP1 SLOAD SWAP1 PUSH2 0x100 EXP SWAP1 DIV PUSH1 0xFF AND PUSH1 0x3 DUP2 GT ISZERO PUSH2 0x80E JUMPI PUSH2 0x80D PUSH2 0x305E JUMP JUMPDEST JUMPDEST PUSH1 0x3 DUP2 GT ISZERO PUSH2 0x820 JUMPI PUSH2 0x81F PUSH2 0x305E JUMP JUMPDEST JUMPDEST DUP2 MSTORE POP POP SWAP1 POP SWAP3 SWAP2 POP POP JUMP JUMPDEST PUSH0 PUSH1 0x2 DUP2 GT ISZERO PUSH2 0x83F JUMPI PUSH2 0x83E PUSH2 0x305E JUMP JUMPDEST JUMPDEST PUSH1 0xA PUSH0 SWAP1 SLOAD SWAP1 PUSH2 0x100 EXP SWAP1 DIV PUSH1 0xFF AND PUSH1 0x2 DUP2 GT ISZERO PUSH2 0x860 JUMPI PUSH2 0x85F PUSH2 0x305E JUMP JUMPDEST JUMPDEST SUB PUSH2 0x8A0 JUMPI PUSH1 0x40 MLOAD PUSH32 0x8C379A000000000000000000000000000000000000000000000000000000000 DUP2 MSTORE PUSH1 0x4 ADD PUSH2 0x897 SWAP1 PUSH2 0x3514 JUMP JUMPDEST PUSH1 0x40 MLOAD DUP1 SWAP2 SUB SWAP1 REVERT JUMPDEST PUSH1 0x9 SLOAD DUP2 GT ISZERO PUSH2 0x8E5 JUMPI PUSH1 0x40 MLOAD PUSH32 0x8C379A000000000000000000000000000000000000000000000000000000000 DUP2 MSTORE PUSH1 0x4 ADD PUSH2 0x8DC SWAP1 PUSH2 0x35EE JUMP JUMPDEST PUSH1 0x40 MLOAD DUP1 SWAP2 SUB SWAP1 REVERT JUMPDEST CALLVALUE DUP2 PUSH1 0x8 SLOAD PUSH2 0x8F4 SWAP2 SWAP1 PUSH2 0x3639 JUMP JUMPDEST GT ISZERO PUSH2 0x935 JUMPI PUSH1 0x40 MLOAD PUSH32 0x8C379A000000000000000000000000000000000000000000000000000000000 DUP2 MSTORE PUSH1 0x4 ADD PUSH2 0x92C SWAP1 PUSH2 0x36EA JUMP JUMPDEST PUSH1 0x40 MLOAD DUP1 SWAP2 SUB SWAP1 REVERT JUMPDEST PUSH1 0x1 PUSH1 0x2 DUP2 GT ISZERO PUSH2 0x949 JUMPI PUSH2 0x948 PUSH2 0x305E JUMP JUMPDEST JUMPDEST PUSH1 0xA PUSH0 SWAP1 SLOAD SWAP1 PUSH2 0x100 EXP SWAP1 DIV PUSH1 0xFF AND PUSH1 0x2 DUP2 GT ISZERO PUSH2 0x96A JUMPI PUSH2 0x969 PUSH2 0x305E JUMP JUMPDEST JUMPDEST SUB PUSH2 0xA6E JUMPI PUSH1 0x1 ISZERO ISZERO PUSH1 0xB PUSH0 CALLER PUSH20 0xFFFFFFFFFFFFFFFFFFFFFFFFFFFFFFFFFFFFFFFF AND PUSH20 0xFFFFFFFFFFFFFFFFFFFFFFFFFFFFFFFFFFFFFFFF AND DUP2 MSTORE PUSH1 0x20 ADD SWAP1 DUP2 MSTORE PUSH1 0x20 ADD PUSH0 KECCAK256 PUSH1 0x1 ADD PUSH1 0x14 SWAP1 SLOAD SWAP1 PUSH2 0x100 EXP SWAP1 DIV PUSH1 0xFF AND ISZERO ISZERO EQ PUSH2 0xA03 JUMPI PUSH1 0x40 MLOAD PUSH32 0x8C379A000000000000000000000000000000000000000000000000000000000 DUP2 MSTORE PUSH1 0x4 ADD PUSH2 0x9FA SWAP1 PUSH2 0x3778 JUMP JUMPDEST PUSH1 0x40 MLOAD DUP1 SWAP2 SUB SWAP1 REVERT JUMPDEST PUSH2 0xA69 PUSH1 0xC PUSH1 0x40 MLOAD PUSH2 0xA14 SWAP1 PUSH2 0x37E0 JUMP JUMPDEST SWAP1 DUP2 MSTORE PUSH1 0x20 ADD PUSH1 0x40 MLOAD DUP1 SWAP2 SUB SWAP1 KECCAK256 PUSH0 SWAP1 SLOAD SWAP1 PUSH2 0x100 EXP SWAP1 DIV PUSH20 0xFFFFFFFFFFFFFFFFFFFFFFFFFFFFFFFFFFFFFFFF AND CALLER PUSH2 0xA4B PUSH2 0xAE1 JUMP JUMPDEST PUSH1 0xA PUSH2 0xA57 SWAP2 SWAP1 PUSH2 0x3923 JUMP JUMPDEST DUP5 PUSH2 0xA62 SWAP2 SWAP1 PUSH2 0x3639 JUMP JUMPDEST PUSH1 0x1 PUSH2 0x221B JUMP JUMPDEST PUSH2 0xAD5 JUMP JUMPDEST PUSH2 0xAD4 PUSH1 0xC PUSH1 0x40 MLOAD PUSH2 0xA7F SWAP1 PUSH2 0x39B7 JUMP JUMPDEST SWAP1 DUP2 MSTORE PUSH1 0x20 ADD PUSH1 0x40 MLOAD DUP1 SWAP2 SUB SWAP1 KECCAK256 PUSH0 SWAP1 SLOAD SWAP1 PUSH2 0x100 EXP SWAP1 DIV PUSH20 0xFFFFFFFFFFFFFFFFFFFFFFFFFFFFFFFFFFFFFFFF AND CALLER PUSH2 0xAB6 PUSH2 0xAE1 JUMP JUMPDEST PUSH1 0xA PUSH2 0xAC2 SWAP2 SWAP1 PUSH2 0x3923 JUMP JUMPDEST DUP5 PUSH2 0xACD SWAP2 SWAP1 PUSH2 0x3639 JUMP JUMPDEST PUSH1 0x2 PUSH2 0x221B JUMP JUMPDEST JUMPDEST PUSH2 0xADD PUSH2 0x1D53 JUMP JUMPDEST POP POP JUMP JUMPDEST PUSH0 PUSH1 0xC SWAP1 POP SWAP1 JUMP JUMPDEST PUSH0 DUP1 PUSH2 0xAF3 PUSH2 0x1B89 JUMP JUMPDEST SWAP1 POP PUSH2 0xB14 DUP2 DUP6 DUP6 PUSH2 0xB05 DUP6 DUP10 PUSH2 0x1AE3 JUMP JUMPDEST PUSH2 0xB0F SWAP2 SWAP1 PUSH2 0x39CB JUMP JUMPDEST PUSH2 0x1B90 JUMP JUMPDEST PUSH1 0x1 SWAP2 POP POP SWAP3 SWAP2 POP POP JUMP JUMPDEST PUSH0 DUP1 PUSH0 DUP4 PUSH20 0xFFFFFFFFFFFFFFFFFFFFFFFFFFFFFFFFFFFFFFFF AND PUSH20 0xFFFFFFFFFFFFFFFFFFFFFFFFFFFFFFFFFFFFFFFF AND DUP2 MSTORE PUSH1 0x20 ADD SWAP1 DUP2 MSTORE PUSH1 0x20 ADD PUSH0 KECCAK256 SLOAD SWAP1 POP SWAP2 SWAP1 POP JUMP JUMPDEST PUSH1 0x2 PUSH1 0xB PUSH0 CALLER PUSH20 0xFFFFFFFFFFFFFFFFFFFFFFFFFFFFFFFFFFFFFFFF AND PUSH20 0xFFFFFFFFFFFFFFFFFFFFFFFFFFFFFFFFFFFFFFFF AND DUP2 MSTORE PUSH1 0x20 ADD SWAP1 DUP2 MSTORE PUSH1 0x20 ADD PUSH0 KECCAK256 PUSH1 0x5 ADD PUSH0 SWAP1 SLOAD SWAP1 PUSH2 0x100 EXP SWAP1 DIV PUSH1 0xFF AND PUSH1 0x3 DUP2 GT ISZERO PUSH2 0xBC5 JUMPI PUSH2 0xBC4 PUSH2 0x305E JUMP JUMPDEST JUMPDEST DUP2 PUSH1 0x3 DUP2 GT ISZERO PUSH2 0xBD8 JUMPI PUSH2 0xBD7 PUSH2 0x305E JUMP JUMPDEST JUMPDEST EQ PUSH2 0xC18 JUMPI PUSH1 0x40 MLOAD PUSH32 0x8C379A000000000000000000000000000000000000000000000000000000000 DUP2 MSTORE PUSH1 0x4 ADD PUSH2 0xC0F SWAP1 PUSH2 0x3A6E JUMP JUMPDEST PUSH1 0x40 MLOAD DUP1 SWAP2 SUB SWAP1 REVERT JUMPDEST PUSH1 0x2 DUP1 PUSH1 0x2 DUP2 GT ISZERO PUSH2 0xC2D JUMPI PUSH2 0xC2C PUSH2 0x305E JUMP JUMPDEST JUMPDEST PUSH1 0xA PUSH0 SWAP1 SLOAD SWAP1 PUSH2 0x100 EXP SWAP1 DIV PUSH1 0xFF AND PUSH1 0x2 DUP2 GT ISZERO PUSH2 0xC4E JUMPI PUSH2 0xC4D PUSH2 0x305E JUMP JUMPDEST JUMPDEST EQ PUSH2 0xC8E JUMPI PUSH1 0x40 MLOAD PUSH32 0x8C379A000000000000000000000000000000000000000000000000000000000 DUP2 MSTORE PUSH1 0x4 ADD PUSH2 0xC85 SWAP1 PUSH2 0x3B22 JUMP JUMPDEST PUSH1 0x40 MLOAD DUP1 SWAP2 SUB SWAP1 REVERT JUMPDEST DUP3 PUSH1 0xFF AND PUSH1 0x8 DUP2 SWAP1 SSTORE POP PUSH2 0xCA0 PUSH2 0x1D53 JUMP JUMPDEST POP POP POP POP JUMP JUMPDEST PUSH1 0x60 PUSH1 0x4 DUP1 SLOAD PUSH2 0xCB5 SWAP1 PUSH2 0x3396 JUMP JUMPDEST DUP1 PUSH1 0x1F ADD PUSH1 0x20 DUP1 SWAP2 DIV MUL PUSH1 0x20 ADD PUSH1 0x40 MLOAD SWAP1 DUP2 ADD PUSH1 0x40 MSTORE DUP1 SWAP3 SWAP2 SWAP1 DUP2 DUP2 MSTORE PUSH1 0x20 ADD DUP3 DUP1 SLOAD PUSH2 0xCE1 SWAP1 PUSH2 0x3396 JUMP JUMPDEST DUP1 ISZERO PUSH2 0xD2C JUMPI DUP1 PUSH1 0x1F LT PUSH2 0xD03 JUMPI PUSH2 0x100 DUP1 DUP4 SLOAD DIV MUL DUP4 MSTORE SWAP2 PUSH1 0x20 ADD SWAP2 PUSH2 0xD2C JUMP JUMPDEST DUP3 ADD SWAP2 SWAP1 PUSH0 MSTORE PUSH1 0x20 PUSH0 KECCAK256 SWAP1 JUMPDEST DUP2 SLOAD DUP2 MSTORE SWAP1 PUSH1 0x1 ADD SWAP1 PUSH1 0x20 ADD DUP1 DUP4 GT PUSH2 0xD0F JUMPI DUP3 SWAP1 SUB PUSH1 0x1F AND DUP3 ADD SWAP2 JUMPDEST POP POP POP POP POP SWAP1 POP SWAP1 JUMP JUMPDEST PUSH0 DUP1 PUSH1 0x2 DUP2 GT ISZERO PUSH2 0xD4A JUMPI PUSH2 0xD49 PUSH2 0x305E JUMP JUMPDEST JUMPDEST PUSH1 0xA PUSH0 SWAP1 SLOAD SWAP1 PUSH2 0x100 EXP SWAP1 DIV PUSH1 0xFF AND PUSH1 0x2 DUP2 GT ISZERO PUSH2 0xD6B JUMPI PUSH2 0xD6A PUSH2 0x305E JUMP JUMPDEST JUMPDEST EQ PUSH2 0xDAB JUMPI PUSH1 0x40 MLOAD PUSH32 0x8C379A000000000000000000000000000000000000000000000000000000000 DUP2 MSTORE PUSH1 0x4 ADD PUSH2 0xDA2 SWAP1 PUSH2 0x3B22 JUMP JUMPDEST PUSH1 0x40 MLOAD DUP1 SWAP2 SUB SWAP1 REVERT JUMPDEST PUSH1 0x40 MLOAD DUP1 PUSH1 0x60 ADD PUSH1 0x40 MSTORE DUP1 PUSH1 0xB PUSH0 CALLER PUSH20 0xFFFFFFFFFFFFFFFFFFFFFFFFFFFFFFFFFFFFFFFF AND PUSH20 0xFFFFFFFFFFFFFFFFFFFFFFFFFFFFFFFFFFFFFFFF AND DUP2 MSTORE PUSH1 0x20 ADD SWAP1 DUP2 MSTORE PUSH1 0x20 ADD PUSH0 KECCAK256 PUSH0 ADD DUP1 SLOAD PUSH2 0xE00 SWAP1 PUSH2 0x3396 JUMP JUMPDEST DUP1 PUSH1 0x1F ADD PUSH1 0x20 DUP1 SWAP2 DIV MUL PUSH1 0x20 ADD PUSH1 0x40 MLOAD SWAP1 DUP2 ADD PUSH1 0x40 MSTORE DUP1 SWAP3 SWAP2 SWAP1 DUP2 DUP2 MSTORE PUSH1 0x20 ADD DUP3 DUP1 SLOAD PUSH2 0xE2C SWAP1 PUSH2 0x3396 JUMP JUMPDEST DUP1 ISZERO PUSH2 0xE77 JUMPI DUP1 PUSH1 0x1F LT PUSH2 0xE4E JUMPI PUSH2 0x100 DUP1 DUP4 SLOAD DIV MUL DUP4 MSTORE SWAP2 PUSH1 0x20 ADD SWAP2 PUSH2 0xE77 JUMP JUMPDEST DUP3 ADD SWAP2 SWAP1 PUSH0 MSTORE PUSH1 0x20 PUSH0 KECCAK256 SWAP1 JUMPDEST DUP2 SLOAD DUP2 MSTORE SWAP1 PUSH1 0x1 ADD SWAP1 PUSH1 0x20 ADD DUP1 DUP4 GT PUSH2 0xE5A JUMPI DUP3 SWAP1 SUB PUSH1 0x1F AND DUP3 ADD SWAP2 JUMPDEST POP POP POP POP POP DUP2 MSTORE PUSH1 0x20 ADD CALLER PUSH20 0xFFFFFFFFFFFFFFFFFFFFFFFFFFFFFFFFFFFFFFFF AND DUP2 MSTORE PUSH1 0x20 ADD PUSH0 ISZERO ISZERO DUP2 MSTORE POP PUSH1 0xE PUSH0 CALLER PUSH20 0xFFFFFFFFFFFFFFFFFFFFFFFFFFFFFFFFFFFFFFFF AND PUSH20 0xFFFFFFFFFFFFFFFFFFFFFFFFFFFFFFFFFFFFFFFF AND DUP2 MSTORE PUSH1 0x20 ADD SWAP1 DUP2 MSTORE PUSH1 0x20 ADD PUSH0 KECCAK256 PUSH0 DUP3 ADD MLOAD DUP2 PUSH0 ADD SWAP1 DUP2 PUSH2 0xEF3 SWAP2 SWAP1 PUSH2 0x3CDD JUMP JUMPDEST POP PUSH1 0x20 DUP3 ADD MLOAD DUP2 PUSH1 0x1 ADD PUSH0 PUSH2 0x100 EXP DUP2 SLOAD DUP2 PUSH20 0xFFFFFFFFFFFFFFFFFFFFFFFFFFFFFFFFFFFFFFFF MUL NOT AND SWAP1 DUP4 PUSH20 0xFFFFFFFFFFFFFFFFFFFFFFFFFFFFFFFFFFFFFFFF AND MUL OR SWAP1 SSTORE POP PUSH1 0x40 DUP3 ADD MLOAD DUP2 PUSH1 0x1 ADD PUSH1 0x14 PUSH2 0x100 EXP DUP2 SLOAD DUP2 PUSH1 0xFF MUL NOT AND SWAP1 DUP4 ISZERO ISZERO MUL OR SWAP1 SSTORE POP SWAP1 POP POP POP JUMP JUMPDEST PUSH0 DUP1 PUSH1 0x2 DUP2 GT ISZERO PUSH2 0xF74 JUMPI PUSH2 0xF73 PUSH2 0x305E JUMP JUMPDEST JUMPDEST PUSH1 0xA PUSH0 SWAP1 SLOAD SWAP1 PUSH2 0x100 EXP SWAP1 DIV PUSH1 0xFF AND PUSH1 0x2 DUP2 GT ISZERO PUSH2 0xF95 JUMPI PUSH2 0xF94 PUSH2 0x305E JUMP JUMPDEST JUMPDEST EQ PUSH2 0xFD5 JUMPI PUSH1 0x40 MLOAD PUSH32 0x8C379A000000000000000000000000000000000000000000000000000000000 DUP2 MSTORE PUSH1 0x4 ADD PUSH2 0xFCC SWAP1 PUSH2 0x3B22 JUMP JUMPDEST PUSH1 0x40 MLOAD DUP1 SWAP2 SUB SWAP1 REVERT JUMPDEST PUSH1 0x1 PUSH1 0xB PUSH0 CALLER PUSH20 0xFFFFFFFFFFFFFFFFFFFFFFFFFFFFFFFFFFFFFFFF AND PUSH20 0xFFFFFFFFFFFFFFFFFFFFFFFFFFFFFFFFFFFFFFFF AND DUP2 MSTORE PUSH1 0x20 ADD SWAP1 DUP2 MSTORE PUSH1 0x20 ADD PUSH0 KECCAK256 PUSH1 0x5 ADD PUSH0 SWAP1 SLOAD SWAP1 PUSH2 0x100 EXP SWAP1 DIV PUSH1 0xFF AND PUSH1 0x3 DUP2 GT ISZERO PUSH2 0x1036 JUMPI PUSH2 0x1035 PUSH2 0x305E JUMP JUMPDEST JUMPDEST DUP2 PUSH1 0x3 DUP2 GT ISZERO PUSH2 0x1049 JUMPI PUSH2 0x1048 PUSH2 0x305E JUMP JUMPDEST JUMPDEST EQ PUSH2 0x1089 JUMPI PUSH1 0x40 MLOAD PUSH32 0x8C379A000000000000000000000000000000000000000000000000000000000 DUP2 MSTORE PUSH1 0x4 ADD PUSH2 0x1080 SWAP1 PUSH2 0x3A6E JUMP JUMPDEST PUSH1 0x40 MLOAD DUP1 SWAP2 SUB SWAP1 REVERT JUMPDEST PUSH0 PUSH20 0xFFFFFFFFFFFFFFFFFFFFFFFFFFFFFFFFFFFFFFFF AND PUSH1 0xC DUP6 PUSH1 0x40 MLOAD PUSH2 0x10B0 SWAP2 SWAP1 PUSH2 0x3400 JUMP JUMPDEST SWAP1 DUP2 MSTORE PUSH1 0x20 ADD PUSH1 0x40 MLOAD DUP1 SWAP2 SUB SWAP1 KECCAK256 PUSH0 SWAP1 SLOAD SWAP1 PUSH2 0x100 EXP SWAP1 DIV PUSH20 0xFFFFFFFFFFFFFFFFFFFFFFFFFFFFFFFFFFFFFFFF AND PUSH20 0xFFFFFFFFFFFFFFFFFFFFFFFFFFFFFFFFFFFFFFFF AND SUB PUSH2 0x1134 JUMPI PUSH1 0x40 MLOAD PUSH32 0x8C379A000000000000000000000000000000000000000000000000000000000 DUP2 MSTORE PUSH1 0x4 ADD PUSH2 0x112B SWAP1 PUSH2 0x3E1C JUMP JUMPDEST PUSH1 0x40 MLOAD DUP1 SWAP2 SUB SWAP1 REVERT JUMPDEST PUSH1 0x1 ISZERO ISZERO DUP4 ISZERO ISZERO SUB PUSH2 0x1408 JUMPI PUSH1 0x1 PUSH1 0xB PUSH0 PUSH1 0xC DUP8 PUSH1 0x40 MLOAD PUSH2 0x1155 SWAP2 SWAP1 PUSH2 0x3400 JUMP JUMPDEST SWAP1 DUP2 MSTORE PUSH1 0x20 ADD PUSH1 0x40 MLOAD DUP1 SWAP2 SUB SWAP1 KECCAK256 PUSH0 SWAP1 SLOAD SWAP1 PUSH2 0x100 EXP SWAP1 DIV PUSH20 0xFFFFFFFFFFFFFFFFFFFFFFFFFFFFFFFFFFFFFFFF AND PUSH20 0xFFFFFFFFFFFFFFFFFFFFFFFFFFFFFFFFFFFFFFFF AND PUSH20 0xFFFFFFFFFFFFFFFFFFFFFFFFFFFFFFFFFFFFFFFF AND DUP2 MSTORE PUSH1 0x20 ADD SWAP1 DUP2 MSTORE PUSH1 0x20 ADD PUSH0 KECCAK256 PUSH1 0x1 ADD PUSH1 0x14 PUSH2 0x100 EXP DUP2 SLOAD DUP2 PUSH1 0xFF MUL NOT AND SWAP1 DUP4 ISZERO ISZERO MUL OR SWAP1 SSTORE POP PUSH1 0x40 MLOAD DUP1 PUSH1 0x60 ADD PUSH1 0x40 MSTORE DUP1 DUP6 DUP2 MSTORE PUSH1 0x20 ADD PUSH1 0xC DUP7 PUSH1 0x40 MLOAD PUSH2 0x11F7 SWAP2 SWAP1 PUSH2 0x3400 JUMP JUMPDEST SWAP1 DUP2 MSTORE PUSH1 0x20 ADD PUSH1 0x40 MLOAD DUP1 SWAP2 SUB SWAP1 KECCAK256 PUSH0 SWAP1 SLOAD SWAP1 PUSH2 0x100 EXP SWAP1 DIV PUSH20 0xFFFFFFFFFFFFFFFFFFFFFFFFFFFFFFFFFFFFFFFF AND PUSH20 0xFFFFFFFFFFFFFFFFFFFFFFFFFFFFFFFFFFFFFFFF AND DUP2 MSTORE PUSH1 0x20 ADD PUSH1 0x1 ISZERO ISZERO DUP2 MSTORE POP PUSH1 0xF PUSH0 PUSH1 0xC DUP8 PUSH1 0x40 MLOAD PUSH2 0x125A SWAP2 SWAP1 PUSH2 0x3400 JUMP JUMPDEST SWAP1 DUP2 MSTORE PUSH1 0x20 ADD PUSH1 0x40 MLOAD DUP1 SWAP2 SUB SWAP1 KECCAK256 PUSH0 SWAP1 SLOAD SWAP1 PUSH2 0x100 EXP SWAP1 DIV PUSH20 0xFFFFFFFFFFFFFFFFFFFFFFFFFFFFFFFFFFFFFFFF AND PUSH20 0xFFFFFFFFFFFFFFFFFFFFFFFFFFFFFFFFFFFFFFFF AND PUSH20 0xFFFFFFFFFFFFFFFFFFFFFFFFFFFFFFFFFFFFFFFF AND DUP2 MSTORE PUSH1 0x20 ADD SWAP1 DUP2 MSTORE PUSH1 0x20 ADD PUSH0 KECCAK256 PUSH0 DUP3 ADD MLOAD DUP2 PUSH0 ADD SWAP1 DUP2 PUSH2 0x12D4 SWAP2 SWAP1 PUSH2 0x3CDD JUMP JUMPDEST POP PUSH1 0x20 DUP3 ADD MLOAD DUP2 PUSH1 0x1 ADD PUSH0 PUSH2 0x100 EXP DUP2 SLOAD DUP2 PUSH20 0xFFFFFFFFFFFFFFFFFFFFFFFFFFFFFFFFFFFFFFFF MUL NOT AND SWAP1 DUP4 PUSH20 0xFFFFFFFFFFFFFFFFFFFFFFFFFFFFFFFFFFFFFFFF AND MUL OR SWAP1 SSTORE POP PUSH1 0x40 DUP3 ADD MLOAD DUP2 PUSH1 0x1 ADD PUSH1 0x14 PUSH2 0x100 EXP DUP2 SLOAD DUP2 PUSH1 0xFF MUL NOT AND SWAP1 DUP4 ISZERO ISZERO MUL OR SWAP1 SSTORE POP SWAP1 POP POP PUSH1 0xE PUSH0 PUSH1 0xC DUP7 PUSH1 0x40 MLOAD PUSH2 0x1351 SWAP2 SWAP1 PUSH2 0x3400 JUMP JUMPDEST SWAP1 DUP2 MSTORE PUSH1 0x20 ADD PUSH1 0x40 MLOAD DUP1 SWAP2 SUB SWAP1 KECCAK256 PUSH0 SWAP1 SLOAD SWAP1 PUSH2 0x100 EXP SWAP1 DIV PUSH20 0xFFFFFFFFFFFFFFFFFFFFFFFFFFFFFFFFFFFFFFFF AND PUSH20 0xFFFFFFFFFFFFFFFFFFFFFFFFFFFFFFFFFFFFFFFF AND PUSH20 0xFFFFFFFFFFFFFFFFFFFFFFFFFFFFFFFFFFFFFFFF AND DUP2 MSTORE PUSH1 0x20 ADD SWAP1 DUP2 MSTORE PUSH1 0x20 ADD PUSH0 KECCAK256 PUSH0 DUP1 DUP3 ADD PUSH0 PUSH2 0x13C7 SWAP2 SWAP1 PUSH2 0x2BB4 JUMP JUMPDEST PUSH1 0x1 DUP3 ADD PUSH0 PUSH2 0x100 EXP DUP2 SLOAD SWAP1 PUSH20 0xFFFFFFFFFFFFFFFFFFFFFFFFFFFFFFFFFFFFFFFF MUL NOT AND SWAP1 SSTORE PUSH1 0x1 DUP3 ADD PUSH1 0x14 PUSH2 0x100 EXP DUP2 SLOAD SWAP1 PUSH1 0xFF MUL NOT AND SWAP1 SSTORE POP POP PUSH2 0x14F6 JUMP JUMPDEST PUSH1 0xB PUSH0 PUSH1 0xC DUP7 PUSH1 0x40 MLOAD PUSH2 0x141B SWAP2 SWAP1 PUSH2 0x3400 JUMP JUMPDEST SWAP1 DUP2 MSTORE PUSH1 0x20 ADD PUSH1 0x40 MLOAD DUP1 SWAP2 SUB SWAP1 KECCAK256 PUSH0 SWAP1 SLOAD SWAP1 PUSH2 0x100 EXP SWAP1 DIV PUSH20 0xFFFFFFFFFFFFFFFFFFFFFFFFFFFFFFFFFFFFFFFF AND PUSH20 0xFFFFFFFFFFFFFFFFFFFFFFFFFFFFFFFFFFFFFFFF AND PUSH20 0xFFFFFFFFFFFFFFFFFFFFFFFFFFFFFFFFFFFFFFFF AND DUP2 MSTORE PUSH1 0x20 ADD SWAP1 DUP2 MSTORE PUSH1 0x20 ADD PUSH0 KECCAK256 PUSH0 DUP1 DUP3 ADD PUSH0 PUSH2 0x1491 SWAP2 SWAP1 PUSH2 0x2BB4 JUMP JUMPDEST PUSH1 0x1 DUP3 ADD PUSH0 PUSH2 0x100 EXP DUP2 SLOAD SWAP1 PUSH20 0xFFFFFFFFFFFFFFFFFFFFFFFFFFFFFFFFFFFFFFFF MUL NOT AND SWAP1 SSTORE PUSH1 0x1 DUP3 ADD PUSH1 0x14 PUSH2 0x100 EXP DUP2 SLOAD SWAP1 PUSH1 0xFF MUL NOT AND SWAP1 SSTORE PUSH1 0x2 DUP3 ADD PUSH0 SWAP1 SSTORE PUSH1 0x3 DUP3 ADD PUSH0 SWAP1 SSTORE PUSH1 0x4 DUP3 ADD PUSH0 SWAP1 SSTORE PUSH1 0x5 DUP3 ADD PUSH0 PUSH2 0x100 EXP DUP2 SLOAD SWAP1 PUSH1 0xFF MUL NOT AND SWAP1 SSTORE POP POP JUMPDEST PUSH2 0x14FE PUSH2 0x1D53 JUMP JUMPDEST POP POP POP POP POP JUMP JUMPDEST PUSH0 DUP1 PUSH2 0x150F PUSH2 0x1B89 JUMP JUMPDEST SWAP1 POP PUSH0 PUSH2 0x151C DUP3 DUP7 PUSH2 0x1AE3 JUMP JUMPDEST SWAP1 POP DUP4 DUP2 LT ISZERO PUSH2 0x1561 JUMPI PUSH1 0x40 MLOAD PUSH32 0x8C379A000000000000000000000000000000000000000000000000000000000 DUP2 MSTORE PUSH1 0x4 ADD PUSH2 0x1558 SWAP1 PUSH2 0x3EAA JUMP JUMPDEST PUSH1 0x40 MLOAD DUP1 SWAP2 SUB SWAP1 REVERT JUMPDEST PUSH2 0x156E DUP3 DUP7 DUP7 DUP5 SUB PUSH2 0x1B90 JUMP JUMPDEST PUSH1 0x1 SWAP3 POP POP POP SWAP3 SWAP2 POP POP JUMP JUMPDEST PUSH0 PUSH20 0xFFFFFFFFFFFFFFFFFFFFFFFFFFFFFFFFFFFFFFFF AND PUSH1 0xC DUP4 PUSH1 0x40 MLOAD PUSH2 0x15A1 SWAP2 SWAP1 PUSH2 0x3400 JUMP JUMPDEST SWAP1 DUP2 MSTORE PUSH1 0x20 ADD PUSH1 0x40 MLOAD DUP1 SWAP2 SUB SWAP1 KECCAK256 PUSH0 SWAP1 SLOAD SWAP1 PUSH2 0x100 EXP SWAP1 DIV PUSH20 0xFFFFFFFFFFFFFFFFFFFFFFFFFFFFFFFFFFFFFFFF AND PUSH20 0xFFFFFFFFFFFFFFFFFFFFFFFFFFFFFFFFFFFFFFFF AND EQ PUSH2 0x1625 JUMPI PUSH1 0x40 MLOAD PUSH32 0x8C379A000000000000000000000000000000000000000000000000000000000 DUP2 MSTORE PUSH1 0x4 ADD PUSH2 0x161C SWAP1 PUSH2 0x3F12 JUMP JUMPDEST PUSH1 0x40 MLOAD DUP1 SWAP2 SUB SWAP1 REVERT JUMPDEST PUSH0 PUSH20 0xFFFFFFFFFFFFFFFFFFFFFFFFFFFFFFFFFFFFFFFF AND PUSH1 0xB PUSH0 PUSH1 0xC DUP6 PUSH1 0x40 MLOAD PUSH2 0x164F SWAP2 SWAP1 PUSH2 0x3400 JUMP JUMPDEST SWAP1 DUP2 MSTORE PUSH1 0x20 ADD PUSH1 0x40 MLOAD DUP1 SWAP2 SUB SWAP1 KECCAK256 PUSH0 SWAP1 SLOAD SWAP1 PUSH2 0x100 EXP SWAP1 DIV PUSH20 0xFFFFFFFFFFFFFFFFFFFFFFFFFFFFFFFFFFFFFFFF AND PUSH20 0xFFFFFFFFFFFFFFFFFFFFFFFFFFFFFFFFFFFFFFFF AND PUSH20 0xFFFFFFFFFFFFFFFFFFFFFFFFFFFFFFFFFFFFFFFF AND DUP2 MSTORE PUSH1 0x20 ADD SWAP1 DUP2 MSTORE PUSH1 0x20 ADD PUSH0 KECCAK256 PUSH1 0x1 ADD PUSH0 SWAP1 SLOAD SWAP1 PUSH2 0x100 EXP SWAP1 DIV PUSH20 0xFFFFFFFFFFFFFFFFFFFFFFFFFFFFFFFFFFFFFFFF AND PUSH20 0xFFFFFFFFFFFFFFFFFFFFFFFFFFFFFFFFFFFFFFFF AND EQ PUSH2 0x16F8 JUMPI PUSH0 DUP1 REVERT JUMPDEST CALLER PUSH1 0xC DUP4 PUSH1 0x40 MLOAD PUSH2 0x1709 SWAP2 SWAP1 PUSH2 0x3400 JUMP JUMPDEST SWAP1 DUP2 MSTORE PUSH1 0x20 ADD PUSH1 0x40 MLOAD DUP1 SWAP2 SUB SWAP1 KECCAK256 PUSH0 PUSH2 0x100 EXP DUP2 SLOAD DUP2 PUSH20 0xFFFFFFFFFFFFFFFFFFFFFFFFFFFFFFFFFFFFFFFF MUL NOT AND SWAP1 DUP4 PUSH20 0xFFFFFFFFFFFFFFFFFFFFFFFFFFFFFFFFFFFFFFFF AND MUL OR SWAP1 SSTORE POP DUP1 PUSH1 0x40 MLOAD PUSH1 0x20 ADD PUSH2 0x1765 SWAP2 SWAP1 PUSH2 0x2CA0 JUMP JUMPDEST PUSH1 0x40 MLOAD PUSH1 0x20 DUP2 DUP4 SUB SUB DUP2 MSTORE SWAP1 PUSH1 0x40 MSTORE DUP1 MLOAD SWAP1 PUSH1 0x20 ADD KECCAK256 PUSH1 0xD DUP4 PUSH1 0x40 MLOAD PUSH2 0x178B SWAP2 SWAP1 PUSH2 0x3400 JUMP JUMPDEST SWAP1 DUP2 MSTORE PUSH1 0x20 ADD PUSH1 0x40 MLOAD DUP1 SWAP2 SUB SWAP1 KECCAK256 DUP2 SWAP1 SSTORE POP PUSH1 0x40 MLOAD DUP1 PUSH1 0xE0 ADD PUSH1 0x40 MSTORE DUP1 DUP4 DUP2 MSTORE PUSH1 0x20 ADD CALLER PUSH20 0xFFFFFFFFFFFFFFFFFFFFFFFFFFFFFFFFFFFFFFFF AND DUP2 MSTORE PUSH1 0x20 ADD PUSH0 ISZERO ISZERO DUP2 MSTORE PUSH1 0x20 ADD PUSH0 DUP2 MSTORE PUSH1 0x20 ADD PUSH0 DUP2 MSTORE PUSH1 0x20 ADD PUSH0 DUP2 MSTORE PUSH1 0x20 ADD PUSH0 PUSH1 0x3 DUP2 GT ISZERO PUSH2 0x17F7 JUMPI PUSH2 0x17F6 PUSH2 0x305E JUMP JUMPDEST JUMPDEST DUP2 MSTORE POP PUSH1 0xB PUSH0 PUSH1 0xC DUP6 PUSH1 0x40 MLOAD PUSH2 0x180D SWAP2 SWAP1 PUSH2 0x3400 JUMP JUMPDEST SWAP1 DUP2 MSTORE PUSH1 0x20 ADD PUSH1 0x40 MLOAD DUP1 SWAP2 SUB SWAP1 KECCAK256 PUSH0 SWAP1 SLOAD SWAP1 PUSH2 0x100 EXP SWAP1 DIV PUSH20 0xFFFFFFFFFFFFFFFFFFFFFFFFFFFFFFFFFFFFFFFF AND PUSH20 0xFFFFFFFFFFFFFFFFFFFFFFFFFFFFFFFFFFFFFFFF AND PUSH20 0xFFFFFFFFFFFFFFFFFFFFFFFFFFFFFFFFFFFFFFFF AND DUP2 MSTORE PUSH1 0x20 ADD SWAP1 DUP2 MSTORE PUSH1 0x20 ADD PUSH0 KECCAK256 PUSH0 DUP3 ADD MLOAD DUP2 PUSH0 ADD SWAP1 DUP2 PUSH2 0x1887 SWAP2 SWAP1 PUSH2 0x3CDD JUMP JUMPDEST POP PUSH1 0x20 DUP3 ADD MLOAD DUP2 PUSH1 0x1 ADD PUSH0 PUSH2 0x100 EXP DUP2 SLOAD DUP2 PUSH20 0xFFFFFFFFFFFFFFFFFFFFFFFFFFFFFFFFFFFFFFFF MUL NOT AND SWAP1 DUP4 PUSH20 0xFFFFFFFFFFFFFFFFFFFFFFFFFFFFFFFFFFFFFFFF AND MUL OR SWAP1 SSTORE POP PUSH1 0x40 DUP3 ADD MLOAD DUP2 PUSH1 0x1 ADD PUSH1 0x14 PUSH2 0x100 EXP DUP2 SLOAD DUP2 PUSH1 0xFF MUL NOT AND SWAP1 DUP4 ISZERO ISZERO MUL OR SWAP1 SSTORE POP PUSH1 0x60 DUP3 ADD MLOAD DUP2 PUSH1 0x2 ADD SSTORE PUSH1 0x80 DUP3 ADD MLOAD DUP2 PUSH1 0x3 ADD SSTORE PUSH1 0xA0 DUP3 ADD MLOAD DUP2 PUSH1 0x4 ADD SSTORE PUSH1 0xC0 DUP3 ADD MLOAD DUP2 PUSH1 0x5 ADD PUSH0 PUSH2 0x100 EXP DUP2 SLOAD DUP2 PUSH1 0xFF MUL NOT AND SWAP1 DUP4 PUSH1 0x3 DUP2 GT ISZERO PUSH2 0x1936 JUMPI PUSH2 0x1935 PUSH2 0x305E JUMP JUMPDEST JUMPDEST MUL OR SWAP1 SSTORE POP SWAP1 POP POP PUSH2 0x1946 PUSH2 0x1D53 JUMP JUMPDEST POP POP POP JUMP JUMPDEST PUSH0 DUP1 PUSH2 0x1955 PUSH2 0x1B89 JUMP JUMPDEST SWAP1 POP PUSH2 0x1962 DUP2 DUP6 DUP6 PUSH2 0x1FAF JUMP JUMPDEST PUSH1 0x1 SWAP2 POP POP SWAP3 SWAP2 POP POP JUMP JUMPDEST PUSH1 0x2 PUSH1 0xB PUSH0 CALLER PUSH20 0xFFFFFFFFFFFFFFFFFFFFFFFFFFFFFFFFFFFFFFFF AND PUSH20 0xFFFFFFFFFFFFFFFFFFFFFFFFFFFFFFFFFFFFFFFF AND DUP2 MSTORE PUSH1 0x20 ADD SWAP1 DUP2 MSTORE PUSH1 0x20 ADD PUSH0 KECCAK256 PUSH1 0x5 ADD PUSH0 SWAP1 SLOAD SWAP1 PUSH2 0x100 EXP SWAP1 DIV PUSH1 0xFF AND PUSH1 0x3 DUP2 GT ISZERO PUSH2 0x19CE JUMPI PUSH2 0x19CD PUSH2 0x305E JUMP JUMPDEST JUMPDEST DUP2 PUSH1 0x3 DUP2 GT ISZERO PUSH2 0x19E1 JUMPI PUSH2 0x19E0 PUSH2 0x305E JUMP JUMPDEST JUMPDEST EQ PUSH2 0x1A21 JUMPI PUSH1 0x40 MLOAD PUSH32 0x8C379A000000000000000000000000000000000000000000000000000000000 DUP2 MSTORE PUSH1 0x4 ADD PUSH2 0x1A18 SWAP1 PUSH2 0x3A6E JUMP JUMPDEST PUSH1 0x40 MLOAD DUP1 SWAP2 SUB SWAP1 REVERT JUMPDEST DUP2 PUSH1 0xFF AND PUSH1 0xB PUSH0 CALLER PUSH20 0xFFFFFFFFFFFFFFFFFFFFFFFFFFFFFFFFFFFFFFFF AND PUSH20 0xFFFFFFFFFFFFFFFFFFFFFFFFFFFFFFFFFFFFFFFF AND DUP2 MSTORE PUSH1 0x20 ADD SWAP1 DUP2 MSTORE PUSH1 0x20 ADD PUSH0 KECCAK256 PUSH1 0x4 ADD SLOAD LT ISZERO PUSH2 0x1AA7 JUMPI PUSH1 0x40 MLOAD PUSH32 0x8C379A000000000000000000000000000000000000000000000000000000000 DUP2 MSTORE PUSH1 0x4 ADD PUSH2 0x1A9E SWAP1 PUSH2 0x3FA0 JUMP JUMPDEST PUSH1 0x40 MLOAD DUP1 SWAP2 SUB SWAP1 REVERT JUMPDEST PUSH2 0x1AD5 CALLER DUP5 PUSH2 0x1AB4 PUSH2 0xAE1 JUMP JUMPDEST PUSH1 0xA PUSH2 0x1AC0 SWAP2 SWAP1 PUSH2 0x3923 JUMP JUMPDEST DUP6 PUSH1 0xFF AND PUSH2 0x1ACE SWAP2 SWAP1 PUSH2 0x3639 JUMP JUMPDEST PUSH1 0x2 PUSH2 0x221B JUMP JUMPDEST PUSH2 0x1ADD PUSH2 0x1D53 JUMP JUMPDEST POP POP POP POP JUMP JUMPDEST PUSH0 PUSH1 0x1 PUSH0 DUP5 PUSH20 0xFFFFFFFFFFFFFFFFFFFFFFFFFFFFFFFFFFFFFFFF AND PUSH20 0xFFFFFFFFFFFFFFFFFFFFFFFFFFFFFFFFFFFFFFFF AND DUP2 MSTORE PUSH1 0x20 ADD SWAP1 DUP2 MSTORE PUSH1 0x20 ADD PUSH0 KECCAK256 PUSH0 DUP4 PUSH20 0xFFFFFFFFFFFFFFFFFFFFFFFFFFFFFFFFFFFFFFFF AND PUSH20 0xFFFFFFFFFFFFFFFFFFFFFFFFFFFFFFFFFFFFFFFF AND DUP2 MSTORE PUSH1 0x20 ADD SWAP1 DUP2 MSTORE PUSH1 0x20 ADD PUSH0 KECCAK256 SLOAD SWAP1 POP SWAP3 SWAP2 POP POP JUMP JUMPDEST PUSH1 0x3C PUSH1 0x7 PUSH0 DUP3 DUP3 SLOAD PUSH2 0x1B77 SWAP2 SWAP1 PUSH2 0x39CB JUMP JUMPDEST SWAP3 POP POP DUP2 SWAP1 SSTORE POP PUSH2 0x1B86 PUSH2 0x1D53 JUMP JUMPDEST POP JUMP JUMPDEST PUSH0 CALLER SWAP1 POP SWAP1 JUMP JUMPDEST PUSH0 PUSH20 0xFFFFFFFFFFFFFFFFFFFFFFFFFFFFFFFFFFFFFFFF AND DUP4 PUSH20 0xFFFFFFFFFFFFFFFFFFFFFFFFFFFFFFFFFFFFFFFF AND SUB PUSH2 0x1BFE JUMPI PUSH1 0x40 MLOAD PUSH32 0x8C379A000000000000000000000000000000000000000000000000000000000 DUP2 MSTORE PUSH1 0x4 ADD PUSH2 0x1BF5 SWAP1 PUSH2 0x402E JUMP JUMPDEST PUSH1 0x40 MLOAD DUP1 SWAP2 SUB SWAP1 REVERT JUMPDEST PUSH0 PUSH20 0xFFFFFFFFFFFFFFFFFFFFFFFFFFFFFFFFFFFFFFFF AND DUP3 PUSH20 0xFFFFFFFFFFFFFFFFFFFFFFFFFFFFFFFFFFFFFFFF AND SUB PUSH2 0x1C6C JUMPI PUSH1 0x40 MLOAD PUSH32 0x8C379A000000000000000000000000000000000000000000000000000000000 DUP2 MSTORE PUSH1 0x4 ADD PUSH2 0x1C63 SWAP1 PUSH2 0x40BC JUMP JUMPDEST PUSH1 0x40 MLOAD DUP1 SWAP2 SUB SWAP1 REVERT JUMPDEST DUP1 PUSH1 0x1 PUSH0 DUP6 PUSH20 0xFFFFFFFFFFFFFFFFFFFFFFFFFFFFFFFFFFFFFFFF AND PUSH20 0xFFFFFFFFFFFFFFFFFFFFFFFFFFFFFFFFFFFFFFFF AND DUP2 MSTORE PUSH1 0x20 ADD SWAP1 DUP2 MSTORE PUSH1 0x20 ADD PUSH0 KECCAK256 PUSH0 DUP5 PUSH20 0xFFFFFFFFFFFFFFFFFFFFFFFFFFFFFFFFFFFFFFFF AND PUSH20 0xFFFFFFFFFFFFFFFFFFFFFFFFFFFFFFFFFFFFFFFF AND DUP2 MSTORE PUSH1 0x20 ADD SWAP1 DUP2 MSTORE PUSH1 0x20 ADD PUSH0 KECCAK256 DUP2 SWAP1 SSTORE POP DUP2 PUSH20 0xFFFFFFFFFFFFFFFFFFFFFFFFFFFFFFFFFFFFFFFF AND DUP4 PUSH20 0xFFFFFFFFFFFFFFFFFFFFFFFFFFFFFFFFFFFFFFFF AND PUSH32 0x8C5BE1E5EBEC7D5BD14F71427D1E84F3DD0314C0F7B2291E5B200AC8C7C3B925 DUP4 PUSH1 0x40 MLOAD PUSH2 0x1D46 SWAP2 SWAP1 PUSH2 0x2DDE JUMP JUMPDEST PUSH1 0x40 MLOAD DUP1 SWAP2 SUB SWAP1 LOG3 POP POP POP JUMP JUMPDEST PUSH0 PUSH1 0x7 SLOAD TIMESTAMP PUSH2 0x1D62 SWAP2 SWAP1 PUSH2 0x39CB JUMP JUMPDEST PUSH1 0x5 DUP2 SWAP1 SSTORE POP PUSH0 PUSH1 0x6 SLOAD PUSH1 0x5 SLOAD PUSH2 0x1D79 SWAP2 SWAP1 PUSH2 0x40DA JUMP JUMPDEST SWAP1 POP PUSH2 0x12C DUP2 GT DUP1 ISZERO PUSH2 0x1D8D JUMPI POP PUSH2 0x384 DUP2 LT JUMPDEST DUP1 ISZERO PUSH2 0x1DCC JUMPI POP PUSH1 0x1 PUSH1 0x2 DUP2 GT ISZERO PUSH2 0x1DA8 JUMPI PUSH2 0x1DA7 PUSH2 0x305E JUMP JUMPDEST JUMPDEST PUSH1 0xA PUSH0 SWAP1 SLOAD SWAP1 PUSH2 0x100 EXP SWAP1 DIV PUSH1 0xFF AND PUSH1 0x2 DUP2 GT ISZERO PUSH2 0x1DC9 JUMPI PUSH2 0x1DC8 PUSH2 0x305E JUMP JUMPDEST JUMPDEST EQ ISZERO JUMPDEST ISZERO PUSH2 0x1E08 JUMPI PUSH1 0x1 PUSH1 0xA PUSH0 PUSH2 0x100 EXP DUP2 SLOAD DUP2 PUSH1 0xFF MUL NOT AND SWAP1 DUP4 PUSH1 0x2 DUP2 GT ISZERO PUSH2 0x1DF6 JUMPI PUSH2 0x1DF5 PUSH2 0x305E JUMP JUMPDEST JUMPDEST MUL OR SWAP1 SSTORE POP PUSH2 0x1E03 PUSH2 0x250F JUMP JUMPDEST PUSH2 0x1E84 JUMP JUMPDEST PUSH2 0x384 DUP2 GT DUP1 ISZERO PUSH2 0x1E4B JUMPI POP PUSH1 0x2 DUP1 DUP2 GT ISZERO PUSH2 0x1E27 JUMPI PUSH2 0x1E26 PUSH2 0x305E JUMP JUMPDEST JUMPDEST PUSH1 0xA PUSH0 SWAP1 SLOAD SWAP1 PUSH2 0x100 EXP SWAP1 DIV PUSH1 0xFF AND PUSH1 0x2 DUP2 GT ISZERO PUSH2 0x1E48 JUMPI PUSH2 0x1E47 PUSH2 0x305E JUMP JUMPDEST JUMPDEST EQ ISZERO JUMPDEST ISZERO PUSH2 0x1E83 JUMPI PUSH1 0x2 PUSH1 0xA PUSH0 PUSH2 0x100 EXP DUP2 SLOAD DUP2 PUSH1 0xFF MUL NOT AND SWAP1 DUP4 PUSH1 0x2 DUP2 GT ISZERO PUSH2 0x1E75 JUMPI PUSH2 0x1E74 PUSH2 0x305E JUMP JUMPDEST JUMPDEST MUL OR SWAP1 SSTORE POP PUSH2 0x1E82 PUSH2 0x250F JUMP JUMPDEST JUMPDEST JUMPDEST DUP1 SWAP2 POP POP SWAP1 JUMP JUMPDEST PUSH2 0x1F21 DUP2 PUSH1 0x40 MLOAD PUSH1 0x24 ADD PUSH2 0x1E9F SWAP2 SWAP1 PUSH2 0x2DDE JUMP JUMPDEST PUSH1 0x40 MLOAD PUSH1 0x20 DUP2 DUP4 SUB SUB DUP2 MSTORE SWAP1 PUSH1 0x40 MSTORE PUSH32 0xF82C50F100000000000000000000000000000000000000000000000000000000 PUSH28 0xFFFFFFFFFFFFFFFFFFFFFFFFFFFFFFFFFFFFFFFFFFFFFFFFFFFFFFFF NOT AND PUSH1 0x20 DUP3 ADD DUP1 MLOAD PUSH28 0xFFFFFFFFFFFFFFFFFFFFFFFFFFFFFFFFFFFFFFFFFFFFFFFFFFFFFFFF DUP4 DUP2 DUP4 AND OR DUP4 MSTORE POP POP POP POP PUSH2 0x2B05 JUMP JUMPDEST POP JUMP JUMPDEST PUSH0 PUSH2 0x1F2F DUP5 DUP5 PUSH2 0x1AE3 JUMP JUMPDEST SWAP1 POP PUSH32 0xFFFFFFFFFFFFFFFFFFFFFFFFFFFFFFFFFFFFFFFFFFFFFFFFFFFFFFFFFFFFFFFF DUP2 EQ PUSH2 0x1FA9 JUMPI DUP2 DUP2 LT ISZERO PUSH2 0x1F9B JUMPI PUSH1 0x40 MLOAD PUSH32 0x8C379A000000000000000000000000000000000000000000000000000000000 DUP2 MSTORE PUSH1 0x4 ADD PUSH2 0x1F92 SWAP1 PUSH2 0x4157 JUMP JUMPDEST PUSH1 0x40 MLOAD DUP1 SWAP2 SUB SWAP1 REVERT JUMPDEST PUSH2 0x1FA8 DUP5 DUP5 DUP5 DUP5 SUB PUSH2 0x1B90 JUMP JUMPDEST JUMPDEST POP POP POP POP JUMP JUMPDEST PUSH0 PUSH20 0xFFFFFFFFFFFFFFFFFFFFFFFFFFFFFFFFFFFFFFFF AND DUP4 PUSH20 0xFFFFFFFFFFFFFFFFFFFFFFFFFFFFFFFFFFFFFFFF AND SUB PUSH2 0x201D JUMPI PUSH1 0x40 MLOAD PUSH32 0x8C379A000000000000000000000000000000000000000000000000000000000 DUP2 MSTORE PUSH1 0x4 ADD PUSH2 0x2014 SWAP1 PUSH2 0x41E5 JUMP JUMPDEST PUSH1 0x40 MLOAD DUP1 SWAP2 SUB SWAP1 REVERT JUMPDEST PUSH0 PUSH20 0xFFFFFFFFFFFFFFFFFFFFFFFFFFFFFFFFFFFFFFFF AND DUP3 PUSH20 0xFFFFFFFFFFFFFFFFFFFFFFFFFFFFFFFFFFFFFFFF AND SUB PUSH2 0x208B JUMPI PUSH1 0x40 MLOAD PUSH32 0x8C379A000000000000000000000000000000000000000000000000000000000 DUP2 MSTORE PUSH1 0x4 ADD PUSH2 0x2082 SWAP1 PUSH2 0x4273 JUMP JUMPDEST PUSH1 0x40 MLOAD DUP1 SWAP2 SUB SWAP1 REVERT JUMPDEST PUSH2 0x2096 DUP4 DUP4 DUP4 PUSH2 0x2B1F JUMP JUMPDEST PUSH0 DUP1 PUSH0 DUP6 PUSH20 0xFFFFFFFFFFFFFFFFFFFFFFFFFFFFFFFFFFFFFFFF AND PUSH20 0xFFFFFFFFFFFFFFFFFFFFFFFFFFFFFFFFFFFFFFFF AND DUP2 MSTORE PUSH1 0x20 ADD SWAP1 DUP2 MSTORE PUSH1 0x20 ADD PUSH0 KECCAK256 SLOAD SWAP1 POP DUP2 DUP2 LT ISZERO PUSH2 0x2119 JUMPI PUSH1 0x40 MLOAD PUSH32 0x8C379A000000000000000000000000000000000000000000000000000000000 DUP2 MSTORE PUSH1 0x4 ADD PUSH2 0x2110 SWAP1 PUSH2 0x4301 JUMP JUMPDEST PUSH1 0x40 MLOAD DUP1 SWAP2 SUB SWAP1 REVERT JUMPDEST DUP2 DUP2 SUB PUSH0 DUP1 DUP7 PUSH20 0xFFFFFFFFFFFFFFFFFFFFFFFFFFFFFFFFFFFFFFFF AND PUSH20 0xFFFFFFFFFFFFFFFFFFFFFFFFFFFFFFFFFFFFFFFF AND DUP2 MSTORE PUSH1 0x20 ADD SWAP1 DUP2 MSTORE PUSH1 0x20 ADD PUSH0 KECCAK256 DUP2 SWAP1 SSTORE POP DUP2 PUSH0 DUP1 DUP6 PUSH20 0xFFFFFFFFFFFFFFFFFFFFFFFFFFFFFFFFFFFFFFFF AND PUSH20 0xFFFFFFFFFFFFFFFFFFFFFFFFFFFFFFFFFFFFFFFF AND DUP2 MSTORE PUSH1 0x20 ADD SWAP1 DUP2 MSTORE PUSH1 0x20 ADD PUSH0 KECCAK256 PUSH0 DUP3 DUP3 SLOAD ADD SWAP3 POP POP DUP2 SWAP1 SSTORE POP DUP3 PUSH20 0xFFFFFFFFFFFFFFFFFFFFFFFFFFFFFFFFFFFFFFFF AND DUP5 PUSH20 0xFFFFFFFFFFFFFFFFFFFFFFFFFFFFFFFFFFFFFFFF AND PUSH32 0xDDF252AD1BE2C89B69C2B068FC378DAA952BA7F163C4A11628F55A4DF523B3EF DUP5 PUSH1 0x40 MLOAD PUSH2 0x2202 SWAP2 SWAP1 PUSH2 0x2DDE JUMP JUMPDEST PUSH1 0x40 MLOAD DUP1 SWAP2 SUB SWAP1 LOG3 PUSH2 0x2215 DUP5 DUP5 DUP5 PUSH2 0x2B24 JUMP JUMPDEST POP POP POP POP JUMP JUMPDEST PUSH0 PUSH20 0xFFFFFFFFFFFFFFFFFFFFFFFFFFFFFFFFFFFFFFFF AND DUP4 PUSH20 0xFFFFFFFFFFFFFFFFFFFFFFFFFFFFFFFFFFFFFFFF AND SUB PUSH2 0x2289 JUMPI PUSH1 0x40 MLOAD PUSH32 0x8C379A000000000000000000000000000000000000000000000000000000000 DUP2 MSTORE PUSH1 0x4 ADD PUSH2 0x2280 SWAP1 PUSH2 0x43B5 JUMP JUMPDEST PUSH1 0x40 MLOAD DUP1 SWAP2 SUB SWAP1 REVERT JUMPDEST PUSH1 0x2 DUP2 PUSH1 0xFF AND GT ISZERO PUSH2 0x22D0 JUMPI PUSH1 0x40 MLOAD PUSH32 0x8C379A000000000000000000000000000000000000000000000000000000000 DUP2 MSTORE PUSH1 0x4 ADD PUSH2 0x22C7 SWAP1 PUSH2 0x4469 JUMP JUMPDEST PUSH1 0x40 MLOAD DUP1 SWAP2 SUB SWAP1 REVERT JUMPDEST PUSH0 DUP2 PUSH1 0xFF AND SUB PUSH2 0x238B JUMPI DUP2 PUSH1 0xB PUSH0 DUP7 PUSH20 0xFFFFFFFFFFFFFFFFFFFFFFFFFFFFFFFFFFFFFFFF AND PUSH20 0xFFFFFFFFFFFFFFFFFFFFFFFFFFFFFFFFFFFFFFFF AND DUP2 MSTORE PUSH1 0x20 ADD SWAP1 DUP2 MSTORE PUSH1 0x20 ADD PUSH0 KECCAK256 PUSH1 0x2 ADD PUSH0 DUP3 DUP3 SLOAD PUSH2 0x2329 SWAP2 SWAP1 PUSH2 0x40DA JUMP JUMPDEST SWAP3 POP POP DUP2 SWAP1 SSTORE POP DUP2 PUSH1 0xB PUSH0 DUP6 PUSH20 0xFFFFFFFFFFFFFFFFFFFFFFFFFFFFFFFFFFFFFFFF AND PUSH20 0xFFFFFFFFFFFFFFFFFFFFFFFFFFFFFFFFFFFFFFFF AND DUP2 MSTORE PUSH1 0x20 ADD SWAP1 DUP2 MSTORE PUSH1 0x20 ADD PUSH0 KECCAK256 PUSH1 0x2 ADD PUSH0 DUP3 DUP3 SLOAD PUSH2 0x237F SWAP2 SWAP1 PUSH2 0x39CB JUMP JUMPDEST SWAP3 POP POP DUP2 SWAP1 SSTORE POP PUSH2 0x2509 JUMP JUMPDEST PUSH1 0x1 DUP2 PUSH1 0xFF AND SUB PUSH2 0x2447 JUMPI DUP2 PUSH1 0xB PUSH0 DUP7 PUSH20 0xFFFFFFFFFFFFFFFFFFFFFFFFFFFFFFFFFFFFFFFF AND PUSH20 0xFFFFFFFFFFFFFFFFFFFFFFFFFFFFFFFFFFFFFFFF AND DUP2 MSTORE PUSH1 0x20 ADD SWAP1 DUP2 MSTORE PUSH1 0x20 ADD PUSH0 KECCAK256 PUSH1 0x3 ADD PUSH0 DUP3 DUP3 SLOAD PUSH2 0x23E5 SWAP2 SWAP1 PUSH2 0x40DA JUMP JUMPDEST SWAP3 POP POP DUP2 SWAP1 SSTORE POP DUP2 PUSH1 0xB PUSH0 DUP6 PUSH20 0xFFFFFFFFFFFFFFFFFFFFFFFFFFFFFFFFFFFFFFFF AND PUSH20 0xFFFFFFFFFFFFFFFFFFFFFFFFFFFFFFFFFFFFFFFF AND DUP2 MSTORE PUSH1 0x20 ADD SWAP1 DUP2 MSTORE PUSH1 0x20 ADD PUSH0 KECCAK256 PUSH1 0x3 ADD PUSH0 DUP3 DUP3 SLOAD PUSH2 0x243B SWAP2 SWAP1 PUSH2 0x39CB JUMP JUMPDEST SWAP3 POP POP DUP2 SWAP1 SSTORE POP PUSH2 0x24F4 JUMP JUMPDEST DUP2 PUSH1 0xB PUSH0 DUP7 PUSH20 0xFFFFFFFFFFFFFFFFFFFFFFFFFFFFFFFFFFFFFFFF AND PUSH20 0xFFFFFFFFFFFFFFFFFFFFFFFFFFFFFFFFFFFFFFFF AND DUP2 MSTORE PUSH1 0x20 ADD SWAP1 DUP2 MSTORE PUSH1 0x20 ADD PUSH0 KECCAK256 PUSH1 0x4 ADD PUSH0 DUP3 DUP3 SLOAD PUSH2 0x2496 SWAP2 SWAP1 PUSH2 0x40DA JUMP JUMPDEST SWAP3 POP POP DUP2 SWAP1 SSTORE POP DUP2 PUSH1 0xB PUSH0 DUP6 PUSH20 0xFFFFFFFFFFFFFFFFFFFFFFFFFFFFFFFFFFFFFFFF AND PUSH20 0xFFFFFFFFFFFFFFFFFFFFFFFFFFFFFFFFFFFFFFFF AND DUP2 MSTORE PUSH1 0x20 ADD SWAP1 DUP2 MSTORE PUSH1 0x20 ADD PUSH0 KECCAK256 PUSH1 0x4 ADD PUSH0 DUP3 DUP3 SLOAD PUSH2 0x24EC SWAP2 SWAP1 PUSH2 0x39CB JUMP JUMPDEST SWAP3 POP POP DUP2 SWAP1 SSTORE POP JUMPDEST PUSH2 0x24FF DUP5 DUP5 DUP5 PUSH2 0x1FAF JUMP JUMPDEST PUSH2 0x2507 PUSH2 0x1D53 JUMP JUMPDEST POP JUMPDEST POP POP POP POP JUMP JUMPDEST PUSH1 0x1 PUSH1 0x2 DUP2 GT ISZERO PUSH2 0x2523 JUMPI PUSH2 0x2522 PUSH2 0x305E JUMP JUMPDEST JUMPDEST PUSH1 0xA PUSH0 SWAP1 SLOAD SWAP1 PUSH2 0x100 EXP SWAP1 DIV PUSH1 0xFF AND PUSH1 0x2 DUP2 GT ISZERO PUSH2 0x2544 JUMPI PUSH2 0x2543 PUSH2 0x305E JUMP JUMPDEST JUMPDEST SUB PUSH2 0x278A JUMPI PUSH7 0x2AA1EFB94E000 PUSH1 0x8 DUP2 SWAP1 SSTORE POP PUSH2 0x255F PUSH2 0xAE1 JUMP JUMPDEST PUSH1 0xA PUSH2 0x256B SWAP2 SWAP1 PUSH2 0x3923 JUMP JUMPDEST PUSH3 0x186A0 PUSH2 0x2579 SWAP2 SWAP1 PUSH2 0x3639 JUMP JUMPDEST PUSH1 0x9 DUP2 SWAP1 SSTORE POP PUSH2 0x2587 PUSH2 0xAE1 JUMP JUMPDEST PUSH1 0xA PUSH2 0x2593 SWAP2 SWAP1 PUSH2 0x3923 JUMP JUMPDEST PUSH3 0x2DC6C0 PUSH2 0x25A1 SWAP2 SWAP1 PUSH2 0x3639 JUMP JUMPDEST PUSH1 0xB PUSH0 PUSH1 0xC PUSH1 0x40 MLOAD PUSH2 0x25B2 SWAP1 PUSH2 0x44D1 JUMP JUMPDEST SWAP1 DUP2 MSTORE PUSH1 0x20 ADD PUSH1 0x40 MLOAD DUP1 SWAP2 SUB SWAP1 KECCAK256 PUSH0 SWAP1 SLOAD SWAP1 PUSH2 0x100 EXP SWAP1 DIV PUSH20 0xFFFFFFFFFFFFFFFFFFFFFFFFFFFFFFFFFFFFFFFF AND PUSH20 0xFFFFFFFFFFFFFFFFFFFFFFFFFFFFFFFFFFFFFFFF AND PUSH20 0xFFFFFFFFFFFFFFFFFFFFFFFFFFFFFFFFFFFFFFFF AND DUP2 MSTORE PUSH1 0x20 ADD SWAP1 DUP2 MSTORE PUSH1 0x20 ADD PUSH0 KECCAK256 PUSH1 0x3 ADD PUSH0 DUP3 DUP3 SLOAD PUSH2 0x262A SWAP2 SWAP1 PUSH2 0x40DA JUMP JUMPDEST SWAP3 POP POP DUP2 SWAP1 SSTORE POP PUSH2 0x2639 PUSH2 0xAE1 JUMP JUMPDEST PUSH1 0xA PUSH2 0x2645 SWAP2 SWAP1 PUSH2 0x3923 JUMP JUMPDEST PUSH3 0x2DC6C0 PUSH2 0x2653 SWAP2 SWAP1 PUSH2 0x3639 JUMP JUMPDEST PUSH1 0xB PUSH0 PUSH1 0xC PUSH1 0x40 MLOAD PUSH2 0x2664 SWAP1 PUSH2 0x37E0 JUMP JUMPDEST SWAP1 DUP2 MSTORE PUSH1 0x20 ADD PUSH1 0x40 MLOAD DUP1 SWAP2 SUB SWAP1 KECCAK256 PUSH0 SWAP1 SLOAD SWAP1 PUSH2 0x100 EXP SWAP1 DIV PUSH20 0xFFFFFFFFFFFFFFFFFFFFFFFFFFFFFFFFFFFFFFFF AND PUSH20 0xFFFFFFFFFFFFFFFFFFFFFFFFFFFFFFFFFFFFFFFF AND PUSH20 0xFFFFFFFFFFFFFFFFFFFFFFFFFFFFFFFFFFFFFFFF AND DUP2 MSTORE PUSH1 0x20 ADD SWAP1 DUP2 MSTORE PUSH1 0x20 ADD PUSH0 KECCAK256 PUSH1 0x3 ADD PUSH0 DUP3 DUP3 SLOAD PUSH2 0x26DC SWAP2 SWAP1 PUSH2 0x39CB JUMP JUMPDEST SWAP3 POP POP DUP2 SWAP1 SSTORE POP PUSH2 0x2785 PUSH1 0xC PUSH1 0x40 MLOAD PUSH2 0x26F4 SWAP1 PUSH2 0x44D1 JUMP JUMPDEST SWAP1 DUP2 MSTORE PUSH1 0x20 ADD PUSH1 0x40 MLOAD DUP1 SWAP2 SUB SWAP1 KECCAK256 PUSH0 SWAP1 SLOAD SWAP1 PUSH2 0x100 EXP SWAP1 DIV PUSH20 0xFFFFFFFFFFFFFFFFFFFFFFFFFFFFFFFFFFFFFFFF AND PUSH1 0xC PUSH1 0x40 MLOAD PUSH2 0x2730 SWAP1 PUSH2 0x37E0 JUMP JUMPDEST SWAP1 DUP2 MSTORE PUSH1 0x20 ADD PUSH1 0x40 MLOAD DUP1 SWAP2 SUB SWAP1 KECCAK256 PUSH0 SWAP1 SLOAD SWAP1 PUSH2 0x100 EXP SWAP1 DIV PUSH20 0xFFFFFFFFFFFFFFFFFFFFFFFFFFFFFFFFFFFFFFFF AND PUSH2 0x2766 PUSH2 0xAE1 JUMP JUMPDEST PUSH1 0xA PUSH2 0x2772 SWAP2 SWAP1 PUSH2 0x3923 JUMP JUMPDEST PUSH3 0x2DC6C0 PUSH2 0x2780 SWAP2 SWAP1 PUSH2 0x3639 JUMP JUMPDEST PUSH2 0x1FAF JUMP JUMPDEST PUSH2 0x2B03 JUMP JUMPDEST PUSH1 0x2 DUP1 DUP2 GT ISZERO PUSH2 0x279D JUMPI PUSH2 0x279C PUSH2 0x305E JUMP JUMPDEST JUMPDEST PUSH1 0xA PUSH0 SWAP1 SLOAD SWAP1 PUSH2 0x100 EXP SWAP1 DIV PUSH1 0xFF AND PUSH1 0x2 DUP2 GT ISZERO PUSH2 0x27BE JUMPI PUSH2 0x27BD PUSH2 0x305E JUMP JUMPDEST JUMPDEST SUB PUSH2 0x2B02 JUMPI PUSH7 0x38D7EA4C68000 PUSH1 0x8 DUP2 SWAP1 SSTORE POP PUSH2 0x27D9 PUSH2 0xAE1 JUMP JUMPDEST PUSH1 0xA PUSH2 0x27E5 SWAP2 SWAP1 PUSH2 0x3923 JUMP JUMPDEST PUSH2 0x1388 PUSH2 0x27F2 SWAP2 SWAP1 PUSH2 0x3639 JUMP JUMPDEST PUSH1 0x9 DUP2 SWAP1 SSTORE POP PUSH0 PUSH1 0xB PUSH0 PUSH1 0xC PUSH1 0x40 MLOAD PUSH2 0x280A SWAP1 PUSH2 0x37E0 JUMP JUMPDEST SWAP1 DUP2 MSTORE PUSH1 0x20 ADD PUSH1 0x40 MLOAD DUP1 SWAP2 SUB SWAP1 KECCAK256 PUSH0 SWAP1 SLOAD SWAP1 PUSH2 0x100 EXP SWAP1 DIV PUSH20 0xFFFFFFFFFFFFFFFFFFFFFFFFFFFFFFFFFFFFFFFF AND PUSH20 0xFFFFFFFFFFFFFFFFFFFFFFFFFFFFFFFFFFFFFFFF AND PUSH20 0xFFFFFFFFFFFFFFFFFFFFFFFFFFFFFFFFFFFFFFFF AND DUP2 MSTORE PUSH1 0x20 ADD SWAP1 DUP2 MSTORE PUSH1 0x20 ADD PUSH0 KECCAK256 PUSH1 0x3 ADD SLOAD SWAP1 POP PUSH2 0x28FA PUSH1 0xC PUSH1 0x40 MLOAD PUSH2 0x2888 SWAP1 PUSH2 0x37E0 JUMP JUMPDEST SWAP1 DUP2 MSTORE PUSH1 0x20 ADD PUSH1 0x40 MLOAD DUP1 SWAP2 SUB SWAP1 KECCAK256 PUSH0 SWAP1 SLOAD SWAP1 PUSH2 0x100 EXP SWAP1 DIV PUSH20 0xFFFFFFFFFFFFFFFFFFFFFFFFFFFFFFFFFFFFFFFF AND PUSH1 0xC PUSH1 0x40 MLOAD PUSH2 0x28C4 SWAP1 PUSH2 0x44D1 JUMP JUMPDEST SWAP1 DUP2 MSTORE PUSH1 0x20 ADD PUSH1 0x40 MLOAD DUP1 SWAP2 SUB SWAP1 KECCAK256 PUSH0 SWAP1 SLOAD SWAP1 PUSH2 0x100 EXP SWAP1 DIV PUSH20 0xFFFFFFFFFFFFFFFFFFFFFFFFFFFFFFFFFFFFFFFF AND DUP4 PUSH1 0x1 PUSH2 0x221B JUMP JUMPDEST PUSH2 0x2902 PUSH2 0xAE1 JUMP JUMPDEST PUSH1 0xA PUSH2 0x290E SWAP2 SWAP1 PUSH2 0x3923 JUMP JUMPDEST PUSH3 0x5B8D80 PUSH2 0x291C SWAP2 SWAP1 PUSH2 0x3639 JUMP JUMPDEST PUSH1 0xB PUSH0 PUSH1 0xC PUSH1 0x40 MLOAD PUSH2 0x292D SWAP1 PUSH2 0x44D1 JUMP JUMPDEST SWAP1 DUP2 MSTORE PUSH1 0x20 ADD PUSH1 0x40 MLOAD DUP1 SWAP2 SUB SWAP1 KECCAK256 PUSH0 SWAP1 SLOAD SWAP1 PUSH2 0x100 EXP SWAP1 DIV PUSH20 0xFFFFFFFFFFFFFFFFFFFFFFFFFFFFFFFFFFFFFFFF AND PUSH20 0xFFFFFFFFFFFFFFFFFFFFFFFFFFFFFFFFFFFFFFFF AND PUSH20 0xFFFFFFFFFFFFFFFFFFFFFFFFFFFFFFFFFFFFFFFF AND DUP2 MSTORE PUSH1 0x20 ADD SWAP1 DUP2 MSTORE PUSH1 0x20 ADD PUSH0 KECCAK256 PUSH1 0x4 ADD PUSH0 DUP3 DUP3 SLOAD PUSH2 0x29A5 SWAP2 SWAP1 PUSH2 0x40DA JUMP JUMPDEST SWAP3 POP POP DUP2 SWAP1 SSTORE POP PUSH2 0x29B4 PUSH2 0xAE1 JUMP JUMPDEST PUSH1 0xA PUSH2 0x29C0 SWAP2 SWAP1 PUSH2 0x3923 JUMP JUMPDEST PUSH3 0x5B8D80 PUSH2 0x29CE SWAP2 SWAP1 PUSH2 0x3639 JUMP JUMPDEST PUSH1 0xB PUSH0 PUSH1 0xC PUSH1 0x40 MLOAD PUSH2 0x29DF SWAP1 PUSH2 0x39B7 JUMP JUMPDEST SWAP1 DUP2 MSTORE PUSH1 0x20 ADD PUSH1 0x40 MLOAD DUP1 SWAP2 SUB SWAP1 KECCAK256 PUSH0 SWAP1 SLOAD SWAP1 PUSH2 0x100 EXP SWAP1 DIV PUSH20 0xFFFFFFFFFFFFFFFFFFFFFFFFFFFFFFFFFFFFFFFF AND PUSH20 0xFFFFFFFFFFFFFFFFFFFFFFFFFFFFFFFFFFFFFFFF AND PUSH20 0xFFFFFFFFFFFFFFFFFFFFFFFFFFFFFFFFFFFFFFFF AND DUP2 MSTORE PUSH1 0x20 ADD SWAP1 DUP2 MSTORE PUSH1 0x20 ADD PUSH0 KECCAK256 PUSH1 0x4 ADD PUSH0 DUP3 DUP3 SLOAD PUSH2 0x2A57 SWAP2 SWAP1 PUSH2 0x39CB JUMP JUMPDEST SWAP3 POP POP DUP2 SWAP1 SSTORE POP PUSH2 0x2B00 PUSH1 0xC PUSH1 0x40 MLOAD PUSH2 0x2A6F SWAP1 PUSH2 0x44D1 JUMP JUMPDEST SWAP1 DUP2 MSTORE PUSH1 0x20 ADD PUSH1 0x40 MLOAD DUP1 SWAP2 SUB SWAP1 KECCAK256 PUSH0 SWAP1 SLOAD SWAP1 PUSH2 0x100 EXP SWAP1 DIV PUSH20 0xFFFFFFFFFFFFFFFFFFFFFFFFFFFFFFFFFFFFFFFF AND PUSH1 0xC PUSH1 0x40 MLOAD PUSH2 0x2AAB SWAP1 PUSH2 0x39B7 JUMP JUMPDEST SWAP1 DUP2 MSTORE PUSH1 0x20 ADD PUSH1 0x40 MLOAD DUP1 SWAP2 SUB SWAP1 KECCAK256 PUSH0 SWAP1 SLOAD SWAP1 PUSH2 0x100 EXP SWAP1 DIV PUSH20 0xFFFFFFFFFFFFFFFFFFFFFFFFFFFFFFFFFFFFFFFF AND PUSH2 0x2AE1 PUSH2 0xAE1 JUMP JUMPDEST PUSH1 0xA PUSH2 0x2AED SWAP2 SWAP1 PUSH2 0x3923 JUMP JUMPDEST PUSH3 0x5B8D80 PUSH2 0x2AFB SWAP2 SWAP1 PUSH2 0x3639 JUMP JUMPDEST PUSH2 0x1FAF JUMP JUMPDEST POP JUMPDEST JUMPDEST JUMP JUMPDEST PUSH2 0x2B1C DUP2 PUSH2 0x2B14 PUSH2 0x2B29 PUSH2 0x2B48 JUMP JUMPDEST PUSH4 0xFFFFFFFF AND JUMP JUMPDEST POP JUMP JUMPDEST POP POP POP JUMP JUMPDEST POP POP POP JUMP JUMPDEST PUSH0 PUSH11 0x636F6E736F6C652E6C6F67 SWAP1 POP PUSH0 DUP1 DUP4 MLOAD PUSH1 0x20 DUP6 ADD DUP5 GAS STATICCALL POP POP POP JUMP JUMPDEST PUSH2 0x2BF1 DUP2 SWAP1 POP SWAP2 SWAP1 POP JUMP JUMPDEST PUSH1 0x40 MLOAD DUP1 PUSH1 0xE0 ADD PUSH1 0x40 MSTORE DUP1 PUSH1 0x60 DUP2 MSTORE PUSH1 0x20 ADD PUSH0 PUSH20 0xFFFFFFFFFFFFFFFFFFFFFFFFFFFFFFFFFFFFFFFF AND DUP2 MSTORE PUSH1 0x20 ADD PUSH0 ISZERO ISZERO DUP2 MSTORE PUSH1 0x20 ADD PUSH0 DUP2 MSTORE PUSH1 0x20 ADD PUSH0 DUP2 MSTORE PUSH1 0x20 ADD PUSH0 DUP2 MSTORE PUSH1 0x20 ADD PUSH0 PUSH1 0x3 DUP2 GT ISZERO PUSH2 0x2BAE JUMPI PUSH2 0x2BAD PUSH2 0x305E JUMP JUMPDEST JUMPDEST DUP2 MSTORE POP SWAP1 JUMP JUMPDEST POP DUP1 SLOAD PUSH2 0x2BC0 SWAP1 PUSH2 0x3396 JUMP JUMPDEST PUSH0 DUP3 SSTORE DUP1 PUSH1 0x1F LT PUSH2 0x2BD1 JUMPI POP PUSH2 0x2BEE JUMP JUMPDEST PUSH1 0x1F ADD PUSH1 0x20 SWAP1 DIV SWAP1 PUSH0 MSTORE PUSH1 0x20 PUSH0 KECCAK256 SWAP1 DUP2 ADD SWAP1 PUSH2 0x2BED SWAP2 SWAP1 PUSH2 0x2BFB JUMP JUMPDEST JUMPDEST POP JUMP JUMPDEST PUSH2 0x2BF9 PUSH2 0x44E5 JUMP JUMPDEST JUMP JUMPDEST JUMPDEST DUP1 DUP3 GT ISZERO PUSH2 0x2C12 JUMPI PUSH0 DUP2 PUSH0 SWAP1 SSTORE POP PUSH1 0x1 ADD PUSH2 0x2BFC JUMP JUMPDEST POP SWAP1 JUMP JUMPDEST PUSH0 DUP2 MLOAD SWAP1 POP SWAP2 SWAP1 POP JUMP JUMPDEST PUSH0 DUP3 DUP3 MSTORE PUSH1 0x20 DUP3 ADD SWAP1 POP SWAP3 SWAP2 POP POP JUMP JUMPDEST PUSH0 JUMPDEST DUP4 DUP2 LT ISZERO PUSH2 0x2C4D JUMPI DUP1 DUP3 ADD MLOAD DUP2 DUP5 ADD MSTORE PUSH1 0x20 DUP2 ADD SWAP1 POP PUSH2 0x2C32 JUMP JUMPDEST PUSH0 DUP5 DUP5 ADD MSTORE POP POP POP POP JUMP JUMPDEST PUSH0 PUSH1 0x1F NOT PUSH1 0x1F DUP4 ADD AND SWAP1 POP SWAP2 SWAP1 POP JUMP JUMPDEST PUSH0 PUSH2 0x2C72 DUP3 PUSH2 0x2C16 JUMP JUMPDEST PUSH2 0x2C7C DUP2 DUP6 PUSH2 0x2C20 JUMP JUMPDEST SWAP4 POP PUSH2 0x2C8C DUP2 DUP6 PUSH1 0x20 DUP7 ADD PUSH2 0x2C30 JUMP JUMPDEST PUSH2 0x2C95 DUP2 PUSH2 0x2C58 JUMP JUMPDEST DUP5 ADD SWAP2 POP POP SWAP3 SWAP2 POP POP JUMP JUMPDEST PUSH0 PUSH1 0x20 DUP3 ADD SWAP1 POP DUP2 DUP2 SUB PUSH0 DUP4 ADD MSTORE PUSH2 0x2CB8 DUP2 DUP5 PUSH2 0x2C68 JUMP JUMPDEST SWAP1 POP SWAP3 SWAP2 POP POP JUMP JUMPDEST PUSH0 PUSH1 0x40 MLOAD SWAP1 POP SWAP1 JUMP JUMPDEST PUSH0 DUP1 REVERT JUMPDEST PUSH0 DUP1 REVERT JUMPDEST PUSH0 PUSH20 0xFFFFFFFFFFFFFFFFFFFFFFFFFFFFFFFFFFFFFFFF DUP3 AND SWAP1 POP SWAP2 SWAP1 POP JUMP JUMPDEST PUSH0 PUSH2 0x2CFA DUP3 PUSH2 0x2CD1 JUMP JUMPDEST SWAP1 POP SWAP2 SWAP1 POP JUMP JUMPDEST PUSH2 0x2D0A DUP2 PUSH2 0x2CF0 JUMP JUMPDEST DUP2 EQ PUSH2 0x2D14 JUMPI PUSH0 DUP1 REVERT JUMPDEST POP JUMP JUMPDEST PUSH0 DUP2 CALLDATALOAD SWAP1 POP PUSH2 0x2D25 DUP2 PUSH2 0x2D01 JUMP JUMPDEST SWAP3 SWAP2 POP POP JUMP JUMPDEST PUSH0 DUP2 SWAP1 POP SWAP2 SWAP1 POP JUMP JUMPDEST PUSH2 0x2D3D DUP2 PUSH2 0x2D2B JUMP JUMPDEST DUP2 EQ PUSH2 0x2D47 JUMPI PUSH0 DUP1 REVERT JUMPDEST POP JUMP JUMPDEST PUSH0 DUP2 CALLDATALOAD SWAP1 POP PUSH2 0x2D58 DUP2 PUSH2 0x2D34 JUMP JUMPDEST SWAP3 SWAP2 POP POP JUMP JUMPDEST PUSH0 DUP1 PUSH1 0x40 DUP4 DUP6 SUB SLT ISZERO PUSH2 0x2D74 JUMPI PUSH2 0x2D73 PUSH2 0x2CC9 JUMP JUMPDEST JUMPDEST PUSH0 PUSH2 0x2D81 DUP6 DUP3 DUP7 ADD PUSH2 0x2D17 JUMP JUMPDEST SWAP3 POP POP PUSH1 0x20 PUSH2 0x2D92 DUP6 DUP3 DUP7 ADD PUSH2 0x2D4A JUMP JUMPDEST SWAP2 POP POP SWAP3 POP SWAP3 SWAP1 POP JUMP JUMPDEST PUSH0 DUP2 ISZERO ISZERO SWAP1 POP SWAP2 SWAP1 POP JUMP JUMPDEST PUSH2 0x2DB0 DUP2 PUSH2 0x2D9C JUMP JUMPDEST DUP3 MSTORE POP POP JUMP JUMPDEST PUSH0 PUSH1 0x20 DUP3 ADD SWAP1 POP PUSH2 0x2DC9 PUSH0 DUP4 ADD DUP5 PUSH2 0x2DA7 JUMP JUMPDEST SWAP3 SWAP2 POP POP JUMP JUMPDEST PUSH2 0x2DD8 DUP2 PUSH2 0x2D2B JUMP JUMPDEST DUP3 MSTORE POP POP JUMP JUMPDEST PUSH0 PUSH1 0x20 DUP3 ADD SWAP1 POP PUSH2 0x2DF1 PUSH0 DUP4 ADD DUP5 PUSH2 0x2DCF JUMP JUMPDEST SWAP3 SWAP2 POP POP JUMP JUMPDEST PUSH0 DUP1 PUSH0 PUSH1 0x60 DUP5 DUP7 SUB SLT ISZERO PUSH2 0x2E0E JUMPI PUSH2 0x2E0D PUSH2 0x2CC9 JUMP JUMPDEST JUMPDEST PUSH0 PUSH2 0x2E1B DUP7 DUP3 DUP8 ADD PUSH2 0x2D17 JUMP JUMPDEST SWAP4 POP POP PUSH1 0x20 PUSH2 0x2E2C DUP7 DUP3 DUP8 ADD PUSH2 0x2D17 JUMP JUMPDEST SWAP3 POP POP PUSH1 0x40 PUSH2 0x2E3D DUP7 DUP3 DUP8 ADD PUSH2 0x2D4A JUMP JUMPDEST SWAP2 POP POP SWAP3 POP SWAP3 POP SWAP3 JUMP JUMPDEST PUSH0 DUP1 REVERT JUMPDEST PUSH0 DUP1 REVERT JUMPDEST PUSH32 0x4E487B7100000000000000000000000000000000000000000000000000000000 PUSH0 MSTORE PUSH1 0x41 PUSH1 0x4 MSTORE PUSH1 0x24 PUSH0 REVERT JUMPDEST PUSH2 0x2E85 DUP3 PUSH2 0x2C58 JUMP JUMPDEST DUP2 ADD DUP2 DUP2 LT PUSH8 0xFFFFFFFFFFFFFFFF DUP3 GT OR ISZERO PUSH2 0x2EA4 JUMPI PUSH2 0x2EA3 PUSH2 0x2E4F JUMP JUMPDEST JUMPDEST DUP1 PUSH1 0x40 MSTORE POP POP POP JUMP JUMPDEST PUSH0 PUSH2 0x2EB6 PUSH2 0x2CC0 JUMP JUMPDEST SWAP1 POP PUSH2 0x2EC2 DUP3 DUP3 PUSH2 0x2E7C JUMP JUMPDEST SWAP2 SWAP1 POP JUMP JUMPDEST PUSH0 PUSH8 0xFFFFFFFFFFFFFFFF DUP3 GT ISZERO PUSH2 0x2EE1 JUMPI PUSH2 0x2EE0 PUSH2 0x2E4F JUMP JUMPDEST JUMPDEST PUSH2 0x2EEA DUP3 PUSH2 0x2C58 JUMP JUMPDEST SWAP1 POP PUSH1 0x20 DUP2 ADD SWAP1 POP SWAP2 SWAP1 POP JUMP JUMPDEST DUP3 DUP2 DUP4 CALLDATACOPY PUSH0 DUP4 DUP4 ADD MSTORE POP POP POP JUMP JUMPDEST PUSH0 PUSH2 0x2F17 PUSH2 0x2F12 DUP5 PUSH2 0x2EC7 JUMP JUMPDEST PUSH2 0x2EAD JUMP JUMPDEST SWAP1 POP DUP3 DUP2 MSTORE PUSH1 0x20 DUP2 ADD DUP5 DUP5 DUP5 ADD GT ISZERO PUSH2 0x2F33 JUMPI PUSH2 0x2F32 PUSH2 0x2E4B JUMP JUMPDEST JUMPDEST PUSH2 0x2F3E DUP5 DUP3 DUP6 PUSH2 0x2EF7 JUMP JUMPDEST POP SWAP4 SWAP3 POP POP POP JUMP JUMPDEST PUSH0 DUP3 PUSH1 0x1F DUP4 ADD SLT PUSH2 0x2F5A JUMPI PUSH2 0x2F59 PUSH2 0x2E47 JUMP JUMPDEST JUMPDEST DUP2 CALLDATALOAD PUSH2 0x2F6A DUP5 DUP3 PUSH1 0x20 DUP7 ADD PUSH2 0x2F05 JUMP JUMPDEST SWAP2 POP POP SWAP3 SWAP2 POP POP JUMP JUMPDEST PUSH0 DUP1 PUSH1 0x40 DUP4 DUP6 SUB SLT ISZERO PUSH2 0x2F89 JUMPI PUSH2 0x2F88 PUSH2 0x2CC9 JUMP JUMPDEST JUMPDEST PUSH0 DUP4 ADD CALLDATALOAD PUSH8 0xFFFFFFFFFFFFFFFF DUP2 GT ISZERO PUSH2 0x2FA6 JUMPI PUSH2 0x2FA5 PUSH2 0x2CCD JUMP JUMPDEST JUMPDEST PUSH2 0x2FB2 DUP6 DUP3 DUP7 ADD PUSH2 0x2F46 JUMP JUMPDEST SWAP3 POP POP PUSH1 0x20 DUP4 ADD CALLDATALOAD PUSH8 0xFFFFFFFFFFFFFFFF DUP2 GT ISZERO PUSH2 0x2FD3 JUMPI PUSH2 0x2FD2 PUSH2 0x2CCD JUMP JUMPDEST JUMPDEST PUSH2 0x2FDF DUP6 DUP3 DUP7 ADD PUSH2 0x2F46 JUMP JUMPDEST SWAP2 POP POP SWAP3 POP SWAP3 SWAP1 POP JUMP JUMPDEST PUSH0 DUP3 DUP3 MSTORE PUSH1 0x20 DUP3 ADD SWAP1 POP SWAP3 SWAP2 POP POP JUMP JUMPDEST PUSH0 PUSH2 0x3003 DUP3 PUSH2 0x2C16 JUMP JUMPDEST PUSH2 0x300D DUP2 DUP6 PUSH2 0x2FE9 JUMP JUMPDEST SWAP4 POP PUSH2 0x301D DUP2 DUP6 PUSH1 0x20 DUP7 ADD PUSH2 0x2C30 JUMP JUMPDEST PUSH2 0x3026 DUP2 PUSH2 0x2C58 JUMP JUMPDEST DUP5 ADD SWAP2 POP POP SWAP3 SWAP2 POP POP JUMP JUMPDEST PUSH2 0x303A DUP2 PUSH2 0x2CF0 JUMP JUMPDEST DUP3 MSTORE POP POP JUMP JUMPDEST PUSH2 0x3049 DUP2 PUSH2 0x2D9C JUMP JUMPDEST DUP3 MSTORE POP POP JUMP JUMPDEST PUSH2 0x3058 DUP2 PUSH2 0x2D2B JUMP JUMPDEST DUP3 MSTORE POP POP JUMP JUMPDEST PUSH32 0x4E487B7100000000000000000000000000000000000000000000000000000000 PUSH0 MSTORE PUSH1 0x21 PUSH1 0x4 MSTORE PUSH1 0x24 PUSH0 REVERT JUMPDEST PUSH1 0x4 DUP2 LT PUSH2 0x309C JUMPI PUSH2 0x309B PUSH2 0x305E JUMP JUMPDEST JUMPDEST POP JUMP JUMPDEST PUSH0 DUP2 SWAP1 POP PUSH2 0x30AC DUP3 PUSH2 0x308B JUMP JUMPDEST SWAP2 SWAP1 POP JUMP JUMPDEST PUSH0 PUSH2 0x30BB DUP3 PUSH2 0x309F JUMP JUMPDEST SWAP1 POP SWAP2 SWAP1 POP JUMP JUMPDEST PUSH2 0x30CB DUP2 PUSH2 0x30B1 JUMP JUMPDEST DUP3 MSTORE POP POP JUMP JUMPDEST PUSH0 PUSH1 0xE0 DUP4 ADD PUSH0 DUP4 ADD MLOAD DUP5 DUP3 SUB PUSH0 DUP7 ADD MSTORE PUSH2 0x30EB DUP3 DUP3 PUSH2 0x2FF9 JUMP JUMPDEST SWAP2 POP POP PUSH1 0x20 DUP4 ADD MLOAD PUSH2 0x3100 PUSH1 0x20 DUP7 ADD DUP3 PUSH2 0x3031 JUMP JUMPDEST POP PUSH1 0x40 DUP4 ADD MLOAD PUSH2 0x3113 PUSH1 0x40 DUP7 ADD DUP3 PUSH2 0x3040 JUMP JUMPDEST POP PUSH1 0x60 DUP4 ADD MLOAD PUSH2 0x3126 PUSH1 0x60 DUP7 ADD DUP3 PUSH2 0x304F JUMP JUMPDEST POP PUSH1 0x80 DUP4 ADD MLOAD PUSH2 0x3139 PUSH1 0x80 DUP7 ADD DUP3 PUSH2 0x304F JUMP JUMPDEST POP PUSH1 0xA0 DUP4 ADD MLOAD PUSH2 0x314C PUSH1 0xA0 DUP7 ADD DUP3 PUSH2 0x304F JUMP JUMPDEST POP PUSH1 0xC0 DUP4 ADD MLOAD PUSH2 0x315F PUSH1 0xC0 DUP7 ADD DUP3 PUSH2 0x30C2 JUMP JUMPDEST POP DUP1 SWAP2 POP POP SWAP3 SWAP2 POP POP JUMP JUMPDEST PUSH0 PUSH1 0x20 DUP3 ADD SWAP1 POP DUP2 DUP2 SUB PUSH0 DUP4 ADD MSTORE PUSH2 0x3182 DUP2 DUP5 PUSH2 0x30D1 JUMP JUMPDEST SWAP1 POP SWAP3 SWAP2 POP POP JUMP JUMPDEST PUSH0 PUSH1 0x20 DUP3 DUP5 SUB SLT ISZERO PUSH2 0x319F JUMPI PUSH2 0x319E PUSH2 0x2CC9 JUMP JUMPDEST JUMPDEST PUSH0 PUSH2 0x31AC DUP5 DUP3 DUP6 ADD PUSH2 0x2D4A JUMP JUMPDEST SWAP2 POP POP SWAP3 SWAP2 POP POP JUMP JUMPDEST PUSH0 PUSH1 0xFF DUP3 AND SWAP1 POP SWAP2 SWAP1 POP JUMP JUMPDEST PUSH2 0x31CA DUP2 PUSH2 0x31B5 JUMP JUMPDEST DUP3 MSTORE POP POP JUMP JUMPDEST PUSH0 PUSH1 0x20 DUP3 ADD SWAP1 POP PUSH2 0x31E3 PUSH0 DUP4 ADD DUP5 PUSH2 0x31C1 JUMP JUMPDEST SWAP3 SWAP2 POP POP JUMP JUMPDEST PUSH0 PUSH1 0x20 DUP3 DUP5 SUB SLT ISZERO PUSH2 0x31FE JUMPI PUSH2 0x31FD PUSH2 0x2CC9 JUMP JUMPDEST JUMPDEST PUSH0 PUSH2 0x320B DUP5 DUP3 DUP6 ADD PUSH2 0x2D17 JUMP JUMPDEST SWAP2 POP POP SWAP3 SWAP2 POP POP JUMP JUMPDEST PUSH2 0x321D DUP2 PUSH2 0x31B5 JUMP JUMPDEST DUP2 EQ PUSH2 0x3227 JUMPI PUSH0 DUP1 REVERT JUMPDEST POP JUMP JUMPDEST PUSH0 DUP2 CALLDATALOAD SWAP1 POP PUSH2 0x3238 DUP2 PUSH2 0x3214 JUMP JUMPDEST SWAP3 SWAP2 POP POP JUMP JUMPDEST PUSH0 PUSH1 0x20 DUP3 DUP5 SUB SLT ISZERO PUSH2 0x3253 JUMPI PUSH2 0x3252 PUSH2 0x2CC9 JUMP JUMPDEST JUMPDEST PUSH0 PUSH2 0x3260 DUP5 DUP3 DUP6 ADD PUSH2 0x322A JUMP JUMPDEST SWAP2 POP POP SWAP3 SWAP2 POP POP JUMP JUMPDEST PUSH2 0x3272 DUP2 PUSH2 0x2D9C JUMP JUMPDEST DUP2 EQ PUSH2 0x327C JUMPI PUSH0 DUP1 REVERT JUMPDEST POP JUMP JUMPDEST PUSH0 DUP2 CALLDATALOAD SWAP1 POP PUSH2 0x328D DUP2 PUSH2 0x3269 JUMP JUMPDEST SWAP3 SWAP2 POP POP JUMP JUMPDEST PUSH0 DUP1 PUSH1 0x40 DUP4 DUP6 SUB SLT ISZERO PUSH2 0x32A9 JUMPI PUSH2 0x32A8 PUSH2 0x2CC9 JUMP JUMPDEST JUMPDEST PUSH0 DUP4 ADD CALLDATALOAD PUSH8 0xFFFFFFFFFFFFFFFF DUP2 GT ISZERO PUSH2 0x32C6 JUMPI PUSH2 0x32C5 PUSH2 0x2CCD JUMP JUMPDEST JUMPDEST PUSH2 0x32D2 DUP6 DUP3 DUP7 ADD PUSH2 0x2F46 JUMP JUMPDEST SWAP3 POP POP PUSH1 0x20 PUSH2 0x32E3 DUP6 DUP3 DUP7 ADD PUSH2 0x327F JUMP JUMPDEST SWAP2 POP POP SWAP3 POP SWAP3 SWAP1 POP JUMP JUMPDEST PUSH0 DUP1 PUSH1 0x40 DUP4 DUP6 SUB SLT ISZERO PUSH2 0x3303 JUMPI PUSH2 0x3302 PUSH2 0x2CC9 JUMP JUMPDEST JUMPDEST PUSH0 PUSH2 0x3310 DUP6 DUP3 DUP7 ADD PUSH2 0x2D17 JUMP JUMPDEST SWAP3 POP POP PUSH1 0x20 PUSH2 0x3321 DUP6 DUP3 DUP7 ADD PUSH2 0x322A JUMP JUMPDEST SWAP2 POP POP SWAP3 POP SWAP3 SWAP1 POP JUMP JUMPDEST PUSH0 DUP1 PUSH1 0x40 DUP4 DUP6 SUB SLT ISZERO PUSH2 0x3341 JUMPI PUSH2 0x3340 PUSH2 0x2CC9 JUMP JUMPDEST JUMPDEST PUSH0 PUSH2 0x334E DUP6 DUP3 DUP7 ADD PUSH2 0x2D17 JUMP JUMPDEST SWAP3 POP POP PUSH1 0x20 PUSH2 0x335F DUP6 DUP3 DUP7 ADD PUSH2 0x2D17 JUMP JUMPDEST SWAP2 POP POP SWAP3 POP SWAP3 SWAP1 POP JUMP JUMPDEST PUSH32 0x4E487B7100000000000000000000000000000000000000000000000000000000 PUSH0 MSTORE PUSH1 0x22 PUSH1 0x4 MSTORE PUSH1 0x24 PUSH0 REVERT JUMPDEST PUSH0 PUSH1 0x2 DUP3 DIV SWAP1 POP PUSH1 0x1 DUP3 AND DUP1 PUSH2 0x33AD JUMPI PUSH1 0x7F DUP3 AND SWAP2 POP JUMPDEST PUSH1 0x20 DUP3 LT DUP2 SUB PUSH2 0x33C0 JUMPI PUSH2 0x33BF PUSH2 0x3369 JUMP JUMPDEST JUMPDEST POP SWAP2 SWAP1 POP JUMP JUMPDEST PUSH0 DUP2 SWAP1 POP SWAP3 SWAP2 POP POP JUMP JUMPDEST PUSH0 PUSH2 0x33DA DUP3 PUSH2 0x2C16 JUMP JUMPDEST PUSH2 0x33E4 DUP2 DUP6 PUSH2 0x33C6 JUMP JUMPDEST SWAP4 POP PUSH2 0x33F4 DUP2 DUP6 PUSH1 0x20 DUP7 ADD PUSH2 0x2C30 JUMP JUMPDEST DUP1 DUP5 ADD SWAP2 POP POP SWAP3 SWAP2 POP POP JUMP JUMPDEST PUSH0 PUSH2 0x340B DUP3 DUP5 PUSH2 0x33D0 JUMP JUMPDEST SWAP2 POP DUP2 SWAP1 POP SWAP3 SWAP2 POP POP JUMP JUMPDEST PUSH32 0xD09DD0B5D0B2D0B5D180D0BDD18BD0B920D0BBD0BED0B3D0B8D0BD20D0B8D0BB PUSH0 DUP3 ADD MSTORE PUSH32 0xD0B820D0BFD0B0D180D0BED0BBD18C2100000000000000000000000000000000 PUSH1 0x20 DUP3 ADD MSTORE POP JUMP JUMPDEST PUSH0 PUSH2 0x3470 PUSH1 0x30 DUP4 PUSH2 0x2C20 JUMP JUMPDEST SWAP2 POP PUSH2 0x347B DUP3 PUSH2 0x3416 JUMP JUMPDEST PUSH1 0x40 DUP3 ADD SWAP1 POP SWAP2 SWAP1 POP JUMP JUMPDEST PUSH0 PUSH1 0x20 DUP3 ADD SWAP1 POP DUP2 DUP2 SUB PUSH0 DUP4 ADD MSTORE PUSH2 0x349D DUP2 PUSH2 0x3464 JUMP JUMPDEST SWAP1 POP SWAP2 SWAP1 POP JUMP JUMPDEST PUSH32 0xD09DD0B5D0BBD18CD0B7D18F20D0BFD0BED0BAD183D0BFD0B0D182D18C20D182 PUSH0 DUP3 ADD MSTORE PUSH32 0xD0BED0BAD0B5D0BDD18B20D0B220D18DD182D18320D184D0B0D0B7D183210000 PUSH1 0x20 DUP3 ADD MSTORE POP JUMP JUMPDEST PUSH0 PUSH2 0x34FE PUSH1 0x3E DUP4 PUSH2 0x2C20 JUMP JUMPDEST SWAP2 POP PUSH2 0x3509 DUP3 PUSH2 0x34A4 JUMP JUMPDEST PUSH1 0x40 DUP3 ADD SWAP1 POP SWAP2 SWAP1 POP JUMP JUMPDEST PUSH0 PUSH1 0x20 DUP3 ADD SWAP1 POP DUP2 DUP2 SUB PUSH0 DUP4 ADD MSTORE PUSH2 0x352B DUP2 PUSH2 0x34F2 JUMP JUMPDEST SWAP1 POP SWAP2 SWAP1 POP JUMP JUMPDEST PUSH32 0xD09DD0B5D0BBD18CD0B7D18F20D0BFD0B5D180D0B5D0B2D0BED0B4D0B8D182D1 PUSH0 DUP3 ADD MSTORE PUSH32 0x8C20D0B1D0BED0BBD18CD188D0B52C20D187D0B5D0BC20D0BED180D0B3D0B0D0 PUSH1 0x20 DUP3 ADD MSTORE PUSH32 0xBDD0B8D187D0B5D0BDD0BDD0BE20D0B4D0B0D0BDD0BDD0BED0B920D184D0B0D0 PUSH1 0x40 DUP3 ADD MSTORE PUSH32 0xB7D0BED0B9210000000000000000000000000000000000000000000000000000 PUSH1 0x60 DUP3 ADD MSTORE POP JUMP JUMPDEST PUSH0 PUSH2 0x35D8 PUSH1 0x66 DUP4 PUSH2 0x2C20 JUMP JUMPDEST SWAP2 POP PUSH2 0x35E3 DUP3 PUSH2 0x3532 JUMP JUMPDEST PUSH1 0x80 DUP3 ADD SWAP1 POP SWAP2 SWAP1 POP JUMP JUMPDEST PUSH0 PUSH1 0x20 DUP3 ADD SWAP1 POP DUP2 DUP2 SUB PUSH0 DUP4 ADD MSTORE PUSH2 0x3605 DUP2 PUSH2 0x35CC JUMP JUMPDEST SWAP1 POP SWAP2 SWAP1 POP JUMP JUMPDEST PUSH32 0x4E487B7100000000000000000000000000000000000000000000000000000000 PUSH0 MSTORE PUSH1 0x11 PUSH1 0x4 MSTORE PUSH1 0x24 PUSH0 REVERT JUMPDEST PUSH0 PUSH2 0x3643 DUP3 PUSH2 0x2D2B JUMP JUMPDEST SWAP2 POP PUSH2 0x364E DUP4 PUSH2 0x2D2B JUMP JUMPDEST SWAP3 POP DUP3 DUP3 MUL PUSH2 0x365C DUP2 PUSH2 0x2D2B JUMP JUMPDEST SWAP2 POP DUP3 DUP3 DIV DUP5 EQ DUP4 ISZERO OR PUSH2 0x3673 JUMPI PUSH2 0x3672 PUSH2 0x360C JUMP JUMPDEST JUMPDEST POP SWAP3 SWAP2 POP POP JUMP JUMPDEST PUSH32 0xD0A320D0B2D0B0D18120D0BDD0B5D0B4D0BED181D182D0B0D182D0BED187D0BD PUSH0 DUP3 ADD MSTORE PUSH32 0xD0BE206574682100000000000000000000000000000000000000000000000000 PUSH1 0x20 DUP3 ADD MSTORE POP JUMP JUMPDEST PUSH0 PUSH2 0x36D4 PUSH1 0x27 DUP4 PUSH2 0x2C20 JUMP JUMPDEST SWAP2 POP PUSH2 0x36DF DUP3 PUSH2 0x367A JUMP JUMPDEST PUSH1 0x40 DUP3 ADD SWAP1 POP SWAP2 SWAP1 POP JUMP JUMPDEST PUSH0 PUSH1 0x20 DUP3 ADD SWAP1 POP DUP2 DUP2 SUB PUSH0 DUP4 ADD MSTORE PUSH2 0x3701 DUP2 PUSH2 0x36C8 JUMP JUMPDEST SWAP1 POP SWAP2 SWAP1 POP JUMP JUMPDEST PUSH32 0xD0A1D0B2D0BED0B1D0BED0B4D0BDD0B0D18F20D0BFD180D0BED0B4D0B0D0B6D0 PUSH0 DUP3 ADD MSTORE PUSH32 0xB020D0B5D189D19120D0BDD0B520D0BDD0B0D187D0B0D0BBD0B0D181D18C2100 PUSH1 0x20 DUP3 ADD MSTORE POP JUMP JUMPDEST PUSH0 PUSH2 0x3762 PUSH1 0x3F DUP4 PUSH2 0x2C20 JUMP JUMPDEST SWAP2 POP PUSH2 0x376D DUP3 PUSH2 0x3708 JUMP JUMPDEST PUSH1 0x40 DUP3 ADD SWAP1 POP SWAP2 SWAP1 POP JUMP JUMPDEST PUSH0 PUSH1 0x20 DUP3 ADD SWAP1 POP DUP2 DUP2 SUB PUSH0 DUP4 ADD MSTORE PUSH2 0x378F DUP2 PUSH2 0x3756 JUMP JUMPDEST SWAP1 POP SWAP2 SWAP1 POP JUMP JUMPDEST PUSH32 0x707269762070726F760000000000000000000000000000000000000000000000 PUSH0 DUP3 ADD MSTORE POP JUMP JUMPDEST PUSH0 PUSH2 0x37CA PUSH1 0x9 DUP4 PUSH2 0x33C6 JUMP JUMPDEST SWAP2 POP PUSH2 0x37D5 DUP3 PUSH2 0x3796 JUMP JUMPDEST PUSH1 0x9 DUP3 ADD SWAP1 POP SWAP2 SWAP1 POP JUMP JUMPDEST PUSH0 PUSH2 0x37EA DUP3 PUSH2 0x37BE JUMP JUMPDEST SWAP2 POP DUP2 SWAP1 POP SWAP2 SWAP1 POP JUMP JUMPDEST PUSH0 DUP2 PUSH1 0x1 SHR SWAP1 POP SWAP2 SWAP1 POP JUMP JUMPDEST PUSH0 DUP1 DUP3 SWAP2 POP DUP4 SWAP1 POP JUMPDEST PUSH1 0x1 DUP6 GT ISZERO PUSH2 0x3849 JUMPI DUP1 DUP7 DIV DUP2 GT ISZERO PUSH2 0x3825 JUMPI PUSH2 0x3824 PUSH2 0x360C JUMP JUMPDEST JUMPDEST PUSH1 0x1 DUP6 AND ISZERO PUSH2 0x3834 JUMPI DUP1 DUP3 MUL SWAP2 POP JUMPDEST DUP1 DUP2 MUL SWAP1 POP PUSH2 0x3842 DUP6 PUSH2 0x37F4 JUMP JUMPDEST SWAP5 POP PUSH2 0x3809 JUMP JUMPDEST SWAP5 POP SWAP5 SWAP3 POP POP POP JUMP JUMPDEST PUSH0 DUP3 PUSH2 0x3861 JUMPI PUSH1 0x1 SWAP1 POP PUSH2 0x391C JUMP JUMPDEST DUP2 PUSH2 0x386E JUMPI PUSH0 SWAP1 POP PUSH2 0x391C JUMP JUMPDEST DUP2 PUSH1 0x1 DUP2 EQ PUSH2 0x3884 JUMPI PUSH1 0x2 DUP2 EQ PUSH2 0x388E JUMPI PUSH2 0x38BD JUMP JUMPDEST PUSH1 0x1 SWAP2 POP POP PUSH2 0x391C JUMP JUMPDEST PUSH1 0xFF DUP5 GT ISZERO PUSH2 0x38A0 JUMPI PUSH2 0x389F PUSH2 0x360C JUMP JUMPDEST JUMPDEST DUP4 PUSH1 0x2 EXP SWAP2 POP DUP5 DUP3 GT ISZERO PUSH2 0x38B7 JUMPI PUSH2 0x38B6 PUSH2 0x360C JUMP JUMPDEST JUMPDEST POP PUSH2 0x391C JUMP JUMPDEST POP PUSH1 0x20 DUP4 LT PUSH2 0x133 DUP4 LT AND PUSH1 0x4E DUP5 LT PUSH1 0xB DUP5 LT AND OR ISZERO PUSH2 0x38F2 JUMPI DUP3 DUP3 EXP SWAP1 POP DUP4 DUP2 GT ISZERO PUSH2 0x38ED JUMPI PUSH2 0x38EC PUSH2 0x360C JUMP JUMPDEST JUMPDEST PUSH2 0x391C JUMP JUMPDEST PUSH2 0x38FF DUP5 DUP5 DUP5 PUSH1 0x1 PUSH2 0x3800 JUMP JUMPDEST SWAP3 POP SWAP1 POP DUP2 DUP5 DIV DUP2 GT ISZERO PUSH2 0x3916 JUMPI PUSH2 0x3915 PUSH2 0x360C JUMP JUMPDEST JUMPDEST DUP2 DUP2 MUL SWAP1 POP JUMPDEST SWAP4 SWAP3 POP POP POP JUMP JUMPDEST PUSH0 PUSH2 0x392D DUP3 PUSH2 0x2D2B JUMP JUMPDEST SWAP2 POP PUSH2 0x3938 DUP4 PUSH2 0x31B5 JUMP JUMPDEST SWAP3 POP PUSH2 0x3965 PUSH32 0xFFFFFFFFFFFFFFFFFFFFFFFFFFFFFFFFFFFFFFFFFFFFFFFFFFFFFFFFFFFFFFFF DUP5 DUP5 PUSH2 0x3852 JUMP JUMPDEST SWAP1 POP SWAP3 SWAP2 POP POP JUMP JUMPDEST PUSH32 0x7075622070726F76000000000000000000000000000000000000000000000000 PUSH0 DUP3 ADD MSTORE POP JUMP JUMPDEST PUSH0 PUSH2 0x39A1 PUSH1 0x8 DUP4 PUSH2 0x33C6 JUMP JUMPDEST SWAP2 POP PUSH2 0x39AC DUP3 PUSH2 0x396D JUMP JUMPDEST PUSH1 0x8 DUP3 ADD SWAP1 POP SWAP2 SWAP1 POP JUMP JUMPDEST PUSH0 PUSH2 0x39C1 DUP3 PUSH2 0x3995 JUMP JUMPDEST SWAP2 POP DUP2 SWAP1 POP SWAP2 SWAP1 POP JUMP JUMPDEST PUSH0 PUSH2 0x39D5 DUP3 PUSH2 0x2D2B JUMP JUMPDEST SWAP2 POP PUSH2 0x39E0 DUP4 PUSH2 0x2D2B JUMP JUMPDEST SWAP3 POP DUP3 DUP3 ADD SWAP1 POP DUP1 DUP3 GT ISZERO PUSH2 0x39F8 JUMPI PUSH2 0x39F7 PUSH2 0x360C JUMP JUMPDEST JUMPDEST SWAP3 SWAP2 POP POP JUMP JUMPDEST PUSH32 0xD0A320D0B2D0B0D18120D0BDD0B5D18220D0BFD180D0B0D0B22C20D187D182D0 PUSH0 DUP3 ADD MSTORE PUSH32 0xBED0B120D181D0B4D0B5D0BBD0B0D182D18C20D18DD182D0BE21000000000000 PUSH1 0x20 DUP3 ADD MSTORE POP JUMP JUMPDEST PUSH0 PUSH2 0x3A58 PUSH1 0x3A DUP4 PUSH2 0x2C20 JUMP JUMPDEST SWAP2 POP PUSH2 0x3A63 DUP3 PUSH2 0x39FE JUMP JUMPDEST PUSH1 0x40 DUP3 ADD SWAP1 POP SWAP2 SWAP1 POP JUMP JUMPDEST PUSH0 PUSH1 0x20 DUP3 ADD SWAP1 POP DUP2 DUP2 SUB PUSH0 DUP4 ADD MSTORE PUSH2 0x3A85 DUP2 PUSH2 0x3A4C JUMP JUMPDEST SWAP1 POP SWAP2 SWAP1 POP JUMP JUMPDEST PUSH32 0xD0ADD182D0B020D184D0B0D0B7D0B020D0BDD0B520D0BDD0B0D187D0B0D0BBD0 PUSH0 DUP3 ADD MSTORE PUSH32 0xB0D181D18C2C20D0BBD0B8D0B1D0BE20D183D0B6D0B520D0B7D0B0D0BAD0BED0 PUSH1 0x20 DUP3 ADD MSTORE PUSH32 0xBDD187D0B8D0BBD0B0D181D18C21000000000000000000000000000000000000 PUSH1 0x40 DUP3 ADD MSTORE POP JUMP JUMPDEST PUSH0 PUSH2 0x3B0C PUSH1 0x4E DUP4 PUSH2 0x2C20 JUMP JUMPDEST SWAP2 POP PUSH2 0x3B17 DUP3 PUSH2 0x3A8C JUMP JUMPDEST PUSH1 0x60 DUP3 ADD SWAP1 POP SWAP2 SWAP1 POP JUMP JUMPDEST PUSH0 PUSH1 0x20 DUP3 ADD SWAP1 POP DUP2 DUP2 SUB PUSH0 DUP4 ADD MSTORE PUSH2 0x3B39 DUP2 PUSH2 0x3B00 JUMP JUMPDEST SWAP1 POP SWAP2 SWAP1 POP JUMP JUMPDEST PUSH0 DUP2 SWAP1 POP DUP2 PUSH0 MSTORE PUSH1 0x20 PUSH0 KECCAK256 SWAP1 POP SWAP2 SWAP1 POP JUMP JUMPDEST PUSH0 PUSH1 0x20 PUSH1 0x1F DUP4 ADD DIV SWAP1 POP SWAP2 SWAP1 POP JUMP JUMPDEST PUSH0 DUP3 DUP3 SHL SWAP1 POP SWAP3 SWAP2 POP POP JUMP JUMPDEST PUSH0 PUSH1 0x8 DUP4 MUL PUSH2 0x3B9C PUSH32 0xFFFFFFFFFFFFFFFFFFFFFFFFFFFFFFFFFFFFFFFFFFFFFFFFFFFFFFFFFFFFFFFF DUP3 PUSH2 0x3B61 JUMP JUMPDEST PUSH2 0x3BA6 DUP7 DUP4 PUSH2 0x3B61 JUMP JUMPDEST SWAP6 POP DUP1 NOT DUP5 AND SWAP4 POP DUP1 DUP7 AND DUP5 OR SWAP3 POP POP POP SWAP4 SWAP3 POP POP POP JUMP JUMPDEST PUSH0 DUP2 SWAP1 POP SWAP2 SWAP1 POP JUMP JUMPDEST PUSH0 PUSH2 0x3BE1 PUSH2 0x3BDC PUSH2 0x3BD7 DUP5 PUSH2 0x2D2B JUMP JUMPDEST PUSH2 0x3BBE JUMP JUMPDEST PUSH2 0x2D2B JUMP JUMPDEST SWAP1 POP SWAP2 SWAP1 POP JUMP JUMPDEST PUSH0 DUP2 SWAP1 POP SWAP2 SWAP1 POP JUMP JUMPDEST PUSH2 0x3BFA DUP4 PUSH2 0x3BC7 JUMP JUMPDEST PUSH2 0x3C0E PUSH2 0x3C06 DUP3 PUSH2 0x3BE8 JUMP JUMPDEST DUP5 DUP5 SLOAD PUSH2 0x3B6D JUMP JUMPDEST DUP3 SSTORE POP POP POP POP JUMP JUMPDEST PUSH0 SWAP1 JUMP JUMPDEST PUSH2 0x3C22 PUSH2 0x3C16 JUMP JUMPDEST PUSH2 0x3C2D DUP2 DUP5 DUP5 PUSH2 0x3BF1 JUMP JUMPDEST POP POP POP JUMP JUMPDEST JUMPDEST DUP2 DUP2 LT ISZERO PUSH2 0x3C50 JUMPI PUSH2 0x3C45 PUSH0 DUP3 PUSH2 0x3C1A JUMP JUMPDEST PUSH1 0x1 DUP2 ADD SWAP1 POP PUSH2 0x3C33 JUMP JUMPDEST POP POP JUMP JUMPDEST PUSH1 0x1F DUP3 GT ISZERO PUSH2 0x3C95 JUMPI PUSH2 0x3C66 DUP2 PUSH2 0x3B40 JUMP JUMPDEST PUSH2 0x3C6F DUP5 PUSH2 0x3B52 JUMP JUMPDEST DUP2 ADD PUSH1 0x20 DUP6 LT ISZERO PUSH2 0x3C7E JUMPI DUP2 SWAP1 POP JUMPDEST PUSH2 0x3C92 PUSH2 0x3C8A DUP6 PUSH2 0x3B52 JUMP JUMPDEST DUP4 ADD DUP3 PUSH2 0x3C32 JUMP JUMPDEST POP POP JUMPDEST POP POP POP JUMP JUMPDEST PUSH0 DUP3 DUP3 SHR SWAP1 POP SWAP3 SWAP2 POP POP JUMP JUMPDEST PUSH0 PUSH2 0x3CB5 PUSH0 NOT DUP5 PUSH1 0x8 MUL PUSH2 0x3C9A JUMP JUMPDEST NOT DUP1 DUP4 AND SWAP2 POP POP SWAP3 SWAP2 POP POP JUMP JUMPDEST PUSH0 PUSH2 0x3CCD DUP4 DUP4 PUSH2 0x3CA6 JUMP JUMPDEST SWAP2 POP DUP3 PUSH1 0x2 MUL DUP3 OR SWAP1 POP SWAP3 SWAP2 POP POP JUMP JUMPDEST PUSH2 0x3CE6 DUP3 PUSH2 0x2C16 JUMP JUMPDEST PUSH8 0xFFFFFFFFFFFFFFFF DUP2 GT ISZERO PUSH2 0x3CFF JUMPI PUSH2 0x3CFE PUSH2 0x2E4F JUMP JUMPDEST JUMPDEST PUSH2 0x3D09 DUP3 SLOAD PUSH2 0x3396 JUMP JUMPDEST PUSH2 0x3D14 DUP3 DUP3 DUP6 PUSH2 0x3C54 JUMP JUMPDEST PUSH0 PUSH1 0x20 SWAP1 POP PUSH1 0x1F DUP4 GT PUSH1 0x1 DUP2 EQ PUSH2 0x3D45 JUMPI PUSH0 DUP5 ISZERO PUSH2 0x3D33 JUMPI DUP3 DUP8 ADD MLOAD SWAP1 POP JUMPDEST PUSH2 0x3D3D DUP6 DUP3 PUSH2 0x3CC2 JUMP JUMPDEST DUP7 SSTORE POP PUSH2 0x3DA4 JUMP JUMPDEST PUSH1 0x1F NOT DUP5 AND PUSH2 0x3D53 DUP7 PUSH2 0x3B40 JUMP JUMPDEST PUSH0 JUMPDEST DUP3 DUP2 LT ISZERO PUSH2 0x3D7A JUMPI DUP5 DUP10 ADD MLOAD DUP3 SSTORE PUSH1 0x1 DUP3 ADD SWAP2 POP PUSH1 0x20 DUP6 ADD SWAP5 POP PUSH1 0x20 DUP2 ADD SWAP1 POP PUSH2 0x3D55 JUMP JUMPDEST DUP7 DUP4 LT ISZERO PUSH2 0x3D97 JUMPI DUP5 DUP10 ADD MLOAD PUSH2 0x3D93 PUSH1 0x1F DUP10 AND DUP3 PUSH2 0x3CA6 JUMP JUMPDEST DUP4 SSTORE POP JUMPDEST PUSH1 0x1 PUSH1 0x2 DUP9 MUL ADD DUP9 SSTORE POP POP POP JUMPDEST POP POP POP POP POP POP JUMP JUMPDEST PUSH32 0xD09FD0BED0BBD18CD0B7D0BED0B2D0B0D182D0B5D0BBD18C20D0BDD0B520D0BD PUSH0 DUP3 ADD MSTORE PUSH32 0xD0B0D188D0B5D0BBD181D18F2100000000000000000000000000000000000000 PUSH1 0x20 DUP3 ADD MSTORE POP JUMP JUMPDEST PUSH0 PUSH2 0x3E06 PUSH1 0x2D DUP4 PUSH2 0x2C20 JUMP JUMPDEST SWAP2 POP PUSH2 0x3E11 DUP3 PUSH2 0x3DAC JUMP JUMPDEST PUSH1 0x40 DUP3 ADD SWAP1 POP SWAP2 SWAP1 POP JUMP JUMPDEST PUSH0 PUSH1 0x20 DUP3 ADD SWAP1 POP DUP2 DUP2 SUB PUSH0 DUP4 ADD MSTORE PUSH2 0x3E33 DUP2 PUSH2 0x3DFA JUMP JUMPDEST SWAP1 POP SWAP2 SWAP1 POP JUMP JUMPDEST PUSH32 0x45524332303A2064656372656173656420616C6C6F77616E63652062656C6F77 PUSH0 DUP3 ADD MSTORE PUSH32 0x207A65726F000000000000000000000000000000000000000000000000000000 PUSH1 0x20 DUP3 ADD MSTORE POP JUMP JUMPDEST PUSH0 PUSH2 0x3E94 PUSH1 0x25 DUP4 PUSH2 0x2C20 JUMP JUMPDEST SWAP2 POP PUSH2 0x3E9F DUP3 PUSH2 0x3E3A JUMP JUMPDEST PUSH1 0x40 DUP3 ADD SWAP1 POP SWAP2 SWAP1 POP JUMP JUMPDEST PUSH0 PUSH1 0x20 DUP3 ADD SWAP1 POP DUP2 DUP2 SUB PUSH0 DUP4 ADD MSTORE PUSH2 0x3EC1 DUP2 PUSH2 0x3E88 JUMP JUMPDEST SWAP1 POP SWAP2 SWAP1 POP JUMP JUMPDEST PUSH32 0xD0ADD182D0BED18220D0BBD0BED0B3D0B8D0BD20D0B7D0B0D0BDD18FD1822100 PUSH0 DUP3 ADD MSTORE POP JUMP JUMPDEST PUSH0 PUSH2 0x3EFC PUSH1 0x1F DUP4 PUSH2 0x2C20 JUMP JUMPDEST SWAP2 POP PUSH2 0x3F07 DUP3 PUSH2 0x3EC8 JUMP JUMPDEST PUSH1 0x20 DUP3 ADD SWAP1 POP SWAP2 SWAP1 POP JUMP JUMPDEST PUSH0 PUSH1 0x20 DUP3 ADD SWAP1 POP DUP2 DUP2 SUB PUSH0 DUP4 ADD MSTORE PUSH2 0x3F29 DUP2 PUSH2 0x3EF0 JUMP JUMPDEST SWAP1 POP SWAP2 SWAP1 POP JUMP JUMPDEST PUSH32 0xD0A320D0B2D0B0D18120D0BDD0B5D0B4D0BED181D182D0B0D182D0BED187D0BD PUSH0 DUP3 ADD MSTORE PUSH32 0xD0BE20D182D0BED0BAD0B5D0BDD0BED0B2210000000000000000000000000000 PUSH1 0x20 DUP3 ADD MSTORE POP JUMP JUMPDEST PUSH0 PUSH2 0x3F8A PUSH1 0x32 DUP4 PUSH2 0x2C20 JUMP JUMPDEST SWAP2 POP PUSH2 0x3F95 DUP3 PUSH2 0x3F30 JUMP JUMPDEST PUSH1 0x40 DUP3 ADD SWAP1 POP SWAP2 SWAP1 POP JUMP JUMPDEST PUSH0 PUSH1 0x20 DUP3 ADD SWAP1 POP DUP2 DUP2 SUB PUSH0 DUP4 ADD MSTORE PUSH2 0x3FB7 DUP2 PUSH2 0x3F7E JUMP JUMPDEST SWAP1 POP SWAP2 SWAP1 POP JUMP JUMPDEST PUSH32 0x45524332303A20617070726F76652066726F6D20746865207A65726F20616464 PUSH0 DUP3 ADD MSTORE PUSH32 0x7265737300000000000000000000000000000000000000000000000000000000 PUSH1 0x20 DUP3 ADD MSTORE POP JUMP JUMPDEST PUSH0 PUSH2 0x4018 PUSH1 0x24 DUP4 PUSH2 0x2C20 JUMP JUMPDEST SWAP2 POP PUSH2 0x4023 DUP3 PUSH2 0x3FBE JUMP JUMPDEST PUSH1 0x40 DUP3 ADD SWAP1 POP SWAP2 SWAP1 POP JUMP JUMPDEST PUSH0 PUSH1 0x20 DUP3 ADD SWAP1 POP DUP2 DUP2 SUB PUSH0 DUP4 ADD MSTORE PUSH2 0x4045 DUP2 PUSH2 0x400C JUMP JUMPDEST SWAP1 POP SWAP2 SWAP1 POP JUMP JUMPDEST PUSH32 0x45524332303A20617070726F766520746F20746865207A65726F206164647265 PUSH0 DUP3 ADD MSTORE PUSH32 0x7373000000000000000000000000000000000000000000000000000000000000 PUSH1 0x20 DUP3 ADD MSTORE POP JUMP JUMPDEST PUSH0 PUSH2 0x40A6 PUSH1 0x22 DUP4 PUSH2 0x2C20 JUMP JUMPDEST SWAP2 POP PUSH2 0x40B1 DUP3 PUSH2 0x404C JUMP JUMPDEST PUSH1 0x40 DUP3 ADD SWAP1 POP SWAP2 SWAP1 POP JUMP JUMPDEST PUSH0 PUSH1 0x20 DUP3 ADD SWAP1 POP DUP2 DUP2 SUB PUSH0 DUP4 ADD MSTORE PUSH2 0x40D3 DUP2 PUSH2 0x409A JUMP JUMPDEST SWAP1 POP SWAP2 SWAP1 POP JUMP JUMPDEST PUSH0 PUSH2 0x40E4 DUP3 PUSH2 0x2D2B JUMP JUMPDEST SWAP2 POP PUSH2 0x40EF DUP4 PUSH2 0x2D2B JUMP JUMPDEST SWAP3 POP DUP3 DUP3 SUB SWAP1 POP DUP2 DUP2 GT ISZERO PUSH2 0x4107 JUMPI PUSH2 0x4106 PUSH2 0x360C JUMP JUMPDEST JUMPDEST SWAP3 SWAP2 POP POP JUMP JUMPDEST PUSH32 0x45524332303A20696E73756666696369656E7420616C6C6F77616E6365000000 PUSH0 DUP3 ADD MSTORE POP JUMP JUMPDEST PUSH0 PUSH2 0x4141 PUSH1 0x1D DUP4 PUSH2 0x2C20 JUMP JUMPDEST SWAP2 POP PUSH2 0x414C DUP3 PUSH2 0x410D JUMP JUMPDEST PUSH1 0x20 DUP3 ADD SWAP1 POP SWAP2 SWAP1 POP JUMP JUMPDEST PUSH0 PUSH1 0x20 DUP3 ADD SWAP1 POP DUP2 DUP2 SUB PUSH0 DUP4 ADD MSTORE PUSH2 0x416E DUP2 PUSH2 0x4135 JUMP JUMPDEST SWAP1 POP SWAP2 SWAP1 POP JUMP JUMPDEST PUSH32 0x45524332303A207472616E736665722066726F6D20746865207A65726F206164 PUSH0 DUP3 ADD MSTORE PUSH32 0x6472657373000000000000000000000000000000000000000000000000000000 PUSH1 0x20 DUP3 ADD MSTORE POP JUMP JUMPDEST PUSH0 PUSH2 0x41CF PUSH1 0x25 DUP4 PUSH2 0x2C20 JUMP JUMPDEST SWAP2 POP PUSH2 0x41DA DUP3 PUSH2 0x4175 JUMP JUMPDEST PUSH1 0x40 DUP3 ADD SWAP1 POP SWAP2 SWAP1 POP JUMP JUMPDEST PUSH0 PUSH1 0x20 DUP3 ADD SWAP1 POP DUP2 DUP2 SUB PUSH0 DUP4 ADD MSTORE PUSH2 0x41FC DUP2 PUSH2 0x41C3 JUMP JUMPDEST SWAP1 POP SWAP2 SWAP1 POP JUMP JUMPDEST PUSH32 0x45524332303A207472616E7366657220746F20746865207A65726F2061646472 PUSH0 DUP3 ADD MSTORE PUSH32 0x6573730000000000000000000000000000000000000000000000000000000000 PUSH1 0x20 DUP3 ADD MSTORE POP JUMP JUMPDEST PUSH0 PUSH2 0x425D PUSH1 0x23 DUP4 PUSH2 0x2C20 JUMP JUMPDEST SWAP2 POP PUSH2 0x4268 DUP3 PUSH2 0x4203 JUMP JUMPDEST PUSH1 0x40 DUP3 ADD SWAP1 POP SWAP2 SWAP1 POP JUMP JUMPDEST PUSH0 PUSH1 0x20 DUP3 ADD SWAP1 POP DUP2 DUP2 SUB PUSH0 DUP4 ADD MSTORE PUSH2 0x428A DUP2 PUSH2 0x4251 JUMP JUMPDEST SWAP1 POP SWAP2 SWAP1 POP JUMP JUMPDEST PUSH32 0x45524332303A207472616E7366657220616D6F756E7420657863656564732062 PUSH0 DUP3 ADD MSTORE PUSH32 0x616C616E63650000000000000000000000000000000000000000000000000000 PUSH1 0x20 DUP3 ADD MSTORE POP JUMP JUMPDEST PUSH0 PUSH2 0x42EB PUSH1 0x26 DUP4 PUSH2 0x2C20 JUMP JUMPDEST SWAP2 POP PUSH2 0x42F6 DUP3 PUSH2 0x4291 JUMP JUMPDEST PUSH1 0x40 DUP3 ADD SWAP1 POP SWAP2 SWAP1 POP JUMP JUMPDEST PUSH0 PUSH1 0x20 DUP3 ADD SWAP1 POP DUP2 DUP2 SUB PUSH0 DUP4 ADD MSTORE PUSH2 0x4318 DUP2 PUSH2 0x42DF JUMP JUMPDEST SWAP1 POP SWAP2 SWAP1 POP JUMP JUMPDEST PUSH32 0xD09DD0B5D0BBD18CD0B7D18F20D0BFD0B5D180D0B5D0B2D0B5D181D182D0B820 PUSH0 DUP3 ADD MSTORE PUSH32 0xD182D0BED0BAD0B5D0BDD18B20D0BDD0B020D0BDD0B5D181D183D189D0B5D181 PUSH1 0x20 DUP3 ADD MSTORE PUSH32 0xD182D0B2D183D18ED189D0B8D0B920D0B0D0B4D180D0B5D18121000000000000 PUSH1 0x40 DUP3 ADD MSTORE POP JUMP JUMPDEST PUSH0 PUSH2 0x439F PUSH1 0x5A DUP4 PUSH2 0x2C20 JUMP JUMPDEST SWAP2 POP PUSH2 0x43AA DUP3 PUSH2 0x431F JUMP JUMPDEST PUSH1 0x60 DUP3 ADD SWAP1 POP SWAP2 SWAP1 POP JUMP JUMPDEST PUSH0 PUSH1 0x20 DUP3 ADD SWAP1 POP DUP2 DUP2 SUB PUSH0 DUP4 ADD MSTORE PUSH2 0x43CC DUP2 PUSH2 0x4393 JUMP JUMPDEST SWAP1 POP SWAP2 SWAP1 POP JUMP JUMPDEST PUSH32 0xD09DD0B5D0BBD18CD0B7D18F20D0BFD0B5D180D0B5D0B2D0BED0B4D0B8D182D1 PUSH0 DUP3 ADD MSTORE PUSH32 0x8C20D182D0B0D0BAD0BED0B920D182D0B8D0BF20D182D0BED0BAD0B5D0BDD0BE PUSH1 0x20 DUP3 ADD MSTORE PUSH32 0xD0B2210000000000000000000000000000000000000000000000000000000000 PUSH1 0x40 DUP3 ADD MSTORE POP JUMP JUMPDEST PUSH0 PUSH2 0x4453 PUSH1 0x43 DUP4 PUSH2 0x2C20 JUMP JUMPDEST SWAP2 POP PUSH2 0x445E DUP3 PUSH2 0x43D3 JUMP JUMPDEST PUSH1 0x60 DUP3 ADD SWAP1 POP SWAP2 SWAP1 POP JUMP JUMPDEST PUSH0 PUSH1 0x20 DUP3 ADD SWAP1 POP DUP2 DUP2 SUB PUSH0 DUP4 ADD MSTORE PUSH2 0x4480 DUP2 PUSH2 0x4447 JUMP JUMPDEST SWAP1 POP SWAP2 SWAP1 POP JUMP JUMPDEST PUSH32 0x6F776E6572000000000000000000000000000000000000000000000000000000 PUSH0 DUP3 ADD MSTORE POP JUMP JUMPDEST PUSH0 PUSH2 0x44BB PUSH1 0x5 DUP4 PUSH2 0x33C6 JUMP JUMPDEST SWAP2 POP PUSH2 0x44C6 DUP3 PUSH2 0x4487 JUMP JUMPDEST PUSH1 0x5 DUP3 ADD SWAP1 POP SWAP2 SWAP1 POP JUMP JUMPDEST PUSH0 PUSH2 0x44DB DUP3 PUSH2 0x44AF JUMP JUMPDEST SWAP2 POP DUP2 SWAP1 POP SWAP2 SWAP1 POP JUMP JUMPDEST PUSH32 0x4E487B7100000000000000000000000000000000000000000000000000000000 PUSH0 MSTORE PUSH1 0x51 PUSH1 0x4 MSTORE PUSH1 0x24 PUSH0 REVERT INVALID LOG2 PUSH5 0x6970667358 0x22 SLT KECCAK256 KECCAK256 GASLIMIT 0xCA 0x4B BYTE 0xDF 0x2F 0xDC 0xC5 0xB6 CALLCODE NUMBER 0x22 SWAP11 0xC6 SSTORE 0x2B SWAP12 0x2A PUSH8 0xE786805841B51C64 0xCB DUP1 0xB8 0xE PUSH5 0x736F6C6343 STOP ADDMOD AND STOP CALLER "
		},
		"gasEstimates": {
			"creation": {
				"codeDepositCost": "3547200",
				"executionCost": "infinite",
				"totalCost": "infinite"
			},
			"external": {
				"acceptInviteRequests(string,bool)": "infinite",
				"addMinute()": "infinite",
				"allowance(address,address)": "infinite",
				"approve(address,uint256)": "infinite",
				"askForWhitelistInvite()": "infinite",
				"balanceOf(address)": "2940",
				"buyToken(uint256)": "infinite",
				"changeTokenCost(uint8)": "infinite",
				"checkSystemLifeTime()": "infinite",
				"decimals()": "405",
				"decreaseAllowance(address,uint256)": "infinite",
				"giveReward(address,uint8)": "infinite",
				"increaseAllowance(address,uint256)": "infinite",
				"name()": "infinite",
				"signIn(string,string)": "infinite",
				"signUp(string,string)": "infinite",
				"symbol()": "infinite",
				"totalSupply()": "2522",
				"transfer(address,uint256)": "infinite",
				"transferFrom(address,address,uint256)": "infinite"
			},
			"internal": {
				"_makePhaseConditions()": "infinite",
				"_resetTime()": "infinite",
				"transfer(address,address,uint256,uint8)": "infinite"
			}
		},
		"methodIdentifiers": {
			"acceptInviteRequests(string,bool)": "a33dc9fa",
			"addMinute()": "e4d69fbd",
			"allowance(address,address)": "dd62ed3e",
			"approve(address,uint256)": "095ea7b3",
			"askForWhitelistInvite()": "9b9aa3eb",
			"balanceOf(address)": "70a08231",
			"buyToken(uint256)": "2d296bf1",
			"changeTokenCost(uint8)": "817c1e07",
			"checkSystemLifeTime()": "0bab8388",
			"decimals()": "313ce567",
			"decreaseAllowance(address,uint256)": "a457c2d7",
			"giveReward(address,uint8)": "da452c04",
			"increaseAllowance(address,uint256)": "39509351",
			"name()": "06fdde03",
			"signIn(string,string)": "2c162dbc",
			"signUp(string,string)": "a469a332",
			"symbol()": "95d89b41",
			"totalSupply()": "18160ddd",
			"transfer(address,uint256)": "a9059cbb",
			"transferFrom(address,address,uint256)": "23b872dd"
		}
	},
	"abi": [
		{
			"inputs": [],
			"stateMutability": "nonpayable",
			"type": "constructor"
		},
		{
			"anonymous": false,
			"inputs": [
				{
					"indexed": true,
					"internalType": "address",
					"name": "owner",
					"type": "address"
				},
				{
					"indexed": true,
					"internalType": "address",
					"name": "spender",
					"type": "address"
				},
				{
					"indexed": false,
					"internalType": "uint256",
					"name": "value",
					"type": "uint256"
				}
			],
			"name": "Approval",
			"type": "event"
		},
		{
			"anonymous": false,
			"inputs": [
				{
					"indexed": true,
					"internalType": "address",
					"name": "from",
					"type": "address"
				},
				{
					"indexed": true,
					"internalType": "address",
					"name": "to",
					"type": "address"
				},
				{
					"indexed": false,
					"internalType": "uint256",
					"name": "value",
					"type": "uint256"
				}
			],
			"name": "Transfer",
			"type": "event"
		},
		{
			"inputs": [
				{
					"internalType": "string",
					"name": "requesterLog",
					"type": "string"
				},
				{
					"internalType": "bool",
					"name": "isAccepted",
					"type": "bool"
				}
			],
			"name": "acceptInviteRequests",
			"outputs": [],
			"stateMutability": "nonpayable",
			"type": "function"
		},
		{
			"inputs": [],
			"name": "addMinute",
			"outputs": [],
			"stateMutability": "nonpayable",
			"type": "function"
		},
		{
			"inputs": [
				{
					"internalType": "address",
					"name": "owner",
					"type": "address"
				},
				{
					"internalType": "address",
					"name": "spender",
					"type": "address"
				}
			],
			"name": "allowance",
			"outputs": [
				{
					"internalType": "uint256",
					"name": "",
					"type": "uint256"
				}
			],
			"stateMutability": "view",
			"type": "function"
		},
		{
			"inputs": [
				{
					"internalType": "address",
					"name": "spender",
					"type": "address"
				},
				{
					"internalType": "uint256",
					"name": "amount",
					"type": "uint256"
				}
			],
			"name": "approve",
			"outputs": [
				{
					"internalType": "bool",
					"name": "",
					"type": "bool"
				}
			],
			"stateMutability": "nonpayable",
			"type": "function"
		},
		{
			"inputs": [],
			"name": "askForWhitelistInvite",
			"outputs": [],
			"stateMutability": "nonpayable",
			"type": "function"
		},
		{
			"inputs": [
				{
					"internalType": "address",
					"name": "account",
					"type": "address"
				}
			],
			"name": "balanceOf",
			"outputs": [
				{
					"internalType": "uint256",
					"name": "",
					"type": "uint256"
				}
			],
			"stateMutability": "view",
			"type": "function"
		},
		{
			"inputs": [
				{
					"internalType": "uint256",
					"name": "amount",
					"type": "uint256"
				}
			],
			"name": "buyToken",
			"outputs": [],
			"stateMutability": "payable",
			"type": "function"
		},
		{
			"inputs": [
				{
					"internalType": "uint8",
					"name": "costWeiValue",
					"type": "uint8"
				}
			],
			"name": "changeTokenCost",
			"outputs": [],
			"stateMutability": "nonpayable",
			"type": "function"
		},
		{
			"inputs": [],
			"name": "checkSystemLifeTime",
			"outputs": [],
			"stateMutability": "nonpayable",
			"type": "function"
		},
		{
			"inputs": [],
			"name": "decimals",
			"outputs": [
				{
					"internalType": "uint8",
					"name": "",
					"type": "uint8"
				}
			],
			"stateMutability": "view",
			"type": "function"
		},
		{
			"inputs": [
				{
					"internalType": "address",
					"name": "spender",
					"type": "address"
				},
				{
					"internalType": "uint256",
					"name": "subtractedValue",
					"type": "uint256"
				}
			],
			"name": "decreaseAllowance",
			"outputs": [
				{
					"internalType": "bool",
					"name": "",
					"type": "bool"
				}
			],
			"stateMutability": "nonpayable",
			"type": "function"
		},
		{
			"inputs": [
				{
					"internalType": "address",
					"name": "_to",
					"type": "address"
				},
				{
					"internalType": "uint8",
					"name": "amount",
					"type": "uint8"
				}
			],
			"name": "giveReward",
			"outputs": [],
			"stateMutability": "nonpayable",
			"type": "function"
		},
		{
			"inputs": [
				{
					"internalType": "address",
					"name": "spender",
					"type": "address"
				},
				{
					"internalType": "uint256",
					"name": "addedValue",
					"type": "uint256"
				}
			],
			"name": "increaseAllowance",
			"outputs": [
				{
					"internalType": "bool",
					"name": "",
					"type": "bool"
				}
			],
			"stateMutability": "nonpayable",
			"type": "function"
		},
		{
			"inputs": [],
			"name": "name",
			"outputs": [
				{
					"internalType": "string",
					"name": "",
					"type": "string"
				}
			],
			"stateMutability": "view",
			"type": "function"
		},
		{
			"inputs": [
				{
					"internalType": "string",
					"name": "login",
					"type": "string"
				},
				{
					"internalType": "string",
					"name": "password",
					"type": "string"
				}
			],
			"name": "signIn",
			"outputs": [
				{
					"components": [
						{
							"internalType": "string",
							"name": "login",
							"type": "string"
						},
						{
							"internalType": "address",
							"name": "wallet",
							"type": "address"
						},
						{
							"internalType": "bool",
							"name": "isInWhitelist",
							"type": "bool"
						},
						{
							"internalType": "uint256",
							"name": "seedBalance",
							"type": "uint256"
						},
						{
							"internalType": "uint256",
							"name": "privateBalance",
							"type": "uint256"
						},
						{
							"internalType": "uint256",
							"name": "publicBalance",
							"type": "uint256"
						},
						{
							"internalType": "enum LaunchSystem.Roles",
							"name": "role",
							"type": "uint8"
						}
					],
					"internalType": "struct LaunchSystem.User",
					"name": "",
					"type": "tuple"
				}
			],
			"stateMutability": "nonpayable",
			"type": "function"
		},
		{
			"inputs": [
				{
					"internalType": "string",
					"name": "login",
					"type": "string"
				},
				{
					"internalType": "string",
					"name": "password",
					"type": "string"
				}
			],
			"name": "signUp",
			"outputs": [],
			"stateMutability": "nonpayable",
			"type": "function"
		},
		{
			"inputs": [],
			"name": "symbol",
			"outputs": [
				{
					"internalType": "string",
					"name": "",
					"type": "string"
				}
			],
			"stateMutability": "view",
			"type": "function"
		},
		{
			"inputs": [],
			"name": "totalSupply",
			"outputs": [
				{
					"internalType": "uint256",
					"name": "",
					"type": "uint256"
				}
			],
			"stateMutability": "view",
			"type": "function"
		},
		{
			"inputs": [
				{
					"internalType": "address",
					"name": "to",
					"type": "address"
				},
				{
					"internalType": "uint256",
					"name": "amount",
					"type": "uint256"
				}
			],
			"name": "transfer",
			"outputs": [
				{
					"internalType": "bool",
					"name": "",
					"type": "bool"
				}
			],
			"stateMutability": "nonpayable",
			"type": "function"
		},
		{
			"inputs": [
				{
					"internalType": "address",
					"name": "from",
					"type": "address"
				},
				{
					"internalType": "address",
					"name": "to",
					"type": "address"
				},
				{
					"internalType": "uint256",
					"name": "amount",
					"type": "uint256"
				}
			],
			"name": "transferFrom",
			"outputs": [
				{
					"internalType": "bool",
					"name": "",
					"type": "bool"
				}
			],
			"stateMutability": "nonpayable",
			"type": "function"
		}
	]
}